{
  "address": "0x5118d966842036BA8e1411064eADF3D075134516",
  "abi": [
    {
      "inputs": [],
      "stateMutability": "nonpayable",
      "type": "constructor"
    },
    {
      "inputs": [],
      "name": "NotAuthorizedChanger",
      "type": "error"
    },
    {
      "inputs": [
        {
          "internalType": "bytes32",
          "name": "role",
          "type": "bytes32"
        }
      ],
      "name": "NotUniqueRole",
      "type": "error"
    },
    {
      "anonymous": false,
      "inputs": [
        {
          "indexed": false,
          "internalType": "address",
          "name": "previousAdmin",
          "type": "address"
        },
        {
          "indexed": false,
          "internalType": "address",
          "name": "newAdmin",
          "type": "address"
        }
      ],
      "name": "AdminChanged",
      "type": "event"
    },
    {
      "anonymous": false,
      "inputs": [
        {
          "indexed": true,
          "internalType": "address",
          "name": "owner",
          "type": "address"
        },
        {
          "indexed": true,
          "internalType": "address",
          "name": "spender",
          "type": "address"
        },
        {
          "indexed": false,
          "internalType": "uint256",
          "name": "value",
          "type": "uint256"
        }
      ],
      "name": "Approval",
      "type": "event"
    },
    {
      "anonymous": false,
      "inputs": [
        {
          "indexed": true,
          "internalType": "address",
          "name": "beacon",
          "type": "address"
        }
      ],
      "name": "BeaconUpgraded",
      "type": "event"
    },
    {
      "anonymous": false,
      "inputs": [
        {
          "indexed": false,
          "internalType": "uint8",
          "name": "version",
          "type": "uint8"
        }
      ],
      "name": "Initialized",
      "type": "event"
    },
    {
      "anonymous": false,
      "inputs": [
        {
          "indexed": true,
          "internalType": "bytes32",
          "name": "role",
          "type": "bytes32"
        },
        {
          "indexed": true,
          "internalType": "bytes32",
          "name": "previousAdminRole",
          "type": "bytes32"
        },
        {
          "indexed": true,
          "internalType": "bytes32",
          "name": "newAdminRole",
          "type": "bytes32"
        }
      ],
      "name": "RoleAdminChanged",
      "type": "event"
    },
    {
      "anonymous": false,
      "inputs": [
        {
          "indexed": true,
          "internalType": "bytes32",
          "name": "role",
          "type": "bytes32"
        },
        {
          "indexed": true,
          "internalType": "address",
          "name": "account",
          "type": "address"
        },
        {
          "indexed": true,
          "internalType": "address",
          "name": "sender",
          "type": "address"
        }
      ],
      "name": "RoleGranted",
      "type": "event"
    },
    {
      "anonymous": false,
      "inputs": [
        {
          "indexed": true,
          "internalType": "bytes32",
          "name": "role",
          "type": "bytes32"
        },
        {
          "indexed": true,
          "internalType": "address",
          "name": "account",
          "type": "address"
        },
        {
          "indexed": true,
          "internalType": "address",
          "name": "sender",
          "type": "address"
        }
      ],
      "name": "RoleRevoked",
      "type": "event"
    },
    {
      "anonymous": false,
      "inputs": [
        {
          "indexed": true,
          "internalType": "address",
          "name": "from",
          "type": "address"
        },
        {
          "indexed": true,
          "internalType": "address",
          "name": "to",
          "type": "address"
        },
        {
          "indexed": false,
          "internalType": "uint256",
          "name": "value",
          "type": "uint256"
        }
      ],
      "name": "Transfer",
      "type": "event"
    },
    {
      "anonymous": false,
      "inputs": [
        {
          "indexed": true,
          "internalType": "address",
          "name": "implementation",
          "type": "address"
        }
      ],
      "name": "Upgraded",
      "type": "event"
    },
    {
      "inputs": [],
      "name": "DEFAULT_ADMIN_ROLE",
      "outputs": [
        {
          "internalType": "bytes32",
          "name": "",
          "type": "bytes32"
        }
      ],
      "stateMutability": "view",
      "type": "function"
    },
    {
      "inputs": [
        {
          "internalType": "address",
          "name": "owner",
          "type": "address"
        },
        {
          "internalType": "address",
          "name": "spender",
          "type": "address"
        }
      ],
      "name": "allowance",
      "outputs": [
        {
          "internalType": "uint256",
          "name": "",
          "type": "uint256"
        }
      ],
      "stateMutability": "view",
      "type": "function"
    },
    {
      "inputs": [
        {
          "internalType": "address",
          "name": "spender",
          "type": "address"
        },
        {
          "internalType": "uint256",
          "name": "amount",
          "type": "uint256"
        }
      ],
      "name": "approve",
      "outputs": [
        {
          "internalType": "bool",
          "name": "",
          "type": "bool"
        }
      ],
      "stateMutability": "nonpayable",
      "type": "function"
    },
    {
      "inputs": [
        {
          "internalType": "address",
          "name": "account",
          "type": "address"
        }
      ],
      "name": "balanceOf",
      "outputs": [
        {
          "internalType": "uint256",
          "name": "",
          "type": "uint256"
        }
      ],
      "stateMutability": "view",
      "type": "function"
    },
    {
      "inputs": [
        {
          "internalType": "address",
          "name": "to",
          "type": "address"
        },
        {
          "internalType": "uint256",
          "name": "amount",
          "type": "uint256"
        }
      ],
      "name": "burn",
      "outputs": [],
      "stateMutability": "nonpayable",
      "type": "function"
    },
    {
      "inputs": [
        {
          "internalType": "contract IGovernor",
          "name": "newGovernor_",
          "type": "address"
        }
      ],
      "name": "changeGovernor",
      "outputs": [],
      "stateMutability": "nonpayable",
      "type": "function"
    },
    {
      "inputs": [],
      "name": "decimals",
      "outputs": [
        {
          "internalType": "uint8",
          "name": "",
          "type": "uint8"
        }
      ],
      "stateMutability": "view",
      "type": "function"
    },
    {
      "inputs": [
        {
          "internalType": "address",
          "name": "spender",
          "type": "address"
        },
        {
          "internalType": "uint256",
          "name": "subtractedValue",
          "type": "uint256"
        }
      ],
      "name": "decreaseAllowance",
      "outputs": [
        {
          "internalType": "bool",
          "name": "",
          "type": "bool"
        }
      ],
      "stateMutability": "nonpayable",
      "type": "function"
    },
    {
      "inputs": [
        {
          "internalType": "bytes32",
          "name": "role",
          "type": "bytes32"
        }
      ],
      "name": "getRoleAdmin",
      "outputs": [
        {
          "internalType": "bytes32",
          "name": "",
          "type": "bytes32"
        }
      ],
      "stateMutability": "view",
      "type": "function"
    },
    {
      "inputs": [
        {
          "internalType": "bytes32",
          "name": "role",
          "type": "bytes32"
        },
        {
          "internalType": "uint256",
          "name": "index",
          "type": "uint256"
        }
      ],
      "name": "getRoleMember",
      "outputs": [
        {
          "internalType": "address",
          "name": "",
          "type": "address"
        }
      ],
      "stateMutability": "view",
      "type": "function"
    },
    {
      "inputs": [
        {
          "internalType": "bytes32",
          "name": "role",
          "type": "bytes32"
        }
      ],
      "name": "getRoleMemberCount",
      "outputs": [
        {
          "internalType": "uint256",
          "name": "",
          "type": "uint256"
        }
      ],
      "stateMutability": "view",
      "type": "function"
    },
    {
      "inputs": [],
      "name": "governor",
      "outputs": [
        {
          "internalType": "contract IGovernor",
          "name": "",
          "type": "address"
        }
      ],
      "stateMutability": "view",
      "type": "function"
    },
    {
      "inputs": [
        {
          "internalType": "bytes32",
          "name": "role",
          "type": "bytes32"
        },
        {
          "internalType": "address",
          "name": "account",
          "type": "address"
        }
      ],
      "name": "grantRole",
      "outputs": [],
      "stateMutability": "nonpayable",
      "type": "function"
    },
    {
      "inputs": [
        {
          "internalType": "bytes32",
          "name": "role",
          "type": "bytes32"
        },
        {
          "internalType": "address",
          "name": "account",
          "type": "address"
        }
      ],
      "name": "hasRole",
      "outputs": [
        {
          "internalType": "bool",
          "name": "",
          "type": "bool"
        }
      ],
      "stateMutability": "view",
      "type": "function"
    },
    {
      "inputs": [
        {
          "internalType": "address",
          "name": "spender",
          "type": "address"
        },
        {
          "internalType": "uint256",
          "name": "addedValue",
          "type": "uint256"
        }
      ],
      "name": "increaseAllowance",
      "outputs": [
        {
          "internalType": "bool",
          "name": "",
          "type": "bool"
        }
      ],
      "stateMutability": "nonpayable",
      "type": "function"
    },
    {
      "inputs": [
        {
          "internalType": "string",
          "name": "name_",
          "type": "string"
        },
        {
          "internalType": "string",
          "name": "symbol_",
          "type": "string"
        },
        {
          "internalType": "address",
          "name": "admin_",
          "type": "address"
        },
        {
          "internalType": "contract IGovernor",
          "name": "governor_",
          "type": "address"
        }
      ],
      "name": "initialize",
      "outputs": [],
      "stateMutability": "nonpayable",
      "type": "function"
    },
    {
      "inputs": [
        {
          "internalType": "address",
          "name": "to",
          "type": "address"
        },
        {
          "internalType": "uint256",
          "name": "amount",
          "type": "uint256"
        }
      ],
      "name": "mint",
      "outputs": [
        {
          "internalType": "bool",
          "name": "",
          "type": "bool"
        }
      ],
      "stateMutability": "nonpayable",
      "type": "function"
    },
    {
      "inputs": [],
      "name": "name",
      "outputs": [
        {
          "internalType": "string",
          "name": "",
          "type": "string"
        }
      ],
      "stateMutability": "view",
      "type": "function"
    },
    {
      "inputs": [],
      "name": "proxiableUUID",
      "outputs": [
        {
          "internalType": "bytes32",
          "name": "",
          "type": "bytes32"
        }
      ],
      "stateMutability": "view",
      "type": "function"
    },
    {
      "inputs": [
        {
          "internalType": "bytes32",
          "name": "role",
          "type": "bytes32"
        },
        {
          "internalType": "address",
          "name": "account",
          "type": "address"
        }
      ],
      "name": "renounceRole",
      "outputs": [],
      "stateMutability": "nonpayable",
      "type": "function"
    },
    {
      "inputs": [
        {
          "internalType": "bytes32",
          "name": "role",
          "type": "bytes32"
        },
        {
          "internalType": "address",
          "name": "account",
          "type": "address"
        }
      ],
      "name": "revokeRole",
      "outputs": [],
      "stateMutability": "nonpayable",
      "type": "function"
    },
    {
      "inputs": [
        {
          "internalType": "bytes4",
          "name": "interfaceId",
          "type": "bytes4"
        }
      ],
      "name": "supportsInterface",
      "outputs": [
        {
          "internalType": "bool",
          "name": "",
          "type": "bool"
        }
      ],
      "stateMutability": "view",
      "type": "function"
    },
    {
      "inputs": [],
      "name": "symbol",
      "outputs": [
        {
          "internalType": "string",
          "name": "",
          "type": "string"
        }
      ],
      "stateMutability": "view",
      "type": "function"
    },
    {
      "inputs": [],
      "name": "totalSupply",
      "outputs": [
        {
          "internalType": "uint256",
          "name": "",
          "type": "uint256"
        }
      ],
      "stateMutability": "view",
      "type": "function"
    },
    {
      "inputs": [
        {
          "internalType": "address",
          "name": "to",
          "type": "address"
        },
        {
          "internalType": "uint256",
          "name": "amount",
          "type": "uint256"
        }
      ],
      "name": "transfer",
      "outputs": [
        {
          "internalType": "bool",
          "name": "",
          "type": "bool"
        }
      ],
      "stateMutability": "nonpayable",
      "type": "function"
    },
    {
      "inputs": [
        {
          "internalType": "address",
          "name": "account",
          "type": "address"
        }
      ],
      "name": "transferAllRoles",
      "outputs": [],
      "stateMutability": "nonpayable",
      "type": "function"
    },
    {
      "inputs": [
        {
          "internalType": "address",
          "name": "from",
          "type": "address"
        },
        {
          "internalType": "address",
          "name": "to",
          "type": "address"
        },
        {
          "internalType": "uint256",
          "name": "amount",
          "type": "uint256"
        }
      ],
      "name": "transferFrom",
      "outputs": [
        {
          "internalType": "bool",
          "name": "",
          "type": "bool"
        }
      ],
      "stateMutability": "nonpayable",
      "type": "function"
    },
    {
      "inputs": [
        {
          "internalType": "address",
          "name": "newImplementation",
          "type": "address"
        }
      ],
      "name": "upgradeTo",
      "outputs": [],
      "stateMutability": "nonpayable",
      "type": "function"
    },
    {
      "inputs": [
        {
          "internalType": "address",
          "name": "newImplementation",
          "type": "address"
        },
        {
          "internalType": "bytes",
          "name": "data",
          "type": "bytes"
        }
      ],
      "name": "upgradeToAndCall",
      "outputs": [],
      "stateMutability": "payable",
      "type": "function"
    }
  ],
  "transactionHash": "0x09a943733a57be95afd0cced888b730db238f534ec3a6f8436f5d7003cb75fcf",
  "args": [],
  "numDeployments": 1,
  "solcInputHash": "02683f3758d7844c9e6001fd54d95e3e",
  "bytecode": "0x60a0604052306080523480156200001557600080fd5b506200002062000030565b6200002a62000030565b620000f2565b600054610100900460ff16156200009d5760405162461bcd60e51b815260206004820152602760248201527f496e697469616c697a61626c653a20636f6e747261637420697320696e697469604482015266616c697a696e6760c81b606482015260840160405180910390fd5b60005460ff9081161015620000f0576000805460ff191660ff9081179091556040519081527f7f26b83ff96e1f2b6a682f133852f6798a09c465da95921460cefb38474024989060200160405180910390a15b565b60805161259b6200012a6000396000818161073e0152818161077e01528181610863015281816108a30152610932015261259b6000f3fe6080604052600436106101c25760003560e01c806352d1902d116100f75780639dc29fac11610095578063ca15c87311610064578063ca15c8731461050c578063d547741f1461052c578063dd62ed3e1461054c578063e4c0aaf41461056c57600080fd5b80639dc29fac14610497578063a217fddf146104b7578063a457c2d7146104cc578063a9059cbb146104ec57600080fd5b80638f15b414116100d15780638f15b414146104225780639010d07c1461044257806391d148541461046257806395d89b411461048257600080fd5b806352d1902d146103b757806370a08231146103cc57806383d2230d1461040257600080fd5b80632f2ff15d116101645780633659cfe61161013e5780633659cfe614610344578063395093511461036457806340c10f19146103845780634f1ef286146103a457600080fd5b80632f2ff15d146102e6578063313ce5671461030857806336568abe1461032457600080fd5b80630c340a24116101a05780630c340a241461023e57806318160ddd1461027757806323b872dd14610296578063248a9ca3146102b657600080fd5b806301ffc9a7146101c757806306fdde03146101fc578063095ea7b31461021e575b600080fd5b3480156101d357600080fd5b506101e76101e2366004611df7565b61058c565b60405190151581526020015b60405180910390f35b34801561020857600080fd5b506102116105b7565b6040516101f39190611e45565b34801561022a57600080fd5b506101e7610239366004611e8d565b610649565b34801561024a57600080fd5b5061015f5461025f906001600160a01b031681565b6040516001600160a01b0390911681526020016101f3565b34801561028357600080fd5b5060cb545b6040519081526020016101f3565b3480156102a257600080fd5b506101e76102b1366004611eb9565b610661565b3480156102c257600080fd5b506102886102d1366004611efa565b60009081526065602052604090206001015490565b3480156102f257600080fd5b50610306610301366004611f13565b610687565b005b34801561031457600080fd5b50604051601281526020016101f3565b34801561033057600080fd5b5061030661033f366004611f13565b6106b1565b34801561035057600080fd5b5061030661035f366004611f43565b610734565b34801561037057600080fd5b506101e761037f366004611e8d565b610813565b34801561039057600080fd5b506101e761039f366004611e8d565b610835565b6103066103b2366004611fec565b610859565b3480156103c357600080fd5b50610288610925565b3480156103d857600080fd5b506102886103e7366004611f43565b6001600160a01b0316600090815260c9602052604090205490565b34801561040e57600080fd5b5061030661041d366004611f43565b6109d8565b34801561042e57600080fd5b5061030661043d366004612070565b610b3d565b34801561044e57600080fd5b5061025f61045d3660046120f9565b610c86565b34801561046e57600080fd5b506101e761047d366004611f13565b610c9e565b34801561048e57600080fd5b50610211610cc9565b3480156104a357600080fd5b506103066104b2366004611e8d565b610cd8565b3480156104c357600080fd5b50610288600081565b3480156104d857600080fd5b506101e76104e7366004611e8d565b610cfa565b3480156104f857600080fd5b506101e7610507366004611e8d565b610d80565b34801561051857600080fd5b50610288610527366004611efa565b610d8e565b34801561053857600080fd5b50610306610547366004611f13565b610da5565b34801561055857600080fd5b5061028861056736600461211b565b610dca565b34801561057857600080fd5b50610306610587366004611f43565b610df5565b60006001600160e01b03198216635a05180f60e01b14806105b157506105b182610e20565b92915050565b606060cc80546105c690612149565b80601f01602080910402602001604051908101604052809291908181526020018280546105f290612149565b801561063f5780601f106106145761010080835404028352916020019161063f565b820191906000526020600020905b81548152906001019060200180831161062257829003601f168201915b5050505050905090565b600033610657818585610e55565b5060019392505050565b60003361066f858285610f79565b61067a858585610ff3565b60019150505b9392505050565b6000828152606560205260409020600101546106a28161119e565b6106ac83836111a8565b505050565b6001600160a01b03811633146107265760405162461bcd60e51b815260206004820152602f60248201527f416363657373436f6e74726f6c3a2063616e206f6e6c792072656e6f756e636560448201526e103937b632b9903337b91039b2b63360891b60648201526084015b60405180910390fd5b61073082826111ca565b5050565b6001600160a01b037f000000000000000000000000000000000000000000000000000000000000000016300361077c5760405162461bcd60e51b815260040161071d90612183565b7f00000000000000000000000000000000000000000000000000000000000000006001600160a01b03166107c56000805160206124ff833981519152546001600160a01b031690565b6001600160a01b0316146107eb5760405162461bcd60e51b815260040161071d906121cf565b6107f4816111ec565b60408051600080825260208201909252610810918391906111f4565b50565b6000336106578185856108268383610dca565b6108309190612231565b610e55565b600060008051602061254683398151915261084f8161119e565b610657848461135f565b6001600160a01b037f00000000000000000000000000000000000000000000000000000000000000001630036108a15760405162461bcd60e51b815260040161071d90612183565b7f00000000000000000000000000000000000000000000000000000000000000006001600160a01b03166108ea6000805160206124ff833981519152546001600160a01b031690565b6001600160a01b0316146109105760405162461bcd60e51b815260040161071d906121cf565b610919826111ec565b610730828260016111f4565b6000306001600160a01b037f000000000000000000000000000000000000000000000000000000000000000016146109c55760405162461bcd60e51b815260206004820152603860248201527f555550535570677261646561626c653a206d757374206e6f742062652063616c60448201527f6c6564207468726f7567682064656c656761746563616c6c0000000000000000606482015260840161071d565b506000805160206124ff83398151915290565b6000805260656020527fffdfc1249c027f9191656349feb0761381bb32c9f557e01f419fd08754bf5a1c54610a0c8161119e565b610a176000836111a8565b610a2f600080516020612546833981519152836111a8565b610a476000805160206124df833981519152836111a8565b610a5f600080516020612546833981519152336111ca565b610a776000805160206124df833981519152336111ca565b610a826000336111ca565b610a8c6000610d8e565b600114610aaf57604051630e2b37cd60e41b81526000600482015260240161071d565b610ac6600080516020612546833981519152610d8e565b600114610af657604051630e2b37cd60e41b8152600080516020612546833981519152600482015260240161071d565b610b0d6000805160206124df833981519152610d8e565b60011461073057604051630e2b37cd60e41b81526000805160206124df833981519152600482015260240161071d565b600054610100900460ff1615808015610b5d5750600054600160ff909116105b80610b775750303b158015610b77575060005460ff166001145b610bda5760405162461bcd60e51b815260206004820152602e60248201527f496e697469616c697a61626c653a20636f6e747261637420697320616c72656160448201526d191e481a5b9a5d1a585b1a5e995960921b606482015260840161071d565b6000805460ff191660011790558015610bfd576000805461ff0019166101001790555b610c0985858585611420565b610c21600080516020612546833981519152846111a8565b610c396000805160206124df833981519152846111a8565b8015610c7f576000805461ff0019169055604051600181527f7f26b83ff96e1f2b6a682f133852f6798a09c465da95921460cefb38474024989060200160405180910390a15b5050505050565b60008281526097602052604081206106809083611475565b60009182526065602090815260408084206001600160a01b0393909316845291905290205460ff1690565b606060cd80546105c690612149565b6000805160206124df833981519152610cf08161119e565b6106ac8383611481565b60003381610d088286610dca565b905083811015610d685760405162461bcd60e51b815260206004820152602560248201527f45524332303a2064656372656173656420616c6c6f77616e63652062656c6f77604482015264207a65726f60d81b606482015260840161071d565b610d758286868403610e55565b506001949350505050565b600033610657818585610ff3565b60008181526097602052604081206105b1906115b5565b600082815260656020526040902060010154610dc08161119e565b6106ac83836111ca565b6001600160a01b03918216600090815260ca6020908152604080832093909416825291909152205490565b610dfd6115bf565b61015f80546001600160a01b0319166001600160a01b0392909216919091179055565b60006001600160e01b03198216637965db0b60e01b14806105b157506301ffc9a760e01b6001600160e01b03198316146105b1565b6001600160a01b038316610eb75760405162461bcd60e51b8152602060048201526024808201527f45524332303a20617070726f76652066726f6d20746865207a65726f206164646044820152637265737360e01b606482015260840161071d565b6001600160a01b038216610f185760405162461bcd60e51b815260206004820152602260248201527f45524332303a20617070726f766520746f20746865207a65726f206164647265604482015261737360f01b606482015260840161071d565b6001600160a01b03838116600081815260ca602090815260408083209487168084529482529182902085905590518481527f8c5be1e5ebec7d5bd14f71427d1e84f3dd0314c0f7b2291e5b200ac8c7c3b925910160405180910390a3505050565b6000610f858484610dca565b90506000198114610fed5781811015610fe05760405162461bcd60e51b815260206004820152601d60248201527f45524332303a20696e73756666696369656e7420616c6c6f77616e6365000000604482015260640161071d565b610fed8484848403610e55565b50505050565b6001600160a01b0383166110575760405162461bcd60e51b815260206004820152602560248201527f45524332303a207472616e736665722066726f6d20746865207a65726f206164604482015264647265737360d81b606482015260840161071d565b6001600160a01b0382166110b95760405162461bcd60e51b815260206004820152602360248201527f45524332303a207472616e7366657220746f20746865207a65726f206164647260448201526265737360e81b606482015260840161071d565b6001600160a01b038316600090815260c96020526040902054818110156111315760405162461bcd60e51b815260206004820152602660248201527f45524332303a207472616e7366657220616d6f756e7420657863656564732062604482015265616c616e636560d01b606482015260840161071d565b6001600160a01b03808516600081815260c9602052604080822086860390559286168082529083902080548601905591517fddf252ad1be2c89b69c2b068fc378daa952ba7f163c4a11628f55a4df523b3ef906111919086815260200190565b60405180910390a3610fed565b610810813361164b565b6111b282826116a4565b60008281526097602052604090206106ac908261172a565b6111d4828261173f565b60008281526097602052604090206106ac90826117a6565b6108106115bf565b7f4910fdfa16fed3260ed0e7147f7cc6da11a60208b5b9406d12a635614ffd91435460ff1615611227576106ac836117bb565b826001600160a01b03166352d1902d6040518163ffffffff1660e01b8152600401602060405180830381865afa925050508015611281575060408051601f3d908101601f1916820190925261127e91810190612244565b60015b6112e45760405162461bcd60e51b815260206004820152602e60248201527f45524331393637557067726164653a206e657720696d706c656d656e7461746960448201526d6f6e206973206e6f74205555505360901b606482015260840161071d565b6000805160206124ff83398151915281146113535760405162461bcd60e51b815260206004820152602960248201527f45524331393637557067726164653a20756e737570706f727465642070726f786044820152681a58589b195555525160ba1b606482015260840161071d565b506106ac838383611857565b6001600160a01b0382166113b55760405162461bcd60e51b815260206004820152601f60248201527f45524332303a206d696e7420746f20746865207a65726f206164647265737300604482015260640161071d565b8060cb60008282546113c79190612231565b90915550506001600160a01b038216600081815260c960209081526040808320805486019055518481527fddf252ad1be2c89b69c2b068fc378daa952ba7f163c4a11628f55a4df523b3ef910160405180910390a35050565b600054610100900460ff166114475760405162461bcd60e51b815260040161071d9061225d565b611451848461187c565b6114596118ad565b6114616118ad565b61146a816118d4565b610fed6000836111a8565b60006106808383611904565b6001600160a01b0382166114e15760405162461bcd60e51b815260206004820152602160248201527f45524332303a206275726e2066726f6d20746865207a65726f206164647265736044820152607360f81b606482015260840161071d565b6001600160a01b038216600090815260c96020526040902054818110156115555760405162461bcd60e51b815260206004820152602260248201527f45524332303a206275726e20616d6f756e7420657863656564732062616c616e604482015261636560f01b606482015260840161071d565b6001600160a01b038316600081815260c960209081526040808320868603905560cb80548790039055518581529192917fddf252ad1be2c89b69c2b068fc378daa952ba7f163c4a11628f55a4df523b3ef910160405180910390a3505050565b60006105b1825490565b61015f5460405163d994d6d560e01b81523360048201526001600160a01b039091169063d994d6d590602401602060405180830381865afa158015611608573d6000803e3d6000fd5b505050506040513d601f19601f8201168201806040525081019061162c91906122a8565b61164957604051631dd1b1b560e21b815260040160405180910390fd5b565b6116558282610c9e565b610730576116628161192e565b61166d836020611940565b60405160200161167e9291906122ca565b60408051601f198184030181529082905262461bcd60e51b825261071d91600401611e45565b6116ae8282610c9e565b6107305760008281526065602090815260408083206001600160a01b03851684529091529020805460ff191660011790556116e63390565b6001600160a01b0316816001600160a01b0316837f2f8788117e7eff1d82e926ec794901d17c78024a50270940304540a733656f0d60405160405180910390a45050565b6000610680836001600160a01b038416611adc565b6117498282610c9e565b156107305760008281526065602090815260408083206001600160a01b0385168085529252808320805460ff1916905551339285917ff6391f5c32d9c69d2a47ea670b442974b53935d1edc7fd64eb21e047a839171b9190a45050565b6000610680836001600160a01b038416611b2b565b6001600160a01b0381163b6118285760405162461bcd60e51b815260206004820152602d60248201527f455243313936373a206e657720696d706c656d656e746174696f6e206973206e60448201526c1bdd08184818dbdb9d1c9858dd609a1b606482015260840161071d565b6000805160206124ff83398151915280546001600160a01b0319166001600160a01b0392909216919091179055565b61186083611c1e565b60008251118061186d5750805b156106ac57610fed8383611c5e565b600054610100900460ff166118a35760405162461bcd60e51b815260040161071d9061225d565b6107308282611d52565b600054610100900460ff166116495760405162461bcd60e51b815260040161071d9061225d565b600054610100900460ff166118fb5760405162461bcd60e51b815260040161071d9061225d565b61081081611d92565b600082600001828154811061191b5761191b61233f565b9060005260206000200154905092915050565b60606105b16001600160a01b03831660145b6060600061194f836002612355565b61195a906002612231565b67ffffffffffffffff81111561197257611972611f60565b6040519080825280601f01601f19166020018201604052801561199c576020820181803683370190505b509050600360fc1b816000815181106119b7576119b761233f565b60200101906001600160f81b031916908160001a905350600f60fb1b816001815181106119e6576119e661233f565b60200101906001600160f81b031916908160001a9053506000611a0a846002612355565b611a15906001612231565b90505b6001811115611a8d576f181899199a1a9b1b9c1cb0b131b232b360811b85600f1660108110611a4957611a4961233f565b1a60f81b828281518110611a5f57611a5f61233f565b60200101906001600160f81b031916908160001a90535060049490941c93611a8681612374565b9050611a18565b5083156106805760405162461bcd60e51b815260206004820181905260248201527f537472696e67733a20686578206c656e67746820696e73756666696369656e74604482015260640161071d565b6000818152600183016020526040812054611b23575081546001818101845560008481526020808220909301849055845484825282860190935260409020919091556105b1565b5060006105b1565b60008181526001830160205260408120548015611c14576000611b4f60018361238b565b8554909150600090611b639060019061238b565b9050818114611bc8576000866000018281548110611b8357611b8361233f565b9060005260206000200154905080876000018481548110611ba657611ba661233f565b6000918252602080832090910192909255918252600188019052604090208390555b8554869080611bd957611bd961239e565b6001900381819060005260206000200160009055905585600101600086815260200190815260200160002060009055600193505050506105b1565b60009150506105b1565b611c27816117bb565b6040516001600160a01b038216907fbc7cd75a20ee27fd9adebab32041f755214dbc6bffa90cc0225b39da2e5c2d3b90600090a250565b60606001600160a01b0383163b611cc65760405162461bcd60e51b815260206004820152602660248201527f416464726573733a2064656c65676174652063616c6c20746f206e6f6e2d636f6044820152651b9d1c9858dd60d21b606482015260840161071d565b600080846001600160a01b031684604051611ce191906123b4565b600060405180830381855af49150503d8060008114611d1c576040519150601f19603f3d011682016040523d82523d6000602084013e611d21565b606091505b5091509150611d49828260405180606001604052806027815260200161251f60279139611db9565b95945050505050565b600054610100900460ff16611d795760405162461bcd60e51b815260040161071d9061225d565b60cc611d85838261241e565b5060cd6106ac828261241e565b600054610100900460ff16610dfd5760405162461bcd60e51b815260040161071d9061225d565b60608315611dc8575081610680565b6106808383815115611ddd5781518083602001fd5b8060405162461bcd60e51b815260040161071d9190611e45565b600060208284031215611e0957600080fd5b81356001600160e01b03198116811461068057600080fd5b60005b83811015611e3c578181015183820152602001611e24565b50506000910152565b6020815260008251806020840152611e64816040850160208701611e21565b601f01601f19169190910160400192915050565b6001600160a01b038116811461081057600080fd5b60008060408385031215611ea057600080fd5b8235611eab81611e78565b946020939093013593505050565b600080600060608486031215611ece57600080fd5b8335611ed981611e78565b92506020840135611ee981611e78565b929592945050506040919091013590565b600060208284031215611f0c57600080fd5b5035919050565b60008060408385031215611f2657600080fd5b823591506020830135611f3881611e78565b809150509250929050565b600060208284031215611f5557600080fd5b813561068081611e78565b634e487b7160e01b600052604160045260246000fd5b600067ffffffffffffffff80841115611f9157611f91611f60565b604051601f8501601f19908116603f01168101908282118183101715611fb957611fb9611f60565b81604052809350858152868686011115611fd257600080fd5b858560208301376000602087830101525050509392505050565b60008060408385031215611fff57600080fd5b823561200a81611e78565b9150602083013567ffffffffffffffff81111561202657600080fd5b8301601f8101851361203757600080fd5b61204685823560208401611f76565b9150509250929050565b600082601f83011261206157600080fd5b61068083833560208501611f76565b6000806000806080858703121561208657600080fd5b843567ffffffffffffffff8082111561209e57600080fd5b6120aa88838901612050565b955060208701359150808211156120c057600080fd5b506120cd87828801612050565b93505060408501356120de81611e78565b915060608501356120ee81611e78565b939692955090935050565b6000806040838503121561210c57600080fd5b50508035926020909101359150565b6000806040838503121561212e57600080fd5b823561213981611e78565b91506020830135611f3881611e78565b600181811c9082168061215d57607f821691505b60208210810361217d57634e487b7160e01b600052602260045260246000fd5b50919050565b6020808252602c908201527f46756e6374696f6e206d7573742062652063616c6c6564207468726f7567682060408201526b19195b1959d85d1958d85b1b60a21b606082015260800190565b6020808252602c908201527f46756e6374696f6e206d7573742062652063616c6c6564207468726f7567682060408201526b6163746976652070726f787960a01b606082015260800190565b634e487b7160e01b600052601160045260246000fd5b808201808211156105b1576105b161221b565b60006020828403121561225657600080fd5b5051919050565b6020808252602b908201527f496e697469616c697a61626c653a20636f6e7472616374206973206e6f74206960408201526a6e697469616c697a696e6760a81b606082015260800190565b6000602082840312156122ba57600080fd5b8151801515811461068057600080fd5b7f416363657373436f6e74726f6c3a206163636f756e7420000000000000000000815260008351612302816017850160208801611e21565b7001034b99036b4b9b9b4b733903937b6329607d1b6017918401918201528351612333816028840160208801611e21565b01602801949350505050565b634e487b7160e01b600052603260045260246000fd5b600081600019048311821515161561236f5761236f61221b565b500290565b6000816123835761238361221b565b506000190190565b818103818111156105b1576105b161221b565b634e487b7160e01b600052603160045260246000fd5b600082516123c6818460208701611e21565b9190910192915050565b601f8211156106ac57600081815260208120601f850160051c810160208610156123f75750805b601f850160051c820191505b8181101561241657828155600101612403565b505050505050565b815167ffffffffffffffff81111561243857612438611f60565b61244c816124468454612149565b846123d0565b602080601f83116001811461248157600084156124695750858301515b600019600386901b1c1916600185901b178555612416565b600085815260208120601f198616915b828110156124b057888601518255948401946001909101908401612491565b50858210156124ce5787850151600019600388901b60f8161c191681555b5050505050600190811b0190555056fe3c11d16cbaffd01df69ce1c404f6340ee057498f5f00246190ea54220576a848360894a13ba1a3210667c828492db98dca3e2076cc3735a920a3ca505d382bbc416464726573733a206c6f772d6c6576656c2064656c65676174652063616c6c206661696c65649f2df0fed2c77648de5860a4cc508cd0818c85b8b8a1ab4ceeef8d981c8956a6a264697066735822122060678780aa74c77859dbc87122cf8b2ed1a95e08d9a5422a26a246214278952564736f6c63430008100033",
  "devdoc": {
    "kind": "dev",
    "methods": {
      "allowance(address,address)": {
        "details": "See {IERC20-allowance}."
      },
      "approve(address,uint256)": {
        "details": "See {IERC20-approve}. NOTE: If `amount` is the maximum `uint256`, the allowance is not updated on `transferFrom`. This is semantically equivalent to an infinite approval. Requirements: - `spender` cannot be the zero address."
      },
      "balanceOf(address)": {
        "details": "See {IERC20-balanceOf}."
      },
      "burn(address,uint256)": {
        "details": "Burns a specific `amount` of tokens for `to`. * See {ERC20-_burn}. Requirements: - the caller must have the `BURNER_ROLE`."
      },
      "changeGovernor(address)": {
        "params": {
          "newGovernor_": "New governor address"
        }
      },
      "constructor": {
        "custom:oz-upgrades-unsafe-allow": "constructor"
      },
      "decimals()": {
        "details": "Returns the number of decimals used to get its user representation. For example, if `decimals` equals `2`, a balance of `505` tokens should be displayed to a user as `5.05` (`505 / 10 ** 2`). Tokens usually opt for a value of 18, imitating the relationship between Ether and Wei. This is the value {ERC20} uses, unless this function is overridden; NOTE: This information is only used for _display_ purposes: it in no way affects any of the arithmetic of the contract, including {IERC20-balanceOf} and {IERC20-transfer}."
      },
      "decreaseAllowance(address,uint256)": {
        "details": "Atomically decreases the allowance granted to `spender` by the caller. This is an alternative to {approve} that can be used as a mitigation for problems described in {IERC20-approve}. Emits an {Approval} event indicating the updated allowance. Requirements: - `spender` cannot be the zero address. - `spender` must have allowance for the caller of at least `subtractedValue`."
      },
      "getRoleAdmin(bytes32)": {
        "details": "Returns the admin role that controls `role`. See {grantRole} and {revokeRole}. To change a role's admin, use {_setRoleAdmin}."
      },
      "getRoleMember(bytes32,uint256)": {
        "details": "Returns one of the accounts that have `role`. `index` must be a value between 0 and {getRoleMemberCount}, non-inclusive. Role bearers are not sorted in any particular way, and their ordering may change at any point. WARNING: When using {getRoleMember} and {getRoleMemberCount}, make sure you perform all queries on the same block. See the following https://forum.openzeppelin.com/t/iterating-over-elements-on-enumerableset-in-openzeppelin-contracts/2296[forum post] for more information."
      },
      "getRoleMemberCount(bytes32)": {
        "details": "Returns the number of accounts that have `role`. Can be used together with {getRoleMember} to enumerate all bearers of a role."
      },
      "grantRole(bytes32,address)": {
        "details": "Grants `role` to `account`. If `account` had not been already granted `role`, emits a {RoleGranted} event. Requirements: - the caller must have ``role``'s admin role. May emit a {RoleGranted} event."
      },
      "hasRole(bytes32,address)": {
        "details": "Returns `true` if `account` has been granted `role`."
      },
      "increaseAllowance(address,uint256)": {
        "details": "Atomically increases the allowance granted to `spender` by the caller. This is an alternative to {approve} that can be used as a mitigation for problems described in {IERC20-approve}. Emits an {Approval} event indicating the updated allowance. Requirements: - `spender` cannot be the zero address."
      },
      "mint(address,uint256)": {
        "details": "Creates `amount` new tokens for `to`. See {ERC20-_mint}. Requirements: - the caller must have the `MINTER_ROLE`."
      },
      "name()": {
        "details": "Returns the name of the token."
      },
      "proxiableUUID()": {
        "details": "Implementation of the ERC1822 {proxiableUUID} function. This returns the storage slot used by the implementation. It is used to validate the implementation's compatibility when performing an upgrade. IMPORTANT: A proxy pointing at a proxiable contract should not be considered proxiable itself, because this risks bricking a proxy that upgrades to it, by delegating to itself until out of gas. Thus it is critical that this function revert if invoked through a proxy. This is guaranteed by the `notDelegated` modifier."
      },
      "renounceRole(bytes32,address)": {
        "details": "Revokes `role` from the calling account. Roles are often managed via {grantRole} and {revokeRole}: this function's purpose is to provide a mechanism for accounts to lose their privileges if they are compromised (such as when a trusted device is misplaced). If the calling account had been revoked `role`, emits a {RoleRevoked} event. Requirements: - the caller must be `account`. May emit a {RoleRevoked} event."
      },
      "revokeRole(bytes32,address)": {
        "details": "Revokes `role` from `account`. If `account` had been granted `role`, emits a {RoleRevoked} event. Requirements: - the caller must have ``role``'s admin role. May emit a {RoleRevoked} event."
      },
      "supportsInterface(bytes4)": {
        "details": "See {IERC165-supportsInterface}."
      },
      "symbol()": {
        "details": "Returns the symbol of the token, usually a shorter version of the name."
      },
      "totalSupply()": {
        "details": "See {IERC20-totalSupply}."
      },
      "transfer(address,uint256)": {
        "details": "See {IERC20-transfer}. Requirements: - `to` cannot be the zero address. - the caller must have a balance of at least `amount`."
      },
      "transferAllRoles(address)": {
        "details": "Grants all `roles` to `account` while sender renounces to all ``role`` If `account` had not been already granted `role`, emits a {RoleGranted} event. Requirements: - the caller must have ``role``'s admin role. - no one else must have any other role May emit a {RoleGranted x3, RoleRevoked x3} event."
      },
      "transferFrom(address,address,uint256)": {
        "details": "See {IERC20-transferFrom}. Emits an {Approval} event indicating the updated allowance. This is not required by the EIP. See the note at the beginning of {ERC20}. NOTE: Does not update the allowance if the current allowance is the maximum `uint256`. Requirements: - `from` and `to` cannot be the zero address. - `from` must have a balance of at least `amount`. - the caller must have allowance for ``from``'s tokens of at least `amount`."
      },
      "upgradeTo(address)": {
        "details": "Upgrade the implementation of the proxy to `newImplementation`. Calls {_authorizeUpgrade}. Emits an {Upgraded} event."
      },
      "upgradeToAndCall(address,bytes)": {
        "details": "Upgrade the implementation of the proxy to `newImplementation`, and subsequently execute the function call encoded in `data`. Calls {_authorizeUpgrade}. Emits an {Upgraded} event."
      }
    },
    "version": 1
  },
  "userdoc": {
    "kind": "user",
    "methods": {
      "changeGovernor(address)": {
        "notice": "Change the contract's governor. Should be called through the old governance system"
      },
      "governor()": {
        "notice": "The address of the contract which governs this one"
      },
      "initialize(string,string,address,address)": {
        "notice": "See {__MocRC20_init}."
      }
    },
    "version": 1
  },
  "storageLayout": {
    "storage": [
      {
        "astId": 974,
        "contract": "contracts/token/StableTokenV2.sol:StableTokenV2",
        "label": "_initialized",
        "offset": 0,
        "slot": "0",
        "type": "t_uint8"
      },
      {
        "astId": 977,
        "contract": "contracts/token/StableTokenV2.sol:StableTokenV2",
        "label": "_initializing",
        "offset": 1,
        "slot": "0",
        "type": "t_bool"
      },
      {
        "astId": 2312,
        "contract": "contracts/token/StableTokenV2.sol:StableTokenV2",
        "label": "__gap",
        "offset": 0,
        "slot": "1",
        "type": "t_array(t_uint256)50_storage"
      },
      {
        "astId": 2591,
        "contract": "contracts/token/StableTokenV2.sol:StableTokenV2",
        "label": "__gap",
        "offset": 0,
        "slot": "51",
        "type": "t_array(t_uint256)50_storage"
      },
      {
        "astId": 184,
        "contract": "contracts/token/StableTokenV2.sol:StableTokenV2",
        "label": "_roles",
        "offset": 0,
        "slot": "101",
        "type": "t_mapping(t_bytes32,t_struct(RoleData)179_storage)"
      },
      {
        "astId": 479,
        "contract": "contracts/token/StableTokenV2.sol:StableTokenV2",
        "label": "__gap",
        "offset": 0,
        "slot": "102",
        "type": "t_array(t_uint256)49_storage"
      },
      {
        "astId": 33,
        "contract": "contracts/token/StableTokenV2.sol:StableTokenV2",
        "label": "_roleMembers",
        "offset": 0,
        "slot": "151",
        "type": "t_mapping(t_bytes32,t_struct(AddressSet)3795_storage)"
      },
      {
        "astId": 143,
        "contract": "contracts/token/StableTokenV2.sol:StableTokenV2",
        "label": "__gap",
        "offset": 0,
        "slot": "152",
        "type": "t_array(t_uint256)49_storage"
      },
      {
        "astId": 1291,
        "contract": "contracts/token/StableTokenV2.sol:StableTokenV2",
        "label": "_balances",
        "offset": 0,
        "slot": "201",
        "type": "t_mapping(t_address,t_uint256)"
      },
      {
        "astId": 1297,
        "contract": "contracts/token/StableTokenV2.sol:StableTokenV2",
        "label": "_allowances",
        "offset": 0,
        "slot": "202",
        "type": "t_mapping(t_address,t_mapping(t_address,t_uint256))"
      },
      {
        "astId": 1299,
        "contract": "contracts/token/StableTokenV2.sol:StableTokenV2",
        "label": "_totalSupply",
        "offset": 0,
        "slot": "203",
        "type": "t_uint256"
      },
      {
        "astId": 1301,
        "contract": "contracts/token/StableTokenV2.sol:StableTokenV2",
        "label": "_name",
        "offset": 0,
        "slot": "204",
        "type": "t_string_storage"
      },
      {
        "astId": 1303,
        "contract": "contracts/token/StableTokenV2.sol:StableTokenV2",
        "label": "_symbol",
        "offset": 0,
        "slot": "205",
        "type": "t_string_storage"
      },
      {
        "astId": 1883,
        "contract": "contracts/token/StableTokenV2.sol:StableTokenV2",
        "label": "__gap",
        "offset": 0,
        "slot": "206",
        "type": "t_array(t_uint256)45_storage"
      },
      {
        "astId": 956,
        "contract": "contracts/token/StableTokenV2.sol:StableTokenV2",
        "label": "__gap",
        "offset": 0,
        "slot": "251",
        "type": "t_array(t_uint256)50_storage"
      },
      {
        "astId": 1271,
        "contract": "contracts/token/StableTokenV2.sol:StableTokenV2",
        "label": "__gap",
        "offset": 0,
        "slot": "301",
        "type": "t_array(t_uint256)50_storage"
      },
      {
        "astId": 5305,
        "contract": "contracts/token/StableTokenV2.sol:StableTokenV2",
        "label": "governor",
        "offset": 0,
        "slot": "351",
        "type": "t_contract(IGovernor)5405"
      },
      {
        "astId": 5376,
        "contract": "contracts/token/StableTokenV2.sol:StableTokenV2",
        "label": "__gap",
        "offset": 0,
        "slot": "352",
        "type": "t_array(t_uint256)50_storage"
      }
    ],
    "types": {
      "t_address": {
        "encoding": "inplace",
        "label": "address",
        "numberOfBytes": "20"
      },
      "t_array(t_bytes32)dyn_storage": {
        "base": "t_bytes32",
        "encoding": "dynamic_array",
        "label": "bytes32[]",
        "numberOfBytes": "32"
      },
      "t_array(t_uint256)45_storage": {
        "base": "t_uint256",
        "encoding": "inplace",
        "label": "uint256[45]",
        "numberOfBytes": "1440"
      },
      "t_array(t_uint256)49_storage": {
        "base": "t_uint256",
        "encoding": "inplace",
        "label": "uint256[49]",
        "numberOfBytes": "1568"
      },
      "t_array(t_uint256)50_storage": {
        "base": "t_uint256",
        "encoding": "inplace",
        "label": "uint256[50]",
        "numberOfBytes": "1600"
      },
      "t_bool": {
        "encoding": "inplace",
        "label": "bool",
        "numberOfBytes": "1"
      },
      "t_bytes32": {
        "encoding": "inplace",
        "label": "bytes32",
        "numberOfBytes": "32"
      },
      "t_contract(IGovernor)5405": {
        "encoding": "inplace",
        "label": "contract IGovernor",
        "numberOfBytes": "20"
      },
      "t_mapping(t_address,t_bool)": {
        "encoding": "mapping",
        "key": "t_address",
        "label": "mapping(address => bool)",
        "numberOfBytes": "32",
        "value": "t_bool"
      },
      "t_mapping(t_address,t_mapping(t_address,t_uint256))": {
        "encoding": "mapping",
        "key": "t_address",
        "label": "mapping(address => mapping(address => uint256))",
        "numberOfBytes": "32",
        "value": "t_mapping(t_address,t_uint256)"
      },
      "t_mapping(t_address,t_uint256)": {
        "encoding": "mapping",
        "key": "t_address",
        "label": "mapping(address => uint256)",
        "numberOfBytes": "32",
        "value": "t_uint256"
      },
      "t_mapping(t_bytes32,t_struct(AddressSet)3795_storage)": {
        "encoding": "mapping",
        "key": "t_bytes32",
        "label": "mapping(bytes32 => struct EnumerableSetUpgradeable.AddressSet)",
        "numberOfBytes": "32",
        "value": "t_struct(AddressSet)3795_storage"
      },
      "t_mapping(t_bytes32,t_struct(RoleData)179_storage)": {
        "encoding": "mapping",
        "key": "t_bytes32",
        "label": "mapping(bytes32 => struct AccessControlUpgradeable.RoleData)",
        "numberOfBytes": "32",
        "value": "t_struct(RoleData)179_storage"
      },
      "t_mapping(t_bytes32,t_uint256)": {
        "encoding": "mapping",
        "key": "t_bytes32",
        "label": "mapping(bytes32 => uint256)",
        "numberOfBytes": "32",
        "value": "t_uint256"
      },
      "t_string_storage": {
        "encoding": "bytes",
        "label": "string",
        "numberOfBytes": "32"
      },
      "t_struct(AddressSet)3795_storage": {
        "encoding": "inplace",
        "label": "struct EnumerableSetUpgradeable.AddressSet",
        "members": [
          {
            "astId": 3794,
            "contract": "contracts/token/StableTokenV2.sol:StableTokenV2",
            "label": "_inner",
            "offset": 0,
            "slot": "0",
            "type": "t_struct(Set)3480_storage"
          }
        ],
        "numberOfBytes": "64"
      },
      "t_struct(RoleData)179_storage": {
        "encoding": "inplace",
        "label": "struct AccessControlUpgradeable.RoleData",
        "members": [
          {
            "astId": 176,
            "contract": "contracts/token/StableTokenV2.sol:StableTokenV2",
            "label": "members",
            "offset": 0,
            "slot": "0",
            "type": "t_mapping(t_address,t_bool)"
          },
          {
            "astId": 178,
            "contract": "contracts/token/StableTokenV2.sol:StableTokenV2",
            "label": "adminRole",
            "offset": 0,
            "slot": "1",
            "type": "t_bytes32"
          }
        ],
        "numberOfBytes": "64"
      },
      "t_struct(Set)3480_storage": {
        "encoding": "inplace",
        "label": "struct EnumerableSetUpgradeable.Set",
        "members": [
          {
            "astId": 3475,
            "contract": "contracts/token/StableTokenV2.sol:StableTokenV2",
            "label": "_values",
            "offset": 0,
            "slot": "0",
            "type": "t_array(t_bytes32)dyn_storage"
          },
          {
            "astId": 3479,
            "contract": "contracts/token/StableTokenV2.sol:StableTokenV2",
            "label": "_indexes",
            "offset": 0,
            "slot": "1",
            "type": "t_mapping(t_bytes32,t_uint256)"
          }
        ],
        "numberOfBytes": "64"
      },
      "t_uint256": {
        "encoding": "inplace",
        "label": "uint256",
        "numberOfBytes": "32"
      },
      "t_uint8": {
        "encoding": "inplace",
        "label": "uint8",
        "numberOfBytes": "1"
      }
    }
  }
}