{
  "address": "0x4AC78A51F67bDBC9FcB813d041914B2de37E87D7",
  "abi": [
    {
      "inputs": [
        {
          "internalType": "contract IERC20",
          "name": "legacyToken_",
          "type": "address"
        },
        {
          "internalType": "contract IERC20",
          "name": "newToken_",
          "type": "address"
        }
      ],
      "stateMutability": "nonpayable",
      "type": "constructor"
    },
    {
      "inputs": [],
      "name": "InsufficientLegacyTokenBalance",
      "type": "error"
    },
    {
      "anonymous": false,
      "inputs": [
        {
          "indexed": true,
          "internalType": "address",
          "name": "sender_",
          "type": "address"
        },
        {
          "indexed": true,
          "internalType": "address",
          "name": "user_",
          "type": "address"
        },
        {
          "indexed": false,
          "internalType": "uint256",
          "name": "amount_",
          "type": "uint256"
        }
      ],
      "name": "TokenMigrated",
      "type": "event"
    },
    {
      "inputs": [],
      "name": "_totalMigrated",
      "outputs": [
        {
          "internalType": "uint256",
          "name": "",
          "type": "uint256"
        }
      ],
      "stateMutability": "view",
      "type": "function"
    },
    {
      "inputs": [],
      "name": "legacyToken",
      "outputs": [
        {
          "internalType": "contract IERC20",
          "name": "",
          "type": "address"
        }
      ],
      "stateMutability": "view",
      "type": "function"
    },
    {
      "inputs": [],
      "name": "migrateToken",
      "outputs": [],
      "stateMutability": "nonpayable",
      "type": "function"
    },
    {
      "inputs": [
        {
          "internalType": "address",
          "name": "user_",
          "type": "address"
        }
      ],
      "name": "migrateTokenFrom",
      "outputs": [],
      "stateMutability": "nonpayable",
      "type": "function"
    },
    {
      "inputs": [],
      "name": "newToken",
      "outputs": [
        {
          "internalType": "contract IERC20",
          "name": "",
          "type": "address"
        }
      ],
      "stateMutability": "view",
      "type": "function"
    }
  ],
  "transactionHash": "0x103b3f0ee87310f76685eaf79b7070c36ee4df3b44ed6a911e3c680a82d7462c",
  "args": [
    "0x2d919F19D4892381D58edeBeca66D5642Cef1a1f",
    "0x3A15461d8aE0F0Fb5Fa2629e9DA7D66A794a6e37"
  ],
  "numDeployments": 1,
  "solcInputHash": "02683f3758d7844c9e6001fd54d95e3e",
  "bytecode": "0x60c060405234801561001057600080fd5b5060405161079d38038061079d83398101604081905261002f91610062565b6001600160a01b039182166080521660a052610095565b80516001600160a01b038116811461005d57600080fd5b919050565b6000806040838503121561007557600080fd5b61007e83610046565b915061008c60208401610046565b90509250929050565b60805160a0516106d06100cd6000396000818160bc015261021d01526000818160610152818161013401526101e801526106d06000f3fe608060405234801561001057600080fd5b50600436106100575760003560e01c8063131554551461005c57806357bdecd0146100a0578063c42bd05a146100b7578063d5482804146100de578063e177f044146100e8575b600080fd5b6100837f000000000000000000000000000000000000000000000000000000000000000081565b6040516001600160a01b0390911681526020015b60405180910390f35b6100a960005481565b604051908152602001610097565b6100837f000000000000000000000000000000000000000000000000000000000000000081565b6100e66100fb565b005b6100e66100f6366004610595565b610106565b61010433610112565b565b61010f81610112565b50565b6040516370a0823160e01b81526001600160a01b0382811660048301526000917f0000000000000000000000000000000000000000000000000000000000000000909116906370a0823190602401602060405180830381865afa15801561017d573d6000803e3d6000fd5b505050506040513d601f19601f820116820180604052508101906101a191906105c5565b9050806000036101c45760405163855fdf3f60e01b815260040160405180910390fd5b806000808282546101d591906105de565b9091555061021090506001600160a01b037f000000000000000000000000000000000000000000000000000000000000000016833084610288565b6102446001600160a01b037f00000000000000000000000000000000000000000000000000000000000000001683836102f9565b6040518181526001600160a01b0383169033907f39a54d7a71ca31798e3d96be34be0322c214765144b2b52e142d763c6c7b86b49060200160405180910390a35050565b6040516001600160a01b03808516602483015283166044820152606481018290526102f39085906323b872dd60e01b906084015b60408051601f198184030181529190526020810180516001600160e01b03166001600160e01b03199093169290921790915261032e565b50505050565b6040516001600160a01b03831660248201526044810182905261032990849063a9059cbb60e01b906064016102bc565b505050565b6000610383826040518060400160405280602081526020017f5361666545524332303a206c6f772d6c6576656c2063616c6c206661696c6564815250856001600160a01b03166104059092919063ffffffff16565b80519091501561032957808060200190518101906103a19190610605565b6103295760405162461bcd60e51b815260206004820152602a60248201527f5361666545524332303a204552433230206f7065726174696f6e20646964206e6044820152691bdd081cdd58d8d9595960b21b60648201526084015b60405180910390fd5b6060610414848460008561041c565b949350505050565b60608247101561047d5760405162461bcd60e51b815260206004820152602660248201527f416464726573733a20696e73756666696369656e742062616c616e636520666f6044820152651c8818d85b1b60d21b60648201526084016103fc565b600080866001600160a01b03168587604051610499919061064b565b60006040518083038185875af1925050503d80600081146104d6576040519150601f19603f3d011682016040523d82523d6000602084013e6104db565b606091505b50915091506104ec878383876104f7565b979650505050505050565b6060831561056657825160000361055f576001600160a01b0385163b61055f5760405162461bcd60e51b815260206004820152601d60248201527f416464726573733a2063616c6c20746f206e6f6e2d636f6e747261637400000060448201526064016103fc565b5081610414565b610414838381511561057b5781518083602001fd5b8060405162461bcd60e51b81526004016103fc9190610667565b6000602082840312156105a757600080fd5b81356001600160a01b03811681146105be57600080fd5b9392505050565b6000602082840312156105d757600080fd5b5051919050565b808201808211156105ff57634e487b7160e01b600052601160045260246000fd5b92915050565b60006020828403121561061757600080fd5b815180151581146105be57600080fd5b60005b8381101561064257818101518382015260200161062a565b50506000910152565b6000825161065d818460208701610627565b9190910192915050565b6020815260008251806020840152610686816040850160208701610627565b601f01601f1916919091016040019291505056fea2646970667358221220d11852f329f88a5cbc2b0110b8641ca01e37c4b9b2de25e4c9d5106a03d1777964736f6c63430008100033",
  "devdoc": {
    "events": {
      "TokenMigrated(address,address,uint256)": {
        "params": {
          "amount_": "the amount being migrated",
          "sender_": "the caller of the migration"
        }
      }
    },
    "kind": "dev",
    "methods": {
      "constructor": {
        "params": {
          "legacyToken_": "the address of the legacy token",
          "newToken_": "the address of the new token"
        }
      },
      "migrateTokenFrom(address)": {
        "params": {
          "user_": "address who migrates the tokens"
        }
      }
    },
    "title": "TokenMigrator",
    "version": 1
  },
  "userdoc": {
    "events": {
      "TokenMigrated(address,address,uint256)": {
        "notice": "emitted on migration"
      }
    },
    "kind": "user",
    "methods": {
      "migrateToken()": {
        "notice": "executes the migration from legacyt oken to newToken for function caller. Caller must give legacyt oken allowance to this contract to transfer legacyt oken before executing this transaction. The migration ratio is 1:1"
      },
      "migrateTokenFrom(address)": {
        "notice": "executes the migration from legacy token to new token for `user_`. `user_` must give legacy token allowance to this contract to transfer legacy token before executing this transaction. The migration ratio is 1:1"
      }
    },
    "notice": "This contract is used to migrate an ERC20 token from one contract to another. This contract holds the total amount of new token that can be migrated. To migrate, tokens holder must approve for this contract their total balance of the legacy token. The balance from the legacy token will be transfered from the user to the migrator, as it is migrated (remaining there forever), and the exact amount of new tokens will be sent to the holder.",
    "version": 1
  },
  "storageLayout": {
    "storage": [
      {
        "astId": 5751,
        "contract": "contracts/token/TokenMigrator.sol:TokenMigrator",
        "label": "_totalMigrated",
        "offset": 0,
        "slot": "0",
        "type": "t_uint256"
      }
    ],
    "types": {
      "t_uint256": {
        "encoding": "inplace",
        "label": "uint256",
        "numberOfBytes": "32"
      }
    }
  }
}