{
  "_format": "hh-sol-artifact-1",
  "contractName": "MocCoreExpansion",
  "sourceName": "moc-main/contracts/core/MocCoreExpansion.sol",
  "abi": [
    {
      "inputs": [],
      "stateMutability": "nonpayable",
      "type": "constructor"
    },
    {
      "inputs": [
        {
          "internalType": "uint256",
          "name": "qACsent_",
          "type": "uint256"
        },
        {
          "internalType": "uint256",
          "name": "qACNeeded_",
          "type": "uint256"
        }
      ],
      "name": "InsufficientQacSent",
      "type": "error"
    },
    {
      "inputs": [
        {
          "internalType": "uint256",
          "name": "qTC_",
          "type": "uint256"
        },
        {
          "internalType": "uint256",
          "name": "tcAvailableToRedeem_",
          "type": "uint256"
        }
      ],
      "name": "InsufficientTCtoRedeem",
      "type": "error"
    },
    {
      "inputs": [
        {
          "internalType": "uint256",
          "name": "qTP_",
          "type": "uint256"
        },
        {
          "internalType": "uint256",
          "name": "tpAvailableToMint_",
          "type": "uint256"
        }
      ],
      "name": "InsufficientTPtoMint",
      "type": "error"
    },
    {
      "inputs": [
        {
          "internalType": "uint256",
          "name": "qTP_",
          "type": "uint256"
        },
        {
          "internalType": "uint256",
          "name": "tpAvailableToRedeem_",
          "type": "uint256"
        }
      ],
      "name": "InsufficientTPtoRedeem",
      "type": "error"
    },
    {
      "inputs": [],
      "name": "InvalidAddress",
      "type": "error"
    },
    {
      "inputs": [],
      "name": "InvalidFluxCapacitorOperation",
      "type": "error"
    },
    {
      "inputs": [],
      "name": "InvalidValue",
      "type": "error"
    },
    {
      "inputs": [],
      "name": "Liquidated",
      "type": "error"
    },
    {
      "inputs": [
        {
          "internalType": "uint256",
          "name": "cglb_",
          "type": "uint256"
        },
        {
          "internalType": "uint256",
          "name": "covThrld_",
          "type": "uint256"
        }
      ],
      "name": "LowCoverage",
      "type": "error"
    },
    {
      "inputs": [
        {
          "internalType": "uint256",
          "name": "max_",
          "type": "uint256"
        },
        {
          "internalType": "uint256",
          "name": "new_",
          "type": "uint256"
        }
      ],
      "name": "MaxFluxCapacitorOperationReached",
      "type": "error"
    },
    {
      "inputs": [
        {
          "internalType": "address",
          "name": "dataProviderAddress_",
          "type": "address"
        }
      ],
      "name": "MissingProviderData",
      "type": "error"
    },
    {
      "inputs": [
        {
          "internalType": "address",
          "name": "priceProviderAddress_",
          "type": "address"
        }
      ],
      "name": "MissingProviderPrice",
      "type": "error"
    },
    {
      "inputs": [],
      "name": "NotAuthorizedChanger",
      "type": "error"
    },
    {
      "inputs": [],
      "name": "NotWhenPaused",
      "type": "error"
    },
    {
      "inputs": [],
      "name": "OnlyPauser",
      "type": "error"
    },
    {
      "inputs": [],
      "name": "OnlyWhenLiquidated",
      "type": "error"
    },
    {
      "inputs": [],
      "name": "OnlyWhilePaused",
      "type": "error"
    },
    {
      "inputs": [],
      "name": "PeggedTokenAlreadyAdded",
      "type": "error"
    },
    {
      "inputs": [],
      "name": "QacNeededMustBeGreaterThanZero",
      "type": "error"
    },
    {
      "inputs": [
        {
          "internalType": "uint256",
          "name": "qTCmin_",
          "type": "uint256"
        },
        {
          "internalType": "uint256",
          "name": "qTC_",
          "type": "uint256"
        }
      ],
      "name": "QtcBelowMinimumRequired",
      "type": "error"
    },
    {
      "inputs": [
        {
          "internalType": "uint256",
          "name": "qTPmin_",
          "type": "uint256"
        },
        {
          "internalType": "uint256",
          "name": "qTP_",
          "type": "uint256"
        }
      ],
      "name": "QtpBelowMinimumRequired",
      "type": "error"
    },
    {
      "inputs": [],
      "name": "TransferFailed",
      "type": "error"
    },
    {
      "inputs": [],
      "name": "Unstoppable",
      "type": "error"
    },
    {
      "anonymous": false,
      "inputs": [
        {
          "indexed": false,
          "internalType": "address",
          "name": "previousAdmin",
          "type": "address"
        },
        {
          "indexed": false,
          "internalType": "address",
          "name": "newAdmin",
          "type": "address"
        }
      ],
      "name": "AdminChanged",
      "type": "event"
    },
    {
      "anonymous": false,
      "inputs": [
        {
          "indexed": true,
          "internalType": "address",
          "name": "beacon",
          "type": "address"
        }
      ],
      "name": "BeaconUpgraded",
      "type": "event"
    },
    {
      "anonymous": false,
      "inputs": [],
      "name": "ContractLiquidated",
      "type": "event"
    },
    {
      "anonymous": false,
      "inputs": [
        {
          "indexed": false,
          "internalType": "uint8",
          "name": "version",
          "type": "uint8"
        }
      ],
      "name": "Initialized",
      "type": "event"
    },
    {
      "anonymous": false,
      "inputs": [
        {
          "indexed": true,
          "internalType": "address",
          "name": "tp_",
          "type": "address"
        },
        {
          "indexed": true,
          "internalType": "address",
          "name": "sender_",
          "type": "address"
        },
        {
          "indexed": true,
          "internalType": "address",
          "name": "recipient_",
          "type": "address"
        },
        {
          "indexed": false,
          "internalType": "uint256",
          "name": "qTP_",
          "type": "uint256"
        },
        {
          "indexed": false,
          "internalType": "uint256",
          "name": "qAC_",
          "type": "uint256"
        }
      ],
      "name": "LiqTPRedeemed",
      "type": "event"
    },
    {
      "anonymous": false,
      "inputs": [
        {
          "indexed": false,
          "internalType": "address",
          "name": "account",
          "type": "address"
        }
      ],
      "name": "Paused",
      "type": "event"
    },
    {
      "anonymous": false,
      "inputs": [
        {
          "indexed": false,
          "internalType": "uint256",
          "name": "i_",
          "type": "uint256"
        },
        {
          "components": [
            {
              "internalType": "address",
              "name": "tpTokenAddress",
              "type": "address"
            },
            {
              "internalType": "address",
              "name": "priceProviderAddress",
              "type": "address"
            },
            {
              "internalType": "uint256",
              "name": "tpCtarg",
              "type": "uint256"
            },
            {
              "internalType": "uint256",
              "name": "tpMintFee",
              "type": "uint256"
            },
            {
              "internalType": "uint256",
              "name": "tpRedeemFee",
              "type": "uint256"
            },
            {
              "internalType": "uint256",
              "name": "tpEma",
              "type": "uint256"
            },
            {
              "internalType": "uint256",
              "name": "tpEmaSf",
              "type": "uint256"
            }
          ],
          "indexed": false,
          "internalType": "struct PeggedTokenParams",
          "name": "peggedTokenParams_",
          "type": "tuple"
        }
      ],
      "name": "PeggedTokenChange",
      "type": "event"
    },
    {
      "anonymous": false,
      "inputs": [
        {
          "indexed": true,
          "internalType": "uint256",
          "name": "i_",
          "type": "uint256"
        },
        {
          "indexed": false,
          "internalType": "uint256",
          "name": "oldTPema_",
          "type": "uint256"
        },
        {
          "indexed": false,
          "internalType": "uint256",
          "name": "newTPema_",
          "type": "uint256"
        }
      ],
      "name": "TPemaUpdated",
      "type": "event"
    },
    {
      "anonymous": false,
      "inputs": [
        {
          "indexed": false,
          "internalType": "address",
          "name": "account",
          "type": "address"
        }
      ],
      "name": "Unpaused",
      "type": "event"
    },
    {
      "anonymous": false,
      "inputs": [
        {
          "indexed": true,
          "internalType": "address",
          "name": "implementation",
          "type": "address"
        }
      ],
      "name": "Upgraded",
      "type": "event"
    },
    {
      "inputs": [],
      "name": "absoluteAccumulator",
      "outputs": [
        {
          "internalType": "uint256",
          "name": "",
          "type": "uint256"
        }
      ],
      "stateMutability": "view",
      "type": "function"
    },
    {
      "inputs": [
        {
          "components": [
            {
              "internalType": "address",
              "name": "tpTokenAddress",
              "type": "address"
            },
            {
              "internalType": "address",
              "name": "priceProviderAddress",
              "type": "address"
            },
            {
              "internalType": "uint256",
              "name": "tpCtarg",
              "type": "uint256"
            },
            {
              "internalType": "uint256",
              "name": "tpMintFee",
              "type": "uint256"
            },
            {
              "internalType": "uint256",
              "name": "tpRedeemFee",
              "type": "uint256"
            },
            {
              "internalType": "uint256",
              "name": "tpEma",
              "type": "uint256"
            },
            {
              "internalType": "uint256",
              "name": "tpEmaSf",
              "type": "uint256"
            }
          ],
          "internalType": "struct PeggedTokenParams",
          "name": "peggedTokenParams_",
          "type": "tuple"
        }
      ],
      "name": "addPeggedToken",
      "outputs": [],
      "stateMutability": "nonpayable",
      "type": "function"
    },
    {
      "inputs": [],
      "name": "appreciationFactor",
      "outputs": [
        {
          "internalType": "uint256",
          "name": "",
          "type": "uint256"
        }
      ],
      "stateMutability": "view",
      "type": "function"
    },
    {
      "inputs": [],
      "name": "bes",
      "outputs": [
        {
          "internalType": "uint256",
          "name": "",
          "type": "uint256"
        }
      ],
      "stateMutability": "view",
      "type": "function"
    },
    {
      "inputs": [],
      "name": "bns",
      "outputs": [
        {
          "internalType": "uint256",
          "name": "",
          "type": "uint256"
        }
      ],
      "stateMutability": "view",
      "type": "function"
    },
    {
      "inputs": [],
      "name": "calcCtargemaCA",
      "outputs": [
        {
          "internalType": "uint256",
          "name": "ctargemaCA",
          "type": "uint256"
        }
      ],
      "stateMutability": "view",
      "type": "function"
    },
    {
      "inputs": [
        {
          "internalType": "contract IGovernor",
          "name": "newGovernor_",
          "type": "address"
        }
      ],
      "name": "changeGovernor",
      "outputs": [],
      "stateMutability": "nonpayable",
      "type": "function"
    },
    {
      "inputs": [],
      "name": "decayBlockSpan",
      "outputs": [
        {
          "internalType": "uint256",
          "name": "",
          "type": "uint256"
        }
      ],
      "stateMutability": "view",
      "type": "function"
    },
    {
      "inputs": [],
      "name": "differentialAccumulator",
      "outputs": [
        {
          "internalType": "int256",
          "name": "",
          "type": "int256"
        }
      ],
      "stateMutability": "view",
      "type": "function"
    },
    {
      "inputs": [
        {
          "components": [
            {
              "internalType": "address",
              "name": "tpTokenAddress",
              "type": "address"
            },
            {
              "internalType": "address",
              "name": "priceProviderAddress",
              "type": "address"
            },
            {
              "internalType": "uint256",
              "name": "tpCtarg",
              "type": "uint256"
            },
            {
              "internalType": "uint256",
              "name": "tpMintFee",
              "type": "uint256"
            },
            {
              "internalType": "uint256",
              "name": "tpRedeemFee",
              "type": "uint256"
            },
            {
              "internalType": "uint256",
              "name": "tpEma",
              "type": "uint256"
            },
            {
              "internalType": "uint256",
              "name": "tpEmaSf",
              "type": "uint256"
            }
          ],
          "internalType": "struct PeggedTokenParams",
          "name": "peggedTokenParams_",
          "type": "tuple"
        }
      ],
      "name": "editPeggedToken",
      "outputs": [],
      "stateMutability": "nonpayable",
      "type": "function"
    },
    {
      "inputs": [],
      "name": "emaCalculationBlockSpan",
      "outputs": [
        {
          "internalType": "uint256",
          "name": "",
          "type": "uint256"
        }
      ],
      "stateMutability": "view",
      "type": "function"
    },
    {
      "inputs": [],
      "name": "evalLiquidation",
      "outputs": [],
      "stateMutability": "nonpayable",
      "type": "function"
    },
    {
      "inputs": [],
      "name": "feeRetainer",
      "outputs": [
        {
          "internalType": "uint256",
          "name": "",
          "type": "uint256"
        }
      ],
      "stateMutability": "view",
      "type": "function"
    },
    {
      "inputs": [],
      "name": "feeToken",
      "outputs": [
        {
          "internalType": "contract IERC20",
          "name": "",
          "type": "address"
        }
      ],
      "stateMutability": "view",
      "type": "function"
    },
    {
      "inputs": [],
      "name": "feeTokenPct",
      "outputs": [
        {
          "internalType": "uint256",
          "name": "",
          "type": "uint256"
        }
      ],
      "stateMutability": "view",
      "type": "function"
    },
    {
      "inputs": [],
      "name": "feeTokenPriceProvider",
      "outputs": [
        {
          "internalType": "contract IPriceProvider",
          "name": "",
          "type": "address"
        }
      ],
      "stateMutability": "view",
      "type": "function"
    },
    {
      "inputs": [
        {
          "internalType": "address",
          "name": "tp_",
          "type": "address"
        }
      ],
      "name": "getPACtp",
      "outputs": [
        {
          "internalType": "uint256",
          "name": "",
          "type": "uint256"
        }
      ],
      "stateMutability": "view",
      "type": "function"
    },
    {
      "inputs": [],
      "name": "governor",
      "outputs": [
        {
          "internalType": "contract IGovernor",
          "name": "",
          "type": "address"
        }
      ],
      "stateMutability": "view",
      "type": "function"
    },
    {
      "inputs": [],
      "name": "isLiquidationReached",
      "outputs": [
        {
          "internalType": "bool",
          "name": "",
          "type": "bool"
        }
      ],
      "stateMutability": "view",
      "type": "function"
    },
    {
      "inputs": [],
      "name": "lastOperationBlockNumber",
      "outputs": [
        {
          "internalType": "uint256",
          "name": "",
          "type": "uint256"
        }
      ],
      "stateMutability": "view",
      "type": "function"
    },
    {
      "inputs": [],
      "name": "liqEnabled",
      "outputs": [
        {
          "internalType": "bool",
          "name": "",
          "type": "bool"
        }
      ],
      "stateMutability": "view",
      "type": "function"
    },
    {
      "inputs": [
        {
          "internalType": "address",
          "name": "tp_",
          "type": "address"
        },
        {
          "internalType": "address",
          "name": "sender_",
          "type": "address"
        },
        {
          "internalType": "address",
          "name": "recipient_",
          "type": "address"
        },
        {
          "internalType": "uint256",
          "name": "mocACBalance",
          "type": "uint256"
        }
      ],
      "name": "liqRedeemTPTo",
      "outputs": [
        {
          "internalType": "uint256",
          "name": "qACRedeemed",
          "type": "uint256"
        }
      ],
      "stateMutability": "nonpayable",
      "type": "function"
    },
    {
      "inputs": [],
      "name": "liqThrld",
      "outputs": [
        {
          "internalType": "uint256",
          "name": "",
          "type": "uint256"
        }
      ],
      "stateMutability": "view",
      "type": "function"
    },
    {
      "inputs": [],
      "name": "liquidated",
      "outputs": [
        {
          "internalType": "bool",
          "name": "",
          "type": "bool"
        }
      ],
      "stateMutability": "view",
      "type": "function"
    },
    {
      "inputs": [],
      "name": "makeStoppable",
      "outputs": [],
      "stateMutability": "nonpayable",
      "type": "function"
    },
    {
      "inputs": [],
      "name": "makeUnstoppable",
      "outputs": [],
      "stateMutability": "nonpayable",
      "type": "function"
    },
    {
      "inputs": [],
      "name": "maxAbsoluteOpProvider",
      "outputs": [
        {
          "internalType": "contract IDataProvider",
          "name": "",
          "type": "address"
        }
      ],
      "stateMutability": "view",
      "type": "function"
    },
    {
      "inputs": [],
      "name": "maxOpDiffProvider",
      "outputs": [
        {
          "internalType": "contract IDataProvider",
          "name": "",
          "type": "address"
        }
      ],
      "stateMutability": "view",
      "type": "function"
    },
    {
      "inputs": [],
      "name": "maxQACToMintTP",
      "outputs": [
        {
          "internalType": "uint256",
          "name": "maxQAC",
          "type": "uint256"
        }
      ],
      "stateMutability": "view",
      "type": "function"
    },
    {
      "inputs": [],
      "name": "maxQACToRedeemTP",
      "outputs": [
        {
          "internalType": "uint256",
          "name": "maxQAC",
          "type": "uint256"
        }
      ],
      "stateMutability": "view",
      "type": "function"
    },
    {
      "inputs": [],
      "name": "mintTCandTPFee",
      "outputs": [
        {
          "internalType": "uint256",
          "name": "",
          "type": "uint256"
        }
      ],
      "stateMutability": "view",
      "type": "function"
    },
    {
      "inputs": [],
      "name": "mocAppreciationBeneficiaryAddress",
      "outputs": [
        {
          "internalType": "address",
          "name": "",
          "type": "address"
        }
      ],
      "stateMutability": "view",
      "type": "function"
    },
    {
      "inputs": [],
      "name": "mocFeeFlowAddress",
      "outputs": [
        {
          "internalType": "address",
          "name": "",
          "type": "address"
        }
      ],
      "stateMutability": "view",
      "type": "function"
    },
    {
      "inputs": [],
      "name": "mocVendors",
      "outputs": [
        {
          "internalType": "contract MocVendors",
          "name": "",
          "type": "address"
        }
      ],
      "stateMutability": "view",
      "type": "function"
    },
    {
      "inputs": [],
      "name": "nACcb",
      "outputs": [
        {
          "internalType": "uint256",
          "name": "",
          "type": "uint256"
        }
      ],
      "stateMutability": "view",
      "type": "function"
    },
    {
      "inputs": [],
      "name": "nTCcb",
      "outputs": [
        {
          "internalType": "uint256",
          "name": "",
          "type": "uint256"
        }
      ],
      "stateMutability": "view",
      "type": "function"
    },
    {
      "inputs": [],
      "name": "nextEmaCalculation",
      "outputs": [
        {
          "internalType": "uint256",
          "name": "",
          "type": "uint256"
        }
      ],
      "stateMutability": "view",
      "type": "function"
    },
    {
      "inputs": [],
      "name": "nextTCInterestPayment",
      "outputs": [
        {
          "internalType": "uint256",
          "name": "",
          "type": "uint256"
        }
      ],
      "stateMutability": "view",
      "type": "function"
    },
    {
      "inputs": [],
      "name": "pause",
      "outputs": [],
      "stateMutability": "nonpayable",
      "type": "function"
    },
    {
      "inputs": [],
      "name": "paused",
      "outputs": [
        {
          "internalType": "bool",
          "name": "",
          "type": "bool"
        }
      ],
      "stateMutability": "view",
      "type": "function"
    },
    {
      "inputs": [],
      "name": "pauser",
      "outputs": [
        {
          "internalType": "address",
          "name": "",
          "type": "address"
        }
      ],
      "stateMutability": "view",
      "type": "function"
    },
    {
      "inputs": [
        {
          "internalType": "uint256",
          "name": "",
          "type": "uint256"
        }
      ],
      "name": "pegContainer",
      "outputs": [
        {
          "internalType": "uint256",
          "name": "nTP",
          "type": "uint256"
        },
        {
          "internalType": "contract IPriceProvider",
          "name": "priceProvider",
          "type": "address"
        }
      ],
      "stateMutability": "view",
      "type": "function"
    },
    {
      "inputs": [
        {
          "internalType": "address",
          "name": "",
          "type": "address"
        }
      ],
      "name": "peggedTokenIndex",
      "outputs": [
        {
          "internalType": "uint256",
          "name": "index",
          "type": "uint256"
        },
        {
          "internalType": "bool",
          "name": "exists",
          "type": "bool"
        }
      ],
      "stateMutability": "view",
      "type": "function"
    },
    {
      "inputs": [],
      "name": "protThrld",
      "outputs": [
        {
          "internalType": "uint256",
          "name": "",
          "type": "uint256"
        }
      ],
      "stateMutability": "view",
      "type": "function"
    },
    {
      "inputs": [],
      "name": "proxiableUUID",
      "outputs": [
        {
          "internalType": "bytes32",
          "name": "",
          "type": "bytes32"
        }
      ],
      "stateMutability": "view",
      "type": "function"
    },
    {
      "inputs": [],
      "name": "redeemTCandTPFee",
      "outputs": [
        {
          "internalType": "uint256",
          "name": "",
          "type": "uint256"
        }
      ],
      "stateMutability": "view",
      "type": "function"
    },
    {
      "inputs": [
        {
          "internalType": "uint256",
          "name": "appreciationFactor_",
          "type": "uint256"
        }
      ],
      "name": "setAppreciationFactor",
      "outputs": [],
      "stateMutability": "nonpayable",
      "type": "function"
    },
    {
      "inputs": [
        {
          "internalType": "uint256",
          "name": "bes_",
          "type": "uint256"
        }
      ],
      "name": "setBes",
      "outputs": [],
      "stateMutability": "nonpayable",
      "type": "function"
    },
    {
      "inputs": [
        {
          "internalType": "uint256",
          "name": "decayBlockSpan_",
          "type": "uint256"
        }
      ],
      "name": "setDecayBlockSpan",
      "outputs": [],
      "stateMutability": "nonpayable",
      "type": "function"
    },
    {
      "inputs": [
        {
          "internalType": "uint256",
          "name": "blockSpan_",
          "type": "uint256"
        }
      ],
      "name": "setEmaCalculationBlockSpan",
      "outputs": [],
      "stateMutability": "nonpayable",
      "type": "function"
    },
    {
      "inputs": [
        {
          "internalType": "uint256",
          "name": "feeRetainer_",
          "type": "uint256"
        }
      ],
      "name": "setFeeRetainer",
      "outputs": [],
      "stateMutability": "nonpayable",
      "type": "function"
    },
    {
      "inputs": [
        {
          "internalType": "address",
          "name": "mocFeeTokenAddress_",
          "type": "address"
        }
      ],
      "name": "setFeeTokenAddress",
      "outputs": [],
      "stateMutability": "nonpayable",
      "type": "function"
    },
    {
      "inputs": [
        {
          "internalType": "uint256",
          "name": "feeTokenPct_",
          "type": "uint256"
        }
      ],
      "name": "setFeeTokenPct",
      "outputs": [],
      "stateMutability": "nonpayable",
      "type": "function"
    },
    {
      "inputs": [
        {
          "internalType": "address",
          "name": "mocFeeTokenPriceProviderAddress_",
          "type": "address"
        }
      ],
      "name": "setFeeTokenPriceProviderAddress",
      "outputs": [],
      "stateMutability": "nonpayable",
      "type": "function"
    },
    {
      "inputs": [
        {
          "internalType": "bool",
          "name": "liqEnabled_",
          "type": "bool"
        }
      ],
      "name": "setLiqEnabled",
      "outputs": [],
      "stateMutability": "nonpayable",
      "type": "function"
    },
    {
      "inputs": [
        {
          "internalType": "uint256",
          "name": "liqThrld_",
          "type": "uint256"
        }
      ],
      "name": "setLiqThrld",
      "outputs": [],
      "stateMutability": "nonpayable",
      "type": "function"
    },
    {
      "inputs": [
        {
          "internalType": "address",
          "name": "maxAbsoluteOpProviderAddress_",
          "type": "address"
        }
      ],
      "name": "setMaxAbsoluteOpProviderAddress",
      "outputs": [],
      "stateMutability": "nonpayable",
      "type": "function"
    },
    {
      "inputs": [
        {
          "internalType": "address",
          "name": "maxOpDiffProviderAddress_",
          "type": "address"
        }
      ],
      "name": "setMaxOpDiffProviderAddress",
      "outputs": [],
      "stateMutability": "nonpayable",
      "type": "function"
    },
    {
      "inputs": [
        {
          "internalType": "uint256",
          "name": "mintTCandTPFee_",
          "type": "uint256"
        }
      ],
      "name": "setMintTCandTPFee",
      "outputs": [],
      "stateMutability": "nonpayable",
      "type": "function"
    },
    {
      "inputs": [
        {
          "internalType": "address",
          "name": "mocAppreciationBeneficiaryAddress_",
          "type": "address"
        }
      ],
      "name": "setMocAppreciationBeneficiaryAddress",
      "outputs": [],
      "stateMutability": "nonpayable",
      "type": "function"
    },
    {
      "inputs": [
        {
          "internalType": "address",
          "name": "mocFeeFlowAddress_",
          "type": "address"
        }
      ],
      "name": "setMocFeeFlowAddress",
      "outputs": [],
      "stateMutability": "nonpayable",
      "type": "function"
    },
    {
      "inputs": [
        {
          "internalType": "address",
          "name": "newPauser_",
          "type": "address"
        }
      ],
      "name": "setPauser",
      "outputs": [],
      "stateMutability": "nonpayable",
      "type": "function"
    },
    {
      "inputs": [
        {
          "internalType": "uint256",
          "name": "protThrld_",
          "type": "uint256"
        }
      ],
      "name": "setProtThrld",
      "outputs": [],
      "stateMutability": "nonpayable",
      "type": "function"
    },
    {
      "inputs": [
        {
          "internalType": "uint256",
          "name": "redeemTCandTPFee_",
          "type": "uint256"
        }
      ],
      "name": "setRedeemTCandTPFee",
      "outputs": [],
      "stateMutability": "nonpayable",
      "type": "function"
    },
    {
      "inputs": [
        {
          "internalType": "uint256",
          "name": "successFee_",
          "type": "uint256"
        }
      ],
      "name": "setSuccessFee",
      "outputs": [],
      "stateMutability": "nonpayable",
      "type": "function"
    },
    {
      "inputs": [
        {
          "internalType": "uint256",
          "name": "swapTCforTPFee_",
          "type": "uint256"
        }
      ],
      "name": "setSwapTCforTPFee",
      "outputs": [],
      "stateMutability": "nonpayable",
      "type": "function"
    },
    {
      "inputs": [
        {
          "internalType": "uint256",
          "name": "swapTPforTCFee_",
          "type": "uint256"
        }
      ],
      "name": "setSwapTPforTCFee",
      "outputs": [],
      "stateMutability": "nonpayable",
      "type": "function"
    },
    {
      "inputs": [
        {
          "internalType": "uint256",
          "name": "swapTPforTPFee_",
          "type": "uint256"
        }
      ],
      "name": "setSwapTPforTPFee",
      "outputs": [],
      "stateMutability": "nonpayable",
      "type": "function"
    },
    {
      "inputs": [
        {
          "internalType": "address",
          "name": "tcInterestCollectorAddress_",
          "type": "address"
        }
      ],
      "name": "setTCInterestCollectorAddress",
      "outputs": [],
      "stateMutability": "nonpayable",
      "type": "function"
    },
    {
      "inputs": [
        {
          "internalType": "uint256",
          "name": "tcInterestPaymentBlockSpan_",
          "type": "uint256"
        }
      ],
      "name": "setTCInterestPaymentBlockSpan",
      "outputs": [],
      "stateMutability": "nonpayable",
      "type": "function"
    },
    {
      "inputs": [
        {
          "internalType": "uint256",
          "name": "tcInterestRate_",
          "type": "uint256"
        }
      ],
      "name": "setTCInterestRate",
      "outputs": [],
      "stateMutability": "nonpayable",
      "type": "function"
    },
    {
      "inputs": [
        {
          "internalType": "uint256",
          "name": "tcMintFee_",
          "type": "uint256"
        }
      ],
      "name": "setTcMintFee",
      "outputs": [],
      "stateMutability": "nonpayable",
      "type": "function"
    },
    {
      "inputs": [
        {
          "internalType": "uint256",
          "name": "tcRedeemFee_",
          "type": "uint256"
        }
      ],
      "name": "setTcRedeemFee",
      "outputs": [],
      "stateMutability": "nonpayable",
      "type": "function"
    },
    {
      "inputs": [],
      "name": "shouldCalculateEma",
      "outputs": [
        {
          "internalType": "bool",
          "name": "",
          "type": "bool"
        }
      ],
      "stateMutability": "view",
      "type": "function"
    },
    {
      "inputs": [],
      "name": "stoppable",
      "outputs": [
        {
          "internalType": "bool",
          "name": "",
          "type": "bool"
        }
      ],
      "stateMutability": "view",
      "type": "function"
    },
    {
      "inputs": [],
      "name": "successFee",
      "outputs": [
        {
          "internalType": "uint256",
          "name": "",
          "type": "uint256"
        }
      ],
      "stateMutability": "view",
      "type": "function"
    },
    {
      "inputs": [],
      "name": "swapTCforTPFee",
      "outputs": [
        {
          "internalType": "uint256",
          "name": "",
          "type": "uint256"
        }
      ],
      "stateMutability": "view",
      "type": "function"
    },
    {
      "inputs": [
        {
          "components": [
            {
              "internalType": "address",
              "name": "tp",
              "type": "address"
            },
            {
              "internalType": "uint256",
              "name": "qTC",
              "type": "uint256"
            },
            {
              "internalType": "uint256",
              "name": "qTPmin",
              "type": "uint256"
            },
            {
              "internalType": "uint256",
              "name": "qACmax",
              "type": "uint256"
            },
            {
              "internalType": "address",
              "name": "sender",
              "type": "address"
            },
            {
              "internalType": "address",
              "name": "recipient",
              "type": "address"
            },
            {
              "internalType": "address",
              "name": "vendor",
              "type": "address"
            }
          ],
          "internalType": "struct MocCommons.SwapTCforTPParams",
          "name": "params_",
          "type": "tuple"
        },
        {
          "internalType": "address",
          "name": "operator",
          "type": "address"
        }
      ],
      "name": "swapTCforTPto",
      "outputs": [
        {
          "internalType": "uint256",
          "name": "qACSurcharges",
          "type": "uint256"
        },
        {
          "internalType": "uint256",
          "name": "qTPtoMint",
          "type": "uint256"
        },
        {
          "internalType": "uint256",
          "name": "qFeeTokenTotalNeeded",
          "type": "uint256"
        },
        {
          "components": [
            {
              "internalType": "uint256",
              "name": "qACFee",
              "type": "uint256"
            },
            {
              "internalType": "uint256",
              "name": "qFeeToken",
              "type": "uint256"
            },
            {
              "internalType": "uint256",
              "name": "qACVendorMarkup",
              "type": "uint256"
            },
            {
              "internalType": "uint256",
              "name": "qFeeTokenVendorMarkup",
              "type": "uint256"
            }
          ],
          "internalType": "struct MocCommons.FeeCalcs",
          "name": "feeCalcs",
          "type": "tuple"
        }
      ],
      "stateMutability": "payable",
      "type": "function"
    },
    {
      "inputs": [],
      "name": "swapTPforTCFee",
      "outputs": [
        {
          "internalType": "uint256",
          "name": "",
          "type": "uint256"
        }
      ],
      "stateMutability": "view",
      "type": "function"
    },
    {
      "inputs": [
        {
          "components": [
            {
              "internalType": "address",
              "name": "tp",
              "type": "address"
            },
            {
              "internalType": "uint256",
              "name": "qTP",
              "type": "uint256"
            },
            {
              "internalType": "uint256",
              "name": "qTCmin",
              "type": "uint256"
            },
            {
              "internalType": "uint256",
              "name": "qACmax",
              "type": "uint256"
            },
            {
              "internalType": "address",
              "name": "sender",
              "type": "address"
            },
            {
              "internalType": "address",
              "name": "recipient",
              "type": "address"
            },
            {
              "internalType": "address",
              "name": "vendor",
              "type": "address"
            }
          ],
          "internalType": "struct MocCommons.SwapTPforTCParams",
          "name": "params_",
          "type": "tuple"
        },
        {
          "internalType": "address",
          "name": "operator",
          "type": "address"
        }
      ],
      "name": "swapTPforTCto",
      "outputs": [
        {
          "internalType": "uint256",
          "name": "qACSurcharges",
          "type": "uint256"
        },
        {
          "internalType": "uint256",
          "name": "qTCtoMint",
          "type": "uint256"
        },
        {
          "internalType": "uint256",
          "name": "qFeeTokenTotalNeeded",
          "type": "uint256"
        },
        {
          "components": [
            {
              "internalType": "uint256",
              "name": "qACFee",
              "type": "uint256"
            },
            {
              "internalType": "uint256",
              "name": "qFeeToken",
              "type": "uint256"
            },
            {
              "internalType": "uint256",
              "name": "qACVendorMarkup",
              "type": "uint256"
            },
            {
              "internalType": "uint256",
              "name": "qFeeTokenVendorMarkup",
              "type": "uint256"
            }
          ],
          "internalType": "struct MocCommons.FeeCalcs",
          "name": "feeCalcs",
          "type": "tuple"
        }
      ],
      "stateMutability": "payable",
      "type": "function"
    },
    {
      "inputs": [],
      "name": "swapTPforTPFee",
      "outputs": [
        {
          "internalType": "uint256",
          "name": "",
          "type": "uint256"
        }
      ],
      "stateMutability": "view",
      "type": "function"
    },
    {
      "inputs": [
        {
          "components": [
            {
              "internalType": "address",
              "name": "tpFrom",
              "type": "address"
            },
            {
              "internalType": "address",
              "name": "tpTo",
              "type": "address"
            },
            {
              "internalType": "uint256",
              "name": "qTP",
              "type": "uint256"
            },
            {
              "internalType": "uint256",
              "name": "qTPmin",
              "type": "uint256"
            },
            {
              "internalType": "uint256",
              "name": "qACmax",
              "type": "uint256"
            },
            {
              "internalType": "address",
              "name": "sender",
              "type": "address"
            },
            {
              "internalType": "address",
              "name": "recipient",
              "type": "address"
            },
            {
              "internalType": "address",
              "name": "vendor",
              "type": "address"
            }
          ],
          "internalType": "struct MocCommons.SwapTPforTPParams",
          "name": "params_",
          "type": "tuple"
        },
        {
          "internalType": "address",
          "name": "operator",
          "type": "address"
        }
      ],
      "name": "swapTPforTPto",
      "outputs": [
        {
          "internalType": "uint256",
          "name": "qACSurcharges",
          "type": "uint256"
        },
        {
          "internalType": "uint256",
          "name": "qTPtoMint",
          "type": "uint256"
        },
        {
          "internalType": "uint256",
          "name": "qFeeTokenTotalNeeded",
          "type": "uint256"
        },
        {
          "components": [
            {
              "internalType": "uint256",
              "name": "qACFee",
              "type": "uint256"
            },
            {
              "internalType": "uint256",
              "name": "qFeeToken",
              "type": "uint256"
            },
            {
              "internalType": "uint256",
              "name": "qACVendorMarkup",
              "type": "uint256"
            },
            {
              "internalType": "uint256",
              "name": "qFeeTokenVendorMarkup",
              "type": "uint256"
            }
          ],
          "internalType": "struct MocCommons.FeeCalcs",
          "name": "feeCalcs",
          "type": "tuple"
        }
      ],
      "stateMutability": "payable",
      "type": "function"
    },
    {
      "inputs": [],
      "name": "tcInterestCollectorAddress",
      "outputs": [
        {
          "internalType": "address",
          "name": "",
          "type": "address"
        }
      ],
      "stateMutability": "view",
      "type": "function"
    },
    {
      "inputs": [],
      "name": "tcInterestPaymentBlockSpan",
      "outputs": [
        {
          "internalType": "uint256",
          "name": "",
          "type": "uint256"
        }
      ],
      "stateMutability": "view",
      "type": "function"
    },
    {
      "inputs": [],
      "name": "tcInterestRate",
      "outputs": [
        {
          "internalType": "uint256",
          "name": "",
          "type": "uint256"
        }
      ],
      "stateMutability": "view",
      "type": "function"
    },
    {
      "inputs": [],
      "name": "tcMintFee",
      "outputs": [
        {
          "internalType": "uint256",
          "name": "",
          "type": "uint256"
        }
      ],
      "stateMutability": "view",
      "type": "function"
    },
    {
      "inputs": [],
      "name": "tcRedeemFee",
      "outputs": [
        {
          "internalType": "uint256",
          "name": "",
          "type": "uint256"
        }
      ],
      "stateMutability": "view",
      "type": "function"
    },
    {
      "inputs": [],
      "name": "tcToken",
      "outputs": [
        {
          "internalType": "contract MocTC",
          "name": "",
          "type": "address"
        }
      ],
      "stateMutability": "view",
      "type": "function"
    },
    {
      "inputs": [
        {
          "internalType": "uint256",
          "name": "",
          "type": "uint256"
        }
      ],
      "name": "tpCtarg",
      "outputs": [
        {
          "internalType": "uint256",
          "name": "",
          "type": "uint256"
        }
      ],
      "stateMutability": "view",
      "type": "function"
    },
    {
      "inputs": [
        {
          "internalType": "uint256",
          "name": "",
          "type": "uint256"
        }
      ],
      "name": "tpEma",
      "outputs": [
        {
          "internalType": "uint256",
          "name": "ema",
          "type": "uint256"
        },
        {
          "internalType": "uint256",
          "name": "sf",
          "type": "uint256"
        }
      ],
      "stateMutability": "view",
      "type": "function"
    },
    {
      "inputs": [
        {
          "internalType": "uint256",
          "name": "",
          "type": "uint256"
        }
      ],
      "name": "tpLiqPrices",
      "outputs": [
        {
          "internalType": "uint256",
          "name": "",
          "type": "uint256"
        }
      ],
      "stateMutability": "view",
      "type": "function"
    },
    {
      "inputs": [
        {
          "internalType": "address",
          "name": "",
          "type": "address"
        }
      ],
      "name": "tpMintFees",
      "outputs": [
        {
          "internalType": "uint256",
          "name": "",
          "type": "uint256"
        }
      ],
      "stateMutability": "view",
      "type": "function"
    },
    {
      "inputs": [
        {
          "internalType": "address",
          "name": "",
          "type": "address"
        }
      ],
      "name": "tpRedeemFees",
      "outputs": [
        {
          "internalType": "uint256",
          "name": "",
          "type": "uint256"
        }
      ],
      "stateMutability": "view",
      "type": "function"
    },
    {
      "inputs": [
        {
          "internalType": "uint256",
          "name": "",
          "type": "uint256"
        }
      ],
      "name": "tpTokens",
      "outputs": [
        {
          "internalType": "contract IMocRC20",
          "name": "",
          "type": "address"
        }
      ],
      "stateMutability": "view",
      "type": "function"
    },
    {
      "inputs": [],
      "name": "unpause",
      "outputs": [],
      "stateMutability": "nonpayable",
      "type": "function"
    },
    {
      "inputs": [],
      "name": "updateEmas",
      "outputs": [],
      "stateMutability": "nonpayable",
      "type": "function"
    },
    {
      "inputs": [
        {
          "internalType": "address",
          "name": "newImplementation",
          "type": "address"
        }
      ],
      "name": "upgradeTo",
      "outputs": [],
      "stateMutability": "nonpayable",
      "type": "function"
    },
    {
      "inputs": [
        {
          "internalType": "address",
          "name": "newImplementation",
          "type": "address"
        },
        {
          "internalType": "bytes",
          "name": "data",
          "type": "bytes"
        }
      ],
      "name": "upgradeToAndCall",
      "outputs": [],
      "stateMutability": "payable",
      "type": "function"
    }
  ],
  "bytecode": "0x60a08060405234620000e157306080526000549060ff8260081c166200008f575060ff8082160362000053575b604051613c069081620000e78239608051818181611a4501528181611bb60152611df60152f35b60ff90811916176000557f7f26b83ff96e1f2b6a682f133852f6798a09c465da95921460cefb3847402498602060405160ff8152a1386200002c565b62461bcd60e51b815260206004820152602760248201527f496e697469616c697a61626c653a20636f6e747261637420697320696e697469604482015266616c697a696e6760c81b6064820152608490fd5b600080fdfe6080604052600436101561001257600080fd5b6000803560e01c806301dde6ef1461254557806301f1b684146124fd578063073763b9146124d95780630c340a24146124b05780630c36d897146124915780630d6ac4631461244b5780630db496561461242c5780630e0a8fd2146124085780630f1e5e2b146123c25780631867e2f5146123a35780631fe6a7ad146123695780632069f7531461234557806323b98cde1461231e57806324ffaba3146122e057806327eab2a11461229a5780632a20d57d1461227b5780632c43bd3b146122575780632d88af4a146122005780632ded50f0146121e15780632e816dc614611f60578063333431fd14611f4157806333421c3814611e5d5780633659cfe614611dc45780633915edcb14611d955780633bc4ac0a14611d715780633f4ba83a14611cf6578063407f0e3414611cd75780634b74600114611c8a5780634d977e7814611c6b5780634e1f907a14611c415780634f0f27ee14611c225780634f1ef28614611b2e5780635210570c14611b0857806352d1902d14611a32578063543aeb4814611a0e5780635860ee63146119ef5780635c975abb146119c957806360009e0b1461199f578063647846a51461197557806364ec230a14611951578063662013f41461192d57806368274357146119045780636845c445146117065780636b5488df146116e75780636f30471f146116c857806370713468146116a4578063735d39601461165e57806373e28af91461163a5780637554fffd1461161b57806376228055146115fc5780637750ba0c146115d857806379f9a91c146115b95780637a193c311461159a5780637a4ff1d9146115765780637a727fe8146115575780637af5758c146115335780637cba23831461150f5780637d8e0314146114d25780637f01c715146114a85780637f13b998146114745780637f4a4fe0146114555780638456cb59146113be57806385bf9593146113785780638cfa4241146113595780638e2bdb861461132f5780638e9875ba146110825780639853c35a146110585780639ad6659d1461101e5780639cabfc0014610fd15780639fd0506d14610fa4578063a8e9ac3014610f82578063ab6dd71d14610d15578063aea038dc14610cf6578063b5e9ea8c14610ccc578063b9fa641314610cad578063bb4872de14610c8a578063becaca6b14610c66578063c00f538d14610c42578063c84353c914610c1e578063cf351c1d14610bd8578063d1a0faa014610bbc578063d6af11da14610b7a578063d87aab6f14610b5b578063d8db6f5a14610b15578063db7960721461089c578063ddb6d1901461085e578063e4c0aaf414610815578063e6b1627c146107d2578063e7c25978146107ae578063ee1f438f14610784578063f13f40541461075a578063f26114aa1461056e578063f28087781461054a578063f30b56141461052b578063f375cfba1461050c578063fa6e83bd146104ed578063fadda424146104745763fda70f8b1461045357600080fd5b34610471578060031936011261047157602061016e54604051908152f35b80fd5b5034610471576020366003190112610471576001600160a01b0360043581811681036104e8576104b06104a8600192612e89565b6101696125e3565b500154166104bd81612f08565b919091156104d057602082604051908152f35b60249060405190637f6e4db960e01b82526004820152fd5b600080fd5b5034610471578060031936011261047157602061016c54604051908152f35b5034610471578060031936011261047157602061017354604051908152f35b5034610471578060031936011261047157602061016354604051908152f35b503461047157602036600319011261047157610564613afd565b60043561016e5580f35b50346104715760e0366003190112610471576004356001600160a01b03818116918290036104e8578183526101686020526040832060ff6001604051926105b66040856125ab565b80548452015416158015602083015261070c575190602435908082168092036104e8576101699060016105e985846125e3565b500154168203610692575b847f6417e5a3c1e0e5dae98b8fe718c4babdfcb35e0d7b5e1b9641b5914756f5d8e3600485876106456106298361017a612569565b6044929192359083549060031b91821b91600019901b19161790565b9055808552610176602052606435604086205584526101776020526084356040852055610674816101be6125e3565b50600160c43591015561068c60405192839283613148565b0390a180f35b9190926040516359e02dd760e01b8152604081600481885afa90811561074f57869161071e575b501561070c577f6417e5a3c1e0e5dae98b8fe718c4babdfcb35e0d7b5e1b9641b5914756f5d8e39360016106ef846004966125e3565b5001906001600160601b0360a01b825416179055928192506105f4565b60405163e6c4247b60e01b8152600490fd5b610740915060403d604011610748575b61073881836125ab565b810190612eee565b9050386106b9565b503d61072e565b6040513d88823e3d90fd5b5034610471578060031936011261047157610162546040516001600160a01b039091168152602090f35b5034610471578060031936011261047157610182546040516001600160a01b039091168152602090f35b5034610471578060031936011261047157602060ff61017d54166040519015158152f35b503461047157602036600319011261047157600435906101be90815483101561047157604061080184846125e3565b506001815491015482519182526020820152f35b5034610471576020366003190112610471576004356001600160a01b0381169081900361085a57610844613afd565b6001600160601b0360a01b609754161760975580f35b5080fd5b5034610471576020366003190112610471576004356001600160a01b038116908190036104e857816040916020935261017783522054604051908152f35b50346104715760e0366003190112610471576004356001600160a01b03818116918290036104e857602480358281168091036104e8578385526101689360209085825260019260ff8460408a20015416610b035761016795865497856040516109066040826125ab565b8a815286810192828452868d52875260408c2090518155019051151560ff801983541691161790558654600160401b9788821015610af0579061094d918782018155612569565b81549060031b908386831b921b191617905560405161096d6040826125ab565b89815284810192835261016980549089821015610add57906109939188820181556125e3565b919091610aca57908691518155019151166001600160601b0360a01b8254161790556109c360443561017a612d9e565b80875261017682526064356040882055865261017781526084356040872055604051906109f16040836125ab565b60a4358252810160c43581526101be80549086821015610ab75790610a1a9185820181556125e3565b929092610aa4579083915183555191015561018091825493841015610a925750827f6417e5a3c1e0e5dae98b8fe718c4babdfcb35e0d7b5e1b9641b5914756f5d8e39492610a6d92600495018155612569565b5050610a83610a7b82612eb2565b610181612d9e565b61068c60405192839283613148565b634e487b7160e01b8652604160045285fd5b634e487b7160e01b885260048890528488fd5b634e487b7160e01b895260416004528589fd5b634e487b7160e01b8b5260048b9052878bfd5b634e487b7160e01b8c526041600452888cfd5b634e487b7160e01b8b526041600452878bfd5b604051633458f6c560e01b8152600490fd5b5034610471576020366003190112610471576004356001600160a01b038116908190036104e857610b44613afd565b61018280546001600160a01b031916909117905580f35b5034610471578060031936011261047157602061018554604051908152f35b50346104715780600319360112610471576020610bb4610b9a6001612fa4565b610bae610ba78284612cb5565b9183612bf9565b91612feb565b604051908152f35b5034610471578060031936011261047157610bd5613a69565b80f35b5034610471576020366003190112610471576004356001600160a01b038116908190036104e857610c07613afd565b61016180546001600160a01b031916909117905580f35b503461047157602036600319011261047157610c38613afd565b60043561017e5580f35b503461047157602036600319011261047157610c5c613afd565b60043561016f5580f35b503461047157602036600319011261047157610c80613afd565b60043561016b5580f35b5034610471578060031936011261047157602060ff60ca54166040519015158152f35b5034610471578060031936011261047157602061018b54604051908152f35b5034610471578060031936011261047157610183546040516001600160a01b039091168152602090f35b5034610471578060031936011261047157602061016f54604051908152f35b5061010036600319011261047157610d2e36600461261b565b60e435916001600160a01b0380841684036104e857610d4b6131b0565b50610d54612f6a565b91610d6182855116612e89565b92610d84610d6f8583612b34565b5191610d7b8387613376565b61017b54613333565b6020879592950196610dd2610d9a858a51613bac565b96610dcc8a5196610dc7610db3610166998a5490612c82565b93610dc2610163988954612d47565b612d47565b612c82565b90613bac565b986040820151808b108015610f7a575b610f5c5750610e0384608084015116888660c08601511661017154926133c7565b99919a90986060850151808d11610f3d5750889794610e3d88958f98959b610e939c60209b96610e36600160a0986137af565b51906132a1565b01511692610e4c858254612b48565b9055610e59868254612b48565b9055610165541690846040518097819582946340c10f1960e01b84526004840160209093929193604081019460018060a01b031681520152565b03925af18015610f3057610ef0575b505090610eec91604051948594859293606091959460c09360e086019786526020860152604085015280518285015260208101516080850152604081015160a08501520151910152565b0390f35b6020823d8211610f28575b81610f08602093836125ab565b81010312610471575090610f1f610eec9392612ee1565b50909138610ea2565b3d9150610efb565b50604051903d90823e3d90fd5b6044908c5160405191630b63f1a760e01b835260048301526024820152fd5b6044908b6040519163f577bef560e01b835260048301526024820152fd5b508a15610de2565b503461047157806003193601126104715760206101bf54431015604051908152f35b503461047157806003193601126104715760ca5460405160109190911c6001600160a01b03168152602090f35b5034610471576020366003190112610471576004356001600160a01b038116908190036104e857604082819281526101686020522060ff6001825492015416825191825215156020820152f35b5034610471578060031936011261047157602061104a61104461103f612f6a565b612b6b565b90612d29565b61017c541015604051908152f35b5034610471578060031936011261047157610178546040516001600160a01b039091168152602090f35b506101003660031901126104715761109b36600461261b565b6001600160a01b039060e43582811681036104e8576110b86131b0565b506110c1613a69565b6110c96139ab565b9290936110d881835116612e89565b906110f86110e68387612b34565b51956110f28785613376565b87613333565b9390946020820196875161110d87898c613898565b818110611311575050611138908851670de0b6b3a76400009283916111328a8c613869565b90612c82565b049687156112ff57895198826101639a82848d549061115691612d47565b9061116091612d47565b61116991612c82565b9061117391612c82565b9361016694855461118391612c95565b049b611190938d8a61365f565b6040830151808a106112e157506111b984608085015116878660c08701511661017254926133c7565b98919990976060860151808c116112c25750906111d98d809594936137af565b51916111e6838254612d47565b90556111f3838254612d47565b9055846101655416803b156112be57604051632770a7eb60e21b81526001600160a01b0394909416600485015260248401919091528290604490829084905af180156112b35761129a575b509686611257939260a0610eec98999a015116926131d7565b604051948594859293606091959460c09360e086019786526020860152604085015280518285015260208101516080850152604081015160a08501520151910152565b6112a58980926125ab565b6112af573861123e565b8780fd5b6040513d8b823e3d90fd5b8280fd5b6044908b5160405191630b63f1a760e01b835260048301526024820152fd5b6044908a6040519163272e3f5960e21b835260048301526024820152fd5b60405163f3e39b5d60e01b8152600490fd5b604492506040519163a5db715d60e01b835260048301526024820152fd5b5034610471578060031936011261047157610188546040516001600160a01b039091168152602090f35b5034610471578060031936011261047157602061017c54604051908152f35b5034610471576020366003190112610471576004356001600160a01b038116908190036104e8576113a7613afd565b61018380546001600160a01b031916909117905580f35b50346104715780600319360112610471576113d7613b8b565b60ca54601081901c6001600160a01b031633036114435760ff811615611431576101009061ff0019161760ca557f62e78cea01bee320cd4e420270b5ea74000d11b0c9f74754ebdbfc544b05a2586020604051338152a180f35b60405163866099c360e01b8152600490fd5b604051631d77d47760e21b8152600490fd5b5034610471578060031936011261047157602061018a54604051908152f35b50346104715780600319360112610471576020610bb46114946001612fa4565b610bae6114a18284612bf9565b9183612cb5565b50346104715780600319360112610471576101f3546040516001600160a01b039091168152602090f35b5034610471576020366003190112610471576004359061017a9081548310156104715760206115018484612569565b90546040519160031b1c8152f35b503461047157602036600319011261047157611529613afd565b60043561017b5580f35b50346104715760203660031901126104715761154d613afd565b6004356101725580f35b503461047157806003193601126104715760206101c054604051908152f35b503461047157602036600319011261047157611590613afd565b6004356101735580f35b5034610471578060031936011261047157602061016654604051908152f35b5034610471578060031936011261047157602061017454604051908152f35b5034610471576020366003190112610471576115f2613afd565b60043561016d5580f35b5034610471578060031936011261047157602061018654604051908152f35b5034610471578060031936011261047157602061016b54604051908152f35b503461047157602036600319011261047157611654613afd565b6004356101845580f35b5034610471576020366003190112610471576004356001600160a01b038116908190036104e85761168d613afd565b61018880546001600160a01b031916909117905580f35b5034610471576020366003190112610471576116be613afd565b6004356101705580f35b5034610471578060031936011261047157602061018454604051908152f35b5034610471578060031936011261047157602061017b54604051908152f35b5034610471576080366003190112610471576001600160a01b039060043582811691908281036104e857602435848116948582036104e857604435928184168094036104e85760ff61017d5460081c16156118f25761176490612e89565b6101676117718282612569565b95905498604051966370a0823160e01b8852816004890152876024818860209e8f9560031b1c165afa9687156118e75788976118b8575b50861561189a576117cb6117be8561016a612569565b90549060031b1c88613bac565b986064358a8110611890575b5090611814949392917ffaab3901cd2d6e9b5d0a0c6e34c643b8c844726f3c54de69517e571bf24bbd9260408d8d8251918d8352820152a4612569565b90549060031b1c1690813b1561188c57604051632770a7eb60e21b81526001600160a01b03919091166004820152602481019290925282908290604490829084905af180156118815761186c575b5050604051908152f35b6118778280926125ab565b6104715780611862565b6040513d84823e3d90fd5b8380fd5b99506118146117d7565b60448760405190633fe8c5eb60e01b82528060048301526024820152fd5b9096508981813d83116118e0575b6118d081836125ab565b810103126104e8575195386117a8565b503d6118c6565b6040513d8a823e3d90fd5b60405163031b0d3560e11b8152600490fd5b503461047157806003193601126104715761191d613afd565b600160ff1960ca54161760ca5580f35b503461047157806003193601126104715760206119486139ab565b50604051908152f35b50346104715760203660031901126104715761196b613afd565b6004356101895580f35b5034610471578060031936011261047157610161546040516001600160a01b039091168152602090f35b5034610471578060031936011261047157610165546040516001600160a01b039091168152602090f35b5034610471578060031936011261047157602060ff60ca5460081c166040519015158152f35b5034610471578060031936011261047157602061018754604051908152f35b503461047157602036600319011261047157611a28613afd565b6004356101755580f35b50346104715780600319360112610471577f00000000000000000000000000000000000000000000000000000000000000006001600160a01b03163003611a9d5760206040517f360894a13ba1a3210667c828492db98dca3e2076cc3735a920a3ca505d382bbc8152f35b60405162461bcd60e51b815260206004820152603860248201527f555550535570677261646561626c653a206d757374206e6f742062652063616c60448201527f6c6564207468726f7567682064656c656761746563616c6c00000000000000006064820152608490fd5b5034610471578060031936011261047157611b21613afd565b60ff1960ca541660ca5580f35b506040366003190112610471576001600160a01b0360043581811681036104e85782916024359167ffffffffffffffff8311611c1d5736602384011215611c1d578260040135611b7d816125ff565b92611b8b60405194856125ab565b8184523660248387010111611c1957610bd595602083611c0c946024600199018389013786010152807f00000000000000000000000000000000000000000000000000000000000000001690611be382301415612693565b7f360894a13ba1a3210667c828492db98dca3e2076cc3735a920a3ca505d382bbc5416146126f4565b611c14613afd565b612755565b8580fd5b505050fd5b5034610471578060031936011261047157602061016d54604051908152f35b5034610471578060031936011261047157610179546040516001600160a01b039091168152602090f35b5034610471578060031936011261047157602061017e54604051908152f35b50346104715760203660031901126104715760043590610169908154831015610471576040611cb984846125e3565b50805460019091015482519182526001600160a01b03166020820152f35b5034610471578060031936011261047157602061017054604051908152f35b503461047157806003193601126104715760ca5460ff8160081c1615611d5f57601081901c6001600160a01b031633036114435761ff00191660ca557f5db9ee0a495bf2e6ff9c91a7834c1ba4fdd244a5e8aa4e537bd38aeae4b073aa6020604051338152a180f35b604051637c7fd07960e01b8152600490fd5b503461047157602036600319011261047157611d8b613afd565b6004356101c05580f35b5034610471576020366003190112610471576004359061016a9081548310156104715760206115018484612569565b5034610471576020366003190112610471576004356001600160a01b0380821682036104e857610bd591611e238285937f00000000000000000000000000000000000000000000000000000000000000001690611be382301415612693565b611e2b613afd565b611e34826125ff565b90611e4260405192836125ab565b828252601f19611e51846125ff565b01366020840137612755565b5034610471578060031936011261047157611e76613b8b565b61017d805460ff811680611f33575b80611f19575b611e93578280f35b61ff0019166101001790556040517f8b77276c97a5709f0d6db52329848a254eb760ce8be80d281799f633bdb69e838280a16101655482906001600160a01b0316803b1561085a5782600481848094638456cb5960e01b83525af18015610f3057611f09575b5050611f03612ddb565b38808280f35b611f12916125ab565b3881611ef9565b50611f2861104461103f612f6a565b61017c541015611e8b565b5060ff8160081c1615611e85565b5034610471578060031936011261047157602061017154604051908152f35b5036600319019061012082126104715761010080921261047157611f8760405192836125ab565b6004356001600160a01b038116810361085a578252602435906001600160a01b0382168203610471576020830191825260443560408401526064356060840190815260843560808501529260a4356001600160a01b03811681036112be5760a082015260c4356001600160a01b03811681036112be5760c082015260e4356001600160a01b03811681036112be5760e0820152610104356001600160a01b038116900361085a576120366131b0565b50805183516001600160a01b039081169116146121cf57805161207590612065906001600160a01b0316612e89565b93516001600160a01b0316612e89565b9061207f84612eb2565b61208883612eb2565b6120928287613376565b61209c8185613376565b6120aa826040850151613bac565b916120c2816120bd846040880151612c82565b612c95565b975180891080156121c7575b6121a957509061211692916120ed6120e68388613908565b9189613908565b1061217a575b5060a083015160e08401516101705492916001600160a01b0391821691166133c7565b9491959093608084015180881161215b575091610eec9594939161214c61125794838b60018060a01b0360c088015116926131d7565b604061010435930151906132a1565b604490875160405191630b63f1a760e01b835260048301526024820152fd5b6121996121a391612189613a69565b6121916139ab565b819391613333565b9290918b8961365f565b386120f3565b604490896040519163272e3f5960e21b835260048301526024820152fd5b5088156120ce565b604051632a9ffab760e21b8152600490fd5b5034610471578060031936011261047157602061017554604051908152f35b5034610471576020366003190112610471576004356001600160a01b038116810361085a5761222d613afd565b60ca805462010000600160b01b03191660109290921b62010000600160b01b031691909117905580f35b503461047157602036600319011261047157612271613afd565b60043561017c5580f35b5034610471578060031936011261047157602061017254604051908152f35b5034610471576020366003190112610471576004356001600160a01b0381169081900361085a576122c9613afd565b61017980546001600160a01b031916909117905580f35b5034610471576020366003190112610471576004356001600160a01b0381169081900361085a57816040916020935261017683522054604051908152f35b5034610471578060031936011261047157602060ff61017d5460081c166040519015158152f35b50346104715760203660031901126104715761235f613afd565b6004356101745580f35b50346104715760203660031901126104715760043580151580910361085a57612390613afd565b61017d9060ff8019835416911617905580f35b5034610471578060031936011261047157602061017f54604051908152f35b5034610471576020366003190112610471576004356001600160a01b0381169081900361085a576123f1613afd565b61016280546001600160a01b031916909117905580f35b503461047157602036600319011261047157612422613afd565b6004356101715580f35b5034610471578060031936011261047157602061018954604051908152f35b5034610471576020366003190112610471576004356001600160a01b0381169081900361085a5761247a613afd565b61017880546001600160a01b031916909117905580f35b503461047157806003193601126104715760206101bf54604051908152f35b50346104715780600319360112610471576097546040516001600160a01b039091168152602090f35b5034610471576020366003190112610471576124f3613afd565b60043561018a5580f35b5034610471576020366003190112610471576004359061016790815483101561047157602061252c8484612569565b905460405160039290921b1c6001600160a01b03168152f35b50346104715760203660031901126104715761255f613afd565b60043561016c5580f35b80548210156125815760005260206000200190600090565b634e487b7160e01b600052603260045260246000fd5b35906001600160a01b03821682036104e857565b90601f8019910116810190811067ffffffffffffffff8211176125cd57604052565b634e487b7160e01b600052604160045260246000fd5b80548210156125815760005260206000209060011b0190600090565b67ffffffffffffffff81116125cd57601f01601f191660200190565b91908260e09103126104e85760405161263560e0826125ab565b60c061268e81839561264681612597565b855260208101356020860152604081013560408601526060810135606086015261267260808201612597565b608086015261268360a08201612597565b60a086015201612597565b910152565b1561269a57565b60405162461bcd60e51b815260206004820152602c60248201527f46756e6374696f6e206d7573742062652063616c6c6564207468726f7567682060448201526b19195b1959d85d1958d85b1b60a21b6064820152608490fd5b156126fb57565b60405162461bcd60e51b815260206004820152602c60248201527f46756e6374696f6e206d7573742062652063616c6c6564207468726f7567682060448201526b6163746976652070726f787960a01b6064820152608490fd5b909160ff7f4910fdfa16fed3260ed0e7147f7cc6da11a60208b5b9406d12a635614ffd91435416600014612790575061278e91506129be565b565b604080516352d1902d60e01b8152602094919392906001600160a01b038416908681600481855afa6000918161298f575b5061282157855162461bcd60e51b815260048101889052602e60248201527f45524331393637557067726164653a206e657720696d706c656d656e7461746960448201526d6f6e206973206e6f74205555505360901b6064820152608490fd5b9395929492937fc9f76b5ec45e5cdef99837d7b6d2467235c1df8933c8ca56df5c35afa2c7d4440161293957612856866129be565b7fbc7cd75a20ee27fd9adebab32041f755214dbc6bffa90cc0225b39da2e5c2d3b600080a283511590811591612931575b50612893575b50505050565b61291d936000806128a460276125ff565b956128b1855197886125ab565b602787527f416464726573733a206c6f772d6c6576656c2064656c65676174652063616c6c86880152660819985a5b195960ca1b858801528581519101845af4913d15612927573d61290e612905826125ff565b925192836125ab565b8152600081943d92013e612a60565b503880808061288d565b5060609250612a60565b905038612887565b825162461bcd60e51b815260048101859052602960248201527f45524331393637557067726164653a20756e737570706f727465642070726f786044820152681a58589b195555525160ba1b6064820152608490fd5b90918882813d83116129b7575b6129a681836125ab565b8101031261047157505190386127c1565b503d61299c565b803b15612a05577f360894a13ba1a3210667c828492db98dca3e2076cc3735a920a3ca505d382bbc80546001600160a01b0319166001600160a01b03909216919091179055565b60405162461bcd60e51b815260206004820152602d60248201527f455243313936373a206e657720696d706c656d656e746174696f6e206973206e60448201526c1bdd08184818dbdb9d1c9858dd609a1b6064820152608490fd5b91929015612ac25750815115612a74575090565b3b15612a7d5790565b60405162461bcd60e51b815260206004820152601d60248201527f416464726573733a2063616c6c20746f206e6f6e2d636f6e74726163740000006044820152606490fd5b825190915015612ad55750805190602001fd5b6040519062461bcd60e51b82528160208060048301528251908160248401526000935b828510612b1b575050604492506000838284010152601f80199101168101030190fd5b8481018201518686016044015293810193859350612af8565b80518210156125815760209160051b010190565b91908201809211612b5557565b634e487b7160e01b600052601160045260246000fd5b906000916000906101698054906000925b828410612ba25750505050612b9e670de0b6b3a76400009161016b5490612c82565b0490565b9091929395612bef612bde612be9600193612be3612bc08a88612b34565b51612bcb818c612c15565b9590612bd78d8c6125e3565b5054612b48565b613bac565b90612b48565b98612b48565b9401929190612b7c565b91909160008382019384129112908015821691151617612b5557565b9190600090612c4381600095612c39612c3082610180612569565b93905492612cce565b9160031b1c612bf9565b60008113612c52575b50509190565b612c7a919450612c7492508094670de0b6b3a764000093849161016c54612c82565b04612c82565b043880612c4c565b81810292918115918404141715612b5557565b8115612c9f570490565b634e487b7160e01b600052601260045260246000fd5b81810392916000138015828513169184121617612b5557565b612cda816101696125e3565b505490670de0b6b3a764000091828102928184041490151715612b5557612d2692612d1a612d0d612d2093610181612569565b90549060031b1c84612c95565b92612c95565b90612cb5565b90565b8015612d3f57612bde612d269261016354612d47565b505060001990565b91908203918211612b5557565b67ffffffffffffffff81116125cd5760051b60200190565b90612d7682612d54565b612d8360405191826125ab565b8281528092612d94601f1991612d54565b0190602036910137565b805490600160401b8210156125cd5781612dc0916001612dd794018155612569565b819391549060031b91821b91600019901b19161790565b9055565b610163548015612e865761016990815491600090612df884612d6c565b9082905b858210612e4257505060005b848110612e16575050505050565b80612e3c612e34866120bd87612e2e60019789612b34565b51612c82565b61016a612d9e565b01612e08565b9092612e7e600191612e5386612eb2565b612e5d8787612b34565b52612be3612e6b87866125e3565b5054612e778888612b34565b5190613bac565b930190612dfc565b50565b6001600160a01b0316600090815261016860205260409020600181015460ff161561070c575490565b612ebe906101696125e3565b50600101546001600160a01b0316612ed581612f08565b919091156104d0575090565b519081151582036104e857565b91908260409103126104e857612d26602083519301612ee1565b604080516359e02dd760e01b81529291839060049082906001600160a01b03165afa918215612f5e576000908193612f3f57509190565b9050612f5a91925060403d81116107485761073881836125ab565b9091565b6040513d6000823e3d90fd5b6101695490612f7882612d6c565b9160005b818110612f87575050565b80612f93600192612eb2565b612f9d8287612b34565b5201612f7c565b90612fc5670de0b6b3a7640000928361018754610184549243010302612c95565b82811015612fe25782039180836101855402049261018654020590565b50600091508190565b9091612ff561304d565b92908082101561304357839161300a91612d47565b93111561303e57818110156130365761302291612d47565b60011c80821015613031575090565b905090565b505050600090565b505090565b5050505050600090565b61018254604080516359e02dd760e01b80825293929091906001600160a01b039081168284600481845afa801561313d57600094859161311a575b5015613103575061018354169080519485528085600481855afa80156130f85760009586916130d5575b50156130be5750509190565b6024925051906305e8989360e11b82526004820152fd5b9050816130ef9296503d87116107485761073881836125ab565b949094386130b2565b50513d6000823e3d90fd5b6024908351906305e8989360e11b82526004820152fd5b9050613134919450833d85116107485761073881836125ab565b93909338613088565b83513d6000823e3d90fd5b9081526101008101929160e09060c0906001600160a01b038061316a83612597565b16602086015261317c60208301612597565b1660408501526040810135606085015260608101356080850152608081013560a085015260a0810135828501520135910152565b604051906131bf6080836125ab565b60006060838281528260208201528260408201520152565b61324f936132166000926020956131f0826101696125e3565b506131fc878254612b48565b905561320c610163918254612b48565b9055610167612569565b90546040516340c10f1960e01b81526001600160a01b039093166004840152602483019490945290948593928492909183906044820190565b039360039190911b1c6001600160a01b03165af18015612f5e576132705750565b6020813d8211613299575b81613288602093836125ab565b810103126104e857612e8690612ee1565b3d915061327b565b6132cf9193926132b3826101696125e3565b506132bf868254612d47565b905561320c610163918254612d47565b905460039190911b1c6001600160a01b031691823b156104e857604051632770a7eb60e21b81526001600160a01b039290921660048301526024820152906000908290604490829084905af18015612f5e576133285750565b600061278e916125ab565b919061333e90612b6b565b91909261334b8385612d29565b9080821115613358575050565b6044925060405191637912120160e01b835260048301526024820152fd5b612dc0612dd7916133878482612cce565b6133bd61339683610180612569565b6133a98294925492838360031b1c612bf9565b919060031b91821b91600019901b19161790565b9055610181612569565b9290939160009160009182966133db6131b0565b966001600160a01b039185908316806135e7575b508261016154168360405193636eb1769f60e11b8552168060048501523060248501526020948585604481865afa9485156135dc5784956135ad575b508461348c575b505050505086015115613448575b505050929190565b90919250613460670de0b6b3a7640000928392612c82565b048085529082156134845761347c920490816040860152612b48565b388080613440565b50905061347c565b61349a906101625416612f08565b9290921561343257909192939b50848b6134d485670de0b6b3a76400006134ce6134c48d8d612c82565b6101755490612c82565b04612c95565b81830181815295908b156135a357506134ff916134f36060928d612c95565b91829101528551612b48565b809d5b1092831561352e575b50505061351b575b808080613432565b8192995052806060880152963880613513565b909192506024604051809481936370a0823160e01b835260048301525afa90811561359857908b918491613567575b501038848161350b565b809250858092503d8311613591575b61358081836125ab565b810103126112be578a90513861355d565b503d613576565b6040513d85823e3d90fd5b915050809d613502565b9094508581813d83116135d5575b6135c581836125ab565b8101031261188c5751933861342b565b503d6135bb565b6040513d86823e3d90fd5b9095506020836101f35416916024604051809481936364a731e960e01b835260048301525afa801561074f57869061362c575b613625915084612c82565b94386133ef565b506020813d8211613657575b81613645602093836125ab565b81010312611c1957613625905161361a565b3d9150613638565b92613671836136779694939795613908565b906136a0565b818110613682575050565b604492506040519163c39b739f60e01b835260048301526024820152fd5b909291926136af858484613778565b6000948181029190868212600160ff1b82141661374957818305149015171561373557670de0b6b3a763ffff19820191821161373557670de0b6b3a76400009182810292818404149015171561373557906137099161375d565b93838512928315613720575b505050613031575090565b61372b929350612d29565b1115388080613715565b634e487b7160e01b85526011600452602485fd5b634e487b7160e01b87526011600452602487fd5b8115612c9f57600160ff1b8114600019831416612b55570590565b90916137879061016354612d47565b90670de0b6b3a764000091828102928184041490151715612b5557612d2692612d2091612c82565b806137b861304d565b9190936137c56000612fa4565b940193829161385d575b019384600080821261385757505b84039181851161381f57505081811161380157505061018555610186554361018755565b60449250604051916306da41e560e11b835260048301526024820152fd5b908085921161384557604491604051916306da41e560e11b835260048301526024820152fd5b604051630fb4fd3560e11b8152600490fd5b036137dd565b905081600003906137cf565b906101665490811561388957612d2692610dc2612bde9261016354612d47565b505050670de0b6b3a764000090565b6138b66138a6848484613778565b6138b08585613869565b9061375d565b92600084129283156138d3575b5050506138cd5790565b50600090565b6138de929350612d29565b11153880806138c3565b906040516138f76040826125ab565b602060018294805484520154910152565b6139148161017a612569565b90549060031b1c916101be9161392a81846125e3565b5054926101bf54431015613950575b50508082101561303e576120bd90612d2693612c82565b82935061396461396f939261396a926125e3565b506138e8565b613977565b903880613939565b602081519101805192670de0b6b3a764000093840390848211612b55576139a4612be392612b9e95612c82565b9251612c82565b600080610169918254926139be84612d6c565b9382915b8183106139eb5750505081156139df57906139dc91612c95565b91565b505061017b5460011b91565b909193926139f885612eb2565b9081613a048789612b34565b52613a1d613a128388612c15565b50612bd788866125e3565b670de0b6b3a764000090818102918183041490151715612b5557613a5a613a6092612be385613a51600197610dc796613bac565b9485918c613908565b95612b48565b940191906139c2565b6101bf8054431015613a785750565b6101695460005b818110613a925750506101c05443019055565b80807f19156e9379c7bbbce8f646ce5ee30ba860b8f954717405f3d5859a6c1a21ae606001936101be613ac861396483836125e3565b90613ae6613ade613ad885612eb2565b84613977565b9384926125e3565b50555160409182519182526020820152a201613a7f565b60975460405163d994d6d560e01b815233600482015290602090829060249082906001600160a01b03165afa908115612f5e57600091613b52575b5015613b4057565b604051631dd1b1b560e21b8152600490fd5b906020823d8211613b83575b81613b6b602093836125ab565b810103126104715750613b7d90612ee1565b38613b38565b3d9150613b5e565b60ff60ca5460081c16613b9a57565b60405163783bb6c960e11b8152600490fd5b90670de0b6b3a764000091828102928184041490151715612b5557612d2691612c9556fea26469706673582212206ed4c61452bc55994e07cd668eb9cb96d4d6c4dc8cf991f75bab422a8bdfd0f464736f6c63430008120033",
  "linkReferences": {},
  "deployedLinkReferences": {}
}