{
  "contractName": "MocCoreExpansion",
  "sourceName": "contracts/core/MocCoreExpansion.sol",
  "abi": [
    {
      "inputs": [],
      "stateMutability": "nonpayable",
      "type": "constructor"
    },
    {
      "inputs": [
        {
          "internalType": "uint256",
          "name": "qACsent_",
          "type": "uint256"
        },
        {
          "internalType": "uint256",
          "name": "qACNeeded_",
          "type": "uint256"
        }
      ],
      "name": "InsufficientQacSent",
      "type": "error"
    },
    {
      "inputs": [
        {
          "internalType": "uint256",
          "name": "qTPsent_",
          "type": "uint256"
        },
        {
          "internalType": "uint256",
          "name": "qTPNeeded_",
          "type": "uint256"
        }
      ],
      "name": "InsufficientQtpSent",
      "type": "error"
    },
    {
      "inputs": [
        {
          "internalType": "uint256",
          "name": "qTC_",
          "type": "uint256"
        },
        {
          "internalType": "uint256",
          "name": "tcAvailableToRedeem_",
          "type": "uint256"
        }
      ],
      "name": "InsufficientTCtoRedeem",
      "type": "error"
    },
    {
      "inputs": [
        {
          "internalType": "uint256",
          "name": "qTP_",
          "type": "uint256"
        },
        {
          "internalType": "uint256",
          "name": "tpAvailableToMint_",
          "type": "uint256"
        }
      ],
      "name": "InsufficientTPtoMint",
      "type": "error"
    },
    {
      "inputs": [
        {
          "internalType": "uint256",
          "name": "qTP_",
          "type": "uint256"
        },
        {
          "internalType": "uint256",
          "name": "tpAvailableToRedeem_",
          "type": "uint256"
        }
      ],
      "name": "InsufficientTPtoRedeem",
      "type": "error"
    },
    {
      "inputs": [],
      "name": "InvalidAddress",
      "type": "error"
    },
    {
      "inputs": [],
      "name": "InvalidFluxCapacitorOperation",
      "type": "error"
    },
    {
      "inputs": [],
      "name": "InvalidValue",
      "type": "error"
    },
    {
      "inputs": [],
      "name": "Liquidated",
      "type": "error"
    },
    {
      "inputs": [
        {
          "internalType": "uint256",
          "name": "cglb_",
          "type": "uint256"
        },
        {
          "internalType": "uint256",
          "name": "covThrld_",
          "type": "uint256"
        }
      ],
      "name": "LowCoverage",
      "type": "error"
    },
    {
      "inputs": [
        {
          "internalType": "uint256",
          "name": "max_",
          "type": "uint256"
        },
        {
          "internalType": "uint256",
          "name": "new_",
          "type": "uint256"
        }
      ],
      "name": "MaxFluxCapacitorOperationReached",
      "type": "error"
    },
    {
      "inputs": [
        {
          "internalType": "address",
          "name": "dataProviderAddress_",
          "type": "address"
        }
      ],
      "name": "MissingProviderData",
      "type": "error"
    },
    {
      "inputs": [
        {
          "internalType": "address",
          "name": "priceProviderAddress_",
          "type": "address"
        }
      ],
      "name": "MissingProviderPrice",
      "type": "error"
    },
    {
      "inputs": [],
      "name": "NotAuthorizedChanger",
      "type": "error"
    },
    {
      "inputs": [],
      "name": "NotWhenPaused",
      "type": "error"
    },
    {
      "inputs": [],
      "name": "OnlyPauser",
      "type": "error"
    },
    {
      "inputs": [],
      "name": "OnlyWhenLiquidated",
      "type": "error"
    },
    {
      "inputs": [],
      "name": "OnlyWhilePaused",
      "type": "error"
    },
    {
      "inputs": [],
      "name": "PeggedTokenAlreadyAdded",
      "type": "error"
    },
    {
      "inputs": [
        {
          "internalType": "uint256",
          "name": "qACmin_",
          "type": "uint256"
        },
        {
          "internalType": "uint256",
          "name": "qACtoRedeem_",
          "type": "uint256"
        }
      ],
      "name": "QacBelowMinimumRequired",
      "type": "error"
    },
    {
      "inputs": [],
      "name": "QacNeededMustBeGreaterThanZero",
      "type": "error"
    },
    {
      "inputs": [
        {
          "internalType": "uint256",
          "name": "qTCmin_",
          "type": "uint256"
        },
        {
          "internalType": "uint256",
          "name": "qTC_",
          "type": "uint256"
        }
      ],
      "name": "QtcBelowMinimumRequired",
      "type": "error"
    },
    {
      "inputs": [
        {
          "internalType": "uint256",
          "name": "qTPmin_",
          "type": "uint256"
        },
        {
          "internalType": "uint256",
          "name": "qTP_",
          "type": "uint256"
        }
      ],
      "name": "QtpBelowMinimumRequired",
      "type": "error"
    },
    {
      "inputs": [],
      "name": "TransferFailed",
      "type": "error"
    },
    {
      "inputs": [],
      "name": "Unstoppable",
      "type": "error"
    },
    {
      "anonymous": false,
      "inputs": [
        {
          "indexed": false,
          "internalType": "address",
          "name": "previousAdmin",
          "type": "address"
        },
        {
          "indexed": false,
          "internalType": "address",
          "name": "newAdmin",
          "type": "address"
        }
      ],
      "name": "AdminChanged",
      "type": "event"
    },
    {
      "anonymous": false,
      "inputs": [
        {
          "indexed": true,
          "internalType": "address",
          "name": "beacon",
          "type": "address"
        }
      ],
      "name": "BeaconUpgraded",
      "type": "event"
    },
    {
      "anonymous": false,
      "inputs": [],
      "name": "ContractLiquidated",
      "type": "event"
    },
    {
      "anonymous": false,
      "inputs": [
        {
          "indexed": false,
          "internalType": "uint8",
          "name": "version",
          "type": "uint8"
        }
      ],
      "name": "Initialized",
      "type": "event"
    },
    {
      "anonymous": false,
      "inputs": [
        {
          "indexed": true,
          "internalType": "address",
          "name": "tp_",
          "type": "address"
        },
        {
          "indexed": true,
          "internalType": "address",
          "name": "sender_",
          "type": "address"
        },
        {
          "indexed": true,
          "internalType": "address",
          "name": "recipient_",
          "type": "address"
        },
        {
          "indexed": false,
          "internalType": "uint256",
          "name": "qTP_",
          "type": "uint256"
        },
        {
          "indexed": false,
          "internalType": "uint256",
          "name": "qAC_",
          "type": "uint256"
        }
      ],
      "name": "LiqTPRedeemed",
      "type": "event"
    },
    {
      "anonymous": false,
      "inputs": [
        {
          "indexed": false,
          "internalType": "address",
          "name": "account",
          "type": "address"
        }
      ],
      "name": "Paused",
      "type": "event"
    },
    {
      "anonymous": false,
      "inputs": [
        {
          "indexed": false,
          "internalType": "uint256",
          "name": "i_",
          "type": "uint256"
        },
        {
          "components": [
            {
              "internalType": "address",
              "name": "tpTokenAddress",
              "type": "address"
            },
            {
              "internalType": "address",
              "name": "priceProviderAddress",
              "type": "address"
            },
            {
              "internalType": "uint256",
              "name": "tpCtarg",
              "type": "uint256"
            },
            {
              "internalType": "uint256",
              "name": "tpMintFee",
              "type": "uint256"
            },
            {
              "internalType": "uint256",
              "name": "tpRedeemFee",
              "type": "uint256"
            },
            {
              "internalType": "uint256",
              "name": "tpEma",
              "type": "uint256"
            },
            {
              "internalType": "uint256",
              "name": "tpEmaSf",
              "type": "uint256"
            }
          ],
          "indexed": false,
          "internalType": "struct PeggedTokenParams",
          "name": "peggedTokenParams_",
          "type": "tuple"
        }
      ],
      "name": "PeggedTokenChange",
      "type": "event"
    },
    {
      "anonymous": false,
      "inputs": [
        {
          "indexed": true,
          "internalType": "uint256",
          "name": "i_",
          "type": "uint256"
        },
        {
          "indexed": false,
          "internalType": "uint256",
          "name": "oldTPema_",
          "type": "uint256"
        },
        {
          "indexed": false,
          "internalType": "uint256",
          "name": "newTPema_",
          "type": "uint256"
        }
      ],
      "name": "TPemaUpdated",
      "type": "event"
    },
    {
      "anonymous": false,
      "inputs": [
        {
          "indexed": false,
          "internalType": "address",
          "name": "account",
          "type": "address"
        }
      ],
      "name": "Unpaused",
      "type": "event"
    },
    {
      "anonymous": false,
      "inputs": [
        {
          "indexed": true,
          "internalType": "address",
          "name": "implementation",
          "type": "address"
        }
      ],
      "name": "Upgraded",
      "type": "event"
    },
    {
      "inputs": [],
      "name": "absoluteAccumulator",
      "outputs": [
        {
          "internalType": "uint256",
          "name": "",
          "type": "uint256"
        }
      ],
      "stateMutability": "view",
      "type": "function"
    },
    {
      "inputs": [
        {
          "components": [
            {
              "internalType": "address",
              "name": "tpTokenAddress",
              "type": "address"
            },
            {
              "internalType": "address",
              "name": "priceProviderAddress",
              "type": "address"
            },
            {
              "internalType": "uint256",
              "name": "tpCtarg",
              "type": "uint256"
            },
            {
              "internalType": "uint256",
              "name": "tpMintFee",
              "type": "uint256"
            },
            {
              "internalType": "uint256",
              "name": "tpRedeemFee",
              "type": "uint256"
            },
            {
              "internalType": "uint256",
              "name": "tpEma",
              "type": "uint256"
            },
            {
              "internalType": "uint256",
              "name": "tpEmaSf",
              "type": "uint256"
            }
          ],
          "internalType": "struct PeggedTokenParams",
          "name": "peggedTokenParams_",
          "type": "tuple"
        }
      ],
      "name": "addPeggedToken",
      "outputs": [],
      "stateMutability": "nonpayable",
      "type": "function"
    },
    {
      "inputs": [],
      "name": "appreciationFactor",
      "outputs": [
        {
          "internalType": "uint256",
          "name": "",
          "type": "uint256"
        }
      ],
      "stateMutability": "view",
      "type": "function"
    },
    {
      "inputs": [],
      "name": "bes",
      "outputs": [
        {
          "internalType": "uint256",
          "name": "",
          "type": "uint256"
        }
      ],
      "stateMutability": "view",
      "type": "function"
    },
    {
      "inputs": [],
      "name": "bns",
      "outputs": [
        {
          "internalType": "uint256",
          "name": "",
          "type": "uint256"
        }
      ],
      "stateMutability": "view",
      "type": "function"
    },
    {
      "inputs": [],
      "name": "calcCtargemaCA",
      "outputs": [
        {
          "internalType": "uint256",
          "name": "ctargemaCA",
          "type": "uint256"
        }
      ],
      "stateMutability": "view",
      "type": "function"
    },
    {
      "inputs": [
        {
          "internalType": "contract IGovernor",
          "name": "newGovernor_",
          "type": "address"
        }
      ],
      "name": "changeGovernor",
      "outputs": [],
      "stateMutability": "nonpayable",
      "type": "function"
    },
    {
      "inputs": [],
      "name": "decayBlockSpan",
      "outputs": [
        {
          "internalType": "uint256",
          "name": "",
          "type": "uint256"
        }
      ],
      "stateMutability": "view",
      "type": "function"
    },
    {
      "inputs": [],
      "name": "differentialAccumulator",
      "outputs": [
        {
          "internalType": "int256",
          "name": "",
          "type": "int256"
        }
      ],
      "stateMutability": "view",
      "type": "function"
    },
    {
      "inputs": [
        {
          "components": [
            {
              "internalType": "address",
              "name": "tpTokenAddress",
              "type": "address"
            },
            {
              "internalType": "address",
              "name": "priceProviderAddress",
              "type": "address"
            },
            {
              "internalType": "uint256",
              "name": "tpCtarg",
              "type": "uint256"
            },
            {
              "internalType": "uint256",
              "name": "tpMintFee",
              "type": "uint256"
            },
            {
              "internalType": "uint256",
              "name": "tpRedeemFee",
              "type": "uint256"
            },
            {
              "internalType": "uint256",
              "name": "tpEma",
              "type": "uint256"
            },
            {
              "internalType": "uint256",
              "name": "tpEmaSf",
              "type": "uint256"
            }
          ],
          "internalType": "struct PeggedTokenParams",
          "name": "peggedTokenParams_",
          "type": "tuple"
        }
      ],
      "name": "editPeggedToken",
      "outputs": [],
      "stateMutability": "nonpayable",
      "type": "function"
    },
    {
      "inputs": [],
      "name": "emaCalculationBlockSpan",
      "outputs": [
        {
          "internalType": "uint256",
          "name": "",
          "type": "uint256"
        }
      ],
      "stateMutability": "view",
      "type": "function"
    },
    {
      "inputs": [],
      "name": "evalLiquidation",
      "outputs": [],
      "stateMutability": "nonpayable",
      "type": "function"
    },
    {
      "inputs": [],
      "name": "feeRetainer",
      "outputs": [
        {
          "internalType": "uint256",
          "name": "",
          "type": "uint256"
        }
      ],
      "stateMutability": "view",
      "type": "function"
    },
    {
      "inputs": [],
      "name": "feeToken",
      "outputs": [
        {
          "internalType": "contract IERC20",
          "name": "",
          "type": "address"
        }
      ],
      "stateMutability": "view",
      "type": "function"
    },
    {
      "inputs": [],
      "name": "feeTokenPct",
      "outputs": [
        {
          "internalType": "uint256",
          "name": "",
          "type": "uint256"
        }
      ],
      "stateMutability": "view",
      "type": "function"
    },
    {
      "inputs": [],
      "name": "feeTokenPriceProvider",
      "outputs": [
        {
          "internalType": "contract IPriceProvider",
          "name": "",
          "type": "address"
        }
      ],
      "stateMutability": "view",
      "type": "function"
    },
    {
      "inputs": [
        {
          "internalType": "address",
          "name": "tp_",
          "type": "address"
        }
      ],
      "name": "getPACtp",
      "outputs": [
        {
          "internalType": "uint256",
          "name": "",
          "type": "uint256"
        }
      ],
      "stateMutability": "view",
      "type": "function"
    },
    {
      "inputs": [],
      "name": "governor",
      "outputs": [
        {
          "internalType": "contract IGovernor",
          "name": "",
          "type": "address"
        }
      ],
      "stateMutability": "view",
      "type": "function"
    },
    {
      "inputs": [],
      "name": "isLiquidationReached",
      "outputs": [
        {
          "internalType": "bool",
          "name": "",
          "type": "bool"
        }
      ],
      "stateMutability": "view",
      "type": "function"
    },
    {
      "inputs": [],
      "name": "lastOperationBlockNumber",
      "outputs": [
        {
          "internalType": "uint256",
          "name": "",
          "type": "uint256"
        }
      ],
      "stateMutability": "view",
      "type": "function"
    },
    {
      "inputs": [],
      "name": "liqEnabled",
      "outputs": [
        {
          "internalType": "bool",
          "name": "",
          "type": "bool"
        }
      ],
      "stateMutability": "view",
      "type": "function"
    },
    {
      "inputs": [
        {
          "internalType": "address",
          "name": "tp_",
          "type": "address"
        },
        {
          "internalType": "address",
          "name": "sender_",
          "type": "address"
        },
        {
          "internalType": "address",
          "name": "recipient_",
          "type": "address"
        },
        {
          "internalType": "uint256",
          "name": "mocACBalance",
          "type": "uint256"
        }
      ],
      "name": "liqRedeemTPTo",
      "outputs": [
        {
          "internalType": "uint256",
          "name": "qACRedeemed",
          "type": "uint256"
        }
      ],
      "stateMutability": "nonpayable",
      "type": "function"
    },
    {
      "inputs": [],
      "name": "liqThrld",
      "outputs": [
        {
          "internalType": "uint256",
          "name": "",
          "type": "uint256"
        }
      ],
      "stateMutability": "view",
      "type": "function"
    },
    {
      "inputs": [],
      "name": "liquidated",
      "outputs": [
        {
          "internalType": "bool",
          "name": "",
          "type": "bool"
        }
      ],
      "stateMutability": "view",
      "type": "function"
    },
    {
      "inputs": [],
      "name": "makeStoppable",
      "outputs": [],
      "stateMutability": "nonpayable",
      "type": "function"
    },
    {
      "inputs": [],
      "name": "makeUnstoppable",
      "outputs": [],
      "stateMutability": "nonpayable",
      "type": "function"
    },
    {
      "inputs": [],
      "name": "maxAbsoluteOpProvider",
      "outputs": [
        {
          "internalType": "contract IDataProvider",
          "name": "",
          "type": "address"
        }
      ],
      "stateMutability": "view",
      "type": "function"
    },
    {
      "inputs": [],
      "name": "maxOpDiffProvider",
      "outputs": [
        {
          "internalType": "contract IDataProvider",
          "name": "",
          "type": "address"
        }
      ],
      "stateMutability": "view",
      "type": "function"
    },
    {
      "inputs": [],
      "name": "maxQACToMintTP",
      "outputs": [
        {
          "internalType": "uint256",
          "name": "maxQAC",
          "type": "uint256"
        }
      ],
      "stateMutability": "view",
      "type": "function"
    },
    {
      "inputs": [],
      "name": "maxQACToRedeemTP",
      "outputs": [
        {
          "internalType": "uint256",
          "name": "maxQAC",
          "type": "uint256"
        }
      ],
      "stateMutability": "view",
      "type": "function"
    },
    {
      "inputs": [],
      "name": "mintTCandTPFee",
      "outputs": [
        {
          "internalType": "uint256",
          "name": "",
          "type": "uint256"
        }
      ],
      "stateMutability": "view",
      "type": "function"
    },
    {
      "inputs": [
        {
          "components": [
            {
              "internalType": "address",
              "name": "tp",
              "type": "address"
            },
            {
              "internalType": "uint256",
              "name": "qTP",
              "type": "uint256"
            },
            {
              "internalType": "uint256",
              "name": "qACmax",
              "type": "uint256"
            },
            {
              "internalType": "address",
              "name": "sender",
              "type": "address"
            },
            {
              "internalType": "address",
              "name": "recipient",
              "type": "address"
            },
            {
              "internalType": "address",
              "name": "vendor",
              "type": "address"
            }
          ],
          "internalType": "struct MocCommons.MintTCandTPParams",
          "name": "params_",
          "type": "tuple"
        }
      ],
      "name": "mintTCandTPto",
      "outputs": [
        {
          "internalType": "uint256",
          "name": "qACtotalNeeded",
          "type": "uint256"
        },
        {
          "internalType": "uint256",
          "name": "qTCtoMint",
          "type": "uint256"
        },
        {
          "internalType": "uint256",
          "name": "qFeeTokenTotalNeeded",
          "type": "uint256"
        },
        {
          "components": [
            {
              "internalType": "uint256",
              "name": "qACFee",
              "type": "uint256"
            },
            {
              "internalType": "uint256",
              "name": "qFeeToken",
              "type": "uint256"
            },
            {
              "internalType": "uint256",
              "name": "qACVendorMarkup",
              "type": "uint256"
            },
            {
              "internalType": "uint256",
              "name": "qFeeTokenVendorMarkup",
              "type": "uint256"
            }
          ],
          "internalType": "struct MocCommons.FeeCalcs",
          "name": "feeCalcs",
          "type": "tuple"
        }
      ],
      "stateMutability": "payable",
      "type": "function"
    },
    {
      "inputs": [],
      "name": "mocAppreciationBeneficiaryAddress",
      "outputs": [
        {
          "internalType": "address",
          "name": "",
          "type": "address"
        }
      ],
      "stateMutability": "view",
      "type": "function"
    },
    {
      "inputs": [],
      "name": "mocFeeFlowAddress",
      "outputs": [
        {
          "internalType": "address",
          "name": "",
          "type": "address"
        }
      ],
      "stateMutability": "view",
      "type": "function"
    },
    {
      "inputs": [],
      "name": "mocVendors",
      "outputs": [
        {
          "internalType": "contract MocVendors",
          "name": "",
          "type": "address"
        }
      ],
      "stateMutability": "view",
      "type": "function"
    },
    {
      "inputs": [],
      "name": "nACcb",
      "outputs": [
        {
          "internalType": "uint256",
          "name": "",
          "type": "uint256"
        }
      ],
      "stateMutability": "view",
      "type": "function"
    },
    {
      "inputs": [],
      "name": "nTCcb",
      "outputs": [
        {
          "internalType": "uint256",
          "name": "",
          "type": "uint256"
        }
      ],
      "stateMutability": "view",
      "type": "function"
    },
    {
      "inputs": [],
      "name": "nextEmaCalculation",
      "outputs": [
        {
          "internalType": "uint256",
          "name": "",
          "type": "uint256"
        }
      ],
      "stateMutability": "view",
      "type": "function"
    },
    {
      "inputs": [],
      "name": "nextTCInterestPayment",
      "outputs": [
        {
          "internalType": "uint256",
          "name": "",
          "type": "uint256"
        }
      ],
      "stateMutability": "view",
      "type": "function"
    },
    {
      "inputs": [],
      "name": "pause",
      "outputs": [],
      "stateMutability": "nonpayable",
      "type": "function"
    },
    {
      "inputs": [],
      "name": "paused",
      "outputs": [
        {
          "internalType": "bool",
          "name": "",
          "type": "bool"
        }
      ],
      "stateMutability": "view",
      "type": "function"
    },
    {
      "inputs": [],
      "name": "pauser",
      "outputs": [
        {
          "internalType": "address",
          "name": "",
          "type": "address"
        }
      ],
      "stateMutability": "view",
      "type": "function"
    },
    {
      "inputs": [
        {
          "internalType": "uint256",
          "name": "",
          "type": "uint256"
        }
      ],
      "name": "pegContainer",
      "outputs": [
        {
          "internalType": "uint256",
          "name": "nTP",
          "type": "uint256"
        },
        {
          "internalType": "contract IPriceProvider",
          "name": "priceProvider",
          "type": "address"
        }
      ],
      "stateMutability": "view",
      "type": "function"
    },
    {
      "inputs": [
        {
          "internalType": "address",
          "name": "",
          "type": "address"
        }
      ],
      "name": "peggedTokenIndex",
      "outputs": [
        {
          "internalType": "uint256",
          "name": "index",
          "type": "uint256"
        },
        {
          "internalType": "bool",
          "name": "exists",
          "type": "bool"
        }
      ],
      "stateMutability": "view",
      "type": "function"
    },
    {
      "inputs": [],
      "name": "protThrld",
      "outputs": [
        {
          "internalType": "uint256",
          "name": "",
          "type": "uint256"
        }
      ],
      "stateMutability": "view",
      "type": "function"
    },
    {
      "inputs": [],
      "name": "proxiableUUID",
      "outputs": [
        {
          "internalType": "bytes32",
          "name": "",
          "type": "bytes32"
        }
      ],
      "stateMutability": "view",
      "type": "function"
    },
    {
      "inputs": [],
      "name": "redeemTCandTPFee",
      "outputs": [
        {
          "internalType": "uint256",
          "name": "",
          "type": "uint256"
        }
      ],
      "stateMutability": "view",
      "type": "function"
    },
    {
      "inputs": [
        {
          "components": [
            {
              "internalType": "address",
              "name": "tp",
              "type": "address"
            },
            {
              "internalType": "uint256",
              "name": "qTC",
              "type": "uint256"
            },
            {
              "internalType": "uint256",
              "name": "qTP",
              "type": "uint256"
            },
            {
              "internalType": "uint256",
              "name": "qACmin",
              "type": "uint256"
            },
            {
              "internalType": "address",
              "name": "sender",
              "type": "address"
            },
            {
              "internalType": "address",
              "name": "recipient",
              "type": "address"
            },
            {
              "internalType": "address",
              "name": "vendor",
              "type": "address"
            }
          ],
          "internalType": "struct MocCommons.RedeemTCandTPParams",
          "name": "params_",
          "type": "tuple"
        },
        {
          "internalType": "address",
          "name": "operator",
          "type": "address"
        }
      ],
      "name": "redeemTCandTPto",
      "outputs": [
        {
          "internalType": "uint256",
          "name": "qACtoRedeem",
          "type": "uint256"
        },
        {
          "internalType": "uint256",
          "name": "qTPtoRedeem",
          "type": "uint256"
        },
        {
          "internalType": "uint256",
          "name": "qFeeTokenTotalNeeded",
          "type": "uint256"
        },
        {
          "components": [
            {
              "internalType": "uint256",
              "name": "qACFee",
              "type": "uint256"
            },
            {
              "internalType": "uint256",
              "name": "qFeeToken",
              "type": "uint256"
            },
            {
              "internalType": "uint256",
              "name": "qACVendorMarkup",
              "type": "uint256"
            },
            {
              "internalType": "uint256",
              "name": "qFeeTokenVendorMarkup",
              "type": "uint256"
            }
          ],
          "internalType": "struct MocCommons.FeeCalcs",
          "name": "feeCalcs",
          "type": "tuple"
        }
      ],
      "stateMutability": "payable",
      "type": "function"
    },
    {
      "inputs": [
        {
          "internalType": "uint256",
          "name": "appreciationFactor_",
          "type": "uint256"
        }
      ],
      "name": "setAppreciationFactor",
      "outputs": [],
      "stateMutability": "nonpayable",
      "type": "function"
    },
    {
      "inputs": [
        {
          "internalType": "uint256",
          "name": "bes_",
          "type": "uint256"
        }
      ],
      "name": "setBes",
      "outputs": [],
      "stateMutability": "nonpayable",
      "type": "function"
    },
    {
      "inputs": [
        {
          "internalType": "uint256",
          "name": "decayBlockSpan_",
          "type": "uint256"
        }
      ],
      "name": "setDecayBlockSpan",
      "outputs": [],
      "stateMutability": "nonpayable",
      "type": "function"
    },
    {
      "inputs": [
        {
          "internalType": "uint256",
          "name": "blockSpan_",
          "type": "uint256"
        }
      ],
      "name": "setEmaCalculationBlockSpan",
      "outputs": [],
      "stateMutability": "nonpayable",
      "type": "function"
    },
    {
      "inputs": [
        {
          "internalType": "uint256",
          "name": "feeRetainer_",
          "type": "uint256"
        }
      ],
      "name": "setFeeRetainer",
      "outputs": [],
      "stateMutability": "nonpayable",
      "type": "function"
    },
    {
      "inputs": [
        {
          "internalType": "address",
          "name": "mocFeeTokenAddress_",
          "type": "address"
        }
      ],
      "name": "setFeeTokenAddress",
      "outputs": [],
      "stateMutability": "nonpayable",
      "type": "function"
    },
    {
      "inputs": [
        {
          "internalType": "uint256",
          "name": "feeTokenPct_",
          "type": "uint256"
        }
      ],
      "name": "setFeeTokenPct",
      "outputs": [],
      "stateMutability": "nonpayable",
      "type": "function"
    },
    {
      "inputs": [
        {
          "internalType": "address",
          "name": "mocFeeTokenPriceProviderAddress_",
          "type": "address"
        }
      ],
      "name": "setFeeTokenPriceProviderAddress",
      "outputs": [],
      "stateMutability": "nonpayable",
      "type": "function"
    },
    {
      "inputs": [
        {
          "internalType": "bool",
          "name": "liqEnabled_",
          "type": "bool"
        }
      ],
      "name": "setLiqEnabled",
      "outputs": [],
      "stateMutability": "nonpayable",
      "type": "function"
    },
    {
      "inputs": [
        {
          "internalType": "uint256",
          "name": "liqThrld_",
          "type": "uint256"
        }
      ],
      "name": "setLiqThrld",
      "outputs": [],
      "stateMutability": "nonpayable",
      "type": "function"
    },
    {
      "inputs": [
        {
          "internalType": "address",
          "name": "maxAbsoluteOpProviderAddress_",
          "type": "address"
        }
      ],
      "name": "setMaxAbsoluteOpProviderAddress",
      "outputs": [],
      "stateMutability": "nonpayable",
      "type": "function"
    },
    {
      "inputs": [
        {
          "internalType": "address",
          "name": "maxOpDiffProviderAddress_",
          "type": "address"
        }
      ],
      "name": "setMaxOpDiffProviderAddress",
      "outputs": [],
      "stateMutability": "nonpayable",
      "type": "function"
    },
    {
      "inputs": [
        {
          "internalType": "uint256",
          "name": "mintTCandTPFee_",
          "type": "uint256"
        }
      ],
      "name": "setMintTCandTPFee",
      "outputs": [],
      "stateMutability": "nonpayable",
      "type": "function"
    },
    {
      "inputs": [
        {
          "internalType": "address",
          "name": "mocAppreciationBeneficiaryAddress_",
          "type": "address"
        }
      ],
      "name": "setMocAppreciationBeneficiaryAddress",
      "outputs": [],
      "stateMutability": "nonpayable",
      "type": "function"
    },
    {
      "inputs": [
        {
          "internalType": "address",
          "name": "mocFeeFlowAddress_",
          "type": "address"
        }
      ],
      "name": "setMocFeeFlowAddress",
      "outputs": [],
      "stateMutability": "nonpayable",
      "type": "function"
    },
    {
      "inputs": [
        {
          "internalType": "address",
          "name": "newPauser_",
          "type": "address"
        }
      ],
      "name": "setPauser",
      "outputs": [],
      "stateMutability": "nonpayable",
      "type": "function"
    },
    {
      "inputs": [
        {
          "internalType": "uint256",
          "name": "protThrld_",
          "type": "uint256"
        }
      ],
      "name": "setProtThrld",
      "outputs": [],
      "stateMutability": "nonpayable",
      "type": "function"
    },
    {
      "inputs": [
        {
          "internalType": "uint256",
          "name": "redeemTCandTPFee_",
          "type": "uint256"
        }
      ],
      "name": "setRedeemTCandTPFee",
      "outputs": [],
      "stateMutability": "nonpayable",
      "type": "function"
    },
    {
      "inputs": [
        {
          "internalType": "uint256",
          "name": "successFee_",
          "type": "uint256"
        }
      ],
      "name": "setSuccessFee",
      "outputs": [],
      "stateMutability": "nonpayable",
      "type": "function"
    },
    {
      "inputs": [
        {
          "internalType": "uint256",
          "name": "swapTCforTPFee_",
          "type": "uint256"
        }
      ],
      "name": "setSwapTCforTPFee",
      "outputs": [],
      "stateMutability": "nonpayable",
      "type": "function"
    },
    {
      "inputs": [
        {
          "internalType": "uint256",
          "name": "swapTPforTCFee_",
          "type": "uint256"
        }
      ],
      "name": "setSwapTPforTCFee",
      "outputs": [],
      "stateMutability": "nonpayable",
      "type": "function"
    },
    {
      "inputs": [
        {
          "internalType": "uint256",
          "name": "swapTPforTPFee_",
          "type": "uint256"
        }
      ],
      "name": "setSwapTPforTPFee",
      "outputs": [],
      "stateMutability": "nonpayable",
      "type": "function"
    },
    {
      "inputs": [
        {
          "internalType": "address",
          "name": "tcInterestCollectorAddress_",
          "type": "address"
        }
      ],
      "name": "setTCInterestCollectorAddress",
      "outputs": [],
      "stateMutability": "nonpayable",
      "type": "function"
    },
    {
      "inputs": [
        {
          "internalType": "uint256",
          "name": "tcInterestPaymentBlockSpan_",
          "type": "uint256"
        }
      ],
      "name": "setTCInterestPaymentBlockSpan",
      "outputs": [],
      "stateMutability": "nonpayable",
      "type": "function"
    },
    {
      "inputs": [
        {
          "internalType": "uint256",
          "name": "tcInterestRate_",
          "type": "uint256"
        }
      ],
      "name": "setTCInterestRate",
      "outputs": [],
      "stateMutability": "nonpayable",
      "type": "function"
    },
    {
      "inputs": [
        {
          "internalType": "uint256",
          "name": "tcMintFee_",
          "type": "uint256"
        }
      ],
      "name": "setTcMintFee",
      "outputs": [],
      "stateMutability": "nonpayable",
      "type": "function"
    },
    {
      "inputs": [
        {
          "internalType": "uint256",
          "name": "tcRedeemFee_",
          "type": "uint256"
        }
      ],
      "name": "setTcRedeemFee",
      "outputs": [],
      "stateMutability": "nonpayable",
      "type": "function"
    },
    {
      "inputs": [],
      "name": "shouldCalculateEma",
      "outputs": [
        {
          "internalType": "bool",
          "name": "",
          "type": "bool"
        }
      ],
      "stateMutability": "view",
      "type": "function"
    },
    {
      "inputs": [],
      "name": "stoppable",
      "outputs": [
        {
          "internalType": "bool",
          "name": "",
          "type": "bool"
        }
      ],
      "stateMutability": "view",
      "type": "function"
    },
    {
      "inputs": [],
      "name": "successFee",
      "outputs": [
        {
          "internalType": "uint256",
          "name": "",
          "type": "uint256"
        }
      ],
      "stateMutability": "view",
      "type": "function"
    },
    {
      "inputs": [],
      "name": "swapTCforTPFee",
      "outputs": [
        {
          "internalType": "uint256",
          "name": "",
          "type": "uint256"
        }
      ],
      "stateMutability": "view",
      "type": "function"
    },
    {
      "inputs": [
        {
          "components": [
            {
              "internalType": "address",
              "name": "tp",
              "type": "address"
            },
            {
              "internalType": "uint256",
              "name": "qTC",
              "type": "uint256"
            },
            {
              "internalType": "uint256",
              "name": "qTPmin",
              "type": "uint256"
            },
            {
              "internalType": "uint256",
              "name": "qACmax",
              "type": "uint256"
            },
            {
              "internalType": "address",
              "name": "sender",
              "type": "address"
            },
            {
              "internalType": "address",
              "name": "recipient",
              "type": "address"
            },
            {
              "internalType": "address",
              "name": "vendor",
              "type": "address"
            }
          ],
          "internalType": "struct MocCommons.SwapTCforTPParams",
          "name": "params_",
          "type": "tuple"
        },
        {
          "internalType": "address",
          "name": "operator",
          "type": "address"
        }
      ],
      "name": "swapTCforTPto",
      "outputs": [
        {
          "internalType": "uint256",
          "name": "qACSurcharges",
          "type": "uint256"
        },
        {
          "internalType": "uint256",
          "name": "qTPtoMint",
          "type": "uint256"
        },
        {
          "internalType": "uint256",
          "name": "qFeeTokenTotalNeeded",
          "type": "uint256"
        },
        {
          "components": [
            {
              "internalType": "uint256",
              "name": "qACFee",
              "type": "uint256"
            },
            {
              "internalType": "uint256",
              "name": "qFeeToken",
              "type": "uint256"
            },
            {
              "internalType": "uint256",
              "name": "qACVendorMarkup",
              "type": "uint256"
            },
            {
              "internalType": "uint256",
              "name": "qFeeTokenVendorMarkup",
              "type": "uint256"
            }
          ],
          "internalType": "struct MocCommons.FeeCalcs",
          "name": "feeCalcs",
          "type": "tuple"
        }
      ],
      "stateMutability": "payable",
      "type": "function"
    },
    {
      "inputs": [],
      "name": "swapTPforTCFee",
      "outputs": [
        {
          "internalType": "uint256",
          "name": "",
          "type": "uint256"
        }
      ],
      "stateMutability": "view",
      "type": "function"
    },
    {
      "inputs": [
        {
          "components": [
            {
              "internalType": "address",
              "name": "tp",
              "type": "address"
            },
            {
              "internalType": "uint256",
              "name": "qTP",
              "type": "uint256"
            },
            {
              "internalType": "uint256",
              "name": "qTCmin",
              "type": "uint256"
            },
            {
              "internalType": "uint256",
              "name": "qACmax",
              "type": "uint256"
            },
            {
              "internalType": "address",
              "name": "sender",
              "type": "address"
            },
            {
              "internalType": "address",
              "name": "recipient",
              "type": "address"
            },
            {
              "internalType": "address",
              "name": "vendor",
              "type": "address"
            }
          ],
          "internalType": "struct MocCommons.SwapTPforTCParams",
          "name": "params_",
          "type": "tuple"
        },
        {
          "internalType": "address",
          "name": "operator",
          "type": "address"
        }
      ],
      "name": "swapTPforTCto",
      "outputs": [
        {
          "internalType": "uint256",
          "name": "qACSurcharges",
          "type": "uint256"
        },
        {
          "internalType": "uint256",
          "name": "qTCtoMint",
          "type": "uint256"
        },
        {
          "internalType": "uint256",
          "name": "qFeeTokenTotalNeeded",
          "type": "uint256"
        },
        {
          "components": [
            {
              "internalType": "uint256",
              "name": "qACFee",
              "type": "uint256"
            },
            {
              "internalType": "uint256",
              "name": "qFeeToken",
              "type": "uint256"
            },
            {
              "internalType": "uint256",
              "name": "qACVendorMarkup",
              "type": "uint256"
            },
            {
              "internalType": "uint256",
              "name": "qFeeTokenVendorMarkup",
              "type": "uint256"
            }
          ],
          "internalType": "struct MocCommons.FeeCalcs",
          "name": "feeCalcs",
          "type": "tuple"
        }
      ],
      "stateMutability": "payable",
      "type": "function"
    },
    {
      "inputs": [],
      "name": "swapTPforTPFee",
      "outputs": [
        {
          "internalType": "uint256",
          "name": "",
          "type": "uint256"
        }
      ],
      "stateMutability": "view",
      "type": "function"
    },
    {
      "inputs": [
        {
          "components": [
            {
              "internalType": "address",
              "name": "tpFrom",
              "type": "address"
            },
            {
              "internalType": "address",
              "name": "tpTo",
              "type": "address"
            },
            {
              "internalType": "uint256",
              "name": "qTP",
              "type": "uint256"
            },
            {
              "internalType": "uint256",
              "name": "qTPmin",
              "type": "uint256"
            },
            {
              "internalType": "uint256",
              "name": "qACmax",
              "type": "uint256"
            },
            {
              "internalType": "address",
              "name": "sender",
              "type": "address"
            },
            {
              "internalType": "address",
              "name": "recipient",
              "type": "address"
            },
            {
              "internalType": "address",
              "name": "vendor",
              "type": "address"
            }
          ],
          "internalType": "struct MocCommons.SwapTPforTPParams",
          "name": "params_",
          "type": "tuple"
        },
        {
          "internalType": "address",
          "name": "operator",
          "type": "address"
        }
      ],
      "name": "swapTPforTPto",
      "outputs": [
        {
          "internalType": "uint256",
          "name": "qACSurcharges",
          "type": "uint256"
        },
        {
          "internalType": "uint256",
          "name": "qTPtoMint",
          "type": "uint256"
        },
        {
          "internalType": "uint256",
          "name": "qFeeTokenTotalNeeded",
          "type": "uint256"
        },
        {
          "components": [
            {
              "internalType": "uint256",
              "name": "qACFee",
              "type": "uint256"
            },
            {
              "internalType": "uint256",
              "name": "qFeeToken",
              "type": "uint256"
            },
            {
              "internalType": "uint256",
              "name": "qACVendorMarkup",
              "type": "uint256"
            },
            {
              "internalType": "uint256",
              "name": "qFeeTokenVendorMarkup",
              "type": "uint256"
            }
          ],
          "internalType": "struct MocCommons.FeeCalcs",
          "name": "feeCalcs",
          "type": "tuple"
        }
      ],
      "stateMutability": "payable",
      "type": "function"
    },
    {
      "inputs": [],
      "name": "tcInterestCollectorAddress",
      "outputs": [
        {
          "internalType": "address",
          "name": "",
          "type": "address"
        }
      ],
      "stateMutability": "view",
      "type": "function"
    },
    {
      "inputs": [],
      "name": "tcInterestPaymentBlockSpan",
      "outputs": [
        {
          "internalType": "uint256",
          "name": "",
          "type": "uint256"
        }
      ],
      "stateMutability": "view",
      "type": "function"
    },
    {
      "inputs": [],
      "name": "tcInterestRate",
      "outputs": [
        {
          "internalType": "uint256",
          "name": "",
          "type": "uint256"
        }
      ],
      "stateMutability": "view",
      "type": "function"
    },
    {
      "inputs": [],
      "name": "tcMintFee",
      "outputs": [
        {
          "internalType": "uint256",
          "name": "",
          "type": "uint256"
        }
      ],
      "stateMutability": "view",
      "type": "function"
    },
    {
      "inputs": [],
      "name": "tcRedeemFee",
      "outputs": [
        {
          "internalType": "uint256",
          "name": "",
          "type": "uint256"
        }
      ],
      "stateMutability": "view",
      "type": "function"
    },
    {
      "inputs": [],
      "name": "tcToken",
      "outputs": [
        {
          "internalType": "contract MocTC",
          "name": "",
          "type": "address"
        }
      ],
      "stateMutability": "view",
      "type": "function"
    },
    {
      "inputs": [
        {
          "internalType": "uint256",
          "name": "",
          "type": "uint256"
        }
      ],
      "name": "tpCtarg",
      "outputs": [
        {
          "internalType": "uint256",
          "name": "",
          "type": "uint256"
        }
      ],
      "stateMutability": "view",
      "type": "function"
    },
    {
      "inputs": [
        {
          "internalType": "uint256",
          "name": "",
          "type": "uint256"
        }
      ],
      "name": "tpEma",
      "outputs": [
        {
          "internalType": "uint256",
          "name": "ema",
          "type": "uint256"
        },
        {
          "internalType": "uint256",
          "name": "sf",
          "type": "uint256"
        }
      ],
      "stateMutability": "view",
      "type": "function"
    },
    {
      "inputs": [
        {
          "internalType": "uint256",
          "name": "",
          "type": "uint256"
        }
      ],
      "name": "tpLiqPrices",
      "outputs": [
        {
          "internalType": "uint256",
          "name": "",
          "type": "uint256"
        }
      ],
      "stateMutability": "view",
      "type": "function"
    },
    {
      "inputs": [
        {
          "internalType": "address",
          "name": "",
          "type": "address"
        }
      ],
      "name": "tpMintFees",
      "outputs": [
        {
          "internalType": "uint256",
          "name": "",
          "type": "uint256"
        }
      ],
      "stateMutability": "view",
      "type": "function"
    },
    {
      "inputs": [
        {
          "internalType": "address",
          "name": "",
          "type": "address"
        }
      ],
      "name": "tpRedeemFees",
      "outputs": [
        {
          "internalType": "uint256",
          "name": "",
          "type": "uint256"
        }
      ],
      "stateMutability": "view",
      "type": "function"
    },
    {
      "inputs": [
        {
          "internalType": "uint256",
          "name": "",
          "type": "uint256"
        }
      ],
      "name": "tpTokens",
      "outputs": [
        {
          "internalType": "contract IMocRC20",
          "name": "",
          "type": "address"
        }
      ],
      "stateMutability": "view",
      "type": "function"
    },
    {
      "inputs": [],
      "name": "unpause",
      "outputs": [],
      "stateMutability": "nonpayable",
      "type": "function"
    },
    {
      "inputs": [],
      "name": "updateEmas",
      "outputs": [],
      "stateMutability": "nonpayable",
      "type": "function"
    },
    {
      "inputs": [
        {
          "internalType": "address",
          "name": "newImplementation",
          "type": "address"
        }
      ],
      "name": "upgradeTo",
      "outputs": [],
      "stateMutability": "nonpayable",
      "type": "function"
    },
    {
      "inputs": [
        {
          "internalType": "address",
          "name": "newImplementation",
          "type": "address"
        },
        {
          "internalType": "bytes",
          "name": "data",
          "type": "bytes"
        }
      ],
      "name": "upgradeToAndCall",
      "outputs": [],
      "stateMutability": "payable",
      "type": "function"
    }
  ],
  "bytecode": "0x60a08060405234620000e157306080526000549060ff8260081c166200008f575060ff8082160362000053575b604051613eed9081620000e78239608051818181611a9501528181611c060152611e460152f35b60ff90811916176000557f7f26b83ff96e1f2b6a682f133852f6798a09c465da95921460cefb3847402498602060405160ff8152a1386200002c565b62461bcd60e51b815260206004820152602760248201527f496e697469616c697a61626c653a20636f6e747261637420697320696e697469604482015266616c697a696e6760c81b6064820152608490fd5b600080fdfe6080604052600436101561001257600080fd5b6000803560e01c806301dde6ef1461277257806301f1b6841461272a578063073763b9146127065780630c340a24146126dd5780630c36d897146126be5780630d6ac463146126785780630db49656146126595780630e0a8fd2146126355780630f1e5e2b146125ef5780631867e2f5146125d05780631fe6a7ad146125965780632069f7531461257257806323b98cde1461254b57806324ffaba31461250d57806327eab2a1146124c75780632a20d57d146124a85780632c43bd3b146124845780632d88af4a1461242d5780632ded50f01461240e5780632e816dc6146121ac5780632f155a5614611fbd578063333431fd14611f9e57806333421c3814611ead5780633659cfe614611e145780633915edcb14611de55780633bc4ac0a14611dc15780633f4ba83a14611d46578063407f0e3414611d275780634b74600114611cda5780634d977e7814611cbb5780634e1f907a14611c915780634f0f27ee14611c725780634f1ef28614611b7e5780635210570c14611b5857806352d1902d14611a82578063543aeb4814611a5e5780635860ee6314611a3f5780635c975abb14611a1957806360009e0b146119ef578063647846a5146119c557806364ec230a146119a1578063662013f41461197d57806368274357146119545780636845c445146117565780636b5488df146117375780636f30471f1461171857806370713468146116f4578063735d3960146116ae57806373e28af91461168a5780637554fffd1461166b578063762280551461164c5780637750ba0c1461162857806379f9a91c146116095780637a193c31146115ea5780637a4ff1d9146115c65780637a727fe8146115a75780637af5758c146115835780637cba23831461155f5780637d8e0314146115225780637f01c715146114f85780637f13b998146114c45780637f4a4fe0146114a55780638456cb591461140e57806385bf9593146113c85780638cfa4241146113a95780638e2bdb861461137f5780638e9875ba146111e75780639853c35a146111bd5780639ad6659d146111835780639cabfc00146111365780639fd0506d14611109578063a8e9ac30146110e7578063ab6dd71d14610f74578063aea038dc14610f55578063b5e9ea8c14610f2b578063b9fa641314610f0c578063bb4872de14610ee9578063becaca6b14610ec5578063c00f538d14610ea1578063c84353c914610e7d578063cf351c1d14610e37578063d1a0faa014610e1b578063d6af11da14610dd9578063d87aab6f14610dba578063d8db6f5a14610d74578063db79607214610afb578063ddb6d19014610abd578063e44bb51214610874578063e4c0aaf41461082b578063e6b1627c146107e8578063e7c25978146107c4578063ee1f438f1461079a578063f13f405414610770578063f26114aa14610584578063f280877814610560578063f30b561414610541578063f375cfba14610522578063fa6e83bd14610503578063fadda4241461048a5763fda70f8b1461046957600080fd5b34610487578060031936011261048757602061016e54604051908152f35b80fd5b5034610487576020366003190112610487576001600160a01b0360043581811681036104fe576104c66104be6001926130a0565b610169612888565b500154166104d38161311f565b919091156104e657602082604051908152f35b60249060405190637f6e4db960e01b82526004820152fd5b600080fd5b5034610487578060031936011261048757602061016c54604051908152f35b5034610487578060031936011261048757602061017354604051908152f35b5034610487578060031936011261048757602061016354604051908152f35b50346104875760203660031901126104875761057a613de4565b60043561016e5580f35b50346104875760e0366003190112610487576004356001600160a01b03818116918290036104fe578183526101686020526040832060ff6001604051926105cc6040856127d8565b805484520154161580156020830152610722575190602435908082168092036104fe576101699060016105ff8584612888565b5001541682036106a8575b847f6417e5a3c1e0e5dae98b8fe718c4babdfcb35e0d7b5e1b9641b5914756f5d8e36004858761065b61063f8361017a612796565b6044929192359083549060031b91821b91600019901b19161790565b905580855261017660205260643560408620558452610177602052608435604085205561068a816101be612888565b50600160c4359101556106a26040519283928361335f565b0390a180f35b9190926040516359e02dd760e01b8152604081600481885afa908115610765578691610734575b5015610722577f6417e5a3c1e0e5dae98b8fe718c4babdfcb35e0d7b5e1b9641b5914756f5d8e393600161070584600496612888565b5001906001600160601b0360a01b8254161790559281925061060a565b60405163e6c4247b60e01b8152600490fd5b610756915060403d60401161075e575b61074e81836127d8565b810190613105565b9050386106cf565b503d610744565b6040513d88823e3d90fd5b5034610487578060031936011261048757610162546040516001600160a01b039091168152602090f35b5034610487578060031936011261048757610182546040516001600160a01b039091168152602090f35b5034610487578060031936011261048757602060ff61017d54166040519015158152f35b503461048757602036600319011261048757600435906101be9081548310156104875760406108178484612888565b506001815491015482519182526020820152f35b5034610487576020366003190112610487576004356001600160a01b038116908190036108705761085a613de4565b6001600160601b0360a01b609754161760975580f35b5080fd5b5060c0366003190112610487576040519061089060c0836127d8565b6001600160a01b039060043582811681036104fe578352602083016024358152604084019260443584526064359080821682036104fe576060860191825260843581811681036104fe576080870190815260a4359482861686036104fe5760a088019586526108fd6133c7565b506109128361090a613181565b9951166130a0565b91610935610920848b612d61565b519961092c8b86613572565b61017c5461352f565b9961094c88519b6109468388613bef565b936135c3565b91670de0b6b3a763ffff198101908111610aa9578161096e610973928e612e99565b612eac565b98670de0b6b3a764000092838b02908b820485148c151715610a935761099891612eac565b9b838102938185041490151715610a93576109e397876109c66109bf6109d8958397612eac565b809d612d75565b988992511692511661017454926135f2565b989187989198612d75565b9951808b11610a7557508915610a6357610a12610a1c96610a0786610a5f9c61388a565b83855116908d6134b8565b51915116926133ee565b604051948594859293606091959460c09360e086019786526020860152604085015280518285015260208101516080850152604081015160a08501520151910152565b0390f35b60405163f3e39b5d60e01b8152600490fd5b6044908b60405191630b63f1a760e01b835260048301526024820152fd5b634e487b7160e01b600052601160045260246000fd5b634e487b7160e01b85526011600452602485fd5b5034610487576020366003190112610487576004356001600160a01b038116908190036104fe57816040916020935261017783522054604051908152f35b50346104875760e0366003190112610487576004356001600160a01b03818116918290036104fe57602480358281168091036104fe578385526101689360209085825260019260ff8460408a20015416610d62576101679586549785604051610b656040826127d8565b8a815286810192828452868d52875260408c2090518155019051151560ff801983541691161790558654600160401b9788821015610d4f5790610bac918782018155612796565b81549060031b908386831b921b1916179055604051610bcc6040826127d8565b89815284810192835261016980549089821015610d3c5790610bf2918882018155612888565b919091610d2957908691518155019151166001600160601b0360a01b825416179055610c2260443561017a612fb5565b8087526101768252606435604088205586526101778152608435604087205560405190610c506040836127d8565b60a4358252810160c43581526101be80549086821015610d165790610c79918582018155612888565b929092610d03579083915183555191015561018091825493841015610cf15750827f6417e5a3c1e0e5dae98b8fe718c4babdfcb35e0d7b5e1b9641b5914756f5d8e39492610ccc92600495018155612796565b5050610ce2610cda826130c9565b610181612fb5565b6106a26040519283928361335f565b634e487b7160e01b8652604160045285fd5b634e487b7160e01b885260048890528488fd5b634e487b7160e01b895260416004528589fd5b634e487b7160e01b8b5260048b9052878bfd5b634e487b7160e01b8c526041600452888cfd5b634e487b7160e01b8b526041600452878bfd5b604051633458f6c560e01b8152600490fd5b5034610487576020366003190112610487576004356001600160a01b038116908190036104fe57610da3613de4565b61018280546001600160a01b031916909117905580f35b5034610487578060031936011261048757602061018554604051908152f35b50346104875780600319360112610487576020610e13610df960016131bb565b610e0d610e068284612ecc565b9183612e10565b91613202565b604051908152f35b5034610487578060031936011261048757610e34613d50565b80f35b5034610487576020366003190112610487576004356001600160a01b038116908190036104fe57610e66613de4565b61016180546001600160a01b031916909117905580f35b503461048757602036600319011261048757610e97613de4565b60043561017e5580f35b503461048757602036600319011261048757610ebb613de4565b60043561016f5580f35b503461048757602036600319011261048757610edf613de4565b60043561016b5580f35b5034610487578060031936011261048757602060ff60ca54166040519015158152f35b5034610487578060031936011261048757602061018b54604051908152f35b5034610487578060031936011261048757610183546040516001600160a01b039091168152602090f35b5034610487578060031936011261048757602061016f54604051908152f35b5061010036600319011261048757610f8d366004612810565b60e435916001600160a01b03919082841684036104fe5761102f90610fb06133c7565b50610fb9613181565b93610fc6818551166130a0565b93610fe9610fd48688612d61565b5196610fe08888613572565b61017b5461352f565b6110296020849793970198611024611002828c51613e93565b9861101f6110158d516101665490612e99565b9561016354612f5e565b612f5e565b612e99565b90613e93565b96604082015180891080156110df575b6110c1575061106083608084015116868560c08601511661017154926135f2565b97919890966060850151808b116110a25750610a1c95938760a094610a5f9b9a99979461109160016110989661388a565b5190613944565b01511690876134b8565b6044908a5160405191630b63f1a760e01b835260048301526024820152fd5b604490896040519163f577bef560e01b835260048301526024820152fd5b50881561103f565b503461048757806003193601126104875760206101bf54431015604051908152f35b503461048757806003193601126104875760ca5460405160109190911c6001600160a01b03168152602090f35b5034610487576020366003190112610487576004356001600160a01b038116908190036104fe57604082819281526101686020522060ff6001825492015416825191825215156020820152f35b503461048757806003193601126104875760206111af6111a96111a4613181565b612d82565b90612f40565b61017c541015604051908152f35b5034610487578060031936011261048757610178546040516001600160a01b039091168152602090f35b5061010036600319011261048757611200366004612810565b6001600160a01b039160e4359083821682036104fe5761121e6133c7565b50611227613d50565b61122f613c92565b94909161123e828651166130a0565b9161125e61124c8489612d61565b51976112588986613572565b8561352f565b60208892980197885161127283838a613b7f565b8181106113615750509061129e918951670de0b6b3a764000093849161129885856135c3565b90612e99565b04978815610a63576112da936112d16112c78e6110248f516112988861101f8b61016354612f5e565b6101665490612eac565b049b8c89613a43565b6040810151808910611343575061130382608083015116868460c08501511661017254926135f2565b97919890966060840151808b116110a25750859361133a8c9486610a5f9c9b9a9895611334610a1c9b60a09761388a565b516139d8565b015116926133ee565b604490896040519163272e3f5960e21b835260048301526024820152fd5b604492506040519163a5db715d60e01b835260048301526024820152fd5b5034610487578060031936011261048757610188546040516001600160a01b039091168152602090f35b5034610487578060031936011261048757602061017c54604051908152f35b5034610487576020366003190112610487576004356001600160a01b038116908190036104fe576113f7613de4565b61018380546001600160a01b031916909117905580f35b5034610487578060031936011261048757611427613e72565b60ca54601081901c6001600160a01b031633036114935760ff811615611481576101009061ff0019161760ca557f62e78cea01bee320cd4e420270b5ea74000d11b0c9f74754ebdbfc544b05a2586020604051338152a180f35b60405163866099c360e01b8152600490fd5b604051631d77d47760e21b8152600490fd5b5034610487578060031936011261048757602061018a54604051908152f35b50346104875780600319360112610487576020610e136114e460016131bb565b610e0d6114f18284612e10565b9183612ecc565b50346104875780600319360112610487576101f3546040516001600160a01b039091168152602090f35b5034610487576020366003190112610487576004359061017a9081548310156104875760206115518484612796565b90546040519160031b1c8152f35b503461048757602036600319011261048757611579613de4565b60043561017b5580f35b50346104875760203660031901126104875761159d613de4565b6004356101725580f35b503461048757806003193601126104875760206101c054604051908152f35b5034610487576020366003190112610487576115e0613de4565b6004356101735580f35b5034610487578060031936011261048757602061016654604051908152f35b5034610487578060031936011261048757602061017454604051908152f35b503461048757602036600319011261048757611642613de4565b60043561016d5580f35b5034610487578060031936011261048757602061018654604051908152f35b5034610487578060031936011261048757602061016b54604051908152f35b5034610487576020366003190112610487576116a4613de4565b6004356101845580f35b5034610487576020366003190112610487576004356001600160a01b038116908190036104fe576116dd613de4565b61018880546001600160a01b031916909117905580f35b50346104875760203660031901126104875761170e613de4565b6004356101705580f35b5034610487578060031936011261048757602061018454604051908152f35b5034610487578060031936011261048757602061017b54604051908152f35b5034610487576080366003190112610487576001600160a01b039060043582811691908281036104fe57602435848116948582036104fe57604435928184168094036104fe5760ff61017d5460081c1615611942576117b4906130a0565b6101676117c18282612796565b95905498604051966370a0823160e01b8852816004890152876024818860209e8f9560031b1c165afa968715611937578897611908575b5086156118ea5761181b61180e8561016a612796565b90549060031b1c88613e93565b986064358a81106118e0575b5090611864949392917ffaab3901cd2d6e9b5d0a0c6e34c643b8c844726f3c54de69517e571bf24bbd9260408d8d8251918d8352820152a4612796565b90549060031b1c1690813b156118dc57604051632770a7eb60e21b81526001600160a01b03919091166004820152602481019290925282908290604490829084905af180156118d1576118bc575b5050604051908152f35b6118c78280926127d8565b61048757806118b2565b6040513d84823e3d90fd5b8380fd5b9950611864611827565b60448760405190633fe8c5eb60e01b82528060048301526024820152fd5b9096508981813d8311611930575b61192081836127d8565b810103126104fe575195386117f8565b503d611916565b6040513d8a823e3d90fd5b60405163031b0d3560e11b8152600490fd5b503461048757806003193601126104875761196d613de4565b600160ff1960ca54161760ca5580f35b50346104875780600319360112610487576020611998613c92565b50604051908152f35b5034610487576020366003190112610487576119bb613de4565b6004356101895580f35b5034610487578060031936011261048757610161546040516001600160a01b039091168152602090f35b5034610487578060031936011261048757610165546040516001600160a01b039091168152602090f35b5034610487578060031936011261048757602060ff60ca5460081c166040519015158152f35b5034610487578060031936011261048757602061018754604051908152f35b503461048757602036600319011261048757611a78613de4565b6004356101755580f35b50346104875780600319360112610487577f00000000000000000000000000000000000000000000000000000000000000006001600160a01b03163003611aed5760206040517f360894a13ba1a3210667c828492db98dca3e2076cc3735a920a3ca505d382bbc8152f35b60405162461bcd60e51b815260206004820152603860248201527f555550535570677261646561626c653a206d757374206e6f742062652063616c60448201527f6c6564207468726f7567682064656c656761746563616c6c00000000000000006064820152608490fd5b5034610487578060031936011261048757611b71613de4565b60ff1960ca541660ca5580f35b506040366003190112610487576001600160a01b0360043581811681036104fe5782916024359167ffffffffffffffff8311611c6d5736602384011215611c6d578260040135611bcd816128a4565b92611bdb60405194856127d8565b8184523660248387010111611c6957610e3495602083611c5c946024600199018389013786010152807f00000000000000000000000000000000000000000000000000000000000000001690611c33823014156128c0565b7f360894a13ba1a3210667c828492db98dca3e2076cc3735a920a3ca505d382bbc541614612921565b611c64613de4565b612982565b8580fd5b505050fd5b5034610487578060031936011261048757602061016d54604051908152f35b5034610487578060031936011261048757610179546040516001600160a01b039091168152602090f35b5034610487578060031936011261048757602061017e54604051908152f35b50346104875760203660031901126104875760043590610169908154831015610487576040611d098484612888565b50805460019091015482519182526001600160a01b03166020820152f35b5034610487578060031936011261048757602061017054604051908152f35b503461048757806003193601126104875760ca5460ff8160081c1615611daf57601081901c6001600160a01b031633036114935761ff00191660ca557f5db9ee0a495bf2e6ff9c91a7834c1ba4fdd244a5e8aa4e537bd38aeae4b073aa6020604051338152a180f35b604051637c7fd07960e01b8152600490fd5b503461048757602036600319011261048757611ddb613de4565b6004356101c05580f35b5034610487576020366003190112610487576004359061016a9081548310156104875760206115518484612796565b5034610487576020366003190112610487576004356001600160a01b0380821682036104fe57610e3491611e738285937f00000000000000000000000000000000000000000000000000000000000000001690611c33823014156128c0565b611e7b613de4565b611e84826128a4565b90611e9260405192836127d8565b828252601f19611ea1846128a4565b01366020840137612982565b5034610487578060031936011261048757611ec6613e72565b61017d805460ff811680611f90575b80611f76575b611ee3578280f35b61ff0019166101001790556040517f8b77276c97a5709f0d6db52329848a254eb760ce8be80d281799f633bdb69e838280a16101655482906001600160a01b0316803b156108705782600481848094638456cb5960e01b83525af18015611f6957611f59575b5050611f53612ff2565b38808280f35b611f62916127d8565b3881611f49565b50604051903d90823e3d90fd5b50611f856111a96111a4613181565b61017c541015611edb565b5060ff8160081c1615611ed5565b5034610487578060031936011261048757602061017154604051908152f35b5061010036600319011261048757611fd6366004612810565b6001600160a01b039060e43582811681036118dc57611ff36133c7565b50611ffc613d50565b612004613c92565b919093612013818551166130a0565b9061202d6120218386612d61565b519461092c8685613572565b96670de0b6b3a763ffff19908181019081116121985761204d9087612e99565b6120578786613bef565b9182019182116121985761209c959493929161207291612eac565b906120866020890192611024838551612e99565b670de0b6b3a76400009687916101665490612eac565b04986040890151808b1161217a57506120b7908351926135c3565b96868a028a810488148b15171561216657906120d291612eac565b908115610a63576120f661211b976120ef60609a61211094612e99565b0483612d75565b93848160808c0151169160c08c01511661017354926135f2565b989185989198612f5e565b980151808910612148575092612143858a9b94610a5f9a9b946113346001610a1c9a9961388a565b613944565b60449089604051916354cde31360e01b835260048301526024820152fd5b634e487b7160e01b8c52601160045260248cfd5b6044908b60405191637a031da360e11b835260048301526024820152fd5b634e487b7160e01b8a52601160045260248afd5b50366003190190610120821261048757610100809212610487576121d360405192836127d8565b6004356001600160a01b0381168103610870578252602435906001600160a01b0382168203610487576020830191825260443560408401526064356060840190815260843560808501529260a4356001600160a01b038116810361240a5760a082015260c4356001600160a01b038116810361240a5760c082015260e4356001600160a01b038116810361240a5760e0820152610104356001600160a01b0381169003610870576122826133c7565b50805183516001600160a01b039081169116146123f85780516122c1906122b1906001600160a01b03166130a0565b93516001600160a01b03166130a0565b906122cb846130c9565b6122d4836130c9565b6122de8287613572565b6122e88185613572565b6122f6826040850151613e93565b916123098161096e846040880151612e99565b975180891080156123f0575b61134357509061235d929161233461232d8388613bef565b9189613bef565b106123c1575b5060a083015160e08401516101705492916001600160a01b0391821691166135f2565b949195909360808401518088116123a2575091610a5f95949391612393610a1c94838b60018060a01b0360c088015116926133ee565b60406101043593015190613944565b604490875160405191630b63f1a760e01b835260048301526024820152fd5b6123e06123ea916123d0613d50565b6123d8613c92565b81939161352f565b9290918b89613a43565b3861233a565b508815612315565b604051632a9ffab760e21b8152600490fd5b8280fd5b5034610487578060031936011261048757602061017554604051908152f35b5034610487576020366003190112610487576004356001600160a01b03811681036108705761245a613de4565b60ca805462010000600160b01b03191660109290921b62010000600160b01b031691909117905580f35b50346104875760203660031901126104875761249e613de4565b60043561017c5580f35b5034610487578060031936011261048757602061017254604051908152f35b5034610487576020366003190112610487576004356001600160a01b03811690819003610870576124f6613de4565b61017980546001600160a01b031916909117905580f35b5034610487576020366003190112610487576004356001600160a01b0381169081900361087057816040916020935261017683522054604051908152f35b5034610487578060031936011261048757602060ff61017d5460081c166040519015158152f35b50346104875760203660031901126104875761258c613de4565b6004356101745580f35b503461048757602036600319011261048757600435801515809103610870576125bd613de4565b61017d9060ff8019835416911617905580f35b5034610487578060031936011261048757602061017f54604051908152f35b5034610487576020366003190112610487576004356001600160a01b038116908190036108705761261e613de4565b61016280546001600160a01b031916909117905580f35b50346104875760203660031901126104875761264f613de4565b6004356101715580f35b5034610487578060031936011261048757602061018954604051908152f35b5034610487576020366003190112610487576004356001600160a01b03811690819003610870576126a7613de4565b61017880546001600160a01b031916909117905580f35b503461048757806003193601126104875760206101bf54604051908152f35b50346104875780600319360112610487576097546040516001600160a01b039091168152602090f35b503461048757602036600319011261048757612720613de4565b60043561018a5580f35b503461048757602036600319011261048757600435906101679081548310156104875760206127598484612796565b905460405160039290921b1c6001600160a01b03168152f35b50346104875760203660031901126104875761278c613de4565b60043561016c5580f35b80548210156127ae5760005260206000200190600090565b634e487b7160e01b600052603260045260246000fd5b35906001600160a01b03821682036104fe57565b90601f8019910116810190811067ffffffffffffffff8211176127fa57604052565b634e487b7160e01b600052604160045260246000fd5b91908260e09103126104fe5760405161282a60e0826127d8565b60c061288381839561283b816127c4565b8552602081013560208601526040810135604086015260608101356060860152612867608082016127c4565b608086015261287860a082016127c4565b60a0860152016127c4565b910152565b80548210156127ae5760005260206000209060011b0190600090565b67ffffffffffffffff81116127fa57601f01601f191660200190565b156128c757565b60405162461bcd60e51b815260206004820152602c60248201527f46756e6374696f6e206d7573742062652063616c6c6564207468726f7567682060448201526b19195b1959d85d1958d85b1b60a21b6064820152608490fd5b1561292857565b60405162461bcd60e51b815260206004820152602c60248201527f46756e6374696f6e206d7573742062652063616c6c6564207468726f7567682060448201526b6163746976652070726f787960a01b6064820152608490fd5b909160ff7f4910fdfa16fed3260ed0e7147f7cc6da11a60208b5b9406d12a635614ffd914354166000146129bd57506129bb9150612beb565b565b604080516352d1902d60e01b8152602094919392906001600160a01b038416908681600481855afa60009181612bbc575b50612a4e57855162461bcd60e51b815260048101889052602e60248201527f45524331393637557067726164653a206e657720696d706c656d656e7461746960448201526d6f6e206973206e6f74205555505360901b6064820152608490fd5b9395929492937fc9f76b5ec45e5cdef99837d7b6d2467235c1df8933c8ca56df5c35afa2c7d44401612b6657612a8386612beb565b7fbc7cd75a20ee27fd9adebab32041f755214dbc6bffa90cc0225b39da2e5c2d3b600080a283511590811591612b5e575b50612ac0575b50505050565b612b4a93600080612ad160276128a4565b95612ade855197886127d8565b602787527f416464726573733a206c6f772d6c6576656c2064656c65676174652063616c6c86880152660819985a5b195960ca1b858801528581519101845af4913d15612b54573d612b3b612b32826128a4565b925192836127d8565b8152600081943d92013e612c8d565b5038808080612aba565b5060609250612c8d565b905038612ab4565b825162461bcd60e51b815260048101859052602960248201527f45524331393637557067726164653a20756e737570706f727465642070726f786044820152681a58589b195555525160ba1b6064820152608490fd5b90918882813d8311612be4575b612bd381836127d8565b8101031261048757505190386129ee565b503d612bc9565b803b15612c32577f360894a13ba1a3210667c828492db98dca3e2076cc3735a920a3ca505d382bbc80546001600160a01b0319166001600160a01b03909216919091179055565b60405162461bcd60e51b815260206004820152602d60248201527f455243313936373a206e657720696d706c656d656e746174696f6e206973206e60448201526c1bdd08184818dbdb9d1c9858dd609a1b6064820152608490fd5b91929015612cef5750815115612ca1575090565b3b15612caa5790565b60405162461bcd60e51b815260206004820152601d60248201527f416464726573733a2063616c6c20746f206e6f6e2d636f6e74726163740000006044820152606490fd5b825190915015612d025750805190602001fd5b6040519062461bcd60e51b82528160208060048301528251908160248401526000935b828510612d48575050604492506000838284010152601f80199101168101030190fd5b8481018201518686016044015293810193859350612d25565b80518210156127ae5760209160051b010190565b91908201809211610a9357565b906000916000906101698054906000925b828410612db95750505050612db5670de0b6b3a76400009161016b5490612e99565b0490565b9091929395612e06612df5612e00600193612dfa612dd78a88612d61565b51612de2818c612e2c565b9590612dee8d8c612888565b5054612d75565b613e93565b90612d75565b98612d75565b9401929190612d93565b91909160008382019384129112908015821691151617610a9357565b9190600090612e5a81600095612e50612e4782610180612796565b93905492612ee5565b9160031b1c612e10565b60008113612e69575b50509190565b612e91919450612e8b92508094670de0b6b3a764000093849161016c54612e99565b04612e99565b043880612e63565b81810292918115918404141715610a9357565b8115612eb6570490565b634e487b7160e01b600052601260045260246000fd5b81810392916000138015828513169184121617610a9357565b612ef181610169612888565b505490670de0b6b3a764000091828102928184041490151715610a9357612f3d92612f31612f24612f3793610181612796565b90549060031b1c84612eac565b92612eac565b90612ecc565b90565b8015612f5657612df5612f3d9261016354612f5e565b505060001990565b91908203918211610a9357565b67ffffffffffffffff81116127fa5760051b60200190565b90612f8d82612f6b565b612f9a60405191826127d8565b8281528092612fab601f1991612f6b565b0190602036910137565b805490600160401b8210156127fa5781612fd7916001612fee94018155612796565b819391549060031b91821b91600019901b19161790565b9055565b61016354801561309d576101699081549160009061300f84612f83565b9082905b85821061305957505060005b84811061302d575050505050565b8061305361304b8661096e8761304560019789612d61565b51612e99565b61016a612fb5565b0161301f565b909261309560019161306a866130c9565b6130748787612d61565b52612dfa6130828786612888565b505461308e8888612d61565b5190613e93565b930190613013565b50565b6001600160a01b0316600090815261016860205260409020600181015460ff1615610722575490565b6130d590610169612888565b50600101546001600160a01b03166130ec8161311f565b919091156104e6575090565b519081151582036104fe57565b91908260409103126104fe57612f3d6020835193016130f8565b604080516359e02dd760e01b81529291839060049082906001600160a01b03165afa91821561317557600090819361315657509190565b905061317191925060403d811161075e5761074e81836127d8565b9091565b6040513d6000823e3d90fd5b610169549061318f82612f83565b9160005b81811061319e575050565b806131aa6001926130c9565b6131b48287612d61565b5201613193565b906131dc670de0b6b3a7640000928361018754610184549243010302612eac565b828110156131f95782039180836101855402049261018654020590565b50600091508190565b909161320c613264565b92908082101561325a57839161322191612f5e565b931115613255578181101561324d5761323991612f5e565b60011c80821015613248575090565b905090565b505050600090565b505090565b5050505050600090565b61018254604080516359e02dd760e01b80825293929091906001600160a01b039081168284600481845afa8015613354576000948591613331575b501561331a575061018354169080519485528085600481855afa801561330f5760009586916132ec575b50156132d55750509190565b6024925051906305e8989360e11b82526004820152fd5b9050816133069296503d871161075e5761074e81836127d8565b949094386132c9565b50513d6000823e3d90fd5b6024908351906305e8989360e11b82526004820152fd5b905061334b919450833d851161075e5761074e81836127d8565b9390933861329f565b83513d6000823e3d90fd5b9081526101008101929160e09060c0906001600160a01b0380613381836127c4565b166020860152613393602083016127c4565b1660408501526040810135606085015260608101356080850152608081013560a085015260a0810135828501520135910152565b604051906133d66080836127d8565b60006060838281528260208201528260408201520152565b6134669361342d60009260209561340782610169612888565b50613413878254612d75565b9055613423610163918254612d75565b9055610167612796565b90546040516340c10f1960e01b81526001600160a01b039093166004840152602483019490945290948593928492909183906044820190565b039360039190911b1c6001600160a01b03165af18015613175576134875750565b6020813d82116134b0575b8161349f602093836127d8565b810103126104fe5761309d906130f8565b3d9150613492565b61351e926020926101666134cd848254612d75565b90556134dd610163918254612d75565b9055610165546040516340c10f1960e01b81526001600160a01b03928316600482015260248101939093529193849290911690829060009082906044820190565b03925af18015613175576134875750565b919061353a90612d82565b9190926135478385612f40565b9080821115613554575050565b6044925060405191637912120160e01b835260048301526024820152fd5b612fd7612fee916135838482612ee5565b6135b961359283610180612796565b6135a58294925492838360031b1c612e10565b919060031b91821b91600019901b19161790565b9055610181612796565b90610166549081156135e357612f3d9261101f612df59261016354612f5e565b505050670de0b6b3a764000090565b9290939160009160009182966136066133c7565b966001600160a01b03918590831680613812575b508261016154168360405193636eb1769f60e11b8552168060048501523060248501526020948585604481865afa9485156138075784956137d8575b50846136b7575b505050505086015115613673575b505050929190565b9091925061368b670de0b6b3a7640000928392612e99565b048085529082156136af576136a7920490816040860152612d75565b38808061366b565b5090506136a7565b6136c590610162541661311f565b9290921561365d57909192939b50848b6136ff85670de0b6b3a76400006136f96136ef8d8d612e99565b6101755490612e99565b04612eac565b81830181815295908b156137ce575061372a9161371e6060928d612eac565b91829101528551612d75565b809d5b10928315613759575b505050613746575b80808061365d565b819299505280606088015296388061373e565b909192506024604051809481936370a0823160e01b835260048301525afa9081156137c357908b918491613792575b5010388481613736565b809250858092503d83116137bc575b6137ab81836127d8565b8101031261240a578a905138613788565b503d6137a1565b6040513d85823e3d90fd5b915050809d61372d565b9094508581813d8311613800575b6137f081836127d8565b810103126118dc57519338613656565b503d6137e6565b6040513d86823e3d90fd5b9095506020836101f35416916024604051809481936364a731e960e01b835260048301525afa8015610765578690613857575b613850915084612e99565b943861361a565b506020813d8211613882575b81613870602093836127d8565b81010312611c69576138509051613845565b3d9150613863565b80613893613264565b9190936138a060006131bb565b9401938291613938575b019384600080821261393257505b8403918185116138fa5750508181116138dc57505061018555610186554361018755565b60449250604051916306da41e560e11b835260048301526024820152fd5b908085921161392057604491604051916306da41e560e11b835260048301526024820152fd5b604051630fb4fd3560e11b8152600490fd5b036138b8565b905081600003906138aa565b61397291939261395682610169612888565b50613962868254612f5e565b9055613423610163918254612f5e565b905460039190911b1c6001600160a01b031691823b156104fe57604051632770a7eb60e21b81526001600160a01b0390921660048301526024820152906000908290818381604481015b03925af18015613175576139cd5750565b60006129bb916127d8565b91906101666139e8848254612f5e565b90556139f8610163918254612f5e565b9055610165546001600160a01b031691823b156104fe57604051632770a7eb60e21b81526001600160a01b0390921660048301526024820152906000908290818381604481016139bc565b92613a5583613a5b9694939795613bef565b90613a84565b818110613a66575050565b604492506040519163c39b739f60e01b835260048301526024820152fd5b90929192613a93858484613b48565b6000948181029190868212600160ff1b821416613b19578183051490151715610aa957670de0b6b3a763ffff198201918211610aa957670de0b6b3a764000091828102928184041490151715610aa95790613aed91613b2d565b93838512928315613b04575b505050613248575090565b613b0f929350612f40565b1115388080613af9565b634e487b7160e01b87526011600452602487fd5b8115612eb657600160ff1b8114600019831416610a93570590565b9091613b579061016354612f5e565b90670de0b6b3a764000091828102928184041490151715610a9357612f3d92612f3791612e99565b613b9d613b8d848484613b48565b613b9785856135c3565b90613b2d565b9260008412928315613bba575b505050613bb45790565b50600090565b613bc5929350612f40565b1115388080613baa565b90604051613bde6040826127d8565b602060018294805484520154910152565b613bfb8161017a612796565b90549060031b1c916101be91613c118184612888565b5054926101bf54431015613c37575b5050808210156132555761096e90612f3d93612e99565b829350613c4b613c569392613c5192612888565b50613bcf565b613c5e565b903880613c20565b602081519101805192670de0b6b3a764000093840390848211610a9357613c8b612dfa92612db595612e99565b9251612e99565b60008061016991825492613ca584612f83565b9382915b818310613cd2575050508115613cc65790613cc391612eac565b91565b505061017b5460011b91565b90919392613cdf856130c9565b9081613ceb8789612d61565b52613d04613cf98388612e2c565b50612dee8886612888565b670de0b6b3a764000090818102918183041490151715610a9357613d41613d4792612dfa85613d3860019761102496613e93565b9485918c613bef565b95612d75565b94019190613ca9565b6101bf8054431015613d5f5750565b6101695460005b818110613d795750506101c05443019055565b80807f19156e9379c7bbbce8f646ce5ee30ba860b8f954717405f3d5859a6c1a21ae606001936101be613daf613c4b8383612888565b90613dcd613dc5613dbf856130c9565b84613c5e565b938492612888565b50555160409182519182526020820152a201613d66565b60975460405163d994d6d560e01b815233600482015290602090829060249082906001600160a01b03165afa90811561317557600091613e39575b5015613e2757565b604051631dd1b1b560e21b8152600490fd5b906020823d8211613e6a575b81613e52602093836127d8565b810103126104875750613e64906130f8565b38613e1f565b3d9150613e45565b60ff60ca5460081c16613e8157565b60405163783bb6c960e11b8152600490fd5b90670de0b6b3a764000091828102928184041490151715610a9357612f3d91612eac56fea26469706673582212205e531751c184f1c44c57625955fb69962e2cd5462c4f141118938750d6d69af664736f6c63430008140033",
  "linkReferences": {},
  "deployedLinkReferences": {},
  "devdoc": {
    "details": "IMPORTANT NOTES:  1. MocCore and MocCoreExpansion must have always the same storage layout to avoid collisions  2. Because MocCore is upgradeable and delegates calls to MocCoreExpansion, it cannot be upgradeable because      a proxy contract cannot delegate calls to another proxy contract. So, for any MocCoreExpansion upgrade      you must deploy a new implementation and set it to MocCore.",
    "events": {
      "AdminChanged(address,address)": {
        "details": "Emitted when the admin account has changed."
      },
      "BeaconUpgraded(address)": {
        "details": "Emitted when the beacon is changed."
      },
      "Initialized(uint8)": {
        "details": "Triggered when the contract has been initialized or reinitialized."
      },
      "Upgraded(address)": {
        "details": "Emitted when the implementation is upgraded."
      }
    },
    "kind": "dev",
    "methods": {
      "addPeggedToken((address,address,uint256,uint256,uint256,uint256,uint256))": {
        "details": "Note that the ema value, should consider `nextEmaCalculation`  This function is called by MocCore contract using it's context with delegate call  Checks done there:  -  onlyAuthorizedChanger: the caller must have governance authorization.tpTokenAddress Pegged Token contract address to add      priceProviderAddress Pegged Token price provider contract address      tpCtarg Pegged Token target coverage [PREC]      tpMintFee additional fee pct applied on mint [PREC]      tpRedeemFee additional fee pct applied on redeem [PREC]      tpEma initial Pegged Token exponential moving average [PREC]      tpEmaSf Pegged Token smoothing factor [PREC]  Requirements:  - tpTokenAddress must be a MocRC20, with mint, burn roles already settled  for this contract",
        "params": {
          "peggedTokenParams_": "params of Pegged Token to add"
        }
      },
      "calcCtargemaCA()": {
        "details": "qAC = nTP / pACtp      ctargemaCA = (ctargemaTP * qAC) / (qAC)",
        "returns": {
          "ctargemaCA": "[PREC]"
        }
      },
      "changeGovernor(address)": {
        "params": {
          "newGovernor_": "New governor address"
        }
      },
      "constructor": {
        "custom:oz-upgrades-unsafe-allow": "constructor"
      },
      "editPeggedToken((address,address,uint256,uint256,uint256,uint256,uint256))": {
        "details": "Note that the ema value, should consider `nextEmaCalculation`  This function is called by MocCore contract using it's context with delegate call  Checks done there:  -  onlyAuthorizedChanger: the caller must have governance authorization.tpTokenAddress Pegged Token contract address to identify the token to edit      priceProviderAddress Pegged Token price provider contract address      tpCtarg Pegged Token target coverage [PREC]      tpMintFee additional fee pct applied on mint [PREC]      tpRedeemFee additional fee pct applied on redeem [PREC]      tpEma initial Pegged Token exponential moving average [PREC]      tpEmaSf Pegged Token smoothing factor [PREC]  Requirements: - the tpTokenAddress must exists",
        "params": {
          "peggedTokenParams_": "params of Pegged Token to add"
        }
      },
      "getPACtp(address)": {
        "params": {
          "tp_": "Pegged Token address"
        },
        "returns": {
          "_0": "price [PREC]"
        }
      },
      "isLiquidationReached()": {
        "returns": {
          "_0": "true if liquidation state is reached, false otherwise"
        }
      },
      "liqRedeemTPTo(address,address,address,uint256)": {
        "details": "This function is called by MocCore contract using it's context with delegate call  The equivalent AC given the liquidation frozen price(qACRedeemed) is transferred  to the `recipient_` by MocCore contract  Checks done there:  -  notPaused: the contract must be unpaused",
        "params": {
          "recipient_": "address who receives the AC",
          "sender_": "address owner of the TP to be redeemed",
          "tp_": "Pegged Token address"
        },
        "returns": {
          "qACRedeemed": "amount of AC sent to `recipient_`"
        }
      },
      "makeStoppable()": {
        "details": "Should be called through governance"
      },
      "makeUnstoppable()": {
        "details": "Should be called through governance"
      },
      "maxQACToMintTP()": {
        "returns": {
          "maxQAC": "minimum regarding maxAbsoluteOperation and maxOperationalDifference"
        }
      },
      "maxQACToRedeemTP()": {
        "returns": {
          "maxQAC": "minimum regarding maxAbsoluteOperation and maxOperationalDifference"
        }
      },
      "mintTCandTPto((address,uint256,uint256,address,address,address))": {
        "details": "i_ Pegged Token index      qTP_ amount of Pegged Token to mint      qACmax_ maximum amount of Collateral Asset that can be spent      sender_ address who sends Collateral Asset      recipient_ address who receives the Collateral Token and Pegged Token      vendor_ address who receives a markup. If its address(0) no markup is applied",
        "params": {
          "params_": "mint TC and TP function parameters"
        },
        "returns": {
          "feeCalcs": "platform fee detail breakdown",
          "qACtotalNeeded": "amount of AC used to mint Collateral Token and Pegged Token",
          "qFeeTokenTotalNeeded": "amount of Fee Token used by `sender_` to pay fees. 0 if qAC is used instead",
          "qTCtoMint": "amount of Collateral Token minted"
        }
      },
      "pause()": {
        "details": "Should only be called by the pauser and when it is stoppable"
      },
      "proxiableUUID()": {
        "details": "Implementation of the ERC1822 {proxiableUUID} function. This returns the storage slot used by the implementation. It is used to validate the implementation's compatibility when performing an upgrade. IMPORTANT: A proxy pointing at a proxiable contract should not be considered proxiable itself, because this risks bricking a proxy that upgrades to it, by delegating to itself until out of gas. Thus it is critical that this function revert if invoked through a proxy. This is guaranteed by the `notDelegated` modifier."
      },
      "redeemTCandTPto((address,uint256,uint256,uint256,address,address,address),address)": {
        "details": "i_ Pegged Token index      qTC_ amount of Collateral Token to redeem      qTP_ maximum amount of Pegged Token to redeem      qACmin_ minimum amount of Collateral Asset that `recipient_` expects to receive      sender_ address who sends Collateral Token and Pegged Token      recipient_ address who receives the Collateral Asset      vendor_ address who receives a markup. If its address(0) no markup is applied",
        "params": {
          "params_": "redeem TC and TP function parameters"
        },
        "returns": {
          "feeCalcs": "platform fee detail breakdown",
          "qACtoRedeem": "amount of AC sent to `recipient_`",
          "qFeeTokenTotalNeeded": "amount of Fee Token used by `sender_` to pay fees. 0 if qAC is used instead",
          "qTPtoRedeem": "amount of Pegged Token redeemed"
        }
      },
      "setAppreciationFactor(uint256)": {
        "details": "sets appreciation Factor value.",
        "params": {
          "appreciationFactor_": "pct of the gain because Pegged Tokens devaluation that is returned in Pegged Tokens to appreciation beneficiary during the settlement [PREC]"
        }
      },
      "setBes(uint256)": {
        "details": "bns is not automatically updated, you have to wait until next settlement to be made : bns = block.number + bes*",
        "params": {
          "bes_": "number of blocks between settlements"
        }
      },
      "setDecayBlockSpan(uint256)": {
        "details": "sets flux capacitor decay block span",
        "params": {
          "decayBlockSpan_": "flux capacitor decay block span"
        }
      },
      "setEmaCalculationBlockSpan(uint256)": {
        "details": "nextEmaCalculation is not automatically updated, you have to wait until next  EMA calculation to be made : nextEmaCalculation = block.number + emaCalculationBlockSpan*",
        "params": {
          "blockSpan_": "Defines how many blocks should pass between EMA calculations"
        }
      },
      "setFeeRetainer(uint256)": {
        "details": "sets the fee pct to be retainer on AC fees payments as AC re-injection.",
        "params": {
          "feeRetainer_": "pct retain on fees to be re-injected as Collateral, while paying fees with AC [PREC] 0% = 0; 1% = 10 ** 16; 100% = 10 ** 18"
        }
      },
      "setFeeTokenAddress(address)": {
        "details": "sets Fee Token contract address",
        "params": {
          "mocFeeTokenAddress_": "Fee Token new contract address"
        }
      },
      "setFeeTokenPct(uint256)": {
        "details": "sets the fee applied on the top of the operation`s fee when using Fee Token as fee payment method.",
        "params": {
          "feeTokenPct_": "pct applied on the top of the operation`s fee when using Fee Token  as fee payment method [PREC]  e.g. if tcMintFee = 1%, FeeTokenPct = 50% => qFeeToken = 0.5%  0% = 0; 1% = 10 ** 16; 100% = 10 ** 18"
        }
      },
      "setFeeTokenPriceProviderAddress(address)": {
        "details": "sets Fee Token price provider contract address",
        "params": {
          "mocFeeTokenPriceProviderAddress_": "Fee Token price provider new contract address"
        }
      },
      "setLiqEnabled(bool)": {
        "details": "enables and disables the liquidation mechanism.",
        "params": {
          "liqEnabled_": "is liquidation enabled"
        }
      },
      "setLiqThrld(uint256)": {
        "details": "sets the value of the liq threshold configuration param",
        "params": {
          "liqThrld_": "liquidation threshold"
        }
      },
      "setMaxAbsoluteOpProviderAddress(address)": {
        "details": "sets max absolute operation provider address",
        "params": {
          "maxAbsoluteOpProviderAddress_": "max absolute operation provider address"
        }
      },
      "setMaxOpDiffProviderAddress(address)": {
        "details": "sets max operation difference provider address",
        "params": {
          "maxOpDiffProviderAddress_": "max operation difference provider address"
        }
      },
      "setMintTCandTPFee(uint256)": {
        "details": "sets the fee charged when mint Collateral Token and Pegged Token in one operation.",
        "params": {
          "mintTCandTPFee_": "additional fee pct applied on mint Collateral Token and Pegged Token [PREC] 0% = 0; 1% = 10 ** 16; 100% = 10 ** 18"
        }
      },
      "setMocAppreciationBeneficiaryAddress(address)": {
        "details": "sets Moc Appreciation Beneficiary Address",
        "params": {
          "mocAppreciationBeneficiaryAddress_": "moc Appreciation Beneficiary new address"
        }
      },
      "setMocFeeFlowAddress(address)": {
        "details": "sets Moc Fee Flow contract address",
        "params": {
          "mocFeeFlowAddress_": "moc Fee Flow new contract address"
        }
      },
      "setPauser(address)": {
        "details": "Should be called through governance",
        "params": {
          "newPauser_": "Address of the new pauser"
        }
      },
      "setProtThrld(uint256)": {
        "details": "sets the value of the protected threshold configuration param",
        "params": {
          "protThrld_": "coverage protected state threshold [PREC]"
        }
      },
      "setRedeemTCandTPFee(uint256)": {
        "details": "sets the fee charged when redeem Collateral Token and Pegged Token in one operation.",
        "params": {
          "redeemTCandTPFee_": "additional fee pct applied on redeem Collateral Token and Pegged Token [PREC] 0% = 0; 1% = 10 ** 16; 100% = 10 ** 18"
        }
      },
      "setSuccessFee(uint256)": {
        "details": "sets success Fee value.",
        "params": {
          "successFee_": "pct of the gain because Pegged Tokens devaluation that is transferred in Collateral Asset to Moc Fee Flow during the settlement [PREC]"
        }
      },
      "setSwapTCforTPFee(uint256)": {
        "details": "sets the fee charged when swap Collateral Token for a Pegged Token.",
        "params": {
          "swapTCforTPFee_": "additional fee pct applied on swap Collateral Token for a Pegged Token [PREC] 0% = 0; 1% = 10 ** 16; 100% = 10 ** 18"
        }
      },
      "setSwapTPforTCFee(uint256)": {
        "details": "sets the fee charged when swap a Pegged Token for Collateral Token.",
        "params": {
          "swapTPforTCFee_": "additional fee pct applied on swap a Pegged Token for Collateral Token [PREC] 0% = 0; 1% = 10 ** 16; 100% = 10 ** 18"
        }
      },
      "setSwapTPforTPFee(uint256)": {
        "details": "sets the fee charged when swap a Pegged Token for another Pegged Token.",
        "params": {
          "swapTPforTPFee_": "additional fee pct applied on swap a Pegged Token for another Pegged Token [PREC] 0% = 0; 1% = 10 ** 16; 100% = 10 ** 18"
        }
      },
      "setTCInterestCollectorAddress(address)": {
        "details": "sets TC interest collector address",
        "params": {
          "tcInterestCollectorAddress_": "TC interest collector address"
        }
      },
      "setTCInterestPaymentBlockSpan(uint256)": {
        "details": "sets TC interest payment block spannextTCInterestPayment is not automatically updated, you have to wait until next  interest payment to be made : nextTCInterestPayment = block.number + tcInterestPaymentBlockSpan",
        "params": {
          "tcInterestPaymentBlockSpan_": "amount of blocks to wait for next TC interest payment"
        }
      },
      "setTCInterestRate(uint256)": {
        "details": "sets TC interest rate",
        "params": {
          "tcInterestRate_": "pct interest charged to TC holders on the total collateral in the protocol [PREC]"
        }
      },
      "setTcMintFee(uint256)": {
        "details": "sets the fee charged on Token Collateral mint.",
        "params": {
          "tcMintFee_": "addition fee pct applied on Collateral Tokens mint [PREC] 0% = 0; 1% = 10 ** 16; 100% = 10 ** 18"
        }
      },
      "setTcRedeemFee(uint256)": {
        "details": "sets the fee charged on Token Collateral redeem.",
        "params": {
          "tcRedeemFee_": "addition fee pct applied on Collateral Tokens redeem [PREC] 0% = 0; 1% = 10 ** 16; 100% = 10 ** 18"
        }
      },
      "swapTCforTPto((address,uint256,uint256,uint256,address,address,address),address)": {
        "details": "This function is called by MocCore contract using it's context with delegate calli_ Pegged Token index      qTC_ amount of Collateral Token to swap      qTPmin_ minimum amount of Pegged Token Token that `recipient_` expects to receive      qACmax_ maximum amount of Collateral Asset that can be spent in fees      sender_ address who sends the Collateral Token      recipient_ address who receives the Pegged Token      vendor_ address who receives a markup. If its address(0) no markup is appliedqACFee amount of AC needed to pay fees      qFeeToken amount of Fee Token needed to pay fess      qACVendorMarkup amount of AC needed to pay vendor markup      qFeeTokenVendorMarkup amount of Fee Token needed to pay vendor markup",
        "params": {
          "params_": "swap TC for TP function parameters"
        },
        "returns": {
          "qACSurcharges": "amount of AC used to pay fees and markup",
          "qFeeTokenTotalNeeded": "amount of Fee Token used by `sender_` to pay fees. 0 if qAC is used instead",
          "qTPtoMint": "amount of Pegged Token minted"
        }
      },
      "swapTPforTCto((address,uint256,uint256,uint256,address,address,address),address)": {
        "details": "This function is called by MocCore contract using it's context with delegate calli_ Pegged Token index      qTP_ amount Pegged Token to swap      qTCmin_ minimum amount of Collateral Token that `recipient_` expects to receive      qACmax_ maximum amount of Collateral Asset that can be spent in fees      sender_ address who sends the Pegged Token      recipient_ address who receives Collateral Token      vendor_ address who receives a markup. If its address(0) no markup is appliedqACFee amount of AC needed to pay fees      qFeeToken amount of Fee Token needed to pay fess      qACVendorMarkup amount of AC needed to pay vendor markup      qFeeTokenVendorMarkup amount of Fee Token needed to pay vendor markup",
        "params": {
          "params_": "swap TP for TC function parameters"
        },
        "returns": {
          "feeCalcs": "struct with:",
          "qACSurcharges": "amount of AC used to pay fees and markup",
          "qFeeTokenTotalNeeded": "amount of Fee Token used by `sender_` to pay fees. 0 if qAC is used instead",
          "qTCtoMint": "amount of Collateral Token minted"
        }
      },
      "swapTPforTPto((address,address,uint256,uint256,uint256,address,address,address),address)": {
        "details": "This function is called by MocCore contract using it's context with delegate calliFrom_ owned Pegged Token index      iTo_ target Pegged Token index      qTP_ amount of owned Pegged Token to swap      qTPmin_ minimum amount of target Pegged Token that `recipient_` expects to receive      qACmax_ maximum amount of Collateral Asset that can be spent in fees      sender_ address who sends the Pegged Token      recipient_ address who receives the target Pegged Token      vendor_ address who receives a markup. If its address(0) no markup is appliedqACFee amount of AC needed to pay fees      qFeeToken amount of Fee Token needed to pay fess      qACVendorMarkup amount of AC needed to pay vendor markup      qFeeTokenVendorMarkup amount of Fee Token needed to pay vendor markup",
        "params": {
          "params_": "swap TP for TP function parameters"
        },
        "returns": {
          "feeCalcs": "struct with:",
          "qACSurcharges": "amount of AC used to pay fees and markup",
          "qFeeTokenTotalNeeded": "amount of Fee Token used by `sender_` to pay fees. 0 if qAC is used instead",
          "qTPtoMint": "amount of Pegged Token minted"
        }
      },
      "updateEmas()": {
        "details": "All price provider prices must be available, fails if not"
      },
      "upgradeTo(address)": {
        "custom:oz-upgrades-unsafe-allow-reachable": "delegatecall",
        "details": "Upgrade the implementation of the proxy to `newImplementation`. Calls {_authorizeUpgrade}. Emits an {Upgraded} event."
      },
      "upgradeToAndCall(address,bytes)": {
        "custom:oz-upgrades-unsafe-allow-reachable": "delegatecall",
        "details": "Upgrade the implementation of the proxy to `newImplementation`, and subsequently execute the function call encoded in `data`. Calls {_authorizeUpgrade}. Emits an {Upgraded} event."
      }
    },
    "title": "MocCoreExpansion",
    "version": 1
  },
  "evm": {
    "bytecode": {
      "linkReferences": {},
      "opcodes": "PUSH1 0xA0 DUP1 PUSH1 0x40 MSTORE CALLVALUE PUSH3 0xE1 JUMPI ADDRESS PUSH1 0x80 MSTORE PUSH1 0x0 SLOAD SWAP1 PUSH1 0xFF DUP3 PUSH1 0x8 SHR AND PUSH3 0x8F JUMPI POP PUSH1 0xFF DUP1 DUP3 AND SUB PUSH3 0x53 JUMPI JUMPDEST PUSH1 0x40 MLOAD PUSH2 0x3EED SWAP1 DUP2 PUSH3 0xE7 DUP3 CODECOPY PUSH1 0x80 MLOAD DUP2 DUP2 DUP2 PUSH2 0x1A95 ADD MSTORE DUP2 DUP2 PUSH2 0x1C06 ADD MSTORE PUSH2 0x1E46 ADD MSTORE RETURN JUMPDEST PUSH1 0xFF SWAP1 DUP2 NOT AND OR PUSH1 0x0 SSTORE PUSH32 0x7F26B83FF96E1F2B6A682F133852F6798A09C465DA95921460CEFB3847402498 PUSH1 0x20 PUSH1 0x40 MLOAD PUSH1 0xFF DUP2 MSTORE LOG1 CODESIZE PUSH3 0x2C JUMP JUMPDEST PUSH3 0x461BCD PUSH1 0xE5 SHL DUP2 MSTORE PUSH1 0x20 PUSH1 0x4 DUP3 ADD MSTORE PUSH1 0x27 PUSH1 0x24 DUP3 ADD MSTORE PUSH32 0x496E697469616C697A61626C653A20636F6E747261637420697320696E697469 PUSH1 0x44 DUP3 ADD MSTORE PUSH7 0x616C697A696E67 PUSH1 0xC8 SHL PUSH1 0x64 DUP3 ADD MSTORE PUSH1 0x84 SWAP1 REVERT JUMPDEST PUSH1 0x0 DUP1 REVERT INVALID PUSH1 0x80 PUSH1 0x40 MSTORE PUSH1 0x4 CALLDATASIZE LT ISZERO PUSH2 0x12 JUMPI PUSH1 0x0 DUP1 REVERT JUMPDEST PUSH1 0x0 DUP1 CALLDATALOAD PUSH1 0xE0 SHR DUP1 PUSH4 0x1DDE6EF EQ PUSH2 0x2772 JUMPI DUP1 PUSH4 0x1F1B684 EQ PUSH2 0x272A JUMPI DUP1 PUSH4 0x73763B9 EQ PUSH2 0x2706 JUMPI DUP1 PUSH4 0xC340A24 EQ PUSH2 0x26DD JUMPI DUP1 PUSH4 0xC36D897 EQ PUSH2 0x26BE JUMPI DUP1 PUSH4 0xD6AC463 EQ PUSH2 0x2678 JUMPI DUP1 PUSH4 0xDB49656 EQ PUSH2 0x2659 JUMPI DUP1 PUSH4 0xE0A8FD2 EQ PUSH2 0x2635 JUMPI DUP1 PUSH4 0xF1E5E2B EQ PUSH2 0x25EF JUMPI DUP1 PUSH4 0x1867E2F5 EQ PUSH2 0x25D0 JUMPI DUP1 PUSH4 0x1FE6A7AD EQ PUSH2 0x2596 JUMPI DUP1 PUSH4 0x2069F753 EQ PUSH2 0x2572 JUMPI DUP1 PUSH4 0x23B98CDE EQ PUSH2 0x254B JUMPI DUP1 PUSH4 0x24FFABA3 EQ PUSH2 0x250D JUMPI DUP1 PUSH4 0x27EAB2A1 EQ PUSH2 0x24C7 JUMPI DUP1 PUSH4 0x2A20D57D EQ PUSH2 0x24A8 JUMPI DUP1 PUSH4 0x2C43BD3B EQ PUSH2 0x2484 JUMPI DUP1 PUSH4 0x2D88AF4A EQ PUSH2 0x242D JUMPI DUP1 PUSH4 0x2DED50F0 EQ PUSH2 0x240E JUMPI DUP1 PUSH4 0x2E816DC6 EQ PUSH2 0x21AC JUMPI DUP1 PUSH4 0x2F155A56 EQ PUSH2 0x1FBD JUMPI DUP1 PUSH4 0x333431FD EQ PUSH2 0x1F9E JUMPI DUP1 PUSH4 0x33421C38 EQ PUSH2 0x1EAD JUMPI DUP1 PUSH4 0x3659CFE6 EQ PUSH2 0x1E14 JUMPI DUP1 PUSH4 0x3915EDCB EQ PUSH2 0x1DE5 JUMPI DUP1 PUSH4 0x3BC4AC0A EQ PUSH2 0x1DC1 JUMPI DUP1 PUSH4 0x3F4BA83A EQ PUSH2 0x1D46 JUMPI DUP1 PUSH4 0x407F0E34 EQ PUSH2 0x1D27 JUMPI DUP1 PUSH4 0x4B746001 EQ PUSH2 0x1CDA JUMPI DUP1 PUSH4 0x4D977E78 EQ PUSH2 0x1CBB JUMPI DUP1 PUSH4 0x4E1F907A EQ PUSH2 0x1C91 JUMPI DUP1 PUSH4 0x4F0F27EE EQ PUSH2 0x1C72 JUMPI DUP1 PUSH4 0x4F1EF286 EQ PUSH2 0x1B7E JUMPI DUP1 PUSH4 0x5210570C EQ PUSH2 0x1B58 JUMPI DUP1 PUSH4 0x52D1902D EQ PUSH2 0x1A82 JUMPI DUP1 PUSH4 0x543AEB48 EQ PUSH2 0x1A5E JUMPI DUP1 PUSH4 0x5860EE63 EQ PUSH2 0x1A3F JUMPI DUP1 PUSH4 0x5C975ABB EQ PUSH2 0x1A19 JUMPI DUP1 PUSH4 0x60009E0B EQ PUSH2 0x19EF JUMPI DUP1 PUSH4 0x647846A5 EQ PUSH2 0x19C5 JUMPI DUP1 PUSH4 0x64EC230A EQ PUSH2 0x19A1 JUMPI DUP1 PUSH4 0x662013F4 EQ PUSH2 0x197D JUMPI DUP1 PUSH4 0x68274357 EQ PUSH2 0x1954 JUMPI DUP1 PUSH4 0x6845C445 EQ PUSH2 0x1756 JUMPI DUP1 PUSH4 0x6B5488DF EQ PUSH2 0x1737 JUMPI DUP1 PUSH4 0x6F30471F EQ PUSH2 0x1718 JUMPI DUP1 PUSH4 0x70713468 EQ PUSH2 0x16F4 JUMPI DUP1 PUSH4 0x735D3960 EQ PUSH2 0x16AE JUMPI DUP1 PUSH4 0x73E28AF9 EQ PUSH2 0x168A JUMPI DUP1 PUSH4 0x7554FFFD EQ PUSH2 0x166B JUMPI DUP1 PUSH4 0x76228055 EQ PUSH2 0x164C JUMPI DUP1 PUSH4 0x7750BA0C EQ PUSH2 0x1628 JUMPI DUP1 PUSH4 0x79F9A91C EQ PUSH2 0x1609 JUMPI DUP1 PUSH4 0x7A193C31 EQ PUSH2 0x15EA JUMPI DUP1 PUSH4 0x7A4FF1D9 EQ PUSH2 0x15C6 JUMPI DUP1 PUSH4 0x7A727FE8 EQ PUSH2 0x15A7 JUMPI DUP1 PUSH4 0x7AF5758C EQ PUSH2 0x1583 JUMPI DUP1 PUSH4 0x7CBA2383 EQ PUSH2 0x155F JUMPI DUP1 PUSH4 0x7D8E0314 EQ PUSH2 0x1522 JUMPI DUP1 PUSH4 0x7F01C715 EQ PUSH2 0x14F8 JUMPI DUP1 PUSH4 0x7F13B998 EQ PUSH2 0x14C4 JUMPI DUP1 PUSH4 0x7F4A4FE0 EQ PUSH2 0x14A5 JUMPI DUP1 PUSH4 0x8456CB59 EQ PUSH2 0x140E JUMPI DUP1 PUSH4 0x85BF9593 EQ PUSH2 0x13C8 JUMPI DUP1 PUSH4 0x8CFA4241 EQ PUSH2 0x13A9 JUMPI DUP1 PUSH4 0x8E2BDB86 EQ PUSH2 0x137F JUMPI DUP1 PUSH4 0x8E9875BA EQ PUSH2 0x11E7 JUMPI DUP1 PUSH4 0x9853C35A EQ PUSH2 0x11BD JUMPI DUP1 PUSH4 0x9AD6659D EQ PUSH2 0x1183 JUMPI DUP1 PUSH4 0x9CABFC00 EQ PUSH2 0x1136 JUMPI DUP1 PUSH4 0x9FD0506D EQ PUSH2 0x1109 JUMPI DUP1 PUSH4 0xA8E9AC30 EQ PUSH2 0x10E7 JUMPI DUP1 PUSH4 0xAB6DD71D EQ PUSH2 0xF74 JUMPI DUP1 PUSH4 0xAEA038DC EQ PUSH2 0xF55 JUMPI DUP1 PUSH4 0xB5E9EA8C EQ PUSH2 0xF2B JUMPI DUP1 PUSH4 0xB9FA6413 EQ PUSH2 0xF0C JUMPI DUP1 PUSH4 0xBB4872DE EQ PUSH2 0xEE9 JUMPI DUP1 PUSH4 0xBECACA6B EQ PUSH2 0xEC5 JUMPI DUP1 PUSH4 0xC00F538D EQ PUSH2 0xEA1 JUMPI DUP1 PUSH4 0xC84353C9 EQ PUSH2 0xE7D JUMPI DUP1 PUSH4 0xCF351C1D EQ PUSH2 0xE37 JUMPI DUP1 PUSH4 0xD1A0FAA0 EQ PUSH2 0xE1B JUMPI DUP1 PUSH4 0xD6AF11DA EQ PUSH2 0xDD9 JUMPI DUP1 PUSH4 0xD87AAB6F EQ PUSH2 0xDBA JUMPI DUP1 PUSH4 0xD8DB6F5A EQ PUSH2 0xD74 JUMPI DUP1 PUSH4 0xDB796072 EQ PUSH2 0xAFB JUMPI DUP1 PUSH4 0xDDB6D190 EQ PUSH2 0xABD JUMPI DUP1 PUSH4 0xE44BB512 EQ PUSH2 0x874 JUMPI DUP1 PUSH4 0xE4C0AAF4 EQ PUSH2 0x82B JUMPI DUP1 PUSH4 0xE6B1627C EQ PUSH2 0x7E8 JUMPI DUP1 PUSH4 0xE7C25978 EQ PUSH2 0x7C4 JUMPI DUP1 PUSH4 0xEE1F438F EQ PUSH2 0x79A JUMPI DUP1 PUSH4 0xF13F4054 EQ PUSH2 0x770 JUMPI DUP1 PUSH4 0xF26114AA EQ PUSH2 0x584 JUMPI DUP1 PUSH4 0xF2808778 EQ PUSH2 0x560 JUMPI DUP1 PUSH4 0xF30B5614 EQ PUSH2 0x541 JUMPI DUP1 PUSH4 0xF375CFBA EQ PUSH2 0x522 JUMPI DUP1 PUSH4 0xFA6E83BD EQ PUSH2 0x503 JUMPI DUP1 PUSH4 0xFADDA424 EQ PUSH2 0x48A JUMPI PUSH4 0xFDA70F8B EQ PUSH2 0x469 JUMPI PUSH1 0x0 DUP1 REVERT JUMPDEST CALLVALUE PUSH2 0x487 JUMPI DUP1 PUSH1 0x3 NOT CALLDATASIZE ADD SLT PUSH2 0x487 JUMPI PUSH1 0x20 PUSH2 0x16E SLOAD PUSH1 0x40 MLOAD SWAP1 DUP2 MSTORE RETURN JUMPDEST DUP1 REVERT JUMPDEST POP CALLVALUE PUSH2 0x487 JUMPI PUSH1 0x20 CALLDATASIZE PUSH1 0x3 NOT ADD SLT PUSH2 0x487 JUMPI PUSH1 0x1 PUSH1 0x1 PUSH1 0xA0 SHL SUB PUSH1 0x4 CALLDATALOAD DUP2 DUP2 AND DUP2 SUB PUSH2 0x4FE JUMPI PUSH2 0x4C6 PUSH2 0x4BE PUSH1 0x1 SWAP3 PUSH2 0x30A0 JUMP JUMPDEST PUSH2 0x169 PUSH2 0x2888 JUMP JUMPDEST POP ADD SLOAD AND PUSH2 0x4D3 DUP2 PUSH2 0x311F JUMP JUMPDEST SWAP2 SWAP1 SWAP2 ISZERO PUSH2 0x4E6 JUMPI PUSH1 0x20 DUP3 PUSH1 0x40 MLOAD SWAP1 DUP2 MSTORE RETURN JUMPDEST PUSH1 0x24 SWAP1 PUSH1 0x40 MLOAD SWAP1 PUSH4 0x7F6E4DB9 PUSH1 0xE0 SHL DUP3 MSTORE PUSH1 0x4 DUP3 ADD MSTORE REVERT JUMPDEST PUSH1 0x0 DUP1 REVERT JUMPDEST POP CALLVALUE PUSH2 0x487 JUMPI DUP1 PUSH1 0x3 NOT CALLDATASIZE ADD SLT PUSH2 0x487 JUMPI PUSH1 0x20 PUSH2 0x16C SLOAD PUSH1 0x40 MLOAD SWAP1 DUP2 MSTORE RETURN JUMPDEST POP CALLVALUE PUSH2 0x487 JUMPI DUP1 PUSH1 0x3 NOT CALLDATASIZE ADD SLT PUSH2 0x487 JUMPI PUSH1 0x20 PUSH2 0x173 SLOAD PUSH1 0x40 MLOAD SWAP1 DUP2 MSTORE RETURN JUMPDEST POP CALLVALUE PUSH2 0x487 JUMPI DUP1 PUSH1 0x3 NOT CALLDATASIZE ADD SLT PUSH2 0x487 JUMPI PUSH1 0x20 PUSH2 0x163 SLOAD PUSH1 0x40 MLOAD SWAP1 DUP2 MSTORE RETURN JUMPDEST POP CALLVALUE PUSH2 0x487 JUMPI PUSH1 0x20 CALLDATASIZE PUSH1 0x3 NOT ADD SLT PUSH2 0x487 JUMPI PUSH2 0x57A PUSH2 0x3DE4 JUMP JUMPDEST PUSH1 0x4 CALLDATALOAD PUSH2 0x16E SSTORE DUP1 RETURN JUMPDEST POP CALLVALUE PUSH2 0x487 JUMPI PUSH1 0xE0 CALLDATASIZE PUSH1 0x3 NOT ADD SLT PUSH2 0x487 JUMPI PUSH1 0x4 CALLDATALOAD PUSH1 0x1 PUSH1 0x1 PUSH1 0xA0 SHL SUB DUP2 DUP2 AND SWAP2 DUP3 SWAP1 SUB PUSH2 0x4FE JUMPI DUP2 DUP4 MSTORE PUSH2 0x168 PUSH1 0x20 MSTORE PUSH1 0x40 DUP4 KECCAK256 PUSH1 0xFF PUSH1 0x1 PUSH1 0x40 MLOAD SWAP3 PUSH2 0x5CC PUSH1 0x40 DUP6 PUSH2 0x27D8 JUMP JUMPDEST DUP1 SLOAD DUP5 MSTORE ADD SLOAD AND ISZERO DUP1 ISZERO PUSH1 0x20 DUP4 ADD MSTORE PUSH2 0x722 JUMPI MLOAD SWAP1 PUSH1 0x24 CALLDATALOAD SWAP1 DUP1 DUP3 AND DUP1 SWAP3 SUB PUSH2 0x4FE JUMPI PUSH2 0x169 SWAP1 PUSH1 0x1 PUSH2 0x5FF DUP6 DUP5 PUSH2 0x2888 JUMP JUMPDEST POP ADD SLOAD AND DUP3 SUB PUSH2 0x6A8 JUMPI JUMPDEST DUP5 PUSH32 0x6417E5A3C1E0E5DAE98B8FE718C4BABDFCB35E0D7B5E1B9641B5914756F5D8E3 PUSH1 0x4 DUP6 DUP8 PUSH2 0x65B PUSH2 0x63F DUP4 PUSH2 0x17A PUSH2 0x2796 JUMP JUMPDEST PUSH1 0x44 SWAP3 SWAP2 SWAP3 CALLDATALOAD SWAP1 DUP4 SLOAD SWAP1 PUSH1 0x3 SHL SWAP2 DUP3 SHL SWAP2 PUSH1 0x0 NOT SWAP1 SHL NOT AND OR SWAP1 JUMP JUMPDEST SWAP1 SSTORE DUP1 DUP6 MSTORE PUSH2 0x176 PUSH1 0x20 MSTORE PUSH1 0x64 CALLDATALOAD PUSH1 0x40 DUP7 KECCAK256 SSTORE DUP5 MSTORE PUSH2 0x177 PUSH1 0x20 MSTORE PUSH1 0x84 CALLDATALOAD PUSH1 0x40 DUP6 KECCAK256 SSTORE PUSH2 0x68A DUP2 PUSH2 0x1BE PUSH2 0x2888 JUMP JUMPDEST POP PUSH1 0x1 PUSH1 0xC4 CALLDATALOAD SWAP2 ADD SSTORE PUSH2 0x6A2 PUSH1 0x40 MLOAD SWAP3 DUP4 SWAP3 DUP4 PUSH2 0x335F JUMP JUMPDEST SUB SWAP1 LOG1 DUP1 RETURN JUMPDEST SWAP2 SWAP1 SWAP3 PUSH1 0x40 MLOAD PUSH4 0x59E02DD7 PUSH1 0xE0 SHL DUP2 MSTORE PUSH1 0x40 DUP2 PUSH1 0x4 DUP2 DUP9 GAS STATICCALL SWAP1 DUP2 ISZERO PUSH2 0x765 JUMPI DUP7 SWAP2 PUSH2 0x734 JUMPI JUMPDEST POP ISZERO PUSH2 0x722 JUMPI PUSH32 0x6417E5A3C1E0E5DAE98B8FE718C4BABDFCB35E0D7B5E1B9641B5914756F5D8E3 SWAP4 PUSH1 0x1 PUSH2 0x705 DUP5 PUSH1 0x4 SWAP7 PUSH2 0x2888 JUMP JUMPDEST POP ADD SWAP1 PUSH1 0x1 PUSH1 0x1 PUSH1 0x60 SHL SUB PUSH1 0xA0 SHL DUP3 SLOAD AND OR SWAP1 SSTORE SWAP3 DUP2 SWAP3 POP PUSH2 0x60A JUMP JUMPDEST PUSH1 0x40 MLOAD PUSH4 0xE6C4247B PUSH1 0xE0 SHL DUP2 MSTORE PUSH1 0x4 SWAP1 REVERT JUMPDEST PUSH2 0x756 SWAP2 POP PUSH1 0x40 RETURNDATASIZE PUSH1 0x40 GT PUSH2 0x75E JUMPI JUMPDEST PUSH2 0x74E DUP2 DUP4 PUSH2 0x27D8 JUMP JUMPDEST DUP2 ADD SWAP1 PUSH2 0x3105 JUMP JUMPDEST SWAP1 POP CODESIZE PUSH2 0x6CF JUMP JUMPDEST POP RETURNDATASIZE PUSH2 0x744 JUMP JUMPDEST PUSH1 0x40 MLOAD RETURNDATASIZE DUP9 DUP3 RETURNDATACOPY RETURNDATASIZE SWAP1 REVERT JUMPDEST POP CALLVALUE PUSH2 0x487 JUMPI DUP1 PUSH1 0x3 NOT CALLDATASIZE ADD SLT PUSH2 0x487 JUMPI PUSH2 0x162 SLOAD PUSH1 0x40 MLOAD PUSH1 0x1 PUSH1 0x1 PUSH1 0xA0 SHL SUB SWAP1 SWAP2 AND DUP2 MSTORE PUSH1 0x20 SWAP1 RETURN JUMPDEST POP CALLVALUE PUSH2 0x487 JUMPI DUP1 PUSH1 0x3 NOT CALLDATASIZE ADD SLT PUSH2 0x487 JUMPI PUSH2 0x182 SLOAD PUSH1 0x40 MLOAD PUSH1 0x1 PUSH1 0x1 PUSH1 0xA0 SHL SUB SWAP1 SWAP2 AND DUP2 MSTORE PUSH1 0x20 SWAP1 RETURN JUMPDEST POP CALLVALUE PUSH2 0x487 JUMPI DUP1 PUSH1 0x3 NOT CALLDATASIZE ADD SLT PUSH2 0x487 JUMPI PUSH1 0x20 PUSH1 0xFF PUSH2 0x17D SLOAD AND PUSH1 0x40 MLOAD SWAP1 ISZERO ISZERO DUP2 MSTORE RETURN JUMPDEST POP CALLVALUE PUSH2 0x487 JUMPI PUSH1 0x20 CALLDATASIZE PUSH1 0x3 NOT ADD SLT PUSH2 0x487 JUMPI PUSH1 0x4 CALLDATALOAD SWAP1 PUSH2 0x1BE SWAP1 DUP2 SLOAD DUP4 LT ISZERO PUSH2 0x487 JUMPI PUSH1 0x40 PUSH2 0x817 DUP5 DUP5 PUSH2 0x2888 JUMP JUMPDEST POP PUSH1 0x1 DUP2 SLOAD SWAP2 ADD SLOAD DUP3 MLOAD SWAP2 DUP3 MSTORE PUSH1 0x20 DUP3 ADD MSTORE RETURN JUMPDEST POP CALLVALUE PUSH2 0x487 JUMPI PUSH1 0x20 CALLDATASIZE PUSH1 0x3 NOT ADD SLT PUSH2 0x487 JUMPI PUSH1 0x4 CALLDATALOAD PUSH1 0x1 PUSH1 0x1 PUSH1 0xA0 SHL SUB DUP2 AND SWAP1 DUP2 SWAP1 SUB PUSH2 0x870 JUMPI PUSH2 0x85A PUSH2 0x3DE4 JUMP JUMPDEST PUSH1 0x1 PUSH1 0x1 PUSH1 0x60 SHL SUB PUSH1 0xA0 SHL PUSH1 0x97 SLOAD AND OR PUSH1 0x97 SSTORE DUP1 RETURN JUMPDEST POP DUP1 REVERT JUMPDEST POP PUSH1 0xC0 CALLDATASIZE PUSH1 0x3 NOT ADD SLT PUSH2 0x487 JUMPI PUSH1 0x40 MLOAD SWAP1 PUSH2 0x890 PUSH1 0xC0 DUP4 PUSH2 0x27D8 JUMP JUMPDEST PUSH1 0x1 PUSH1 0x1 PUSH1 0xA0 SHL SUB SWAP1 PUSH1 0x4 CALLDATALOAD DUP3 DUP2 AND DUP2 SUB PUSH2 0x4FE JUMPI DUP4 MSTORE PUSH1 0x20 DUP4 ADD PUSH1 0x24 CALLDATALOAD DUP2 MSTORE PUSH1 0x40 DUP5 ADD SWAP3 PUSH1 0x44 CALLDATALOAD DUP5 MSTORE PUSH1 0x64 CALLDATALOAD SWAP1 DUP1 DUP3 AND DUP3 SUB PUSH2 0x4FE JUMPI PUSH1 0x60 DUP7 ADD SWAP2 DUP3 MSTORE PUSH1 0x84 CALLDATALOAD DUP2 DUP2 AND DUP2 SUB PUSH2 0x4FE JUMPI PUSH1 0x80 DUP8 ADD SWAP1 DUP2 MSTORE PUSH1 0xA4 CALLDATALOAD SWAP5 DUP3 DUP7 AND DUP7 SUB PUSH2 0x4FE JUMPI PUSH1 0xA0 DUP9 ADD SWAP6 DUP7 MSTORE PUSH2 0x8FD PUSH2 0x33C7 JUMP JUMPDEST POP PUSH2 0x912 DUP4 PUSH2 0x90A PUSH2 0x3181 JUMP JUMPDEST SWAP10 MLOAD AND PUSH2 0x30A0 JUMP JUMPDEST SWAP2 PUSH2 0x935 PUSH2 0x920 DUP5 DUP12 PUSH2 0x2D61 JUMP JUMPDEST MLOAD SWAP10 PUSH2 0x92C DUP12 DUP7 PUSH2 0x3572 JUMP JUMPDEST PUSH2 0x17C SLOAD PUSH2 0x352F JUMP JUMPDEST SWAP10 PUSH2 0x94C DUP9 MLOAD SWAP12 PUSH2 0x946 DUP4 DUP9 PUSH2 0x3BEF JUMP JUMPDEST SWAP4 PUSH2 0x35C3 JUMP JUMPDEST SWAP2 PUSH8 0xDE0B6B3A763FFFF NOT DUP2 ADD SWAP1 DUP2 GT PUSH2 0xAA9 JUMPI DUP2 PUSH2 0x96E PUSH2 0x973 SWAP3 DUP15 PUSH2 0x2E99 JUMP JUMPDEST PUSH2 0x2EAC JUMP JUMPDEST SWAP9 PUSH8 0xDE0B6B3A7640000 SWAP3 DUP4 DUP12 MUL SWAP1 DUP12 DUP3 DIV DUP6 EQ DUP13 ISZERO OR ISZERO PUSH2 0xA93 JUMPI PUSH2 0x998 SWAP2 PUSH2 0x2EAC JUMP JUMPDEST SWAP12 DUP4 DUP2 MUL SWAP4 DUP2 DUP6 DIV EQ SWAP1 ISZERO OR ISZERO PUSH2 0xA93 JUMPI PUSH2 0x9E3 SWAP8 DUP8 PUSH2 0x9C6 PUSH2 0x9BF PUSH2 0x9D8 SWAP6 DUP4 SWAP8 PUSH2 0x2EAC JUMP JUMPDEST DUP1 SWAP14 PUSH2 0x2D75 JUMP JUMPDEST SWAP9 DUP10 SWAP3 MLOAD AND SWAP3 MLOAD AND PUSH2 0x174 SLOAD SWAP3 PUSH2 0x35F2 JUMP JUMPDEST SWAP9 SWAP2 DUP8 SWAP9 SWAP2 SWAP9 PUSH2 0x2D75 JUMP JUMPDEST SWAP10 MLOAD DUP1 DUP12 GT PUSH2 0xA75 JUMPI POP DUP10 ISZERO PUSH2 0xA63 JUMPI PUSH2 0xA12 PUSH2 0xA1C SWAP7 PUSH2 0xA07 DUP7 PUSH2 0xA5F SWAP13 PUSH2 0x388A JUMP JUMPDEST DUP4 DUP6 MLOAD AND SWAP1 DUP14 PUSH2 0x34B8 JUMP JUMPDEST MLOAD SWAP2 MLOAD AND SWAP3 PUSH2 0x33EE JUMP JUMPDEST PUSH1 0x40 MLOAD SWAP5 DUP6 SWAP5 DUP6 SWAP3 SWAP4 PUSH1 0x60 SWAP2 SWAP6 SWAP5 PUSH1 0xC0 SWAP4 PUSH1 0xE0 DUP7 ADD SWAP8 DUP7 MSTORE PUSH1 0x20 DUP7 ADD MSTORE PUSH1 0x40 DUP6 ADD MSTORE DUP1 MLOAD DUP3 DUP6 ADD MSTORE PUSH1 0x20 DUP2 ADD MLOAD PUSH1 0x80 DUP6 ADD MSTORE PUSH1 0x40 DUP2 ADD MLOAD PUSH1 0xA0 DUP6 ADD MSTORE ADD MLOAD SWAP2 ADD MSTORE JUMP JUMPDEST SUB SWAP1 RETURN JUMPDEST PUSH1 0x40 MLOAD PUSH4 0xF3E39B5D PUSH1 0xE0 SHL DUP2 MSTORE PUSH1 0x4 SWAP1 REVERT JUMPDEST PUSH1 0x44 SWAP1 DUP12 PUSH1 0x40 MLOAD SWAP2 PUSH4 0xB63F1A7 PUSH1 0xE0 SHL DUP4 MSTORE PUSH1 0x4 DUP4 ADD MSTORE PUSH1 0x24 DUP3 ADD MSTORE REVERT JUMPDEST PUSH4 0x4E487B71 PUSH1 0xE0 SHL PUSH1 0x0 MSTORE PUSH1 0x11 PUSH1 0x4 MSTORE PUSH1 0x24 PUSH1 0x0 REVERT JUMPDEST PUSH4 0x4E487B71 PUSH1 0xE0 SHL DUP6 MSTORE PUSH1 0x11 PUSH1 0x4 MSTORE PUSH1 0x24 DUP6 REVERT JUMPDEST POP CALLVALUE PUSH2 0x487 JUMPI PUSH1 0x20 CALLDATASIZE PUSH1 0x3 NOT ADD SLT PUSH2 0x487 JUMPI PUSH1 0x4 CALLDATALOAD PUSH1 0x1 PUSH1 0x1 PUSH1 0xA0 SHL SUB DUP2 AND SWAP1 DUP2 SWAP1 SUB PUSH2 0x4FE JUMPI DUP2 PUSH1 0x40 SWAP2 PUSH1 0x20 SWAP4 MSTORE PUSH2 0x177 DUP4 MSTORE KECCAK256 SLOAD PUSH1 0x40 MLOAD SWAP1 DUP2 MSTORE RETURN JUMPDEST POP CALLVALUE PUSH2 0x487 JUMPI PUSH1 0xE0 CALLDATASIZE PUSH1 0x3 NOT ADD SLT PUSH2 0x487 JUMPI PUSH1 0x4 CALLDATALOAD PUSH1 0x1 PUSH1 0x1 PUSH1 0xA0 SHL SUB DUP2 DUP2 AND SWAP2 DUP3 SWAP1 SUB PUSH2 0x4FE JUMPI PUSH1 0x24 DUP1 CALLDATALOAD DUP3 DUP2 AND DUP1 SWAP2 SUB PUSH2 0x4FE JUMPI DUP4 DUP6 MSTORE PUSH2 0x168 SWAP4 PUSH1 0x20 SWAP1 DUP6 DUP3 MSTORE PUSH1 0x1 SWAP3 PUSH1 0xFF DUP5 PUSH1 0x40 DUP11 KECCAK256 ADD SLOAD AND PUSH2 0xD62 JUMPI PUSH2 0x167 SWAP6 DUP7 SLOAD SWAP8 DUP6 PUSH1 0x40 MLOAD PUSH2 0xB65 PUSH1 0x40 DUP3 PUSH2 0x27D8 JUMP JUMPDEST DUP11 DUP2 MSTORE DUP7 DUP2 ADD SWAP3 DUP3 DUP5 MSTORE DUP7 DUP14 MSTORE DUP8 MSTORE PUSH1 0x40 DUP13 KECCAK256 SWAP1 MLOAD DUP2 SSTORE ADD SWAP1 MLOAD ISZERO ISZERO PUSH1 0xFF DUP1 NOT DUP4 SLOAD AND SWAP2 AND OR SWAP1 SSTORE DUP7 SLOAD PUSH1 0x1 PUSH1 0x40 SHL SWAP8 DUP9 DUP3 LT ISZERO PUSH2 0xD4F JUMPI SWAP1 PUSH2 0xBAC SWAP2 DUP8 DUP3 ADD DUP2 SSTORE PUSH2 0x2796 JUMP JUMPDEST DUP2 SLOAD SWAP1 PUSH1 0x3 SHL SWAP1 DUP4 DUP7 DUP4 SHL SWAP3 SHL NOT AND OR SWAP1 SSTORE PUSH1 0x40 MLOAD PUSH2 0xBCC PUSH1 0x40 DUP3 PUSH2 0x27D8 JUMP JUMPDEST DUP10 DUP2 MSTORE DUP5 DUP2 ADD SWAP3 DUP4 MSTORE PUSH2 0x169 DUP1 SLOAD SWAP1 DUP10 DUP3 LT ISZERO PUSH2 0xD3C JUMPI SWAP1 PUSH2 0xBF2 SWAP2 DUP9 DUP3 ADD DUP2 SSTORE PUSH2 0x2888 JUMP JUMPDEST SWAP2 SWAP1 SWAP2 PUSH2 0xD29 JUMPI SWAP1 DUP7 SWAP2 MLOAD DUP2 SSTORE ADD SWAP2 MLOAD AND PUSH1 0x1 PUSH1 0x1 PUSH1 0x60 SHL SUB PUSH1 0xA0 SHL DUP3 SLOAD AND OR SWAP1 SSTORE PUSH2 0xC22 PUSH1 0x44 CALLDATALOAD PUSH2 0x17A PUSH2 0x2FB5 JUMP JUMPDEST DUP1 DUP8 MSTORE PUSH2 0x176 DUP3 MSTORE PUSH1 0x64 CALLDATALOAD PUSH1 0x40 DUP9 KECCAK256 SSTORE DUP7 MSTORE PUSH2 0x177 DUP2 MSTORE PUSH1 0x84 CALLDATALOAD PUSH1 0x40 DUP8 KECCAK256 SSTORE PUSH1 0x40 MLOAD SWAP1 PUSH2 0xC50 PUSH1 0x40 DUP4 PUSH2 0x27D8 JUMP JUMPDEST PUSH1 0xA4 CALLDATALOAD DUP3 MSTORE DUP2 ADD PUSH1 0xC4 CALLDATALOAD DUP2 MSTORE PUSH2 0x1BE DUP1 SLOAD SWAP1 DUP7 DUP3 LT ISZERO PUSH2 0xD16 JUMPI SWAP1 PUSH2 0xC79 SWAP2 DUP6 DUP3 ADD DUP2 SSTORE PUSH2 0x2888 JUMP JUMPDEST SWAP3 SWAP1 SWAP3 PUSH2 0xD03 JUMPI SWAP1 DUP4 SWAP2 MLOAD DUP4 SSTORE MLOAD SWAP2 ADD SSTORE PUSH2 0x180 SWAP2 DUP3 SLOAD SWAP4 DUP5 LT ISZERO PUSH2 0xCF1 JUMPI POP DUP3 PUSH32 0x6417E5A3C1E0E5DAE98B8FE718C4BABDFCB35E0D7B5E1B9641B5914756F5D8E3 SWAP5 SWAP3 PUSH2 0xCCC SWAP3 PUSH1 0x4 SWAP6 ADD DUP2 SSTORE PUSH2 0x2796 JUMP JUMPDEST POP POP PUSH2 0xCE2 PUSH2 0xCDA DUP3 PUSH2 0x30C9 JUMP JUMPDEST PUSH2 0x181 PUSH2 0x2FB5 JUMP JUMPDEST PUSH2 0x6A2 PUSH1 0x40 MLOAD SWAP3 DUP4 SWAP3 DUP4 PUSH2 0x335F JUMP JUMPDEST PUSH4 0x4E487B71 PUSH1 0xE0 SHL DUP7 MSTORE PUSH1 0x41 PUSH1 0x4 MSTORE DUP6 REVERT JUMPDEST PUSH4 0x4E487B71 PUSH1 0xE0 SHL DUP9 MSTORE PUSH1 0x4 DUP9 SWAP1 MSTORE DUP5 DUP9 REVERT JUMPDEST PUSH4 0x4E487B71 PUSH1 0xE0 SHL DUP10 MSTORE PUSH1 0x41 PUSH1 0x4 MSTORE DUP6 DUP10 REVERT JUMPDEST PUSH4 0x4E487B71 PUSH1 0xE0 SHL DUP12 MSTORE PUSH1 0x4 DUP12 SWAP1 MSTORE DUP8 DUP12 REVERT JUMPDEST PUSH4 0x4E487B71 PUSH1 0xE0 SHL DUP13 MSTORE PUSH1 0x41 PUSH1 0x4 MSTORE DUP9 DUP13 REVERT JUMPDEST PUSH4 0x4E487B71 PUSH1 0xE0 SHL DUP12 MSTORE PUSH1 0x41 PUSH1 0x4 MSTORE DUP8 DUP12 REVERT JUMPDEST PUSH1 0x40 MLOAD PUSH4 0x3458F6C5 PUSH1 0xE0 SHL DUP2 MSTORE PUSH1 0x4 SWAP1 REVERT JUMPDEST POP CALLVALUE PUSH2 0x487 JUMPI PUSH1 0x20 CALLDATASIZE PUSH1 0x3 NOT ADD SLT PUSH2 0x487 JUMPI PUSH1 0x4 CALLDATALOAD PUSH1 0x1 PUSH1 0x1 PUSH1 0xA0 SHL SUB DUP2 AND SWAP1 DUP2 SWAP1 SUB PUSH2 0x4FE JUMPI PUSH2 0xDA3 PUSH2 0x3DE4 JUMP JUMPDEST PUSH2 0x182 DUP1 SLOAD PUSH1 0x1 PUSH1 0x1 PUSH1 0xA0 SHL SUB NOT AND SWAP1 SWAP2 OR SWAP1 SSTORE DUP1 RETURN JUMPDEST POP CALLVALUE PUSH2 0x487 JUMPI DUP1 PUSH1 0x3 NOT CALLDATASIZE ADD SLT PUSH2 0x487 JUMPI PUSH1 0x20 PUSH2 0x185 SLOAD PUSH1 0x40 MLOAD SWAP1 DUP2 MSTORE RETURN JUMPDEST POP CALLVALUE PUSH2 0x487 JUMPI DUP1 PUSH1 0x3 NOT CALLDATASIZE ADD SLT PUSH2 0x487 JUMPI PUSH1 0x20 PUSH2 0xE13 PUSH2 0xDF9 PUSH1 0x1 PUSH2 0x31BB JUMP JUMPDEST PUSH2 0xE0D PUSH2 0xE06 DUP3 DUP5 PUSH2 0x2ECC JUMP JUMPDEST SWAP2 DUP4 PUSH2 0x2E10 JUMP JUMPDEST SWAP2 PUSH2 0x3202 JUMP JUMPDEST PUSH1 0x40 MLOAD SWAP1 DUP2 MSTORE RETURN JUMPDEST POP CALLVALUE PUSH2 0x487 JUMPI DUP1 PUSH1 0x3 NOT CALLDATASIZE ADD SLT PUSH2 0x487 JUMPI PUSH2 0xE34 PUSH2 0x3D50 JUMP JUMPDEST DUP1 RETURN JUMPDEST POP CALLVALUE PUSH2 0x487 JUMPI PUSH1 0x20 CALLDATASIZE PUSH1 0x3 NOT ADD SLT PUSH2 0x487 JUMPI PUSH1 0x4 CALLDATALOAD PUSH1 0x1 PUSH1 0x1 PUSH1 0xA0 SHL SUB DUP2 AND SWAP1 DUP2 SWAP1 SUB PUSH2 0x4FE JUMPI PUSH2 0xE66 PUSH2 0x3DE4 JUMP JUMPDEST PUSH2 0x161 DUP1 SLOAD PUSH1 0x1 PUSH1 0x1 PUSH1 0xA0 SHL SUB NOT AND SWAP1 SWAP2 OR SWAP1 SSTORE DUP1 RETURN JUMPDEST POP CALLVALUE PUSH2 0x487 JUMPI PUSH1 0x20 CALLDATASIZE PUSH1 0x3 NOT ADD SLT PUSH2 0x487 JUMPI PUSH2 0xE97 PUSH2 0x3DE4 JUMP JUMPDEST PUSH1 0x4 CALLDATALOAD PUSH2 0x17E SSTORE DUP1 RETURN JUMPDEST POP CALLVALUE PUSH2 0x487 JUMPI PUSH1 0x20 CALLDATASIZE PUSH1 0x3 NOT ADD SLT PUSH2 0x487 JUMPI PUSH2 0xEBB PUSH2 0x3DE4 JUMP JUMPDEST PUSH1 0x4 CALLDATALOAD PUSH2 0x16F SSTORE DUP1 RETURN JUMPDEST POP CALLVALUE PUSH2 0x487 JUMPI PUSH1 0x20 CALLDATASIZE PUSH1 0x3 NOT ADD SLT PUSH2 0x487 JUMPI PUSH2 0xEDF PUSH2 0x3DE4 JUMP JUMPDEST PUSH1 0x4 CALLDATALOAD PUSH2 0x16B SSTORE DUP1 RETURN JUMPDEST POP CALLVALUE PUSH2 0x487 JUMPI DUP1 PUSH1 0x3 NOT CALLDATASIZE ADD SLT PUSH2 0x487 JUMPI PUSH1 0x20 PUSH1 0xFF PUSH1 0xCA SLOAD AND PUSH1 0x40 MLOAD SWAP1 ISZERO ISZERO DUP2 MSTORE RETURN JUMPDEST POP CALLVALUE PUSH2 0x487 JUMPI DUP1 PUSH1 0x3 NOT CALLDATASIZE ADD SLT PUSH2 0x487 JUMPI PUSH1 0x20 PUSH2 0x18B SLOAD PUSH1 0x40 MLOAD SWAP1 DUP2 MSTORE RETURN JUMPDEST POP CALLVALUE PUSH2 0x487 JUMPI DUP1 PUSH1 0x3 NOT CALLDATASIZE ADD SLT PUSH2 0x487 JUMPI PUSH2 0x183 SLOAD PUSH1 0x40 MLOAD PUSH1 0x1 PUSH1 0x1 PUSH1 0xA0 SHL SUB SWAP1 SWAP2 AND DUP2 MSTORE PUSH1 0x20 SWAP1 RETURN JUMPDEST POP CALLVALUE PUSH2 0x487 JUMPI DUP1 PUSH1 0x3 NOT CALLDATASIZE ADD SLT PUSH2 0x487 JUMPI PUSH1 0x20 PUSH2 0x16F SLOAD PUSH1 0x40 MLOAD SWAP1 DUP2 MSTORE RETURN JUMPDEST POP PUSH2 0x100 CALLDATASIZE PUSH1 0x3 NOT ADD SLT PUSH2 0x487 JUMPI PUSH2 0xF8D CALLDATASIZE PUSH1 0x4 PUSH2 0x2810 JUMP JUMPDEST PUSH1 0xE4 CALLDATALOAD SWAP2 PUSH1 0x1 PUSH1 0x1 PUSH1 0xA0 SHL SUB SWAP2 SWAP1 DUP3 DUP5 AND DUP5 SUB PUSH2 0x4FE JUMPI PUSH2 0x102F SWAP1 PUSH2 0xFB0 PUSH2 0x33C7 JUMP JUMPDEST POP PUSH2 0xFB9 PUSH2 0x3181 JUMP JUMPDEST SWAP4 PUSH2 0xFC6 DUP2 DUP6 MLOAD AND PUSH2 0x30A0 JUMP JUMPDEST SWAP4 PUSH2 0xFE9 PUSH2 0xFD4 DUP7 DUP9 PUSH2 0x2D61 JUMP JUMPDEST MLOAD SWAP7 PUSH2 0xFE0 DUP9 DUP9 PUSH2 0x3572 JUMP JUMPDEST PUSH2 0x17B SLOAD PUSH2 0x352F JUMP JUMPDEST PUSH2 0x1029 PUSH1 0x20 DUP5 SWAP8 SWAP4 SWAP8 ADD SWAP9 PUSH2 0x1024 PUSH2 0x1002 DUP3 DUP13 MLOAD PUSH2 0x3E93 JUMP JUMPDEST SWAP9 PUSH2 0x101F PUSH2 0x1015 DUP14 MLOAD PUSH2 0x166 SLOAD SWAP1 PUSH2 0x2E99 JUMP JUMPDEST SWAP6 PUSH2 0x163 SLOAD PUSH2 0x2F5E JUMP JUMPDEST PUSH2 0x2F5E JUMP JUMPDEST PUSH2 0x2E99 JUMP JUMPDEST SWAP1 PUSH2 0x3E93 JUMP JUMPDEST SWAP7 PUSH1 0x40 DUP3 ADD MLOAD DUP1 DUP10 LT DUP1 ISZERO PUSH2 0x10DF JUMPI JUMPDEST PUSH2 0x10C1 JUMPI POP PUSH2 0x1060 DUP4 PUSH1 0x80 DUP5 ADD MLOAD AND DUP7 DUP6 PUSH1 0xC0 DUP7 ADD MLOAD AND PUSH2 0x171 SLOAD SWAP3 PUSH2 0x35F2 JUMP JUMPDEST SWAP8 SWAP2 SWAP9 SWAP1 SWAP7 PUSH1 0x60 DUP6 ADD MLOAD DUP1 DUP12 GT PUSH2 0x10A2 JUMPI POP PUSH2 0xA1C SWAP6 SWAP4 DUP8 PUSH1 0xA0 SWAP5 PUSH2 0xA5F SWAP12 SWAP11 SWAP10 SWAP8 SWAP5 PUSH2 0x1091 PUSH1 0x1 PUSH2 0x1098 SWAP7 PUSH2 0x388A JUMP JUMPDEST MLOAD SWAP1 PUSH2 0x3944 JUMP JUMPDEST ADD MLOAD AND SWAP1 DUP8 PUSH2 0x34B8 JUMP JUMPDEST PUSH1 0x44 SWAP1 DUP11 MLOAD PUSH1 0x40 MLOAD SWAP2 PUSH4 0xB63F1A7 PUSH1 0xE0 SHL DUP4 MSTORE PUSH1 0x4 DUP4 ADD MSTORE PUSH1 0x24 DUP3 ADD MSTORE REVERT JUMPDEST PUSH1 0x44 SWAP1 DUP10 PUSH1 0x40 MLOAD SWAP2 PUSH4 0xF577BEF5 PUSH1 0xE0 SHL DUP4 MSTORE PUSH1 0x4 DUP4 ADD MSTORE PUSH1 0x24 DUP3 ADD MSTORE REVERT JUMPDEST POP DUP9 ISZERO PUSH2 0x103F JUMP JUMPDEST POP CALLVALUE PUSH2 0x487 JUMPI DUP1 PUSH1 0x3 NOT CALLDATASIZE ADD SLT PUSH2 0x487 JUMPI PUSH1 0x20 PUSH2 0x1BF SLOAD NUMBER LT ISZERO PUSH1 0x40 MLOAD SWAP1 DUP2 MSTORE RETURN JUMPDEST POP CALLVALUE PUSH2 0x487 JUMPI DUP1 PUSH1 0x3 NOT CALLDATASIZE ADD SLT PUSH2 0x487 JUMPI PUSH1 0xCA SLOAD PUSH1 0x40 MLOAD PUSH1 0x10 SWAP2 SWAP1 SWAP2 SHR PUSH1 0x1 PUSH1 0x1 PUSH1 0xA0 SHL SUB AND DUP2 MSTORE PUSH1 0x20 SWAP1 RETURN JUMPDEST POP CALLVALUE PUSH2 0x487 JUMPI PUSH1 0x20 CALLDATASIZE PUSH1 0x3 NOT ADD SLT PUSH2 0x487 JUMPI PUSH1 0x4 CALLDATALOAD PUSH1 0x1 PUSH1 0x1 PUSH1 0xA0 SHL SUB DUP2 AND SWAP1 DUP2 SWAP1 SUB PUSH2 0x4FE JUMPI PUSH1 0x40 DUP3 DUP2 SWAP3 DUP2 MSTORE PUSH2 0x168 PUSH1 0x20 MSTORE KECCAK256 PUSH1 0xFF PUSH1 0x1 DUP3 SLOAD SWAP3 ADD SLOAD AND DUP3 MLOAD SWAP2 DUP3 MSTORE ISZERO ISZERO PUSH1 0x20 DUP3 ADD MSTORE RETURN JUMPDEST POP CALLVALUE PUSH2 0x487 JUMPI DUP1 PUSH1 0x3 NOT CALLDATASIZE ADD SLT PUSH2 0x487 JUMPI PUSH1 0x20 PUSH2 0x11AF PUSH2 0x11A9 PUSH2 0x11A4 PUSH2 0x3181 JUMP JUMPDEST PUSH2 0x2D82 JUMP JUMPDEST SWAP1 PUSH2 0x2F40 JUMP JUMPDEST PUSH2 0x17C SLOAD LT ISZERO PUSH1 0x40 MLOAD SWAP1 DUP2 MSTORE RETURN JUMPDEST POP CALLVALUE PUSH2 0x487 JUMPI DUP1 PUSH1 0x3 NOT CALLDATASIZE ADD SLT PUSH2 0x487 JUMPI PUSH2 0x178 SLOAD PUSH1 0x40 MLOAD PUSH1 0x1 PUSH1 0x1 PUSH1 0xA0 SHL SUB SWAP1 SWAP2 AND DUP2 MSTORE PUSH1 0x20 SWAP1 RETURN JUMPDEST POP PUSH2 0x100 CALLDATASIZE PUSH1 0x3 NOT ADD SLT PUSH2 0x487 JUMPI PUSH2 0x1200 CALLDATASIZE PUSH1 0x4 PUSH2 0x2810 JUMP JUMPDEST PUSH1 0x1 PUSH1 0x1 PUSH1 0xA0 SHL SUB SWAP2 PUSH1 0xE4 CALLDATALOAD SWAP1 DUP4 DUP3 AND DUP3 SUB PUSH2 0x4FE JUMPI PUSH2 0x121E PUSH2 0x33C7 JUMP JUMPDEST POP PUSH2 0x1227 PUSH2 0x3D50 JUMP JUMPDEST PUSH2 0x122F PUSH2 0x3C92 JUMP JUMPDEST SWAP5 SWAP1 SWAP2 PUSH2 0x123E DUP3 DUP7 MLOAD AND PUSH2 0x30A0 JUMP JUMPDEST SWAP2 PUSH2 0x125E PUSH2 0x124C DUP5 DUP10 PUSH2 0x2D61 JUMP JUMPDEST MLOAD SWAP8 PUSH2 0x1258 DUP10 DUP7 PUSH2 0x3572 JUMP JUMPDEST DUP6 PUSH2 0x352F JUMP JUMPDEST PUSH1 0x20 DUP9 SWAP3 SWAP9 ADD SWAP8 DUP9 MLOAD PUSH2 0x1272 DUP4 DUP4 DUP11 PUSH2 0x3B7F JUMP JUMPDEST DUP2 DUP2 LT PUSH2 0x1361 JUMPI POP POP SWAP1 PUSH2 0x129E SWAP2 DUP10 MLOAD PUSH8 0xDE0B6B3A7640000 SWAP4 DUP5 SWAP2 PUSH2 0x1298 DUP6 DUP6 PUSH2 0x35C3 JUMP JUMPDEST SWAP1 PUSH2 0x2E99 JUMP JUMPDEST DIV SWAP8 DUP9 ISZERO PUSH2 0xA63 JUMPI PUSH2 0x12DA SWAP4 PUSH2 0x12D1 PUSH2 0x12C7 DUP15 PUSH2 0x1024 DUP16 MLOAD PUSH2 0x1298 DUP9 PUSH2 0x101F DUP12 PUSH2 0x163 SLOAD PUSH2 0x2F5E JUMP JUMPDEST PUSH2 0x166 SLOAD SWAP1 PUSH2 0x2EAC JUMP JUMPDEST DIV SWAP12 DUP13 DUP10 PUSH2 0x3A43 JUMP JUMPDEST PUSH1 0x40 DUP2 ADD MLOAD DUP1 DUP10 LT PUSH2 0x1343 JUMPI POP PUSH2 0x1303 DUP3 PUSH1 0x80 DUP4 ADD MLOAD AND DUP7 DUP5 PUSH1 0xC0 DUP6 ADD MLOAD AND PUSH2 0x172 SLOAD SWAP3 PUSH2 0x35F2 JUMP JUMPDEST SWAP8 SWAP2 SWAP9 SWAP1 SWAP7 PUSH1 0x60 DUP5 ADD MLOAD DUP1 DUP12 GT PUSH2 0x10A2 JUMPI POP DUP6 SWAP4 PUSH2 0x133A DUP13 SWAP5 DUP7 PUSH2 0xA5F SWAP13 SWAP12 SWAP11 SWAP9 SWAP6 PUSH2 0x1334 PUSH2 0xA1C SWAP12 PUSH1 0xA0 SWAP8 PUSH2 0x388A JUMP JUMPDEST MLOAD PUSH2 0x39D8 JUMP JUMPDEST ADD MLOAD AND SWAP3 PUSH2 0x33EE JUMP JUMPDEST PUSH1 0x44 SWAP1 DUP10 PUSH1 0x40 MLOAD SWAP2 PUSH4 0x272E3F59 PUSH1 0xE2 SHL DUP4 MSTORE PUSH1 0x4 DUP4 ADD MSTORE PUSH1 0x24 DUP3 ADD MSTORE REVERT JUMPDEST PUSH1 0x44 SWAP3 POP PUSH1 0x40 MLOAD SWAP2 PUSH4 0xA5DB715D PUSH1 0xE0 SHL DUP4 MSTORE PUSH1 0x4 DUP4 ADD MSTORE PUSH1 0x24 DUP3 ADD MSTORE REVERT JUMPDEST POP CALLVALUE PUSH2 0x487 JUMPI DUP1 PUSH1 0x3 NOT CALLDATASIZE ADD SLT PUSH2 0x487 JUMPI PUSH2 0x188 SLOAD PUSH1 0x40 MLOAD PUSH1 0x1 PUSH1 0x1 PUSH1 0xA0 SHL SUB SWAP1 SWAP2 AND DUP2 MSTORE PUSH1 0x20 SWAP1 RETURN JUMPDEST POP CALLVALUE PUSH2 0x487 JUMPI DUP1 PUSH1 0x3 NOT CALLDATASIZE ADD SLT PUSH2 0x487 JUMPI PUSH1 0x20 PUSH2 0x17C SLOAD PUSH1 0x40 MLOAD SWAP1 DUP2 MSTORE RETURN JUMPDEST POP CALLVALUE PUSH2 0x487 JUMPI PUSH1 0x20 CALLDATASIZE PUSH1 0x3 NOT ADD SLT PUSH2 0x487 JUMPI PUSH1 0x4 CALLDATALOAD PUSH1 0x1 PUSH1 0x1 PUSH1 0xA0 SHL SUB DUP2 AND SWAP1 DUP2 SWAP1 SUB PUSH2 0x4FE JUMPI PUSH2 0x13F7 PUSH2 0x3DE4 JUMP JUMPDEST PUSH2 0x183 DUP1 SLOAD PUSH1 0x1 PUSH1 0x1 PUSH1 0xA0 SHL SUB NOT AND SWAP1 SWAP2 OR SWAP1 SSTORE DUP1 RETURN JUMPDEST POP CALLVALUE PUSH2 0x487 JUMPI DUP1 PUSH1 0x3 NOT CALLDATASIZE ADD SLT PUSH2 0x487 JUMPI PUSH2 0x1427 PUSH2 0x3E72 JUMP JUMPDEST PUSH1 0xCA SLOAD PUSH1 0x10 DUP2 SWAP1 SHR PUSH1 0x1 PUSH1 0x1 PUSH1 0xA0 SHL SUB AND CALLER SUB PUSH2 0x1493 JUMPI PUSH1 0xFF DUP2 AND ISZERO PUSH2 0x1481 JUMPI PUSH2 0x100 SWAP1 PUSH2 0xFF00 NOT AND OR PUSH1 0xCA SSTORE PUSH32 0x62E78CEA01BEE320CD4E420270B5EA74000D11B0C9F74754EBDBFC544B05A258 PUSH1 0x20 PUSH1 0x40 MLOAD CALLER DUP2 MSTORE LOG1 DUP1 RETURN JUMPDEST PUSH1 0x40 MLOAD PUSH4 0x866099C3 PUSH1 0xE0 SHL DUP2 MSTORE PUSH1 0x4 SWAP1 REVERT JUMPDEST PUSH1 0x40 MLOAD PUSH4 0x1D77D477 PUSH1 0xE2 SHL DUP2 MSTORE PUSH1 0x4 SWAP1 REVERT JUMPDEST POP CALLVALUE PUSH2 0x487 JUMPI DUP1 PUSH1 0x3 NOT CALLDATASIZE ADD SLT PUSH2 0x487 JUMPI PUSH1 0x20 PUSH2 0x18A SLOAD PUSH1 0x40 MLOAD SWAP1 DUP2 MSTORE RETURN JUMPDEST POP CALLVALUE PUSH2 0x487 JUMPI DUP1 PUSH1 0x3 NOT CALLDATASIZE ADD SLT PUSH2 0x487 JUMPI PUSH1 0x20 PUSH2 0xE13 PUSH2 0x14E4 PUSH1 0x1 PUSH2 0x31BB JUMP JUMPDEST PUSH2 0xE0D PUSH2 0x14F1 DUP3 DUP5 PUSH2 0x2E10 JUMP JUMPDEST SWAP2 DUP4 PUSH2 0x2ECC JUMP JUMPDEST POP CALLVALUE PUSH2 0x487 JUMPI DUP1 PUSH1 0x3 NOT CALLDATASIZE ADD SLT PUSH2 0x487 JUMPI PUSH2 0x1F3 SLOAD PUSH1 0x40 MLOAD PUSH1 0x1 PUSH1 0x1 PUSH1 0xA0 SHL SUB SWAP1 SWAP2 AND DUP2 MSTORE PUSH1 0x20 SWAP1 RETURN JUMPDEST POP CALLVALUE PUSH2 0x487 JUMPI PUSH1 0x20 CALLDATASIZE PUSH1 0x3 NOT ADD SLT PUSH2 0x487 JUMPI PUSH1 0x4 CALLDATALOAD SWAP1 PUSH2 0x17A SWAP1 DUP2 SLOAD DUP4 LT ISZERO PUSH2 0x487 JUMPI PUSH1 0x20 PUSH2 0x1551 DUP5 DUP5 PUSH2 0x2796 JUMP JUMPDEST SWAP1 SLOAD PUSH1 0x40 MLOAD SWAP2 PUSH1 0x3 SHL SHR DUP2 MSTORE RETURN JUMPDEST POP CALLVALUE PUSH2 0x487 JUMPI PUSH1 0x20 CALLDATASIZE PUSH1 0x3 NOT ADD SLT PUSH2 0x487 JUMPI PUSH2 0x1579 PUSH2 0x3DE4 JUMP JUMPDEST PUSH1 0x4 CALLDATALOAD PUSH2 0x17B SSTORE DUP1 RETURN JUMPDEST POP CALLVALUE PUSH2 0x487 JUMPI PUSH1 0x20 CALLDATASIZE PUSH1 0x3 NOT ADD SLT PUSH2 0x487 JUMPI PUSH2 0x159D PUSH2 0x3DE4 JUMP JUMPDEST PUSH1 0x4 CALLDATALOAD PUSH2 0x172 SSTORE DUP1 RETURN JUMPDEST POP CALLVALUE PUSH2 0x487 JUMPI DUP1 PUSH1 0x3 NOT CALLDATASIZE ADD SLT PUSH2 0x487 JUMPI PUSH1 0x20 PUSH2 0x1C0 SLOAD PUSH1 0x40 MLOAD SWAP1 DUP2 MSTORE RETURN JUMPDEST POP CALLVALUE PUSH2 0x487 JUMPI PUSH1 0x20 CALLDATASIZE PUSH1 0x3 NOT ADD SLT PUSH2 0x487 JUMPI PUSH2 0x15E0 PUSH2 0x3DE4 JUMP JUMPDEST PUSH1 0x4 CALLDATALOAD PUSH2 0x173 SSTORE DUP1 RETURN JUMPDEST POP CALLVALUE PUSH2 0x487 JUMPI DUP1 PUSH1 0x3 NOT CALLDATASIZE ADD SLT PUSH2 0x487 JUMPI PUSH1 0x20 PUSH2 0x166 SLOAD PUSH1 0x40 MLOAD SWAP1 DUP2 MSTORE RETURN JUMPDEST POP CALLVALUE PUSH2 0x487 JUMPI DUP1 PUSH1 0x3 NOT CALLDATASIZE ADD SLT PUSH2 0x487 JUMPI PUSH1 0x20 PUSH2 0x174 SLOAD PUSH1 0x40 MLOAD SWAP1 DUP2 MSTORE RETURN JUMPDEST POP CALLVALUE PUSH2 0x487 JUMPI PUSH1 0x20 CALLDATASIZE PUSH1 0x3 NOT ADD SLT PUSH2 0x487 JUMPI PUSH2 0x1642 PUSH2 0x3DE4 JUMP JUMPDEST PUSH1 0x4 CALLDATALOAD PUSH2 0x16D SSTORE DUP1 RETURN JUMPDEST POP CALLVALUE PUSH2 0x487 JUMPI DUP1 PUSH1 0x3 NOT CALLDATASIZE ADD SLT PUSH2 0x487 JUMPI PUSH1 0x20 PUSH2 0x186 SLOAD PUSH1 0x40 MLOAD SWAP1 DUP2 MSTORE RETURN JUMPDEST POP CALLVALUE PUSH2 0x487 JUMPI DUP1 PUSH1 0x3 NOT CALLDATASIZE ADD SLT PUSH2 0x487 JUMPI PUSH1 0x20 PUSH2 0x16B SLOAD PUSH1 0x40 MLOAD SWAP1 DUP2 MSTORE RETURN JUMPDEST POP CALLVALUE PUSH2 0x487 JUMPI PUSH1 0x20 CALLDATASIZE PUSH1 0x3 NOT ADD SLT PUSH2 0x487 JUMPI PUSH2 0x16A4 PUSH2 0x3DE4 JUMP JUMPDEST PUSH1 0x4 CALLDATALOAD PUSH2 0x184 SSTORE DUP1 RETURN JUMPDEST POP CALLVALUE PUSH2 0x487 JUMPI PUSH1 0x20 CALLDATASIZE PUSH1 0x3 NOT ADD SLT PUSH2 0x487 JUMPI PUSH1 0x4 CALLDATALOAD PUSH1 0x1 PUSH1 0x1 PUSH1 0xA0 SHL SUB DUP2 AND SWAP1 DUP2 SWAP1 SUB PUSH2 0x4FE JUMPI PUSH2 0x16DD PUSH2 0x3DE4 JUMP JUMPDEST PUSH2 0x188 DUP1 SLOAD PUSH1 0x1 PUSH1 0x1 PUSH1 0xA0 SHL SUB NOT AND SWAP1 SWAP2 OR SWAP1 SSTORE DUP1 RETURN JUMPDEST POP CALLVALUE PUSH2 0x487 JUMPI PUSH1 0x20 CALLDATASIZE PUSH1 0x3 NOT ADD SLT PUSH2 0x487 JUMPI PUSH2 0x170E PUSH2 0x3DE4 JUMP JUMPDEST PUSH1 0x4 CALLDATALOAD PUSH2 0x170 SSTORE DUP1 RETURN JUMPDEST POP CALLVALUE PUSH2 0x487 JUMPI DUP1 PUSH1 0x3 NOT CALLDATASIZE ADD SLT PUSH2 0x487 JUMPI PUSH1 0x20 PUSH2 0x184 SLOAD PUSH1 0x40 MLOAD SWAP1 DUP2 MSTORE RETURN JUMPDEST POP CALLVALUE PUSH2 0x487 JUMPI DUP1 PUSH1 0x3 NOT CALLDATASIZE ADD SLT PUSH2 0x487 JUMPI PUSH1 0x20 PUSH2 0x17B SLOAD PUSH1 0x40 MLOAD SWAP1 DUP2 MSTORE RETURN JUMPDEST POP CALLVALUE PUSH2 0x487 JUMPI PUSH1 0x80 CALLDATASIZE PUSH1 0x3 NOT ADD SLT PUSH2 0x487 JUMPI PUSH1 0x1 PUSH1 0x1 PUSH1 0xA0 SHL SUB SWAP1 PUSH1 0x4 CALLDATALOAD DUP3 DUP2 AND SWAP2 SWAP1 DUP3 DUP2 SUB PUSH2 0x4FE JUMPI PUSH1 0x24 CALLDATALOAD DUP5 DUP2 AND SWAP5 DUP6 DUP3 SUB PUSH2 0x4FE JUMPI PUSH1 0x44 CALLDATALOAD SWAP3 DUP2 DUP5 AND DUP1 SWAP5 SUB PUSH2 0x4FE JUMPI PUSH1 0xFF PUSH2 0x17D SLOAD PUSH1 0x8 SHR AND ISZERO PUSH2 0x1942 JUMPI PUSH2 0x17B4 SWAP1 PUSH2 0x30A0 JUMP JUMPDEST PUSH2 0x167 PUSH2 0x17C1 DUP3 DUP3 PUSH2 0x2796 JUMP JUMPDEST SWAP6 SWAP1 SLOAD SWAP9 PUSH1 0x40 MLOAD SWAP7 PUSH4 0x70A08231 PUSH1 0xE0 SHL DUP9 MSTORE DUP2 PUSH1 0x4 DUP10 ADD MSTORE DUP8 PUSH1 0x24 DUP2 DUP9 PUSH1 0x20 SWAP15 DUP16 SWAP6 PUSH1 0x3 SHL SHR AND GAS STATICCALL SWAP7 DUP8 ISZERO PUSH2 0x1937 JUMPI DUP9 SWAP8 PUSH2 0x1908 JUMPI JUMPDEST POP DUP7 ISZERO PUSH2 0x18EA JUMPI PUSH2 0x181B PUSH2 0x180E DUP6 PUSH2 0x16A PUSH2 0x2796 JUMP JUMPDEST SWAP1 SLOAD SWAP1 PUSH1 0x3 SHL SHR DUP9 PUSH2 0x3E93 JUMP JUMPDEST SWAP9 PUSH1 0x64 CALLDATALOAD DUP11 DUP2 LT PUSH2 0x18E0 JUMPI JUMPDEST POP SWAP1 PUSH2 0x1864 SWAP5 SWAP4 SWAP3 SWAP2 PUSH32 0xFAAB3901CD2D6E9B5D0A0C6E34C643B8C844726F3C54DE69517E571BF24BBD92 PUSH1 0x40 DUP14 DUP14 DUP3 MLOAD SWAP2 DUP14 DUP4 MSTORE DUP3 ADD MSTORE LOG4 PUSH2 0x2796 JUMP JUMPDEST SWAP1 SLOAD SWAP1 PUSH1 0x3 SHL SHR AND SWAP1 DUP2 EXTCODESIZE ISZERO PUSH2 0x18DC JUMPI PUSH1 0x40 MLOAD PUSH4 0x2770A7EB PUSH1 0xE2 SHL DUP2 MSTORE PUSH1 0x1 PUSH1 0x1 PUSH1 0xA0 SHL SUB SWAP2 SWAP1 SWAP2 AND PUSH1 0x4 DUP3 ADD MSTORE PUSH1 0x24 DUP2 ADD SWAP3 SWAP1 SWAP3 MSTORE DUP3 SWAP1 DUP3 SWAP1 PUSH1 0x44 SWAP1 DUP3 SWAP1 DUP5 SWAP1 GAS CALL DUP1 ISZERO PUSH2 0x18D1 JUMPI PUSH2 0x18BC JUMPI JUMPDEST POP POP PUSH1 0x40 MLOAD SWAP1 DUP2 MSTORE RETURN JUMPDEST PUSH2 0x18C7 DUP3 DUP1 SWAP3 PUSH2 0x27D8 JUMP JUMPDEST PUSH2 0x487 JUMPI DUP1 PUSH2 0x18B2 JUMP JUMPDEST PUSH1 0x40 MLOAD RETURNDATASIZE DUP5 DUP3 RETURNDATACOPY RETURNDATASIZE SWAP1 REVERT JUMPDEST DUP4 DUP1 REVERT JUMPDEST SWAP10 POP PUSH2 0x1864 PUSH2 0x1827 JUMP JUMPDEST PUSH1 0x44 DUP8 PUSH1 0x40 MLOAD SWAP1 PUSH4 0x3FE8C5EB PUSH1 0xE0 SHL DUP3 MSTORE DUP1 PUSH1 0x4 DUP4 ADD MSTORE PUSH1 0x24 DUP3 ADD MSTORE REVERT JUMPDEST SWAP1 SWAP7 POP DUP10 DUP2 DUP2 RETURNDATASIZE DUP4 GT PUSH2 0x1930 JUMPI JUMPDEST PUSH2 0x1920 DUP2 DUP4 PUSH2 0x27D8 JUMP JUMPDEST DUP2 ADD SUB SLT PUSH2 0x4FE JUMPI MLOAD SWAP6 CODESIZE PUSH2 0x17F8 JUMP JUMPDEST POP RETURNDATASIZE PUSH2 0x1916 JUMP JUMPDEST PUSH1 0x40 MLOAD RETURNDATASIZE DUP11 DUP3 RETURNDATACOPY RETURNDATASIZE SWAP1 REVERT JUMPDEST PUSH1 0x40 MLOAD PUSH4 0x31B0D35 PUSH1 0xE1 SHL DUP2 MSTORE PUSH1 0x4 SWAP1 REVERT JUMPDEST POP CALLVALUE PUSH2 0x487 JUMPI DUP1 PUSH1 0x3 NOT CALLDATASIZE ADD SLT PUSH2 0x487 JUMPI PUSH2 0x196D PUSH2 0x3DE4 JUMP JUMPDEST PUSH1 0x1 PUSH1 0xFF NOT PUSH1 0xCA SLOAD AND OR PUSH1 0xCA SSTORE DUP1 RETURN JUMPDEST POP CALLVALUE PUSH2 0x487 JUMPI DUP1 PUSH1 0x3 NOT CALLDATASIZE ADD SLT PUSH2 0x487 JUMPI PUSH1 0x20 PUSH2 0x1998 PUSH2 0x3C92 JUMP JUMPDEST POP PUSH1 0x40 MLOAD SWAP1 DUP2 MSTORE RETURN JUMPDEST POP CALLVALUE PUSH2 0x487 JUMPI PUSH1 0x20 CALLDATASIZE PUSH1 0x3 NOT ADD SLT PUSH2 0x487 JUMPI PUSH2 0x19BB PUSH2 0x3DE4 JUMP JUMPDEST PUSH1 0x4 CALLDATALOAD PUSH2 0x189 SSTORE DUP1 RETURN JUMPDEST POP CALLVALUE PUSH2 0x487 JUMPI DUP1 PUSH1 0x3 NOT CALLDATASIZE ADD SLT PUSH2 0x487 JUMPI PUSH2 0x161 SLOAD PUSH1 0x40 MLOAD PUSH1 0x1 PUSH1 0x1 PUSH1 0xA0 SHL SUB SWAP1 SWAP2 AND DUP2 MSTORE PUSH1 0x20 SWAP1 RETURN JUMPDEST POP CALLVALUE PUSH2 0x487 JUMPI DUP1 PUSH1 0x3 NOT CALLDATASIZE ADD SLT PUSH2 0x487 JUMPI PUSH2 0x165 SLOAD PUSH1 0x40 MLOAD PUSH1 0x1 PUSH1 0x1 PUSH1 0xA0 SHL SUB SWAP1 SWAP2 AND DUP2 MSTORE PUSH1 0x20 SWAP1 RETURN JUMPDEST POP CALLVALUE PUSH2 0x487 JUMPI DUP1 PUSH1 0x3 NOT CALLDATASIZE ADD SLT PUSH2 0x487 JUMPI PUSH1 0x20 PUSH1 0xFF PUSH1 0xCA SLOAD PUSH1 0x8 SHR AND PUSH1 0x40 MLOAD SWAP1 ISZERO ISZERO DUP2 MSTORE RETURN JUMPDEST POP CALLVALUE PUSH2 0x487 JUMPI DUP1 PUSH1 0x3 NOT CALLDATASIZE ADD SLT PUSH2 0x487 JUMPI PUSH1 0x20 PUSH2 0x187 SLOAD PUSH1 0x40 MLOAD SWAP1 DUP2 MSTORE RETURN JUMPDEST POP CALLVALUE PUSH2 0x487 JUMPI PUSH1 0x20 CALLDATASIZE PUSH1 0x3 NOT ADD SLT PUSH2 0x487 JUMPI PUSH2 0x1A78 PUSH2 0x3DE4 JUMP JUMPDEST PUSH1 0x4 CALLDATALOAD PUSH2 0x175 SSTORE DUP1 RETURN JUMPDEST POP CALLVALUE PUSH2 0x487 JUMPI DUP1 PUSH1 0x3 NOT CALLDATASIZE ADD SLT PUSH2 0x487 JUMPI PUSH32 0x0 PUSH1 0x1 PUSH1 0x1 PUSH1 0xA0 SHL SUB AND ADDRESS SUB PUSH2 0x1AED JUMPI PUSH1 0x20 PUSH1 0x40 MLOAD PUSH32 0x360894A13BA1A3210667C828492DB98DCA3E2076CC3735A920A3CA505D382BBC DUP2 MSTORE RETURN JUMPDEST PUSH1 0x40 MLOAD PUSH3 0x461BCD PUSH1 0xE5 SHL DUP2 MSTORE PUSH1 0x20 PUSH1 0x4 DUP3 ADD MSTORE PUSH1 0x38 PUSH1 0x24 DUP3 ADD MSTORE PUSH32 0x555550535570677261646561626C653A206D757374206E6F742062652063616C PUSH1 0x44 DUP3 ADD MSTORE PUSH32 0x6C6564207468726F7567682064656C656761746563616C6C0000000000000000 PUSH1 0x64 DUP3 ADD MSTORE PUSH1 0x84 SWAP1 REVERT JUMPDEST POP CALLVALUE PUSH2 0x487 JUMPI DUP1 PUSH1 0x3 NOT CALLDATASIZE ADD SLT PUSH2 0x487 JUMPI PUSH2 0x1B71 PUSH2 0x3DE4 JUMP JUMPDEST PUSH1 0xFF NOT PUSH1 0xCA SLOAD AND PUSH1 0xCA SSTORE DUP1 RETURN JUMPDEST POP PUSH1 0x40 CALLDATASIZE PUSH1 0x3 NOT ADD SLT PUSH2 0x487 JUMPI PUSH1 0x1 PUSH1 0x1 PUSH1 0xA0 SHL SUB PUSH1 0x4 CALLDATALOAD DUP2 DUP2 AND DUP2 SUB PUSH2 0x4FE JUMPI DUP3 SWAP2 PUSH1 0x24 CALLDATALOAD SWAP2 PUSH8 0xFFFFFFFFFFFFFFFF DUP4 GT PUSH2 0x1C6D JUMPI CALLDATASIZE PUSH1 0x23 DUP5 ADD SLT ISZERO PUSH2 0x1C6D JUMPI DUP3 PUSH1 0x4 ADD CALLDATALOAD PUSH2 0x1BCD DUP2 PUSH2 0x28A4 JUMP JUMPDEST SWAP3 PUSH2 0x1BDB PUSH1 0x40 MLOAD SWAP5 DUP6 PUSH2 0x27D8 JUMP JUMPDEST DUP2 DUP5 MSTORE CALLDATASIZE PUSH1 0x24 DUP4 DUP8 ADD ADD GT PUSH2 0x1C69 JUMPI PUSH2 0xE34 SWAP6 PUSH1 0x20 DUP4 PUSH2 0x1C5C SWAP5 PUSH1 0x24 PUSH1 0x1 SWAP10 ADD DUP4 DUP10 ADD CALLDATACOPY DUP7 ADD ADD MSTORE DUP1 PUSH32 0x0 AND SWAP1 PUSH2 0x1C33 DUP3 ADDRESS EQ ISZERO PUSH2 0x28C0 JUMP JUMPDEST PUSH32 0x360894A13BA1A3210667C828492DB98DCA3E2076CC3735A920A3CA505D382BBC SLOAD AND EQ PUSH2 0x2921 JUMP JUMPDEST PUSH2 0x1C64 PUSH2 0x3DE4 JUMP JUMPDEST PUSH2 0x2982 JUMP JUMPDEST DUP6 DUP1 REVERT JUMPDEST POP POP POP REVERT JUMPDEST POP CALLVALUE PUSH2 0x487 JUMPI DUP1 PUSH1 0x3 NOT CALLDATASIZE ADD SLT PUSH2 0x487 JUMPI PUSH1 0x20 PUSH2 0x16D SLOAD PUSH1 0x40 MLOAD SWAP1 DUP2 MSTORE RETURN JUMPDEST POP CALLVALUE PUSH2 0x487 JUMPI DUP1 PUSH1 0x3 NOT CALLDATASIZE ADD SLT PUSH2 0x487 JUMPI PUSH2 0x179 SLOAD PUSH1 0x40 MLOAD PUSH1 0x1 PUSH1 0x1 PUSH1 0xA0 SHL SUB SWAP1 SWAP2 AND DUP2 MSTORE PUSH1 0x20 SWAP1 RETURN JUMPDEST POP CALLVALUE PUSH2 0x487 JUMPI DUP1 PUSH1 0x3 NOT CALLDATASIZE ADD SLT PUSH2 0x487 JUMPI PUSH1 0x20 PUSH2 0x17E SLOAD PUSH1 0x40 MLOAD SWAP1 DUP2 MSTORE RETURN JUMPDEST POP CALLVALUE PUSH2 0x487 JUMPI PUSH1 0x20 CALLDATASIZE PUSH1 0x3 NOT ADD SLT PUSH2 0x487 JUMPI PUSH1 0x4 CALLDATALOAD SWAP1 PUSH2 0x169 SWAP1 DUP2 SLOAD DUP4 LT ISZERO PUSH2 0x487 JUMPI PUSH1 0x40 PUSH2 0x1D09 DUP5 DUP5 PUSH2 0x2888 JUMP JUMPDEST POP DUP1 SLOAD PUSH1 0x1 SWAP1 SWAP2 ADD SLOAD DUP3 MLOAD SWAP2 DUP3 MSTORE PUSH1 0x1 PUSH1 0x1 PUSH1 0xA0 SHL SUB AND PUSH1 0x20 DUP3 ADD MSTORE RETURN JUMPDEST POP CALLVALUE PUSH2 0x487 JUMPI DUP1 PUSH1 0x3 NOT CALLDATASIZE ADD SLT PUSH2 0x487 JUMPI PUSH1 0x20 PUSH2 0x170 SLOAD PUSH1 0x40 MLOAD SWAP1 DUP2 MSTORE RETURN JUMPDEST POP CALLVALUE PUSH2 0x487 JUMPI DUP1 PUSH1 0x3 NOT CALLDATASIZE ADD SLT PUSH2 0x487 JUMPI PUSH1 0xCA SLOAD PUSH1 0xFF DUP2 PUSH1 0x8 SHR AND ISZERO PUSH2 0x1DAF JUMPI PUSH1 0x10 DUP2 SWAP1 SHR PUSH1 0x1 PUSH1 0x1 PUSH1 0xA0 SHL SUB AND CALLER SUB PUSH2 0x1493 JUMPI PUSH2 0xFF00 NOT AND PUSH1 0xCA SSTORE PUSH32 0x5DB9EE0A495BF2E6FF9C91A7834C1BA4FDD244A5E8AA4E537BD38AEAE4B073AA PUSH1 0x20 PUSH1 0x40 MLOAD CALLER DUP2 MSTORE LOG1 DUP1 RETURN JUMPDEST PUSH1 0x40 MLOAD PUSH4 0x7C7FD079 PUSH1 0xE0 SHL DUP2 MSTORE PUSH1 0x4 SWAP1 REVERT JUMPDEST POP CALLVALUE PUSH2 0x487 JUMPI PUSH1 0x20 CALLDATASIZE PUSH1 0x3 NOT ADD SLT PUSH2 0x487 JUMPI PUSH2 0x1DDB PUSH2 0x3DE4 JUMP JUMPDEST PUSH1 0x4 CALLDATALOAD PUSH2 0x1C0 SSTORE DUP1 RETURN JUMPDEST POP CALLVALUE PUSH2 0x487 JUMPI PUSH1 0x20 CALLDATASIZE PUSH1 0x3 NOT ADD SLT PUSH2 0x487 JUMPI PUSH1 0x4 CALLDATALOAD SWAP1 PUSH2 0x16A SWAP1 DUP2 SLOAD DUP4 LT ISZERO PUSH2 0x487 JUMPI PUSH1 0x20 PUSH2 0x1551 DUP5 DUP5 PUSH2 0x2796 JUMP JUMPDEST POP CALLVALUE PUSH2 0x487 JUMPI PUSH1 0x20 CALLDATASIZE PUSH1 0x3 NOT ADD SLT PUSH2 0x487 JUMPI PUSH1 0x4 CALLDATALOAD PUSH1 0x1 PUSH1 0x1 PUSH1 0xA0 SHL SUB DUP1 DUP3 AND DUP3 SUB PUSH2 0x4FE JUMPI PUSH2 0xE34 SWAP2 PUSH2 0x1E73 DUP3 DUP6 SWAP4 PUSH32 0x0 AND SWAP1 PUSH2 0x1C33 DUP3 ADDRESS EQ ISZERO PUSH2 0x28C0 JUMP JUMPDEST PUSH2 0x1E7B PUSH2 0x3DE4 JUMP JUMPDEST PUSH2 0x1E84 DUP3 PUSH2 0x28A4 JUMP JUMPDEST SWAP1 PUSH2 0x1E92 PUSH1 0x40 MLOAD SWAP3 DUP4 PUSH2 0x27D8 JUMP JUMPDEST DUP3 DUP3 MSTORE PUSH1 0x1F NOT PUSH2 0x1EA1 DUP5 PUSH2 0x28A4 JUMP JUMPDEST ADD CALLDATASIZE PUSH1 0x20 DUP5 ADD CALLDATACOPY PUSH2 0x2982 JUMP JUMPDEST POP CALLVALUE PUSH2 0x487 JUMPI DUP1 PUSH1 0x3 NOT CALLDATASIZE ADD SLT PUSH2 0x487 JUMPI PUSH2 0x1EC6 PUSH2 0x3E72 JUMP JUMPDEST PUSH2 0x17D DUP1 SLOAD PUSH1 0xFF DUP2 AND DUP1 PUSH2 0x1F90 JUMPI JUMPDEST DUP1 PUSH2 0x1F76 JUMPI JUMPDEST PUSH2 0x1EE3 JUMPI DUP3 DUP1 RETURN JUMPDEST PUSH2 0xFF00 NOT AND PUSH2 0x100 OR SWAP1 SSTORE PUSH1 0x40 MLOAD PUSH32 0x8B77276C97A5709F0D6DB52329848A254EB760CE8BE80D281799F633BDB69E83 DUP3 DUP1 LOG1 PUSH2 0x165 SLOAD DUP3 SWAP1 PUSH1 0x1 PUSH1 0x1 PUSH1 0xA0 SHL SUB AND DUP1 EXTCODESIZE ISZERO PUSH2 0x870 JUMPI DUP3 PUSH1 0x4 DUP2 DUP5 DUP1 SWAP5 PUSH4 0x8456CB59 PUSH1 0xE0 SHL DUP4 MSTORE GAS CALL DUP1 ISZERO PUSH2 0x1F69 JUMPI PUSH2 0x1F59 JUMPI JUMPDEST POP POP PUSH2 0x1F53 PUSH2 0x2FF2 JUMP JUMPDEST CODESIZE DUP1 DUP3 DUP1 RETURN JUMPDEST PUSH2 0x1F62 SWAP2 PUSH2 0x27D8 JUMP JUMPDEST CODESIZE DUP2 PUSH2 0x1F49 JUMP JUMPDEST POP PUSH1 0x40 MLOAD SWAP1 RETURNDATASIZE SWAP1 DUP3 RETURNDATACOPY RETURNDATASIZE SWAP1 REVERT JUMPDEST POP PUSH2 0x1F85 PUSH2 0x11A9 PUSH2 0x11A4 PUSH2 0x3181 JUMP JUMPDEST PUSH2 0x17C SLOAD LT ISZERO PUSH2 0x1EDB JUMP JUMPDEST POP PUSH1 0xFF DUP2 PUSH1 0x8 SHR AND ISZERO PUSH2 0x1ED5 JUMP JUMPDEST POP CALLVALUE PUSH2 0x487 JUMPI DUP1 PUSH1 0x3 NOT CALLDATASIZE ADD SLT PUSH2 0x487 JUMPI PUSH1 0x20 PUSH2 0x171 SLOAD PUSH1 0x40 MLOAD SWAP1 DUP2 MSTORE RETURN JUMPDEST POP PUSH2 0x100 CALLDATASIZE PUSH1 0x3 NOT ADD SLT PUSH2 0x487 JUMPI PUSH2 0x1FD6 CALLDATASIZE PUSH1 0x4 PUSH2 0x2810 JUMP JUMPDEST PUSH1 0x1 PUSH1 0x1 PUSH1 0xA0 SHL SUB SWAP1 PUSH1 0xE4 CALLDATALOAD DUP3 DUP2 AND DUP2 SUB PUSH2 0x18DC JUMPI PUSH2 0x1FF3 PUSH2 0x33C7 JUMP JUMPDEST POP PUSH2 0x1FFC PUSH2 0x3D50 JUMP JUMPDEST PUSH2 0x2004 PUSH2 0x3C92 JUMP JUMPDEST SWAP2 SWAP1 SWAP4 PUSH2 0x2013 DUP2 DUP6 MLOAD AND PUSH2 0x30A0 JUMP JUMPDEST SWAP1 PUSH2 0x202D PUSH2 0x2021 DUP4 DUP7 PUSH2 0x2D61 JUMP JUMPDEST MLOAD SWAP5 PUSH2 0x92C DUP7 DUP6 PUSH2 0x3572 JUMP JUMPDEST SWAP7 PUSH8 0xDE0B6B3A763FFFF NOT SWAP1 DUP2 DUP2 ADD SWAP1 DUP2 GT PUSH2 0x2198 JUMPI PUSH2 0x204D SWAP1 DUP8 PUSH2 0x2E99 JUMP JUMPDEST PUSH2 0x2057 DUP8 DUP7 PUSH2 0x3BEF JUMP JUMPDEST SWAP2 DUP3 ADD SWAP2 DUP3 GT PUSH2 0x2198 JUMPI PUSH2 0x209C SWAP6 SWAP5 SWAP4 SWAP3 SWAP2 PUSH2 0x2072 SWAP2 PUSH2 0x2EAC JUMP JUMPDEST SWAP1 PUSH2 0x2086 PUSH1 0x20 DUP10 ADD SWAP3 PUSH2 0x1024 DUP4 DUP6 MLOAD PUSH2 0x2E99 JUMP JUMPDEST PUSH8 0xDE0B6B3A7640000 SWAP7 DUP8 SWAP2 PUSH2 0x166 SLOAD SWAP1 PUSH2 0x2EAC JUMP JUMPDEST DIV SWAP9 PUSH1 0x40 DUP10 ADD MLOAD DUP1 DUP12 GT PUSH2 0x217A JUMPI POP PUSH2 0x20B7 SWAP1 DUP4 MLOAD SWAP3 PUSH2 0x35C3 JUMP JUMPDEST SWAP7 DUP7 DUP11 MUL DUP11 DUP2 DIV DUP9 EQ DUP12 ISZERO OR ISZERO PUSH2 0x2166 JUMPI SWAP1 PUSH2 0x20D2 SWAP2 PUSH2 0x2EAC JUMP JUMPDEST SWAP1 DUP2 ISZERO PUSH2 0xA63 JUMPI PUSH2 0x20F6 PUSH2 0x211B SWAP8 PUSH2 0x20EF PUSH1 0x60 SWAP11 PUSH2 0x2110 SWAP5 PUSH2 0x2E99 JUMP JUMPDEST DIV DUP4 PUSH2 0x2D75 JUMP JUMPDEST SWAP4 DUP5 DUP2 PUSH1 0x80 DUP13 ADD MLOAD AND SWAP2 PUSH1 0xC0 DUP13 ADD MLOAD AND PUSH2 0x173 SLOAD SWAP3 PUSH2 0x35F2 JUMP JUMPDEST SWAP9 SWAP2 DUP6 SWAP9 SWAP2 SWAP9 PUSH2 0x2F5E JUMP JUMPDEST SWAP9 ADD MLOAD DUP1 DUP10 LT PUSH2 0x2148 JUMPI POP SWAP3 PUSH2 0x2143 DUP6 DUP11 SWAP12 SWAP5 PUSH2 0xA5F SWAP11 SWAP12 SWAP5 PUSH2 0x1334 PUSH1 0x1 PUSH2 0xA1C SWAP11 SWAP10 PUSH2 0x388A JUMP JUMPDEST PUSH2 0x3944 JUMP JUMPDEST PUSH1 0x44 SWAP1 DUP10 PUSH1 0x40 MLOAD SWAP2 PUSH4 0x54CDE313 PUSH1 0xE0 SHL DUP4 MSTORE PUSH1 0x4 DUP4 ADD MSTORE PUSH1 0x24 DUP3 ADD MSTORE REVERT JUMPDEST PUSH4 0x4E487B71 PUSH1 0xE0 SHL DUP13 MSTORE PUSH1 0x11 PUSH1 0x4 MSTORE PUSH1 0x24 DUP13 REVERT JUMPDEST PUSH1 0x44 SWAP1 DUP12 PUSH1 0x40 MLOAD SWAP2 PUSH4 0x7A031DA3 PUSH1 0xE1 SHL DUP4 MSTORE PUSH1 0x4 DUP4 ADD MSTORE PUSH1 0x24 DUP3 ADD MSTORE REVERT JUMPDEST PUSH4 0x4E487B71 PUSH1 0xE0 SHL DUP11 MSTORE PUSH1 0x11 PUSH1 0x4 MSTORE PUSH1 0x24 DUP11 REVERT JUMPDEST POP CALLDATASIZE PUSH1 0x3 NOT ADD SWAP1 PUSH2 0x120 DUP3 SLT PUSH2 0x487 JUMPI PUSH2 0x100 DUP1 SWAP3 SLT PUSH2 0x487 JUMPI PUSH2 0x21D3 PUSH1 0x40 MLOAD SWAP3 DUP4 PUSH2 0x27D8 JUMP JUMPDEST PUSH1 0x4 CALLDATALOAD PUSH1 0x1 PUSH1 0x1 PUSH1 0xA0 SHL SUB DUP2 AND DUP2 SUB PUSH2 0x870 JUMPI DUP3 MSTORE PUSH1 0x24 CALLDATALOAD SWAP1 PUSH1 0x1 PUSH1 0x1 PUSH1 0xA0 SHL SUB DUP3 AND DUP3 SUB PUSH2 0x487 JUMPI PUSH1 0x20 DUP4 ADD SWAP2 DUP3 MSTORE PUSH1 0x44 CALLDATALOAD PUSH1 0x40 DUP5 ADD MSTORE PUSH1 0x64 CALLDATALOAD PUSH1 0x60 DUP5 ADD SWAP1 DUP2 MSTORE PUSH1 0x84 CALLDATALOAD PUSH1 0x80 DUP6 ADD MSTORE SWAP3 PUSH1 0xA4 CALLDATALOAD PUSH1 0x1 PUSH1 0x1 PUSH1 0xA0 SHL SUB DUP2 AND DUP2 SUB PUSH2 0x240A JUMPI PUSH1 0xA0 DUP3 ADD MSTORE PUSH1 0xC4 CALLDATALOAD PUSH1 0x1 PUSH1 0x1 PUSH1 0xA0 SHL SUB DUP2 AND DUP2 SUB PUSH2 0x240A JUMPI PUSH1 0xC0 DUP3 ADD MSTORE PUSH1 0xE4 CALLDATALOAD PUSH1 0x1 PUSH1 0x1 PUSH1 0xA0 SHL SUB DUP2 AND DUP2 SUB PUSH2 0x240A JUMPI PUSH1 0xE0 DUP3 ADD MSTORE PUSH2 0x104 CALLDATALOAD PUSH1 0x1 PUSH1 0x1 PUSH1 0xA0 SHL SUB DUP2 AND SWAP1 SUB PUSH2 0x870 JUMPI PUSH2 0x2282 PUSH2 0x33C7 JUMP JUMPDEST POP DUP1 MLOAD DUP4 MLOAD PUSH1 0x1 PUSH1 0x1 PUSH1 0xA0 SHL SUB SWAP1 DUP2 AND SWAP2 AND EQ PUSH2 0x23F8 JUMPI DUP1 MLOAD PUSH2 0x22C1 SWAP1 PUSH2 0x22B1 SWAP1 PUSH1 0x1 PUSH1 0x1 PUSH1 0xA0 SHL SUB AND PUSH2 0x30A0 JUMP JUMPDEST SWAP4 MLOAD PUSH1 0x1 PUSH1 0x1 PUSH1 0xA0 SHL SUB AND PUSH2 0x30A0 JUMP JUMPDEST SWAP1 PUSH2 0x22CB DUP5 PUSH2 0x30C9 JUMP JUMPDEST PUSH2 0x22D4 DUP4 PUSH2 0x30C9 JUMP JUMPDEST PUSH2 0x22DE DUP3 DUP8 PUSH2 0x3572 JUMP JUMPDEST PUSH2 0x22E8 DUP2 DUP6 PUSH2 0x3572 JUMP JUMPDEST PUSH2 0x22F6 DUP3 PUSH1 0x40 DUP6 ADD MLOAD PUSH2 0x3E93 JUMP JUMPDEST SWAP2 PUSH2 0x2309 DUP2 PUSH2 0x96E DUP5 PUSH1 0x40 DUP9 ADD MLOAD PUSH2 0x2E99 JUMP JUMPDEST SWAP8 MLOAD DUP1 DUP10 LT DUP1 ISZERO PUSH2 0x23F0 JUMPI JUMPDEST PUSH2 0x1343 JUMPI POP SWAP1 PUSH2 0x235D SWAP3 SWAP2 PUSH2 0x2334 PUSH2 0x232D DUP4 DUP9 PUSH2 0x3BEF JUMP JUMPDEST SWAP2 DUP10 PUSH2 0x3BEF JUMP JUMPDEST LT PUSH2 0x23C1 JUMPI JUMPDEST POP PUSH1 0xA0 DUP4 ADD MLOAD PUSH1 0xE0 DUP5 ADD MLOAD PUSH2 0x170 SLOAD SWAP3 SWAP2 PUSH1 0x1 PUSH1 0x1 PUSH1 0xA0 SHL SUB SWAP2 DUP3 AND SWAP2 AND PUSH2 0x35F2 JUMP JUMPDEST SWAP5 SWAP2 SWAP6 SWAP1 SWAP4 PUSH1 0x80 DUP5 ADD MLOAD DUP1 DUP9 GT PUSH2 0x23A2 JUMPI POP SWAP2 PUSH2 0xA5F SWAP6 SWAP5 SWAP4 SWAP2 PUSH2 0x2393 PUSH2 0xA1C SWAP5 DUP4 DUP12 PUSH1 0x1 DUP1 PUSH1 0xA0 SHL SUB PUSH1 0xC0 DUP9 ADD MLOAD AND SWAP3 PUSH2 0x33EE JUMP JUMPDEST PUSH1 0x40 PUSH2 0x104 CALLDATALOAD SWAP4 ADD MLOAD SWAP1 PUSH2 0x3944 JUMP JUMPDEST PUSH1 0x44 SWAP1 DUP8 MLOAD PUSH1 0x40 MLOAD SWAP2 PUSH4 0xB63F1A7 PUSH1 0xE0 SHL DUP4 MSTORE PUSH1 0x4 DUP4 ADD MSTORE PUSH1 0x24 DUP3 ADD MSTORE REVERT JUMPDEST PUSH2 0x23E0 PUSH2 0x23EA SWAP2 PUSH2 0x23D0 PUSH2 0x3D50 JUMP JUMPDEST PUSH2 0x23D8 PUSH2 0x3C92 JUMP JUMPDEST DUP2 SWAP4 SWAP2 PUSH2 0x352F JUMP JUMPDEST SWAP3 SWAP1 SWAP2 DUP12 DUP10 PUSH2 0x3A43 JUMP JUMPDEST CODESIZE PUSH2 0x233A JUMP JUMPDEST POP DUP9 ISZERO PUSH2 0x2315 JUMP JUMPDEST PUSH1 0x40 MLOAD PUSH4 0x2A9FFAB7 PUSH1 0xE2 SHL DUP2 MSTORE PUSH1 0x4 SWAP1 REVERT JUMPDEST DUP3 DUP1 REVERT JUMPDEST POP CALLVALUE PUSH2 0x487 JUMPI DUP1 PUSH1 0x3 NOT CALLDATASIZE ADD SLT PUSH2 0x487 JUMPI PUSH1 0x20 PUSH2 0x175 SLOAD PUSH1 0x40 MLOAD SWAP1 DUP2 MSTORE RETURN JUMPDEST POP CALLVALUE PUSH2 0x487 JUMPI PUSH1 0x20 CALLDATASIZE PUSH1 0x3 NOT ADD SLT PUSH2 0x487 JUMPI PUSH1 0x4 CALLDATALOAD PUSH1 0x1 PUSH1 0x1 PUSH1 0xA0 SHL SUB DUP2 AND DUP2 SUB PUSH2 0x870 JUMPI PUSH2 0x245A PUSH2 0x3DE4 JUMP JUMPDEST PUSH1 0xCA DUP1 SLOAD PUSH3 0x10000 PUSH1 0x1 PUSH1 0xB0 SHL SUB NOT AND PUSH1 0x10 SWAP3 SWAP1 SWAP3 SHL PUSH3 0x10000 PUSH1 0x1 PUSH1 0xB0 SHL SUB AND SWAP2 SWAP1 SWAP2 OR SWAP1 SSTORE DUP1 RETURN JUMPDEST POP CALLVALUE PUSH2 0x487 JUMPI PUSH1 0x20 CALLDATASIZE PUSH1 0x3 NOT ADD SLT PUSH2 0x487 JUMPI PUSH2 0x249E PUSH2 0x3DE4 JUMP JUMPDEST PUSH1 0x4 CALLDATALOAD PUSH2 0x17C SSTORE DUP1 RETURN JUMPDEST POP CALLVALUE PUSH2 0x487 JUMPI DUP1 PUSH1 0x3 NOT CALLDATASIZE ADD SLT PUSH2 0x487 JUMPI PUSH1 0x20 PUSH2 0x172 SLOAD PUSH1 0x40 MLOAD SWAP1 DUP2 MSTORE RETURN JUMPDEST POP CALLVALUE PUSH2 0x487 JUMPI PUSH1 0x20 CALLDATASIZE PUSH1 0x3 NOT ADD SLT PUSH2 0x487 JUMPI PUSH1 0x4 CALLDATALOAD PUSH1 0x1 PUSH1 0x1 PUSH1 0xA0 SHL SUB DUP2 AND SWAP1 DUP2 SWAP1 SUB PUSH2 0x870 JUMPI PUSH2 0x24F6 PUSH2 0x3DE4 JUMP JUMPDEST PUSH2 0x179 DUP1 SLOAD PUSH1 0x1 PUSH1 0x1 PUSH1 0xA0 SHL SUB NOT AND SWAP1 SWAP2 OR SWAP1 SSTORE DUP1 RETURN JUMPDEST POP CALLVALUE PUSH2 0x487 JUMPI PUSH1 0x20 CALLDATASIZE PUSH1 0x3 NOT ADD SLT PUSH2 0x487 JUMPI PUSH1 0x4 CALLDATALOAD PUSH1 0x1 PUSH1 0x1 PUSH1 0xA0 SHL SUB DUP2 AND SWAP1 DUP2 SWAP1 SUB PUSH2 0x870 JUMPI DUP2 PUSH1 0x40 SWAP2 PUSH1 0x20 SWAP4 MSTORE PUSH2 0x176 DUP4 MSTORE KECCAK256 SLOAD PUSH1 0x40 MLOAD SWAP1 DUP2 MSTORE RETURN JUMPDEST POP CALLVALUE PUSH2 0x487 JUMPI DUP1 PUSH1 0x3 NOT CALLDATASIZE ADD SLT PUSH2 0x487 JUMPI PUSH1 0x20 PUSH1 0xFF PUSH2 0x17D SLOAD PUSH1 0x8 SHR AND PUSH1 0x40 MLOAD SWAP1 ISZERO ISZERO DUP2 MSTORE RETURN JUMPDEST POP CALLVALUE PUSH2 0x487 JUMPI PUSH1 0x20 CALLDATASIZE PUSH1 0x3 NOT ADD SLT PUSH2 0x487 JUMPI PUSH2 0x258C PUSH2 0x3DE4 JUMP JUMPDEST PUSH1 0x4 CALLDATALOAD PUSH2 0x174 SSTORE DUP1 RETURN JUMPDEST POP CALLVALUE PUSH2 0x487 JUMPI PUSH1 0x20 CALLDATASIZE PUSH1 0x3 NOT ADD SLT PUSH2 0x487 JUMPI PUSH1 0x4 CALLDATALOAD DUP1 ISZERO ISZERO DUP1 SWAP2 SUB PUSH2 0x870 JUMPI PUSH2 0x25BD PUSH2 0x3DE4 JUMP JUMPDEST PUSH2 0x17D SWAP1 PUSH1 0xFF DUP1 NOT DUP4 SLOAD AND SWAP2 AND OR SWAP1 SSTORE DUP1 RETURN JUMPDEST POP CALLVALUE PUSH2 0x487 JUMPI DUP1 PUSH1 0x3 NOT CALLDATASIZE ADD SLT PUSH2 0x487 JUMPI PUSH1 0x20 PUSH2 0x17F SLOAD PUSH1 0x40 MLOAD SWAP1 DUP2 MSTORE RETURN JUMPDEST POP CALLVALUE PUSH2 0x487 JUMPI PUSH1 0x20 CALLDATASIZE PUSH1 0x3 NOT ADD SLT PUSH2 0x487 JUMPI PUSH1 0x4 CALLDATALOAD PUSH1 0x1 PUSH1 0x1 PUSH1 0xA0 SHL SUB DUP2 AND SWAP1 DUP2 SWAP1 SUB PUSH2 0x870 JUMPI PUSH2 0x261E PUSH2 0x3DE4 JUMP JUMPDEST PUSH2 0x162 DUP1 SLOAD PUSH1 0x1 PUSH1 0x1 PUSH1 0xA0 SHL SUB NOT AND SWAP1 SWAP2 OR SWAP1 SSTORE DUP1 RETURN JUMPDEST POP CALLVALUE PUSH2 0x487 JUMPI PUSH1 0x20 CALLDATASIZE PUSH1 0x3 NOT ADD SLT PUSH2 0x487 JUMPI PUSH2 0x264F PUSH2 0x3DE4 JUMP JUMPDEST PUSH1 0x4 CALLDATALOAD PUSH2 0x171 SSTORE DUP1 RETURN JUMPDEST POP CALLVALUE PUSH2 0x487 JUMPI DUP1 PUSH1 0x3 NOT CALLDATASIZE ADD SLT PUSH2 0x487 JUMPI PUSH1 0x20 PUSH2 0x189 SLOAD PUSH1 0x40 MLOAD SWAP1 DUP2 MSTORE RETURN JUMPDEST POP CALLVALUE PUSH2 0x487 JUMPI PUSH1 0x20 CALLDATASIZE PUSH1 0x3 NOT ADD SLT PUSH2 0x487 JUMPI PUSH1 0x4 CALLDATALOAD PUSH1 0x1 PUSH1 0x1 PUSH1 0xA0 SHL SUB DUP2 AND SWAP1 DUP2 SWAP1 SUB PUSH2 0x870 JUMPI PUSH2 0x26A7 PUSH2 0x3DE4 JUMP JUMPDEST PUSH2 0x178 DUP1 SLOAD PUSH1 0x1 PUSH1 0x1 PUSH1 0xA0 SHL SUB NOT AND SWAP1 SWAP2 OR SWAP1 SSTORE DUP1 RETURN JUMPDEST POP CALLVALUE PUSH2 0x487 JUMPI DUP1 PUSH1 0x3 NOT CALLDATASIZE ADD SLT PUSH2 0x487 JUMPI PUSH1 0x20 PUSH2 0x1BF SLOAD PUSH1 0x40 MLOAD SWAP1 DUP2 MSTORE RETURN JUMPDEST POP CALLVALUE PUSH2 0x487 JUMPI DUP1 PUSH1 0x3 NOT CALLDATASIZE ADD SLT PUSH2 0x487 JUMPI PUSH1 0x97 SLOAD PUSH1 0x40 MLOAD PUSH1 0x1 PUSH1 0x1 PUSH1 0xA0 SHL SUB SWAP1 SWAP2 AND DUP2 MSTORE PUSH1 0x20 SWAP1 RETURN JUMPDEST POP CALLVALUE PUSH2 0x487 JUMPI PUSH1 0x20 CALLDATASIZE PUSH1 0x3 NOT ADD SLT PUSH2 0x487 JUMPI PUSH2 0x2720 PUSH2 0x3DE4 JUMP JUMPDEST PUSH1 0x4 CALLDATALOAD PUSH2 0x18A SSTORE DUP1 RETURN JUMPDEST POP CALLVALUE PUSH2 0x487 JUMPI PUSH1 0x20 CALLDATASIZE PUSH1 0x3 NOT ADD SLT PUSH2 0x487 JUMPI PUSH1 0x4 CALLDATALOAD SWAP1 PUSH2 0x167 SWAP1 DUP2 SLOAD DUP4 LT ISZERO PUSH2 0x487 JUMPI PUSH1 0x20 PUSH2 0x2759 DUP5 DUP5 PUSH2 0x2796 JUMP JUMPDEST SWAP1 SLOAD PUSH1 0x40 MLOAD PUSH1 0x3 SWAP3 SWAP1 SWAP3 SHL SHR PUSH1 0x1 PUSH1 0x1 PUSH1 0xA0 SHL SUB AND DUP2 MSTORE RETURN JUMPDEST POP CALLVALUE PUSH2 0x487 JUMPI PUSH1 0x20 CALLDATASIZE PUSH1 0x3 NOT ADD SLT PUSH2 0x487 JUMPI PUSH2 0x278C PUSH2 0x3DE4 JUMP JUMPDEST PUSH1 0x4 CALLDATALOAD PUSH2 0x16C SSTORE DUP1 RETURN JUMPDEST DUP1 SLOAD DUP3 LT ISZERO PUSH2 0x27AE JUMPI PUSH1 0x0 MSTORE PUSH1 0x20 PUSH1 0x0 KECCAK256 ADD SWAP1 PUSH1 0x0 SWAP1 JUMP JUMPDEST PUSH4 0x4E487B71 PUSH1 0xE0 SHL PUSH1 0x0 MSTORE PUSH1 0x32 PUSH1 0x4 MSTORE PUSH1 0x24 PUSH1 0x0 REVERT JUMPDEST CALLDATALOAD SWAP1 PUSH1 0x1 PUSH1 0x1 PUSH1 0xA0 SHL SUB DUP3 AND DUP3 SUB PUSH2 0x4FE JUMPI JUMP JUMPDEST SWAP1 PUSH1 0x1F DUP1 NOT SWAP2 ADD AND DUP2 ADD SWAP1 DUP2 LT PUSH8 0xFFFFFFFFFFFFFFFF DUP3 GT OR PUSH2 0x27FA JUMPI PUSH1 0x40 MSTORE JUMP JUMPDEST PUSH4 0x4E487B71 PUSH1 0xE0 SHL PUSH1 0x0 MSTORE PUSH1 0x41 PUSH1 0x4 MSTORE PUSH1 0x24 PUSH1 0x0 REVERT JUMPDEST SWAP2 SWAP1 DUP3 PUSH1 0xE0 SWAP2 SUB SLT PUSH2 0x4FE JUMPI PUSH1 0x40 MLOAD PUSH2 0x282A PUSH1 0xE0 DUP3 PUSH2 0x27D8 JUMP JUMPDEST PUSH1 0xC0 PUSH2 0x2883 DUP2 DUP4 SWAP6 PUSH2 0x283B DUP2 PUSH2 0x27C4 JUMP JUMPDEST DUP6 MSTORE PUSH1 0x20 DUP2 ADD CALLDATALOAD PUSH1 0x20 DUP7 ADD MSTORE PUSH1 0x40 DUP2 ADD CALLDATALOAD PUSH1 0x40 DUP7 ADD MSTORE PUSH1 0x60 DUP2 ADD CALLDATALOAD PUSH1 0x60 DUP7 ADD MSTORE PUSH2 0x2867 PUSH1 0x80 DUP3 ADD PUSH2 0x27C4 JUMP JUMPDEST PUSH1 0x80 DUP7 ADD MSTORE PUSH2 0x2878 PUSH1 0xA0 DUP3 ADD PUSH2 0x27C4 JUMP JUMPDEST PUSH1 0xA0 DUP7 ADD MSTORE ADD PUSH2 0x27C4 JUMP JUMPDEST SWAP2 ADD MSTORE JUMP JUMPDEST DUP1 SLOAD DUP3 LT ISZERO PUSH2 0x27AE JUMPI PUSH1 0x0 MSTORE PUSH1 0x20 PUSH1 0x0 KECCAK256 SWAP1 PUSH1 0x1 SHL ADD SWAP1 PUSH1 0x0 SWAP1 JUMP JUMPDEST PUSH8 0xFFFFFFFFFFFFFFFF DUP2 GT PUSH2 0x27FA JUMPI PUSH1 0x1F ADD PUSH1 0x1F NOT AND PUSH1 0x20 ADD SWAP1 JUMP JUMPDEST ISZERO PUSH2 0x28C7 JUMPI JUMP JUMPDEST PUSH1 0x40 MLOAD PUSH3 0x461BCD PUSH1 0xE5 SHL DUP2 MSTORE PUSH1 0x20 PUSH1 0x4 DUP3 ADD MSTORE PUSH1 0x2C PUSH1 0x24 DUP3 ADD MSTORE PUSH32 0x46756E6374696F6E206D7573742062652063616C6C6564207468726F75676820 PUSH1 0x44 DUP3 ADD MSTORE PUSH12 0x19195B1959D85D1958D85B1B PUSH1 0xA2 SHL PUSH1 0x64 DUP3 ADD MSTORE PUSH1 0x84 SWAP1 REVERT JUMPDEST ISZERO PUSH2 0x2928 JUMPI JUMP JUMPDEST PUSH1 0x40 MLOAD PUSH3 0x461BCD PUSH1 0xE5 SHL DUP2 MSTORE PUSH1 0x20 PUSH1 0x4 DUP3 ADD MSTORE PUSH1 0x2C PUSH1 0x24 DUP3 ADD MSTORE PUSH32 0x46756E6374696F6E206D7573742062652063616C6C6564207468726F75676820 PUSH1 0x44 DUP3 ADD MSTORE PUSH12 0x6163746976652070726F7879 PUSH1 0xA0 SHL PUSH1 0x64 DUP3 ADD MSTORE PUSH1 0x84 SWAP1 REVERT JUMPDEST SWAP1 SWAP2 PUSH1 0xFF PUSH32 0x4910FDFA16FED3260ED0E7147F7CC6DA11A60208B5B9406D12A635614FFD9143 SLOAD AND PUSH1 0x0 EQ PUSH2 0x29BD JUMPI POP PUSH2 0x29BB SWAP2 POP PUSH2 0x2BEB JUMP JUMPDEST JUMP JUMPDEST PUSH1 0x40 DUP1 MLOAD PUSH4 0x52D1902D PUSH1 0xE0 SHL DUP2 MSTORE PUSH1 0x20 SWAP5 SWAP2 SWAP4 SWAP3 SWAP1 PUSH1 0x1 PUSH1 0x1 PUSH1 0xA0 SHL SUB DUP5 AND SWAP1 DUP7 DUP2 PUSH1 0x4 DUP2 DUP6 GAS STATICCALL PUSH1 0x0 SWAP2 DUP2 PUSH2 0x2BBC JUMPI JUMPDEST POP PUSH2 0x2A4E JUMPI DUP6 MLOAD PUSH3 0x461BCD PUSH1 0xE5 SHL DUP2 MSTORE PUSH1 0x4 DUP2 ADD DUP9 SWAP1 MSTORE PUSH1 0x2E PUSH1 0x24 DUP3 ADD MSTORE PUSH32 0x45524331393637557067726164653A206E657720696D706C656D656E74617469 PUSH1 0x44 DUP3 ADD MSTORE PUSH14 0x6F6E206973206E6F742055555053 PUSH1 0x90 SHL PUSH1 0x64 DUP3 ADD MSTORE PUSH1 0x84 SWAP1 REVERT JUMPDEST SWAP4 SWAP6 SWAP3 SWAP5 SWAP3 SWAP4 PUSH32 0xC9F76B5EC45E5CDEF99837D7B6D2467235C1DF8933C8CA56DF5C35AFA2C7D444 ADD PUSH2 0x2B66 JUMPI PUSH2 0x2A83 DUP7 PUSH2 0x2BEB JUMP JUMPDEST PUSH32 0xBC7CD75A20EE27FD9ADEBAB32041F755214DBC6BFFA90CC0225B39DA2E5C2D3B PUSH1 0x0 DUP1 LOG2 DUP4 MLOAD ISZERO SWAP1 DUP2 ISZERO SWAP2 PUSH2 0x2B5E JUMPI JUMPDEST POP PUSH2 0x2AC0 JUMPI JUMPDEST POP POP POP POP JUMP JUMPDEST PUSH2 0x2B4A SWAP4 PUSH1 0x0 DUP1 PUSH2 0x2AD1 PUSH1 0x27 PUSH2 0x28A4 JUMP JUMPDEST SWAP6 PUSH2 0x2ADE DUP6 MLOAD SWAP8 DUP9 PUSH2 0x27D8 JUMP JUMPDEST PUSH1 0x27 DUP8 MSTORE PUSH32 0x416464726573733A206C6F772D6C6576656C2064656C65676174652063616C6C DUP7 DUP9 ADD MSTORE PUSH7 0x819985A5B1959 PUSH1 0xCA SHL DUP6 DUP9 ADD MSTORE DUP6 DUP2 MLOAD SWAP2 ADD DUP5 GAS DELEGATECALL SWAP2 RETURNDATASIZE ISZERO PUSH2 0x2B54 JUMPI RETURNDATASIZE PUSH2 0x2B3B PUSH2 0x2B32 DUP3 PUSH2 0x28A4 JUMP JUMPDEST SWAP3 MLOAD SWAP3 DUP4 PUSH2 0x27D8 JUMP JUMPDEST DUP2 MSTORE PUSH1 0x0 DUP2 SWAP5 RETURNDATASIZE SWAP3 ADD RETURNDATACOPY PUSH2 0x2C8D JUMP JUMPDEST POP CODESIZE DUP1 DUP1 DUP1 PUSH2 0x2ABA JUMP JUMPDEST POP PUSH1 0x60 SWAP3 POP PUSH2 0x2C8D JUMP JUMPDEST SWAP1 POP CODESIZE PUSH2 0x2AB4 JUMP JUMPDEST DUP3 MLOAD PUSH3 0x461BCD PUSH1 0xE5 SHL DUP2 MSTORE PUSH1 0x4 DUP2 ADD DUP6 SWAP1 MSTORE PUSH1 0x29 PUSH1 0x24 DUP3 ADD MSTORE PUSH32 0x45524331393637557067726164653A20756E737570706F727465642070726F78 PUSH1 0x44 DUP3 ADD MSTORE PUSH9 0x1A58589B1955555251 PUSH1 0xBA SHL PUSH1 0x64 DUP3 ADD MSTORE PUSH1 0x84 SWAP1 REVERT JUMPDEST SWAP1 SWAP2 DUP9 DUP3 DUP2 RETURNDATASIZE DUP4 GT PUSH2 0x2BE4 JUMPI JUMPDEST PUSH2 0x2BD3 DUP2 DUP4 PUSH2 0x27D8 JUMP JUMPDEST DUP2 ADD SUB SLT PUSH2 0x487 JUMPI POP MLOAD SWAP1 CODESIZE PUSH2 0x29EE JUMP JUMPDEST POP RETURNDATASIZE PUSH2 0x2BC9 JUMP JUMPDEST DUP1 EXTCODESIZE ISZERO PUSH2 0x2C32 JUMPI PUSH32 0x360894A13BA1A3210667C828492DB98DCA3E2076CC3735A920A3CA505D382BBC DUP1 SLOAD PUSH1 0x1 PUSH1 0x1 PUSH1 0xA0 SHL SUB NOT AND PUSH1 0x1 PUSH1 0x1 PUSH1 0xA0 SHL SUB SWAP1 SWAP3 AND SWAP2 SWAP1 SWAP2 OR SWAP1 SSTORE JUMP JUMPDEST PUSH1 0x40 MLOAD PUSH3 0x461BCD PUSH1 0xE5 SHL DUP2 MSTORE PUSH1 0x20 PUSH1 0x4 DUP3 ADD MSTORE PUSH1 0x2D PUSH1 0x24 DUP3 ADD MSTORE PUSH32 0x455243313936373A206E657720696D706C656D656E746174696F6E206973206E PUSH1 0x44 DUP3 ADD MSTORE PUSH13 0x1BDD08184818DBDB9D1C9858DD PUSH1 0x9A SHL PUSH1 0x64 DUP3 ADD MSTORE PUSH1 0x84 SWAP1 REVERT JUMPDEST SWAP2 SWAP3 SWAP1 ISZERO PUSH2 0x2CEF JUMPI POP DUP2 MLOAD ISZERO PUSH2 0x2CA1 JUMPI POP SWAP1 JUMP JUMPDEST EXTCODESIZE ISZERO PUSH2 0x2CAA JUMPI SWAP1 JUMP JUMPDEST PUSH1 0x40 MLOAD PUSH3 0x461BCD PUSH1 0xE5 SHL DUP2 MSTORE PUSH1 0x20 PUSH1 0x4 DUP3 ADD MSTORE PUSH1 0x1D PUSH1 0x24 DUP3 ADD MSTORE PUSH32 0x416464726573733A2063616C6C20746F206E6F6E2D636F6E7472616374000000 PUSH1 0x44 DUP3 ADD MSTORE PUSH1 0x64 SWAP1 REVERT JUMPDEST DUP3 MLOAD SWAP1 SWAP2 POP ISZERO PUSH2 0x2D02 JUMPI POP DUP1 MLOAD SWAP1 PUSH1 0x20 ADD REVERT JUMPDEST PUSH1 0x40 MLOAD SWAP1 PUSH3 0x461BCD PUSH1 0xE5 SHL DUP3 MSTORE DUP2 PUSH1 0x20 DUP1 PUSH1 0x4 DUP4 ADD MSTORE DUP3 MLOAD SWAP1 DUP2 PUSH1 0x24 DUP5 ADD MSTORE PUSH1 0x0 SWAP4 JUMPDEST DUP3 DUP6 LT PUSH2 0x2D48 JUMPI POP POP PUSH1 0x44 SWAP3 POP PUSH1 0x0 DUP4 DUP3 DUP5 ADD ADD MSTORE PUSH1 0x1F DUP1 NOT SWAP2 ADD AND DUP2 ADD SUB ADD SWAP1 REVERT JUMPDEST DUP5 DUP2 ADD DUP3 ADD MLOAD DUP7 DUP7 ADD PUSH1 0x44 ADD MSTORE SWAP4 DUP2 ADD SWAP4 DUP6 SWAP4 POP PUSH2 0x2D25 JUMP JUMPDEST DUP1 MLOAD DUP3 LT ISZERO PUSH2 0x27AE JUMPI PUSH1 0x20 SWAP2 PUSH1 0x5 SHL ADD ADD SWAP1 JUMP JUMPDEST SWAP2 SWAP1 DUP3 ADD DUP1 SWAP3 GT PUSH2 0xA93 JUMPI JUMP JUMPDEST SWAP1 PUSH1 0x0 SWAP2 PUSH1 0x0 SWAP1 PUSH2 0x169 DUP1 SLOAD SWAP1 PUSH1 0x0 SWAP3 JUMPDEST DUP3 DUP5 LT PUSH2 0x2DB9 JUMPI POP POP POP POP PUSH2 0x2DB5 PUSH8 0xDE0B6B3A7640000 SWAP2 PUSH2 0x16B SLOAD SWAP1 PUSH2 0x2E99 JUMP JUMPDEST DIV SWAP1 JUMP JUMPDEST SWAP1 SWAP2 SWAP3 SWAP4 SWAP6 PUSH2 0x2E06 PUSH2 0x2DF5 PUSH2 0x2E00 PUSH1 0x1 SWAP4 PUSH2 0x2DFA PUSH2 0x2DD7 DUP11 DUP9 PUSH2 0x2D61 JUMP JUMPDEST MLOAD PUSH2 0x2DE2 DUP2 DUP13 PUSH2 0x2E2C JUMP JUMPDEST SWAP6 SWAP1 PUSH2 0x2DEE DUP14 DUP13 PUSH2 0x2888 JUMP JUMPDEST POP SLOAD PUSH2 0x2D75 JUMP JUMPDEST PUSH2 0x3E93 JUMP JUMPDEST SWAP1 PUSH2 0x2D75 JUMP JUMPDEST SWAP9 PUSH2 0x2D75 JUMP JUMPDEST SWAP5 ADD SWAP3 SWAP2 SWAP1 PUSH2 0x2D93 JUMP JUMPDEST SWAP2 SWAP1 SWAP2 PUSH1 0x0 DUP4 DUP3 ADD SWAP4 DUP5 SLT SWAP2 SLT SWAP1 DUP1 ISZERO DUP3 AND SWAP2 ISZERO AND OR PUSH2 0xA93 JUMPI JUMP JUMPDEST SWAP2 SWAP1 PUSH1 0x0 SWAP1 PUSH2 0x2E5A DUP2 PUSH1 0x0 SWAP6 PUSH2 0x2E50 PUSH2 0x2E47 DUP3 PUSH2 0x180 PUSH2 0x2796 JUMP JUMPDEST SWAP4 SWAP1 SLOAD SWAP3 PUSH2 0x2EE5 JUMP JUMPDEST SWAP2 PUSH1 0x3 SHL SHR PUSH2 0x2E10 JUMP JUMPDEST PUSH1 0x0 DUP2 SGT PUSH2 0x2E69 JUMPI JUMPDEST POP POP SWAP2 SWAP1 JUMP JUMPDEST PUSH2 0x2E91 SWAP2 SWAP5 POP PUSH2 0x2E8B SWAP3 POP DUP1 SWAP5 PUSH8 0xDE0B6B3A7640000 SWAP4 DUP5 SWAP2 PUSH2 0x16C SLOAD PUSH2 0x2E99 JUMP JUMPDEST DIV PUSH2 0x2E99 JUMP JUMPDEST DIV CODESIZE DUP1 PUSH2 0x2E63 JUMP JUMPDEST DUP2 DUP2 MUL SWAP3 SWAP2 DUP2 ISZERO SWAP2 DUP5 DIV EQ OR ISZERO PUSH2 0xA93 JUMPI JUMP JUMPDEST DUP2 ISZERO PUSH2 0x2EB6 JUMPI DIV SWAP1 JUMP JUMPDEST PUSH4 0x4E487B71 PUSH1 0xE0 SHL PUSH1 0x0 MSTORE PUSH1 0x12 PUSH1 0x4 MSTORE PUSH1 0x24 PUSH1 0x0 REVERT JUMPDEST DUP2 DUP2 SUB SWAP3 SWAP2 PUSH1 0x0 SGT DUP1 ISZERO DUP3 DUP6 SGT AND SWAP2 DUP5 SLT AND OR PUSH2 0xA93 JUMPI JUMP JUMPDEST PUSH2 0x2EF1 DUP2 PUSH2 0x169 PUSH2 0x2888 JUMP JUMPDEST POP SLOAD SWAP1 PUSH8 0xDE0B6B3A7640000 SWAP2 DUP3 DUP2 MUL SWAP3 DUP2 DUP5 DIV EQ SWAP1 ISZERO OR ISZERO PUSH2 0xA93 JUMPI PUSH2 0x2F3D SWAP3 PUSH2 0x2F31 PUSH2 0x2F24 PUSH2 0x2F37 SWAP4 PUSH2 0x181 PUSH2 0x2796 JUMP JUMPDEST SWAP1 SLOAD SWAP1 PUSH1 0x3 SHL SHR DUP5 PUSH2 0x2EAC JUMP JUMPDEST SWAP3 PUSH2 0x2EAC JUMP JUMPDEST SWAP1 PUSH2 0x2ECC JUMP JUMPDEST SWAP1 JUMP JUMPDEST DUP1 ISZERO PUSH2 0x2F56 JUMPI PUSH2 0x2DF5 PUSH2 0x2F3D SWAP3 PUSH2 0x163 SLOAD PUSH2 0x2F5E JUMP JUMPDEST POP POP PUSH1 0x0 NOT SWAP1 JUMP JUMPDEST SWAP2 SWAP1 DUP3 SUB SWAP2 DUP3 GT PUSH2 0xA93 JUMPI JUMP JUMPDEST PUSH8 0xFFFFFFFFFFFFFFFF DUP2 GT PUSH2 0x27FA JUMPI PUSH1 0x5 SHL PUSH1 0x20 ADD SWAP1 JUMP JUMPDEST SWAP1 PUSH2 0x2F8D DUP3 PUSH2 0x2F6B JUMP JUMPDEST PUSH2 0x2F9A PUSH1 0x40 MLOAD SWAP2 DUP3 PUSH2 0x27D8 JUMP JUMPDEST DUP3 DUP2 MSTORE DUP1 SWAP3 PUSH2 0x2FAB PUSH1 0x1F NOT SWAP2 PUSH2 0x2F6B JUMP JUMPDEST ADD SWAP1 PUSH1 0x20 CALLDATASIZE SWAP2 ADD CALLDATACOPY JUMP JUMPDEST DUP1 SLOAD SWAP1 PUSH1 0x1 PUSH1 0x40 SHL DUP3 LT ISZERO PUSH2 0x27FA JUMPI DUP2 PUSH2 0x2FD7 SWAP2 PUSH1 0x1 PUSH2 0x2FEE SWAP5 ADD DUP2 SSTORE PUSH2 0x2796 JUMP JUMPDEST DUP2 SWAP4 SWAP2 SLOAD SWAP1 PUSH1 0x3 SHL SWAP2 DUP3 SHL SWAP2 PUSH1 0x0 NOT SWAP1 SHL NOT AND OR SWAP1 JUMP JUMPDEST SWAP1 SSTORE JUMP JUMPDEST PUSH2 0x163 SLOAD DUP1 ISZERO PUSH2 0x309D JUMPI PUSH2 0x169 SWAP1 DUP2 SLOAD SWAP2 PUSH1 0x0 SWAP1 PUSH2 0x300F DUP5 PUSH2 0x2F83 JUMP JUMPDEST SWAP1 DUP3 SWAP1 JUMPDEST DUP6 DUP3 LT PUSH2 0x3059 JUMPI POP POP PUSH1 0x0 JUMPDEST DUP5 DUP2 LT PUSH2 0x302D JUMPI POP POP POP POP POP JUMP JUMPDEST DUP1 PUSH2 0x3053 PUSH2 0x304B DUP7 PUSH2 0x96E DUP8 PUSH2 0x3045 PUSH1 0x1 SWAP8 DUP10 PUSH2 0x2D61 JUMP JUMPDEST MLOAD PUSH2 0x2E99 JUMP JUMPDEST PUSH2 0x16A PUSH2 0x2FB5 JUMP JUMPDEST ADD PUSH2 0x301F JUMP JUMPDEST SWAP1 SWAP3 PUSH2 0x3095 PUSH1 0x1 SWAP2 PUSH2 0x306A DUP7 PUSH2 0x30C9 JUMP JUMPDEST PUSH2 0x3074 DUP8 DUP8 PUSH2 0x2D61 JUMP JUMPDEST MSTORE PUSH2 0x2DFA PUSH2 0x3082 DUP8 DUP7 PUSH2 0x2888 JUMP JUMPDEST POP SLOAD PUSH2 0x308E DUP9 DUP9 PUSH2 0x2D61 JUMP JUMPDEST MLOAD SWAP1 PUSH2 0x3E93 JUMP JUMPDEST SWAP4 ADD SWAP1 PUSH2 0x3013 JUMP JUMPDEST POP JUMP JUMPDEST PUSH1 0x1 PUSH1 0x1 PUSH1 0xA0 SHL SUB AND PUSH1 0x0 SWAP1 DUP2 MSTORE PUSH2 0x168 PUSH1 0x20 MSTORE PUSH1 0x40 SWAP1 KECCAK256 PUSH1 0x1 DUP2 ADD SLOAD PUSH1 0xFF AND ISZERO PUSH2 0x722 JUMPI SLOAD SWAP1 JUMP JUMPDEST PUSH2 0x30D5 SWAP1 PUSH2 0x169 PUSH2 0x2888 JUMP JUMPDEST POP PUSH1 0x1 ADD SLOAD PUSH1 0x1 PUSH1 0x1 PUSH1 0xA0 SHL SUB AND PUSH2 0x30EC DUP2 PUSH2 0x311F JUMP JUMPDEST SWAP2 SWAP1 SWAP2 ISZERO PUSH2 0x4E6 JUMPI POP SWAP1 JUMP JUMPDEST MLOAD SWAP1 DUP2 ISZERO ISZERO DUP3 SUB PUSH2 0x4FE JUMPI JUMP JUMPDEST SWAP2 SWAP1 DUP3 PUSH1 0x40 SWAP2 SUB SLT PUSH2 0x4FE JUMPI PUSH2 0x2F3D PUSH1 0x20 DUP4 MLOAD SWAP4 ADD PUSH2 0x30F8 JUMP JUMPDEST PUSH1 0x40 DUP1 MLOAD PUSH4 0x59E02DD7 PUSH1 0xE0 SHL DUP2 MSTORE SWAP3 SWAP2 DUP4 SWAP1 PUSH1 0x4 SWAP1 DUP3 SWAP1 PUSH1 0x1 PUSH1 0x1 PUSH1 0xA0 SHL SUB AND GAS STATICCALL SWAP2 DUP3 ISZERO PUSH2 0x3175 JUMPI PUSH1 0x0 SWAP1 DUP2 SWAP4 PUSH2 0x3156 JUMPI POP SWAP2 SWAP1 JUMP JUMPDEST SWAP1 POP PUSH2 0x3171 SWAP2 SWAP3 POP PUSH1 0x40 RETURNDATASIZE DUP2 GT PUSH2 0x75E JUMPI PUSH2 0x74E DUP2 DUP4 PUSH2 0x27D8 JUMP JUMPDEST SWAP1 SWAP2 JUMP JUMPDEST PUSH1 0x40 MLOAD RETURNDATASIZE PUSH1 0x0 DUP3 RETURNDATACOPY RETURNDATASIZE SWAP1 REVERT JUMPDEST PUSH2 0x169 SLOAD SWAP1 PUSH2 0x318F DUP3 PUSH2 0x2F83 JUMP JUMPDEST SWAP2 PUSH1 0x0 JUMPDEST DUP2 DUP2 LT PUSH2 0x319E JUMPI POP POP JUMP JUMPDEST DUP1 PUSH2 0x31AA PUSH1 0x1 SWAP3 PUSH2 0x30C9 JUMP JUMPDEST PUSH2 0x31B4 DUP3 DUP8 PUSH2 0x2D61 JUMP JUMPDEST MSTORE ADD PUSH2 0x3193 JUMP JUMPDEST SWAP1 PUSH2 0x31DC PUSH8 0xDE0B6B3A7640000 SWAP3 DUP4 PUSH2 0x187 SLOAD PUSH2 0x184 SLOAD SWAP3 NUMBER ADD SUB MUL PUSH2 0x2EAC JUMP JUMPDEST DUP3 DUP2 LT ISZERO PUSH2 0x31F9 JUMPI DUP3 SUB SWAP2 DUP1 DUP4 PUSH2 0x185 SLOAD MUL DIV SWAP3 PUSH2 0x186 SLOAD MUL SDIV SWAP1 JUMP JUMPDEST POP PUSH1 0x0 SWAP2 POP DUP2 SWAP1 JUMP JUMPDEST SWAP1 SWAP2 PUSH2 0x320C PUSH2 0x3264 JUMP JUMPDEST SWAP3 SWAP1 DUP1 DUP3 LT ISZERO PUSH2 0x325A JUMPI DUP4 SWAP2 PUSH2 0x3221 SWAP2 PUSH2 0x2F5E JUMP JUMPDEST SWAP4 GT ISZERO PUSH2 0x3255 JUMPI DUP2 DUP2 LT ISZERO PUSH2 0x324D JUMPI PUSH2 0x3239 SWAP2 PUSH2 0x2F5E JUMP JUMPDEST PUSH1 0x1 SHR DUP1 DUP3 LT ISZERO PUSH2 0x3248 JUMPI POP SWAP1 JUMP JUMPDEST SWAP1 POP SWAP1 JUMP JUMPDEST POP POP POP PUSH1 0x0 SWAP1 JUMP JUMPDEST POP POP SWAP1 JUMP JUMPDEST POP POP POP POP POP PUSH1 0x0 SWAP1 JUMP JUMPDEST PUSH2 0x182 SLOAD PUSH1 0x40 DUP1 MLOAD PUSH4 0x59E02DD7 PUSH1 0xE0 SHL DUP1 DUP3 MSTORE SWAP4 SWAP3 SWAP1 SWAP2 SWAP1 PUSH1 0x1 PUSH1 0x1 PUSH1 0xA0 SHL SUB SWAP1 DUP2 AND DUP3 DUP5 PUSH1 0x4 DUP2 DUP5 GAS STATICCALL DUP1 ISZERO PUSH2 0x3354 JUMPI PUSH1 0x0 SWAP5 DUP6 SWAP2 PUSH2 0x3331 JUMPI JUMPDEST POP ISZERO PUSH2 0x331A JUMPI POP PUSH2 0x183 SLOAD AND SWAP1 DUP1 MLOAD SWAP5 DUP6 MSTORE DUP1 DUP6 PUSH1 0x4 DUP2 DUP6 GAS STATICCALL DUP1 ISZERO PUSH2 0x330F JUMPI PUSH1 0x0 SWAP6 DUP7 SWAP2 PUSH2 0x32EC JUMPI JUMPDEST POP ISZERO PUSH2 0x32D5 JUMPI POP POP SWAP2 SWAP1 JUMP JUMPDEST PUSH1 0x24 SWAP3 POP MLOAD SWAP1 PUSH4 0x5E89893 PUSH1 0xE1 SHL DUP3 MSTORE PUSH1 0x4 DUP3 ADD MSTORE REVERT JUMPDEST SWAP1 POP DUP2 PUSH2 0x3306 SWAP3 SWAP7 POP RETURNDATASIZE DUP8 GT PUSH2 0x75E JUMPI PUSH2 0x74E DUP2 DUP4 PUSH2 0x27D8 JUMP JUMPDEST SWAP5 SWAP1 SWAP5 CODESIZE PUSH2 0x32C9 JUMP JUMPDEST POP MLOAD RETURNDATASIZE PUSH1 0x0 DUP3 RETURNDATACOPY RETURNDATASIZE SWAP1 REVERT JUMPDEST PUSH1 0x24 SWAP1 DUP4 MLOAD SWAP1 PUSH4 0x5E89893 PUSH1 0xE1 SHL DUP3 MSTORE PUSH1 0x4 DUP3 ADD MSTORE REVERT JUMPDEST SWAP1 POP PUSH2 0x334B SWAP2 SWAP5 POP DUP4 RETURNDATASIZE DUP6 GT PUSH2 0x75E JUMPI PUSH2 0x74E DUP2 DUP4 PUSH2 0x27D8 JUMP JUMPDEST SWAP4 SWAP1 SWAP4 CODESIZE PUSH2 0x329F JUMP JUMPDEST DUP4 MLOAD RETURNDATASIZE PUSH1 0x0 DUP3 RETURNDATACOPY RETURNDATASIZE SWAP1 REVERT JUMPDEST SWAP1 DUP2 MSTORE PUSH2 0x100 DUP2 ADD SWAP3 SWAP2 PUSH1 0xE0 SWAP1 PUSH1 0xC0 SWAP1 PUSH1 0x1 PUSH1 0x1 PUSH1 0xA0 SHL SUB DUP1 PUSH2 0x3381 DUP4 PUSH2 0x27C4 JUMP JUMPDEST AND PUSH1 0x20 DUP7 ADD MSTORE PUSH2 0x3393 PUSH1 0x20 DUP4 ADD PUSH2 0x27C4 JUMP JUMPDEST AND PUSH1 0x40 DUP6 ADD MSTORE PUSH1 0x40 DUP2 ADD CALLDATALOAD PUSH1 0x60 DUP6 ADD MSTORE PUSH1 0x60 DUP2 ADD CALLDATALOAD PUSH1 0x80 DUP6 ADD MSTORE PUSH1 0x80 DUP2 ADD CALLDATALOAD PUSH1 0xA0 DUP6 ADD MSTORE PUSH1 0xA0 DUP2 ADD CALLDATALOAD DUP3 DUP6 ADD MSTORE ADD CALLDATALOAD SWAP2 ADD MSTORE JUMP JUMPDEST PUSH1 0x40 MLOAD SWAP1 PUSH2 0x33D6 PUSH1 0x80 DUP4 PUSH2 0x27D8 JUMP JUMPDEST PUSH1 0x0 PUSH1 0x60 DUP4 DUP3 DUP2 MSTORE DUP3 PUSH1 0x20 DUP3 ADD MSTORE DUP3 PUSH1 0x40 DUP3 ADD MSTORE ADD MSTORE JUMP JUMPDEST PUSH2 0x3466 SWAP4 PUSH2 0x342D PUSH1 0x0 SWAP3 PUSH1 0x20 SWAP6 PUSH2 0x3407 DUP3 PUSH2 0x169 PUSH2 0x2888 JUMP JUMPDEST POP PUSH2 0x3413 DUP8 DUP3 SLOAD PUSH2 0x2D75 JUMP JUMPDEST SWAP1 SSTORE PUSH2 0x3423 PUSH2 0x163 SWAP2 DUP3 SLOAD PUSH2 0x2D75 JUMP JUMPDEST SWAP1 SSTORE PUSH2 0x167 PUSH2 0x2796 JUMP JUMPDEST SWAP1 SLOAD PUSH1 0x40 MLOAD PUSH4 0x40C10F19 PUSH1 0xE0 SHL DUP2 MSTORE PUSH1 0x1 PUSH1 0x1 PUSH1 0xA0 SHL SUB SWAP1 SWAP4 AND PUSH1 0x4 DUP5 ADD MSTORE PUSH1 0x24 DUP4 ADD SWAP5 SWAP1 SWAP5 MSTORE SWAP1 SWAP5 DUP6 SWAP4 SWAP3 DUP5 SWAP3 SWAP1 SWAP2 DUP4 SWAP1 PUSH1 0x44 DUP3 ADD SWAP1 JUMP JUMPDEST SUB SWAP4 PUSH1 0x3 SWAP2 SWAP1 SWAP2 SHL SHR PUSH1 0x1 PUSH1 0x1 PUSH1 0xA0 SHL SUB AND GAS CALL DUP1 ISZERO PUSH2 0x3175 JUMPI PUSH2 0x3487 JUMPI POP JUMP JUMPDEST PUSH1 0x20 DUP2 RETURNDATASIZE DUP3 GT PUSH2 0x34B0 JUMPI JUMPDEST DUP2 PUSH2 0x349F PUSH1 0x20 SWAP4 DUP4 PUSH2 0x27D8 JUMP JUMPDEST DUP2 ADD SUB SLT PUSH2 0x4FE JUMPI PUSH2 0x309D SWAP1 PUSH2 0x30F8 JUMP JUMPDEST RETURNDATASIZE SWAP2 POP PUSH2 0x3492 JUMP JUMPDEST PUSH2 0x351E SWAP3 PUSH1 0x20 SWAP3 PUSH2 0x166 PUSH2 0x34CD DUP5 DUP3 SLOAD PUSH2 0x2D75 JUMP JUMPDEST SWAP1 SSTORE PUSH2 0x34DD PUSH2 0x163 SWAP2 DUP3 SLOAD PUSH2 0x2D75 JUMP JUMPDEST SWAP1 SSTORE PUSH2 0x165 SLOAD PUSH1 0x40 MLOAD PUSH4 0x40C10F19 PUSH1 0xE0 SHL DUP2 MSTORE PUSH1 0x1 PUSH1 0x1 PUSH1 0xA0 SHL SUB SWAP3 DUP4 AND PUSH1 0x4 DUP3 ADD MSTORE PUSH1 0x24 DUP2 ADD SWAP4 SWAP1 SWAP4 MSTORE SWAP2 SWAP4 DUP5 SWAP3 SWAP1 SWAP2 AND SWAP1 DUP3 SWAP1 PUSH1 0x0 SWAP1 DUP3 SWAP1 PUSH1 0x44 DUP3 ADD SWAP1 JUMP JUMPDEST SUB SWAP3 GAS CALL DUP1 ISZERO PUSH2 0x3175 JUMPI PUSH2 0x3487 JUMPI POP JUMP JUMPDEST SWAP2 SWAP1 PUSH2 0x353A SWAP1 PUSH2 0x2D82 JUMP JUMPDEST SWAP2 SWAP1 SWAP3 PUSH2 0x3547 DUP4 DUP6 PUSH2 0x2F40 JUMP JUMPDEST SWAP1 DUP1 DUP3 GT ISZERO PUSH2 0x3554 JUMPI POP POP JUMP JUMPDEST PUSH1 0x44 SWAP3 POP PUSH1 0x40 MLOAD SWAP2 PUSH4 0x79121201 PUSH1 0xE0 SHL DUP4 MSTORE PUSH1 0x4 DUP4 ADD MSTORE PUSH1 0x24 DUP3 ADD MSTORE REVERT JUMPDEST PUSH2 0x2FD7 PUSH2 0x2FEE SWAP2 PUSH2 0x3583 DUP5 DUP3 PUSH2 0x2EE5 JUMP JUMPDEST PUSH2 0x35B9 PUSH2 0x3592 DUP4 PUSH2 0x180 PUSH2 0x2796 JUMP JUMPDEST PUSH2 0x35A5 DUP3 SWAP5 SWAP3 SLOAD SWAP3 DUP4 DUP4 PUSH1 0x3 SHL SHR PUSH2 0x2E10 JUMP JUMPDEST SWAP2 SWAP1 PUSH1 0x3 SHL SWAP2 DUP3 SHL SWAP2 PUSH1 0x0 NOT SWAP1 SHL NOT AND OR SWAP1 JUMP JUMPDEST SWAP1 SSTORE PUSH2 0x181 PUSH2 0x2796 JUMP JUMPDEST SWAP1 PUSH2 0x166 SLOAD SWAP1 DUP2 ISZERO PUSH2 0x35E3 JUMPI PUSH2 0x2F3D SWAP3 PUSH2 0x101F PUSH2 0x2DF5 SWAP3 PUSH2 0x163 SLOAD PUSH2 0x2F5E JUMP JUMPDEST POP POP POP PUSH8 0xDE0B6B3A7640000 SWAP1 JUMP JUMPDEST SWAP3 SWAP1 SWAP4 SWAP2 PUSH1 0x0 SWAP2 PUSH1 0x0 SWAP2 DUP3 SWAP7 PUSH2 0x3606 PUSH2 0x33C7 JUMP JUMPDEST SWAP7 PUSH1 0x1 PUSH1 0x1 PUSH1 0xA0 SHL SUB SWAP2 DUP6 SWAP1 DUP4 AND DUP1 PUSH2 0x3812 JUMPI JUMPDEST POP DUP3 PUSH2 0x161 SLOAD AND DUP4 PUSH1 0x40 MLOAD SWAP4 PUSH4 0x6EB1769F PUSH1 0xE1 SHL DUP6 MSTORE AND DUP1 PUSH1 0x4 DUP6 ADD MSTORE ADDRESS PUSH1 0x24 DUP6 ADD MSTORE PUSH1 0x20 SWAP5 DUP6 DUP6 PUSH1 0x44 DUP2 DUP7 GAS STATICCALL SWAP5 DUP6 ISZERO PUSH2 0x3807 JUMPI DUP5 SWAP6 PUSH2 0x37D8 JUMPI JUMPDEST POP DUP5 PUSH2 0x36B7 JUMPI JUMPDEST POP POP POP POP POP DUP7 ADD MLOAD ISZERO PUSH2 0x3673 JUMPI JUMPDEST POP POP POP SWAP3 SWAP2 SWAP1 JUMP JUMPDEST SWAP1 SWAP2 SWAP3 POP PUSH2 0x368B PUSH8 0xDE0B6B3A7640000 SWAP3 DUP4 SWAP3 PUSH2 0x2E99 JUMP JUMPDEST DIV DUP1 DUP6 MSTORE SWAP1 DUP3 ISZERO PUSH2 0x36AF JUMPI PUSH2 0x36A7 SWAP3 DIV SWAP1 DUP2 PUSH1 0x40 DUP7 ADD MSTORE PUSH2 0x2D75 JUMP JUMPDEST CODESIZE DUP1 DUP1 PUSH2 0x366B JUMP JUMPDEST POP SWAP1 POP PUSH2 0x36A7 JUMP JUMPDEST PUSH2 0x36C5 SWAP1 PUSH2 0x162 SLOAD AND PUSH2 0x311F JUMP JUMPDEST SWAP3 SWAP1 SWAP3 ISZERO PUSH2 0x365D JUMPI SWAP1 SWAP2 SWAP3 SWAP4 SWAP12 POP DUP5 DUP12 PUSH2 0x36FF DUP6 PUSH8 0xDE0B6B3A7640000 PUSH2 0x36F9 PUSH2 0x36EF DUP14 DUP14 PUSH2 0x2E99 JUMP JUMPDEST PUSH2 0x175 SLOAD SWAP1 PUSH2 0x2E99 JUMP JUMPDEST DIV PUSH2 0x2EAC JUMP JUMPDEST DUP2 DUP4 ADD DUP2 DUP2 MSTORE SWAP6 SWAP1 DUP12 ISZERO PUSH2 0x37CE JUMPI POP PUSH2 0x372A SWAP2 PUSH2 0x371E PUSH1 0x60 SWAP3 DUP14 PUSH2 0x2EAC JUMP JUMPDEST SWAP2 DUP3 SWAP2 ADD MSTORE DUP6 MLOAD PUSH2 0x2D75 JUMP JUMPDEST DUP1 SWAP14 JUMPDEST LT SWAP3 DUP4 ISZERO PUSH2 0x3759 JUMPI JUMPDEST POP POP POP PUSH2 0x3746 JUMPI JUMPDEST DUP1 DUP1 DUP1 PUSH2 0x365D JUMP JUMPDEST DUP2 SWAP3 SWAP10 POP MSTORE DUP1 PUSH1 0x60 DUP9 ADD MSTORE SWAP7 CODESIZE DUP1 PUSH2 0x373E JUMP JUMPDEST SWAP1 SWAP2 SWAP3 POP PUSH1 0x24 PUSH1 0x40 MLOAD DUP1 SWAP5 DUP2 SWAP4 PUSH4 0x70A08231 PUSH1 0xE0 SHL DUP4 MSTORE PUSH1 0x4 DUP4 ADD MSTORE GAS STATICCALL SWAP1 DUP2 ISZERO PUSH2 0x37C3 JUMPI SWAP1 DUP12 SWAP2 DUP5 SWAP2 PUSH2 0x3792 JUMPI JUMPDEST POP LT CODESIZE DUP5 DUP2 PUSH2 0x3736 JUMP JUMPDEST DUP1 SWAP3 POP DUP6 DUP1 SWAP3 POP RETURNDATASIZE DUP4 GT PUSH2 0x37BC JUMPI JUMPDEST PUSH2 0x37AB DUP2 DUP4 PUSH2 0x27D8 JUMP JUMPDEST DUP2 ADD SUB SLT PUSH2 0x240A JUMPI DUP11 SWAP1 MLOAD CODESIZE PUSH2 0x3788 JUMP JUMPDEST POP RETURNDATASIZE PUSH2 0x37A1 JUMP JUMPDEST PUSH1 0x40 MLOAD RETURNDATASIZE DUP6 DUP3 RETURNDATACOPY RETURNDATASIZE SWAP1 REVERT JUMPDEST SWAP2 POP POP DUP1 SWAP14 PUSH2 0x372D JUMP JUMPDEST SWAP1 SWAP5 POP DUP6 DUP2 DUP2 RETURNDATASIZE DUP4 GT PUSH2 0x3800 JUMPI JUMPDEST PUSH2 0x37F0 DUP2 DUP4 PUSH2 0x27D8 JUMP JUMPDEST DUP2 ADD SUB SLT PUSH2 0x18DC JUMPI MLOAD SWAP4 CODESIZE PUSH2 0x3656 JUMP JUMPDEST POP RETURNDATASIZE PUSH2 0x37E6 JUMP JUMPDEST PUSH1 0x40 MLOAD RETURNDATASIZE DUP7 DUP3 RETURNDATACOPY RETURNDATASIZE SWAP1 REVERT JUMPDEST SWAP1 SWAP6 POP PUSH1 0x20 DUP4 PUSH2 0x1F3 SLOAD AND SWAP2 PUSH1 0x24 PUSH1 0x40 MLOAD DUP1 SWAP5 DUP2 SWAP4 PUSH4 0x64A731E9 PUSH1 0xE0 SHL DUP4 MSTORE PUSH1 0x4 DUP4 ADD MSTORE GAS STATICCALL DUP1 ISZERO PUSH2 0x765 JUMPI DUP7 SWAP1 PUSH2 0x3857 JUMPI JUMPDEST PUSH2 0x3850 SWAP2 POP DUP5 PUSH2 0x2E99 JUMP JUMPDEST SWAP5 CODESIZE PUSH2 0x361A JUMP JUMPDEST POP PUSH1 0x20 DUP2 RETURNDATASIZE DUP3 GT PUSH2 0x3882 JUMPI JUMPDEST DUP2 PUSH2 0x3870 PUSH1 0x20 SWAP4 DUP4 PUSH2 0x27D8 JUMP JUMPDEST DUP2 ADD SUB SLT PUSH2 0x1C69 JUMPI PUSH2 0x3850 SWAP1 MLOAD PUSH2 0x3845 JUMP JUMPDEST RETURNDATASIZE SWAP2 POP PUSH2 0x3863 JUMP JUMPDEST DUP1 PUSH2 0x3893 PUSH2 0x3264 JUMP JUMPDEST SWAP2 SWAP1 SWAP4 PUSH2 0x38A0 PUSH1 0x0 PUSH2 0x31BB JUMP JUMPDEST SWAP5 ADD SWAP4 DUP3 SWAP2 PUSH2 0x3938 JUMPI JUMPDEST ADD SWAP4 DUP5 PUSH1 0x0 DUP1 DUP3 SLT PUSH2 0x3932 JUMPI POP JUMPDEST DUP5 SUB SWAP2 DUP2 DUP6 GT PUSH2 0x38FA JUMPI POP POP DUP2 DUP2 GT PUSH2 0x38DC JUMPI POP POP PUSH2 0x185 SSTORE PUSH2 0x186 SSTORE NUMBER PUSH2 0x187 SSTORE JUMP JUMPDEST PUSH1 0x44 SWAP3 POP PUSH1 0x40 MLOAD SWAP2 PUSH4 0x6DA41E5 PUSH1 0xE1 SHL DUP4 MSTORE PUSH1 0x4 DUP4 ADD MSTORE PUSH1 0x24 DUP3 ADD MSTORE REVERT JUMPDEST SWAP1 DUP1 DUP6 SWAP3 GT PUSH2 0x3920 JUMPI PUSH1 0x44 SWAP2 PUSH1 0x40 MLOAD SWAP2 PUSH4 0x6DA41E5 PUSH1 0xE1 SHL DUP4 MSTORE PUSH1 0x4 DUP4 ADD MSTORE PUSH1 0x24 DUP3 ADD MSTORE REVERT JUMPDEST PUSH1 0x40 MLOAD PUSH4 0xFB4FD35 PUSH1 0xE1 SHL DUP2 MSTORE PUSH1 0x4 SWAP1 REVERT JUMPDEST SUB PUSH2 0x38B8 JUMP JUMPDEST SWAP1 POP DUP2 PUSH1 0x0 SUB SWAP1 PUSH2 0x38AA JUMP JUMPDEST PUSH2 0x3972 SWAP2 SWAP4 SWAP3 PUSH2 0x3956 DUP3 PUSH2 0x169 PUSH2 0x2888 JUMP JUMPDEST POP PUSH2 0x3962 DUP7 DUP3 SLOAD PUSH2 0x2F5E JUMP JUMPDEST SWAP1 SSTORE PUSH2 0x3423 PUSH2 0x163 SWAP2 DUP3 SLOAD PUSH2 0x2F5E JUMP JUMPDEST SWAP1 SLOAD PUSH1 0x3 SWAP2 SWAP1 SWAP2 SHL SHR PUSH1 0x1 PUSH1 0x1 PUSH1 0xA0 SHL SUB AND SWAP2 DUP3 EXTCODESIZE ISZERO PUSH2 0x4FE JUMPI PUSH1 0x40 MLOAD PUSH4 0x2770A7EB PUSH1 0xE2 SHL DUP2 MSTORE PUSH1 0x1 PUSH1 0x1 PUSH1 0xA0 SHL SUB SWAP1 SWAP3 AND PUSH1 0x4 DUP4 ADD MSTORE PUSH1 0x24 DUP3 ADD MSTORE SWAP1 PUSH1 0x0 SWAP1 DUP3 SWAP1 DUP2 DUP4 DUP2 PUSH1 0x44 DUP2 ADD JUMPDEST SUB SWAP3 GAS CALL DUP1 ISZERO PUSH2 0x3175 JUMPI PUSH2 0x39CD JUMPI POP JUMP JUMPDEST PUSH1 0x0 PUSH2 0x29BB SWAP2 PUSH2 0x27D8 JUMP JUMPDEST SWAP2 SWAP1 PUSH2 0x166 PUSH2 0x39E8 DUP5 DUP3 SLOAD PUSH2 0x2F5E JUMP JUMPDEST SWAP1 SSTORE PUSH2 0x39F8 PUSH2 0x163 SWAP2 DUP3 SLOAD PUSH2 0x2F5E JUMP JUMPDEST SWAP1 SSTORE PUSH2 0x165 SLOAD PUSH1 0x1 PUSH1 0x1 PUSH1 0xA0 SHL SUB AND SWAP2 DUP3 EXTCODESIZE ISZERO PUSH2 0x4FE JUMPI PUSH1 0x40 MLOAD PUSH4 0x2770A7EB PUSH1 0xE2 SHL DUP2 MSTORE PUSH1 0x1 PUSH1 0x1 PUSH1 0xA0 SHL SUB SWAP1 SWAP3 AND PUSH1 0x4 DUP4 ADD MSTORE PUSH1 0x24 DUP3 ADD MSTORE SWAP1 PUSH1 0x0 SWAP1 DUP3 SWAP1 DUP2 DUP4 DUP2 PUSH1 0x44 DUP2 ADD PUSH2 0x39BC JUMP JUMPDEST SWAP3 PUSH2 0x3A55 DUP4 PUSH2 0x3A5B SWAP7 SWAP5 SWAP4 SWAP8 SWAP6 PUSH2 0x3BEF JUMP JUMPDEST SWAP1 PUSH2 0x3A84 JUMP JUMPDEST DUP2 DUP2 LT PUSH2 0x3A66 JUMPI POP POP JUMP JUMPDEST PUSH1 0x44 SWAP3 POP PUSH1 0x40 MLOAD SWAP2 PUSH4 0xC39B739F PUSH1 0xE0 SHL DUP4 MSTORE PUSH1 0x4 DUP4 ADD MSTORE PUSH1 0x24 DUP3 ADD MSTORE REVERT JUMPDEST SWAP1 SWAP3 SWAP2 SWAP3 PUSH2 0x3A93 DUP6 DUP5 DUP5 PUSH2 0x3B48 JUMP JUMPDEST PUSH1 0x0 SWAP5 DUP2 DUP2 MUL SWAP2 SWAP1 DUP7 DUP3 SLT PUSH1 0x1 PUSH1 0xFF SHL DUP3 EQ AND PUSH2 0x3B19 JUMPI DUP2 DUP4 SDIV EQ SWAP1 ISZERO OR ISZERO PUSH2 0xAA9 JUMPI PUSH8 0xDE0B6B3A763FFFF NOT DUP3 ADD SWAP2 DUP3 GT PUSH2 0xAA9 JUMPI PUSH8 0xDE0B6B3A7640000 SWAP2 DUP3 DUP2 MUL SWAP3 DUP2 DUP5 DIV EQ SWAP1 ISZERO OR ISZERO PUSH2 0xAA9 JUMPI SWAP1 PUSH2 0x3AED SWAP2 PUSH2 0x3B2D JUMP JUMPDEST SWAP4 DUP4 DUP6 SLT SWAP3 DUP4 ISZERO PUSH2 0x3B04 JUMPI JUMPDEST POP POP POP PUSH2 0x3248 JUMPI POP SWAP1 JUMP JUMPDEST PUSH2 0x3B0F SWAP3 SWAP4 POP PUSH2 0x2F40 JUMP JUMPDEST GT ISZERO CODESIZE DUP1 DUP1 PUSH2 0x3AF9 JUMP JUMPDEST PUSH4 0x4E487B71 PUSH1 0xE0 SHL DUP8 MSTORE PUSH1 0x11 PUSH1 0x4 MSTORE PUSH1 0x24 DUP8 REVERT JUMPDEST DUP2 ISZERO PUSH2 0x2EB6 JUMPI PUSH1 0x1 PUSH1 0xFF SHL DUP2 EQ PUSH1 0x0 NOT DUP4 EQ AND PUSH2 0xA93 JUMPI SDIV SWAP1 JUMP JUMPDEST SWAP1 SWAP2 PUSH2 0x3B57 SWAP1 PUSH2 0x163 SLOAD PUSH2 0x2F5E JUMP JUMPDEST SWAP1 PUSH8 0xDE0B6B3A7640000 SWAP2 DUP3 DUP2 MUL SWAP3 DUP2 DUP5 DIV EQ SWAP1 ISZERO OR ISZERO PUSH2 0xA93 JUMPI PUSH2 0x2F3D SWAP3 PUSH2 0x2F37 SWAP2 PUSH2 0x2E99 JUMP JUMPDEST PUSH2 0x3B9D PUSH2 0x3B8D DUP5 DUP5 DUP5 PUSH2 0x3B48 JUMP JUMPDEST PUSH2 0x3B97 DUP6 DUP6 PUSH2 0x35C3 JUMP JUMPDEST SWAP1 PUSH2 0x3B2D JUMP JUMPDEST SWAP3 PUSH1 0x0 DUP5 SLT SWAP3 DUP4 ISZERO PUSH2 0x3BBA JUMPI JUMPDEST POP POP POP PUSH2 0x3BB4 JUMPI SWAP1 JUMP JUMPDEST POP PUSH1 0x0 SWAP1 JUMP JUMPDEST PUSH2 0x3BC5 SWAP3 SWAP4 POP PUSH2 0x2F40 JUMP JUMPDEST GT ISZERO CODESIZE DUP1 DUP1 PUSH2 0x3BAA JUMP JUMPDEST SWAP1 PUSH1 0x40 MLOAD PUSH2 0x3BDE PUSH1 0x40 DUP3 PUSH2 0x27D8 JUMP JUMPDEST PUSH1 0x20 PUSH1 0x1 DUP3 SWAP5 DUP1 SLOAD DUP5 MSTORE ADD SLOAD SWAP2 ADD MSTORE JUMP JUMPDEST PUSH2 0x3BFB DUP2 PUSH2 0x17A PUSH2 0x2796 JUMP JUMPDEST SWAP1 SLOAD SWAP1 PUSH1 0x3 SHL SHR SWAP2 PUSH2 0x1BE SWAP2 PUSH2 0x3C11 DUP2 DUP5 PUSH2 0x2888 JUMP JUMPDEST POP SLOAD SWAP3 PUSH2 0x1BF SLOAD NUMBER LT ISZERO PUSH2 0x3C37 JUMPI JUMPDEST POP POP DUP1 DUP3 LT ISZERO PUSH2 0x3255 JUMPI PUSH2 0x96E SWAP1 PUSH2 0x2F3D SWAP4 PUSH2 0x2E99 JUMP JUMPDEST DUP3 SWAP4 POP PUSH2 0x3C4B PUSH2 0x3C56 SWAP4 SWAP3 PUSH2 0x3C51 SWAP3 PUSH2 0x2888 JUMP JUMPDEST POP PUSH2 0x3BCF JUMP JUMPDEST PUSH2 0x3C5E JUMP JUMPDEST SWAP1 CODESIZE DUP1 PUSH2 0x3C20 JUMP JUMPDEST PUSH1 0x20 DUP2 MLOAD SWAP2 ADD DUP1 MLOAD SWAP3 PUSH8 0xDE0B6B3A7640000 SWAP4 DUP5 SUB SWAP1 DUP5 DUP3 GT PUSH2 0xA93 JUMPI PUSH2 0x3C8B PUSH2 0x2DFA SWAP3 PUSH2 0x2DB5 SWAP6 PUSH2 0x2E99 JUMP JUMPDEST SWAP3 MLOAD PUSH2 0x2E99 JUMP JUMPDEST PUSH1 0x0 DUP1 PUSH2 0x169 SWAP2 DUP3 SLOAD SWAP3 PUSH2 0x3CA5 DUP5 PUSH2 0x2F83 JUMP JUMPDEST SWAP4 DUP3 SWAP2 JUMPDEST DUP2 DUP4 LT PUSH2 0x3CD2 JUMPI POP POP POP DUP2 ISZERO PUSH2 0x3CC6 JUMPI SWAP1 PUSH2 0x3CC3 SWAP2 PUSH2 0x2EAC JUMP JUMPDEST SWAP2 JUMP JUMPDEST POP POP PUSH2 0x17B SLOAD PUSH1 0x1 SHL SWAP2 JUMP JUMPDEST SWAP1 SWAP2 SWAP4 SWAP3 PUSH2 0x3CDF DUP6 PUSH2 0x30C9 JUMP JUMPDEST SWAP1 DUP2 PUSH2 0x3CEB DUP8 DUP10 PUSH2 0x2D61 JUMP JUMPDEST MSTORE PUSH2 0x3D04 PUSH2 0x3CF9 DUP4 DUP9 PUSH2 0x2E2C JUMP JUMPDEST POP PUSH2 0x2DEE DUP9 DUP7 PUSH2 0x2888 JUMP JUMPDEST PUSH8 0xDE0B6B3A7640000 SWAP1 DUP2 DUP2 MUL SWAP2 DUP2 DUP4 DIV EQ SWAP1 ISZERO OR ISZERO PUSH2 0xA93 JUMPI PUSH2 0x3D41 PUSH2 0x3D47 SWAP3 PUSH2 0x2DFA DUP6 PUSH2 0x3D38 PUSH1 0x1 SWAP8 PUSH2 0x1024 SWAP7 PUSH2 0x3E93 JUMP JUMPDEST SWAP5 DUP6 SWAP2 DUP13 PUSH2 0x3BEF JUMP JUMPDEST SWAP6 PUSH2 0x2D75 JUMP JUMPDEST SWAP5 ADD SWAP2 SWAP1 PUSH2 0x3CA9 JUMP JUMPDEST PUSH2 0x1BF DUP1 SLOAD NUMBER LT ISZERO PUSH2 0x3D5F JUMPI POP JUMP JUMPDEST PUSH2 0x169 SLOAD PUSH1 0x0 JUMPDEST DUP2 DUP2 LT PUSH2 0x3D79 JUMPI POP POP PUSH2 0x1C0 SLOAD NUMBER ADD SWAP1 SSTORE JUMP JUMPDEST DUP1 DUP1 PUSH32 0x19156E9379C7BBBCE8F646CE5EE30BA860B8F954717405F3D5859A6C1A21AE60 PUSH1 0x1 SWAP4 PUSH2 0x1BE PUSH2 0x3DAF PUSH2 0x3C4B DUP4 DUP4 PUSH2 0x2888 JUMP JUMPDEST SWAP1 PUSH2 0x3DCD PUSH2 0x3DC5 PUSH2 0x3DBF DUP6 PUSH2 0x30C9 JUMP JUMPDEST DUP5 PUSH2 0x3C5E JUMP JUMPDEST SWAP4 DUP5 SWAP3 PUSH2 0x2888 JUMP JUMPDEST POP SSTORE MLOAD PUSH1 0x40 SWAP2 DUP3 MLOAD SWAP2 DUP3 MSTORE PUSH1 0x20 DUP3 ADD MSTORE LOG2 ADD PUSH2 0x3D66 JUMP JUMPDEST PUSH1 0x97 SLOAD PUSH1 0x40 MLOAD PUSH4 0xD994D6D5 PUSH1 0xE0 SHL DUP2 MSTORE CALLER PUSH1 0x4 DUP3 ADD MSTORE SWAP1 PUSH1 0x20 SWAP1 DUP3 SWAP1 PUSH1 0x24 SWAP1 DUP3 SWAP1 PUSH1 0x1 PUSH1 0x1 PUSH1 0xA0 SHL SUB AND GAS STATICCALL SWAP1 DUP2 ISZERO PUSH2 0x3175 JUMPI PUSH1 0x0 SWAP2 PUSH2 0x3E39 JUMPI JUMPDEST POP ISZERO PUSH2 0x3E27 JUMPI JUMP JUMPDEST PUSH1 0x40 MLOAD PUSH4 0x1DD1B1B5 PUSH1 0xE2 SHL DUP2 MSTORE PUSH1 0x4 SWAP1 REVERT JUMPDEST SWAP1 PUSH1 0x20 DUP3 RETURNDATASIZE DUP3 GT PUSH2 0x3E6A JUMPI JUMPDEST DUP2 PUSH2 0x3E52 PUSH1 0x20 SWAP4 DUP4 PUSH2 0x27D8 JUMP JUMPDEST DUP2 ADD SUB SLT PUSH2 0x487 JUMPI POP PUSH2 0x3E64 SWAP1 PUSH2 0x30F8 JUMP JUMPDEST CODESIZE PUSH2 0x3E1F JUMP JUMPDEST RETURNDATASIZE SWAP2 POP PUSH2 0x3E45 JUMP JUMPDEST PUSH1 0xFF PUSH1 0xCA SLOAD PUSH1 0x8 SHR AND PUSH2 0x3E81 JUMPI JUMP JUMPDEST PUSH1 0x40 MLOAD PUSH4 0x783BB6C9 PUSH1 0xE1 SHL DUP2 MSTORE PUSH1 0x4 SWAP1 REVERT JUMPDEST SWAP1 PUSH8 0xDE0B6B3A7640000 SWAP2 DUP3 DUP2 MUL SWAP3 DUP2 DUP5 DIV EQ SWAP1 ISZERO OR ISZERO PUSH2 0xA93 JUMPI PUSH2 0x2F3D SWAP2 PUSH2 0x2EAC JUMP INVALID LOG2 PUSH5 0x6970667358 0x22 SLT KECCAK256 0x5E MSTORE8 OR MLOAD 0xC1 DUP5 CALL 0xC4 0x4C JUMPI PUSH3 0x5955FB PUSH10 0x962E2CD5462C4F141118 SWAP4 DUP8 POP 0xD6 0xD6 SWAP11 0xF6 PUSH5 0x736F6C6343 STOP ADDMOD EQ STOP CALLER "
    },
    "gasEstimates": {
      "creation": {
        "codeDepositCost": "3221800",
        "executionCost": "infinite",
        "totalCost": "infinite"
      },
      "external": {
        "absoluteAccumulator()": "4081",
        "addPeggedToken((address,address,uint256,uint256,uint256,uint256,uint256))": "infinite",
        "appreciationFactor()": "4389",
        "bes()": "2893",
        "bns()": "2453",
        "calcCtargemaCA()": "infinite",
        "changeGovernor(address)": "infinite",
        "decayBlockSpan()": "3245",
        "differentialAccumulator()": "3355",
        "editPeggedToken((address,address,uint256,uint256,uint256,uint256,uint256))": "infinite",
        "emaCalculationBlockSpan()": "3465",
        "evalLiquidation()": "infinite",
        "feeRetainer()": "2937",
        "feeToken()": "3137",
        "feeTokenPct()": "2651",
        "feeTokenPriceProvider()": "4303",
        "getPACtp(address)": "infinite",
        "governor()": "2345",
        "isLiquidationReached()": "infinite",
        "lastOperationBlockNumber()": "3047",
        "liqEnabled()": "4247",
        "liqRedeemTPTo(address,address,address,uint256)": "infinite",
        "liqThrld()": "3663",
        "liquidated()": "2537",
        "makeStoppable()": "infinite",
        "makeUnstoppable()": "infinite",
        "maxAbsoluteOpProvider()": "4281",
        "maxOpDiffProvider()": "3907",
        "maxQACToMintTP()": "infinite",
        "maxQACToRedeemTP()": "infinite",
        "mintTCandTPFee()": "3399",
        "mintTCandTPto((address,uint256,uint256,address,address,address))": "infinite",
        "mocAppreciationBeneficiaryAddress()": "2939",
        "mocFeeFlowAddress()": "3753",
        "mocVendors()": "3577",
        "nACcb()": "4345",
        "nTCcb()": "3421",
        "nextEmaCalculation()": "2343",
        "nextTCInterestPayment()": "3905",
        "pause()": "28976",
        "paused()": "3087",
        "pauser()": "3828",
        "pegContainer(uint256)": "9382",
        "peggedTokenIndex(address)": "6027",
        "protThrld()": "3223",
        "proxiableUUID()": "infinite",
        "redeemTCandTPFee()": "4367",
        "redeemTCandTPto((address,uint256,uint256,uint256,address,address,address),address)": "infinite",
        "setAppreciationFactor(uint256)": "infinite",
        "setBes(uint256)": "infinite",
        "setDecayBlockSpan(uint256)": "infinite",
        "setEmaCalculationBlockSpan(uint256)": "infinite",
        "setFeeRetainer(uint256)": "infinite",
        "setFeeTokenAddress(address)": "infinite",
        "setFeeTokenPct(uint256)": "infinite",
        "setFeeTokenPriceProviderAddress(address)": "infinite",
        "setLiqEnabled(bool)": "infinite",
        "setLiqThrld(uint256)": "infinite",
        "setMaxAbsoluteOpProviderAddress(address)": "infinite",
        "setMaxOpDiffProviderAddress(address)": "infinite",
        "setMintTCandTPFee(uint256)": "infinite",
        "setMocAppreciationBeneficiaryAddress(address)": "infinite",
        "setMocFeeFlowAddress(address)": "infinite",
        "setPauser(address)": "infinite",
        "setProtThrld(uint256)": "infinite",
        "setRedeemTCandTPFee(uint256)": "infinite",
        "setSuccessFee(uint256)": "infinite",
        "setSwapTCforTPFee(uint256)": "infinite",
        "setSwapTPforTCFee(uint256)": "infinite",
        "setSwapTPforTPFee(uint256)": "infinite",
        "setTCInterestCollectorAddress(address)": "infinite",
        "setTCInterestPaymentBlockSpan(uint256)": "infinite",
        "setTCInterestRate(uint256)": "infinite",
        "setTcMintFee(uint256)": "infinite",
        "setTcRedeemFee(uint256)": "infinite",
        "shouldCalculateEma()": "3825",
        "stoppable()": "3939",
        "successFee()": "3333",
        "swapTCforTPFee()": "2585",
        "swapTCforTPto((address,uint256,uint256,uint256,address,address,address),address)": "infinite",
        "swapTPforTCFee()": "2717",
        "swapTPforTCto((address,uint256,uint256,uint256,address,address,address),address)": "infinite",
        "swapTPforTPFee()": "2849",
        "swapTPforTPto((address,address,uint256,uint256,uint256,address,address,address),address)": "infinite",
        "tcInterestCollectorAddress()": "3709",
        "tcInterestPaymentBlockSpan()": "3597",
        "tcInterestRate()": "2387",
        "tcMintFee()": "4428",
        "tcRedeemFee()": "3861",
        "tcToken()": "3115",
        "tpCtarg(uint256)": "7895",
        "tpEma(uint256)": "10703",
        "tpLiqPrices(uint256)": "7147",
        "tpMintFees(address)": "2656",
        "tpRedeemFees(address)": "4262",
        "tpTokens(uint256)": "6665",
        "unpause()": "26029",
        "updateEmas()": "infinite",
        "upgradeTo(address)": "infinite",
        "upgradeToAndCall(address,bytes)": "infinite"
      },
      "internal": {
        "_calcQACforMintTCandTP(uint256,uint256,uint256,uint256)": "infinite",
        "_calcQACforRedeemTCandTP(uint256,uint256,uint256,uint256)": "infinite"
      }
    },
    "methodIdentifiers": {
      "absoluteAccumulator()": "d87aab6f",
      "addPeggedToken((address,address,uint256,uint256,uint256,uint256,uint256))": "db796072",
      "appreciationFactor()": "fa6e83bd",
      "bes()": "4d977e78",
      "bns()": "1867e2f5",
      "calcCtargemaCA()": "662013f4",
      "changeGovernor(address)": "e4c0aaf4",
      "decayBlockSpan()": "6f30471f",
      "differentialAccumulator()": "76228055",
      "editPeggedToken((address,address,uint256,uint256,uint256,uint256,uint256))": "f26114aa",
      "emaCalculationBlockSpan()": "7a727fe8",
      "evalLiquidation()": "33421c38",
      "feeRetainer()": "4f0f27ee",
      "feeToken()": "647846a5",
      "feeTokenPct()": "2ded50f0",
      "feeTokenPriceProvider()": "f13f4054",
      "getPACtp(address)": "fadda424",
      "governor()": "0c340a24",
      "isLiquidationReached()": "9ad6659d",
      "lastOperationBlockNumber()": "5860ee63",
      "liqEnabled()": "e7c25978",
      "liqRedeemTPTo(address,address,address,uint256)": "6845c445",
      "liqThrld()": "8cfa4241",
      "liquidated()": "23b98cde",
      "makeStoppable()": "68274357",
      "makeUnstoppable()": "5210570c",
      "maxAbsoluteOpProvider()": "ee1f438f",
      "maxOpDiffProvider()": "b5e9ea8c",
      "maxQACToMintTP()": "d6af11da",
      "maxQACToRedeemTP()": "7f13b998",
      "mintTCandTPFee()": "79f9a91c",
      "mintTCandTPto((address,uint256,uint256,address,address,address))": "e44bb512",
      "mocAppreciationBeneficiaryAddress()": "4e1f907a",
      "mocFeeFlowAddress()": "9853c35a",
      "mocVendors()": "7f01c715",
      "nACcb()": "f30b5614",
      "nTCcb()": "7a193c31",
      "nextEmaCalculation()": "0c36d897",
      "nextTCInterestPayment()": "b9fa6413",
      "pause()": "8456cb59",
      "paused()": "5c975abb",
      "pauser()": "9fd0506d",
      "pegContainer(uint256)": "4b746001",
      "peggedTokenIndex(address)": "9cabfc00",
      "protThrld()": "6b5488df",
      "proxiableUUID()": "52d1902d",
      "redeemTCandTPFee()": "f375cfba",
      "redeemTCandTPto((address,uint256,uint256,uint256,address,address,address),address)": "2f155a56",
      "setAppreciationFactor(uint256)": "01dde6ef",
      "setBes(uint256)": "c84353c9",
      "setDecayBlockSpan(uint256)": "73e28af9",
      "setEmaCalculationBlockSpan(uint256)": "3bc4ac0a",
      "setFeeRetainer(uint256)": "7750ba0c",
      "setFeeTokenAddress(address)": "cf351c1d",
      "setFeeTokenPct(uint256)": "543aeb48",
      "setFeeTokenPriceProviderAddress(address)": "0f1e5e2b",
      "setLiqEnabled(bool)": "1fe6a7ad",
      "setLiqThrld(uint256)": "2c43bd3b",
      "setMaxAbsoluteOpProviderAddress(address)": "d8db6f5a",
      "setMaxOpDiffProviderAddress(address)": "85bf9593",
      "setMintTCandTPFee(uint256)": "2069f753",
      "setMocAppreciationBeneficiaryAddress(address)": "27eab2a1",
      "setMocFeeFlowAddress(address)": "0d6ac463",
      "setPauser(address)": "2d88af4a",
      "setProtThrld(uint256)": "7cba2383",
      "setRedeemTCandTPFee(uint256)": "7a4ff1d9",
      "setSuccessFee(uint256)": "becaca6b",
      "setSwapTCforTPFee(uint256)": "7af5758c",
      "setSwapTPforTCFee(uint256)": "0e0a8fd2",
      "setSwapTPforTPFee(uint256)": "70713468",
      "setTCInterestCollectorAddress(address)": "735d3960",
      "setTCInterestPaymentBlockSpan(uint256)": "073763b9",
      "setTCInterestRate(uint256)": "64ec230a",
      "setTcMintFee(uint256)": "f2808778",
      "setTcRedeemFee(uint256)": "c00f538d",
      "shouldCalculateEma()": "a8e9ac30",
      "stoppable()": "bb4872de",
      "successFee()": "7554fffd",
      "swapTCforTPFee()": "2a20d57d",
      "swapTCforTPto((address,uint256,uint256,uint256,address,address,address),address)": "8e9875ba",
      "swapTPforTCFee()": "333431fd",
      "swapTPforTCto((address,uint256,uint256,uint256,address,address,address),address)": "ab6dd71d",
      "swapTPforTPFee()": "407f0e34",
      "swapTPforTPto((address,address,uint256,uint256,uint256,address,address,address),address)": "2e816dc6",
      "tcInterestCollectorAddress()": "8e2bdb86",
      "tcInterestPaymentBlockSpan()": "7f4a4fe0",
      "tcInterestRate()": "0db49656",
      "tcMintFee()": "fda70f8b",
      "tcRedeemFee()": "aea038dc",
      "tcToken()": "60009e0b",
      "tpCtarg(uint256)": "7d8e0314",
      "tpEma(uint256)": "e6b1627c",
      "tpLiqPrices(uint256)": "3915edcb",
      "tpMintFees(address)": "24ffaba3",
      "tpRedeemFees(address)": "ddb6d190",
      "tpTokens(uint256)": "01f1b684",
      "unpause()": "3f4ba83a",
      "updateEmas()": "d1a0faa0",
      "upgradeTo(address)": "3659cfe6",
      "upgradeToAndCall(address,bytes)": "4f1ef286"
    }
  },
  "storageLayout": {
    "storage": [
      {
        "astId": 950,
        "contract": "contracts/core/MocCoreExpansion.sol:MocCoreExpansion",
        "label": "_initialized",
        "offset": 0,
        "slot": "0",
        "type": "t_uint8"
      },
      {
        "astId": 953,
        "contract": "contracts/core/MocCoreExpansion.sol:MocCoreExpansion",
        "label": "_initializing",
        "offset": 1,
        "slot": "0",
        "type": "t_bool"
      },
      {
        "astId": 932,
        "contract": "contracts/core/MocCoreExpansion.sol:MocCoreExpansion",
        "label": "__gap",
        "offset": 0,
        "slot": "1",
        "type": "t_array(t_uint256)50_storage"
      },
      {
        "astId": 1247,
        "contract": "contracts/core/MocCoreExpansion.sol:MocCoreExpansion",
        "label": "__gap",
        "offset": 0,
        "slot": "51",
        "type": "t_array(t_uint256)50_storage"
      },
      {
        "astId": 30379,
        "contract": "contracts/core/MocCoreExpansion.sol:MocCoreExpansion",
        "label": "__gap",
        "offset": 0,
        "slot": "101",
        "type": "t_array(t_uint256)50_storage"
      },
      {
        "astId": 24623,
        "contract": "contracts/core/MocCoreExpansion.sol:MocCoreExpansion",
        "label": "governor",
        "offset": 0,
        "slot": "151",
        "type": "t_contract(IGovernor)25472"
      },
      {
        "astId": 24694,
        "contract": "contracts/core/MocCoreExpansion.sol:MocCoreExpansion",
        "label": "__gap",
        "offset": 0,
        "slot": "152",
        "type": "t_array(t_uint256)50_storage"
      },
      {
        "astId": 24763,
        "contract": "contracts/core/MocCoreExpansion.sol:MocCoreExpansion",
        "label": "stoppable",
        "offset": 0,
        "slot": "202",
        "type": "t_bool"
      },
      {
        "astId": 24765,
        "contract": "contracts/core/MocCoreExpansion.sol:MocCoreExpansion",
        "label": "_paused",
        "offset": 1,
        "slot": "202",
        "type": "t_bool"
      },
      {
        "astId": 24767,
        "contract": "contracts/core/MocCoreExpansion.sol:MocCoreExpansion",
        "label": "pauser",
        "offset": 2,
        "slot": "202",
        "type": "t_address"
      },
      {
        "astId": 24926,
        "contract": "contracts/core/MocCoreExpansion.sol:MocCoreExpansion",
        "label": "__gap",
        "offset": 0,
        "slot": "203",
        "type": "t_array(t_uint256)50_storage"
      },
      {
        "astId": 24745,
        "contract": "contracts/core/MocCoreExpansion.sol:MocCoreExpansion",
        "label": "__gap",
        "offset": 0,
        "slot": "253",
        "type": "t_array(t_uint256)50_storage"
      },
      {
        "astId": 1389,
        "contract": "contracts/core/MocCoreExpansion.sol:MocCoreExpansion",
        "label": "_status",
        "offset": 0,
        "slot": "303",
        "type": "t_uint256"
      },
      {
        "astId": 1458,
        "contract": "contracts/core/MocCoreExpansion.sol:MocCoreExpansion",
        "label": "__gap",
        "offset": 0,
        "slot": "304",
        "type": "t_array(t_uint256)49_storage"
      },
      {
        "astId": 14169,
        "contract": "contracts/core/MocCoreExpansion.sol:MocCoreExpansion",
        "label": "feeToken",
        "offset": 0,
        "slot": "353",
        "type": "t_contract(IERC20)6209"
      },
      {
        "astId": 14172,
        "contract": "contracts/core/MocCoreExpansion.sol:MocCoreExpansion",
        "label": "feeTokenPriceProvider",
        "offset": 0,
        "slot": "354",
        "type": "t_contract(IPriceProvider)25510"
      },
      {
        "astId": 14174,
        "contract": "contracts/core/MocCoreExpansion.sol:MocCoreExpansion",
        "label": "nACcb",
        "offset": 0,
        "slot": "355",
        "type": "t_uint256"
      },
      {
        "astId": 14176,
        "contract": "contracts/core/MocCoreExpansion.sol:MocCoreExpansion",
        "label": "nACioucb",
        "offset": 0,
        "slot": "356",
        "type": "t_uint256"
      },
      {
        "astId": 14179,
        "contract": "contracts/core/MocCoreExpansion.sol:MocCoreExpansion",
        "label": "tcToken",
        "offset": 0,
        "slot": "357",
        "type": "t_contract(MocTC)30204"
      },
      {
        "astId": 14181,
        "contract": "contracts/core/MocCoreExpansion.sol:MocCoreExpansion",
        "label": "nTCcb",
        "offset": 0,
        "slot": "358",
        "type": "t_uint256"
      },
      {
        "astId": 14185,
        "contract": "contracts/core/MocCoreExpansion.sol:MocCoreExpansion",
        "label": "tpTokens",
        "offset": 0,
        "slot": "359",
        "type": "t_array(t_contract(IMocRC20)25498)dyn_storage"
      },
      {
        "astId": 14190,
        "contract": "contracts/core/MocCoreExpansion.sol:MocCoreExpansion",
        "label": "peggedTokenIndex",
        "offset": 0,
        "slot": "360",
        "type": "t_mapping(t_address,t_struct(PeggedTokenIndex)14115_storage)"
      },
      {
        "astId": 14194,
        "contract": "contracts/core/MocCoreExpansion.sol:MocCoreExpansion",
        "label": "pegContainer",
        "offset": 0,
        "slot": "361",
        "type": "t_array(t_struct(PegContainerItem)14110_storage)dyn_storage"
      },
      {
        "astId": 14197,
        "contract": "contracts/core/MocCoreExpansion.sol:MocCoreExpansion",
        "label": "tpLiqPrices",
        "offset": 0,
        "slot": "362",
        "type": "t_array(t_uint256)dyn_storage"
      },
      {
        "astId": 14199,
        "contract": "contracts/core/MocCoreExpansion.sol:MocCoreExpansion",
        "label": "successFee",
        "offset": 0,
        "slot": "363",
        "type": "t_uint256"
      },
      {
        "astId": 14201,
        "contract": "contracts/core/MocCoreExpansion.sol:MocCoreExpansion",
        "label": "appreciationFactor",
        "offset": 0,
        "slot": "364",
        "type": "t_uint256"
      },
      {
        "astId": 14203,
        "contract": "contracts/core/MocCoreExpansion.sol:MocCoreExpansion",
        "label": "feeRetainer",
        "offset": 0,
        "slot": "365",
        "type": "t_uint256"
      },
      {
        "astId": 14205,
        "contract": "contracts/core/MocCoreExpansion.sol:MocCoreExpansion",
        "label": "tcMintFee",
        "offset": 0,
        "slot": "366",
        "type": "t_uint256"
      },
      {
        "astId": 14207,
        "contract": "contracts/core/MocCoreExpansion.sol:MocCoreExpansion",
        "label": "tcRedeemFee",
        "offset": 0,
        "slot": "367",
        "type": "t_uint256"
      },
      {
        "astId": 14209,
        "contract": "contracts/core/MocCoreExpansion.sol:MocCoreExpansion",
        "label": "swapTPforTPFee",
        "offset": 0,
        "slot": "368",
        "type": "t_uint256"
      },
      {
        "astId": 14211,
        "contract": "contracts/core/MocCoreExpansion.sol:MocCoreExpansion",
        "label": "swapTPforTCFee",
        "offset": 0,
        "slot": "369",
        "type": "t_uint256"
      },
      {
        "astId": 14213,
        "contract": "contracts/core/MocCoreExpansion.sol:MocCoreExpansion",
        "label": "swapTCforTPFee",
        "offset": 0,
        "slot": "370",
        "type": "t_uint256"
      },
      {
        "astId": 14215,
        "contract": "contracts/core/MocCoreExpansion.sol:MocCoreExpansion",
        "label": "redeemTCandTPFee",
        "offset": 0,
        "slot": "371",
        "type": "t_uint256"
      },
      {
        "astId": 14217,
        "contract": "contracts/core/MocCoreExpansion.sol:MocCoreExpansion",
        "label": "mintTCandTPFee",
        "offset": 0,
        "slot": "372",
        "type": "t_uint256"
      },
      {
        "astId": 14219,
        "contract": "contracts/core/MocCoreExpansion.sol:MocCoreExpansion",
        "label": "feeTokenPct",
        "offset": 0,
        "slot": "373",
        "type": "t_uint256"
      },
      {
        "astId": 14223,
        "contract": "contracts/core/MocCoreExpansion.sol:MocCoreExpansion",
        "label": "tpMintFees",
        "offset": 0,
        "slot": "374",
        "type": "t_mapping(t_address,t_uint256)"
      },
      {
        "astId": 14227,
        "contract": "contracts/core/MocCoreExpansion.sol:MocCoreExpansion",
        "label": "tpRedeemFees",
        "offset": 0,
        "slot": "375",
        "type": "t_mapping(t_address,t_uint256)"
      },
      {
        "astId": 14229,
        "contract": "contracts/core/MocCoreExpansion.sol:MocCoreExpansion",
        "label": "mocFeeFlowAddress",
        "offset": 0,
        "slot": "376",
        "type": "t_address"
      },
      {
        "astId": 14231,
        "contract": "contracts/core/MocCoreExpansion.sol:MocCoreExpansion",
        "label": "mocAppreciationBeneficiaryAddress",
        "offset": 0,
        "slot": "377",
        "type": "t_address"
      },
      {
        "astId": 14234,
        "contract": "contracts/core/MocCoreExpansion.sol:MocCoreExpansion",
        "label": "tpCtarg",
        "offset": 0,
        "slot": "378",
        "type": "t_array(t_uint256)dyn_storage"
      },
      {
        "astId": 14236,
        "contract": "contracts/core/MocCoreExpansion.sol:MocCoreExpansion",
        "label": "protThrld",
        "offset": 0,
        "slot": "379",
        "type": "t_uint256"
      },
      {
        "astId": 14238,
        "contract": "contracts/core/MocCoreExpansion.sol:MocCoreExpansion",
        "label": "liqThrld",
        "offset": 0,
        "slot": "380",
        "type": "t_uint256"
      },
      {
        "astId": 14240,
        "contract": "contracts/core/MocCoreExpansion.sol:MocCoreExpansion",
        "label": "liqEnabled",
        "offset": 0,
        "slot": "381",
        "type": "t_bool"
      },
      {
        "astId": 14242,
        "contract": "contracts/core/MocCoreExpansion.sol:MocCoreExpansion",
        "label": "liquidated",
        "offset": 1,
        "slot": "381",
        "type": "t_bool"
      },
      {
        "astId": 14244,
        "contract": "contracts/core/MocCoreExpansion.sol:MocCoreExpansion",
        "label": "bes",
        "offset": 0,
        "slot": "382",
        "type": "t_uint256"
      },
      {
        "astId": 14246,
        "contract": "contracts/core/MocCoreExpansion.sol:MocCoreExpansion",
        "label": "bns",
        "offset": 0,
        "slot": "383",
        "type": "t_uint256"
      },
      {
        "astId": 14249,
        "contract": "contracts/core/MocCoreExpansion.sol:MocCoreExpansion",
        "label": "tpiou",
        "offset": 0,
        "slot": "384",
        "type": "t_array(t_int256)dyn_storage"
      },
      {
        "astId": 14252,
        "contract": "contracts/core/MocCoreExpansion.sol:MocCoreExpansion",
        "label": "pACtpLstop",
        "offset": 0,
        "slot": "385",
        "type": "t_array(t_uint256)dyn_storage"
      },
      {
        "astId": 14255,
        "contract": "contracts/core/MocCoreExpansion.sol:MocCoreExpansion",
        "label": "maxAbsoluteOpProvider",
        "offset": 0,
        "slot": "386",
        "type": "t_contract(IDataProvider)25426"
      },
      {
        "astId": 14258,
        "contract": "contracts/core/MocCoreExpansion.sol:MocCoreExpansion",
        "label": "maxOpDiffProvider",
        "offset": 0,
        "slot": "387",
        "type": "t_contract(IDataProvider)25426"
      },
      {
        "astId": 14260,
        "contract": "contracts/core/MocCoreExpansion.sol:MocCoreExpansion",
        "label": "decayBlockSpan",
        "offset": 0,
        "slot": "388",
        "type": "t_uint256"
      },
      {
        "astId": 14262,
        "contract": "contracts/core/MocCoreExpansion.sol:MocCoreExpansion",
        "label": "absoluteAccumulator",
        "offset": 0,
        "slot": "389",
        "type": "t_uint256"
      },
      {
        "astId": 14264,
        "contract": "contracts/core/MocCoreExpansion.sol:MocCoreExpansion",
        "label": "differentialAccumulator",
        "offset": 0,
        "slot": "390",
        "type": "t_int256"
      },
      {
        "astId": 14266,
        "contract": "contracts/core/MocCoreExpansion.sol:MocCoreExpansion",
        "label": "lastOperationBlockNumber",
        "offset": 0,
        "slot": "391",
        "type": "t_uint256"
      },
      {
        "astId": 14268,
        "contract": "contracts/core/MocCoreExpansion.sol:MocCoreExpansion",
        "label": "tcInterestCollectorAddress",
        "offset": 0,
        "slot": "392",
        "type": "t_address"
      },
      {
        "astId": 14270,
        "contract": "contracts/core/MocCoreExpansion.sol:MocCoreExpansion",
        "label": "tcInterestRate",
        "offset": 0,
        "slot": "393",
        "type": "t_uint256"
      },
      {
        "astId": 14272,
        "contract": "contracts/core/MocCoreExpansion.sol:MocCoreExpansion",
        "label": "tcInterestPaymentBlockSpan",
        "offset": 0,
        "slot": "394",
        "type": "t_uint256"
      },
      {
        "astId": 14274,
        "contract": "contracts/core/MocCoreExpansion.sol:MocCoreExpansion",
        "label": "nextTCInterestPayment",
        "offset": 0,
        "slot": "395",
        "type": "t_uint256"
      },
      {
        "astId": 15897,
        "contract": "contracts/core/MocCoreExpansion.sol:MocCoreExpansion",
        "label": "__gap",
        "offset": 0,
        "slot": "396",
        "type": "t_array(t_uint256)50_storage"
      },
      {
        "astId": 20960,
        "contract": "contracts/core/MocCoreExpansion.sol:MocCoreExpansion",
        "label": "tpEma",
        "offset": 0,
        "slot": "446",
        "type": "t_array(t_struct(EmaItem)20956_storage)dyn_storage"
      },
      {
        "astId": 20962,
        "contract": "contracts/core/MocCoreExpansion.sol:MocCoreExpansion",
        "label": "nextEmaCalculation",
        "offset": 0,
        "slot": "447",
        "type": "t_uint256"
      },
      {
        "astId": 20964,
        "contract": "contracts/core/MocCoreExpansion.sol:MocCoreExpansion",
        "label": "emaCalculationBlockSpan",
        "offset": 0,
        "slot": "448",
        "type": "t_uint256"
      },
      {
        "astId": 21336,
        "contract": "contracts/core/MocCoreExpansion.sol:MocCoreExpansion",
        "label": "__gap",
        "offset": 0,
        "slot": "449",
        "type": "t_array(t_uint256)50_storage"
      },
      {
        "astId": 15931,
        "contract": "contracts/core/MocCoreExpansion.sol:MocCoreExpansion",
        "label": "mocVendors",
        "offset": 0,
        "slot": "499",
        "type": "t_contract(MocVendors)30509"
      },
      {
        "astId": 16804,
        "contract": "contracts/core/MocCoreExpansion.sol:MocCoreExpansion",
        "label": "__gap",
        "offset": 0,
        "slot": "500",
        "type": "t_array(t_uint256)50_storage"
      }
    ],
    "types": {
      "t_address": {
        "encoding": "inplace",
        "label": "address",
        "numberOfBytes": "20"
      },
      "t_array(t_contract(IMocRC20)25498)dyn_storage": {
        "base": "t_contract(IMocRC20)25498",
        "encoding": "dynamic_array",
        "label": "contract IMocRC20[]",
        "numberOfBytes": "32"
      },
      "t_array(t_int256)dyn_storage": {
        "base": "t_int256",
        "encoding": "dynamic_array",
        "label": "int256[]",
        "numberOfBytes": "32"
      },
      "t_array(t_struct(EmaItem)20956_storage)dyn_storage": {
        "base": "t_struct(EmaItem)20956_storage",
        "encoding": "dynamic_array",
        "label": "struct MocEma.EmaItem[]",
        "numberOfBytes": "32"
      },
      "t_array(t_struct(PegContainerItem)14110_storage)dyn_storage": {
        "base": "t_struct(PegContainerItem)14110_storage",
        "encoding": "dynamic_array",
        "label": "struct MocBaseBucket.PegContainerItem[]",
        "numberOfBytes": "32"
      },
      "t_array(t_uint256)49_storage": {
        "base": "t_uint256",
        "encoding": "inplace",
        "label": "uint256[49]",
        "numberOfBytes": "1568"
      },
      "t_array(t_uint256)50_storage": {
        "base": "t_uint256",
        "encoding": "inplace",
        "label": "uint256[50]",
        "numberOfBytes": "1600"
      },
      "t_array(t_uint256)dyn_storage": {
        "base": "t_uint256",
        "encoding": "dynamic_array",
        "label": "uint256[]",
        "numberOfBytes": "32"
      },
      "t_bool": {
        "encoding": "inplace",
        "label": "bool",
        "numberOfBytes": "1"
      },
      "t_contract(IDataProvider)25426": {
        "encoding": "inplace",
        "label": "contract IDataProvider",
        "numberOfBytes": "20"
      },
      "t_contract(IERC20)6209": {
        "encoding": "inplace",
        "label": "contract IERC20",
        "numberOfBytes": "20"
      },
      "t_contract(IGovernor)25472": {
        "encoding": "inplace",
        "label": "contract IGovernor",
        "numberOfBytes": "20"
      },
      "t_contract(IMocRC20)25498": {
        "encoding": "inplace",
        "label": "contract IMocRC20",
        "numberOfBytes": "20"
      },
      "t_contract(IPriceProvider)25510": {
        "encoding": "inplace",
        "label": "contract IPriceProvider",
        "numberOfBytes": "20"
      },
      "t_contract(MocTC)30204": {
        "encoding": "inplace",
        "label": "contract MocTC",
        "numberOfBytes": "20"
      },
      "t_contract(MocVendors)30509": {
        "encoding": "inplace",
        "label": "contract MocVendors",
        "numberOfBytes": "20"
      },
      "t_int256": {
        "encoding": "inplace",
        "label": "int256",
        "numberOfBytes": "32"
      },
      "t_mapping(t_address,t_struct(PeggedTokenIndex)14115_storage)": {
        "encoding": "mapping",
        "key": "t_address",
        "label": "mapping(address => struct MocBaseBucket.PeggedTokenIndex)",
        "numberOfBytes": "32",
        "value": "t_struct(PeggedTokenIndex)14115_storage"
      },
      "t_mapping(t_address,t_uint256)": {
        "encoding": "mapping",
        "key": "t_address",
        "label": "mapping(address => uint256)",
        "numberOfBytes": "32",
        "value": "t_uint256"
      },
      "t_struct(EmaItem)20956_storage": {
        "encoding": "inplace",
        "label": "struct MocEma.EmaItem",
        "members": [
          {
            "astId": 20953,
            "contract": "contracts/core/MocCoreExpansion.sol:MocCoreExpansion",
            "label": "ema",
            "offset": 0,
            "slot": "0",
            "type": "t_uint256"
          },
          {
            "astId": 20955,
            "contract": "contracts/core/MocCoreExpansion.sol:MocCoreExpansion",
            "label": "sf",
            "offset": 0,
            "slot": "1",
            "type": "t_uint256"
          }
        ],
        "numberOfBytes": "64"
      },
      "t_struct(PegContainerItem)14110_storage": {
        "encoding": "inplace",
        "label": "struct MocBaseBucket.PegContainerItem",
        "members": [
          {
            "astId": 14106,
            "contract": "contracts/core/MocCoreExpansion.sol:MocCoreExpansion",
            "label": "nTP",
            "offset": 0,
            "slot": "0",
            "type": "t_uint256"
          },
          {
            "astId": 14109,
            "contract": "contracts/core/MocCoreExpansion.sol:MocCoreExpansion",
            "label": "priceProvider",
            "offset": 0,
            "slot": "1",
            "type": "t_contract(IPriceProvider)25510"
          }
        ],
        "numberOfBytes": "64"
      },
      "t_struct(PeggedTokenIndex)14115_storage": {
        "encoding": "inplace",
        "label": "struct MocBaseBucket.PeggedTokenIndex",
        "members": [
          {
            "astId": 14112,
            "contract": "contracts/core/MocCoreExpansion.sol:MocCoreExpansion",
            "label": "index",
            "offset": 0,
            "slot": "0",
            "type": "t_uint256"
          },
          {
            "astId": 14114,
            "contract": "contracts/core/MocCoreExpansion.sol:MocCoreExpansion",
            "label": "exists",
            "offset": 0,
            "slot": "1",
            "type": "t_bool"
          }
        ],
        "numberOfBytes": "64"
      },
      "t_uint256": {
        "encoding": "inplace",
        "label": "uint256",
        "numberOfBytes": "32"
      },
      "t_uint8": {
        "encoding": "inplace",
        "label": "uint8",
        "numberOfBytes": "1"
      }
    }
  },
  "userdoc": {
    "kind": "user",
    "methods": {
      "addPeggedToken((address,address,uint256,uint256,uint256,uint256,uint256))": {
        "notice": "add a Pegged Token to the protocol"
      },
      "calcCtargemaCA()": {
        "notice": "calculates target coverage adjusted by all Pegged Token's to Collateral Asset rate moving average"
      },
      "changeGovernor(address)": {
        "notice": "Change the contract's governor. Should be called through the old governance system"
      },
      "editPeggedToken((address,address,uint256,uint256,uint256,uint256,uint256))": {
        "notice": "modifies a Pegged Token of the protocol"
      },
      "evalLiquidation()": {
        "notice": "evaluates if liquidation threshold has been reached and liq is Enabled. If so forces contracts liquidation, blocking all mint & redeem operations. May emit a {ContractLiquidated} event."
      },
      "getPACtp(address)": {
        "notice": "get how many Pegged Token equal 1 Collateral Asset"
      },
      "governor()": {
        "notice": "The address of the contract which governs this one"
      },
      "isLiquidationReached()": {
        "notice": "If liquidation is enabled, verifies if forced liquidation has been reached, checking if globalCoverage <= liquidation"
      },
      "liqRedeemTPTo(address,address,address,uint256)": {
        "notice": "Allow redeem on liquidation state, user Peg balance gets burned"
      },
      "makeStoppable()": {
        "notice": "Switches ON the stoppability of the contract; if the contract was paused before making it unstoppable it will be paused again after calling this function"
      },
      "makeUnstoppable()": {
        "notice": "Switches OFF the stoppability of the contract; if the contract was paused it will no longer be so"
      },
      "maxQACToMintTP()": {
        "notice": "gets the max amount of AC allowed to operate to mint TP with, restricted by accumulators // TODO: move this function to a MocView contract"
      },
      "maxQACToRedeemTP()": {
        "notice": "gets the max amount of AC allowed to operate to redeem TP with, restricted by accumulators // TODO: move this function to a MocView contract"
      },
      "mintTCandTPto((address,uint256,uint256,address,address,address))": {
        "notice": "mint Collateral Token and Pegged Token in exchange for Collateral Asset  This operation is done without checking coverage  Collateral Token and Pegged Token are minted in equivalent proportions so that its price  and global coverage are not modified.  Reverts if qAC sent are insufficient."
      },
      "pause()": {
        "notice": "Called by the owner to pause, triggers stopped state"
      },
      "paused()": {
        "notice": "Returns true if paused"
      },
      "redeemTCandTPto((address,uint256,uint256,uint256,address,address,address),address)": {
        "notice": "redeem Collateral Asset in exchange for Collateral Token and Pegged Token  This operation is done without checking coverage  Collateral Token and Pegged Token are redeemed in equivalent proportions so that its price  and global coverage are not modified.  Reverts if qTP sent are insufficient."
      },
      "setPauser(address)": {
        "notice": "Changes the address which is enable to pause this contract"
      },
      "shouldCalculateEma()": {
        "notice": "true if the necessary span has pass since last ema update"
      },
      "swapTCforTPto((address,uint256,uint256,uint256,address,address,address),address)": {
        "notice": "swap Collateral Token to Pegged Token"
      },
      "swapTPforTCto((address,uint256,uint256,uint256,address,address,address),address)": {
        "notice": "swap Pegged Token to Collateral Token"
      },
      "swapTPforTPto((address,address,uint256,uint256,uint256,address,address,address),address)": {
        "notice": "swap Pegged Token to another one  This operation is done without checking coverage unless the target coverage for  received Pegged Token is greater than the Pegged Token sent"
      },
      "unpause()": {
        "notice": "Called by the owner to unpause, returns to normal state"
      },
      "updateEmas()": {
        "notice": "If time, calculates the EMA for all the Pegged Token prices."
      }
    },
    "notice": "This contract is used as an expansion of MocCore because 24kb size limitation  MocCore delegate some function calls to it.",
    "version": 1
  }
}