{
  "_format": "hh-sol-artifact-1",
  "contractName": "MocCoreExpansion",
  "sourceName": "moc-main/contracts/core/MocCoreExpansion.sol",
  "abi": [
    {
      "inputs": [],
      "stateMutability": "nonpayable",
      "type": "constructor"
    },
    {
      "inputs": [
        {
          "internalType": "uint256",
          "name": "qACsent_",
          "type": "uint256"
        },
        {
          "internalType": "uint256",
          "name": "qACNeeded_",
          "type": "uint256"
        }
      ],
      "name": "InsufficientQacSent",
      "type": "error"
    },
    {
      "inputs": [
        {
          "internalType": "uint256",
          "name": "qTC_",
          "type": "uint256"
        },
        {
          "internalType": "uint256",
          "name": "tcAvailableToRedeem_",
          "type": "uint256"
        }
      ],
      "name": "InsufficientTCtoRedeem",
      "type": "error"
    },
    {
      "inputs": [
        {
          "internalType": "uint256",
          "name": "qTP_",
          "type": "uint256"
        },
        {
          "internalType": "uint256",
          "name": "tpAvailableToMint_",
          "type": "uint256"
        }
      ],
      "name": "InsufficientTPtoMint",
      "type": "error"
    },
    {
      "inputs": [
        {
          "internalType": "uint256",
          "name": "qTP_",
          "type": "uint256"
        },
        {
          "internalType": "uint256",
          "name": "tpAvailableToRedeem_",
          "type": "uint256"
        }
      ],
      "name": "InsufficientTPtoRedeem",
      "type": "error"
    },
    {
      "inputs": [],
      "name": "InvalidAddress",
      "type": "error"
    },
    {
      "inputs": [],
      "name": "InvalidValue",
      "type": "error"
    },
    {
      "inputs": [],
      "name": "Liquidated",
      "type": "error"
    },
    {
      "inputs": [
        {
          "internalType": "uint256",
          "name": "cglb_",
          "type": "uint256"
        },
        {
          "internalType": "uint256",
          "name": "covThrld_",
          "type": "uint256"
        }
      ],
      "name": "LowCoverage",
      "type": "error"
    },
    {
      "inputs": [
        {
          "internalType": "address",
          "name": "priceProviderAddress_",
          "type": "address"
        }
      ],
      "name": "MissingProviderPrice",
      "type": "error"
    },
    {
      "inputs": [],
      "name": "NotAuthorizedChanger",
      "type": "error"
    },
    {
      "inputs": [],
      "name": "NotWhenPaused",
      "type": "error"
    },
    {
      "inputs": [],
      "name": "OnlyPauser",
      "type": "error"
    },
    {
      "inputs": [],
      "name": "OnlyWhenLiquidated",
      "type": "error"
    },
    {
      "inputs": [],
      "name": "OnlyWhilePaused",
      "type": "error"
    },
    {
      "inputs": [],
      "name": "PeggedTokenAlreadyAdded",
      "type": "error"
    },
    {
      "inputs": [],
      "name": "QacNeededMustBeGreaterThanZero",
      "type": "error"
    },
    {
      "inputs": [
        {
          "internalType": "uint256",
          "name": "qTCmin_",
          "type": "uint256"
        },
        {
          "internalType": "uint256",
          "name": "qTC_",
          "type": "uint256"
        }
      ],
      "name": "QtcBelowMinimumRequired",
      "type": "error"
    },
    {
      "inputs": [
        {
          "internalType": "uint256",
          "name": "qTPmin_",
          "type": "uint256"
        },
        {
          "internalType": "uint256",
          "name": "qTP_",
          "type": "uint256"
        }
      ],
      "name": "QtpBelowMinimumRequired",
      "type": "error"
    },
    {
      "inputs": [],
      "name": "TransferFailed",
      "type": "error"
    },
    {
      "inputs": [],
      "name": "Unstoppable",
      "type": "error"
    },
    {
      "anonymous": false,
      "inputs": [
        {
          "indexed": false,
          "internalType": "address",
          "name": "previousAdmin",
          "type": "address"
        },
        {
          "indexed": false,
          "internalType": "address",
          "name": "newAdmin",
          "type": "address"
        }
      ],
      "name": "AdminChanged",
      "type": "event"
    },
    {
      "anonymous": false,
      "inputs": [
        {
          "indexed": true,
          "internalType": "address",
          "name": "beacon",
          "type": "address"
        }
      ],
      "name": "BeaconUpgraded",
      "type": "event"
    },
    {
      "anonymous": false,
      "inputs": [],
      "name": "ContractLiquidated",
      "type": "event"
    },
    {
      "anonymous": false,
      "inputs": [
        {
          "indexed": false,
          "internalType": "uint8",
          "name": "version",
          "type": "uint8"
        }
      ],
      "name": "Initialized",
      "type": "event"
    },
    {
      "anonymous": false,
      "inputs": [
        {
          "indexed": false,
          "internalType": "address",
          "name": "account",
          "type": "address"
        }
      ],
      "name": "Paused",
      "type": "event"
    },
    {
      "anonymous": false,
      "inputs": [
        {
          "indexed": true,
          "internalType": "uint256",
          "name": "i_",
          "type": "uint256"
        },
        {
          "components": [
            {
              "internalType": "address",
              "name": "tpTokenAddress",
              "type": "address"
            },
            {
              "internalType": "address",
              "name": "priceProviderAddress",
              "type": "address"
            },
            {
              "internalType": "uint256",
              "name": "tpCtarg",
              "type": "uint256"
            },
            {
              "internalType": "uint256",
              "name": "tpMintFee",
              "type": "uint256"
            },
            {
              "internalType": "uint256",
              "name": "tpRedeemFee",
              "type": "uint256"
            },
            {
              "internalType": "uint256",
              "name": "tpEma",
              "type": "uint256"
            },
            {
              "internalType": "uint256",
              "name": "tpEmaSf",
              "type": "uint256"
            }
          ],
          "indexed": false,
          "internalType": "struct PeggedTokenParams",
          "name": "peggedTokenParams_",
          "type": "tuple"
        }
      ],
      "name": "PeggedTokenChange",
      "type": "event"
    },
    {
      "anonymous": false,
      "inputs": [
        {
          "indexed": true,
          "internalType": "uint256",
          "name": "i_",
          "type": "uint256"
        },
        {
          "indexed": true,
          "internalType": "address",
          "name": "sender_",
          "type": "address"
        },
        {
          "indexed": true,
          "internalType": "address",
          "name": "recipient_",
          "type": "address"
        },
        {
          "indexed": false,
          "internalType": "uint256",
          "name": "qTC_",
          "type": "uint256"
        },
        {
          "indexed": false,
          "internalType": "uint256",
          "name": "qTP_",
          "type": "uint256"
        },
        {
          "indexed": false,
          "internalType": "uint256",
          "name": "qACfee_",
          "type": "uint256"
        },
        {
          "indexed": false,
          "internalType": "uint256",
          "name": "qFeeToken_",
          "type": "uint256"
        },
        {
          "indexed": false,
          "internalType": "uint256",
          "name": "qACVendorMarkup_",
          "type": "uint256"
        },
        {
          "indexed": false,
          "internalType": "uint256",
          "name": "qFeeTokenVendorMarkup_",
          "type": "uint256"
        }
      ],
      "name": "TCSwappedForTP",
      "type": "event"
    },
    {
      "anonymous": false,
      "inputs": [
        {
          "indexed": true,
          "internalType": "uint256",
          "name": "i_",
          "type": "uint256"
        },
        {
          "indexed": true,
          "internalType": "address",
          "name": "sender_",
          "type": "address"
        },
        {
          "indexed": true,
          "internalType": "address",
          "name": "recipient_",
          "type": "address"
        },
        {
          "indexed": false,
          "internalType": "uint256",
          "name": "qTP_",
          "type": "uint256"
        },
        {
          "indexed": false,
          "internalType": "uint256",
          "name": "qAC_",
          "type": "uint256"
        },
        {
          "indexed": false,
          "internalType": "uint256",
          "name": "qACfee_",
          "type": "uint256"
        },
        {
          "indexed": false,
          "internalType": "uint256",
          "name": "qFeeToken_",
          "type": "uint256"
        },
        {
          "indexed": false,
          "internalType": "uint256",
          "name": "qACVendorMarkup_",
          "type": "uint256"
        },
        {
          "indexed": false,
          "internalType": "uint256",
          "name": "qFeeTokenVendorMarkup_",
          "type": "uint256"
        }
      ],
      "name": "TPRedeemed",
      "type": "event"
    },
    {
      "anonymous": false,
      "inputs": [
        {
          "indexed": true,
          "internalType": "uint256",
          "name": "i_",
          "type": "uint256"
        },
        {
          "indexed": true,
          "internalType": "address",
          "name": "sender_",
          "type": "address"
        },
        {
          "indexed": true,
          "internalType": "address",
          "name": "recipient_",
          "type": "address"
        },
        {
          "indexed": false,
          "internalType": "uint256",
          "name": "qTP_",
          "type": "uint256"
        },
        {
          "indexed": false,
          "internalType": "uint256",
          "name": "qTC_",
          "type": "uint256"
        },
        {
          "indexed": false,
          "internalType": "uint256",
          "name": "qACfee_",
          "type": "uint256"
        },
        {
          "indexed": false,
          "internalType": "uint256",
          "name": "qFeeToken_",
          "type": "uint256"
        },
        {
          "indexed": false,
          "internalType": "uint256",
          "name": "qACVendorMarkup_",
          "type": "uint256"
        },
        {
          "indexed": false,
          "internalType": "uint256",
          "name": "qFeeTokenVendorMarkup_",
          "type": "uint256"
        }
      ],
      "name": "TPSwappedForTC",
      "type": "event"
    },
    {
      "anonymous": false,
      "inputs": [
        {
          "indexed": true,
          "internalType": "uint256",
          "name": "iFrom_",
          "type": "uint256"
        },
        {
          "indexed": false,
          "internalType": "uint256",
          "name": "iTo_",
          "type": "uint256"
        },
        {
          "indexed": true,
          "internalType": "address",
          "name": "sender_",
          "type": "address"
        },
        {
          "indexed": true,
          "internalType": "address",
          "name": "recipient_",
          "type": "address"
        },
        {
          "indexed": false,
          "internalType": "uint256",
          "name": "qTPfrom_",
          "type": "uint256"
        },
        {
          "indexed": false,
          "internalType": "uint256",
          "name": "qTPto_",
          "type": "uint256"
        },
        {
          "indexed": false,
          "internalType": "uint256",
          "name": "qACfee_",
          "type": "uint256"
        },
        {
          "indexed": false,
          "internalType": "uint256",
          "name": "qFeeToken_",
          "type": "uint256"
        },
        {
          "indexed": false,
          "internalType": "uint256",
          "name": "qACVendorMarkup_",
          "type": "uint256"
        },
        {
          "indexed": false,
          "internalType": "uint256",
          "name": "qFeeTokenVendorMarkup_",
          "type": "uint256"
        }
      ],
      "name": "TPSwappedForTP",
      "type": "event"
    },
    {
      "anonymous": false,
      "inputs": [
        {
          "indexed": true,
          "internalType": "uint256",
          "name": "i_",
          "type": "uint256"
        },
        {
          "indexed": false,
          "internalType": "uint256",
          "name": "oldTPema_",
          "type": "uint256"
        },
        {
          "indexed": false,
          "internalType": "uint256",
          "name": "newTPema_",
          "type": "uint256"
        }
      ],
      "name": "TPemaUpdated",
      "type": "event"
    },
    {
      "anonymous": false,
      "inputs": [
        {
          "indexed": false,
          "internalType": "address",
          "name": "account",
          "type": "address"
        }
      ],
      "name": "Unpaused",
      "type": "event"
    },
    {
      "anonymous": false,
      "inputs": [
        {
          "indexed": true,
          "internalType": "address",
          "name": "implementation",
          "type": "address"
        }
      ],
      "name": "Upgraded",
      "type": "event"
    },
    {
      "inputs": [
        {
          "components": [
            {
              "internalType": "address",
              "name": "tpTokenAddress",
              "type": "address"
            },
            {
              "internalType": "address",
              "name": "priceProviderAddress",
              "type": "address"
            },
            {
              "internalType": "uint256",
              "name": "tpCtarg",
              "type": "uint256"
            },
            {
              "internalType": "uint256",
              "name": "tpMintFee",
              "type": "uint256"
            },
            {
              "internalType": "uint256",
              "name": "tpRedeemFee",
              "type": "uint256"
            },
            {
              "internalType": "uint256",
              "name": "tpEma",
              "type": "uint256"
            },
            {
              "internalType": "uint256",
              "name": "tpEmaSf",
              "type": "uint256"
            }
          ],
          "internalType": "struct PeggedTokenParams",
          "name": "peggedTokenParams_",
          "type": "tuple"
        }
      ],
      "name": "addPeggedToken",
      "outputs": [],
      "stateMutability": "nonpayable",
      "type": "function"
    },
    {
      "inputs": [],
      "name": "appreciationFactor",
      "outputs": [
        {
          "internalType": "uint256",
          "name": "",
          "type": "uint256"
        }
      ],
      "stateMutability": "view",
      "type": "function"
    },
    {
      "inputs": [],
      "name": "bes",
      "outputs": [
        {
          "internalType": "uint256",
          "name": "",
          "type": "uint256"
        }
      ],
      "stateMutability": "view",
      "type": "function"
    },
    {
      "inputs": [],
      "name": "bns",
      "outputs": [
        {
          "internalType": "uint256",
          "name": "",
          "type": "uint256"
        }
      ],
      "stateMutability": "view",
      "type": "function"
    },
    {
      "inputs": [],
      "name": "calcCtargemaCA",
      "outputs": [
        {
          "internalType": "uint256",
          "name": "ctargemaCA",
          "type": "uint256"
        }
      ],
      "stateMutability": "view",
      "type": "function"
    },
    {
      "inputs": [
        {
          "internalType": "contract IGovernor",
          "name": "newGovernor_",
          "type": "address"
        }
      ],
      "name": "changeGovernor",
      "outputs": [],
      "stateMutability": "nonpayable",
      "type": "function"
    },
    {
      "inputs": [
        {
          "components": [
            {
              "internalType": "address",
              "name": "tpTokenAddress",
              "type": "address"
            },
            {
              "internalType": "address",
              "name": "priceProviderAddress",
              "type": "address"
            },
            {
              "internalType": "uint256",
              "name": "tpCtarg",
              "type": "uint256"
            },
            {
              "internalType": "uint256",
              "name": "tpMintFee",
              "type": "uint256"
            },
            {
              "internalType": "uint256",
              "name": "tpRedeemFee",
              "type": "uint256"
            },
            {
              "internalType": "uint256",
              "name": "tpEma",
              "type": "uint256"
            },
            {
              "internalType": "uint256",
              "name": "tpEmaSf",
              "type": "uint256"
            }
          ],
          "internalType": "struct PeggedTokenParams",
          "name": "peggedTokenParams_",
          "type": "tuple"
        }
      ],
      "name": "editPeggedToken",
      "outputs": [],
      "stateMutability": "nonpayable",
      "type": "function"
    },
    {
      "inputs": [],
      "name": "emaCalculationBlockSpan",
      "outputs": [
        {
          "internalType": "uint256",
          "name": "",
          "type": "uint256"
        }
      ],
      "stateMutability": "view",
      "type": "function"
    },
    {
      "inputs": [],
      "name": "evalLiquidation",
      "outputs": [],
      "stateMutability": "nonpayable",
      "type": "function"
    },
    {
      "inputs": [],
      "name": "feeRetainer",
      "outputs": [
        {
          "internalType": "uint256",
          "name": "",
          "type": "uint256"
        }
      ],
      "stateMutability": "view",
      "type": "function"
    },
    {
      "inputs": [],
      "name": "feeToken",
      "outputs": [
        {
          "internalType": "contract IERC20",
          "name": "",
          "type": "address"
        }
      ],
      "stateMutability": "view",
      "type": "function"
    },
    {
      "inputs": [],
      "name": "feeTokenPct",
      "outputs": [
        {
          "internalType": "uint256",
          "name": "",
          "type": "uint256"
        }
      ],
      "stateMutability": "view",
      "type": "function"
    },
    {
      "inputs": [],
      "name": "feeTokenPriceProvider",
      "outputs": [
        {
          "internalType": "contract IPriceProvider",
          "name": "",
          "type": "address"
        }
      ],
      "stateMutability": "view",
      "type": "function"
    },
    {
      "inputs": [
        {
          "internalType": "uint256",
          "name": "i_",
          "type": "uint256"
        }
      ],
      "name": "getPACtp",
      "outputs": [
        {
          "internalType": "uint256",
          "name": "",
          "type": "uint256"
        }
      ],
      "stateMutability": "view",
      "type": "function"
    },
    {
      "inputs": [],
      "name": "governor",
      "outputs": [
        {
          "internalType": "contract IGovernor",
          "name": "",
          "type": "address"
        }
      ],
      "stateMutability": "view",
      "type": "function"
    },
    {
      "inputs": [],
      "name": "isLiquidationReached",
      "outputs": [
        {
          "internalType": "bool",
          "name": "",
          "type": "bool"
        }
      ],
      "stateMutability": "view",
      "type": "function"
    },
    {
      "inputs": [],
      "name": "liqEnabled",
      "outputs": [
        {
          "internalType": "bool",
          "name": "",
          "type": "bool"
        }
      ],
      "stateMutability": "view",
      "type": "function"
    },
    {
      "inputs": [
        {
          "internalType": "uint256",
          "name": "i_",
          "type": "uint256"
        },
        {
          "internalType": "address",
          "name": "sender_",
          "type": "address"
        },
        {
          "internalType": "address",
          "name": "recipient_",
          "type": "address"
        },
        {
          "internalType": "uint256",
          "name": "mocACBalance",
          "type": "uint256"
        }
      ],
      "name": "liqRedeemTPTo",
      "outputs": [
        {
          "internalType": "uint256",
          "name": "qACRedeemed",
          "type": "uint256"
        }
      ],
      "stateMutability": "nonpayable",
      "type": "function"
    },
    {
      "inputs": [],
      "name": "liqThrld",
      "outputs": [
        {
          "internalType": "uint256",
          "name": "",
          "type": "uint256"
        }
      ],
      "stateMutability": "view",
      "type": "function"
    },
    {
      "inputs": [],
      "name": "liquidated",
      "outputs": [
        {
          "internalType": "bool",
          "name": "",
          "type": "bool"
        }
      ],
      "stateMutability": "view",
      "type": "function"
    },
    {
      "inputs": [],
      "name": "makeStoppable",
      "outputs": [],
      "stateMutability": "nonpayable",
      "type": "function"
    },
    {
      "inputs": [],
      "name": "makeUnstoppable",
      "outputs": [],
      "stateMutability": "nonpayable",
      "type": "function"
    },
    {
      "inputs": [],
      "name": "mintTCandTPFee",
      "outputs": [
        {
          "internalType": "uint256",
          "name": "",
          "type": "uint256"
        }
      ],
      "stateMutability": "view",
      "type": "function"
    },
    {
      "inputs": [],
      "name": "mocAppreciationBeneficiaryAddress",
      "outputs": [
        {
          "internalType": "address",
          "name": "",
          "type": "address"
        }
      ],
      "stateMutability": "view",
      "type": "function"
    },
    {
      "inputs": [],
      "name": "mocFeeFlowAddress",
      "outputs": [
        {
          "internalType": "address",
          "name": "",
          "type": "address"
        }
      ],
      "stateMutability": "view",
      "type": "function"
    },
    {
      "inputs": [],
      "name": "mocVendors",
      "outputs": [
        {
          "internalType": "contract MocVendors",
          "name": "",
          "type": "address"
        }
      ],
      "stateMutability": "view",
      "type": "function"
    },
    {
      "inputs": [],
      "name": "nACcb",
      "outputs": [
        {
          "internalType": "uint256",
          "name": "",
          "type": "uint256"
        }
      ],
      "stateMutability": "view",
      "type": "function"
    },
    {
      "inputs": [],
      "name": "nTCcb",
      "outputs": [
        {
          "internalType": "uint256",
          "name": "",
          "type": "uint256"
        }
      ],
      "stateMutability": "view",
      "type": "function"
    },
    {
      "inputs": [],
      "name": "nextEmaCalculation",
      "outputs": [
        {
          "internalType": "uint256",
          "name": "",
          "type": "uint256"
        }
      ],
      "stateMutability": "view",
      "type": "function"
    },
    {
      "inputs": [],
      "name": "nextTCInterestPayment",
      "outputs": [
        {
          "internalType": "uint256",
          "name": "",
          "type": "uint256"
        }
      ],
      "stateMutability": "view",
      "type": "function"
    },
    {
      "inputs": [],
      "name": "pause",
      "outputs": [],
      "stateMutability": "nonpayable",
      "type": "function"
    },
    {
      "inputs": [],
      "name": "paused",
      "outputs": [
        {
          "internalType": "bool",
          "name": "",
          "type": "bool"
        }
      ],
      "stateMutability": "view",
      "type": "function"
    },
    {
      "inputs": [],
      "name": "pauser",
      "outputs": [
        {
          "internalType": "address",
          "name": "",
          "type": "address"
        }
      ],
      "stateMutability": "view",
      "type": "function"
    },
    {
      "inputs": [
        {
          "internalType": "uint256",
          "name": "",
          "type": "uint256"
        }
      ],
      "name": "pegContainer",
      "outputs": [
        {
          "internalType": "uint256",
          "name": "nTP",
          "type": "uint256"
        },
        {
          "internalType": "contract IPriceProvider",
          "name": "priceProvider",
          "type": "address"
        }
      ],
      "stateMutability": "view",
      "type": "function"
    },
    {
      "inputs": [
        {
          "internalType": "address",
          "name": "",
          "type": "address"
        }
      ],
      "name": "peggedTokenIndex",
      "outputs": [
        {
          "internalType": "uint256",
          "name": "index",
          "type": "uint256"
        },
        {
          "internalType": "bool",
          "name": "exists",
          "type": "bool"
        }
      ],
      "stateMutability": "view",
      "type": "function"
    },
    {
      "inputs": [],
      "name": "protThrld",
      "outputs": [
        {
          "internalType": "uint256",
          "name": "",
          "type": "uint256"
        }
      ],
      "stateMutability": "view",
      "type": "function"
    },
    {
      "inputs": [],
      "name": "proxiableUUID",
      "outputs": [
        {
          "internalType": "bytes32",
          "name": "",
          "type": "bytes32"
        }
      ],
      "stateMutability": "view",
      "type": "function"
    },
    {
      "inputs": [],
      "name": "redeemTCandTPFee",
      "outputs": [
        {
          "internalType": "uint256",
          "name": "",
          "type": "uint256"
        }
      ],
      "stateMutability": "view",
      "type": "function"
    },
    {
      "inputs": [
        {
          "internalType": "uint256",
          "name": "appreciationFactor_",
          "type": "uint256"
        }
      ],
      "name": "setAppreciationFactor",
      "outputs": [],
      "stateMutability": "nonpayable",
      "type": "function"
    },
    {
      "inputs": [
        {
          "internalType": "uint256",
          "name": "bes_",
          "type": "uint256"
        }
      ],
      "name": "setBes",
      "outputs": [],
      "stateMutability": "nonpayable",
      "type": "function"
    },
    {
      "inputs": [
        {
          "internalType": "uint256",
          "name": "blockSpan_",
          "type": "uint256"
        }
      ],
      "name": "setEmaCalculationBlockSpan",
      "outputs": [],
      "stateMutability": "nonpayable",
      "type": "function"
    },
    {
      "inputs": [
        {
          "internalType": "uint256",
          "name": "feeRetainer_",
          "type": "uint256"
        }
      ],
      "name": "setFeeRetainer",
      "outputs": [],
      "stateMutability": "nonpayable",
      "type": "function"
    },
    {
      "inputs": [
        {
          "internalType": "address",
          "name": "mocFeeTokenAddress_",
          "type": "address"
        }
      ],
      "name": "setFeeTokenAddress",
      "outputs": [],
      "stateMutability": "nonpayable",
      "type": "function"
    },
    {
      "inputs": [
        {
          "internalType": "uint256",
          "name": "feeTokenPct_",
          "type": "uint256"
        }
      ],
      "name": "setFeeTokenPct",
      "outputs": [],
      "stateMutability": "nonpayable",
      "type": "function"
    },
    {
      "inputs": [
        {
          "internalType": "address",
          "name": "mocFeeTokenPriceProviderAddress_",
          "type": "address"
        }
      ],
      "name": "setFeeTokenPriceProviderAddress",
      "outputs": [],
      "stateMutability": "nonpayable",
      "type": "function"
    },
    {
      "inputs": [
        {
          "internalType": "bool",
          "name": "liqEnabled_",
          "type": "bool"
        }
      ],
      "name": "setLiqEnabled",
      "outputs": [],
      "stateMutability": "nonpayable",
      "type": "function"
    },
    {
      "inputs": [
        {
          "internalType": "uint256",
          "name": "liqThrld_",
          "type": "uint256"
        }
      ],
      "name": "setLiqThrld",
      "outputs": [],
      "stateMutability": "nonpayable",
      "type": "function"
    },
    {
      "inputs": [
        {
          "internalType": "uint256",
          "name": "mintTCandTPFee_",
          "type": "uint256"
        }
      ],
      "name": "setMintTCandTPFee",
      "outputs": [],
      "stateMutability": "nonpayable",
      "type": "function"
    },
    {
      "inputs": [
        {
          "internalType": "address",
          "name": "mocAppreciationBeneficiaryAddress_",
          "type": "address"
        }
      ],
      "name": "setMocAppreciationBeneficiaryAddress",
      "outputs": [],
      "stateMutability": "nonpayable",
      "type": "function"
    },
    {
      "inputs": [
        {
          "internalType": "address",
          "name": "mocFeeFlowAddress_",
          "type": "address"
        }
      ],
      "name": "setMocFeeFlowAddress",
      "outputs": [],
      "stateMutability": "nonpayable",
      "type": "function"
    },
    {
      "inputs": [
        {
          "internalType": "address",
          "name": "newPauser_",
          "type": "address"
        }
      ],
      "name": "setPauser",
      "outputs": [],
      "stateMutability": "nonpayable",
      "type": "function"
    },
    {
      "inputs": [
        {
          "internalType": "uint256",
          "name": "protThrld_",
          "type": "uint256"
        }
      ],
      "name": "setProtThrld",
      "outputs": [],
      "stateMutability": "nonpayable",
      "type": "function"
    },
    {
      "inputs": [
        {
          "internalType": "uint256",
          "name": "redeemTCandTPFee_",
          "type": "uint256"
        }
      ],
      "name": "setRedeemTCandTPFee",
      "outputs": [],
      "stateMutability": "nonpayable",
      "type": "function"
    },
    {
      "inputs": [
        {
          "internalType": "uint256",
          "name": "successFee_",
          "type": "uint256"
        }
      ],
      "name": "setSuccessFee",
      "outputs": [],
      "stateMutability": "nonpayable",
      "type": "function"
    },
    {
      "inputs": [
        {
          "internalType": "uint256",
          "name": "swapTCforTPFee_",
          "type": "uint256"
        }
      ],
      "name": "setSwapTCforTPFee",
      "outputs": [],
      "stateMutability": "nonpayable",
      "type": "function"
    },
    {
      "inputs": [
        {
          "internalType": "uint256",
          "name": "swapTPforTCFee_",
          "type": "uint256"
        }
      ],
      "name": "setSwapTPforTCFee",
      "outputs": [],
      "stateMutability": "nonpayable",
      "type": "function"
    },
    {
      "inputs": [
        {
          "internalType": "uint256",
          "name": "swapTPforTPFee_",
          "type": "uint256"
        }
      ],
      "name": "setSwapTPforTPFee",
      "outputs": [],
      "stateMutability": "nonpayable",
      "type": "function"
    },
    {
      "inputs": [
        {
          "internalType": "address",
          "name": "tcInterestCollectorAddress_",
          "type": "address"
        }
      ],
      "name": "setTCInterestCollectorAddress",
      "outputs": [],
      "stateMutability": "nonpayable",
      "type": "function"
    },
    {
      "inputs": [
        {
          "internalType": "uint256",
          "name": "tcInterestPaymentBlockSpan_",
          "type": "uint256"
        }
      ],
      "name": "setTCInterestPaymentBlockSpan",
      "outputs": [],
      "stateMutability": "nonpayable",
      "type": "function"
    },
    {
      "inputs": [
        {
          "internalType": "uint256",
          "name": "tcInterestRate_",
          "type": "uint256"
        }
      ],
      "name": "setTCInterestRate",
      "outputs": [],
      "stateMutability": "nonpayable",
      "type": "function"
    },
    {
      "inputs": [
        {
          "internalType": "uint256",
          "name": "tcMintFee_",
          "type": "uint256"
        }
      ],
      "name": "setTcMintFee",
      "outputs": [],
      "stateMutability": "nonpayable",
      "type": "function"
    },
    {
      "inputs": [
        {
          "internalType": "uint256",
          "name": "tcRedeemFee_",
          "type": "uint256"
        }
      ],
      "name": "setTcRedeemFee",
      "outputs": [],
      "stateMutability": "nonpayable",
      "type": "function"
    },
    {
      "inputs": [],
      "name": "shouldCalculateEma",
      "outputs": [
        {
          "internalType": "bool",
          "name": "",
          "type": "bool"
        }
      ],
      "stateMutability": "view",
      "type": "function"
    },
    {
      "inputs": [],
      "name": "stoppable",
      "outputs": [
        {
          "internalType": "bool",
          "name": "",
          "type": "bool"
        }
      ],
      "stateMutability": "view",
      "type": "function"
    },
    {
      "inputs": [],
      "name": "successFee",
      "outputs": [
        {
          "internalType": "uint256",
          "name": "",
          "type": "uint256"
        }
      ],
      "stateMutability": "view",
      "type": "function"
    },
    {
      "inputs": [],
      "name": "swapTCforTPFee",
      "outputs": [
        {
          "internalType": "uint256",
          "name": "",
          "type": "uint256"
        }
      ],
      "stateMutability": "view",
      "type": "function"
    },
    {
      "inputs": [
        {
          "components": [
            {
              "internalType": "uint256",
              "name": "i",
              "type": "uint256"
            },
            {
              "internalType": "uint256",
              "name": "qTC",
              "type": "uint256"
            },
            {
              "internalType": "uint256",
              "name": "qTPmin",
              "type": "uint256"
            },
            {
              "internalType": "uint256",
              "name": "qACmax",
              "type": "uint256"
            },
            {
              "internalType": "address",
              "name": "sender",
              "type": "address"
            },
            {
              "internalType": "address",
              "name": "recipient",
              "type": "address"
            },
            {
              "internalType": "address",
              "name": "vendor",
              "type": "address"
            }
          ],
          "internalType": "struct MocCommons.SwapTCforTPParams",
          "name": "params_",
          "type": "tuple"
        }
      ],
      "name": "swapTCforTPto",
      "outputs": [
        {
          "internalType": "uint256",
          "name": "qACSurcharges",
          "type": "uint256"
        },
        {
          "internalType": "uint256",
          "name": "qTPtoMint",
          "type": "uint256"
        },
        {
          "internalType": "uint256",
          "name": "qFeeTokenTotalNeeded",
          "type": "uint256"
        },
        {
          "components": [
            {
              "internalType": "uint256",
              "name": "qACFee",
              "type": "uint256"
            },
            {
              "internalType": "uint256",
              "name": "qFeeToken",
              "type": "uint256"
            },
            {
              "internalType": "uint256",
              "name": "qACVendorMarkup",
              "type": "uint256"
            },
            {
              "internalType": "uint256",
              "name": "qFeeTokenVendorMarkup",
              "type": "uint256"
            }
          ],
          "internalType": "struct MocCommons.FeeCalcs",
          "name": "feeCalcs",
          "type": "tuple"
        }
      ],
      "stateMutability": "payable",
      "type": "function"
    },
    {
      "inputs": [],
      "name": "swapTPforTCFee",
      "outputs": [
        {
          "internalType": "uint256",
          "name": "",
          "type": "uint256"
        }
      ],
      "stateMutability": "view",
      "type": "function"
    },
    {
      "inputs": [
        {
          "components": [
            {
              "internalType": "uint256",
              "name": "i",
              "type": "uint256"
            },
            {
              "internalType": "uint256",
              "name": "qTP",
              "type": "uint256"
            },
            {
              "internalType": "uint256",
              "name": "qTCmin",
              "type": "uint256"
            },
            {
              "internalType": "uint256",
              "name": "qACmax",
              "type": "uint256"
            },
            {
              "internalType": "address",
              "name": "sender",
              "type": "address"
            },
            {
              "internalType": "address",
              "name": "recipient",
              "type": "address"
            },
            {
              "internalType": "address",
              "name": "vendor",
              "type": "address"
            }
          ],
          "internalType": "struct MocCommons.SwapTPforTCParams",
          "name": "params_",
          "type": "tuple"
        }
      ],
      "name": "swapTPforTCto",
      "outputs": [
        {
          "internalType": "uint256",
          "name": "qACSurcharges",
          "type": "uint256"
        },
        {
          "internalType": "uint256",
          "name": "qTCtoMint",
          "type": "uint256"
        },
        {
          "internalType": "uint256",
          "name": "qFeeTokenTotalNeeded",
          "type": "uint256"
        },
        {
          "components": [
            {
              "internalType": "uint256",
              "name": "qACFee",
              "type": "uint256"
            },
            {
              "internalType": "uint256",
              "name": "qFeeToken",
              "type": "uint256"
            },
            {
              "internalType": "uint256",
              "name": "qACVendorMarkup",
              "type": "uint256"
            },
            {
              "internalType": "uint256",
              "name": "qFeeTokenVendorMarkup",
              "type": "uint256"
            }
          ],
          "internalType": "struct MocCommons.FeeCalcs",
          "name": "feeCalcs",
          "type": "tuple"
        }
      ],
      "stateMutability": "payable",
      "type": "function"
    },
    {
      "inputs": [],
      "name": "swapTPforTPFee",
      "outputs": [
        {
          "internalType": "uint256",
          "name": "",
          "type": "uint256"
        }
      ],
      "stateMutability": "view",
      "type": "function"
    },
    {
      "inputs": [
        {
          "components": [
            {
              "internalType": "uint256",
              "name": "iFrom",
              "type": "uint256"
            },
            {
              "internalType": "uint256",
              "name": "iTo",
              "type": "uint256"
            },
            {
              "internalType": "uint256",
              "name": "qTP",
              "type": "uint256"
            },
            {
              "internalType": "uint256",
              "name": "qTPmin",
              "type": "uint256"
            },
            {
              "internalType": "uint256",
              "name": "qACmax",
              "type": "uint256"
            },
            {
              "internalType": "address",
              "name": "sender",
              "type": "address"
            },
            {
              "internalType": "address",
              "name": "recipient",
              "type": "address"
            },
            {
              "internalType": "address",
              "name": "vendor",
              "type": "address"
            }
          ],
          "internalType": "struct MocCommons.SwapTPforTPParams",
          "name": "params_",
          "type": "tuple"
        }
      ],
      "name": "swapTPforTPto",
      "outputs": [
        {
          "internalType": "uint256",
          "name": "qACSurcharges",
          "type": "uint256"
        },
        {
          "internalType": "uint256",
          "name": "qTPtoMint",
          "type": "uint256"
        },
        {
          "internalType": "uint256",
          "name": "qFeeTokenTotalNeeded",
          "type": "uint256"
        },
        {
          "components": [
            {
              "internalType": "uint256",
              "name": "qACFee",
              "type": "uint256"
            },
            {
              "internalType": "uint256",
              "name": "qFeeToken",
              "type": "uint256"
            },
            {
              "internalType": "uint256",
              "name": "qACVendorMarkup",
              "type": "uint256"
            },
            {
              "internalType": "uint256",
              "name": "qFeeTokenVendorMarkup",
              "type": "uint256"
            }
          ],
          "internalType": "struct MocCommons.FeeCalcs",
          "name": "feeCalcs",
          "type": "tuple"
        }
      ],
      "stateMutability": "payable",
      "type": "function"
    },
    {
      "inputs": [],
      "name": "tcInterestCollectorAddress",
      "outputs": [
        {
          "internalType": "address",
          "name": "",
          "type": "address"
        }
      ],
      "stateMutability": "view",
      "type": "function"
    },
    {
      "inputs": [],
      "name": "tcInterestPaymentBlockSpan",
      "outputs": [
        {
          "internalType": "uint256",
          "name": "",
          "type": "uint256"
        }
      ],
      "stateMutability": "view",
      "type": "function"
    },
    {
      "inputs": [],
      "name": "tcInterestRate",
      "outputs": [
        {
          "internalType": "uint256",
          "name": "",
          "type": "uint256"
        }
      ],
      "stateMutability": "view",
      "type": "function"
    },
    {
      "inputs": [],
      "name": "tcMintFee",
      "outputs": [
        {
          "internalType": "uint256",
          "name": "",
          "type": "uint256"
        }
      ],
      "stateMutability": "view",
      "type": "function"
    },
    {
      "inputs": [],
      "name": "tcRedeemFee",
      "outputs": [
        {
          "internalType": "uint256",
          "name": "",
          "type": "uint256"
        }
      ],
      "stateMutability": "view",
      "type": "function"
    },
    {
      "inputs": [],
      "name": "tcToken",
      "outputs": [
        {
          "internalType": "contract MocTC",
          "name": "",
          "type": "address"
        }
      ],
      "stateMutability": "view",
      "type": "function"
    },
    {
      "inputs": [
        {
          "internalType": "uint256",
          "name": "",
          "type": "uint256"
        }
      ],
      "name": "tpCtarg",
      "outputs": [
        {
          "internalType": "uint256",
          "name": "",
          "type": "uint256"
        }
      ],
      "stateMutability": "view",
      "type": "function"
    },
    {
      "inputs": [
        {
          "internalType": "uint256",
          "name": "",
          "type": "uint256"
        }
      ],
      "name": "tpEma",
      "outputs": [
        {
          "internalType": "uint256",
          "name": "ema",
          "type": "uint256"
        },
        {
          "internalType": "uint256",
          "name": "sf",
          "type": "uint256"
        }
      ],
      "stateMutability": "view",
      "type": "function"
    },
    {
      "inputs": [
        {
          "internalType": "uint256",
          "name": "",
          "type": "uint256"
        }
      ],
      "name": "tpMintFee",
      "outputs": [
        {
          "internalType": "uint256",
          "name": "",
          "type": "uint256"
        }
      ],
      "stateMutability": "view",
      "type": "function"
    },
    {
      "inputs": [
        {
          "internalType": "uint256",
          "name": "",
          "type": "uint256"
        }
      ],
      "name": "tpRedeemFee",
      "outputs": [
        {
          "internalType": "uint256",
          "name": "",
          "type": "uint256"
        }
      ],
      "stateMutability": "view",
      "type": "function"
    },
    {
      "inputs": [
        {
          "internalType": "uint256",
          "name": "",
          "type": "uint256"
        }
      ],
      "name": "tpTokens",
      "outputs": [
        {
          "internalType": "contract IMocRC20",
          "name": "",
          "type": "address"
        }
      ],
      "stateMutability": "view",
      "type": "function"
    },
    {
      "inputs": [],
      "name": "unpause",
      "outputs": [],
      "stateMutability": "nonpayable",
      "type": "function"
    },
    {
      "inputs": [],
      "name": "updateEmas",
      "outputs": [],
      "stateMutability": "nonpayable",
      "type": "function"
    },
    {
      "inputs": [
        {
          "internalType": "address",
          "name": "newImplementation",
          "type": "address"
        }
      ],
      "name": "upgradeTo",
      "outputs": [],
      "stateMutability": "nonpayable",
      "type": "function"
    },
    {
      "inputs": [
        {
          "internalType": "address",
          "name": "newImplementation",
          "type": "address"
        },
        {
          "internalType": "bytes",
          "name": "data",
          "type": "bytes"
        }
      ],
      "name": "upgradeToAndCall",
      "outputs": [],
      "stateMutability": "payable",
      "type": "function"
    }
  ],
  "bytecode": "0x60a08060405234620000e157306080526000549060ff8260081c166200008f575060ff8082161062000053575b60405161372e9081620000e782396080518181816118a001528181611a420152611c530152f35b60ff90811916176000557f7f26b83ff96e1f2b6a682f133852f6798a09c465da95921460cefb3847402498602060405160ff8152a1386200002c565b62461bcd60e51b815260206004820152602760248201527f496e697469616c697a61626c653a20636f6e747261637420697320696e697469604482015266616c697a696e6760c81b6064820152608490fd5b600080fdfe6080604052600436101561001257600080fd5b6000803560e01c806301dde6ef146123c357806301f1b6841461237b578063073763b9146123555780630c340a241461232c5780630c36d8971461230d5780630d6ac463146122c55780630db49656146122a65780630e0a8fd2146122805780630f1e5e2b146122385780631867e2f5146122195780631c280ce114611f5c5780631fe6a7ad14611f205780632069f75314611efa57806323b98cde14611ed357806327eab2a114611e8b5780632a20d57d14611e6c5780632c43bd3b14611e465780632d88af4a14611ded5780632ded50f014611dce578063333431fd14611daf57806333421c3814611cba5780633659cfe614611c215780633bc4ac0a14611bfb5780633f4ba83a14611b7e578063407f0e3414611b5f5780634b74600114611b125780634d977e7814611af35780634e1f907a14611ac95780634f0f27ee14611aaa5780634f1ef286146119ba5780635210570c146119925780635241271c1461196357806352d1902d1461188d578063543aeb48146118675780635c975abb1461184157806360009e0b14611817578063647846a5146117ed57806364ec230a146117c7578063662013f4146117a357806368274357146117785780636b5488df146117595780637071346814611733578063735d3960146116eb5780637554fffd146116cc5780637750ba0c146116a657806379f9a91c146116875780637a193c31146116685780637a4ff1d9146116425780637a727fe8146116235780637af5758c146115fd5780637cba2383146115d75780637d8e0314146115a85780637f01c7151461157e5780637f4a4fe01461155f5780638456cb59146114c65780638cfa4241146114a75780638e2bdb861461147d578063904aa85b146114565780639853c35a1461142c5780639ad6659d146113f25780639cabfc00146113a55780639fd0506d14611378578063a899e9f01461103c578063a8e9ac301461101a578063aea038dc14610ffb578063b9fa641314610fdc578063bb4872de14610fb9578063becaca6b14610f93578063c00f538d14610f6d578063c84353c914610f47578063cf351c1d14610eff578063d1a0faa014610ee1578063db79607214610c7c578063de08160f14610c3f578063e01dce2d14610a39578063e4c0aaf4146109e9578063e6b1627c146109a6578063e7c2597814610982578063f13f405414610958578063f1cc804714610677578063f26114aa14610473578063f28087781461044d578063f30b56141461042e578063f375cfba1461040f578063fa6e83bd146103f05763fda70f8b146103cf57600080fd5b346103ed57806003193601126103ed57602061016e54604051908152f35b80fd5b50346103ed57806003193601126103ed57602061016c54604051908152f35b50346103ed57806003193601126103ed57602061017354604051908152f35b50346103ed57806003193601126103ed57602061016354604051908152f35b50346103ed5760203660031901126103ed57610467613649565b60043561016e55604051f35b50346103ed5760e03660031901126103ed576001600160a01b03600435818116908190036106725782526101686020526040822060ff6001604051926104ba60408561242b565b80548452015416158015602083015261062457519060243590808216809203610672576101699060016104ed8584612463565b5001541682036105d4575b50506105276105098261017a6123e9565b6044929192359083549060031b600019811b9283911b169119161790565b9055610556610538826101766123e9565b6064929192359083549060031b600019811b9283911b169119161790565b9055610585610567826101776123e9565b6084929192359083549060031b600019811b9283911b169119161790565b9055610593816101b8612463565b50600160c4359101557f6417e5a3c1e0e5dae98b8fe718c4babdfcb35e0d7b5e1b9641b5914756f5d8e3604051806105cc600482612e2e565b0390a2604051f35b604080516359e02dd760e01b81529081600481865afa908115610667578591610636575b50156106245761060a83600192612463565b500180546001600160a01b031916909117905538806104f8565b60405163e6c4247b60e01b8152600490fd5b610658915060403d604011610660575b610650818361242b565b810190612d78565b9050386105f8565b503d610646565b6040513d87823e3d90fd5b600080fd5b5060e03660031901126103ed5761068f36600461249b565b610697612e8f565b506106a0612df4565b6106c46106ae8351836129bd565b51916106bb838551613055565b61017b54613012565b929093602080830193610729670de0b6b3a7640000976106ec6106f1846106ec8c8b51612b13565b612b26565b9961072389519561071e61070a61016698895490612b13565b956107196101639e8f54612bd4565b612bd4565b612b13565b92612b13565b9660408501518089108015610950575b6109325750608085019661076460018060a01b0392838a5116908460c08a01511661017154926130a8565b98919990976060810151808c1161091357509284806108198998958f979b83968f9a8e61086e9f9e849f9d8d829f7fb8b8e75e42a3102026137da20c1d52f5e60a1b25d6e77ad232404575753e3fe0905191868851169361080a60a088019d8e5116968c51928051918101516060604083015192015192604051968796879260a094919796959260c0850198855260208501526040840152606083015260808201520152565b0390a451935191511692612f80565b5116926108278582546129d1565b90556108348782546129d1565b9055610165541690856040518098819582946340c10f1960e01b84526004840160209093929193604081019460018060a01b031681520152565b03925af18015610908576108cc575b505050906108c891604051948594859293606091959460c09360e086019786526020860152604085015280518285015260208101516080850152604081015160a08501520151910152565b0390f35b82813d8311610901575b6108e0818361242b565b810103126103ed5750906108f76108c89392612d6b565b509091388061087d565b503d6108d6565b6040513d84823e3d90fd5b6044908b5160405191630b63f1a760e01b835260048301526024820152fd5b604490896040519163f577bef560e01b835260048301526024820152fd5b508815610739565b50346103ed57806003193601126103ed57610162546040516001600160a01b039091168152602090f35b50346103ed57806003193601126103ed57602060ff61017d54166040519015158152f35b50346103ed5760203660031901126103ed57600435906101b89081548310156103ed5760406109d58484612463565b506001815491015482519182526020820152f35b50346103ed5760203660031901126103ed576004356001600160a01b03811690819003610a3557610a18613649565b6bffffffffffffffffffffffff60a01b6097541617609755604051f35b5080fd5b50346103ed5760803660031901126103ed576001600160a01b03602435818116926004359290918481036106725760443591808316809303610672576064359460ff61017d5460081c1615610c2d57610167610a9582826123e9565b95905498604051966370a0823160e01b8852816004890152876024818860209e8f9560031b1c165afa968715610c22578897610bf3575b508615610bd557610afb610ae28561016a6123e9565b90549060031b1c6106ec670de0b6b3a76400008a612b13565b98898110610bcb575b5090839291610b5a947f94623cc0bdff77f15a945c5f7c85f92e30baeee629058db590ceeba3755ad3be60c08d8d604051918d83528201528c60408201528c60608201528c60808201528c60a0820152a46123e9565b90549060031b1c1690813b15610bc757604051632770a7eb60e21b81526001600160a01b03919091166004820152602481019290925282908290604490829084905af1801561090857610bb2575b5050604051908152f35b610bbd82809261242b565b6103ed5780610ba8565b8380fd5b9850610b5a610b04565b60448760405190633fe8c5eb60e01b82528060048301526024820152fd5b9096508981813d8311610c1b575b610c0b818361242b565b8101031261067257519538610acc565b503d610c01565b6040513d8a823e3d90fd5b60405163031b0d3560e11b8152600490fd5b50346103ed5760203660031901126103ed57600435906101769081548310156103ed576020610c6e84846123e9565b90546040519160031b1c8152f35b50346103ed5760e03660031901126103ed576004356001600160a01b0381811692918390036106725760249283359180831680930361067257818452610168928360205260019160ff8360408820015416610ecf576101679384549584604051610ce760408261242b565b8881526020810192828452848b5260205260408a2090518155019051151560ff80198354169116179055845494600160401b9586811015610ebc57610d309186820181556123e9565b819291549060031b84811b9283911b16911916179055604051610d5460408261242b565b86815260208101928352610169805486811015610ebc57610d79918682018155612463565b610ea9578491518155019151166bffffffffffffffffffffffff60a01b825416179055610daa60443561017a612c2b565b610db8606435610176612c2b565b610dc6608435610177612c2b565b604051610dd460408261242b565b60a4358152602081019060c43582526101b8805485811015610e9657610dfe918582018155612463565b929092610e835783915183555191015561018090815492831015610e705782018155610e2a91906123e9565b5050610e40610e3882612d24565b610181612c2b565b7f6417e5a3c1e0e5dae98b8fe718c4babdfcb35e0d7b5e1b9641b5914756f5d8e3604051806105cc600482612e2e565b634e487b7160e01b855260416004528585fd5b634e487b7160e01b875260048790528787fd5b634e487b7160e01b885260416004528888fd5b634e487b7160e01b885260048890528888fd5b634e487b7160e01b895260416004528989fd5b604051633458f6c560e01b8152600490fd5b50346103ed57806003193601126103ed57610efa6135b5565b604051f35b50346103ed5760203660031901126103ed576004356001600160a01b0381169081900361067257610f2e613649565b61016180546001600160a01b0319169091179055604051f35b50346103ed5760203660031901126103ed57610f61613649565b60043561017e55604051f35b50346103ed5760203660031901126103ed57610f87613649565b60043561016f55604051f35b50346103ed5760203660031901126103ed57610fad613649565b60043561016b55604051f35b50346103ed57806003193601126103ed57602060ff60ca54166040519015158152f35b50346103ed57806003193601126103ed57602061018554604051908152f35b50346103ed57806003193601126103ed57602061016f54604051908152f35b50346103ed57806003193601126103ed5760206101b954431015604051908152f35b5060e03660031901126103ed5761105436600461249b565b9061105d612e8f565b506110666135b5565b61106e6134f9565b909261109161107e8251846129bd565b519261108b848451613055565b85613012565b602083015195916110b66110a68383866133b5565b6110b084846133f6565b90612b26565b9680881061135a57506110e7949596506020840151670de0b6b3a76400009586916110e185856133f6565b90612b13565b049182156113485761112c916020860151946111138961071e61016354986110e186610719898d612bd4565b9761112261016654809a612b26565b049889885161334b565b604083015180861061132a5750608083015160c08401516101725461116193909290916001600160a01b0390811691166130a8565b9391949092606083015180871161130b57508790835160018060a01b0360808601511660018060a01b0360a087015116917ff4287b96e269f789f166db491b07456566f468352771e466ce088e98d6007a0c8b60208901516111fe8c518d60208101516060604083015192015192604051968796879260a094919796959260c0850198855260208501526040840152606083015260808201520152565b0390a461122b826020860151926112228460018060a01b0360808a01511697612bd4565b61016655612bd4565b61016355610165546001600160a01b0316803b1561130757604051632770a7eb60e21b81526001600160a01b0394909416600485015260248401919091528290604490829084905af180156112fc576112e3575b508085966108c895966112a093519260a0600180821b039101511692612eb6565b604051948594859293606091959460c09360e086019786526020860152604085015280518285015260208101516080850152604081015160a08501520151910152565b6112ee87809261242b565b6112f8573861127f565b8580fd5b6040513d89823e3d90fd5b8280fd5b604490865160405191630b63f1a760e01b835260048301526024820152fd5b604490866040519163272e3f5960e21b835260048301526024820152fd5b60405163f3e39b5d60e01b8152600490fd5b604490886040519163a5db715d60e01b835260048301526024820152fd5b50346103ed57806003193601126103ed5760ca5460405160109190911c6001600160a01b03168152602090f35b50346103ed5760203660031901126103ed576004356001600160a01b0381169081900361067257604082819281526101686020522060ff6001825492015416825191825215156020820152f35b50346103ed57806003193601126103ed57602061141e611418611413612df4565b6129f4565b90612ba7565b61017c541015604051908152f35b50346103ed57806003193601126103ed57610178546040516001600160a01b039091168152602090f35b50346103ed5760203660031901126103ed576020611475600435612d24565b604051908152f35b50346103ed57806003193601126103ed57610182546040516001600160a01b039091168152602090f35b50346103ed57806003193601126103ed57602061017c54604051908152f35b50346103ed57806003193601126103ed576114df6136d7565b60ca54601081901c6001600160a01b0316330361154d5760ff81161561153b576101009061ff0019161760ca557f62e78cea01bee320cd4e420270b5ea74000d11b0c9f74754ebdbfc544b05a2586020604051338152a1604051f35b60405163866099c360e01b8152600490fd5b604051631d77d47760e21b8152600490fd5b50346103ed57806003193601126103ed57602061018454604051908152f35b50346103ed57806003193601126103ed576101ed546040516001600160a01b039091168152602090f35b50346103ed5760203660031901126103ed576004359061017a9081548310156103ed576020610c6e84846123e9565b50346103ed5760203660031901126103ed576115f1613649565b60043561017b55604051f35b50346103ed5760203660031901126103ed57611617613649565b60043561017255604051f35b50346103ed57806003193601126103ed5760206101ba54604051908152f35b50346103ed5760203660031901126103ed5761165c613649565b60043561017355604051f35b50346103ed57806003193601126103ed57602061016654604051908152f35b50346103ed57806003193601126103ed57602061017454604051908152f35b50346103ed5760203660031901126103ed576116c0613649565b60043561016d55604051f35b50346103ed57806003193601126103ed57602061016b54604051908152f35b50346103ed5760203660031901126103ed576004356001600160a01b038116908190036106725761171a613649565b61018280546001600160a01b0319169091179055604051f35b50346103ed5760203660031901126103ed5761174d613649565b60043561017055604051f35b50346103ed57806003193601126103ed57602061017b54604051908152f35b50346103ed57806003193601126103ed57611791613649565b600160ff1960ca54161760ca55604051f35b50346103ed57806003193601126103ed5760206117be6134f9565b50604051908152f35b50346103ed5760203660031901126103ed576117e1613649565b60043561018355604051f35b50346103ed57806003193601126103ed57610161546040516001600160a01b039091168152602090f35b50346103ed57806003193601126103ed57610165546040516001600160a01b039091168152602090f35b50346103ed57806003193601126103ed57602060ff60ca5460081c166040519015158152f35b50346103ed5760203660031901126103ed57611881613649565b60043561017555604051f35b50346103ed57806003193601126103ed577f00000000000000000000000000000000000000000000000000000000000000006001600160a01b031630036118f85760206040517f360894a13ba1a3210667c828492db98dca3e2076cc3735a920a3ca505d382bbc8152f35b60405162461bcd60e51b815260206004820152603860248201527f555550535570677261646561626c653a206d757374206e6f742062652063616c60448201527f6c6564207468726f7567682064656c656761746563616c6c00000000000000006064820152608490fd5b50346103ed5760203660031901126103ed57600435906101779081548310156103ed576020610c6e84846123e9565b50346103ed57806003193601126103ed576119ab613649565b60ff1960ca541660ca55604051f35b5060403660031901126103ed576001600160a01b0360043581811681036106725782916024359167ffffffffffffffff8311611aa55736602384011215611aa5578260040135611a098161247f565b92611a17604051948561242b565b81845236602483870101116112f857610efa95602083611a98946024600199018389013786010152807f00000000000000000000000000000000000000000000000000000000000000001690611a6f8230141561250c565b7f360894a13ba1a3210667c828492db98dca3e2076cc3735a920a3ca505d382bbc54161461256d565b611aa0613649565b6125ce565b505050fd5b50346103ed57806003193601126103ed57602061016d54604051908152f35b50346103ed57806003193601126103ed57610179546040516001600160a01b039091168152602090f35b50346103ed57806003193601126103ed57602061017e54604051908152f35b50346103ed5760203660031901126103ed57600435906101699081548310156103ed576040611b418484612463565b50805460019091015482519182526001600160a01b03166020820152f35b50346103ed57806003193601126103ed57602061017054604051908152f35b50346103ed57806003193601126103ed5760ca5460ff8160081c1615611be957601081901c6001600160a01b0316330361154d5761ff00191660ca557f5db9ee0a495bf2e6ff9c91a7834c1ba4fdd244a5e8aa4e537bd38aeae4b073aa6020604051338152a1604051f35b604051637c7fd07960e01b8152600490fd5b50346103ed5760203660031901126103ed57611c15613649565b6004356101ba55604051f35b50346103ed5760203660031901126103ed576004356001600160a01b03808216820361067257610efa91611c808285937f00000000000000000000000000000000000000000000000000000000000000001690611a6f8230141561250c565b611c88613649565b611c918261247f565b90611c9f604051928361242b565b828252601f19611cae8461247f565b013660208401376125ce565b50346103ed57806003193601126103ed57611cd36136d7565b61017d805460ff811680611da1575b80611d87575b611cf3575b82604051f35b61ff0019166101001790556040517f8b77276c97a5709f0d6db52329848a254eb760ce8be80d281799f633bdb69e838282a16101655482906001600160a01b0316803b15610a355782600481848094638456cb5960e01b83525af18015611d7a57611d6a575b5050611d63612c6a565b3880611ced565b611d739161242b565b3881611d59565b50604051903d90823e3d90fd5b50611d96611418611413612df4565b61017c541015611ce8565b5060ff8160081c1615611ce2565b50346103ed57806003193601126103ed57602061017154604051908152f35b50346103ed57806003193601126103ed57602061017554604051908152f35b50346103ed5760203660031901126103ed576004356001600160a01b0381168103610a3557611e1a613649565b60ca805462010000600160b01b03191660109290921b62010000600160b01b0316919091179055604051f35b50346103ed5760203660031901126103ed57611e60613649565b60043561017c55604051f35b50346103ed57806003193601126103ed57602061017254604051908152f35b50346103ed5760203660031901126103ed576004356001600160a01b03811690819003610a3557611eba613649565b61017980546001600160a01b0319169091179055604051f35b50346103ed57806003193601126103ed57602060ff61017d5460081c166040519015158152f35b50346103ed5760203660031901126103ed57611f14613649565b60043561017455604051f35b50346103ed5760203660031901126103ed57600435801515809103610a3557611f47613649565b61017d9060ff80198354169116179055604051f35b5061010090816003193601126103ed57611f79604051928361242b565b6004358252602435602083015260443560408301526064356060830190815260843560808401529160a4356001600160a01b03811681036113075760a082015260c4356001600160a01b03811681036113075760c082015260e4356001600160a01b03811681036113075760e08201908152611ff3612e8f565b5081516020830151146122075761200a8251612d24565b6120176020840151612d24565b612022828551613055565b612030816020860151613055565b61204a826106ec670de0b6b3a76400006040880151612b13565b9161205d816106ec846040890151612b13565b965180881080156121ff575b6121e15750906120b393929161208e612086836020890151613451565b918751613451565b106121ae575b5060a0840151915161017054926001600160a01b0391821691166130a8565b92909193608082015180861161218f5750816112a0916108c89594935160208301519060018060a01b0360a085015116907fbb1e510aef3e8a513d50818519676f83fe568ef46fba020e92d569f16a3d1aec60e060018060a01b0360c088015116948d8b60408a01519181516020830151916060604085015194015194604051968752602087015260408601526060850152608084015260a083015260c0820152a46121726020830151828a60018060a01b0360c08701511692612eb6565b8151604083015160a0909301516001600160a01b03169290612f80565b604490855160405191630b63f1a760e01b835260048301526024820152fd5b6121cd6121db916121bd6135b5565b6121c56134f9565b819391613012565b9290918a60208a015161334b565b38612094565b604490886040519163272e3f5960e21b835260048301526024820152fd5b508715612069565b604051632a9ffab760e21b8152600490fd5b50346103ed57806003193601126103ed57602061017f54604051908152f35b50346103ed5760203660031901126103ed576004356001600160a01b03811690819003610a3557612267613649565b61016280546001600160a01b0319169091179055604051f35b50346103ed5760203660031901126103ed5761229a613649565b60043561017155604051f35b50346103ed57806003193601126103ed57602061018354604051908152f35b50346103ed5760203660031901126103ed576004356001600160a01b03811690819003610a35576122f4613649565b61017880546001600160a01b0319169091179055604051f35b50346103ed57806003193601126103ed5760206101b954604051908152f35b50346103ed57806003193601126103ed576097546040516001600160a01b039091168152602090f35b50346103ed5760203660031901126103ed5761236f613649565b60043561018455604051f35b50346103ed5760203660031901126103ed57600435906101679081548310156103ed5760206123aa84846123e9565b905460405160039290921b1c6001600160a01b03168152f35b50346103ed5760203660031901126103ed576123dd613649565b60043561016c55604051f35b80548210156124015760005260206000200190600090565b634e487b7160e01b600052603260045260246000fd5b35906001600160a01b038216820361067257565b90601f8019910116810190811067ffffffffffffffff82111761244d57604052565b634e487b7160e01b600052604160045260246000fd5b80548210156124015760005260206000209060011b0190600090565b67ffffffffffffffff811161244d57601f01601f191660200190565b91908260e0910312610672576040516124b560e08261242b565b60c0612507818395803585526020810135602086015260408101356040860152606081013560608601526124eb60808201612417565b60808601526124fc60a08201612417565b60a086015201612417565b910152565b1561251357565b60405162461bcd60e51b815260206004820152602c60248201527f46756e6374696f6e206d7573742062652063616c6c6564207468726f7567682060448201526b19195b1959d85d1958d85b1b60a21b6064820152608490fd5b1561257457565b60405162461bcd60e51b815260206004820152602c60248201527f46756e6374696f6e206d7573742062652063616c6c6564207468726f7567682060448201526b6163746976652070726f787960a01b6064820152608490fd5b90929160ff7f4910fdfa16fed3260ed0e7147f7cc6da11a60208b5b9406d12a635614ffd9143541660001461260b57506126099192506128a0565b565b604080516352d1902d60e01b8152602094919391926001600160a01b038316918681600481865afa60009181612871575b5061269c57855162461bcd60e51b815260048101889052602e60248201527f45524331393637557067726164653a206e657720696d706c656d656e7461746960448201526d6f6e206973206e6f74205555505360901b6064820152608490fd5b939594937fc9f76b5ec45e5cdef99837d7b6d2467235c1df8933c8ca56df5c35afa2c7d4440161281b576126cf836128a0565b8351917fbc7cd75a20ee27fd9adebab32041f755214dbc6bffa90cc0225b39da2e5c2d3b600084a286511590811591612813575b50612711575b505050509050565b813b156127c257506000858192856127a49798519201905af43d156127af57660819985a5b195960ca1b3d926127468461247f565b936127538251958661242b565b84523d60008686013e5b7f416464726573733a206c6f772d6c6576656c2064656c65676174652063616c6c612788602761247f565b956127958351978861242b565b60278752860152840152612942565b508038808080612709565b660819985a5b195960ca1b60609261275d565b62461bcd60e51b815260048101849052602660248201527f416464726573733a2064656c65676174652063616c6c20746f206e6f6e2d636f6044820152651b9d1c9858dd60d21b6064820152608490fd5b905038612703565b835162461bcd60e51b815260048101869052602960248201527f45524331393637557067726164653a20756e737570706f727465642070726f786044820152681a58589b195555525160ba1b6064820152608490fd5b90918882813d8311612899575b612888818361242b565b810103126103ed575051903861263c565b503d61287e565b803b156128e7577f360894a13ba1a3210667c828492db98dca3e2076cc3735a920a3ca505d382bbc80546001600160a01b0319166001600160a01b03909216919091179055565b60405162461bcd60e51b815260206004820152602d60248201527f455243313936373a206e657720696d706c656d656e746174696f6e206973206e60448201526c1bdd08184818dbdb9d1c9858dd609a1b6064820152608490fd5b9091901561294e575090565b81511561295e5750805190602001fd5b6040519062461bcd60e51b82528160208060048301528251908160248401526000935b8285106129a4575050604492506000838284010152601f80199101168101030190fd5b8481018201518686016044015293810193859350612981565b80518210156124015760209160051b010190565b919082018092116129de57565b634e487b7160e01b600052601160045260246000fd5b906000916000906101698054906000925b828410612a2b5750505050612a27670de0b6b3a76400009161016b5490612b13565b0490565b9091929395612a8085612a7a600193612a74612a4784886129bd565b516106ec670de0b6b3a764000061071e8b612a6d612a65868b612aa6565b9a9092612463565b50546129d1565b906129d1565b986129d1565b9401929190612a05565b919091600083820193841291129080158216911516176129de57565b9190600090612ad481600095612aca612ac1826101806123e9565b93905492612b46565b9160031b1c612a8a565b60008113612ae3575b50509190565b612b0b919450612b0592508094670de0b6b3a764000093849161016c54612b13565b04612b13565b043880612add565b80600019048211811515166129de570290565b8115612b30570490565b634e487b7160e01b600052601260045260246000fd5b90612b8c90612b86612b79612b70670de0b6b3a7640000612b6987610169612463565b5054612b13565b946101816123e9565b90549060031b1c84612b26565b92612b26565b90600082820392128183128116918313901516176129de5790565b8015612bcc576106ec670de0b6b3a764000061071e612bc99461016354612bd4565b90565b505060001990565b919082039182116129de57565b67ffffffffffffffff811161244d5760051b60200190565b90612c0382612be1565b612c10604051918261242b565b8281528092612c21601f1991612be1565b0190602036910137565b805490600160401b82101561244d5781612c4d916001612c66940181556123e9565b819391549060031b600019811b9283911b169119161790565b9055565b610163548015612d215761016990815491600090612c8784612bf9565b9082905b858210612cd157505060005b848110612ca5575050505050565b80612ccb612cc3866106ec87612cbd600197896129bd565b51612b13565b61016a612c2b565b01612c97565b9092612d19600191612ce286612d24565b612cec87876129bd565b52612a74612cfa8786612463565b50546106ec670de0b6b3a7640000612d128a8a6129bd565b5192612b13565b930190612c8b565b50565b612d3090610169612463565b50600101546001600160a01b0316612d4781612d92565b91909115612d53575090565b60249060405190637f6e4db960e01b82526004820152fd5b5190811515820361067257565b919082604091031261067257612bc9602083519301612d6b565b604080516359e02dd760e01b81529291839060049082906001600160a01b03165afa918215612de8576000908193612dc957509190565b9050612de491925060403d811161066057610650818361242b565b9091565b6040513d6000823e3d90fd5b6101695490612e0282612bf9565b9160005b818110612e11575050565b80612e1d600192612d24565b612e2782876129bd565b5201612e06565b60e08101929160c09081906001600160a01b0380612e4b83612417565b168552612e5a60208301612417565b16602085015260408101356040850152606081013560608501526080810135608085015260a081013560a08501520135910152565b60405190612e9e60808361242b565b60006060838281528260208201528260408201520152565b612f2e93612ef5600092602095612ecf82610169612463565b50612edb8782546129d1565b9055612eeb6101639182546129d1565b90556101676123e9565b90546040516340c10f1960e01b81526001600160a01b039093166004840152602483019490945290948593928492909183906044820190565b039360039190911b1c6001600160a01b03165af18015612de857612f4f5750565b6020813d8211612f78575b81612f676020938361242b565b8101031261067257612d2190612d6b565b3d9150612f5a565b612fae919392612f9282610169612463565b50612f9e868254612bd4565b9055612eeb610163918254612bd4565b905460039190911b1c6001600160a01b031691823b1561067257604051632770a7eb60e21b81526001600160a01b039290921660048301526024820152906000908290604490829084905af18015612de8576130075750565b60006126099161242b565b919061301d906129f4565b91909261302a8385612ba7565b9080821115613037575050565b6044925060405191637912120160e01b835260048301526024820152fd5b612c4d612c66916130668482612b46565b61309e613075836101806123e9565b6130888294925492838360031b1c612a8a565b919060031b600019811b9283911b169119161790565b90556101816123e9565b9290939160009160009182966130bc612e8f565b966001600160a01b039185908316806132c8575b508261016154168360405193636eb1769f60e11b8552168060048501523060248501526020948585604481865afa9485156132bd57849561328e575b508461316d575b505050505086015115613129575b505050929190565b90919250613141670de0b6b3a7640000928392612b13565b048085529082156131655761315d9204908160408601526129d1565b388080613121565b50905061315d565b61317b906101625416612d92565b9290921561311357909192939b50848b6131b585670de0b6b3a76400006131af6131a58d8d612b13565b6101755490612b13565b04612b26565b81830181815295908b1561328457506131e0916131d46060928d612b26565b918291015285516129d1565b809d5b1092831561320f575b5050506131fc575b808080613113565b81929950528060608801529638806131f4565b909192506024604051809481936370a0823160e01b835260048301525afa90811561327957908b918491613248575b50103884816131ec565b809250858092503d8311613272575b613261818361242b565b81010312611307578a90513861323e565b503d613257565b6040513d85823e3d90fd5b915050809d6131e3565b9094508581813d83116132b6575b6132a6818361242b565b81010312610bc75751933861310c565b503d61329c565b6040513d86823e3d90fd5b9095506020836101ed5416916024604051809481936364a731e960e01b835260048301525afa801561334057869061330d575b613306915084612b13565b94386130d0565b506020813d8211613338575b816133266020938361242b565b810103126112f85761330690516132fb565b3d9150613319565b6040513d88823e3d90fd5b94613365939461335f8461071e9498613451565b956133b5565b670de0b6b3a763ffff1982019182116129de57670de0b6b3a76400009161338b91612b26565b04818110613397575050565b604492506040519163c39b739f60e01b835260048301526024820152fd5b9091816133c28285612ba7565b11156133ee57612bc992610723670de0b6b3a764000061071e6133e89461016354612bd4565b90612bd4565b505050600090565b906101665490811561342257670de0b6b3a764000061071e612bc9946107196106ec9461016354612bd4565b505050670de0b6b3a764000090565b9060405161344060408261242b565b602060018294805484520154910152565b61345d8161017a6123e9565b90549060031b1c916101b8916134738184612463565b5054926101b95443101561349e575b505080821015613499576106ec90612bc993612b13565b505090565b8293506134b26134bd93926134b892612463565b50613431565b6134c5565b903880613482565b602081519101805192670de0b6b3a7640000938403908482116129de576134f2612a7492612a2795612b13565b9251612b13565b6000806101699182549261350c84612bf9565b9382915b8582841061353b5750505050811561352f579061352c91612b26565b91565b505061017b5460011b91565b61071e6135a6859796612a7461357561359d896106ec8961071e6135878460019d9e9f9c61356b6135ac9e612d24565b98899788926129bd565b526135808682612aa6565b5093612463565b5061071e670de0b6b3a7640000938492546129d1565b9485918c613451565b956129d1565b94019190613510565b6101b980544310156135c45750565b6101695460005b8181106135de5750506101ba5443019055565b80807f19156e9379c7bbbce8f646ce5ee30ba860b8f954717405f3d5859a6c1a21ae606001936101b86136146134b28383612463565b9061363261362a61362485612d24565b846134c5565b938492612463565b50555160409182519182526020820152a2016135cb565b60975460405163d994d6d560e01b815233600482015290602090829060249082906001600160a01b03165afa908115612de85760009161369e575b501561368c57565b604051631dd1b1b560e21b8152600490fd5b906020823d82116136cf575b816136b76020938361242b565b810103126103ed57506136c990612d6b565b38613684565b3d91506136aa565b60ff60ca5460081c166136e657565b60405163783bb6c960e11b8152600490fdfea2646970667358221220b354e890afa434a9ea1ef97626431d538f3b277c62c7ee3ff43a21d437cf8aeb64736f6c63430008100033",
  "linkReferences": {},
  "deployedLinkReferences": {}
}