{
  "_format": "hh-sol-artifact-1",
  "contractName": "MocMultiCollateralGuard",
  "sourceName": "moc-main/contracts/core/multicollateral/MocMultiCollateralGuard.sol",
  "abi": [
    {
      "inputs": [],
      "name": "InvalidAddress",
      "type": "error"
    },
    {
      "inputs": [],
      "name": "InvalidValue",
      "type": "error"
    },
    {
      "inputs": [],
      "name": "NoTPOnBaseBuckets",
      "type": "error"
    },
    {
      "inputs": [],
      "name": "NotAuthorizedChanger",
      "type": "error"
    },
    {
      "inputs": [],
      "name": "NotWhenPaused",
      "type": "error"
    },
    {
      "inputs": [],
      "name": "OnlyPauser",
      "type": "error"
    },
    {
      "inputs": [],
      "name": "OnlyWhilePaused",
      "type": "error"
    },
    {
      "inputs": [],
      "name": "Unstoppable",
      "type": "error"
    },
    {
      "anonymous": false,
      "inputs": [
        {
          "indexed": false,
          "internalType": "address",
          "name": "previousAdmin",
          "type": "address"
        },
        {
          "indexed": false,
          "internalType": "address",
          "name": "newAdmin",
          "type": "address"
        }
      ],
      "name": "AdminChanged",
      "type": "event"
    },
    {
      "anonymous": false,
      "inputs": [
        {
          "indexed": true,
          "internalType": "address",
          "name": "beacon",
          "type": "address"
        }
      ],
      "name": "BeaconUpgraded",
      "type": "event"
    },
    {
      "anonymous": false,
      "inputs": [
        {
          "indexed": false,
          "internalType": "uint8",
          "name": "version",
          "type": "uint8"
        }
      ],
      "name": "Initialized",
      "type": "event"
    },
    {
      "anonymous": false,
      "inputs": [
        {
          "indexed": false,
          "internalType": "address",
          "name": "account",
          "type": "address"
        }
      ],
      "name": "Paused",
      "type": "event"
    },
    {
      "anonymous": false,
      "inputs": [
        {
          "indexed": false,
          "internalType": "address",
          "name": "account",
          "type": "address"
        }
      ],
      "name": "Unpaused",
      "type": "event"
    },
    {
      "anonymous": false,
      "inputs": [
        {
          "indexed": true,
          "internalType": "address",
          "name": "implementation",
          "type": "address"
        }
      ],
      "name": "Upgraded",
      "type": "event"
    },
    {
      "inputs": [
        {
          "internalType": "contract MocCARC20Deferred",
          "name": "mocCoreToAdd_",
          "type": "address"
        }
      ],
      "name": "addBucket",
      "outputs": [],
      "stateMutability": "nonpayable",
      "type": "function"
    },
    {
      "inputs": [
        {
          "internalType": "uint256",
          "name": "",
          "type": "uint256"
        }
      ],
      "name": "buckets",
      "outputs": [
        {
          "internalType": "contract MocCARC20Deferred",
          "name": "",
          "type": "address"
        }
      ],
      "stateMutability": "view",
      "type": "function"
    },
    {
      "inputs": [
        {
          "internalType": "contract IGovernor",
          "name": "newGovernor_",
          "type": "address"
        }
      ],
      "name": "changeGovernor",
      "outputs": [],
      "stateMutability": "nonpayable",
      "type": "function"
    },
    {
      "inputs": [],
      "name": "getCombinedCglb",
      "outputs": [
        {
          "internalType": "uint256",
          "name": "combinedCglb",
          "type": "uint256"
        }
      ],
      "stateMutability": "view",
      "type": "function"
    },
    {
      "inputs": [],
      "name": "getCombinedCtargemaCA",
      "outputs": [
        {
          "internalType": "uint256",
          "name": "combinedCtargemaCA",
          "type": "uint256"
        }
      ],
      "stateMutability": "view",
      "type": "function"
    },
    {
      "inputs": [
        {
          "internalType": "int256",
          "name": "localTCAvailableToRedeem_",
          "type": "int256"
        }
      ],
      "name": "getRealTCAvailableToRedeem",
      "outputs": [
        {
          "internalType": "uint256",
          "name": "realTCAvailableToRedeem",
          "type": "uint256"
        }
      ],
      "stateMutability": "view",
      "type": "function"
    },
    {
      "inputs": [
        {
          "internalType": "address",
          "name": "tp_",
          "type": "address"
        },
        {
          "internalType": "int256",
          "name": "localTPAvailableToMint_",
          "type": "int256"
        }
      ],
      "name": "getRealTPAvailableToMint",
      "outputs": [
        {
          "internalType": "uint256",
          "name": "realTPAvailableToMint_",
          "type": "uint256"
        }
      ],
      "stateMutability": "view",
      "type": "function"
    },
    {
      "inputs": [],
      "name": "governor",
      "outputs": [
        {
          "internalType": "contract IGovernor",
          "name": "",
          "type": "address"
        }
      ],
      "stateMutability": "view",
      "type": "function"
    },
    {
      "inputs": [],
      "name": "makeStoppable",
      "outputs": [],
      "stateMutability": "nonpayable",
      "type": "function"
    },
    {
      "inputs": [],
      "name": "makeUnstoppable",
      "outputs": [],
      "stateMutability": "nonpayable",
      "type": "function"
    },
    {
      "inputs": [],
      "name": "pause",
      "outputs": [],
      "stateMutability": "nonpayable",
      "type": "function"
    },
    {
      "inputs": [],
      "name": "paused",
      "outputs": [
        {
          "internalType": "bool",
          "name": "",
          "type": "bool"
        }
      ],
      "stateMutability": "view",
      "type": "function"
    },
    {
      "inputs": [],
      "name": "pauser",
      "outputs": [
        {
          "internalType": "address",
          "name": "",
          "type": "address"
        }
      ],
      "stateMutability": "view",
      "type": "function"
    },
    {
      "inputs": [],
      "name": "proxiableUUID",
      "outputs": [
        {
          "internalType": "bytes32",
          "name": "",
          "type": "bytes32"
        }
      ],
      "stateMutability": "view",
      "type": "function"
    },
    {
      "inputs": [
        {
          "internalType": "address",
          "name": "newPauser_",
          "type": "address"
        }
      ],
      "name": "setPauser",
      "outputs": [],
      "stateMutability": "nonpayable",
      "type": "function"
    },
    {
      "inputs": [],
      "name": "stoppable",
      "outputs": [
        {
          "internalType": "bool",
          "name": "",
          "type": "bool"
        }
      ],
      "stateMutability": "view",
      "type": "function"
    },
    {
      "inputs": [],
      "name": "unpause",
      "outputs": [],
      "stateMutability": "nonpayable",
      "type": "function"
    },
    {
      "inputs": [
        {
          "internalType": "address",
          "name": "newImplementation",
          "type": "address"
        }
      ],
      "name": "upgradeTo",
      "outputs": [],
      "stateMutability": "nonpayable",
      "type": "function"
    },
    {
      "inputs": [
        {
          "internalType": "address",
          "name": "newImplementation",
          "type": "address"
        },
        {
          "internalType": "bytes",
          "name": "data",
          "type": "bytes"
        }
      ],
      "name": "upgradeToAndCall",
      "outputs": [],
      "stateMutability": "payable",
      "type": "function"
    },
    {
      "inputs": [
        {
          "internalType": "address",
          "name": "tp_",
          "type": "address"
        }
      ],
      "name": "validatePeggedTokenToAdd",
      "outputs": [],
      "stateMutability": "view",
      "type": "function"
    }
  ],
  "bytecode": "0x60a0806040523461003157306080526118c6908161003782396080518181816104ad0152818161061501526107300152f35b600080fdfe60806040908082526004908136101561001757600080fd5b600092833560e01c9182630c340a24146109ff575081632329b3a8146107eb5781632d88af4a14610795578382633659cfe6146106fe575081633f4ba83a14610683578382634f1ef28614610592575081635210570c1461056c57816352d1902d146104985781635c975abb146104715781636827435714610448578163692d9466146103835781636daf3954146103665781637b8cc2b4146102ef5781638456cb591461024c5781639b51fb0d146102065781639fd0506d146101d9578163a1844ff5146101a0578163b92f5b5414610175578163bb4872de14610151575063e4c0aaf41461010657600080fd5b3461014d57602036600319011261014d57356001600160a01b0381169081900361014d576101326117f6565b6bffffffffffffffffffffffff60a01b609754161760975580f35b5080fd5b83903461014d578160031936011261014d5760209060ff60ca541690519015158152f35b9050823461019d57602036600319011261019d5750610196602092356113f5565b9051908152f35b80fd5b919050346101d557816003193601126101d55735916001600160a01b038316830361019d57506101966020926024359061167d565b8280fd5b83903461014d578160031936011261014d5760ca54905160109190911c6001600160a01b03168152602090f35b919050346101d55760203660031901126101d557359161012f90815484101561019d575060209261023691610a78565b905491519160018060a01b039160031b1c168152f35b919050346101d557826003193601126101d55760ca549060ff8260081c166102e157601082901c6001600160a01b031633036102d35760ff8216156102c5575061ff0019166101001760ca55513381527f62e78cea01bee320cd4e420270b5ea74000d11b0c9f74754ebdbfc544b05a25890602090a180f35b825163866099c360e01b8152fd5b8251631d77d47760e21b8152fd5b825163783bb6c960e11b8152fd5b82843461019d57602036600319011261019d576001600160a01b038235818116908190036101d55761012f80549068010000000000000000821015610353579061033e91600182018155610a78565b909283549160031b92831b921b191617905580f35b634e487b7160e01b855260418652602485fd5b83903461014d578160031936011261014d57602090610196611097565b9050346101d55760203660031901126101d55781356001600160a01b0381811691829003610444576103b78561012f610a78565b90549060031b1c16903382036103cb578480f35b8290602482518094819362272aff60ea1b8352888301525afa90811561043a57849161040b575b50156103fe5780808480f35b5163f08995ff60e01b8152fd5b61042b9150823d8411610433575b6104238183610a24565b81019061125e565b9050386103f2565b503d610419565b82513d86823e3d90fd5b8480fd5b833461019d578060031936011261019d576104616117f6565b600160ff1960ca54161760ca5580f35b83903461014d578160031936011261014d5760209060ff60ca5460081c1690519015158152f35b82843461019d578060031936011261019d57507f00000000000000000000000000000000000000000000000000000000000000006001600160a01b0316300361050457602082517f360894a13ba1a3210667c828492db98dca3e2076cc3735a920a3ca505d382bbc8152f35b6020608492519162461bcd60e51b8352820152603860248201527f555550535570677261646561626c653a206d757374206e6f742062652063616c60448201527f6c6564207468726f7567682064656c656761746563616c6c00000000000000006064820152fd5b833461019d578060031936011261019d576105856117f6565b60ff1960ca541660ca5580f35b9291508060031936011261067f5781356001600160a01b038082168203610444576024359367ffffffffffffffff851161067b573660238601121561067b57840135906105ea6105e183610a5c565b94519485610a24565b818452366024838701011161067b576106789560208361066b946024600199018389013786010152807f0000000000000000000000000000000000000000000000000000000000000000169061064282301415610aa6565b7f360894a13ba1a3210667c828492db98dca3e2076cc3735a920a3ca505d382bbc541614610b07565b6106736117f6565b610b68565b80f35b8580fd5b5050fd5b919050346101d557826003193601126101d55760ca549060ff8260081c16156106f057601082901c6001600160a01b031633036102d3575061ff00191660ca55513381527f5db9ee0a495bf2e6ff9c91a7834c1ba4fdd244a5e8aa4e537bd38aeae4b073aa90602090a180f35b8251637c7fd07960e01b8152fd5b9150913461014d57602036600319011261014d576001600160a01b0392903583811681036101d55761075d84610678957f0000000000000000000000000000000000000000000000000000000000000000169061064282301415610aa6565b6107656117f6565b61077a61077184610a5c565b92519283610a24565b828252601f1961078984610a5c565b01366020840137610b68565b50503461014d57602036600319011261014d57356001600160a01b038116810361014d576107c16117f6565b60ca805462010000600160b01b03191660109290921b62010000600160b01b031691909117905580f35b83833461014d578160031936011261014d5761080861012f610f3e565b6001600160a01b03928361081c8284610f96565b51169285519282848381631a55732960e21b988982525afa9384156109f55783946109d9575b50829493839484965b83518810156109cc578861085f8986610f96565b51169088156109be578a5183815287818881865afa9081156109b45761089d9184918a91610992575b508c6108948b8a610f96565b51169087611278565b8b51630eb3454760e31b81528c818981875afa908115610988578991610959575b508c51809463198804fd60e21b8252818a60209788935afa94851561094f578a95610919575b5050610910926109046108fd6001969461090a94611041565b8094611041565b9061106a565b9861106a565b9701969561084b565b9080929550813d8311610948575b6109318183610a24565b81010312610944575192826109046108e4565b8880fd5b503d610927565b8e513d8c823e3d90fd5b61097991508d803d10610981575b6109718183610a24565b81019061102b565b90508d6108be565b503d610967565b8d513d8b823e3d90fd5b6109ae91503d808c833e6109a68183610a24565b810190610faa565b8e610888565b8c513d8a823e3d90fd5b670de0b6b3a764000061089d565b8961019688602093611077565b6109ee9194503d8085833e6109a68183610a24565b9287610842565b87513d85823e3d90fd5b84903461014d578160031936011261014d576097546001600160a01b03168152602090f35b90601f8019910116810190811067ffffffffffffffff821117610a4657604052565b634e487b7160e01b600052604160045260246000fd5b67ffffffffffffffff8111610a4657601f01601f191660200190565b8054821015610a905760005260206000200190600090565b634e487b7160e01b600052603260045260246000fd5b15610aad57565b60405162461bcd60e51b815260206004820152602c60248201527f46756e6374696f6e206d7573742062652063616c6c6564207468726f7567682060448201526b19195b1959d85d1958d85b1b60a21b6064820152608490fd5b15610b0e57565b60405162461bcd60e51b815260206004820152602c60248201527f46756e6374696f6e206d7573742062652063616c6c6564207468726f7567682060448201526b6163746976652070726f787960a01b6064820152608490fd5b909160ff7f4910fdfa16fed3260ed0e7147f7cc6da11a60208b5b9406d12a635614ffd91435416600014610ba35750610ba19150610dc8565b565b604080516352d1902d60e01b8152602094919392906001600160a01b038416908681600481855afa60009181610d99575b50610c3457855162461bcd60e51b815260048101889052602e60248201527f45524331393637557067726164653a206e657720696d706c656d656e7461746960448201526d6f6e206973206e6f74205555505360901b6064820152608490fd5b9395929492937fc9f76b5ec45e5cdef99837d7b6d2467235c1df8933c8ca56df5c35afa2c7d44401610d4357610c6986610dc8565b7fbc7cd75a20ee27fd9adebab32041f755214dbc6bffa90cc0225b39da2e5c2d3b600080a283511590811591610d3b575b50610ca6575b50505050565b610d2793600080610cb76027610a5c565b95610cc485519788610a24565b602787527f416464726573733a206c6f772d6c6576656c2064656c65676174652063616c6c86880152660819985a5b195960ca1b858801528581519101845af4913d15610d31573d610d1861077182610a5c565b8152600081943d92013e610e6a565b5038808080610ca0565b5060609250610e6a565b905038610c9a565b825162461bcd60e51b815260048101859052602960248201527f45524331393637557067726164653a20756e737570706f727465642070726f786044820152681a58589b195555525160ba1b6064820152608490fd5b90918882813d8311610dc1575b610db08183610a24565b8101031261019d5750519038610bd4565b503d610da6565b803b15610e0f577f360894a13ba1a3210667c828492db98dca3e2076cc3735a920a3ca505d382bbc80546001600160a01b0319166001600160a01b03909216919091179055565b60405162461bcd60e51b815260206004820152602d60248201527f455243313936373a206e657720696d706c656d656e746174696f6e206973206e60448201526c1bdd08184818dbdb9d1c9858dd609a1b6064820152608490fd5b91929015610ecc5750815115610e7e575090565b3b15610e875790565b60405162461bcd60e51b815260206004820152601d60248201527f416464726573733a2063616c6c20746f206e6f6e2d636f6e74726163740000006044820152606490fd5b825190915015610edf5750805190602001fd5b6040519062461bcd60e51b82528160208060048301528251908160248401526000935b828510610f25575050604492506000838284010152601f80199101168101030190fd5b8481018201518686016044015293810193859350610f02565b9060405191828154918282526020928383019160005283600020936000905b828210610f7357505050610ba192500383610a24565b85546001600160a01b031684526001958601958895509381019390910190610f5d565b8051821015610a905760209160051b010190565b90602090818382031261102657825167ffffffffffffffff93848211611026570181601f82011215611026578051938411610a46578360051b9060405194610ff485840187610a24565b85528380860192820101928311611026578301905b828210611017575050505090565b81518152908301908301611009565b600080fd5b9190826040910312611026576020825192015190565b8181029291811591840414171561105457565b634e487b7160e01b600052601160045260246000fd5b9190820180921161105457565b8115611081570490565b634e487b7160e01b600052601260045260246000fd5b6110a261012f610f3e565b6001600160a01b0391906000836110b98284610f96565b511693604094855190818481631a55732960e21b9384825260049586915afa90811561124757859161122d575b5084918594865b88518110156112085781611101828b610f96565b51168682156111f757508b5184815289818981855afa9081156111cb57611147838f9293878f8f908e989782946111d5575b509061113e91610f96565b5116908a611278565b915b8151630eb3454760e31b815293849182905afa80156111cb578a928b916111a8575b5060018301611180575b5050506001016110ed565b60019399976109046108fd61119f959461119994611041565b9661106a565b96903880611175565b90506111c29192508d803d10610981576109718183610a24565b9190913861116b565b8d513d8c823e3d90fd5b61113e929194506111ef903d8084833e6109a68183610a24565b939091611133565b908c670de0b6b3a764000091611149565b505050509495505091505080156112255761122291611077565b90565b505060001990565b61124191503d8087833e6109a68183610a24565b386110e6565b88513d87823e3d90fd5b5190811515820361102657565b919082604091031261102657611222602083519301611251565b6000949392908590815b84518810156113c75760408051627c6da160e21b81526004918a838301528860206024938181868160018060a01b038097165afa9182156113bd578492849287928c9261137b575b50508351948593849262272aff60ea1b845216898301528c165afa918215611372579061130192918892611354575b505085610f96565b519061130d8b89610f96565b5192670de0b6b3a7640000928381029381850414901517156113435750509161090461133b92600194611077565b970196611282565b634e487b7160e01b87526011905285fd5b61136a9250803d10610433576104238183610a24565b5038806112f9565b513d88823e3d90fd5b93509350505081813d83116113b6575b6113958183610a24565b810103126113b2575181811681036113b2578184849238806112ca565b8780fd5b503d61138b565b84513d8b823e3d90fd5b94505050506112229293505190611077565b9190916000838201938412911290801582169115161761105457565b60008082131561164c5761140a61012f610f3e565b926001600160a01b03918261141f8287610f96565b51169160409384519384918483631a55732960e21b9384825260049889915afa928315611673578593611657575b5084938598865b8b518110156116225783611468828e610f96565b5116968115611611578a5186815289818c818c5afa908115611581576114ad8f8b93898f948f9093879482946115ef575b50906114a491610f96565b5116908c611278565b925b8d51928380936321d071cf60e11b825260209586935afa9182156115e5578c926115b2575b50818402918c8112600160ff1b86141661159e5780830585149015171561158b57906114ff916113d9565b98338114611513575b505050600101611454565b8192939d50908b918d519283809262fd86ed60e51b82525afa918215611581578a92611551575b505060019161154891611041565b9a903880611508565b90809250813d831161157a575b6115688183610a24565b8101031261094457518161154861153a565b503d61155e565b8c513d8c823e3d90fd5b634e487b7160e01b8c5260118d5260248cfd5b50634e487b7160e01b8c5260118d5260248cfd5b9091508281813d83116115de575b6115ca8183610a24565b810103126115da575190386114d4565b8b80fd5b503d6115c0565b8e513d8e823e3d90fd5b6114a492919450611609903d8084833e6109a68183610a24565b939091611499565b878a670de0b6b3a7640000926114af565b5097509850505050915092838213156116515761163e91611077565b91508082101561164c575090565b905090565b50505090565b61166c9193503d8087833e6109a68183610a24565b913861144d565b87513d87823e3d90fd5b91600092838313156117f157829361169661012f610f3e565b92815b84518110156117cf576001600160a01b0333816116b68489610f96565b5116036116c7575b50600101611699565b806116d28388610f96565b511660409182519162272aff60ea1b835281881691838581600494868683015260249788915afa9081156117c55789916117a6575b50611716575b505050506116be565b611723868b9d979d610f96565b51169084519384938492633e22c50d60e21b845283015260209384935afa92831561179d57508592611769575b505061175e906001926113d9565b96903880808061170d565b90809250813d8311611796575b6117808183610a24565b8101031261179257518161175e611750565b8380fd5b503d611776565b513d87823e3d90fd5b6117bd9150863d8811610433576104238183610a24565b905038611707565b86513d8b823e3d90fd5b50949392509050808313156117eb57508082101561164c575090565b91505090565b509050565b60975460405163d994d6d560e01b815233600482015290602090829060249082906001600160a01b03165afa9081156118845760009161184b575b501561183957565b604051631dd1b1b560e21b8152600490fd5b906020823d821161187c575b8161186460209383610a24565b8101031261019d575061187690611251565b38611831565b3d9150611857565b6040513d6000823e3d90fdfea2646970667358221220cb579206c114734a5c7bcdaf541223ac72047a2c2019444ffd91c3c00024ab3064736f6c63430008120033",
  "linkReferences": {},
  "deployedLinkReferences": {}
}