{
  "_format": "hh-sol-artifact-1",
  "contractName": "MocQueue",
  "sourceName": "moc-main/contracts/queue/MocQueue.sol",
  "abi": [
    {
      "inputs": [],
      "stateMutability": "nonpayable",
      "type": "constructor"
    },
    {
      "inputs": [],
      "name": "BucketAlreadyRegistered",
      "type": "error"
    },
    {
      "inputs": [],
      "name": "ExecutionFeePaymentFailed",
      "type": "error"
    },
    {
      "inputs": [],
      "name": "InvalidAddress",
      "type": "error"
    },
    {
      "inputs": [],
      "name": "InvalidValue",
      "type": "error"
    },
    {
      "inputs": [],
      "name": "NotAuthorizedChanger",
      "type": "error"
    },
    {
      "inputs": [],
      "name": "NotWhenPaused",
      "type": "error"
    },
    {
      "inputs": [],
      "name": "OnlyPauser",
      "type": "error"
    },
    {
      "inputs": [],
      "name": "OnlyWhilePaused",
      "type": "error"
    },
    {
      "inputs": [],
      "name": "Unstoppable",
      "type": "error"
    },
    {
      "inputs": [
        {
          "internalType": "uint256",
          "name": "expectedValue",
          "type": "uint256"
        }
      ],
      "name": "WrongExecutionFee",
      "type": "error"
    },
    {
      "anonymous": false,
      "inputs": [
        {
          "indexed": false,
          "internalType": "address",
          "name": "previousAdmin",
          "type": "address"
        },
        {
          "indexed": false,
          "internalType": "address",
          "name": "newAdmin",
          "type": "address"
        }
      ],
      "name": "AdminChanged",
      "type": "event"
    },
    {
      "anonymous": false,
      "inputs": [
        {
          "indexed": true,
          "internalType": "address",
          "name": "beacon",
          "type": "address"
        }
      ],
      "name": "BeaconUpgraded",
      "type": "event"
    },
    {
      "anonymous": false,
      "inputs": [
        {
          "indexed": false,
          "internalType": "uint8",
          "name": "version",
          "type": "uint8"
        }
      ],
      "name": "Initialized",
      "type": "event"
    },
    {
      "anonymous": false,
      "inputs": [
        {
          "indexed": false,
          "internalType": "uint256",
          "name": "operId_",
          "type": "uint256"
        },
        {
          "indexed": false,
          "internalType": "bytes4",
          "name": "errorCode_",
          "type": "bytes4"
        },
        {
          "indexed": false,
          "internalType": "string",
          "name": "msg_",
          "type": "string"
        }
      ],
      "name": "OperationError",
      "type": "event"
    },
    {
      "anonymous": false,
      "inputs": [
        {
          "indexed": true,
          "internalType": "address",
          "name": "executor",
          "type": "address"
        },
        {
          "indexed": true,
          "internalType": "uint256",
          "name": "operId_",
          "type": "uint256"
        }
      ],
      "name": "OperationExecuted",
      "type": "event"
    },
    {
      "anonymous": false,
      "inputs": [
        {
          "indexed": true,
          "internalType": "address",
          "name": "bucket_",
          "type": "address"
        },
        {
          "indexed": false,
          "internalType": "uint256",
          "name": "operId_",
          "type": "uint256"
        },
        {
          "indexed": false,
          "internalType": "enum MocQueueExecFees.OperType",
          "name": "operType_",
          "type": "uint8"
        }
      ],
      "name": "OperationQueued",
      "type": "event"
    },
    {
      "anonymous": false,
      "inputs": [
        {
          "indexed": false,
          "internalType": "address",
          "name": "account",
          "type": "address"
        }
      ],
      "name": "Paused",
      "type": "event"
    },
    {
      "anonymous": false,
      "inputs": [
        {
          "indexed": true,
          "internalType": "bytes32",
          "name": "role",
          "type": "bytes32"
        },
        {
          "indexed": true,
          "internalType": "bytes32",
          "name": "previousAdminRole",
          "type": "bytes32"
        },
        {
          "indexed": true,
          "internalType": "bytes32",
          "name": "newAdminRole",
          "type": "bytes32"
        }
      ],
      "name": "RoleAdminChanged",
      "type": "event"
    },
    {
      "anonymous": false,
      "inputs": [
        {
          "indexed": true,
          "internalType": "bytes32",
          "name": "role",
          "type": "bytes32"
        },
        {
          "indexed": true,
          "internalType": "address",
          "name": "account",
          "type": "address"
        },
        {
          "indexed": true,
          "internalType": "address",
          "name": "sender",
          "type": "address"
        }
      ],
      "name": "RoleGranted",
      "type": "event"
    },
    {
      "anonymous": false,
      "inputs": [
        {
          "indexed": true,
          "internalType": "bytes32",
          "name": "role",
          "type": "bytes32"
        },
        {
          "indexed": true,
          "internalType": "address",
          "name": "account",
          "type": "address"
        },
        {
          "indexed": true,
          "internalType": "address",
          "name": "sender",
          "type": "address"
        }
      ],
      "name": "RoleRevoked",
      "type": "event"
    },
    {
      "anonymous": false,
      "inputs": [
        {
          "indexed": true,
          "internalType": "address",
          "name": "sender_",
          "type": "address"
        },
        {
          "indexed": true,
          "internalType": "address",
          "name": "recipient_",
          "type": "address"
        },
        {
          "indexed": false,
          "internalType": "uint256",
          "name": "qTC_",
          "type": "uint256"
        },
        {
          "indexed": false,
          "internalType": "uint256",
          "name": "qAC_",
          "type": "uint256"
        },
        {
          "indexed": false,
          "internalType": "uint256",
          "name": "qACfee_",
          "type": "uint256"
        },
        {
          "indexed": false,
          "internalType": "uint256",
          "name": "qFeeToken_",
          "type": "uint256"
        },
        {
          "indexed": false,
          "internalType": "uint256",
          "name": "qACVendorMarkup_",
          "type": "uint256"
        },
        {
          "indexed": false,
          "internalType": "uint256",
          "name": "qFeeTokenVendorMarkup_",
          "type": "uint256"
        },
        {
          "indexed": false,
          "internalType": "address",
          "name": "vendor_",
          "type": "address"
        },
        {
          "indexed": false,
          "internalType": "uint256",
          "name": "operId_",
          "type": "uint256"
        }
      ],
      "name": "TCMinted",
      "type": "event"
    },
    {
      "anonymous": false,
      "inputs": [
        {
          "indexed": true,
          "internalType": "address",
          "name": "sender_",
          "type": "address"
        },
        {
          "indexed": true,
          "internalType": "address",
          "name": "recipient_",
          "type": "address"
        },
        {
          "indexed": false,
          "internalType": "uint256",
          "name": "qTC_",
          "type": "uint256"
        },
        {
          "indexed": false,
          "internalType": "uint256",
          "name": "qAC_",
          "type": "uint256"
        },
        {
          "indexed": false,
          "internalType": "uint256",
          "name": "qACfee_",
          "type": "uint256"
        },
        {
          "indexed": false,
          "internalType": "uint256",
          "name": "qFeeToken_",
          "type": "uint256"
        },
        {
          "indexed": false,
          "internalType": "uint256",
          "name": "qACVendorMarkup_",
          "type": "uint256"
        },
        {
          "indexed": false,
          "internalType": "uint256",
          "name": "qFeeTokenVendorMarkup_",
          "type": "uint256"
        },
        {
          "indexed": false,
          "internalType": "address",
          "name": "vendor_",
          "type": "address"
        },
        {
          "indexed": false,
          "internalType": "uint256",
          "name": "operId_",
          "type": "uint256"
        }
      ],
      "name": "TCRedeemed",
      "type": "event"
    },
    {
      "anonymous": false,
      "inputs": [
        {
          "indexed": true,
          "internalType": "address",
          "name": "tp_",
          "type": "address"
        },
        {
          "indexed": true,
          "internalType": "address",
          "name": "sender_",
          "type": "address"
        },
        {
          "indexed": true,
          "internalType": "address",
          "name": "recipient_",
          "type": "address"
        },
        {
          "indexed": false,
          "internalType": "uint256",
          "name": "qTC_",
          "type": "uint256"
        },
        {
          "indexed": false,
          "internalType": "uint256",
          "name": "qTP_",
          "type": "uint256"
        },
        {
          "indexed": false,
          "internalType": "uint256",
          "name": "qACfee_",
          "type": "uint256"
        },
        {
          "indexed": false,
          "internalType": "uint256",
          "name": "qFeeToken_",
          "type": "uint256"
        },
        {
          "indexed": false,
          "internalType": "uint256",
          "name": "qACVendorMarkup_",
          "type": "uint256"
        },
        {
          "indexed": false,
          "internalType": "uint256",
          "name": "qFeeTokenVendorMarkup_",
          "type": "uint256"
        },
        {
          "indexed": false,
          "internalType": "address",
          "name": "vendor_",
          "type": "address"
        },
        {
          "indexed": false,
          "internalType": "uint256",
          "name": "operId_",
          "type": "uint256"
        }
      ],
      "name": "TCSwappedForTP",
      "type": "event"
    },
    {
      "anonymous": false,
      "inputs": [
        {
          "indexed": true,
          "internalType": "address",
          "name": "tp_",
          "type": "address"
        },
        {
          "indexed": true,
          "internalType": "address",
          "name": "sender_",
          "type": "address"
        },
        {
          "indexed": true,
          "internalType": "address",
          "name": "recipient_",
          "type": "address"
        },
        {
          "indexed": false,
          "internalType": "uint256",
          "name": "qTC_",
          "type": "uint256"
        },
        {
          "indexed": false,
          "internalType": "uint256",
          "name": "qTP_",
          "type": "uint256"
        },
        {
          "indexed": false,
          "internalType": "uint256",
          "name": "qAC_",
          "type": "uint256"
        },
        {
          "indexed": false,
          "internalType": "uint256",
          "name": "qACfee_",
          "type": "uint256"
        },
        {
          "indexed": false,
          "internalType": "uint256",
          "name": "qFeeToken_",
          "type": "uint256"
        },
        {
          "indexed": false,
          "internalType": "uint256",
          "name": "qACVendorMarkup_",
          "type": "uint256"
        },
        {
          "indexed": false,
          "internalType": "uint256",
          "name": "qFeeTokenVendorMarkup_",
          "type": "uint256"
        },
        {
          "indexed": false,
          "internalType": "address",
          "name": "vendor_",
          "type": "address"
        },
        {
          "indexed": false,
          "internalType": "uint256",
          "name": "operId_",
          "type": "uint256"
        }
      ],
      "name": "TCandTPMinted",
      "type": "event"
    },
    {
      "anonymous": false,
      "inputs": [
        {
          "indexed": true,
          "internalType": "address",
          "name": "tp_",
          "type": "address"
        },
        {
          "indexed": true,
          "internalType": "address",
          "name": "sender_",
          "type": "address"
        },
        {
          "indexed": true,
          "internalType": "address",
          "name": "recipient_",
          "type": "address"
        },
        {
          "indexed": false,
          "internalType": "uint256",
          "name": "qTC_",
          "type": "uint256"
        },
        {
          "indexed": false,
          "internalType": "uint256",
          "name": "qTP_",
          "type": "uint256"
        },
        {
          "indexed": false,
          "internalType": "uint256",
          "name": "qAC_",
          "type": "uint256"
        },
        {
          "indexed": false,
          "internalType": "uint256",
          "name": "qACfee_",
          "type": "uint256"
        },
        {
          "indexed": false,
          "internalType": "uint256",
          "name": "qFeeToken_",
          "type": "uint256"
        },
        {
          "indexed": false,
          "internalType": "uint256",
          "name": "qACVendorMarkup_",
          "type": "uint256"
        },
        {
          "indexed": false,
          "internalType": "uint256",
          "name": "qFeeTokenVendorMarkup_",
          "type": "uint256"
        },
        {
          "indexed": false,
          "internalType": "address",
          "name": "vendor_",
          "type": "address"
        },
        {
          "indexed": false,
          "internalType": "uint256",
          "name": "operId_",
          "type": "uint256"
        }
      ],
      "name": "TCandTPRedeemed",
      "type": "event"
    },
    {
      "anonymous": false,
      "inputs": [
        {
          "indexed": true,
          "internalType": "address",
          "name": "tp_",
          "type": "address"
        },
        {
          "indexed": true,
          "internalType": "address",
          "name": "sender_",
          "type": "address"
        },
        {
          "indexed": true,
          "internalType": "address",
          "name": "recipient_",
          "type": "address"
        },
        {
          "indexed": false,
          "internalType": "uint256",
          "name": "qTP_",
          "type": "uint256"
        },
        {
          "indexed": false,
          "internalType": "uint256",
          "name": "qAC_",
          "type": "uint256"
        },
        {
          "indexed": false,
          "internalType": "uint256",
          "name": "qACfee_",
          "type": "uint256"
        },
        {
          "indexed": false,
          "internalType": "uint256",
          "name": "qFeeToken_",
          "type": "uint256"
        },
        {
          "indexed": false,
          "internalType": "uint256",
          "name": "qACVendorMarkup_",
          "type": "uint256"
        },
        {
          "indexed": false,
          "internalType": "uint256",
          "name": "qFeeTokenVendorMarkup_",
          "type": "uint256"
        },
        {
          "indexed": false,
          "internalType": "address",
          "name": "vendor_",
          "type": "address"
        },
        {
          "indexed": false,
          "internalType": "uint256",
          "name": "operId_",
          "type": "uint256"
        }
      ],
      "name": "TPMinted",
      "type": "event"
    },
    {
      "anonymous": false,
      "inputs": [
        {
          "indexed": true,
          "internalType": "address",
          "name": "tp_",
          "type": "address"
        },
        {
          "indexed": true,
          "internalType": "address",
          "name": "sender_",
          "type": "address"
        },
        {
          "indexed": true,
          "internalType": "address",
          "name": "recipient_",
          "type": "address"
        },
        {
          "indexed": false,
          "internalType": "uint256",
          "name": "qTP_",
          "type": "uint256"
        },
        {
          "indexed": false,
          "internalType": "uint256",
          "name": "qAC_",
          "type": "uint256"
        },
        {
          "indexed": false,
          "internalType": "uint256",
          "name": "qACfee_",
          "type": "uint256"
        },
        {
          "indexed": false,
          "internalType": "uint256",
          "name": "qFeeToken_",
          "type": "uint256"
        },
        {
          "indexed": false,
          "internalType": "uint256",
          "name": "qACVendorMarkup_",
          "type": "uint256"
        },
        {
          "indexed": false,
          "internalType": "uint256",
          "name": "qFeeTokenVendorMarkup_",
          "type": "uint256"
        },
        {
          "indexed": false,
          "internalType": "address",
          "name": "vendor_",
          "type": "address"
        },
        {
          "indexed": false,
          "internalType": "uint256",
          "name": "operId_",
          "type": "uint256"
        }
      ],
      "name": "TPRedeemed",
      "type": "event"
    },
    {
      "anonymous": false,
      "inputs": [
        {
          "indexed": true,
          "internalType": "address",
          "name": "tp_",
          "type": "address"
        },
        {
          "indexed": true,
          "internalType": "address",
          "name": "sender_",
          "type": "address"
        },
        {
          "indexed": true,
          "internalType": "address",
          "name": "recipient_",
          "type": "address"
        },
        {
          "indexed": false,
          "internalType": "uint256",
          "name": "qTP_",
          "type": "uint256"
        },
        {
          "indexed": false,
          "internalType": "uint256",
          "name": "qTC_",
          "type": "uint256"
        },
        {
          "indexed": false,
          "internalType": "uint256",
          "name": "qACfee_",
          "type": "uint256"
        },
        {
          "indexed": false,
          "internalType": "uint256",
          "name": "qFeeToken_",
          "type": "uint256"
        },
        {
          "indexed": false,
          "internalType": "uint256",
          "name": "qACVendorMarkup_",
          "type": "uint256"
        },
        {
          "indexed": false,
          "internalType": "uint256",
          "name": "qFeeTokenVendorMarkup_",
          "type": "uint256"
        },
        {
          "indexed": false,
          "internalType": "address",
          "name": "vendor_",
          "type": "address"
        },
        {
          "indexed": false,
          "internalType": "uint256",
          "name": "operId_",
          "type": "uint256"
        }
      ],
      "name": "TPSwappedForTC",
      "type": "event"
    },
    {
      "anonymous": false,
      "inputs": [
        {
          "indexed": true,
          "internalType": "address",
          "name": "tpFrom_",
          "type": "address"
        },
        {
          "indexed": false,
          "internalType": "address",
          "name": "tpTo_",
          "type": "address"
        },
        {
          "indexed": true,
          "internalType": "address",
          "name": "sender_",
          "type": "address"
        },
        {
          "indexed": true,
          "internalType": "address",
          "name": "recipient_",
          "type": "address"
        },
        {
          "indexed": false,
          "internalType": "uint256",
          "name": "qTPfrom_",
          "type": "uint256"
        },
        {
          "indexed": false,
          "internalType": "uint256",
          "name": "qTPto_",
          "type": "uint256"
        },
        {
          "indexed": false,
          "internalType": "uint256",
          "name": "qACfee_",
          "type": "uint256"
        },
        {
          "indexed": false,
          "internalType": "uint256",
          "name": "qFeeToken_",
          "type": "uint256"
        },
        {
          "indexed": false,
          "internalType": "uint256",
          "name": "qACVendorMarkup_",
          "type": "uint256"
        },
        {
          "indexed": false,
          "internalType": "uint256",
          "name": "qFeeTokenVendorMarkup_",
          "type": "uint256"
        },
        {
          "indexed": false,
          "internalType": "address",
          "name": "vendor_",
          "type": "address"
        },
        {
          "indexed": false,
          "internalType": "uint256",
          "name": "operId_",
          "type": "uint256"
        }
      ],
      "name": "TPSwappedForTP",
      "type": "event"
    },
    {
      "anonymous": false,
      "inputs": [
        {
          "indexed": false,
          "internalType": "uint256",
          "name": "operId_",
          "type": "uint256"
        },
        {
          "indexed": false,
          "internalType": "bytes",
          "name": "reason_",
          "type": "bytes"
        }
      ],
      "name": "UnhandledError",
      "type": "event"
    },
    {
      "anonymous": false,
      "inputs": [
        {
          "indexed": false,
          "internalType": "address",
          "name": "account",
          "type": "address"
        }
      ],
      "name": "Unpaused",
      "type": "event"
    },
    {
      "anonymous": false,
      "inputs": [
        {
          "indexed": true,
          "internalType": "address",
          "name": "implementation",
          "type": "address"
        }
      ],
      "name": "Upgraded",
      "type": "event"
    },
    {
      "inputs": [],
      "name": "DEFAULT_ADMIN_ROLE",
      "outputs": [
        {
          "internalType": "bytes32",
          "name": "",
          "type": "bytes32"
        }
      ],
      "stateMutability": "view",
      "type": "function"
    },
    {
      "inputs": [
        {
          "internalType": "contract IGovernor",
          "name": "newGovernor_",
          "type": "address"
        }
      ],
      "name": "changeGovernor",
      "outputs": [],
      "stateMutability": "nonpayable",
      "type": "function"
    },
    {
      "inputs": [
        {
          "internalType": "enum MocQueueExecFees.OperType",
          "name": "",
          "type": "uint8"
        }
      ],
      "name": "execFee",
      "outputs": [
        {
          "internalType": "uint256",
          "name": "",
          "type": "uint256"
        }
      ],
      "stateMutability": "view",
      "type": "function"
    },
    {
      "inputs": [
        {
          "internalType": "address",
          "name": "executionFeeRecipient",
          "type": "address"
        }
      ],
      "name": "execute",
      "outputs": [],
      "stateMutability": "nonpayable",
      "type": "function"
    },
    {
      "inputs": [],
      "name": "firstOperId",
      "outputs": [
        {
          "internalType": "uint256",
          "name": "",
          "type": "uint256"
        }
      ],
      "stateMutability": "view",
      "type": "function"
    },
    {
      "inputs": [
        {
          "internalType": "enum MocQueueExecFees.OperType",
          "name": "operType_",
          "type": "uint8"
        },
        {
          "internalType": "uint256",
          "name": "value_",
          "type": "uint256"
        }
      ],
      "name": "getAndVerifyExecFee",
      "outputs": [
        {
          "internalType": "uint256",
          "name": "currentExecFee",
          "type": "uint256"
        }
      ],
      "stateMutability": "view",
      "type": "function"
    },
    {
      "inputs": [
        {
          "internalType": "bytes32",
          "name": "role",
          "type": "bytes32"
        }
      ],
      "name": "getRoleAdmin",
      "outputs": [
        {
          "internalType": "bytes32",
          "name": "",
          "type": "bytes32"
        }
      ],
      "stateMutability": "view",
      "type": "function"
    },
    {
      "inputs": [],
      "name": "governor",
      "outputs": [
        {
          "internalType": "contract IGovernor",
          "name": "",
          "type": "address"
        }
      ],
      "stateMutability": "view",
      "type": "function"
    },
    {
      "inputs": [
        {
          "internalType": "bytes32",
          "name": "role",
          "type": "bytes32"
        },
        {
          "internalType": "address",
          "name": "account",
          "type": "address"
        }
      ],
      "name": "grantRole",
      "outputs": [],
      "stateMutability": "nonpayable",
      "type": "function"
    },
    {
      "inputs": [
        {
          "internalType": "bytes32",
          "name": "role",
          "type": "bytes32"
        },
        {
          "internalType": "address",
          "name": "account",
          "type": "address"
        }
      ],
      "name": "hasRole",
      "outputs": [
        {
          "internalType": "bool",
          "name": "",
          "type": "bool"
        }
      ],
      "stateMutability": "view",
      "type": "function"
    },
    {
      "inputs": [
        {
          "internalType": "address",
          "name": "governor_",
          "type": "address"
        },
        {
          "internalType": "address",
          "name": "pauser_",
          "type": "address"
        },
        {
          "internalType": "uint128",
          "name": "minOperWaitingBlk_",
          "type": "uint128"
        },
        {
          "internalType": "uint128",
          "name": "maxOperPerBatch_",
          "type": "uint128"
        },
        {
          "components": [
            {
              "internalType": "uint256",
              "name": "tcMintExecFee",
              "type": "uint256"
            },
            {
              "internalType": "uint256",
              "name": "tcRedeemExecFee",
              "type": "uint256"
            },
            {
              "internalType": "uint256",
              "name": "tpMintExecFee",
              "type": "uint256"
            },
            {
              "internalType": "uint256",
              "name": "tpRedeemExecFee",
              "type": "uint256"
            },
            {
              "internalType": "uint256",
              "name": "swapTPforTPExecFee",
              "type": "uint256"
            },
            {
              "internalType": "uint256",
              "name": "swapTPforTCExecFee",
              "type": "uint256"
            },
            {
              "internalType": "uint256",
              "name": "swapTCforTPExecFee",
              "type": "uint256"
            },
            {
              "internalType": "uint256",
              "name": "redeemTCandTPExecFee",
              "type": "uint256"
            },
            {
              "internalType": "uint256",
              "name": "mintTCandTPExecFee",
              "type": "uint256"
            }
          ],
          "internalType": "struct MocQueueExecFees.InitializeMocQueueExecFeesParams",
          "name": "mocQueueExecFeesParams_",
          "type": "tuple"
        }
      ],
      "name": "initialize",
      "outputs": [],
      "stateMutability": "nonpayable",
      "type": "function"
    },
    {
      "inputs": [],
      "name": "isEmpty",
      "outputs": [
        {
          "internalType": "bool",
          "name": "",
          "type": "bool"
        }
      ],
      "stateMutability": "view",
      "type": "function"
    },
    {
      "inputs": [],
      "name": "makeStoppable",
      "outputs": [],
      "stateMutability": "nonpayable",
      "type": "function"
    },
    {
      "inputs": [],
      "name": "makeUnstoppable",
      "outputs": [],
      "stateMutability": "nonpayable",
      "type": "function"
    },
    {
      "inputs": [],
      "name": "maxOperPerBatch",
      "outputs": [
        {
          "internalType": "uint128",
          "name": "",
          "type": "uint128"
        }
      ],
      "stateMutability": "view",
      "type": "function"
    },
    {
      "inputs": [],
      "name": "minOperWaitingBlk",
      "outputs": [
        {
          "internalType": "uint128",
          "name": "",
          "type": "uint128"
        }
      ],
      "stateMutability": "view",
      "type": "function"
    },
    {
      "inputs": [],
      "name": "mocOperations",
      "outputs": [
        {
          "internalType": "contract MocOperations",
          "name": "",
          "type": "address"
        }
      ],
      "stateMutability": "view",
      "type": "function"
    },
    {
      "inputs": [],
      "name": "operIdCount",
      "outputs": [
        {
          "internalType": "uint256",
          "name": "",
          "type": "uint256"
        }
      ],
      "stateMutability": "view",
      "type": "function"
    },
    {
      "inputs": [
        {
          "internalType": "uint256",
          "name": "",
          "type": "uint256"
        }
      ],
      "name": "operationsMintTC",
      "outputs": [
        {
          "internalType": "uint256",
          "name": "qTC",
          "type": "uint256"
        },
        {
          "internalType": "uint256",
          "name": "qACmax",
          "type": "uint256"
        },
        {
          "internalType": "address",
          "name": "sender",
          "type": "address"
        },
        {
          "internalType": "address",
          "name": "recipient",
          "type": "address"
        },
        {
          "internalType": "address",
          "name": "vendor",
          "type": "address"
        }
      ],
      "stateMutability": "view",
      "type": "function"
    },
    {
      "inputs": [
        {
          "internalType": "uint256",
          "name": "",
          "type": "uint256"
        }
      ],
      "name": "operationsMintTCandTP",
      "outputs": [
        {
          "internalType": "address",
          "name": "tp",
          "type": "address"
        },
        {
          "internalType": "uint256",
          "name": "qTP",
          "type": "uint256"
        },
        {
          "internalType": "uint256",
          "name": "qACmax",
          "type": "uint256"
        },
        {
          "internalType": "address",
          "name": "sender",
          "type": "address"
        },
        {
          "internalType": "address",
          "name": "recipient",
          "type": "address"
        },
        {
          "internalType": "address",
          "name": "vendor",
          "type": "address"
        }
      ],
      "stateMutability": "view",
      "type": "function"
    },
    {
      "inputs": [
        {
          "internalType": "uint256",
          "name": "",
          "type": "uint256"
        }
      ],
      "name": "operationsMintTP",
      "outputs": [
        {
          "internalType": "address",
          "name": "tp",
          "type": "address"
        },
        {
          "internalType": "uint256",
          "name": "qTP",
          "type": "uint256"
        },
        {
          "internalType": "uint256",
          "name": "qACmax",
          "type": "uint256"
        },
        {
          "internalType": "address",
          "name": "sender",
          "type": "address"
        },
        {
          "internalType": "address",
          "name": "recipient",
          "type": "address"
        },
        {
          "internalType": "address",
          "name": "vendor",
          "type": "address"
        }
      ],
      "stateMutability": "view",
      "type": "function"
    },
    {
      "inputs": [
        {
          "internalType": "uint256",
          "name": "",
          "type": "uint256"
        }
      ],
      "name": "operationsRedeemTC",
      "outputs": [
        {
          "internalType": "uint256",
          "name": "qTC",
          "type": "uint256"
        },
        {
          "internalType": "uint256",
          "name": "qACmin",
          "type": "uint256"
        },
        {
          "internalType": "address",
          "name": "sender",
          "type": "address"
        },
        {
          "internalType": "address",
          "name": "recipient",
          "type": "address"
        },
        {
          "internalType": "address",
          "name": "vendor",
          "type": "address"
        }
      ],
      "stateMutability": "view",
      "type": "function"
    },
    {
      "inputs": [
        {
          "internalType": "uint256",
          "name": "",
          "type": "uint256"
        }
      ],
      "name": "operationsRedeemTCandTP",
      "outputs": [
        {
          "internalType": "address",
          "name": "tp",
          "type": "address"
        },
        {
          "internalType": "uint256",
          "name": "qTC",
          "type": "uint256"
        },
        {
          "internalType": "uint256",
          "name": "qTP",
          "type": "uint256"
        },
        {
          "internalType": "uint256",
          "name": "qACmin",
          "type": "uint256"
        },
        {
          "internalType": "address",
          "name": "sender",
          "type": "address"
        },
        {
          "internalType": "address",
          "name": "recipient",
          "type": "address"
        },
        {
          "internalType": "address",
          "name": "vendor",
          "type": "address"
        }
      ],
      "stateMutability": "view",
      "type": "function"
    },
    {
      "inputs": [
        {
          "internalType": "uint256",
          "name": "",
          "type": "uint256"
        }
      ],
      "name": "operationsRedeemTP",
      "outputs": [
        {
          "internalType": "address",
          "name": "tp",
          "type": "address"
        },
        {
          "internalType": "uint256",
          "name": "qTP",
          "type": "uint256"
        },
        {
          "internalType": "uint256",
          "name": "qACmin",
          "type": "uint256"
        },
        {
          "internalType": "address",
          "name": "sender",
          "type": "address"
        },
        {
          "internalType": "address",
          "name": "recipient",
          "type": "address"
        },
        {
          "internalType": "address",
          "name": "vendor",
          "type": "address"
        }
      ],
      "stateMutability": "view",
      "type": "function"
    },
    {
      "inputs": [
        {
          "internalType": "uint256",
          "name": "",
          "type": "uint256"
        }
      ],
      "name": "operationsSwapTCforTP",
      "outputs": [
        {
          "internalType": "address",
          "name": "tp",
          "type": "address"
        },
        {
          "internalType": "uint256",
          "name": "qTC",
          "type": "uint256"
        },
        {
          "internalType": "uint256",
          "name": "qTPmin",
          "type": "uint256"
        },
        {
          "internalType": "uint256",
          "name": "qACmax",
          "type": "uint256"
        },
        {
          "internalType": "address",
          "name": "sender",
          "type": "address"
        },
        {
          "internalType": "address",
          "name": "recipient",
          "type": "address"
        },
        {
          "internalType": "address",
          "name": "vendor",
          "type": "address"
        }
      ],
      "stateMutability": "view",
      "type": "function"
    },
    {
      "inputs": [
        {
          "internalType": "uint256",
          "name": "",
          "type": "uint256"
        }
      ],
      "name": "operationsSwapTPforTC",
      "outputs": [
        {
          "internalType": "address",
          "name": "tp",
          "type": "address"
        },
        {
          "internalType": "uint256",
          "name": "qTP",
          "type": "uint256"
        },
        {
          "internalType": "uint256",
          "name": "qTCmin",
          "type": "uint256"
        },
        {
          "internalType": "uint256",
          "name": "qACmax",
          "type": "uint256"
        },
        {
          "internalType": "address",
          "name": "sender",
          "type": "address"
        },
        {
          "internalType": "address",
          "name": "recipient",
          "type": "address"
        },
        {
          "internalType": "address",
          "name": "vendor",
          "type": "address"
        }
      ],
      "stateMutability": "view",
      "type": "function"
    },
    {
      "inputs": [
        {
          "internalType": "uint256",
          "name": "",
          "type": "uint256"
        }
      ],
      "name": "operationsSwapTPforTP",
      "outputs": [
        {
          "internalType": "address",
          "name": "tpFrom",
          "type": "address"
        },
        {
          "internalType": "address",
          "name": "tpTo",
          "type": "address"
        },
        {
          "internalType": "uint256",
          "name": "qTP",
          "type": "uint256"
        },
        {
          "internalType": "uint256",
          "name": "qTPmin",
          "type": "uint256"
        },
        {
          "internalType": "uint256",
          "name": "qACmax",
          "type": "uint256"
        },
        {
          "internalType": "address",
          "name": "sender",
          "type": "address"
        },
        {
          "internalType": "address",
          "name": "recipient",
          "type": "address"
        },
        {
          "internalType": "address",
          "name": "vendor",
          "type": "address"
        }
      ],
      "stateMutability": "view",
      "type": "function"
    },
    {
      "inputs": [
        {
          "internalType": "uint256",
          "name": "",
          "type": "uint256"
        }
      ],
      "name": "opersInfo",
      "outputs": [
        {
          "internalType": "enum MocQueueExecFees.OperType",
          "name": "operType",
          "type": "uint8"
        },
        {
          "internalType": "uint248",
          "name": "queuedBlk",
          "type": "uint248"
        }
      ],
      "stateMutability": "view",
      "type": "function"
    },
    {
      "inputs": [],
      "name": "pause",
      "outputs": [],
      "stateMutability": "nonpayable",
      "type": "function"
    },
    {
      "inputs": [],
      "name": "paused",
      "outputs": [
        {
          "internalType": "bool",
          "name": "",
          "type": "bool"
        }
      ],
      "stateMutability": "view",
      "type": "function"
    },
    {
      "inputs": [],
      "name": "pauser",
      "outputs": [
        {
          "internalType": "address",
          "name": "",
          "type": "address"
        }
      ],
      "stateMutability": "view",
      "type": "function"
    },
    {
      "inputs": [],
      "name": "proxiableUUID",
      "outputs": [
        {
          "internalType": "bytes32",
          "name": "",
          "type": "bytes32"
        }
      ],
      "stateMutability": "view",
      "type": "function"
    },
    {
      "inputs": [
        {
          "components": [
            {
              "internalType": "uint256",
              "name": "qTC",
              "type": "uint256"
            },
            {
              "internalType": "uint256",
              "name": "qACmax",
              "type": "uint256"
            },
            {
              "internalType": "address",
              "name": "sender",
              "type": "address"
            },
            {
              "internalType": "address",
              "name": "recipient",
              "type": "address"
            },
            {
              "internalType": "address",
              "name": "vendor",
              "type": "address"
            }
          ],
          "internalType": "struct MocCore.MintTCParams",
          "name": "params",
          "type": "tuple"
        }
      ],
      "name": "queueMintTC",
      "outputs": [
        {
          "internalType": "uint256",
          "name": "operId",
          "type": "uint256"
        }
      ],
      "stateMutability": "payable",
      "type": "function"
    },
    {
      "inputs": [
        {
          "components": [
            {
              "internalType": "address",
              "name": "tp",
              "type": "address"
            },
            {
              "internalType": "uint256",
              "name": "qTP",
              "type": "uint256"
            },
            {
              "internalType": "uint256",
              "name": "qACmax",
              "type": "uint256"
            },
            {
              "internalType": "address",
              "name": "sender",
              "type": "address"
            },
            {
              "internalType": "address",
              "name": "recipient",
              "type": "address"
            },
            {
              "internalType": "address",
              "name": "vendor",
              "type": "address"
            }
          ],
          "internalType": "struct MocCommons.MintTCandTPParams",
          "name": "params",
          "type": "tuple"
        }
      ],
      "name": "queueMintTCandTP",
      "outputs": [
        {
          "internalType": "uint256",
          "name": "operId",
          "type": "uint256"
        }
      ],
      "stateMutability": "payable",
      "type": "function"
    },
    {
      "inputs": [
        {
          "components": [
            {
              "internalType": "address",
              "name": "tp",
              "type": "address"
            },
            {
              "internalType": "uint256",
              "name": "qTP",
              "type": "uint256"
            },
            {
              "internalType": "uint256",
              "name": "qACmax",
              "type": "uint256"
            },
            {
              "internalType": "address",
              "name": "sender",
              "type": "address"
            },
            {
              "internalType": "address",
              "name": "recipient",
              "type": "address"
            },
            {
              "internalType": "address",
              "name": "vendor",
              "type": "address"
            }
          ],
          "internalType": "struct MocCore.MintTPParams",
          "name": "params",
          "type": "tuple"
        }
      ],
      "name": "queueMintTP",
      "outputs": [
        {
          "internalType": "uint256",
          "name": "operId",
          "type": "uint256"
        }
      ],
      "stateMutability": "payable",
      "type": "function"
    },
    {
      "inputs": [
        {
          "components": [
            {
              "internalType": "uint256",
              "name": "qTC",
              "type": "uint256"
            },
            {
              "internalType": "uint256",
              "name": "qACmin",
              "type": "uint256"
            },
            {
              "internalType": "address",
              "name": "sender",
              "type": "address"
            },
            {
              "internalType": "address",
              "name": "recipient",
              "type": "address"
            },
            {
              "internalType": "address",
              "name": "vendor",
              "type": "address"
            }
          ],
          "internalType": "struct MocCore.RedeemTCParams",
          "name": "params",
          "type": "tuple"
        }
      ],
      "name": "queueRedeemTC",
      "outputs": [
        {
          "internalType": "uint256",
          "name": "operId",
          "type": "uint256"
        }
      ],
      "stateMutability": "payable",
      "type": "function"
    },
    {
      "inputs": [
        {
          "components": [
            {
              "internalType": "address",
              "name": "tp",
              "type": "address"
            },
            {
              "internalType": "uint256",
              "name": "qTC",
              "type": "uint256"
            },
            {
              "internalType": "uint256",
              "name": "qTP",
              "type": "uint256"
            },
            {
              "internalType": "uint256",
              "name": "qACmin",
              "type": "uint256"
            },
            {
              "internalType": "address",
              "name": "sender",
              "type": "address"
            },
            {
              "internalType": "address",
              "name": "recipient",
              "type": "address"
            },
            {
              "internalType": "address",
              "name": "vendor",
              "type": "address"
            }
          ],
          "internalType": "struct MocCommons.RedeemTCandTPParams",
          "name": "params",
          "type": "tuple"
        }
      ],
      "name": "queueRedeemTCandTP",
      "outputs": [
        {
          "internalType": "uint256",
          "name": "operId",
          "type": "uint256"
        }
      ],
      "stateMutability": "payable",
      "type": "function"
    },
    {
      "inputs": [
        {
          "components": [
            {
              "internalType": "address",
              "name": "tp",
              "type": "address"
            },
            {
              "internalType": "uint256",
              "name": "qTP",
              "type": "uint256"
            },
            {
              "internalType": "uint256",
              "name": "qACmin",
              "type": "uint256"
            },
            {
              "internalType": "address",
              "name": "sender",
              "type": "address"
            },
            {
              "internalType": "address",
              "name": "recipient",
              "type": "address"
            },
            {
              "internalType": "address",
              "name": "vendor",
              "type": "address"
            }
          ],
          "internalType": "struct MocCommons.RedeemTPParams",
          "name": "params",
          "type": "tuple"
        }
      ],
      "name": "queueRedeemTP",
      "outputs": [
        {
          "internalType": "uint256",
          "name": "operId",
          "type": "uint256"
        }
      ],
      "stateMutability": "payable",
      "type": "function"
    },
    {
      "inputs": [
        {
          "components": [
            {
              "internalType": "address",
              "name": "tp",
              "type": "address"
            },
            {
              "internalType": "uint256",
              "name": "qTC",
              "type": "uint256"
            },
            {
              "internalType": "uint256",
              "name": "qTPmin",
              "type": "uint256"
            },
            {
              "internalType": "uint256",
              "name": "qACmax",
              "type": "uint256"
            },
            {
              "internalType": "address",
              "name": "sender",
              "type": "address"
            },
            {
              "internalType": "address",
              "name": "recipient",
              "type": "address"
            },
            {
              "internalType": "address",
              "name": "vendor",
              "type": "address"
            }
          ],
          "internalType": "struct MocCommons.SwapTCforTPParams",
          "name": "params",
          "type": "tuple"
        }
      ],
      "name": "queueSwapTCforTP",
      "outputs": [
        {
          "internalType": "uint256",
          "name": "operId",
          "type": "uint256"
        }
      ],
      "stateMutability": "payable",
      "type": "function"
    },
    {
      "inputs": [
        {
          "components": [
            {
              "internalType": "address",
              "name": "tp",
              "type": "address"
            },
            {
              "internalType": "uint256",
              "name": "qTP",
              "type": "uint256"
            },
            {
              "internalType": "uint256",
              "name": "qTCmin",
              "type": "uint256"
            },
            {
              "internalType": "uint256",
              "name": "qACmax",
              "type": "uint256"
            },
            {
              "internalType": "address",
              "name": "sender",
              "type": "address"
            },
            {
              "internalType": "address",
              "name": "recipient",
              "type": "address"
            },
            {
              "internalType": "address",
              "name": "vendor",
              "type": "address"
            }
          ],
          "internalType": "struct MocCommons.SwapTPforTCParams",
          "name": "params",
          "type": "tuple"
        }
      ],
      "name": "queueSwapTPforTC",
      "outputs": [
        {
          "internalType": "uint256",
          "name": "operId",
          "type": "uint256"
        }
      ],
      "stateMutability": "payable",
      "type": "function"
    },
    {
      "inputs": [
        {
          "components": [
            {
              "internalType": "address",
              "name": "tpFrom",
              "type": "address"
            },
            {
              "internalType": "address",
              "name": "tpTo",
              "type": "address"
            },
            {
              "internalType": "uint256",
              "name": "qTP",
              "type": "uint256"
            },
            {
              "internalType": "uint256",
              "name": "qTPmin",
              "type": "uint256"
            },
            {
              "internalType": "uint256",
              "name": "qACmax",
              "type": "uint256"
            },
            {
              "internalType": "address",
              "name": "sender",
              "type": "address"
            },
            {
              "internalType": "address",
              "name": "recipient",
              "type": "address"
            },
            {
              "internalType": "address",
              "name": "vendor",
              "type": "address"
            }
          ],
          "internalType": "struct MocCommons.SwapTPforTPParams",
          "name": "params",
          "type": "tuple"
        }
      ],
      "name": "queueSwapTPforTP",
      "outputs": [
        {
          "internalType": "uint256",
          "name": "operId",
          "type": "uint256"
        }
      ],
      "stateMutability": "payable",
      "type": "function"
    },
    {
      "inputs": [],
      "name": "readyToExecute",
      "outputs": [
        {
          "internalType": "bool",
          "name": "",
          "type": "bool"
        }
      ],
      "stateMutability": "view",
      "type": "function"
    },
    {
      "inputs": [
        {
          "internalType": "contract MocOperations",
          "name": "bucket_",
          "type": "address"
        }
      ],
      "name": "registerBucket",
      "outputs": [],
      "stateMutability": "nonpayable",
      "type": "function"
    },
    {
      "inputs": [
        {
          "internalType": "bytes32",
          "name": "role",
          "type": "bytes32"
        },
        {
          "internalType": "address",
          "name": "account",
          "type": "address"
        }
      ],
      "name": "renounceRole",
      "outputs": [],
      "stateMutability": "nonpayable",
      "type": "function"
    },
    {
      "inputs": [
        {
          "internalType": "bytes32",
          "name": "role",
          "type": "bytes32"
        },
        {
          "internalType": "address",
          "name": "account",
          "type": "address"
        }
      ],
      "name": "revokeRole",
      "outputs": [],
      "stateMutability": "nonpayable",
      "type": "function"
    },
    {
      "inputs": [
        {
          "internalType": "uint128",
          "name": "maxOperPerBatch_",
          "type": "uint128"
        }
      ],
      "name": "setMaxOperPerBatch",
      "outputs": [],
      "stateMutability": "nonpayable",
      "type": "function"
    },
    {
      "inputs": [
        {
          "internalType": "uint128",
          "name": "minOperWaitingBlk_",
          "type": "uint128"
        }
      ],
      "name": "setMinOperWaitingBlk",
      "outputs": [],
      "stateMutability": "nonpayable",
      "type": "function"
    },
    {
      "inputs": [
        {
          "internalType": "address",
          "name": "newPauser_",
          "type": "address"
        }
      ],
      "name": "setPauser",
      "outputs": [],
      "stateMutability": "nonpayable",
      "type": "function"
    },
    {
      "inputs": [],
      "name": "stoppable",
      "outputs": [
        {
          "internalType": "bool",
          "name": "",
          "type": "bool"
        }
      ],
      "stateMutability": "view",
      "type": "function"
    },
    {
      "inputs": [
        {
          "internalType": "bytes4",
          "name": "interfaceId",
          "type": "bytes4"
        }
      ],
      "name": "supportsInterface",
      "outputs": [
        {
          "internalType": "bool",
          "name": "",
          "type": "bool"
        }
      ],
      "stateMutability": "view",
      "type": "function"
    },
    {
      "inputs": [],
      "name": "unpause",
      "outputs": [],
      "stateMutability": "nonpayable",
      "type": "function"
    },
    {
      "inputs": [
        {
          "components": [
            {
              "internalType": "uint256",
              "name": "tcMintExecFee",
              "type": "uint256"
            },
            {
              "internalType": "uint256",
              "name": "tcRedeemExecFee",
              "type": "uint256"
            },
            {
              "internalType": "uint256",
              "name": "tpMintExecFee",
              "type": "uint256"
            },
            {
              "internalType": "uint256",
              "name": "tpRedeemExecFee",
              "type": "uint256"
            },
            {
              "internalType": "uint256",
              "name": "swapTPforTPExecFee",
              "type": "uint256"
            },
            {
              "internalType": "uint256",
              "name": "swapTPforTCExecFee",
              "type": "uint256"
            },
            {
              "internalType": "uint256",
              "name": "swapTCforTPExecFee",
              "type": "uint256"
            },
            {
              "internalType": "uint256",
              "name": "redeemTCandTPExecFee",
              "type": "uint256"
            },
            {
              "internalType": "uint256",
              "name": "mintTCandTPExecFee",
              "type": "uint256"
            }
          ],
          "internalType": "struct MocQueueExecFees.InitializeMocQueueExecFeesParams",
          "name": "mocQueueExecFeesParams_",
          "type": "tuple"
        }
      ],
      "name": "updateExecutionFees",
      "outputs": [],
      "stateMutability": "nonpayable",
      "type": "function"
    },
    {
      "inputs": [
        {
          "internalType": "address",
          "name": "newImplementation",
          "type": "address"
        }
      ],
      "name": "upgradeTo",
      "outputs": [],
      "stateMutability": "nonpayable",
      "type": "function"
    },
    {
      "inputs": [
        {
          "internalType": "address",
          "name": "newImplementation",
          "type": "address"
        },
        {
          "internalType": "bytes",
          "name": "data",
          "type": "bytes"
        }
      ],
      "name": "upgradeToAndCall",
      "outputs": [],
      "stateMutability": "payable",
      "type": "function"
    },
    {
      "stateMutability": "payable",
      "type": "receive"
    }
  ],
  "bytecode": "0x60a08060405234620000e157306080526000549060ff8260081c166200008f575060ff8082160362000053575b604051614b669081620000e7823960805181818161106e015281816111dd01526122f80152f35b60ff90811916176000557f7f26b83ff96e1f2b6a682f133852f6798a09c465da95921460cefb3847402498602060405160ff8152a1386200002c565b62461bcd60e51b815260206004820152602760248201527f496e697469616c697a61626c653a20636f6e747261637420697320696e697469604482015266616c697a696e6760c81b6064820152608490fd5b600080fdfe6080604052600436101561001b575b361561001957600080fd5b005b60003560e01c8062c6e88e146127e957806301ffc9a7146127935780630c340a241461276a5780631826ebf0146127065780631a0c54401461269857806324524ea114612642578063248a9ca3146126125780632b994849146125f35780632d88af4a1461259e5780632f2ff15d1461256557806334975a41146123f357806336568abe1461235f5780633659cfe6146122c65780633bb4b05c146122835780633cbcf4c41461225e5780633f4ba83a14612169578063435c7e37146120df57806347d8496a1461200e5780634981d04e14611f675780634b5a9e3d14611f335780634b64e492146112405780634f1ef286146111565780635210570c1461113157806352d1902d1461105b5780635c817aa314610ff75780635c975abb14610fd15780635ee1d2bb14610f87578063681fe70c14610f635780636827435714610f3b5780636b59c22f14610e6a5780636b76333014610e0657806373e3d08614610de75780637c50b7e414610da35780637e81a82114610cd25780638456cb5914610c3c5780638a4737ab14610bdd5780638b20076c14610b7e5780638e7e818914610b5657806391d1485414610b035780639fd0506d14610ad6578063a217fddf14610aba578063ad16c2de14610a4c578063bb4872de14610a29578063bbe720d9146109b4578063c84d8bb6146108e3578063caeb12b6146108b9578063d547741f14610880578063db901477146105da578063dbb0b684146105b8578063e4c0aaf414610572578063e4e1b729146104a1578063e97a4d63146103d0578063fa91a9a5146102d95763fb8aafb80361000e57346102d45760203660031901126102d457600435600052610262602052604060002060018060a01b036102d081835416916001840154936002810154918060038301541690600581600485015416930154169260405196879687612969565b0390f35b600080fd5b60a03660031901126102d4576102ed612f5f565b610304600080516020614b118339815191526145f0565b61031a61031460026101f76128fd565b546149ee565b61025d80546040519161032e604084612915565b60028352602083019260018060f81b03431684528260005261026860205260406000209051600a8110156103ba5760ff6020958119905160081b16911617905581600052610261835261038660046040600020614558565b604051828152600284820152600080516020614af183398151915260403392a26103b081546145cb565b9055604051908152f35b634e487b7160e01b600052602160045260246000fd5b60a03660031901126102d4576103e4612f5f565b6103fb600080516020614b118339815191526145f0565b61040b61031460016101f76128fd565b61025d80546040519161041f604084612915565b60018352602083019260018060f81b03431684528260005261026860205260406000209051600a8110156103ba5760ff6020958119905160081b1691161790558160005261025f835261047760046040600020614558565b604051828152600184820152600080516020614af183398151915260403392a26103b081546145cb565b60e03660031901126102d4576104b5612f5f565b6104cc600080516020614b118339815191526145f0565b6104dc61031460066101f76128fd565b61025d8054604051916104f0604084612915565b60068352602083019260018060f81b03431684528260005261026860205260406000209051600a8110156103ba5760ff6020958119905160081b16911617905581600052610264835261054860046040600020614891565b604051828152600684820152600080516020614af183398151915260403392a26103b081546145cb565b346102d45760203660031901126102d4576004356001600160a01b038116908190036102d4576105a0612eec565b6001600160601b0360a01b6097541617609755600080f35b346102d45760003660031901126102d45760206102695460801c604051908152f35b346102d4576101a03660031901126102d4576001600160a01b03600435818116908190036102d45760243591821682036102d4576044356001600160801b03928382168092036102d45760643593841684036102d4576101203660831901126102d4576000549260ff8460081c161593848095610873575b801561085c575b15610800576106f092600191868360ff198316176000556107ee575b5060ff60005460081c169261068984612f80565b61069284612f80565b61069b84612f80565b6106a484612f80565b6106ad84612f80565b6001600160601b0360a01b60975416176097556106c983612f80565b60ca5490620100008360b01b039060101b169061ff018360b01b031916171760ca55612f80565b6101f76084356107016001836128fd565b5560a4356107106002836128fd565b5560c43561071f6003836128fd565b5560e43561072e6004836128fd565b556101043561073e6009836128fd565b556101243561074e6008836128fd565b556101443561075e6007836128fd565b556101643561076e6006836128fd565b5561077e600561018435926128fd565b556000549261079b60ff8560081c1661079681612f80565b612f80565b600161022a5560801b6001600160801b03191617610269556107b957005b61ff0019166000557f7f26b83ff96e1f2b6a682f133852f6798a09c465da95921460cefb3847402498602060405160018152a1005b61ffff19166101011760005587610675565b60405162461bcd60e51b815260206004820152602e60248201527f496e697469616c697a61626c653a20636f6e747261637420697320616c72656160448201526d191e481a5b9a5d1a585b1a5e995960921b6064820152608490fd5b50303b1580156106595750600160ff821614610659565b50600160ff821610610652565b346102d45760403660031901126102d4576004356024356001600160a01b03811681036102d457816108b4610019936149f8565b6129a3565b346102d45760003660031901126102d45761025c546040516001600160a01b039091168152602090f35b60c03660031901126102d4576108f7612f5f565b61090e600080516020614b118339815191526145f0565b61091e61031460046101f76128fd565b61025d805460405191610932604084612915565b60048352602083019260018060f81b03431684528260005261026860205260406000209051600a8110156103ba5760ff6020958119905160081b16911617905581600052610262835261098a60046040600020614826565b604051828152600484820152600080516020614af183398151915260403392a26103b081546145cb565b346102d45760203660031901126102d4576001600160a01b03600435818116908190036102d4576109e3612eec565b61025c8054928316610a175781610019936001600160601b0360a01b16179055600080516020614b1183398151915261496c565b604051630a646b7760e41b8152600490fd5b346102d45760003660031901126102d457602060ff60ca54166040519015158152f35b346102d45760203660031901126102d4576004803560009081526102616020908152604091829020805460018201546002830154600384015493909601548551928352938201526001600160a01b03948516938101939093528316606083015291909116608082015260a090f35b346102d45760003660031901126102d457602060405160008152f35b346102d45760003660031901126102d45760ca5460405160109190911c6001600160a01b03168152602090f35b346102d45760403660031901126102d4576024356001600160a01b038116908190036102d457600435600052610193602052604060002090600052602052602060ff604060002054166040519015158152f35b346102d45760003660031901126102d45760206001600160801b036102695416604051908152f35b346102d45760203660031901126102d457600435600052610263602052604060002060018060a01b036102d081835416916001840154936002810154918060038301541690600581600485015416930154169260405196879687612969565b346102d45760203660031901126102d457600435600052610260602052604060002060018060a01b036102d081835416916001840154936002810154918060038301541690600581600485015416930154169260405196879687612969565b346102d45760003660031901126102d457610c55612f5f565b60ca54601081901c6001600160a01b03163303610cc05760ff811615610cae576101009061ff0019161760ca557f62e78cea01bee320cd4e420270b5ea74000d11b0c9f74754ebdbfc544b05a2586020604051338152a1005b60405163866099c360e01b8152600490fd5b604051631d77d47760e21b8152600490fd5b60c03660031901126102d457610ce6612f5f565b610cfd600080516020614b118339815191526145f0565b610d0d61031460036101f76128fd565b61025d805460405191610d21604084612915565b60038352602083019260018060f81b03431684528260005261026860205260406000209051600a8110156103ba5760ff6020958119905160081b169116179055816000526102608352610d7960046040600020614826565b604051828152600384820152600080516020614af183398151915260403392a26103b081546145cb565b346102d45760203660031901126102d45760043560005261026860205260406000205460ff81169060405190600a8310156103ba57604092825260081c6020820152f35b346102d45760003660031901126102d457602061025d54604051908152f35b346102d45760203660031901126102d457600435600052610264602052604060002060018060a01b036102d08183541691600184015493600281015491600382015481600484015416916006816005860154169401541693604051978897886128ba565b60e03660031901126102d457610e7e612f5f565b610e95600080516020614b118339815191526145f0565b610ea561031460076101f76128fd565b61025d805460405191610eb9604084612915565b60078352602083019260018060f81b03431684528260005261026860205260406000209051600a8110156103ba5760ff6020958119905160081b169116179055816000526102658352610f1160046040600020614891565b604051828152600784820152600080516020614af183398151915260403392a26103b081546145cb565b346102d45760003660031901126102d457610f54612eec565b60ca805460ff19166001179055005b346102d45760003660031901126102d457602061025e5461025d5414604051908152f35b346102d45760203660031901126102d4576001600160801b0360043581811681036102d457610fb4612eec565b610269805490921660809190911b6001600160801b031916179055005b346102d45760003660031901126102d457602060ff60ca5460081c166040519015158152f35b346102d45760203660031901126102d457600435600052610266602052604060002060018060a01b036102d08183541691600184015493600281015491600382015481600484015416916006816005860154169401541693604051978897886128ba565b346102d45760003660031901126102d4577f00000000000000000000000000000000000000000000000000000000000000006001600160a01b031630036110c65760206040517f360894a13ba1a3210667c828492db98dca3e2076cc3735a920a3ca505d382bbc8152f35b60405162461bcd60e51b815260206004820152603860248201527f555550535570677261646561626c653a206d757374206e6f742062652063616c60448201527f6c6564207468726f7567682064656c656761746563616c6c00000000000000006064820152608490fd5b346102d45760003660031901126102d45761114a612eec565b60ca805460ff19169055005b60403660031901126102d4576001600160a01b0360043581811681036102d45760243567ffffffffffffffff81116102d457366023820112156102d4578060040135916111a28361294d565b916111b06040519384612915565b83835236602485830101116102d457610019946000602086600197602461123396018389013786010152807f0000000000000000000000000000000000000000000000000000000000000000169061120a82301415612a22565b7f360894a13ba1a3210667c828492db98dca3e2076cc3735a920a3ca505d382bbc541614612a83565b61123b612eec565b612ae4565b346102d45760203660031901126102d4576004356001600160a01b03811690036102d45761126c612f5f565b600261022a5414611eee57600261022a5561025e54600061025d5461026954908160801c8401808210600014611ee35750909291925b8183106112fe575b505061025e55806112be575b600161022a55005b4781116112f7575b6000808080936004355af16112d9612dbf565b50156112e557806112b6565b604051638f58940960e01b8152600490fd5b50476112c6565b909160009060009181600052610268602052604060002060405190611324604083612915565b5461133260ff821683612fe0565b60081c8060208301526001600160801b0386164303106000146113b7575060009250829050805b6113a1575b1561139a5780600191337fb207e6b6b26274f3764b879e578b4539b8e37f41dff43932ddc87b3e04090974600080a301930191909291926112a2565b92506112aa565b816000526102686020526000604081205561135e565b8051600a8110156103ba5760010361168657505080915060005261025f6020526113e46040600020612fec565b61025c80546040805163235e81cf60e01b81528451600482015260208501516024820152908401516001600160a01b0390811660448301526060850151811660648301526080850151811660848301529091600091168260a48160c09485945af1600092839282611651575b50506115d5575050611460612dbf565b6114698161309b565b906001600160e01b03198216630b63f1a760e01b81036115705750506114a5600080516020614ab1833981519152916040519182918783613108565b0390a15b5460408201516020909201516001600160a01b039182169290911690823b156102d4576040516358f32de960e01b81526001600160a01b039290921660048301526024820152906000908290604490829084905af1801561156457611553575b505b8060005261025f60205261153b604060002060046000918281558260018201558260028201558260038201550155565b6001908161154c60016101f76128fd565b5492611359565b600061155e91612915565b84611509565b6040513d6000823e3d90fd5b637912120160e01b036115a6575061159e600080516020614ab18339815191529160405191829187836130cc565b0390a16114a9565b600080516020614ad1833981519152915061159e90604051918291878352604060208401526040830190612eaf565b7f5090a820029acae4d47b64da9af62ce04a5a1bdb546934e5fcfe091ee1f780ee91925060018060a01b036040850151169261164986606060018060a01b03818901511697805194805192602082015190604083015192015192608060018060a01b0391015116936040519889988961314d565b0390a361150b565b80919294506116759350903d1061167f575b61166d8183612915565b810190613078565b9290508980611450565b503d611663565b8051600a8110156103ba5760020361198f5750508091506000526102616020526116b36040600020612fec565b61025c80546040805163bfe4262160e01b81528451600482015260208501516024820152908401516001600160a01b0390811660448301526060850151811660648301526080850151811660848301529091600091168260a48160c09485945af160009283928261196a575b50506118ee57505061172f612dbf565b6117388161309b565b6001600160e01b031981169163a5db715d60e01b830361185757505060a0600080516020614ab183398151915291604051908682526020820152601960608060408401528201527f496e73756666696369656e7420746320746f2072656465656d000000000000006080820152a15b54604082015191516001600160a01b039182169290911690823b156102d4576040516353b16d1760e01b81526001600160a01b039290921660048301526024820152906000908290604490829084905af1801561156457611846575b505b80600052610261602052611835604060002060046000918281558260018201558260028201558260038201550155565b6001908161154c60026101f76128fd565b600061185191612915565b84611803565b90916354cde31360e01b8103611891575050611889600080516020614ab183398151915291604051918291878361318c565b0390a16117a7565b637912120160e01b036118bf5750611889600080516020614ab18339815191529160405191829187836130cc565b600080516020614ad1833981519152915061188990604051918291878352604060208401526040830190612eaf565b7f7e7043742f69701e6292386d468d710f2d6e44bf93232a1e52f1641e50a9de1291925060018060a01b036040850151169261196286606060018060a01b03818901511697805194805192602082015190604083015192015192608060018060a01b0391015116936040519889988961314d565b0390a3611805565b80919294506119859350903d1061167f5761166d8183612915565b929050898061171f565b8051600a8110156103ba576003036119bd57505090506119ae816132d2565b908161154c60036101f76128fd565b8051600a8110156103ba576004036119eb57505090506119dc816135db565b908161154c60046101f76128fd565b8051600a8110156103ba57600503611a195750509050611a0a8161384a565b908161154c60056101f76128fd565b8051600a8110156103ba57600603611a475750509050611a3881613bde565b908161154c60066101f76128fd565b8051600a8110156103ba57600703611a755750509050611a6681613fac565b908161154c60076101f76128fd565b8051600a8110156103ba57600803611aa35750509050611a948161428e565b908161154c60086101f76128fd565b51600a8110156103ba57600914611abb575b80611359565b5080915060005261026760205260006040812060405190611ade61010083612915565b80546001600160a01b039081168352600182015481166020840190815260028301546040808601918252600385015460608701908152600480870154608089019081526005880154871660a08a019081526006890154881660c08b01908152600790990154881660e0808c0191825261025c54965163391bf6cf60e01b81528c518b169581019590955297518916602485015295516044840152925160648301525160848201529051851660a48201529451841660c48601529051831660e48501529294909285926101049284929091165af19182600091600094611eac575b50611df657509050611bce612dbf565b611bd78161309b565b906001600160e01b03198216630b63f1a760e01b8103611d61575050611c13600080516020614ab1833981519152916040519182918683613108565b0390a15b61025c5460a0820151825160408401516001600160a01b039182169392821692909116803b156102d457604051630e2c5e9960e41b81526001600160a01b03938416600482015293909216602484015260448301526000908290606490829084905af1801561156457611d50575b5061025c5460a08201516080909201516001600160a01b039182169290911690823b156102d4576040516358f32de960e01b81526001600160a01b039290921660048301526024820152906000908290604490829084905af1801561156457611d3f575b505b806000526102676020526000600760408220828155826001820155826002820155826003820155826004820155826005820155826006820155015560019081611d3760096101f76128fd565b549250611ab5565b6000611d4a91612915565b84611ce9565b6000611d5b91612915565b85611c85565b63272e3f5960e21b8103611d99575050611d91600080516020614ab1833981519152916040519182918683613f5f565b0390a1611c17565b637912120160e01b03611dc75750611d91600080516020614ab18339815191529160405191829186836130cc565b600080516020614ad18339815191529150611d9190604051918291868352604060208401526040830190612eaf565b7ff86f4487d2c5541b78f06d2368e28e0f4052e182124def54d5855bf2a01d325861012060018060a01b038451169260018060a01b036020860151169060018060a01b0360a0870151169560018060a01b0360c082015116976040820151928151602083015191606060408501519401519460e060018060a01b039101511695604051978852602088015260408701526060860152608085015260a084015260c083015260e082015286610100820152a4611ceb565b909350611ed1915060e03d60e011611edc575b611ec98183612915565b810190613826565b925050909288611bbe565b503d611ebf565b9050909291926112a2565b60405162461bcd60e51b815260206004820152601f60248201527f5265656e7472616e637947756172643a207265656e7472616e742063616c6c006044820152606490fd5b346102d45760203660031901126102d457600435600a8110156102d457611f5e6020916101f76128fd565b54604051908152f35b346102d4576101203660031901126102d457611f81612eec565b6101f7600435611f926001836128fd565b55602435611fa16002836128fd565b55604435611fb06003836128fd565b55606435611fbf6004836128fd565b55608435611fce6009836128fd565b5560a435611fdd6008836128fd565b5560c435611fec6007836128fd565b5560e435611ffb6006836128fd565b5561200b600561010435926128fd565b55005b60c03660031901126102d457612022612f5f565b612039600080516020614b118339815191526145f0565b61204961031460056101f76128fd565b61025d80546040519161205d604084612915565b60058352602083019260018060f81b03431684528260005261026860205260406000209051600a8110156103ba5760ff6020958119905160081b1691161790558160005261026383526120b560046040600020614826565b604051828152600584820152600080516020614af183398151915260403392a26103b081546145cb565b346102d45760203660031901126102d457600435600052610267602052610100604060002060018060a01b03808254169181600182015416916002820154600383015460048401549183600586015416936007816006880154169601541695604051978852602088015260408701526060860152608085015260a084015260c083015260e0820152f35b346102d45760003660031901126102d45760ca5460ff8160081c161561224c5760018060a01b03808260101c1633141590816121e2575b50610cc05760ff811615610cae5761ff00191660ca557f5db9ee0a495bf2e6ff9c91a7834c1ba4fdd244a5e8aa4e537bd38aeae4b073aa6020604051338152a1005b60975460405163d994d6d560e01b8152336004820152925060209183916024918391165afa9081156115645760009161221e575b5015826121a0565b61223f915060203d8111612245575b6122378183612915565b810190612ed4565b82612216565b503d61222d565b604051637c7fd07960e01b8152600490fd5b346102d45760003660031901126102d4576020612279614907565b6040519015158152f35b346102d45760203660031901126102d4576004356001600160801b0381168091036102d4576122b0612eec565b61026980546001600160801b0319169091179055005b346102d45760203660031901126102d4576004356001600160a01b0380821682036102d45761001991612325826000937f0000000000000000000000000000000000000000000000000000000000000000169061120a82301415612a22565b61232d612eec565b6123368261294d565b906123446040519283612915565b828252601f196123538461294d565b01366020840137612ae4565b346102d45760403660031901126102d4576024356001600160a01b0381168082036102d457330361239657610019906004356129a3565b60405162461bcd60e51b815260206004820152602f60248201527f416363657373436f6e74726f6c3a2063616e206f6e6c792072656e6f756e636560448201526e103937b632b9903337b91039b2b63360891b6064820152608490fd5b6101003660031901126102d457612408612f5f565b61241f600080516020614b118339815191526145f0565b61242f61031460096101f76128fd565b61025d8054604051612442604082612915565b600981526020810160018060f81b0343168152826000526102686020526040600020915190600a8210156103ba575160ff9190911660089190911b60ff19161790556000818152610267602052604090206001600160a01b036004358181169492908590036102d4576001600160601b0360a01b9485825416178155600181016024358381168091036102d457868254161790556044356002820155606435600382015560843560048201556005810160a4358381168091036102d45786825416179055600681019060c435918383168093036102d45760079287825416179055019060e4359081168091036102d457602094825416179055604051828152600984820152600080516020614af183398151915260403392a26103b081546145cb565b346102d45760403660031901126102d4576004356024356001600160a01b03811681036102d45781612599610019936149f8565b61496c565b346102d45760203660031901126102d4576004356001600160a01b03811681036102d4576125ca612eec565b60ca805462010000600160b01b03191660109290921b62010000600160b01b0316919091179055005b346102d45760003660031901126102d457602061025e54604051908152f35b346102d45760203660031901126102d4576004356000526101936020526020600160406000200154604051908152f35b346102d45760403660031901126102d457600435600a8110156102d45761266b906101f76128fd565b54602435811161268057602090604051908152f35b6024906040519063049e6f6960e41b82526004820152fd5b346102d45760203660031901126102d45760048035600090815261025f6020908152604091829020805460018201546002830154600384015493909601548551928352938201526001600160a01b03948516938101939093528316606083015291909116608082015260a090f35b346102d45760203660031901126102d457600435600052610265602052604060002060018060a01b036102d08183541691600184015493600281015491600382015481600484015416916006816005860154169401541693604051978897886128ba565b346102d45760003660031901126102d4576097546040516001600160a01b039091168152602090f35b346102d45760203660031901126102d45760043563ffffffff60e01b81168091036102d457602090637965db0b60e01b81149081156127d8575b506040519015158152f35b6301ffc9a760e01b149050826127cd565b60e03660031901126102d4576127fd612f5f565b612814600080516020614b118339815191526145f0565b61282461031460086101f76128fd565b61025d805460405191612838604084612915565b60088352602083019260018060f81b03431684528260005261026860205260406000209051600a8110156103ba5760ff6020958119905160081b16911617905581600052610266835261289060046040600020614891565b604051828152600884820152600080516020614af183398151915260403392a26103b081546145cb565b6001600160a01b039182168152602081019290925260408201929092526060810192909252918216608082015291811660a083015290911660c082015260e00190565b90600a8110156103ba57600052602052604060002090565b90601f8019910116810190811067ffffffffffffffff82111761293757604052565b634e487b7160e01b600052604160045260246000fd5b67ffffffffffffffff811161293757601f01601f191660200190565b6001600160a01b0391821681526020810192909252604082019290925291811660608301529182166080820152911660a082015260c00190565b9060009180835261019380602052604084209260018060a01b03169283855260205260ff6040852054166129d8575b50505050565b818452602052604083208284526020526040832060ff1981541690557ff6391f5c32d9c69d2a47ea670b442974b53935d1edc7fd64eb21e047a839171b339380a4388080806129d2565b15612a2957565b60405162461bcd60e51b815260206004820152602c60248201527f46756e6374696f6e206d7573742062652063616c6c6564207468726f7567682060448201526b19195b1959d85d1958d85b1b60a21b6064820152608490fd5b15612a8a57565b60405162461bcd60e51b815260206004820152602c60248201527f46756e6374696f6e206d7573742062652063616c6c6564207468726f7567682060448201526b6163746976652070726f787960a01b6064820152608490fd5b9060ff7f4910fdfa16fed3260ed0e7147f7cc6da11a60208b5b9406d12a635614ffd91435416600014612b1e5750612b1c9150612d1d565b565b6040516352d1902d60e01b8152602093919291906001600160a01b038316908581600481855afa60009181612ceb575b50612baf5760405162461bcd60e51b815260048101879052602e60248201527f45524331393637557067726164653a206e657720696d706c656d656e7461746960448201526d6f6e206973206e6f74205555505360901b6064820152608490fd5b9394937fc9f76b5ec45e5cdef99837d7b6d2467235c1df8933c8ca56df5c35afa2c7d44401612c9457612be183612d1d565b7fbc7cd75a20ee27fd9adebab32041f755214dbc6bffa90cc0225b39da2e5c2d3b600080a283511590811591612c8c575b50612c1c57505050565b600080612c8994612c2d602761294d565b94612c3b6040519687612915565b602786527f416464726573733a206c6f772d6c6576656c2064656c65676174652063616c6c81870152660819985a5b195960ca1b604087015281519101845af4612c83612dbf565b91612def565b50565b905038612c12565b60405162461bcd60e51b815260048101859052602960248201527f45524331393637557067726164653a20756e737570706f727465642070726f786044820152681a58589b195555525160ba1b6064820152608490fd5b90918782813d8311612d16575b612d028183612915565b81010312612d135750519038612b4e565b80fd5b503d612cf8565b803b15612d64577f360894a13ba1a3210667c828492db98dca3e2076cc3735a920a3ca505d382bbc80546001600160a01b0319166001600160a01b03909216919091179055565b60405162461bcd60e51b815260206004820152602d60248201527f455243313936373a206e657720696d706c656d656e746174696f6e206973206e60448201526c1bdd08184818dbdb9d1c9858dd609a1b6064820152608490fd5b3d15612dea573d90612dd08261294d565b91612dde6040519384612915565b82523d6000602084013e565b606090565b91929015612e515750815115612e03575090565b3b15612e0c5790565b60405162461bcd60e51b815260206004820152601d60248201527f416464726573733a2063616c6c20746f206e6f6e2d636f6e74726163740000006044820152606490fd5b825190915015612e645750805190602001fd5b60405162461bcd60e51b815260206004820152908190612e88906024830190612eaf565b0390fd5b60005b838110612e9f5750506000910152565b8181015183820152602001612e8f565b90602091612ec881518092818552858086019101612e8c565b601f01601f1916010190565b908160209103126102d4575180151581036102d45790565b60975460405163d994d6d560e01b815233600482015290602090829060249082906001600160a01b03165afa90811561156457600091612f41575b5015612f2f57565b604051631dd1b1b560e21b8152600490fd5b612f59915060203d8111612245576122378183612915565b38612f27565b60ff60ca5460081c16612f6e57565b60405163783bb6c960e11b8152600490fd5b15612f8757565b60405162461bcd60e51b815260206004820152602b60248201527f496e697469616c697a61626c653a20636f6e7472616374206973206e6f74206960448201526a6e697469616c697a696e6760a81b6064820152608490fd5b600a8210156103ba5752565b90604051612ffb60a082612915565b825481526001830154602082015260028301546001600160a01b0390811660408301526003840154811660608301526004909301549092166080830152565b91908260809103126102d457604051613054608082612915565b60608082948051845260208101516020850152604081015160408501520151910152565b909160c0828403126102d45761309882519360406020850151940161303a565b90565b906020825192015163ffffffff60e01b9081811693600481106130bd57505050565b60040360031b82901b16169150565b909160a092825263ffffffff60e01b16602082015260606040820152600c60608201526b4c6f7720636f76657261676560a01b60808201520190565b909160a092825263ffffffff60e01b166020820152606060408201526015606082015274125b9cdd59999a58da595b9d081c5858c81cd95b9d605a1b60808201520190565b94919260e0969399989794919961010087019a8752602087015260408601526060850152608084015260a083015260018060a01b031660c08201520152565b909160a092825263ffffffff60e01b16602082015260606040820152601a60608201527f7141432062656c6f77206d696e696d756d20726571756972656400000000000060808201520190565b906040516131e860c082612915565b82546001600160a01b039081168252600184015460208301526002840154604083015260038401548116606083015260048401548116608083015260059093015490921660a0830152565b60a09081600180821b03918281511685526020810151602086015260408101516040860152826060820151166060860152826080820151166080860152015116910152565b909160c092825263ffffffff60e01b16602082015260606040820152602460608201527f4d617820666c757820636170616369746f72206f7065726174696f6e2072656160808201526318da195960e21b60a08201520190565b9060008281526102609260209084825260406132ef8185206131d9565b61025c80548351635a21a61960e11b81526001600160a01b039992969160c090829060c49082908c908f16613327600484018b613233565b5af1908189918a936135b7575b5061353e575050613343612dbf565b9861334d8a61309b565b966001600160e01b031988166306da41e560e11b810361339457505050505050600080516020614ab18339815191529394955061338e905192839283613278565b0390a190565b869998839598969c63c39b739f60e09996991b83146000146134ad57505060a0600080516020614ab18339815191529185519088825289820152606086820152601760608201527f496e73756666696369656e7420747020746f206d696e740000000000000000006080820152a15b54169160608a01511698015197813b156134a95786516358f32de960e01b81526001600160a01b039091166004820152602481019890985284908890818381604481015b03925af196871561349f57613486969761348b575b505b8352522060056000918281558260018201558260028201558260038201558260048201550155565b600190565b8461349891959295612915565b923861345c565b85513d86823e3d90fd5b8580fd5b9091630b63f1a760e01b81036134e65750506134de600080516020614ab18339815191529185519182918983613108565b0390a1613403565b637912120160e01b0361351357506134de600080516020614ab183398151915291855191829189836130cc565b600080516020614ad183398151915291506134de908551918291898352878b84015287830190612eaf565b8492959897507f125247fdf990b9b419d4b4f895b1bb75bc485e3f8b813cf5557a4a12a56d054d908b6134869b9c939598965116926135af878c836060890151169784608082015116998c820151958d8251908301519160a06060878601519501519501511694519889988961314d565b0390a461345e565b9092506135d2915060c03d811161167f5761166d8183612915565b92905038613334565b90600082815261026260209381855260406135f78185206131d9565b61025c8054835163ad4e666d60e01b81526001600160a01b03999296939160c090829060c49082908c908f166136306004840189613233565b5af1908189918a93613802575b5061379157505061364c612dbf565b956136568761309b565b966001600160e01b031988166306da41e560e11b810361369757505050505050600080516020614ab18339815191529394955061338e905192839283613278565b908b9394969998916354cde31360e09997991b81146000146137315750506136d4600080516020614ab1833981519152918a51918291888361318c565b0390a15b54169083896060830151169982511691015198823b1561372d578751630e2c5e9960e41b81526001600160a01b0391821660048201529116602482015260448101989098528490889081838160648101613447565b8680fd5b637912120160e01b03613766575061375e600080516020614ab1833981519152918a5191829188836130cc565b0390a16136d8565b600080516020614ad1833981519152915061375e908a519182918883528c8a8401528c830190612eaf565b8a9193959897507f625b9fc283a619f53beb817d79b8ab044d60e307fd2af4bb89fa5e9a24ce4ebc906134869a9b849896985116926135af878c836060890151169784608082015116998c820151958d8251908301519160a06060878601519501519501511694519889988961314d565b90925061381d915060c03d811161167f5761166d8183612915565b9290503861363d565b60e0818303126102d45780519261309860208301519360606040850151940161303a565b906000828152610263806020526040936138658584206131d9565b9460018060a01b039561025c938560e08987541660c486518094819363883d21cb861b8352613897600484018a613233565b5af187918291829181613ac1575b50613a46575050506138b5612dbf565b976138bf8961309b565b956001600160e01b031987166306da41e560e11b81036138ff575050505050600080516020614ab18339815191529394955061338e905192839283613278565b9682949a869998630b63f1a760e0999896991b81146000146139e557505061393c600080516020614ab18339815191529185519182918983613108565b0390a15b54169160608901511697015196813b156139e15785516358f32de960e01b81526001600160a01b03919091166004820152602481019790975283908790604490829084905af19586156139d75761348695966139c3575b505b82526020522060056000918281558260018201558260028201558260038201558260048201550155565b836139d091949294612915565b9138613997565b84513d85823e3d90fd5b8480fd5b637912120160e01b03613a1a5750613a12600080516020614ab183398151915291855191829189836130cc565b0390a1613940565b600080516020614ad18339815191529150613a1290855191829189835287602084015287830190612eaf565b85989750907f03e9e02a94d7486426fcf2b05a27e911b8d1b61e2e1dcf103785512f46c8476491613ab98887959699988e6134869e9f9951169689606082015116988a6080830151169a60208301519782519060208401519260a0606088870151960151960151169551998a998a613ae6565b0390a4613999565b91509250613add915060e03d8111611edc57611ec98183612915565b939050386138a5565b95926101009794919a9998959261012088019b8852602088015260408701526060860152608085015260a084015260c083015260018060a01b031660e08201520152565b90604051613b3960e082612915565b82546001600160a01b0390811682526001840154602083015260028401546040830152600384015460608301526004840154811660808301526005840154811660a083015260069093015490921660c0830152565b60c0908160018060a01b03918281511685526020810151602086015260408101516040860152606081015160608601528260808201511660808601528260a08201511660a0860152015116910152565b906000828152610264602090808252604090613bfb828520613b2a565b61025c80548451633631a6bb60e21b81526001600160a01b039693929160e090829060e49082908c908c16613c33600484018a613b8e565b5af19088828a928b94613f37575b50613ebd57505050613c51612dbf565b95613c5b8761309b565b966001600160e01b03198816906306da41e560e11b8203613c9d57505050505050509361338e600080516020614ab18339815191529394955192839283613278565b637a031da360e19a99929394959697989a1b8314600014613e2c57505060a0600080516020614ab1833981519152918951908c82528782015260608a8201526014606082015273125b9cdd59999a58da595b9d081d1c081cd95b9d60621b6080820152a15b808254169160808401928284511690838651168a87015192823b15613e28578b51630e2c5e9960e41b81526001600160a01b03918216600482015291166024820152604481019290925288908290606490829084905af18015613e1e57613e06575b5090808592541692511692015191813b156134a95786516353b16d1760e01b81526001600160a01b039091166004820152602481019290925284908290818381604481015b03925af1801561349f57613ded575b5061348694955b8352522060066000918281558260018201558260028201558260038201558260048201558260058201550155565b613df8848092612915565b613e025738613db8565b8280fd5b9187613e158293998895612915565b97919250613d64565b89513d8a823e3d90fd5b8a80fd5b90916354cde31360e01b8103613e65575050613e5d600080516020614ab18339815191529189519182918d8361318c565b0390a1613d02565b637912120160e01b03613e925750613e5d600080516020614ab18339815191529189519182918d836130cc565b600080516020614ad18339815191529150613e5d9089519182918d83528b898401528b830190612eaf565b84929350907f4d33a2f9c4f66a101333f7ca2ab718582e763c941ff6fc304d2d4408d43a828491613f2f8d8a6134869e9f999a9b9d9c809951169689608082015116988a60a0830151169a8d80840151978351918401519260c0606088870151960151960151169551998a998a613ae6565b0390a4613dbf565b91509250613f53915060e03d8111611edc57611ec98183612915565b92905090919238613c41565b909160a092825263ffffffff60e01b16602082015260606040820152601a60608201527f7154702062656c6f77206d696e696d756d20726571756972656400000000000060808201520190565b906000828152610265602090808252604090613fc9828520613b2a565b61025c805484516312bce9bf60e21b81526001600160a01b039693929160e090829060e49082908c908c16614001600484018a613b8e565b5af1908189918a93614268575b506141f757505061401d612dbf565b956140278761309b565b966001600160e01b031988166306da41e560e11b810361406857505050505050509361338e600080516020614ab18339815191529394955192839283613278565b630b63f1a760e09a999394959697989a1b81146000146141685750506140a3600080516020614ab18339815191529189519182918d83613108565b0390a15b8082541691608084019282845116908686015191813b15614164578a516353b16d1760e01b81526001600160a01b039091166004820152602481019290925288908290818381604481015b03925af18015613e1e5761414b575b509080606092541692511692015191813b156134a95786516358f32de960e01b81526001600160a01b03909116600482015260248101929092528490829081838160448101613da9565b918761415b829399606095612915565b97919250614101565b8980fd5b63272e3f5960e21b810361419f575050614197600080516020614ab18339815191529189519182918d83613f5f565b0390a16140a7565b637912120160e01b036141cc5750614197600080516020614ab18339815191529189519182918d836130cc565b600080516020614ad183398151915291506141979089519182918d83528b898401528b830190612eaf565b8392507ff8dcb57698d7067da58ab71c48cd2e3b329b69e7e9853f88630c2c69c2557c7890886134869b9c9697989a999395511692613f2f878c83608089015116978460a082015116998c820151958d8251908301519160c06060878601519501519501511694519889988961314d565b909250614283915060e03d8111611edc57611ec98183612915565b92505090913861400e565b9060008281526102666020908082526040906142ab828520613b2a565b61025c80548451635e272ad960e11b81526001600160a01b039693929160e090829060e49082908c908c166142e3600484018a613b8e565b5af1908189918a9361451e575b506144ad5750506142ff612dbf565b956143098761309b565b966001600160e01b03198816906306da41e560e11b820361434b57505050505050509361338e600080516020614ab18339815191529394955192839283613278565b630b63f1a760e09a99929394959697989a1b83146000146143e65750600080516020614ab183398151915291506143889089519182918d83613108565b0390a15b808254169160808401928284511690838651168787015192823b15613e28578b51630e2c5e9960e41b81526001600160a01b03918216600482015291166024820152604481019290925288908290818381606481016140f2565b63f577bef560e01b830361444b57505060a0600080516020614ab1833981519152918951908c82528782015260608a820152601a60608201527f7154632062656c6f77206d696e696d756d2072657175697265640000000000006080820152a161438c565b9091637912120160e01b03614482575061447a600080516020614ab18339815191529189519182918d836130cc565b0390a161438c565b600080516020614ad1833981519152915061447a9089519182918d83528b898401528b830190612eaf565b8392507f8ab42044ce8b230e021e5542eb53688d77443e50ee84cda7917f6bdd833c697f90886134869b9c9697989a999395511692613f2f878c83608089015116978460a082015116998c820151958d8251908301519160c06060878601519501519501511694519889988961314d565b909250614539915060e03d8111611edc57611ec98183612915565b9250509091386142f0565b356001600160a01b03811681036102d45790565b813581556020820135600182015560028101906001600160a01b03906145c1906080906004908461458b60408901614544565b16956001600160601b0360a01b968782541617905560038101856145b160608a01614544565b1687825416179055019401614544565b1690825416179055565b60001981146145da5760010190565b634e487b7160e01b600052601160045260246000fd5b8060005260206101938152604060002033600052815260ff6040600020541615614618575050565b6146ae60486146328361462c6014336146cf565b956146cf565b936040519485917f416363657373436f6e74726f6c3a206163636f756e7420000000000000000000868401526146718151809288603787019101612e8c565b82017001034b99036b4b9b9b4b733903937b6329607d1b603782015261469f82518093888785019101612e8c565b01036028810185520183612915565b612e8860405192839262461bcd60e51b845260048401526024830190612eaf565b60019180831b91906001600160ff1b038116036145da5760028201928383116145da576147146146fe8561294d565b9461470c6040519687612915565b80865261294d565b6020939085850190601f19013682378551156148105760309053845182101561481057607860218601538181018091116145da57905b80821161479e57505061475b575090565b6064906040519062461bcd60e51b825280600483015260248201527f537472696e67733a20686578206c656e67746820696e73756666696369656e746044820152fd5b9091600f811660108110156147fb5785518410156147fb576f181899199a1a9b1b9c1cb0b131b232b360811b901a85840185015360041c9180156147e657600019019061474a565b60246000634e487b7160e01b81526011600452fd5b60246000634e487b7160e01b81526032600452fd5b634e487b7160e01b600052603260045260246000fd5b6001600160a01b036145c160a060058361483f87614544565b16946001600160601b03831b95868254161781556020870135600182015560408701356002820155600381018561487860608a01614544565b168782541617905560048101856145b160808a01614544565b6001600160a01b036145c160c06006836148aa87614544565b16946001600160601b0360a01b958682541617815560208701356001820155604087013560028201556060870135600382015560048101856148ee60808a01614544565b168782541617905560058101856145b160a08a01614544565b61025e5461025d548114614966576000526102686020526020604060002060405190614934604083612915565b5461494260ff821683612fe0565b60081c91829101526001600160801b0361026954164303904382116145da57111590565b50600090565b9060009180835261019380602052604084209260018060a01b03169283855260205260ff604085205416156149a15750505050565b8184526020526040832082845260205260408320600160ff198254161790557f2f8788117e7eff1d82e926ec794901d17c78024a50270940304540a733656f0d339380a4388080806129d2565b3481036126805750565b6097546040805163d994d6d560e01b8152336004820152909291602090829060249082906001600160a01b03165afa908115614aa557600091614a87575b50159081614a57575b50614a475750565b51631dd1b1b560e21b8152600490fd5b90506000526101936020526001816000200154600052806000203360005260205260ff8160002054161538614a3f565b614a9f915060203d8111612245576122378183612915565b38614a36565b83513d6000823e3d90fdfe5bbebb64d62396f99cae4b3b78d9386cb0f2893aab6a69f27eb61f8e7c29775e3ea497186958ec638834f65ec5a571c2b2e877e5d59a76804ec0448fac7829babfa5d40ab595fa613b17566ea5e38a5cac79a71f09ce1435246db2e6805816c27d5e686862ec2250829eb6dee4a7cb0834865072f135485c874d3bbbe39bdfdba2646970667358221220ad4e2514773ad62f746b8a4450696486cec820bf58632df705139ff445d8c88e64736f6c63430008140033",
  "linkReferences": {},
  "deployedLinkReferences": {}
}