{
  "contractName": "MocQueue",
  "sourceName": "contracts/queue/MocQueue.sol",
  "abi": [
    {
      "inputs": [],
      "name": "BucketAlreadyRegistered",
      "type": "error"
    },
    {
      "inputs": [],
      "name": "ExecutionFeePaymentFailed",
      "type": "error"
    },
    {
      "inputs": [],
      "name": "InvalidAddress",
      "type": "error"
    },
    {
      "inputs": [],
      "name": "InvalidValue",
      "type": "error"
    },
    {
      "inputs": [],
      "name": "NotAllowOnNoneEmptyQueue",
      "type": "error"
    },
    {
      "inputs": [],
      "name": "NotAuthorizedChanger",
      "type": "error"
    },
    {
      "inputs": [],
      "name": "NotWhenPaused",
      "type": "error"
    },
    {
      "inputs": [],
      "name": "OnlyPauser",
      "type": "error"
    },
    {
      "inputs": [],
      "name": "OnlyWhilePaused",
      "type": "error"
    },
    {
      "inputs": [],
      "name": "Unstoppable",
      "type": "error"
    },
    {
      "inputs": [
        {
          "internalType": "uint256",
          "name": "expectedValue",
          "type": "uint256"
        }
      ],
      "name": "WrongExecutionFee",
      "type": "error"
    },
    {
      "anonymous": false,
      "inputs": [
        {
          "indexed": false,
          "internalType": "address",
          "name": "previousAdmin",
          "type": "address"
        },
        {
          "indexed": false,
          "internalType": "address",
          "name": "newAdmin",
          "type": "address"
        }
      ],
      "name": "AdminChanged",
      "type": "event"
    },
    {
      "anonymous": false,
      "inputs": [
        {
          "indexed": true,
          "internalType": "address",
          "name": "beacon",
          "type": "address"
        }
      ],
      "name": "BeaconUpgraded",
      "type": "event"
    },
    {
      "anonymous": false,
      "inputs": [
        {
          "indexed": false,
          "internalType": "uint8",
          "name": "version",
          "type": "uint8"
        }
      ],
      "name": "Initialized",
      "type": "event"
    },
    {
      "anonymous": false,
      "inputs": [
        {
          "indexed": false,
          "internalType": "uint256",
          "name": "operId_",
          "type": "uint256"
        },
        {
          "indexed": false,
          "internalType": "bytes4",
          "name": "errorCode_",
          "type": "bytes4"
        },
        {
          "indexed": false,
          "internalType": "string",
          "name": "msg_",
          "type": "string"
        }
      ],
      "name": "OperationError",
      "type": "event"
    },
    {
      "anonymous": false,
      "inputs": [
        {
          "indexed": true,
          "internalType": "address",
          "name": "executor",
          "type": "address"
        },
        {
          "indexed": true,
          "internalType": "uint256",
          "name": "operId_",
          "type": "uint256"
        }
      ],
      "name": "OperationExecuted",
      "type": "event"
    },
    {
      "anonymous": false,
      "inputs": [
        {
          "indexed": true,
          "internalType": "address",
          "name": "bucket_",
          "type": "address"
        },
        {
          "indexed": false,
          "internalType": "uint256",
          "name": "operId_",
          "type": "uint256"
        },
        {
          "indexed": false,
          "internalType": "enum MocQueue.OperType",
          "name": "operType_",
          "type": "uint8"
        }
      ],
      "name": "OperationQueued",
      "type": "event"
    },
    {
      "anonymous": false,
      "inputs": [
        {
          "indexed": false,
          "internalType": "address",
          "name": "account",
          "type": "address"
        }
      ],
      "name": "Paused",
      "type": "event"
    },
    {
      "anonymous": false,
      "inputs": [
        {
          "indexed": true,
          "internalType": "bytes32",
          "name": "role",
          "type": "bytes32"
        },
        {
          "indexed": true,
          "internalType": "bytes32",
          "name": "previousAdminRole",
          "type": "bytes32"
        },
        {
          "indexed": true,
          "internalType": "bytes32",
          "name": "newAdminRole",
          "type": "bytes32"
        }
      ],
      "name": "RoleAdminChanged",
      "type": "event"
    },
    {
      "anonymous": false,
      "inputs": [
        {
          "indexed": true,
          "internalType": "bytes32",
          "name": "role",
          "type": "bytes32"
        },
        {
          "indexed": true,
          "internalType": "address",
          "name": "account",
          "type": "address"
        },
        {
          "indexed": true,
          "internalType": "address",
          "name": "sender",
          "type": "address"
        }
      ],
      "name": "RoleGranted",
      "type": "event"
    },
    {
      "anonymous": false,
      "inputs": [
        {
          "indexed": true,
          "internalType": "bytes32",
          "name": "role",
          "type": "bytes32"
        },
        {
          "indexed": true,
          "internalType": "address",
          "name": "account",
          "type": "address"
        },
        {
          "indexed": true,
          "internalType": "address",
          "name": "sender",
          "type": "address"
        }
      ],
      "name": "RoleRevoked",
      "type": "event"
    },
    {
      "anonymous": false,
      "inputs": [
        {
          "indexed": true,
          "internalType": "address",
          "name": "sender_",
          "type": "address"
        },
        {
          "indexed": true,
          "internalType": "address",
          "name": "recipient_",
          "type": "address"
        },
        {
          "indexed": false,
          "internalType": "uint256",
          "name": "qTC_",
          "type": "uint256"
        },
        {
          "indexed": false,
          "internalType": "uint256",
          "name": "qAC_",
          "type": "uint256"
        },
        {
          "indexed": false,
          "internalType": "uint256",
          "name": "qACfee_",
          "type": "uint256"
        },
        {
          "indexed": false,
          "internalType": "uint256",
          "name": "qFeeToken_",
          "type": "uint256"
        },
        {
          "indexed": false,
          "internalType": "uint256",
          "name": "qACVendorMarkup_",
          "type": "uint256"
        },
        {
          "indexed": false,
          "internalType": "uint256",
          "name": "qFeeTokenVendorMarkup_",
          "type": "uint256"
        },
        {
          "indexed": false,
          "internalType": "address",
          "name": "vendor_",
          "type": "address"
        },
        {
          "indexed": false,
          "internalType": "uint256",
          "name": "operId_",
          "type": "uint256"
        }
      ],
      "name": "TCMinted",
      "type": "event"
    },
    {
      "anonymous": false,
      "inputs": [
        {
          "indexed": true,
          "internalType": "address",
          "name": "sender_",
          "type": "address"
        },
        {
          "indexed": true,
          "internalType": "address",
          "name": "recipient_",
          "type": "address"
        },
        {
          "indexed": false,
          "internalType": "uint256",
          "name": "qTC_",
          "type": "uint256"
        },
        {
          "indexed": false,
          "internalType": "uint256",
          "name": "qAC_",
          "type": "uint256"
        },
        {
          "indexed": false,
          "internalType": "uint256",
          "name": "qACfee_",
          "type": "uint256"
        },
        {
          "indexed": false,
          "internalType": "uint256",
          "name": "qFeeToken_",
          "type": "uint256"
        },
        {
          "indexed": false,
          "internalType": "uint256",
          "name": "qACVendorMarkup_",
          "type": "uint256"
        },
        {
          "indexed": false,
          "internalType": "uint256",
          "name": "qFeeTokenVendorMarkup_",
          "type": "uint256"
        },
        {
          "indexed": false,
          "internalType": "address",
          "name": "vendor_",
          "type": "address"
        },
        {
          "indexed": false,
          "internalType": "uint256",
          "name": "operId_",
          "type": "uint256"
        }
      ],
      "name": "TCRedeemed",
      "type": "event"
    },
    {
      "anonymous": false,
      "inputs": [
        {
          "indexed": true,
          "internalType": "address",
          "name": "tp_",
          "type": "address"
        },
        {
          "indexed": true,
          "internalType": "address",
          "name": "sender_",
          "type": "address"
        },
        {
          "indexed": true,
          "internalType": "address",
          "name": "recipient_",
          "type": "address"
        },
        {
          "indexed": false,
          "internalType": "uint256",
          "name": "qTC_",
          "type": "uint256"
        },
        {
          "indexed": false,
          "internalType": "uint256",
          "name": "qTP_",
          "type": "uint256"
        },
        {
          "indexed": false,
          "internalType": "uint256",
          "name": "qACfee_",
          "type": "uint256"
        },
        {
          "indexed": false,
          "internalType": "uint256",
          "name": "qFeeToken_",
          "type": "uint256"
        },
        {
          "indexed": false,
          "internalType": "uint256",
          "name": "qACVendorMarkup_",
          "type": "uint256"
        },
        {
          "indexed": false,
          "internalType": "uint256",
          "name": "qFeeTokenVendorMarkup_",
          "type": "uint256"
        },
        {
          "indexed": false,
          "internalType": "address",
          "name": "vendor_",
          "type": "address"
        },
        {
          "indexed": false,
          "internalType": "uint256",
          "name": "operId_",
          "type": "uint256"
        }
      ],
      "name": "TCSwappedForTP",
      "type": "event"
    },
    {
      "anonymous": false,
      "inputs": [
        {
          "indexed": true,
          "internalType": "address",
          "name": "tp_",
          "type": "address"
        },
        {
          "indexed": true,
          "internalType": "address",
          "name": "sender_",
          "type": "address"
        },
        {
          "indexed": true,
          "internalType": "address",
          "name": "recipient_",
          "type": "address"
        },
        {
          "indexed": false,
          "internalType": "uint256",
          "name": "qTC_",
          "type": "uint256"
        },
        {
          "indexed": false,
          "internalType": "uint256",
          "name": "qTP_",
          "type": "uint256"
        },
        {
          "indexed": false,
          "internalType": "uint256",
          "name": "qAC_",
          "type": "uint256"
        },
        {
          "indexed": false,
          "internalType": "uint256",
          "name": "qACfee_",
          "type": "uint256"
        },
        {
          "indexed": false,
          "internalType": "uint256",
          "name": "qFeeToken_",
          "type": "uint256"
        },
        {
          "indexed": false,
          "internalType": "uint256",
          "name": "qACVendorMarkup_",
          "type": "uint256"
        },
        {
          "indexed": false,
          "internalType": "uint256",
          "name": "qFeeTokenVendorMarkup_",
          "type": "uint256"
        },
        {
          "indexed": false,
          "internalType": "address",
          "name": "vendor_",
          "type": "address"
        },
        {
          "indexed": false,
          "internalType": "uint256",
          "name": "operId_",
          "type": "uint256"
        }
      ],
      "name": "TCandTPMinted",
      "type": "event"
    },
    {
      "anonymous": false,
      "inputs": [
        {
          "indexed": true,
          "internalType": "address",
          "name": "tp_",
          "type": "address"
        },
        {
          "indexed": true,
          "internalType": "address",
          "name": "sender_",
          "type": "address"
        },
        {
          "indexed": true,
          "internalType": "address",
          "name": "recipient_",
          "type": "address"
        },
        {
          "indexed": false,
          "internalType": "uint256",
          "name": "qTC_",
          "type": "uint256"
        },
        {
          "indexed": false,
          "internalType": "uint256",
          "name": "qTP_",
          "type": "uint256"
        },
        {
          "indexed": false,
          "internalType": "uint256",
          "name": "qAC_",
          "type": "uint256"
        },
        {
          "indexed": false,
          "internalType": "uint256",
          "name": "qACfee_",
          "type": "uint256"
        },
        {
          "indexed": false,
          "internalType": "uint256",
          "name": "qFeeToken_",
          "type": "uint256"
        },
        {
          "indexed": false,
          "internalType": "uint256",
          "name": "qACVendorMarkup_",
          "type": "uint256"
        },
        {
          "indexed": false,
          "internalType": "uint256",
          "name": "qFeeTokenVendorMarkup_",
          "type": "uint256"
        },
        {
          "indexed": false,
          "internalType": "address",
          "name": "vendor_",
          "type": "address"
        },
        {
          "indexed": false,
          "internalType": "uint256",
          "name": "operId_",
          "type": "uint256"
        }
      ],
      "name": "TCandTPRedeemed",
      "type": "event"
    },
    {
      "anonymous": false,
      "inputs": [
        {
          "indexed": true,
          "internalType": "address",
          "name": "tp",
          "type": "address"
        },
        {
          "indexed": true,
          "internalType": "address",
          "name": "sender_",
          "type": "address"
        },
        {
          "indexed": true,
          "internalType": "address",
          "name": "recipient_",
          "type": "address"
        },
        {
          "indexed": false,
          "internalType": "uint256",
          "name": "qTP_",
          "type": "uint256"
        },
        {
          "indexed": false,
          "internalType": "uint256",
          "name": "qAC_",
          "type": "uint256"
        },
        {
          "indexed": false,
          "internalType": "uint256",
          "name": "qACfee_",
          "type": "uint256"
        },
        {
          "indexed": false,
          "internalType": "uint256",
          "name": "qFeeToken_",
          "type": "uint256"
        },
        {
          "indexed": false,
          "internalType": "uint256",
          "name": "qACVendorMarkup_",
          "type": "uint256"
        },
        {
          "indexed": false,
          "internalType": "uint256",
          "name": "qFeeTokenVendorMarkup_",
          "type": "uint256"
        },
        {
          "indexed": false,
          "internalType": "address",
          "name": "vendor_",
          "type": "address"
        },
        {
          "indexed": false,
          "internalType": "uint256",
          "name": "operId_",
          "type": "uint256"
        }
      ],
      "name": "TPMinted",
      "type": "event"
    },
    {
      "anonymous": false,
      "inputs": [
        {
          "indexed": true,
          "internalType": "address",
          "name": "tp_",
          "type": "address"
        },
        {
          "indexed": true,
          "internalType": "address",
          "name": "sender_",
          "type": "address"
        },
        {
          "indexed": true,
          "internalType": "address",
          "name": "recipient_",
          "type": "address"
        },
        {
          "indexed": false,
          "internalType": "uint256",
          "name": "qTP_",
          "type": "uint256"
        },
        {
          "indexed": false,
          "internalType": "uint256",
          "name": "qAC_",
          "type": "uint256"
        },
        {
          "indexed": false,
          "internalType": "uint256",
          "name": "qACfee_",
          "type": "uint256"
        },
        {
          "indexed": false,
          "internalType": "uint256",
          "name": "qFeeToken_",
          "type": "uint256"
        },
        {
          "indexed": false,
          "internalType": "uint256",
          "name": "qACVendorMarkup_",
          "type": "uint256"
        },
        {
          "indexed": false,
          "internalType": "uint256",
          "name": "qFeeTokenVendorMarkup_",
          "type": "uint256"
        },
        {
          "indexed": false,
          "internalType": "address",
          "name": "vendor_",
          "type": "address"
        },
        {
          "indexed": false,
          "internalType": "uint256",
          "name": "operId_",
          "type": "uint256"
        }
      ],
      "name": "TPRedeemed",
      "type": "event"
    },
    {
      "anonymous": false,
      "inputs": [
        {
          "indexed": true,
          "internalType": "address",
          "name": "tp_",
          "type": "address"
        },
        {
          "indexed": true,
          "internalType": "address",
          "name": "sender_",
          "type": "address"
        },
        {
          "indexed": true,
          "internalType": "address",
          "name": "recipient_",
          "type": "address"
        },
        {
          "indexed": false,
          "internalType": "uint256",
          "name": "qTP_",
          "type": "uint256"
        },
        {
          "indexed": false,
          "internalType": "uint256",
          "name": "qTC_",
          "type": "uint256"
        },
        {
          "indexed": false,
          "internalType": "uint256",
          "name": "qACfee_",
          "type": "uint256"
        },
        {
          "indexed": false,
          "internalType": "uint256",
          "name": "qFeeToken_",
          "type": "uint256"
        },
        {
          "indexed": false,
          "internalType": "uint256",
          "name": "qACVendorMarkup_",
          "type": "uint256"
        },
        {
          "indexed": false,
          "internalType": "uint256",
          "name": "qFeeTokenVendorMarkup_",
          "type": "uint256"
        },
        {
          "indexed": false,
          "internalType": "address",
          "name": "vendor_",
          "type": "address"
        },
        {
          "indexed": false,
          "internalType": "uint256",
          "name": "operId_",
          "type": "uint256"
        }
      ],
      "name": "TPSwappedForTC",
      "type": "event"
    },
    {
      "anonymous": false,
      "inputs": [
        {
          "indexed": true,
          "internalType": "address",
          "name": "tpFrom_",
          "type": "address"
        },
        {
          "indexed": false,
          "internalType": "address",
          "name": "tpTo_",
          "type": "address"
        },
        {
          "indexed": true,
          "internalType": "address",
          "name": "sender_",
          "type": "address"
        },
        {
          "indexed": true,
          "internalType": "address",
          "name": "recipient_",
          "type": "address"
        },
        {
          "indexed": false,
          "internalType": "uint256",
          "name": "qTPfrom_",
          "type": "uint256"
        },
        {
          "indexed": false,
          "internalType": "uint256",
          "name": "qTPto_",
          "type": "uint256"
        },
        {
          "indexed": false,
          "internalType": "uint256",
          "name": "qACfee_",
          "type": "uint256"
        },
        {
          "indexed": false,
          "internalType": "uint256",
          "name": "qFeeToken_",
          "type": "uint256"
        },
        {
          "indexed": false,
          "internalType": "uint256",
          "name": "qACVendorMarkup_",
          "type": "uint256"
        },
        {
          "indexed": false,
          "internalType": "uint256",
          "name": "qFeeTokenVendorMarkup_",
          "type": "uint256"
        },
        {
          "indexed": false,
          "internalType": "address",
          "name": "vendor_",
          "type": "address"
        },
        {
          "indexed": false,
          "internalType": "uint256",
          "name": "operId_",
          "type": "uint256"
        }
      ],
      "name": "TPSwappedForTP",
      "type": "event"
    },
    {
      "anonymous": false,
      "inputs": [
        {
          "indexed": false,
          "internalType": "uint256",
          "name": "operId_",
          "type": "uint256"
        },
        {
          "indexed": false,
          "internalType": "bytes",
          "name": "reason_",
          "type": "bytes"
        }
      ],
      "name": "UnhandledError",
      "type": "event"
    },
    {
      "anonymous": false,
      "inputs": [
        {
          "indexed": false,
          "internalType": "address",
          "name": "account",
          "type": "address"
        }
      ],
      "name": "Unpaused",
      "type": "event"
    },
    {
      "anonymous": false,
      "inputs": [
        {
          "indexed": true,
          "internalType": "address",
          "name": "implementation",
          "type": "address"
        }
      ],
      "name": "Upgraded",
      "type": "event"
    },
    {
      "inputs": [],
      "name": "DEFAULT_ADMIN_ROLE",
      "outputs": [
        {
          "internalType": "bytes32",
          "name": "",
          "type": "bytes32"
        }
      ],
      "stateMutability": "view",
      "type": "function"
    },
    {
      "inputs": [
        {
          "internalType": "contract IGovernor",
          "name": "newGovernor_",
          "type": "address"
        }
      ],
      "name": "changeGovernor",
      "outputs": [],
      "stateMutability": "nonpayable",
      "type": "function"
    },
    {
      "inputs": [
        {
          "internalType": "address",
          "name": "executionFeeRecipient",
          "type": "address"
        }
      ],
      "name": "execute",
      "outputs": [],
      "stateMutability": "nonpayable",
      "type": "function"
    },
    {
      "inputs": [],
      "name": "firstOperId",
      "outputs": [
        {
          "internalType": "uint256",
          "name": "",
          "type": "uint256"
        }
      ],
      "stateMutability": "view",
      "type": "function"
    },
    {
      "inputs": [
        {
          "internalType": "bytes32",
          "name": "role",
          "type": "bytes32"
        }
      ],
      "name": "getRoleAdmin",
      "outputs": [
        {
          "internalType": "bytes32",
          "name": "",
          "type": "bytes32"
        }
      ],
      "stateMutability": "view",
      "type": "function"
    },
    {
      "inputs": [],
      "name": "governor",
      "outputs": [
        {
          "internalType": "contract IGovernor",
          "name": "",
          "type": "address"
        }
      ],
      "stateMutability": "view",
      "type": "function"
    },
    {
      "inputs": [
        {
          "internalType": "bytes32",
          "name": "role",
          "type": "bytes32"
        },
        {
          "internalType": "address",
          "name": "account",
          "type": "address"
        }
      ],
      "name": "grantRole",
      "outputs": [],
      "stateMutability": "nonpayable",
      "type": "function"
    },
    {
      "inputs": [
        {
          "internalType": "bytes32",
          "name": "role",
          "type": "bytes32"
        },
        {
          "internalType": "address",
          "name": "account",
          "type": "address"
        }
      ],
      "name": "hasRole",
      "outputs": [
        {
          "internalType": "bool",
          "name": "",
          "type": "bool"
        }
      ],
      "stateMutability": "view",
      "type": "function"
    },
    {
      "inputs": [
        {
          "internalType": "address",
          "name": "governor_",
          "type": "address"
        },
        {
          "internalType": "address",
          "name": "pauser_",
          "type": "address"
        },
        {
          "internalType": "uint128",
          "name": "minOperWaitingBlk_",
          "type": "uint128"
        },
        {
          "internalType": "uint128",
          "name": "maxOperPerBatch_",
          "type": "uint128"
        },
        {
          "components": [
            {
              "internalType": "uint256",
              "name": "tcMintExecFee",
              "type": "uint256"
            },
            {
              "internalType": "uint256",
              "name": "tcRedeemExecFee",
              "type": "uint256"
            },
            {
              "internalType": "uint256",
              "name": "tpMintExecFee",
              "type": "uint256"
            },
            {
              "internalType": "uint256",
              "name": "tpRedeemExecFee",
              "type": "uint256"
            },
            {
              "internalType": "uint256",
              "name": "swapTPforTPExecFee",
              "type": "uint256"
            },
            {
              "internalType": "uint256",
              "name": "swapTPforTCExecFee",
              "type": "uint256"
            },
            {
              "internalType": "uint256",
              "name": "swapTCforTPExecFee",
              "type": "uint256"
            },
            {
              "internalType": "uint256",
              "name": "redeemTCandTPExecFee",
              "type": "uint256"
            },
            {
              "internalType": "uint256",
              "name": "mintTCandTPExecFee",
              "type": "uint256"
            }
          ],
          "internalType": "struct MocQueueExecFees.InitializeMocQueueExecFeesParams",
          "name": "mocQueueExecFeesParams_",
          "type": "tuple"
        }
      ],
      "name": "initialize",
      "outputs": [],
      "stateMutability": "nonpayable",
      "type": "function"
    },
    {
      "inputs": [],
      "name": "isEmpty",
      "outputs": [
        {
          "internalType": "bool",
          "name": "",
          "type": "bool"
        }
      ],
      "stateMutability": "view",
      "type": "function"
    },
    {
      "inputs": [],
      "name": "makeStoppable",
      "outputs": [],
      "stateMutability": "nonpayable",
      "type": "function"
    },
    {
      "inputs": [],
      "name": "makeUnstoppable",
      "outputs": [],
      "stateMutability": "nonpayable",
      "type": "function"
    },
    {
      "inputs": [],
      "name": "maxOperPerBatch",
      "outputs": [
        {
          "internalType": "uint128",
          "name": "",
          "type": "uint128"
        }
      ],
      "stateMutability": "view",
      "type": "function"
    },
    {
      "inputs": [],
      "name": "minOperWaitingBlk",
      "outputs": [
        {
          "internalType": "uint128",
          "name": "",
          "type": "uint128"
        }
      ],
      "stateMutability": "view",
      "type": "function"
    },
    {
      "inputs": [],
      "name": "mintTCandTPExecFee",
      "outputs": [
        {
          "internalType": "uint256",
          "name": "",
          "type": "uint256"
        }
      ],
      "stateMutability": "view",
      "type": "function"
    },
    {
      "inputs": [],
      "name": "mocCore",
      "outputs": [
        {
          "internalType": "contract MocCARC20Deferred",
          "name": "",
          "type": "address"
        }
      ],
      "stateMutability": "view",
      "type": "function"
    },
    {
      "inputs": [],
      "name": "operIdCount",
      "outputs": [
        {
          "internalType": "uint256",
          "name": "",
          "type": "uint256"
        }
      ],
      "stateMutability": "view",
      "type": "function"
    },
    {
      "inputs": [
        {
          "internalType": "uint256",
          "name": "",
          "type": "uint256"
        }
      ],
      "name": "operationsMintTC",
      "outputs": [
        {
          "internalType": "uint256",
          "name": "qTC",
          "type": "uint256"
        },
        {
          "internalType": "uint256",
          "name": "qACmax",
          "type": "uint256"
        },
        {
          "internalType": "address",
          "name": "sender",
          "type": "address"
        },
        {
          "internalType": "address",
          "name": "recipient",
          "type": "address"
        },
        {
          "internalType": "address",
          "name": "vendor",
          "type": "address"
        }
      ],
      "stateMutability": "view",
      "type": "function"
    },
    {
      "inputs": [
        {
          "internalType": "uint256",
          "name": "",
          "type": "uint256"
        }
      ],
      "name": "operationsMintTCandTP",
      "outputs": [
        {
          "internalType": "address",
          "name": "tp",
          "type": "address"
        },
        {
          "internalType": "uint256",
          "name": "qTP",
          "type": "uint256"
        },
        {
          "internalType": "uint256",
          "name": "qACmax",
          "type": "uint256"
        },
        {
          "internalType": "address",
          "name": "sender",
          "type": "address"
        },
        {
          "internalType": "address",
          "name": "recipient",
          "type": "address"
        },
        {
          "internalType": "address",
          "name": "vendor",
          "type": "address"
        }
      ],
      "stateMutability": "view",
      "type": "function"
    },
    {
      "inputs": [
        {
          "internalType": "uint256",
          "name": "",
          "type": "uint256"
        }
      ],
      "name": "operationsMintTP",
      "outputs": [
        {
          "internalType": "address",
          "name": "tp",
          "type": "address"
        },
        {
          "internalType": "uint256",
          "name": "qTP",
          "type": "uint256"
        },
        {
          "internalType": "uint256",
          "name": "qACmax",
          "type": "uint256"
        },
        {
          "internalType": "address",
          "name": "sender",
          "type": "address"
        },
        {
          "internalType": "address",
          "name": "recipient",
          "type": "address"
        },
        {
          "internalType": "address",
          "name": "vendor",
          "type": "address"
        }
      ],
      "stateMutability": "view",
      "type": "function"
    },
    {
      "inputs": [
        {
          "internalType": "uint256",
          "name": "",
          "type": "uint256"
        }
      ],
      "name": "operationsRedeemTC",
      "outputs": [
        {
          "internalType": "uint256",
          "name": "qTC",
          "type": "uint256"
        },
        {
          "internalType": "uint256",
          "name": "qACmin",
          "type": "uint256"
        },
        {
          "internalType": "address",
          "name": "sender",
          "type": "address"
        },
        {
          "internalType": "address",
          "name": "recipient",
          "type": "address"
        },
        {
          "internalType": "address",
          "name": "vendor",
          "type": "address"
        }
      ],
      "stateMutability": "view",
      "type": "function"
    },
    {
      "inputs": [
        {
          "internalType": "uint256",
          "name": "",
          "type": "uint256"
        }
      ],
      "name": "operationsRedeemTCandTP",
      "outputs": [
        {
          "internalType": "address",
          "name": "tp",
          "type": "address"
        },
        {
          "internalType": "uint256",
          "name": "qTC",
          "type": "uint256"
        },
        {
          "internalType": "uint256",
          "name": "qTP",
          "type": "uint256"
        },
        {
          "internalType": "uint256",
          "name": "qACmin",
          "type": "uint256"
        },
        {
          "internalType": "address",
          "name": "sender",
          "type": "address"
        },
        {
          "internalType": "address",
          "name": "recipient",
          "type": "address"
        },
        {
          "internalType": "address",
          "name": "vendor",
          "type": "address"
        }
      ],
      "stateMutability": "view",
      "type": "function"
    },
    {
      "inputs": [
        {
          "internalType": "uint256",
          "name": "",
          "type": "uint256"
        }
      ],
      "name": "operationsRedeemTP",
      "outputs": [
        {
          "internalType": "address",
          "name": "tp",
          "type": "address"
        },
        {
          "internalType": "uint256",
          "name": "qTP",
          "type": "uint256"
        },
        {
          "internalType": "uint256",
          "name": "qACmin",
          "type": "uint256"
        },
        {
          "internalType": "address",
          "name": "sender",
          "type": "address"
        },
        {
          "internalType": "address",
          "name": "recipient",
          "type": "address"
        },
        {
          "internalType": "address",
          "name": "vendor",
          "type": "address"
        }
      ],
      "stateMutability": "view",
      "type": "function"
    },
    {
      "inputs": [
        {
          "internalType": "uint256",
          "name": "",
          "type": "uint256"
        }
      ],
      "name": "operationsSwapTCforTP",
      "outputs": [
        {
          "internalType": "address",
          "name": "tp",
          "type": "address"
        },
        {
          "internalType": "uint256",
          "name": "qTC",
          "type": "uint256"
        },
        {
          "internalType": "uint256",
          "name": "qTPmin",
          "type": "uint256"
        },
        {
          "internalType": "uint256",
          "name": "qACmax",
          "type": "uint256"
        },
        {
          "internalType": "address",
          "name": "sender",
          "type": "address"
        },
        {
          "internalType": "address",
          "name": "recipient",
          "type": "address"
        },
        {
          "internalType": "address",
          "name": "vendor",
          "type": "address"
        }
      ],
      "stateMutability": "view",
      "type": "function"
    },
    {
      "inputs": [
        {
          "internalType": "uint256",
          "name": "",
          "type": "uint256"
        }
      ],
      "name": "operationsSwapTPforTC",
      "outputs": [
        {
          "internalType": "address",
          "name": "tp",
          "type": "address"
        },
        {
          "internalType": "uint256",
          "name": "qTP",
          "type": "uint256"
        },
        {
          "internalType": "uint256",
          "name": "qTCmin",
          "type": "uint256"
        },
        {
          "internalType": "uint256",
          "name": "qACmax",
          "type": "uint256"
        },
        {
          "internalType": "address",
          "name": "sender",
          "type": "address"
        },
        {
          "internalType": "address",
          "name": "recipient",
          "type": "address"
        },
        {
          "internalType": "address",
          "name": "vendor",
          "type": "address"
        }
      ],
      "stateMutability": "view",
      "type": "function"
    },
    {
      "inputs": [
        {
          "internalType": "uint256",
          "name": "",
          "type": "uint256"
        }
      ],
      "name": "operationsSwapTPforTP",
      "outputs": [
        {
          "internalType": "address",
          "name": "tpFrom",
          "type": "address"
        },
        {
          "internalType": "address",
          "name": "tpTo",
          "type": "address"
        },
        {
          "internalType": "uint256",
          "name": "qTP",
          "type": "uint256"
        },
        {
          "internalType": "uint256",
          "name": "qTPmin",
          "type": "uint256"
        },
        {
          "internalType": "uint256",
          "name": "qACmax",
          "type": "uint256"
        },
        {
          "internalType": "address",
          "name": "sender",
          "type": "address"
        },
        {
          "internalType": "address",
          "name": "recipient",
          "type": "address"
        },
        {
          "internalType": "address",
          "name": "vendor",
          "type": "address"
        }
      ],
      "stateMutability": "view",
      "type": "function"
    },
    {
      "inputs": [
        {
          "internalType": "uint256",
          "name": "",
          "type": "uint256"
        }
      ],
      "name": "opersInfo",
      "outputs": [
        {
          "internalType": "enum MocQueue.OperType",
          "name": "operType",
          "type": "uint8"
        },
        {
          "internalType": "uint248",
          "name": "queuedBlk",
          "type": "uint248"
        }
      ],
      "stateMutability": "view",
      "type": "function"
    },
    {
      "inputs": [],
      "name": "pause",
      "outputs": [],
      "stateMutability": "nonpayable",
      "type": "function"
    },
    {
      "inputs": [],
      "name": "paused",
      "outputs": [
        {
          "internalType": "bool",
          "name": "",
          "type": "bool"
        }
      ],
      "stateMutability": "view",
      "type": "function"
    },
    {
      "inputs": [],
      "name": "pauser",
      "outputs": [
        {
          "internalType": "address",
          "name": "",
          "type": "address"
        }
      ],
      "stateMutability": "view",
      "type": "function"
    },
    {
      "inputs": [],
      "name": "proxiableUUID",
      "outputs": [
        {
          "internalType": "bytes32",
          "name": "",
          "type": "bytes32"
        }
      ],
      "stateMutability": "view",
      "type": "function"
    },
    {
      "inputs": [
        {
          "components": [
            {
              "internalType": "uint256",
              "name": "qTC",
              "type": "uint256"
            },
            {
              "internalType": "uint256",
              "name": "qACmax",
              "type": "uint256"
            },
            {
              "internalType": "address",
              "name": "sender",
              "type": "address"
            },
            {
              "internalType": "address",
              "name": "recipient",
              "type": "address"
            },
            {
              "internalType": "address",
              "name": "vendor",
              "type": "address"
            }
          ],
          "internalType": "struct MocCore.MintTCParams",
          "name": "params",
          "type": "tuple"
        }
      ],
      "name": "queueMintTC",
      "outputs": [
        {
          "internalType": "uint256",
          "name": "operId",
          "type": "uint256"
        }
      ],
      "stateMutability": "payable",
      "type": "function"
    },
    {
      "inputs": [
        {
          "components": [
            {
              "internalType": "address",
              "name": "tp",
              "type": "address"
            },
            {
              "internalType": "uint256",
              "name": "qTP",
              "type": "uint256"
            },
            {
              "internalType": "uint256",
              "name": "qACmax",
              "type": "uint256"
            },
            {
              "internalType": "address",
              "name": "sender",
              "type": "address"
            },
            {
              "internalType": "address",
              "name": "recipient",
              "type": "address"
            },
            {
              "internalType": "address",
              "name": "vendor",
              "type": "address"
            }
          ],
          "internalType": "struct MocCommons.MintTCandTPParams",
          "name": "params",
          "type": "tuple"
        }
      ],
      "name": "queueMintTCandTP",
      "outputs": [
        {
          "internalType": "uint256",
          "name": "operId",
          "type": "uint256"
        }
      ],
      "stateMutability": "payable",
      "type": "function"
    },
    {
      "inputs": [
        {
          "components": [
            {
              "internalType": "address",
              "name": "tp",
              "type": "address"
            },
            {
              "internalType": "uint256",
              "name": "qTP",
              "type": "uint256"
            },
            {
              "internalType": "uint256",
              "name": "qACmax",
              "type": "uint256"
            },
            {
              "internalType": "address",
              "name": "sender",
              "type": "address"
            },
            {
              "internalType": "address",
              "name": "recipient",
              "type": "address"
            },
            {
              "internalType": "address",
              "name": "vendor",
              "type": "address"
            }
          ],
          "internalType": "struct MocCore.MintTPParams",
          "name": "params",
          "type": "tuple"
        }
      ],
      "name": "queueMintTP",
      "outputs": [
        {
          "internalType": "uint256",
          "name": "operId",
          "type": "uint256"
        }
      ],
      "stateMutability": "payable",
      "type": "function"
    },
    {
      "inputs": [
        {
          "components": [
            {
              "internalType": "uint256",
              "name": "qTC",
              "type": "uint256"
            },
            {
              "internalType": "uint256",
              "name": "qACmin",
              "type": "uint256"
            },
            {
              "internalType": "address",
              "name": "sender",
              "type": "address"
            },
            {
              "internalType": "address",
              "name": "recipient",
              "type": "address"
            },
            {
              "internalType": "address",
              "name": "vendor",
              "type": "address"
            }
          ],
          "internalType": "struct MocCore.RedeemTCParams",
          "name": "params",
          "type": "tuple"
        }
      ],
      "name": "queueRedeemTC",
      "outputs": [
        {
          "internalType": "uint256",
          "name": "operId",
          "type": "uint256"
        }
      ],
      "stateMutability": "payable",
      "type": "function"
    },
    {
      "inputs": [
        {
          "components": [
            {
              "internalType": "address",
              "name": "tp",
              "type": "address"
            },
            {
              "internalType": "uint256",
              "name": "qTC",
              "type": "uint256"
            },
            {
              "internalType": "uint256",
              "name": "qTP",
              "type": "uint256"
            },
            {
              "internalType": "uint256",
              "name": "qACmin",
              "type": "uint256"
            },
            {
              "internalType": "address",
              "name": "sender",
              "type": "address"
            },
            {
              "internalType": "address",
              "name": "recipient",
              "type": "address"
            },
            {
              "internalType": "address",
              "name": "vendor",
              "type": "address"
            }
          ],
          "internalType": "struct MocCommons.RedeemTCandTPParams",
          "name": "params",
          "type": "tuple"
        }
      ],
      "name": "queueRedeemTCandTP",
      "outputs": [
        {
          "internalType": "uint256",
          "name": "operId",
          "type": "uint256"
        }
      ],
      "stateMutability": "payable",
      "type": "function"
    },
    {
      "inputs": [
        {
          "components": [
            {
              "internalType": "address",
              "name": "tp",
              "type": "address"
            },
            {
              "internalType": "uint256",
              "name": "qTP",
              "type": "uint256"
            },
            {
              "internalType": "uint256",
              "name": "qACmin",
              "type": "uint256"
            },
            {
              "internalType": "address",
              "name": "sender",
              "type": "address"
            },
            {
              "internalType": "address",
              "name": "recipient",
              "type": "address"
            },
            {
              "internalType": "address",
              "name": "vendor",
              "type": "address"
            }
          ],
          "internalType": "struct MocCommons.RedeemTPParams",
          "name": "params",
          "type": "tuple"
        }
      ],
      "name": "queueRedeemTP",
      "outputs": [
        {
          "internalType": "uint256",
          "name": "operId",
          "type": "uint256"
        }
      ],
      "stateMutability": "payable",
      "type": "function"
    },
    {
      "inputs": [
        {
          "components": [
            {
              "internalType": "address",
              "name": "tp",
              "type": "address"
            },
            {
              "internalType": "uint256",
              "name": "qTC",
              "type": "uint256"
            },
            {
              "internalType": "uint256",
              "name": "qTPmin",
              "type": "uint256"
            },
            {
              "internalType": "uint256",
              "name": "qACmax",
              "type": "uint256"
            },
            {
              "internalType": "address",
              "name": "sender",
              "type": "address"
            },
            {
              "internalType": "address",
              "name": "recipient",
              "type": "address"
            },
            {
              "internalType": "address",
              "name": "vendor",
              "type": "address"
            }
          ],
          "internalType": "struct MocCommons.SwapTCforTPParams",
          "name": "params",
          "type": "tuple"
        }
      ],
      "name": "queueSwapTCforTP",
      "outputs": [
        {
          "internalType": "uint256",
          "name": "operId",
          "type": "uint256"
        }
      ],
      "stateMutability": "payable",
      "type": "function"
    },
    {
      "inputs": [
        {
          "components": [
            {
              "internalType": "address",
              "name": "tp",
              "type": "address"
            },
            {
              "internalType": "uint256",
              "name": "qTP",
              "type": "uint256"
            },
            {
              "internalType": "uint256",
              "name": "qTCmin",
              "type": "uint256"
            },
            {
              "internalType": "uint256",
              "name": "qACmax",
              "type": "uint256"
            },
            {
              "internalType": "address",
              "name": "sender",
              "type": "address"
            },
            {
              "internalType": "address",
              "name": "recipient",
              "type": "address"
            },
            {
              "internalType": "address",
              "name": "vendor",
              "type": "address"
            }
          ],
          "internalType": "struct MocCommons.SwapTPforTCParams",
          "name": "params",
          "type": "tuple"
        }
      ],
      "name": "queueSwapTPforTC",
      "outputs": [
        {
          "internalType": "uint256",
          "name": "operId",
          "type": "uint256"
        }
      ],
      "stateMutability": "payable",
      "type": "function"
    },
    {
      "inputs": [
        {
          "components": [
            {
              "internalType": "address",
              "name": "tpFrom",
              "type": "address"
            },
            {
              "internalType": "address",
              "name": "tpTo",
              "type": "address"
            },
            {
              "internalType": "uint256",
              "name": "qTP",
              "type": "uint256"
            },
            {
              "internalType": "uint256",
              "name": "qTPmin",
              "type": "uint256"
            },
            {
              "internalType": "uint256",
              "name": "qACmax",
              "type": "uint256"
            },
            {
              "internalType": "address",
              "name": "sender",
              "type": "address"
            },
            {
              "internalType": "address",
              "name": "recipient",
              "type": "address"
            },
            {
              "internalType": "address",
              "name": "vendor",
              "type": "address"
            }
          ],
          "internalType": "struct MocCommons.SwapTPforTPParams",
          "name": "params",
          "type": "tuple"
        }
      ],
      "name": "queueSwapTPforTP",
      "outputs": [
        {
          "internalType": "uint256",
          "name": "operId",
          "type": "uint256"
        }
      ],
      "stateMutability": "payable",
      "type": "function"
    },
    {
      "inputs": [],
      "name": "readyToExecute",
      "outputs": [
        {
          "internalType": "bool",
          "name": "",
          "type": "bool"
        }
      ],
      "stateMutability": "view",
      "type": "function"
    },
    {
      "inputs": [],
      "name": "redeemTCandTPExecFee",
      "outputs": [
        {
          "internalType": "uint256",
          "name": "",
          "type": "uint256"
        }
      ],
      "stateMutability": "view",
      "type": "function"
    },
    {
      "inputs": [
        {
          "internalType": "contract MocCARC20Deferred",
          "name": "bucket_",
          "type": "address"
        }
      ],
      "name": "registerBucket",
      "outputs": [],
      "stateMutability": "nonpayable",
      "type": "function"
    },
    {
      "inputs": [
        {
          "internalType": "bytes32",
          "name": "role",
          "type": "bytes32"
        },
        {
          "internalType": "address",
          "name": "account",
          "type": "address"
        }
      ],
      "name": "renounceRole",
      "outputs": [],
      "stateMutability": "nonpayable",
      "type": "function"
    },
    {
      "inputs": [
        {
          "internalType": "bytes32",
          "name": "role",
          "type": "bytes32"
        },
        {
          "internalType": "address",
          "name": "account",
          "type": "address"
        }
      ],
      "name": "revokeRole",
      "outputs": [],
      "stateMutability": "nonpayable",
      "type": "function"
    },
    {
      "inputs": [
        {
          "internalType": "uint128",
          "name": "maxOperPerBatch_",
          "type": "uint128"
        }
      ],
      "name": "setMaxOperPerBatch",
      "outputs": [],
      "stateMutability": "nonpayable",
      "type": "function"
    },
    {
      "inputs": [
        {
          "internalType": "uint128",
          "name": "minOperWaitingBlk_",
          "type": "uint128"
        }
      ],
      "name": "setMinOperWaitingBlk",
      "outputs": [],
      "stateMutability": "nonpayable",
      "type": "function"
    },
    {
      "inputs": [
        {
          "internalType": "address",
          "name": "newPauser_",
          "type": "address"
        }
      ],
      "name": "setPauser",
      "outputs": [],
      "stateMutability": "nonpayable",
      "type": "function"
    },
    {
      "inputs": [],
      "name": "stoppable",
      "outputs": [
        {
          "internalType": "bool",
          "name": "",
          "type": "bool"
        }
      ],
      "stateMutability": "view",
      "type": "function"
    },
    {
      "inputs": [
        {
          "internalType": "bytes4",
          "name": "interfaceId",
          "type": "bytes4"
        }
      ],
      "name": "supportsInterface",
      "outputs": [
        {
          "internalType": "bool",
          "name": "",
          "type": "bool"
        }
      ],
      "stateMutability": "view",
      "type": "function"
    },
    {
      "inputs": [],
      "name": "swapTCforTPExecFee",
      "outputs": [
        {
          "internalType": "uint256",
          "name": "",
          "type": "uint256"
        }
      ],
      "stateMutability": "view",
      "type": "function"
    },
    {
      "inputs": [],
      "name": "swapTPforTCExecFee",
      "outputs": [
        {
          "internalType": "uint256",
          "name": "",
          "type": "uint256"
        }
      ],
      "stateMutability": "view",
      "type": "function"
    },
    {
      "inputs": [],
      "name": "swapTPforTPExecFee",
      "outputs": [
        {
          "internalType": "uint256",
          "name": "",
          "type": "uint256"
        }
      ],
      "stateMutability": "view",
      "type": "function"
    },
    {
      "inputs": [],
      "name": "tcMintExecFee",
      "outputs": [
        {
          "internalType": "uint256",
          "name": "",
          "type": "uint256"
        }
      ],
      "stateMutability": "view",
      "type": "function"
    },
    {
      "inputs": [],
      "name": "tcRedeemExecFee",
      "outputs": [
        {
          "internalType": "uint256",
          "name": "",
          "type": "uint256"
        }
      ],
      "stateMutability": "view",
      "type": "function"
    },
    {
      "inputs": [],
      "name": "tpMintExecFee",
      "outputs": [
        {
          "internalType": "uint256",
          "name": "",
          "type": "uint256"
        }
      ],
      "stateMutability": "view",
      "type": "function"
    },
    {
      "inputs": [],
      "name": "tpRedeemExecFee",
      "outputs": [
        {
          "internalType": "uint256",
          "name": "",
          "type": "uint256"
        }
      ],
      "stateMutability": "view",
      "type": "function"
    },
    {
      "inputs": [],
      "name": "unpause",
      "outputs": [],
      "stateMutability": "nonpayable",
      "type": "function"
    },
    {
      "inputs": [
        {
          "components": [
            {
              "internalType": "uint256",
              "name": "tcMintExecFee",
              "type": "uint256"
            },
            {
              "internalType": "uint256",
              "name": "tcRedeemExecFee",
              "type": "uint256"
            },
            {
              "internalType": "uint256",
              "name": "tpMintExecFee",
              "type": "uint256"
            },
            {
              "internalType": "uint256",
              "name": "tpRedeemExecFee",
              "type": "uint256"
            },
            {
              "internalType": "uint256",
              "name": "swapTPforTPExecFee",
              "type": "uint256"
            },
            {
              "internalType": "uint256",
              "name": "swapTPforTCExecFee",
              "type": "uint256"
            },
            {
              "internalType": "uint256",
              "name": "swapTCforTPExecFee",
              "type": "uint256"
            },
            {
              "internalType": "uint256",
              "name": "redeemTCandTPExecFee",
              "type": "uint256"
            },
            {
              "internalType": "uint256",
              "name": "mintTCandTPExecFee",
              "type": "uint256"
            }
          ],
          "internalType": "struct MocQueueExecFees.InitializeMocQueueExecFeesParams",
          "name": "mocQueueExecFeesParams_",
          "type": "tuple"
        }
      ],
      "name": "updateExecutionFees",
      "outputs": [],
      "stateMutability": "nonpayable",
      "type": "function"
    },
    {
      "inputs": [
        {
          "internalType": "address",
          "name": "newImplementation",
          "type": "address"
        }
      ],
      "name": "upgradeTo",
      "outputs": [],
      "stateMutability": "nonpayable",
      "type": "function"
    },
    {
      "inputs": [
        {
          "internalType": "address",
          "name": "newImplementation",
          "type": "address"
        },
        {
          "internalType": "bytes",
          "name": "data",
          "type": "bytes"
        }
      ],
      "name": "upgradeToAndCall",
      "outputs": [],
      "stateMutability": "payable",
      "type": "function"
    }
  ],
  "bytecode": "0x60a080604052346100315730608052614b30908161003782396080518181816110ef0152818161125e01526122c00152f35b600080fdfe6080604052600436101561001257600080fd5b60003560e01c8062c6e88e1461275757806301ffc9a7146127015780630c340a24146126d85780631826ebf0146126745780631a0c544014612606578063248a9ca3146125d65780632b994849146125b75780632d88af4a146125625780632f2ff15d1461252957806334975a41146123bb57806336568abe146123275780633659cfe61461228e5780633bb4b05c1461224b5780633cbcf4c4146122265780633dc8797a146122075780633f4ba83a1461218d5780633fa9e0c61461216e578063435c7e37146120e457806347d8496a146120175780634981d04e14611fd45780634b64e492146112c15780634f1ef286146111d75780635210570c146111b257806352d1902d146110dc5780635c817aa3146110785780635c975abb146110525780635ee1d2bb1461100857806364d9e82114610fe9578063681fe70c14610fc55780636827435714610f9d5780636b59c22f14610ed05780636b76333014610e6c57806373e3d08614610e4d5780637656cd1014610e2e5780637c50b7e414610dea5780637e81a82114610d1d5780638456cb5914610c875780638a4737ab14610c285780638b20076c14610bc95780638e7e818914610ba157806391d1485414610b4e57806397ac81fb14610b2f5780639aac1c2a14610b105780639fd0506d14610ae3578063a217fddf14610ac7578063ad16c2de14610a59578063bb4872de14610a36578063bbe720d9146109c1578063c84d8bb6146108f4578063d17910e2146108d5578063d547741f1461089a578063d9a862d614610870578063db9014771461064f578063dbb0b6841461062d578063e4c0aaf4146105e7578063e4e1b7291461051a578063e97a4d631461044d578063eeab6f4b1461042e578063f2cee87a1461040f578063fa91a9a5146103225763fb8aafb8146102ba57600080fd5b3461031d57602036600319011261031d5760043560005261026a602052604060002060018060a01b03610319818354169160018401549360028101549180600383015416906005816004850154169301541692604051968796876128bb565b0390f35b600080fd5b60a036600319011261031d57610336612ec1565b61034d600080516020614adb833981519152612f42565b6103596101f854614950565b61026580546040519161036d604084612867565b60028352602083019260018060f81b03431684528260005261027060205260406000209051600a8110156103f95760ff6020958119905160081b1691161790558160005261026983526103c560046040600020614706565b604051828152600284820152600080516020614abb83398151915260403392a26103ef8154614779565b9055604051908152f35b634e487b7160e01b600052602160045260246000fd5b3461031d57600036600319011261031d5760206101fd54604051908152f35b3461031d57600036600319011261031d5760206101fb54604051908152f35b60a036600319011261031d57610461612ec1565b610478600080516020614adb833981519152612f42565b6104846101f754614950565b610265805460405191610498604084612867565b60018352602083019260018060f81b03431684528260005261027060205260406000209051600a8110156103f95760ff6020958119905160081b1691161790558160005261026783526104f060046040600020614706565b604051828152600184820152600080516020614abb83398151915260403392a26103ef8154614779565b60e036600319011261031d5761052e612ec1565b610545600080516020614adb833981519152612f42565b6105516101fe54614950565b610265805460405191610565604084612867565b60068352602083019260018060f81b03431684528260005261027060205260406000209051600a8110156103f95760ff6020958119905160081b1691161790558160005261026c83526105bd600460406000206147f3565b604051828152600684820152600080516020614abb83398151915260403392a26103ef8154614779565b3461031d57602036600319011261031d576004356001600160a01b0381169081900361031d57610615612e3e565b6001600160601b0360a01b6097541617609755600080f35b3461031d57600036600319011261031d5760206102715460801c604051908152f35b3461031d576101a036600319011261031d576001600160a01b036004358181169081900361031d57602435918216820361031d576044356001600160801b039283821680920361031d57606435938416840361031d5761012036608319011261031d576000549260ff8460081c161593848095610863575b801561084c575b156107f05761076592600191868360ff198316176000556107de575b5060ff60005460081c16926106fe84612ee2565b61070784612ee2565b61071084612ee2565b61071984612ee2565b61072284612ee2565b6001600160601b0360a01b609754161760975561073e83612ee2565b60ca5490620100008360b01b039060101b169061ff018360b01b031916171760ca55612ee2565b61076f6084614972565b6000549261078b60ff8560081c1661078681612ee2565b612ee2565b60016102325560801b6001600160801b03191617610271556107a957005b61ff0019166000557f7f26b83ff96e1f2b6a682f133852f6798a09c465da95921460cefb3847402498602060405160018152a1005b61ffff191661010117600055876106ea565b60405162461bcd60e51b815260206004820152602e60248201527f496e697469616c697a61626c653a20636f6e747261637420697320616c72656160448201526d191e481a5b9a5d1a585b1a5e995960921b6064820152608490fd5b50303b1580156106ce5750600160ff8216146106ce565b50600160ff8216106106c7565b3461031d57600036600319011261031d57610264546040516001600160a01b039091168152602090f35b3461031d57604036600319011261031d576004356024356001600160a01b038116810361031d57816108ce6108d3936149c2565b6128f5565b005b3461031d57600036600319011261031d5760206101fa54604051908152f35b60c036600319011261031d57610908612ec1565b61091f600080516020614adb833981519152612f42565b61092b6101fa54614950565b61026580546040519161093f604084612867565b60048352602083019260018060f81b03431684528260005261027060205260406000209051600a8110156103f95760ff6020958119905160081b1691161790558160005261026a835261099760046040600020614788565b604051828152600484820152600080516020614abb83398151915260403392a26103ef8154614779565b3461031d57602036600319011261031d576001600160a01b036004358181169081900361031d576109f0612e3e565b6102648054928316610a2457816108d3936001600160601b0360a01b16179055600080516020614adb8339815191526148ce565b604051630a646b7760e41b8152600490fd5b3461031d57600036600319011261031d57602060ff60ca54166040519015158152f35b3461031d57602036600319011261031d576004803560009081526102696020908152604091829020805460018201546002830154600384015493909601548551928352938201526001600160a01b03948516938101939093528316606083015291909116608082015260a090f35b3461031d57600036600319011261031d57602060405160008152f35b3461031d57600036600319011261031d5760ca5460405160109190911c6001600160a01b03168152602090f35b3461031d57600036600319011261031d5760206101f754604051908152f35b3461031d57600036600319011261031d5760206101f854604051908152f35b3461031d57604036600319011261031d576024356001600160a01b0381169081900361031d57600435600052610193602052604060002090600052602052602060ff604060002054166040519015158152f35b3461031d57600036600319011261031d5760206001600160801b036102715416604051908152f35b3461031d57602036600319011261031d5760043560005261026b602052604060002060018060a01b03610319818354169160018401549360028101549180600383015416906005816004850154169301541692604051968796876128bb565b3461031d57602036600319011261031d57600435600052610268602052604060002060018060a01b03610319818354169160018401549360028101549180600383015416906005816004850154169301541692604051968796876128bb565b3461031d57600036600319011261031d57610ca0612ec1565b60ca54601081901c6001600160a01b03163303610d0b5760ff811615610cf9576101009061ff0019161760ca557f62e78cea01bee320cd4e420270b5ea74000d11b0c9f74754ebdbfc544b05a2586020604051338152a1005b60405163866099c360e01b8152600490fd5b604051631d77d47760e21b8152600490fd5b60c036600319011261031d57610d31612ec1565b610d48600080516020614adb833981519152612f42565b610d546101f954614950565b610265805460405191610d68604084612867565b60038352602083019260018060f81b03431684528260005261027060205260406000209051600a8110156103f95760ff6020958119905160081b169116179055816000526102688352610dc060046040600020614788565b604051828152600384820152600080516020614abb83398151915260403392a26103ef8154614779565b3461031d57602036600319011261031d5760043560005261027060205260406000205460ff81169060405190600a8310156103f957604092825260081c6020820152f35b3461031d57600036600319011261031d5760206101fe54604051908152f35b3461031d57600036600319011261031d57602061026554604051908152f35b3461031d57602036600319011261031d5760043560005261026c602052604060002060018060a01b03610319818354169160018401549360028101549160038201548160048401541691600681600586015416940154169360405197889788612824565b60e036600319011261031d57610ee4612ec1565b610efb600080516020614adb833981519152612f42565b610f076101fd54614950565b610265805460405191610f1b604084612867565b60078352602083019260018060f81b03431684528260005261027060205260406000209051600a8110156103f95760ff6020958119905160081b1691161790558160005261026d8352610f73600460406000206147f3565b604051828152600784820152600080516020614abb83398151915260403392a26103ef8154614779565b3461031d57600036600319011261031d57610fb6612e3e565b60ca805460ff19166001179055005b3461031d57600036600319011261031d576020610266546102655414604051908152f35b3461031d57600036600319011261031d5760206101fc54604051908152f35b3461031d57602036600319011261031d576001600160801b03600435818116810361031d57611035612e3e565b610271805490921660809190911b6001600160801b031916179055005b3461031d57600036600319011261031d57602060ff60ca5460081c166040519015158152f35b3461031d57602036600319011261031d5760043560005261026e602052604060002060018060a01b03610319818354169160018401549360028101549160038201548160048401541691600681600586015416940154169360405197889788612824565b3461031d57600036600319011261031d577f00000000000000000000000000000000000000000000000000000000000000006001600160a01b031630036111475760206040517f360894a13ba1a3210667c828492db98dca3e2076cc3735a920a3ca505d382bbc8152f35b60405162461bcd60e51b815260206004820152603860248201527f555550535570677261646561626c653a206d757374206e6f742062652063616c60448201527f6c6564207468726f7567682064656c656761746563616c6c00000000000000006064820152608490fd5b3461031d57600036600319011261031d576111cb612e3e565b60ca805460ff19169055005b604036600319011261031d576001600160a01b03600435818116810361031d5760243567ffffffffffffffff811161031d573660238201121561031d578060040135916112238361289f565b916112316040519384612867565b838352366024858301011161031d576108d394600060208660019760246112b496018389013786010152807f0000000000000000000000000000000000000000000000000000000000000000169061128b82301415612974565b7f360894a13ba1a3210667c828492db98dca3e2076cc3735a920a3ca505d382bbc5416146129d5565b6112bc612e3e565b612a36565b3461031d57602036600319011261031d576004356001600160a01b038116900361031d576112ed612ec1565b60026102325414611f8f576002610232556113277fd8aa0f3194971a2a116679f7c2090f6939c8d4e01a2a8d7e41d55e5351469e63612f42565b6102665460006102655461027154908160801c8401808210600014611f845750909291925b818310611399575b50506102665580611368575b600161023255005b6000808080936004355af161137b612d11565b50156113875780611360565b604051638f58940960e01b8152600490fd5b9091600090600091816000526102706020526040600020604051906113bf604083612867565b546113cd60ff82168361318e565b60081c8060208301526001600160801b038616430310600014611452575060009250829050805b61143c575b156114355780600191337fb207e6b6b26274f3764b879e578b4539b8e37f41dff43932ddc87b3e04090974600080a3019301919092919261134c565b9250611354565b81600052610270602052600060408120556113f9565b8051600a8110156103f95760010361171657505080915060005261026760205261147f604060002061319a565b61026480546040805163235e81cf60e01b81528451600482015260208501516024820152908401516001600160a01b0390811660448301526060850151811660648301526080850151811660848301529091600091168260a48160c09485945af16000928392826116e1575b50506116655750506114fb612d11565b61150481613249565b906001600160e01b03198216630b63f1a760e01b8103611600575050611540600080516020614a7b8339815191529160405191829187836132b6565b0390a15b5460408201516020909201516001600160a01b039182169290911690823b1561031d576040516358f32de960e01b81526001600160a01b039290921660048301526024820152906000908290604490829084905af180156115f4576115e3575b505b806000526102676020526115d6604060002060046000918281558260018201558260028201558260038201550155565b6101f754906001806113f4565b60006115ee91612867565b846115a4565b6040513d6000823e3d90fd5b637912120160e01b03611636575061162e600080516020614a7b83398151915291604051918291878361327a565b0390a1611544565b600080516020614a9b833981519152915061162e90604051918291878352604060208401526040830190612e01565b7f5090a820029acae4d47b64da9af62ce04a5a1bdb546934e5fcfe091ee1f780ee91925060018060a01b03604085015116926116d986606060018060a01b03818901511697805194805192602082015190604083015192015192608060018060a01b039101511693604051988998896132fb565b0390a36115a6565b80919294506117059350903d1061170f575b6116fd8183612867565b810190613226565b92905089806114eb565b503d6116f3565b8051600a8110156103f957600203611a1b575050809150600052610269602052611743604060002061319a565b61026480546040805163bfe4262160e01b81528451600482015260208501516024820152908401516001600160a01b0390811660448301526060850151811660648301526080850151811660848301529091600091168260a48160c09485945af16000928392826119f6575b505061197a5750506117bf612d11565b6117c881613249565b6001600160e01b031981169163a5db715d60e01b83036118e357505060a0600080516020614a7b83398151915291604051908682526020820152601960608060408401528201527f496e73756666696369656e7420746320746f2072656465656d000000000000006080820152a15b54604082015191516001600160a01b039182169290911690823b1561031d576040516353b16d1760e01b81526001600160a01b039290921660048301526024820152906000908290604490829084905af180156115f4576118d2575b505b806000526102696020526118c5604060002060046000918281558260018201558260028201558260038201550155565b6101f854906001806113f4565b60006118dd91612867565b84611893565b90916354cde31360e01b810361191d575050611915600080516020614a7b83398151915291604051918291878361333a565b0390a1611837565b637912120160e01b0361194b5750611915600080516020614a7b83398151915291604051918291878361327a565b600080516020614a9b833981519152915061191590604051918291878352604060208401526040830190612e01565b7f7e7043742f69701e6292386d468d710f2d6e44bf93232a1e52f1641e50a9de1291925060018060a01b03604085015116926119ee86606060018060a01b03818901511697805194805192602082015190604083015192015192608060018060a01b039101511693604051988998896132fb565b0390a3611895565b8091929450611a119350903d1061170f576116fd8183612867565b92905089806117af565b8051600a8110156103f957600303611a465750509050611a3a81613480565b90816101f954926113f4565b8051600a8110156103f957600403611a715750509050611a6581613789565b90816101fa54926113f4565b8051600a8110156103f957600503611a9c5750509050611a90816139f8565b90816101ff54926113f4565b8051600a8110156103f957600603611ac75750509050611abb81613d8c565b90816101fe54926113f4565b8051600a8110156103f957600703611af25750509050611ae68161415a565b90816101fd54926113f4565b8051600a8110156103f957600803611b1d5750509050611b118161443c565b90816101fc54926113f4565b51600a8110156103f957600914611b35575b806113f4565b5080915060005261026f60205260006040812060405190611b5861010083612867565b60018060a01b03815416825260018060a01b03600182015416602083015260028101546040830152600381015460608301526004810154608083015260018060a01b0360058201541660a083015260018060a01b0360068201541660c0830152600760018060a01b039101541660e082015282825261026f60205281600760408220828155826001820155826002820155826003820155826004820155826005820155826006820155015560e060018060a01b0361026454166101046040518095819363391bf6cf861b835260018060a01b03875116600484015260018060a01b03602088015116602484015260408701516044840152606087015160648401526080870151608484015260018060a01b0360a08801511660a484015260018060a01b0360c08801511660c484015260018060a01b03868801511660e48401525af19182600091600094611f4d575b50611e9757509050611cb7612d11565b611cc081613249565b906001600160e01b03198216630b63f1a760e01b8103611e02575050611cfc600080516020614a7b8339815191529160405191829186836132b6565b0390a15b6102645460a0820151825160408401516001600160a01b039182169392821692909116803b1561031d57604051630e2c5e9960e41b81526001600160a01b03938416600482015293909216602484015260448301526000908290606490829084905af180156115f457611df1575b506102645460a08201516080909201516001600160a01b039182169290911690823b1561031d576040516358f32de960e01b81526001600160a01b039290921660048301526024820152906000908290604490829084905af180156115f457611de0575b505b6101fb54906001611b2f565b6000611deb91612867565b84611dd2565b6000611dfc91612867565b85611d6e565b63272e3f5960e21b8103611e3a575050611e32600080516020614a7b83398151915291604051918291868361410d565b0390a1611d00565b637912120160e01b03611e685750611e32600080516020614a7b83398151915291604051918291868361327a565b600080516020614a9b8339815191529150611e3290604051918291868352604060208401526040830190612e01565b7ff86f4487d2c5541b78f06d2368e28e0f4052e182124def54d5855bf2a01d325861012060018060a01b038451169260018060a01b036020860151169060018060a01b0360a0870151169560018060a01b0360c082015116976040820151928151602083015191606060408501519401519460e060018060a01b039101511695604051978852602088015260408701526060860152608085015260a084015260c083015260e082015286610100820152a4611dd4565b909350611f72915060e03d60e011611f7d575b611f6a8183612867565b8101906139d4565b925050909288611ca7565b503d611f60565b90509092919261134c565b60405162461bcd60e51b815260206004820152601f60248201527f5265656e7472616e637947756172643a207265656e7472616e742063616c6c006044820152606490fd5b3461031d5761012036600319011261031d57611fee612e3e565b610266546102655403612005576108d36004614972565b6040516315996eab60e01b8152600490fd5b60c036600319011261031d5761202b612ec1565b612042600080516020614adb833981519152612f42565b61204e6101ff54614950565b610265805460405191612062604084612867565b60058352602083019260018060f81b03431684528260005261027060205260406000209051600a8110156103f95760ff6020958119905160081b1691161790558160005261026b83526120ba60046040600020614788565b604051828152600584820152600080516020614abb83398151915260403392a26103ef8154614779565b3461031d57602036600319011261031d5760043560005261026f602052610100604060002060018060a01b03808254169181600182015416916002820154600383015460048401549183600586015416936007816006880154169601541695604051978852602088015260408701526060860152608085015260a084015260c083015260e0820152f35b3461031d57600036600319011261031d5760206101ff54604051908152f35b3461031d57600036600319011261031d5760ca5460ff8160081c16156121f557601081901c6001600160a01b03163303610d0b5761ff00191660ca557f5db9ee0a495bf2e6ff9c91a7834c1ba4fdd244a5e8aa4e537bd38aeae4b073aa6020604051338152a1005b604051637c7fd07960e01b8152600490fd5b3461031d57600036600319011261031d5760206101f954604051908152f35b3461031d57600036600319011261031d576020612241614869565b6040519015158152f35b3461031d57602036600319011261031d576004356001600160801b03811680910361031d57612278612e3e565b61027180546001600160801b0319169091179055005b3461031d57602036600319011261031d576004356001600160a01b03808216820361031d576108d3916122ed826000937f0000000000000000000000000000000000000000000000000000000000000000169061128b82301415612974565b6122f5612e3e565b6122fe8261289f565b9061230c6040519283612867565b828252601f1961231b8461289f565b01366020840137612a36565b3461031d57604036600319011261031d576024356001600160a01b03811680820361031d57330361235e576108d3906004356128f5565b60405162461bcd60e51b815260206004820152602f60248201527f416363657373436f6e74726f6c3a2063616e206f6e6c792072656e6f756e636560448201526e103937b632b9903337b91039b2b63360891b6064820152608490fd5b61010036600319011261031d576123d0612ec1565b6123e7600080516020614adb833981519152612f42565b6123f36101fb54614950565b6102658054604051612406604082612867565b600981526020810160018060f81b0343168152826000526102706020526040600020915190600a8210156103f9575160ff9190911660089190911b60ff1916179055600081815261026f602052604090206001600160a01b0360043581811694929085900361031d576001600160601b0360a01b94858254161781556001810160243583811680910361031d57868254161790556044356002820155606435600382015560843560048201556005810160a43583811680910361031d5786825416179055600681019060c4359183831680930361031d5760079287825416179055019060e43590811680910361031d57602094825416179055604051828152600984820152600080516020614abb83398151915260403392a26103ef8154614779565b3461031d57604036600319011261031d576004356024356001600160a01b038116810361031d578161255d6108d3936149c2565b6148ce565b3461031d57602036600319011261031d576004356001600160a01b038116810361031d5761258e612e3e565b60ca805462010000600160b01b03191660109290921b62010000600160b01b0316919091179055005b3461031d57600036600319011261031d57602061026654604051908152f35b3461031d57602036600319011261031d576004356000526101936020526020600160406000200154604051908152f35b3461031d57602036600319011261031d576004803560009081526102676020908152604091829020805460018201546002830154600384015493909601548551928352938201526001600160a01b03948516938101939093528316606083015291909116608082015260a090f35b3461031d57602036600319011261031d5760043560005261026d602052604060002060018060a01b03610319818354169160018401549360028101549160038201548160048401541691600681600586015416940154169360405197889788612824565b3461031d57600036600319011261031d576097546040516001600160a01b039091168152602090f35b3461031d57602036600319011261031d5760043563ffffffff60e01b811680910361031d57602090637965db0b60e01b8114908115612746575b506040519015158152f35b6301ffc9a760e01b1490508261273b565b60e036600319011261031d5761276b612ec1565b612782600080516020614adb833981519152612f42565b61278e6101fc54614950565b6102658054604051916127a2604084612867565b60088352602083019260018060f81b03431684528260005261027060205260406000209051600a8110156103f95760ff6020958119905160081b1691161790558160005261026e83526127fa600460406000206147f3565b604051828152600884820152600080516020614abb83398151915260403392a26103ef8154614779565b6001600160a01b039182168152602081019290925260408201929092526060810192909252918216608082015291811660a083015290911660c082015260e00190565b90601f8019910116810190811067ffffffffffffffff82111761288957604052565b634e487b7160e01b600052604160045260246000fd5b67ffffffffffffffff811161288957601f01601f191660200190565b6001600160a01b0391821681526020810192909252604082019290925291811660608301529182166080820152911660a082015260c00190565b9060009180835261019380602052604084209260018060a01b03169283855260205260ff60408520541661292a575b50505050565b818452602052604083208284526020526040832060ff1981541690557ff6391f5c32d9c69d2a47ea670b442974b53935d1edc7fd64eb21e047a839171b339380a438808080612924565b1561297b57565b60405162461bcd60e51b815260206004820152602c60248201527f46756e6374696f6e206d7573742062652063616c6c6564207468726f7567682060448201526b19195b1959d85d1958d85b1b60a21b6064820152608490fd5b156129dc57565b60405162461bcd60e51b815260206004820152602c60248201527f46756e6374696f6e206d7573742062652063616c6c6564207468726f7567682060448201526b6163746976652070726f787960a01b6064820152608490fd5b9060ff7f4910fdfa16fed3260ed0e7147f7cc6da11a60208b5b9406d12a635614ffd91435416600014612a705750612a6e9150612c6f565b565b6040516352d1902d60e01b8152602093919291906001600160a01b038316908581600481855afa60009181612c3d575b50612b015760405162461bcd60e51b815260048101879052602e60248201527f45524331393637557067726164653a206e657720696d706c656d656e7461746960448201526d6f6e206973206e6f74205555505360901b6064820152608490fd5b9394937fc9f76b5ec45e5cdef99837d7b6d2467235c1df8933c8ca56df5c35afa2c7d44401612be657612b3383612c6f565b7fbc7cd75a20ee27fd9adebab32041f755214dbc6bffa90cc0225b39da2e5c2d3b600080a283511590811591612bde575b50612b6e57505050565b600080612bdb94612b7f602761289f565b94612b8d6040519687612867565b602786527f416464726573733a206c6f772d6c6576656c2064656c65676174652063616c6c81870152660819985a5b195960ca1b604087015281519101845af4612bd5612d11565b91612d41565b50565b905038612b64565b60405162461bcd60e51b815260048101859052602960248201527f45524331393637557067726164653a20756e737570706f727465642070726f786044820152681a58589b195555525160ba1b6064820152608490fd5b90918782813d8311612c68575b612c548183612867565b81010312612c655750519038612aa0565b80fd5b503d612c4a565b803b15612cb6577f360894a13ba1a3210667c828492db98dca3e2076cc3735a920a3ca505d382bbc80546001600160a01b0319166001600160a01b03909216919091179055565b60405162461bcd60e51b815260206004820152602d60248201527f455243313936373a206e657720696d706c656d656e746174696f6e206973206e60448201526c1bdd08184818dbdb9d1c9858dd609a1b6064820152608490fd5b3d15612d3c573d90612d228261289f565b91612d306040519384612867565b82523d6000602084013e565b606090565b91929015612da35750815115612d55575090565b3b15612d5e5790565b60405162461bcd60e51b815260206004820152601d60248201527f416464726573733a2063616c6c20746f206e6f6e2d636f6e74726163740000006044820152606490fd5b825190915015612db65750805190602001fd5b60405162461bcd60e51b815260206004820152908190612dda906024830190612e01565b0390fd5b60005b838110612df15750506000910152565b8181015183820152602001612de1565b90602091612e1a81518092818552858086019101612dde565b601f01601f1916010190565b9081602091031261031d5751801515810361031d5790565b60975460405163d994d6d560e01b815233600482015290602090829060249082906001600160a01b03165afa9081156115f457600091612e93575b5015612e8157565b604051631dd1b1b560e21b8152600490fd5b612eb4915060203d8111612eba575b612eac8183612867565b810190612e26565b38612e79565b503d612ea2565b60ff60ca5460081c16612ed057565b60405163783bb6c960e11b8152600490fd5b15612ee957565b60405162461bcd60e51b815260206004820152602b60248201527f496e697469616c697a61626c653a20636f6e7472616374206973206e6f74206960448201526a6e697469616c697a696e6760a81b6064820152608490fd5b8060005260206101938152604060002033600052815260ff6040600020541615612f6a575050565b6130006048612f8483612f7e601433613021565b95613021565b936040519485917f416363657373436f6e74726f6c3a206163636f756e742000000000000000000086840152612fc38151809288603787019101612dde565b82017001034b99036b4b9b9b4b733903937b6329607d1b6037820152612ff182518093888785019101612dde565b01036028810185520183612867565b612dda60405192839262461bcd60e51b845260048401526024830190612e01565b60019180831b91906001600160ff1b03811603613162576002820192838311613162576130666130508561289f565b9461305e6040519687612867565b80865261289f565b6020939085850190601f190136823785511561317857603090538451821015613178576078602186015381810180911161316257905b8082116130f05750506130ad575090565b6064906040519062461bcd60e51b825280600483015260248201527f537472696e67733a20686578206c656e67746820696e73756666696369656e746044820152fd5b9091600f8116601081101561314d57855184101561314d576f181899199a1a9b1b9c1cb0b131b232b360811b901a85840185015360041c91801561313857600019019061309c565b60246000634e487b7160e01b81526011600452fd5b60246000634e487b7160e01b81526032600452fd5b634e487b7160e01b600052601160045260246000fd5b634e487b7160e01b600052603260045260246000fd5b600a8210156103f95752565b906040516131a960a082612867565b825481526001830154602082015260028301546001600160a01b0390811660408301526003840154811660608301526004909301549092166080830152565b919082608091031261031d57604051613202608082612867565b60608082948051845260208101516020850152604081015160408501520151910152565b909160c08284031261031d576132468251936040602085015194016131e8565b90565b906020825192015163ffffffff60e01b90818116936004811061326b57505050565b60040360031b82901b16169150565b909160a092825263ffffffff60e01b16602082015260606040820152600c60608201526b4c6f7720636f76657261676560a01b60808201520190565b909160a092825263ffffffff60e01b166020820152606060408201526015606082015274125b9cdd59999a58da595b9d081c5858c81cd95b9d605a1b60808201520190565b94919260e0969399989794919961010087019a8752602087015260408601526060850152608084015260a083015260018060a01b031660c08201520152565b909160a092825263ffffffff60e01b16602082015260606040820152601a60608201527f7141432062656c6f77206d696e696d756d20726571756972656400000000000060808201520190565b9060405161339660c082612867565b82546001600160a01b039081168252600184015460208301526002840154604083015260038401548116606083015260048401548116608083015260059093015490921660a0830152565b60a09081600180821b03918281511685526020810151602086015260408101516040860152826060820151166060860152826080820151166080860152015116910152565b909160c092825263ffffffff60e01b16602082015260606040820152602460608201527f4d617820666c757820636170616369746f72206f7065726174696f6e2072656160808201526318da195960e21b60a08201520190565b90600082815261026892602090848252604061349d818520613387565b61026480548351635a21a61960e11b81526001600160a01b039992969160c090829060c49082908c908f166134d5600484018b6133e1565b5af1908189918a93613765575b506136ec5750506134f1612d11565b986134fb8a613249565b966001600160e01b031988166306da41e560e11b810361354257505050505050600080516020614a7b8339815191529394955061353c905192839283613426565b0390a190565b869998839598969c63c39b739f60e09996991b831460001461365b57505060a0600080516020614a7b8339815191529185519088825289820152606086820152601760608201527f496e73756666696369656e7420747020746f206d696e740000000000000000006080820152a15b54169160608a01511698015197813b156136575786516358f32de960e01b81526001600160a01b039091166004820152602481019890985284908890818381604481015b03925af196871561364d576136349697613639575b505b8352522060056000918281558260018201558260028201558260038201558260048201550155565b600190565b8461364691959295612867565b923861360a565b85513d86823e3d90fd5b8580fd5b9091630b63f1a760e01b810361369457505061368c600080516020614a7b83398151915291855191829189836132b6565b0390a16135b1565b637912120160e01b036136c1575061368c600080516020614a7b833981519152918551918291898361327a565b600080516020614a9b833981519152915061368c908551918291898352878b84015287830190612e01565b8492959897507f125247fdf990b9b419d4b4f895b1bb75bc485e3f8b813cf5557a4a12a56d054d908b6136349b9c9395989651169261375d878c836060890151169784608082015116998c820151958d8251908301519160a0606087860151950151950151169451988998896132fb565b0390a461360c565b909250613780915060c03d811161170f576116fd8183612867565b929050386134e2565b90600082815261026a60209381855260406137a5818520613387565b6102648054835163ad4e666d60e01b81526001600160a01b03999296939160c090829060c49082908c908f166137de60048401896133e1565b5af1908189918a936139b0575b5061393f5750506137fa612d11565b9561380487613249565b966001600160e01b031988166306da41e560e11b810361384557505050505050600080516020614a7b8339815191529394955061353c905192839283613426565b908b9394969998916354cde31360e09997991b81146000146138df575050613882600080516020614a7b833981519152918a51918291888361333a565b0390a15b54169083896060830151169982511691015198823b156138db578751630e2c5e9960e41b81526001600160a01b03918216600482015291166024820152604481019890985284908890818381606481016135f5565b8680fd5b637912120160e01b03613914575061390c600080516020614a7b833981519152918a51918291888361327a565b0390a1613886565b600080516020614a9b833981519152915061390c908a519182918883528c8a8401528c830190612e01565b8a9193959897507f625b9fc283a619f53beb817d79b8ab044d60e307fd2af4bb89fa5e9a24ce4ebc906136349a9b8498969851169261375d878c836060890151169784608082015116998c820151958d8251908301519160a0606087860151950151950151169451988998896132fb565b9092506139cb915060c03d811161170f576116fd8183612867565b929050386137eb565b60e08183031261031d578051926132466020830151936060604085015194016131e8565b90600082815261026b80602052604093613a13858420613387565b9460018060a01b0395610264938560e08987541660c486518094819363883d21cb861b8352613a45600484018a6133e1565b5af187918291829181613c6f575b50613bf457505050613a63612d11565b97613a6d89613249565b956001600160e01b031987166306da41e560e11b8103613aad575050505050600080516020614a7b8339815191529394955061353c905192839283613426565b9682949a869998630b63f1a760e0999896991b8114600014613b93575050613aea600080516020614a7b83398151915291855191829189836132b6565b0390a15b54169160608901511697015196813b15613b8f5785516358f32de960e01b81526001600160a01b03919091166004820152602481019790975283908790604490829084905af1958615613b85576136349596613b71575b505b82526020522060056000918281558260018201558260028201558260038201558260048201550155565b83613b7e91949294612867565b9138613b45565b84513d85823e3d90fd5b8480fd5b637912120160e01b03613bc85750613bc0600080516020614a7b833981519152918551918291898361327a565b0390a1613aee565b600080516020614a9b8339815191529150613bc090855191829189835287602084015287830190612e01565b85989750907f03e9e02a94d7486426fcf2b05a27e911b8d1b61e2e1dcf103785512f46c8476491613c678887959699988e6136349e9f9951169689606082015116988a6080830151169a60208301519782519060208401519260a0606088870151960151960151169551998a998a613c94565b0390a4613b47565b91509250613c8b915060e03d8111611f7d57611f6a8183612867565b93905038613a53565b95926101009794919a9998959261012088019b8852602088015260408701526060860152608085015260a084015260c083015260018060a01b031660e08201520152565b90604051613ce760e082612867565b82546001600160a01b0390811682526001840154602083015260028401546040830152600384015460608301526004840154811660808301526005840154811660a083015260069093015490921660c0830152565b60c0908160018060a01b03918281511685526020810151602086015260408101516040860152606081015160608601528260808201511660808601528260a08201511660a0860152015116910152565b90600082815261026c602090808252604090613da9828520613cd8565b61026480548451633631a6bb60e21b81526001600160a01b039693929160e090829060e49082908c908c16613de1600484018a613d3c565b5af19088828a928b946140e5575b5061406b57505050613dff612d11565b95613e0987613249565b966001600160e01b03198816906306da41e560e11b8203613e4b57505050505050509361353c600080516020614a7b8339815191529394955192839283613426565b637a031da360e19a99929394959697989a1b8314600014613fda57505060a0600080516020614a7b833981519152918951908c82528782015260608a8201526014606082015273125b9cdd59999a58da595b9d081d1c081cd95b9d60621b6080820152a15b808254169160808401928284511690838651168a87015192823b15613fd6578b51630e2c5e9960e41b81526001600160a01b03918216600482015291166024820152604481019290925288908290606490829084905af18015613fcc57613fb4575b5090808592541692511692015191813b156136575786516353b16d1760e01b81526001600160a01b039091166004820152602481019290925284908290818381604481015b03925af1801561364d57613f9b575b5061363494955b8352522060066000918281558260018201558260028201558260038201558260048201558260058201550155565b613fa6848092612867565b613fb05738613f66565b8280fd5b9187613fc38293998895612867565b97919250613f12565b89513d8a823e3d90fd5b8a80fd5b90916354cde31360e01b810361401357505061400b600080516020614a7b8339815191529189519182918d8361333a565b0390a1613eb0565b637912120160e01b03614040575061400b600080516020614a7b8339815191529189519182918d8361327a565b600080516020614a9b833981519152915061400b9089519182918d83528b898401528b830190612e01565b84929350907f4d33a2f9c4f66a101333f7ca2ab718582e763c941ff6fc304d2d4408d43a8284916140dd8d8a6136349e9f999a9b9d9c809951169689608082015116988a60a0830151169a8d80840151978351918401519260c0606088870151960151960151169551998a998a613c94565b0390a4613f6d565b91509250614101915060e03d8111611f7d57611f6a8183612867565b92905090919238613def565b909160a092825263ffffffff60e01b16602082015260606040820152601a60608201527f7154702062656c6f77206d696e696d756d20726571756972656400000000000060808201520190565b90600082815261026d602090808252604090614177828520613cd8565b610264805484516312bce9bf60e21b81526001600160a01b039693929160e090829060e49082908c908c166141af600484018a613d3c565b5af1908189918a93614416575b506143a55750506141cb612d11565b956141d587613249565b966001600160e01b031988166306da41e560e11b810361421657505050505050509361353c600080516020614a7b8339815191529394955192839283613426565b630b63f1a760e09a999394959697989a1b8114600014614316575050614251600080516020614a7b8339815191529189519182918d836132b6565b0390a15b8082541691608084019282845116908686015191813b15614312578a516353b16d1760e01b81526001600160a01b039091166004820152602481019290925288908290818381604481015b03925af18015613fcc576142f9575b509080606092541692511692015191813b156136575786516358f32de960e01b81526001600160a01b03909116600482015260248101929092528490829081838160448101613f57565b9187614309829399606095612867565b979192506142af565b8980fd5b63272e3f5960e21b810361434d575050614345600080516020614a7b8339815191529189519182918d8361410d565b0390a1614255565b637912120160e01b0361437a5750614345600080516020614a7b8339815191529189519182918d8361327a565b600080516020614a9b83398151915291506143459089519182918d83528b898401528b830190612e01565b8392507ff8dcb57698d7067da58ab71c48cd2e3b329b69e7e9853f88630c2c69c2557c7890886136349b9c9697989a9993955116926140dd878c83608089015116978460a082015116998c820151958d8251908301519160c0606087860151950151950151169451988998896132fb565b909250614431915060e03d8111611f7d57611f6a8183612867565b9250509091386141bc565b90600082815261026e602090808252604090614459828520613cd8565b61026480548451635e272ad960e11b81526001600160a01b039693929160e090829060e49082908c908c16614491600484018a613d3c565b5af1908189918a936146cc575b5061465b5750506144ad612d11565b956144b787613249565b966001600160e01b03198816906306da41e560e11b82036144f957505050505050509361353c600080516020614a7b8339815191529394955192839283613426565b630b63f1a760e09a99929394959697989a1b83146000146145945750600080516020614a7b83398151915291506145369089519182918d836132b6565b0390a15b808254169160808401928284511690838651168787015192823b15613fd6578b51630e2c5e9960e41b81526001600160a01b03918216600482015291166024820152604481019290925288908290818381606481016142a0565b63f577bef560e01b83036145f957505060a0600080516020614a7b833981519152918951908c82528782015260608a820152601a60608201527f7154632062656c6f77206d696e696d756d2072657175697265640000000000006080820152a161453a565b9091637912120160e01b036146305750614628600080516020614a7b8339815191529189519182918d8361327a565b0390a161453a565b600080516020614a9b83398151915291506146289089519182918d83528b898401528b830190612e01565b8392507f8ab42044ce8b230e021e5542eb53688d77443e50ee84cda7917f6bdd833c697f90886136349b9c9697989a9993955116926140dd878c83608089015116978460a082015116998c820151958d8251908301519160c0606087860151950151950151169451988998896132fb565b9092506146e7915060e03d8111611f7d57611f6a8183612867565b92505090913861449e565b356001600160a01b038116810361031d5790565b813581556020820135600182015560028101906001600160a01b039061476f9060809060049084614739604089016146f2565b16956001600160601b0360a01b9687825416179055600381018561475f60608a016146f2565b16878254161790550194016146f2565b1690825416179055565b60001981146131625760010190565b6001600160a01b0361476f60a06005836147a1876146f2565b16946001600160601b03831b9586825416178155602087013560018201556040870135600282015560038101856147da60608a016146f2565b1687825416179055600481018561475f60808a016146f2565b6001600160a01b0361476f60c060068361480c876146f2565b16946001600160601b0360a01b9586825416178155602087013560018201556040870135600282015560608701356003820155600481018561485060808a016146f2565b1687825416179055600581018561475f60a08a016146f2565b610266546102655481146148c8576000526102706020526020604060002060405190614896604083612867565b546148a460ff82168361318e565b60081c91829101526001600160801b03610271541643039043821161316257111590565b50600090565b9060009180835261019380602052604084209260018060a01b03169283855260205260ff604085205416156149035750505050565b8184526020526040832082845260205260408320600160ff198254161790557f2f8788117e7eff1d82e926ec794901d17c78024a50270940304540a733656f0d339380a438808080612924565b34810361495a5750565b6024906040519063049e6f6960e41b82526004820152fd5b80356101f75560208101356101f85560408101356101f95560608101356101fa5560808101356101fb5560a08101356101fc5560c08101356101fd5560e08101356101fe5561010001356101ff55565b6097546040805163d994d6d560e01b8152336004820152909291602090829060249082906001600160a01b03165afa908115614a6f57600091614a51575b50159081614a21575b50614a115750565b51631dd1b1b560e21b8152600490fd5b90506000526101936020526001816000200154600052806000203360005260205260ff8160002054161538614a09565b614a69915060203d8111612eba57612eac8183612867565b38614a00565b83513d6000823e3d90fdfe5bbebb64d62396f99cae4b3b78d9386cb0f2893aab6a69f27eb61f8e7c29775e3ea497186958ec638834f65ec5a571c2b2e877e5d59a76804ec0448fac7829babfa5d40ab595fa613b17566ea5e38a5cac79a71f09ce1435246db2e6805816c27d5e686862ec2250829eb6dee4a7cb0834865072f135485c874d3bbbe39bdfdba2646970667358221220dc167ed9e03bdee9b8602b726e45fe4aba13a92c39b57c3c8b1267166c485eb164736f6c63430008140033",
  "linkReferences": {},
  "deployedLinkReferences": {},
  "devdoc": {
    "events": {
      "AdminChanged(address,address)": {
        "details": "Emitted when the admin account has changed."
      },
      "BeaconUpgraded(address)": {
        "details": "Emitted when the beacon is changed."
      },
      "Initialized(uint8)": {
        "details": "Triggered when the contract has been initialized or reinitialized."
      },
      "RoleAdminChanged(bytes32,bytes32,bytes32)": {
        "details": "Emitted when `newAdminRole` is set as ``role``'s admin role, replacing `previousAdminRole` `DEFAULT_ADMIN_ROLE` is the starting admin for all roles, despite {RoleAdminChanged} not being emitted signaling this. _Available since v3.1._"
      },
      "RoleGranted(bytes32,address,address)": {
        "details": "Emitted when `account` is granted `role`. `sender` is the account that originated the contract call, an admin role bearer except when using {AccessControl-_setupRole}."
      },
      "RoleRevoked(bytes32,address,address)": {
        "details": "Emitted when `account` is revoked `role`. `sender` is the account that originated the contract call:   - if using `revokeRole`, it is the admin role bearer   - if using `renounceRole`, it is the role bearer (i.e. `account`)"
      },
      "Upgraded(address)": {
        "details": "Emitted when the implementation is upgraded."
      }
    },
    "kind": "dev",
    "methods": {
      "changeGovernor(address)": {
        "params": {
          "newGovernor_": "New governor address"
        }
      },
      "execute(address)": {
        "details": "does not revert on Operation failure, throws Process and Error events according to the Oper type and result"
      },
      "getRoleAdmin(bytes32)": {
        "details": "Returns the admin role that controls `role`. See {grantRole} and {revokeRole}. To change a role's admin, use {_setRoleAdmin}."
      },
      "grantRole(bytes32,address)": {
        "details": "Grants `role` to `account`. If `account` had not been already granted `role`, emits a {RoleGranted} event. Requirements: - the caller must have ``role``'s admin role  OR   the caller must have be an authorized Governance changer. May emit a {RoleGranted} event."
      },
      "hasRole(bytes32,address)": {
        "details": "Returns `true` if `account` has been granted `role`."
      },
      "makeStoppable()": {
        "details": "Should be called through governance"
      },
      "makeUnstoppable()": {
        "details": "Should be called through governance"
      },
      "pause()": {
        "details": "Should only be called by the pauser and when it is stoppable"
      },
      "proxiableUUID()": {
        "details": "Implementation of the ERC1822 {proxiableUUID} function. This returns the storage slot used by the implementation. It is used to validate the implementation's compatibility when performing an upgrade. IMPORTANT: A proxy pointing at a proxiable contract should not be considered proxiable itself, because this risks bricking a proxy that upgrades to it, by delegating to itself until out of gas. Thus it is critical that this function revert if invoked through a proxy. This is guaranteed by the `notDelegated` modifier."
      },
      "queueMintTC((uint256,uint256,address,address,address))": {
        "returns": {
          "operId": "Identifier to track the Operation lifecycle"
        }
      },
      "queueMintTCandTP((address,uint256,uint256,address,address,address))": {
        "returns": {
          "operId": "Identifier to track the Operation lifecycle"
        }
      },
      "queueMintTP((address,uint256,uint256,address,address,address))": {
        "returns": {
          "operId": "Identifier to track the Operation lifecycle"
        }
      },
      "queueRedeemTC((uint256,uint256,address,address,address))": {
        "returns": {
          "operId": "Identifier to track the Operation lifecycle"
        }
      },
      "queueRedeemTCandTP((address,uint256,uint256,uint256,address,address,address))": {
        "returns": {
          "operId": "Identifier to track the Operation lifecycle"
        }
      },
      "queueRedeemTP((address,uint256,uint256,address,address,address))": {
        "returns": {
          "operId": "Identifier to track the Operation lifecycle"
        }
      },
      "queueSwapTCforTP((address,uint256,uint256,uint256,address,address,address))": {
        "returns": {
          "operId": "Identifier to track the Operation lifecycle"
        }
      },
      "queueSwapTPforTC((address,uint256,uint256,uint256,address,address,address))": {
        "returns": {
          "operId": "Identifier to track the Operation lifecycle"
        }
      },
      "queueSwapTPforTP((address,address,uint256,uint256,uint256,address,address,address))": {
        "returns": {
          "operId": "Identifier to track the Operation lifecycle"
        }
      },
      "registerBucket(address)": {
        "details": "in order to operate, the queue needs to be whitelisted as EXECUTOR on the bucket as well",
        "params": {
          "bucket_": "address of the mocCore implementation to interact with May emit a {RoleGranted} event for ENQUEUER role"
        }
      },
      "renounceRole(bytes32,address)": {
        "details": "Revokes `role` from the calling account. Roles are often managed via {grantRole} and {revokeRole}: this function's purpose is to provide a mechanism for accounts to lose their privileges if they are compromised (such as when a trusted device is misplaced). If the calling account had been revoked `role`, emits a {RoleRevoked} event. Requirements: - the caller must be `account`. May emit a {RoleRevoked} event."
      },
      "revokeRole(bytes32,address)": {
        "details": "Revokes `role` from `account`. If `account` had been granted `role`, emits a {RoleRevoked} event. Requirements: - the caller must have ``role``'s admin role  OR   the caller must have be an authorized Governance changer. May emit a {RoleRevoked} event."
      },
      "setMaxOperPerBatch(uint128)": {
        "params": {
          "maxOperPerBatch_": "maximum amount of operations allowed on a batch to avoid going over the block gas limit"
        }
      },
      "setMinOperWaitingBlk(uint128)": {
        "params": {
          "minOperWaitingBlk_": "minimum amount of blocks an operation needs to remain in the queue before it can be executed"
        }
      },
      "setPauser(address)": {
        "details": "Should be called through governance",
        "params": {
          "newPauser_": "Address of the new pauser"
        }
      },
      "supportsInterface(bytes4)": {
        "details": "See {IERC165-supportsInterface}."
      },
      "upgradeTo(address)": {
        "custom:oz-upgrades-unsafe-allow-reachable": "delegatecall",
        "details": "Upgrade the implementation of the proxy to `newImplementation`. Calls {_authorizeUpgrade}. Emits an {Upgraded} event."
      },
      "upgradeToAndCall(address,bytes)": {
        "custom:oz-upgrades-unsafe-allow-reachable": "delegatecall",
        "details": "Upgrade the implementation of the proxy to `newImplementation`, and subsequently execute the function call encoded in `data`. Calls {_authorizeUpgrade}. Emits an {Upgraded} event."
      }
    },
    "stateVariables": {
      "__gap": {
        "details": "This empty reserved space is put in place to allow future versions to add new variables without shifting down storage in the inheritance chain. See https://docs.openzeppelin.com/contracts/4.x/upgradeable#storage_gaps"
      }
    },
    "title": "MocQueue: Allows queue Operation deferral execution processing",
    "version": 1
  },
  "evm": {
    "bytecode": {
      "linkReferences": {},
      "opcodes": "PUSH1 0xA0 DUP1 PUSH1 0x40 MSTORE CALLVALUE PUSH2 0x31 JUMPI ADDRESS PUSH1 0x80 MSTORE PUSH2 0x4B30 SWAP1 DUP2 PUSH2 0x37 DUP3 CODECOPY PUSH1 0x80 MLOAD DUP2 DUP2 DUP2 PUSH2 0x10EF ADD MSTORE DUP2 DUP2 PUSH2 0x125E ADD MSTORE PUSH2 0x22C0 ADD MSTORE RETURN JUMPDEST PUSH1 0x0 DUP1 REVERT INVALID PUSH1 0x80 PUSH1 0x40 MSTORE PUSH1 0x4 CALLDATASIZE LT ISZERO PUSH2 0x12 JUMPI PUSH1 0x0 DUP1 REVERT JUMPDEST PUSH1 0x0 CALLDATALOAD PUSH1 0xE0 SHR DUP1 PUSH3 0xC6E88E EQ PUSH2 0x2757 JUMPI DUP1 PUSH4 0x1FFC9A7 EQ PUSH2 0x2701 JUMPI DUP1 PUSH4 0xC340A24 EQ PUSH2 0x26D8 JUMPI DUP1 PUSH4 0x1826EBF0 EQ PUSH2 0x2674 JUMPI DUP1 PUSH4 0x1A0C5440 EQ PUSH2 0x2606 JUMPI DUP1 PUSH4 0x248A9CA3 EQ PUSH2 0x25D6 JUMPI DUP1 PUSH4 0x2B994849 EQ PUSH2 0x25B7 JUMPI DUP1 PUSH4 0x2D88AF4A EQ PUSH2 0x2562 JUMPI DUP1 PUSH4 0x2F2FF15D EQ PUSH2 0x2529 JUMPI DUP1 PUSH4 0x34975A41 EQ PUSH2 0x23BB JUMPI DUP1 PUSH4 0x36568ABE EQ PUSH2 0x2327 JUMPI DUP1 PUSH4 0x3659CFE6 EQ PUSH2 0x228E JUMPI DUP1 PUSH4 0x3BB4B05C EQ PUSH2 0x224B JUMPI DUP1 PUSH4 0x3CBCF4C4 EQ PUSH2 0x2226 JUMPI DUP1 PUSH4 0x3DC8797A EQ PUSH2 0x2207 JUMPI DUP1 PUSH4 0x3F4BA83A EQ PUSH2 0x218D JUMPI DUP1 PUSH4 0x3FA9E0C6 EQ PUSH2 0x216E JUMPI DUP1 PUSH4 0x435C7E37 EQ PUSH2 0x20E4 JUMPI DUP1 PUSH4 0x47D8496A EQ PUSH2 0x2017 JUMPI DUP1 PUSH4 0x4981D04E EQ PUSH2 0x1FD4 JUMPI DUP1 PUSH4 0x4B64E492 EQ PUSH2 0x12C1 JUMPI DUP1 PUSH4 0x4F1EF286 EQ PUSH2 0x11D7 JUMPI DUP1 PUSH4 0x5210570C EQ PUSH2 0x11B2 JUMPI DUP1 PUSH4 0x52D1902D EQ PUSH2 0x10DC JUMPI DUP1 PUSH4 0x5C817AA3 EQ PUSH2 0x1078 JUMPI DUP1 PUSH4 0x5C975ABB EQ PUSH2 0x1052 JUMPI DUP1 PUSH4 0x5EE1D2BB EQ PUSH2 0x1008 JUMPI DUP1 PUSH4 0x64D9E821 EQ PUSH2 0xFE9 JUMPI DUP1 PUSH4 0x681FE70C EQ PUSH2 0xFC5 JUMPI DUP1 PUSH4 0x68274357 EQ PUSH2 0xF9D JUMPI DUP1 PUSH4 0x6B59C22F EQ PUSH2 0xED0 JUMPI DUP1 PUSH4 0x6B763330 EQ PUSH2 0xE6C JUMPI DUP1 PUSH4 0x73E3D086 EQ PUSH2 0xE4D JUMPI DUP1 PUSH4 0x7656CD10 EQ PUSH2 0xE2E JUMPI DUP1 PUSH4 0x7C50B7E4 EQ PUSH2 0xDEA JUMPI DUP1 PUSH4 0x7E81A821 EQ PUSH2 0xD1D JUMPI DUP1 PUSH4 0x8456CB59 EQ PUSH2 0xC87 JUMPI DUP1 PUSH4 0x8A4737AB EQ PUSH2 0xC28 JUMPI DUP1 PUSH4 0x8B20076C EQ PUSH2 0xBC9 JUMPI DUP1 PUSH4 0x8E7E8189 EQ PUSH2 0xBA1 JUMPI DUP1 PUSH4 0x91D14854 EQ PUSH2 0xB4E JUMPI DUP1 PUSH4 0x97AC81FB EQ PUSH2 0xB2F JUMPI DUP1 PUSH4 0x9AAC1C2A EQ PUSH2 0xB10 JUMPI DUP1 PUSH4 0x9FD0506D EQ PUSH2 0xAE3 JUMPI DUP1 PUSH4 0xA217FDDF EQ PUSH2 0xAC7 JUMPI DUP1 PUSH4 0xAD16C2DE EQ PUSH2 0xA59 JUMPI DUP1 PUSH4 0xBB4872DE EQ PUSH2 0xA36 JUMPI DUP1 PUSH4 0xBBE720D9 EQ PUSH2 0x9C1 JUMPI DUP1 PUSH4 0xC84D8BB6 EQ PUSH2 0x8F4 JUMPI DUP1 PUSH4 0xD17910E2 EQ PUSH2 0x8D5 JUMPI DUP1 PUSH4 0xD547741F EQ PUSH2 0x89A JUMPI DUP1 PUSH4 0xD9A862D6 EQ PUSH2 0x870 JUMPI DUP1 PUSH4 0xDB901477 EQ PUSH2 0x64F JUMPI DUP1 PUSH4 0xDBB0B684 EQ PUSH2 0x62D JUMPI DUP1 PUSH4 0xE4C0AAF4 EQ PUSH2 0x5E7 JUMPI DUP1 PUSH4 0xE4E1B729 EQ PUSH2 0x51A JUMPI DUP1 PUSH4 0xE97A4D63 EQ PUSH2 0x44D JUMPI DUP1 PUSH4 0xEEAB6F4B EQ PUSH2 0x42E JUMPI DUP1 PUSH4 0xF2CEE87A EQ PUSH2 0x40F JUMPI DUP1 PUSH4 0xFA91A9A5 EQ PUSH2 0x322 JUMPI PUSH4 0xFB8AAFB8 EQ PUSH2 0x2BA JUMPI PUSH1 0x0 DUP1 REVERT JUMPDEST CALLVALUE PUSH2 0x31D JUMPI PUSH1 0x20 CALLDATASIZE PUSH1 0x3 NOT ADD SLT PUSH2 0x31D JUMPI PUSH1 0x4 CALLDATALOAD PUSH1 0x0 MSTORE PUSH2 0x26A PUSH1 0x20 MSTORE PUSH1 0x40 PUSH1 0x0 KECCAK256 PUSH1 0x1 DUP1 PUSH1 0xA0 SHL SUB PUSH2 0x319 DUP2 DUP4 SLOAD AND SWAP2 PUSH1 0x1 DUP5 ADD SLOAD SWAP4 PUSH1 0x2 DUP2 ADD SLOAD SWAP2 DUP1 PUSH1 0x3 DUP4 ADD SLOAD AND SWAP1 PUSH1 0x5 DUP2 PUSH1 0x4 DUP6 ADD SLOAD AND SWAP4 ADD SLOAD AND SWAP3 PUSH1 0x40 MLOAD SWAP7 DUP8 SWAP7 DUP8 PUSH2 0x28BB JUMP JUMPDEST SUB SWAP1 RETURN JUMPDEST PUSH1 0x0 DUP1 REVERT JUMPDEST PUSH1 0xA0 CALLDATASIZE PUSH1 0x3 NOT ADD SLT PUSH2 0x31D JUMPI PUSH2 0x336 PUSH2 0x2EC1 JUMP JUMPDEST PUSH2 0x34D PUSH1 0x0 DUP1 MLOAD PUSH1 0x20 PUSH2 0x4ADB DUP4 CODECOPY DUP2 MLOAD SWAP2 MSTORE PUSH2 0x2F42 JUMP JUMPDEST PUSH2 0x359 PUSH2 0x1F8 SLOAD PUSH2 0x4950 JUMP JUMPDEST PUSH2 0x265 DUP1 SLOAD PUSH1 0x40 MLOAD SWAP2 PUSH2 0x36D PUSH1 0x40 DUP5 PUSH2 0x2867 JUMP JUMPDEST PUSH1 0x2 DUP4 MSTORE PUSH1 0x20 DUP4 ADD SWAP3 PUSH1 0x1 DUP1 PUSH1 0xF8 SHL SUB NUMBER AND DUP5 MSTORE DUP3 PUSH1 0x0 MSTORE PUSH2 0x270 PUSH1 0x20 MSTORE PUSH1 0x40 PUSH1 0x0 KECCAK256 SWAP1 MLOAD PUSH1 0xA DUP2 LT ISZERO PUSH2 0x3F9 JUMPI PUSH1 0xFF PUSH1 0x20 SWAP6 DUP2 NOT SWAP1 MLOAD PUSH1 0x8 SHL AND SWAP2 AND OR SWAP1 SSTORE DUP2 PUSH1 0x0 MSTORE PUSH2 0x269 DUP4 MSTORE PUSH2 0x3C5 PUSH1 0x4 PUSH1 0x40 PUSH1 0x0 KECCAK256 PUSH2 0x4706 JUMP JUMPDEST PUSH1 0x40 MLOAD DUP3 DUP2 MSTORE PUSH1 0x2 DUP5 DUP3 ADD MSTORE PUSH1 0x0 DUP1 MLOAD PUSH1 0x20 PUSH2 0x4ABB DUP4 CODECOPY DUP2 MLOAD SWAP2 MSTORE PUSH1 0x40 CALLER SWAP3 LOG2 PUSH2 0x3EF DUP2 SLOAD PUSH2 0x4779 JUMP JUMPDEST SWAP1 SSTORE PUSH1 0x40 MLOAD SWAP1 DUP2 MSTORE RETURN JUMPDEST PUSH4 0x4E487B71 PUSH1 0xE0 SHL PUSH1 0x0 MSTORE PUSH1 0x21 PUSH1 0x4 MSTORE PUSH1 0x24 PUSH1 0x0 REVERT JUMPDEST CALLVALUE PUSH2 0x31D JUMPI PUSH1 0x0 CALLDATASIZE PUSH1 0x3 NOT ADD SLT PUSH2 0x31D JUMPI PUSH1 0x20 PUSH2 0x1FD SLOAD PUSH1 0x40 MLOAD SWAP1 DUP2 MSTORE RETURN JUMPDEST CALLVALUE PUSH2 0x31D JUMPI PUSH1 0x0 CALLDATASIZE PUSH1 0x3 NOT ADD SLT PUSH2 0x31D JUMPI PUSH1 0x20 PUSH2 0x1FB SLOAD PUSH1 0x40 MLOAD SWAP1 DUP2 MSTORE RETURN JUMPDEST PUSH1 0xA0 CALLDATASIZE PUSH1 0x3 NOT ADD SLT PUSH2 0x31D JUMPI PUSH2 0x461 PUSH2 0x2EC1 JUMP JUMPDEST PUSH2 0x478 PUSH1 0x0 DUP1 MLOAD PUSH1 0x20 PUSH2 0x4ADB DUP4 CODECOPY DUP2 MLOAD SWAP2 MSTORE PUSH2 0x2F42 JUMP JUMPDEST PUSH2 0x484 PUSH2 0x1F7 SLOAD PUSH2 0x4950 JUMP JUMPDEST PUSH2 0x265 DUP1 SLOAD PUSH1 0x40 MLOAD SWAP2 PUSH2 0x498 PUSH1 0x40 DUP5 PUSH2 0x2867 JUMP JUMPDEST PUSH1 0x1 DUP4 MSTORE PUSH1 0x20 DUP4 ADD SWAP3 PUSH1 0x1 DUP1 PUSH1 0xF8 SHL SUB NUMBER AND DUP5 MSTORE DUP3 PUSH1 0x0 MSTORE PUSH2 0x270 PUSH1 0x20 MSTORE PUSH1 0x40 PUSH1 0x0 KECCAK256 SWAP1 MLOAD PUSH1 0xA DUP2 LT ISZERO PUSH2 0x3F9 JUMPI PUSH1 0xFF PUSH1 0x20 SWAP6 DUP2 NOT SWAP1 MLOAD PUSH1 0x8 SHL AND SWAP2 AND OR SWAP1 SSTORE DUP2 PUSH1 0x0 MSTORE PUSH2 0x267 DUP4 MSTORE PUSH2 0x4F0 PUSH1 0x4 PUSH1 0x40 PUSH1 0x0 KECCAK256 PUSH2 0x4706 JUMP JUMPDEST PUSH1 0x40 MLOAD DUP3 DUP2 MSTORE PUSH1 0x1 DUP5 DUP3 ADD MSTORE PUSH1 0x0 DUP1 MLOAD PUSH1 0x20 PUSH2 0x4ABB DUP4 CODECOPY DUP2 MLOAD SWAP2 MSTORE PUSH1 0x40 CALLER SWAP3 LOG2 PUSH2 0x3EF DUP2 SLOAD PUSH2 0x4779 JUMP JUMPDEST PUSH1 0xE0 CALLDATASIZE PUSH1 0x3 NOT ADD SLT PUSH2 0x31D JUMPI PUSH2 0x52E PUSH2 0x2EC1 JUMP JUMPDEST PUSH2 0x545 PUSH1 0x0 DUP1 MLOAD PUSH1 0x20 PUSH2 0x4ADB DUP4 CODECOPY DUP2 MLOAD SWAP2 MSTORE PUSH2 0x2F42 JUMP JUMPDEST PUSH2 0x551 PUSH2 0x1FE SLOAD PUSH2 0x4950 JUMP JUMPDEST PUSH2 0x265 DUP1 SLOAD PUSH1 0x40 MLOAD SWAP2 PUSH2 0x565 PUSH1 0x40 DUP5 PUSH2 0x2867 JUMP JUMPDEST PUSH1 0x6 DUP4 MSTORE PUSH1 0x20 DUP4 ADD SWAP3 PUSH1 0x1 DUP1 PUSH1 0xF8 SHL SUB NUMBER AND DUP5 MSTORE DUP3 PUSH1 0x0 MSTORE PUSH2 0x270 PUSH1 0x20 MSTORE PUSH1 0x40 PUSH1 0x0 KECCAK256 SWAP1 MLOAD PUSH1 0xA DUP2 LT ISZERO PUSH2 0x3F9 JUMPI PUSH1 0xFF PUSH1 0x20 SWAP6 DUP2 NOT SWAP1 MLOAD PUSH1 0x8 SHL AND SWAP2 AND OR SWAP1 SSTORE DUP2 PUSH1 0x0 MSTORE PUSH2 0x26C DUP4 MSTORE PUSH2 0x5BD PUSH1 0x4 PUSH1 0x40 PUSH1 0x0 KECCAK256 PUSH2 0x47F3 JUMP JUMPDEST PUSH1 0x40 MLOAD DUP3 DUP2 MSTORE PUSH1 0x6 DUP5 DUP3 ADD MSTORE PUSH1 0x0 DUP1 MLOAD PUSH1 0x20 PUSH2 0x4ABB DUP4 CODECOPY DUP2 MLOAD SWAP2 MSTORE PUSH1 0x40 CALLER SWAP3 LOG2 PUSH2 0x3EF DUP2 SLOAD PUSH2 0x4779 JUMP JUMPDEST CALLVALUE PUSH2 0x31D JUMPI PUSH1 0x20 CALLDATASIZE PUSH1 0x3 NOT ADD SLT PUSH2 0x31D JUMPI PUSH1 0x4 CALLDATALOAD PUSH1 0x1 PUSH1 0x1 PUSH1 0xA0 SHL SUB DUP2 AND SWAP1 DUP2 SWAP1 SUB PUSH2 0x31D JUMPI PUSH2 0x615 PUSH2 0x2E3E JUMP JUMPDEST PUSH1 0x1 PUSH1 0x1 PUSH1 0x60 SHL SUB PUSH1 0xA0 SHL PUSH1 0x97 SLOAD AND OR PUSH1 0x97 SSTORE PUSH1 0x0 DUP1 RETURN JUMPDEST CALLVALUE PUSH2 0x31D JUMPI PUSH1 0x0 CALLDATASIZE PUSH1 0x3 NOT ADD SLT PUSH2 0x31D JUMPI PUSH1 0x20 PUSH2 0x271 SLOAD PUSH1 0x80 SHR PUSH1 0x40 MLOAD SWAP1 DUP2 MSTORE RETURN JUMPDEST CALLVALUE PUSH2 0x31D JUMPI PUSH2 0x1A0 CALLDATASIZE PUSH1 0x3 NOT ADD SLT PUSH2 0x31D JUMPI PUSH1 0x1 PUSH1 0x1 PUSH1 0xA0 SHL SUB PUSH1 0x4 CALLDATALOAD DUP2 DUP2 AND SWAP1 DUP2 SWAP1 SUB PUSH2 0x31D JUMPI PUSH1 0x24 CALLDATALOAD SWAP2 DUP3 AND DUP3 SUB PUSH2 0x31D JUMPI PUSH1 0x44 CALLDATALOAD PUSH1 0x1 PUSH1 0x1 PUSH1 0x80 SHL SUB SWAP3 DUP4 DUP3 AND DUP1 SWAP3 SUB PUSH2 0x31D JUMPI PUSH1 0x64 CALLDATALOAD SWAP4 DUP5 AND DUP5 SUB PUSH2 0x31D JUMPI PUSH2 0x120 CALLDATASIZE PUSH1 0x83 NOT ADD SLT PUSH2 0x31D JUMPI PUSH1 0x0 SLOAD SWAP3 PUSH1 0xFF DUP5 PUSH1 0x8 SHR AND ISZERO SWAP4 DUP5 DUP1 SWAP6 PUSH2 0x863 JUMPI JUMPDEST DUP1 ISZERO PUSH2 0x84C JUMPI JUMPDEST ISZERO PUSH2 0x7F0 JUMPI PUSH2 0x765 SWAP3 PUSH1 0x1 SWAP2 DUP7 DUP4 PUSH1 0xFF NOT DUP4 AND OR PUSH1 0x0 SSTORE PUSH2 0x7DE JUMPI JUMPDEST POP PUSH1 0xFF PUSH1 0x0 SLOAD PUSH1 0x8 SHR AND SWAP3 PUSH2 0x6FE DUP5 PUSH2 0x2EE2 JUMP JUMPDEST PUSH2 0x707 DUP5 PUSH2 0x2EE2 JUMP JUMPDEST PUSH2 0x710 DUP5 PUSH2 0x2EE2 JUMP JUMPDEST PUSH2 0x719 DUP5 PUSH2 0x2EE2 JUMP JUMPDEST PUSH2 0x722 DUP5 PUSH2 0x2EE2 JUMP JUMPDEST PUSH1 0x1 PUSH1 0x1 PUSH1 0x60 SHL SUB PUSH1 0xA0 SHL PUSH1 0x97 SLOAD AND OR PUSH1 0x97 SSTORE PUSH2 0x73E DUP4 PUSH2 0x2EE2 JUMP JUMPDEST PUSH1 0xCA SLOAD SWAP1 PUSH3 0x10000 DUP4 PUSH1 0xB0 SHL SUB SWAP1 PUSH1 0x10 SHL AND SWAP1 PUSH2 0xFF01 DUP4 PUSH1 0xB0 SHL SUB NOT AND OR OR PUSH1 0xCA SSTORE PUSH2 0x2EE2 JUMP JUMPDEST PUSH2 0x76F PUSH1 0x84 PUSH2 0x4972 JUMP JUMPDEST PUSH1 0x0 SLOAD SWAP3 PUSH2 0x78B PUSH1 0xFF DUP6 PUSH1 0x8 SHR AND PUSH2 0x786 DUP2 PUSH2 0x2EE2 JUMP JUMPDEST PUSH2 0x2EE2 JUMP JUMPDEST PUSH1 0x1 PUSH2 0x232 SSTORE PUSH1 0x80 SHL PUSH1 0x1 PUSH1 0x1 PUSH1 0x80 SHL SUB NOT AND OR PUSH2 0x271 SSTORE PUSH2 0x7A9 JUMPI STOP JUMPDEST PUSH2 0xFF00 NOT AND PUSH1 0x0 SSTORE PUSH32 0x7F26B83FF96E1F2B6A682F133852F6798A09C465DA95921460CEFB3847402498 PUSH1 0x20 PUSH1 0x40 MLOAD PUSH1 0x1 DUP2 MSTORE LOG1 STOP JUMPDEST PUSH2 0xFFFF NOT AND PUSH2 0x101 OR PUSH1 0x0 SSTORE DUP8 PUSH2 0x6EA JUMP JUMPDEST PUSH1 0x40 MLOAD PUSH3 0x461BCD PUSH1 0xE5 SHL DUP2 MSTORE PUSH1 0x20 PUSH1 0x4 DUP3 ADD MSTORE PUSH1 0x2E PUSH1 0x24 DUP3 ADD MSTORE PUSH32 0x496E697469616C697A61626C653A20636F6E747261637420697320616C726561 PUSH1 0x44 DUP3 ADD MSTORE PUSH14 0x191E481A5B9A5D1A585B1A5E9959 PUSH1 0x92 SHL PUSH1 0x64 DUP3 ADD MSTORE PUSH1 0x84 SWAP1 REVERT JUMPDEST POP ADDRESS EXTCODESIZE ISZERO DUP1 ISZERO PUSH2 0x6CE JUMPI POP PUSH1 0x1 PUSH1 0xFF DUP3 AND EQ PUSH2 0x6CE JUMP JUMPDEST POP PUSH1 0x1 PUSH1 0xFF DUP3 AND LT PUSH2 0x6C7 JUMP JUMPDEST CALLVALUE PUSH2 0x31D JUMPI PUSH1 0x0 CALLDATASIZE PUSH1 0x3 NOT ADD SLT PUSH2 0x31D JUMPI PUSH2 0x264 SLOAD PUSH1 0x40 MLOAD PUSH1 0x1 PUSH1 0x1 PUSH1 0xA0 SHL SUB SWAP1 SWAP2 AND DUP2 MSTORE PUSH1 0x20 SWAP1 RETURN JUMPDEST CALLVALUE PUSH2 0x31D JUMPI PUSH1 0x40 CALLDATASIZE PUSH1 0x3 NOT ADD SLT PUSH2 0x31D JUMPI PUSH1 0x4 CALLDATALOAD PUSH1 0x24 CALLDATALOAD PUSH1 0x1 PUSH1 0x1 PUSH1 0xA0 SHL SUB DUP2 AND DUP2 SUB PUSH2 0x31D JUMPI DUP2 PUSH2 0x8CE PUSH2 0x8D3 SWAP4 PUSH2 0x49C2 JUMP JUMPDEST PUSH2 0x28F5 JUMP JUMPDEST STOP JUMPDEST CALLVALUE PUSH2 0x31D JUMPI PUSH1 0x0 CALLDATASIZE PUSH1 0x3 NOT ADD SLT PUSH2 0x31D JUMPI PUSH1 0x20 PUSH2 0x1FA SLOAD PUSH1 0x40 MLOAD SWAP1 DUP2 MSTORE RETURN JUMPDEST PUSH1 0xC0 CALLDATASIZE PUSH1 0x3 NOT ADD SLT PUSH2 0x31D JUMPI PUSH2 0x908 PUSH2 0x2EC1 JUMP JUMPDEST PUSH2 0x91F PUSH1 0x0 DUP1 MLOAD PUSH1 0x20 PUSH2 0x4ADB DUP4 CODECOPY DUP2 MLOAD SWAP2 MSTORE PUSH2 0x2F42 JUMP JUMPDEST PUSH2 0x92B PUSH2 0x1FA SLOAD PUSH2 0x4950 JUMP JUMPDEST PUSH2 0x265 DUP1 SLOAD PUSH1 0x40 MLOAD SWAP2 PUSH2 0x93F PUSH1 0x40 DUP5 PUSH2 0x2867 JUMP JUMPDEST PUSH1 0x4 DUP4 MSTORE PUSH1 0x20 DUP4 ADD SWAP3 PUSH1 0x1 DUP1 PUSH1 0xF8 SHL SUB NUMBER AND DUP5 MSTORE DUP3 PUSH1 0x0 MSTORE PUSH2 0x270 PUSH1 0x20 MSTORE PUSH1 0x40 PUSH1 0x0 KECCAK256 SWAP1 MLOAD PUSH1 0xA DUP2 LT ISZERO PUSH2 0x3F9 JUMPI PUSH1 0xFF PUSH1 0x20 SWAP6 DUP2 NOT SWAP1 MLOAD PUSH1 0x8 SHL AND SWAP2 AND OR SWAP1 SSTORE DUP2 PUSH1 0x0 MSTORE PUSH2 0x26A DUP4 MSTORE PUSH2 0x997 PUSH1 0x4 PUSH1 0x40 PUSH1 0x0 KECCAK256 PUSH2 0x4788 JUMP JUMPDEST PUSH1 0x40 MLOAD DUP3 DUP2 MSTORE PUSH1 0x4 DUP5 DUP3 ADD MSTORE PUSH1 0x0 DUP1 MLOAD PUSH1 0x20 PUSH2 0x4ABB DUP4 CODECOPY DUP2 MLOAD SWAP2 MSTORE PUSH1 0x40 CALLER SWAP3 LOG2 PUSH2 0x3EF DUP2 SLOAD PUSH2 0x4779 JUMP JUMPDEST CALLVALUE PUSH2 0x31D JUMPI PUSH1 0x20 CALLDATASIZE PUSH1 0x3 NOT ADD SLT PUSH2 0x31D JUMPI PUSH1 0x1 PUSH1 0x1 PUSH1 0xA0 SHL SUB PUSH1 0x4 CALLDATALOAD DUP2 DUP2 AND SWAP1 DUP2 SWAP1 SUB PUSH2 0x31D JUMPI PUSH2 0x9F0 PUSH2 0x2E3E JUMP JUMPDEST PUSH2 0x264 DUP1 SLOAD SWAP3 DUP4 AND PUSH2 0xA24 JUMPI DUP2 PUSH2 0x8D3 SWAP4 PUSH1 0x1 PUSH1 0x1 PUSH1 0x60 SHL SUB PUSH1 0xA0 SHL AND OR SWAP1 SSTORE PUSH1 0x0 DUP1 MLOAD PUSH1 0x20 PUSH2 0x4ADB DUP4 CODECOPY DUP2 MLOAD SWAP2 MSTORE PUSH2 0x48CE JUMP JUMPDEST PUSH1 0x40 MLOAD PUSH4 0xA646B77 PUSH1 0xE4 SHL DUP2 MSTORE PUSH1 0x4 SWAP1 REVERT JUMPDEST CALLVALUE PUSH2 0x31D JUMPI PUSH1 0x0 CALLDATASIZE PUSH1 0x3 NOT ADD SLT PUSH2 0x31D JUMPI PUSH1 0x20 PUSH1 0xFF PUSH1 0xCA SLOAD AND PUSH1 0x40 MLOAD SWAP1 ISZERO ISZERO DUP2 MSTORE RETURN JUMPDEST CALLVALUE PUSH2 0x31D JUMPI PUSH1 0x20 CALLDATASIZE PUSH1 0x3 NOT ADD SLT PUSH2 0x31D JUMPI PUSH1 0x4 DUP1 CALLDATALOAD PUSH1 0x0 SWAP1 DUP2 MSTORE PUSH2 0x269 PUSH1 0x20 SWAP1 DUP2 MSTORE PUSH1 0x40 SWAP2 DUP3 SWAP1 KECCAK256 DUP1 SLOAD PUSH1 0x1 DUP3 ADD SLOAD PUSH1 0x2 DUP4 ADD SLOAD PUSH1 0x3 DUP5 ADD SLOAD SWAP4 SWAP1 SWAP7 ADD SLOAD DUP6 MLOAD SWAP3 DUP4 MSTORE SWAP4 DUP3 ADD MSTORE PUSH1 0x1 PUSH1 0x1 PUSH1 0xA0 SHL SUB SWAP5 DUP6 AND SWAP4 DUP2 ADD SWAP4 SWAP1 SWAP4 MSTORE DUP4 AND PUSH1 0x60 DUP4 ADD MSTORE SWAP2 SWAP1 SWAP2 AND PUSH1 0x80 DUP3 ADD MSTORE PUSH1 0xA0 SWAP1 RETURN JUMPDEST CALLVALUE PUSH2 0x31D JUMPI PUSH1 0x0 CALLDATASIZE PUSH1 0x3 NOT ADD SLT PUSH2 0x31D JUMPI PUSH1 0x20 PUSH1 0x40 MLOAD PUSH1 0x0 DUP2 MSTORE RETURN JUMPDEST CALLVALUE PUSH2 0x31D JUMPI PUSH1 0x0 CALLDATASIZE PUSH1 0x3 NOT ADD SLT PUSH2 0x31D JUMPI PUSH1 0xCA SLOAD PUSH1 0x40 MLOAD PUSH1 0x10 SWAP2 SWAP1 SWAP2 SHR PUSH1 0x1 PUSH1 0x1 PUSH1 0xA0 SHL SUB AND DUP2 MSTORE PUSH1 0x20 SWAP1 RETURN JUMPDEST CALLVALUE PUSH2 0x31D JUMPI PUSH1 0x0 CALLDATASIZE PUSH1 0x3 NOT ADD SLT PUSH2 0x31D JUMPI PUSH1 0x20 PUSH2 0x1F7 SLOAD PUSH1 0x40 MLOAD SWAP1 DUP2 MSTORE RETURN JUMPDEST CALLVALUE PUSH2 0x31D JUMPI PUSH1 0x0 CALLDATASIZE PUSH1 0x3 NOT ADD SLT PUSH2 0x31D JUMPI PUSH1 0x20 PUSH2 0x1F8 SLOAD PUSH1 0x40 MLOAD SWAP1 DUP2 MSTORE RETURN JUMPDEST CALLVALUE PUSH2 0x31D JUMPI PUSH1 0x40 CALLDATASIZE PUSH1 0x3 NOT ADD SLT PUSH2 0x31D JUMPI PUSH1 0x24 CALLDATALOAD PUSH1 0x1 PUSH1 0x1 PUSH1 0xA0 SHL SUB DUP2 AND SWAP1 DUP2 SWAP1 SUB PUSH2 0x31D JUMPI PUSH1 0x4 CALLDATALOAD PUSH1 0x0 MSTORE PUSH2 0x193 PUSH1 0x20 MSTORE PUSH1 0x40 PUSH1 0x0 KECCAK256 SWAP1 PUSH1 0x0 MSTORE PUSH1 0x20 MSTORE PUSH1 0x20 PUSH1 0xFF PUSH1 0x40 PUSH1 0x0 KECCAK256 SLOAD AND PUSH1 0x40 MLOAD SWAP1 ISZERO ISZERO DUP2 MSTORE RETURN JUMPDEST CALLVALUE PUSH2 0x31D JUMPI PUSH1 0x0 CALLDATASIZE PUSH1 0x3 NOT ADD SLT PUSH2 0x31D JUMPI PUSH1 0x20 PUSH1 0x1 PUSH1 0x1 PUSH1 0x80 SHL SUB PUSH2 0x271 SLOAD AND PUSH1 0x40 MLOAD SWAP1 DUP2 MSTORE RETURN JUMPDEST CALLVALUE PUSH2 0x31D JUMPI PUSH1 0x20 CALLDATASIZE PUSH1 0x3 NOT ADD SLT PUSH2 0x31D JUMPI PUSH1 0x4 CALLDATALOAD PUSH1 0x0 MSTORE PUSH2 0x26B PUSH1 0x20 MSTORE PUSH1 0x40 PUSH1 0x0 KECCAK256 PUSH1 0x1 DUP1 PUSH1 0xA0 SHL SUB PUSH2 0x319 DUP2 DUP4 SLOAD AND SWAP2 PUSH1 0x1 DUP5 ADD SLOAD SWAP4 PUSH1 0x2 DUP2 ADD SLOAD SWAP2 DUP1 PUSH1 0x3 DUP4 ADD SLOAD AND SWAP1 PUSH1 0x5 DUP2 PUSH1 0x4 DUP6 ADD SLOAD AND SWAP4 ADD SLOAD AND SWAP3 PUSH1 0x40 MLOAD SWAP7 DUP8 SWAP7 DUP8 PUSH2 0x28BB JUMP JUMPDEST CALLVALUE PUSH2 0x31D JUMPI PUSH1 0x20 CALLDATASIZE PUSH1 0x3 NOT ADD SLT PUSH2 0x31D JUMPI PUSH1 0x4 CALLDATALOAD PUSH1 0x0 MSTORE PUSH2 0x268 PUSH1 0x20 MSTORE PUSH1 0x40 PUSH1 0x0 KECCAK256 PUSH1 0x1 DUP1 PUSH1 0xA0 SHL SUB PUSH2 0x319 DUP2 DUP4 SLOAD AND SWAP2 PUSH1 0x1 DUP5 ADD SLOAD SWAP4 PUSH1 0x2 DUP2 ADD SLOAD SWAP2 DUP1 PUSH1 0x3 DUP4 ADD SLOAD AND SWAP1 PUSH1 0x5 DUP2 PUSH1 0x4 DUP6 ADD SLOAD AND SWAP4 ADD SLOAD AND SWAP3 PUSH1 0x40 MLOAD SWAP7 DUP8 SWAP7 DUP8 PUSH2 0x28BB JUMP JUMPDEST CALLVALUE PUSH2 0x31D JUMPI PUSH1 0x0 CALLDATASIZE PUSH1 0x3 NOT ADD SLT PUSH2 0x31D JUMPI PUSH2 0xCA0 PUSH2 0x2EC1 JUMP JUMPDEST PUSH1 0xCA SLOAD PUSH1 0x10 DUP2 SWAP1 SHR PUSH1 0x1 PUSH1 0x1 PUSH1 0xA0 SHL SUB AND CALLER SUB PUSH2 0xD0B JUMPI PUSH1 0xFF DUP2 AND ISZERO PUSH2 0xCF9 JUMPI PUSH2 0x100 SWAP1 PUSH2 0xFF00 NOT AND OR PUSH1 0xCA SSTORE PUSH32 0x62E78CEA01BEE320CD4E420270B5EA74000D11B0C9F74754EBDBFC544B05A258 PUSH1 0x20 PUSH1 0x40 MLOAD CALLER DUP2 MSTORE LOG1 STOP JUMPDEST PUSH1 0x40 MLOAD PUSH4 0x866099C3 PUSH1 0xE0 SHL DUP2 MSTORE PUSH1 0x4 SWAP1 REVERT JUMPDEST PUSH1 0x40 MLOAD PUSH4 0x1D77D477 PUSH1 0xE2 SHL DUP2 MSTORE PUSH1 0x4 SWAP1 REVERT JUMPDEST PUSH1 0xC0 CALLDATASIZE PUSH1 0x3 NOT ADD SLT PUSH2 0x31D JUMPI PUSH2 0xD31 PUSH2 0x2EC1 JUMP JUMPDEST PUSH2 0xD48 PUSH1 0x0 DUP1 MLOAD PUSH1 0x20 PUSH2 0x4ADB DUP4 CODECOPY DUP2 MLOAD SWAP2 MSTORE PUSH2 0x2F42 JUMP JUMPDEST PUSH2 0xD54 PUSH2 0x1F9 SLOAD PUSH2 0x4950 JUMP JUMPDEST PUSH2 0x265 DUP1 SLOAD PUSH1 0x40 MLOAD SWAP2 PUSH2 0xD68 PUSH1 0x40 DUP5 PUSH2 0x2867 JUMP JUMPDEST PUSH1 0x3 DUP4 MSTORE PUSH1 0x20 DUP4 ADD SWAP3 PUSH1 0x1 DUP1 PUSH1 0xF8 SHL SUB NUMBER AND DUP5 MSTORE DUP3 PUSH1 0x0 MSTORE PUSH2 0x270 PUSH1 0x20 MSTORE PUSH1 0x40 PUSH1 0x0 KECCAK256 SWAP1 MLOAD PUSH1 0xA DUP2 LT ISZERO PUSH2 0x3F9 JUMPI PUSH1 0xFF PUSH1 0x20 SWAP6 DUP2 NOT SWAP1 MLOAD PUSH1 0x8 SHL AND SWAP2 AND OR SWAP1 SSTORE DUP2 PUSH1 0x0 MSTORE PUSH2 0x268 DUP4 MSTORE PUSH2 0xDC0 PUSH1 0x4 PUSH1 0x40 PUSH1 0x0 KECCAK256 PUSH2 0x4788 JUMP JUMPDEST PUSH1 0x40 MLOAD DUP3 DUP2 MSTORE PUSH1 0x3 DUP5 DUP3 ADD MSTORE PUSH1 0x0 DUP1 MLOAD PUSH1 0x20 PUSH2 0x4ABB DUP4 CODECOPY DUP2 MLOAD SWAP2 MSTORE PUSH1 0x40 CALLER SWAP3 LOG2 PUSH2 0x3EF DUP2 SLOAD PUSH2 0x4779 JUMP JUMPDEST CALLVALUE PUSH2 0x31D JUMPI PUSH1 0x20 CALLDATASIZE PUSH1 0x3 NOT ADD SLT PUSH2 0x31D JUMPI PUSH1 0x4 CALLDATALOAD PUSH1 0x0 MSTORE PUSH2 0x270 PUSH1 0x20 MSTORE PUSH1 0x40 PUSH1 0x0 KECCAK256 SLOAD PUSH1 0xFF DUP2 AND SWAP1 PUSH1 0x40 MLOAD SWAP1 PUSH1 0xA DUP4 LT ISZERO PUSH2 0x3F9 JUMPI PUSH1 0x40 SWAP3 DUP3 MSTORE PUSH1 0x8 SHR PUSH1 0x20 DUP3 ADD MSTORE RETURN JUMPDEST CALLVALUE PUSH2 0x31D JUMPI PUSH1 0x0 CALLDATASIZE PUSH1 0x3 NOT ADD SLT PUSH2 0x31D JUMPI PUSH1 0x20 PUSH2 0x1FE SLOAD PUSH1 0x40 MLOAD SWAP1 DUP2 MSTORE RETURN JUMPDEST CALLVALUE PUSH2 0x31D JUMPI PUSH1 0x0 CALLDATASIZE PUSH1 0x3 NOT ADD SLT PUSH2 0x31D JUMPI PUSH1 0x20 PUSH2 0x265 SLOAD PUSH1 0x40 MLOAD SWAP1 DUP2 MSTORE RETURN JUMPDEST CALLVALUE PUSH2 0x31D JUMPI PUSH1 0x20 CALLDATASIZE PUSH1 0x3 NOT ADD SLT PUSH2 0x31D JUMPI PUSH1 0x4 CALLDATALOAD PUSH1 0x0 MSTORE PUSH2 0x26C PUSH1 0x20 MSTORE PUSH1 0x40 PUSH1 0x0 KECCAK256 PUSH1 0x1 DUP1 PUSH1 0xA0 SHL SUB PUSH2 0x319 DUP2 DUP4 SLOAD AND SWAP2 PUSH1 0x1 DUP5 ADD SLOAD SWAP4 PUSH1 0x2 DUP2 ADD SLOAD SWAP2 PUSH1 0x3 DUP3 ADD SLOAD DUP2 PUSH1 0x4 DUP5 ADD SLOAD AND SWAP2 PUSH1 0x6 DUP2 PUSH1 0x5 DUP7 ADD SLOAD AND SWAP5 ADD SLOAD AND SWAP4 PUSH1 0x40 MLOAD SWAP8 DUP9 SWAP8 DUP9 PUSH2 0x2824 JUMP JUMPDEST PUSH1 0xE0 CALLDATASIZE PUSH1 0x3 NOT ADD SLT PUSH2 0x31D JUMPI PUSH2 0xEE4 PUSH2 0x2EC1 JUMP JUMPDEST PUSH2 0xEFB PUSH1 0x0 DUP1 MLOAD PUSH1 0x20 PUSH2 0x4ADB DUP4 CODECOPY DUP2 MLOAD SWAP2 MSTORE PUSH2 0x2F42 JUMP JUMPDEST PUSH2 0xF07 PUSH2 0x1FD SLOAD PUSH2 0x4950 JUMP JUMPDEST PUSH2 0x265 DUP1 SLOAD PUSH1 0x40 MLOAD SWAP2 PUSH2 0xF1B PUSH1 0x40 DUP5 PUSH2 0x2867 JUMP JUMPDEST PUSH1 0x7 DUP4 MSTORE PUSH1 0x20 DUP4 ADD SWAP3 PUSH1 0x1 DUP1 PUSH1 0xF8 SHL SUB NUMBER AND DUP5 MSTORE DUP3 PUSH1 0x0 MSTORE PUSH2 0x270 PUSH1 0x20 MSTORE PUSH1 0x40 PUSH1 0x0 KECCAK256 SWAP1 MLOAD PUSH1 0xA DUP2 LT ISZERO PUSH2 0x3F9 JUMPI PUSH1 0xFF PUSH1 0x20 SWAP6 DUP2 NOT SWAP1 MLOAD PUSH1 0x8 SHL AND SWAP2 AND OR SWAP1 SSTORE DUP2 PUSH1 0x0 MSTORE PUSH2 0x26D DUP4 MSTORE PUSH2 0xF73 PUSH1 0x4 PUSH1 0x40 PUSH1 0x0 KECCAK256 PUSH2 0x47F3 JUMP JUMPDEST PUSH1 0x40 MLOAD DUP3 DUP2 MSTORE PUSH1 0x7 DUP5 DUP3 ADD MSTORE PUSH1 0x0 DUP1 MLOAD PUSH1 0x20 PUSH2 0x4ABB DUP4 CODECOPY DUP2 MLOAD SWAP2 MSTORE PUSH1 0x40 CALLER SWAP3 LOG2 PUSH2 0x3EF DUP2 SLOAD PUSH2 0x4779 JUMP JUMPDEST CALLVALUE PUSH2 0x31D JUMPI PUSH1 0x0 CALLDATASIZE PUSH1 0x3 NOT ADD SLT PUSH2 0x31D JUMPI PUSH2 0xFB6 PUSH2 0x2E3E JUMP JUMPDEST PUSH1 0xCA DUP1 SLOAD PUSH1 0xFF NOT AND PUSH1 0x1 OR SWAP1 SSTORE STOP JUMPDEST CALLVALUE PUSH2 0x31D JUMPI PUSH1 0x0 CALLDATASIZE PUSH1 0x3 NOT ADD SLT PUSH2 0x31D JUMPI PUSH1 0x20 PUSH2 0x266 SLOAD PUSH2 0x265 SLOAD EQ PUSH1 0x40 MLOAD SWAP1 DUP2 MSTORE RETURN JUMPDEST CALLVALUE PUSH2 0x31D JUMPI PUSH1 0x0 CALLDATASIZE PUSH1 0x3 NOT ADD SLT PUSH2 0x31D JUMPI PUSH1 0x20 PUSH2 0x1FC SLOAD PUSH1 0x40 MLOAD SWAP1 DUP2 MSTORE RETURN JUMPDEST CALLVALUE PUSH2 0x31D JUMPI PUSH1 0x20 CALLDATASIZE PUSH1 0x3 NOT ADD SLT PUSH2 0x31D JUMPI PUSH1 0x1 PUSH1 0x1 PUSH1 0x80 SHL SUB PUSH1 0x4 CALLDATALOAD DUP2 DUP2 AND DUP2 SUB PUSH2 0x31D JUMPI PUSH2 0x1035 PUSH2 0x2E3E JUMP JUMPDEST PUSH2 0x271 DUP1 SLOAD SWAP1 SWAP3 AND PUSH1 0x80 SWAP2 SWAP1 SWAP2 SHL PUSH1 0x1 PUSH1 0x1 PUSH1 0x80 SHL SUB NOT AND OR SWAP1 SSTORE STOP JUMPDEST CALLVALUE PUSH2 0x31D JUMPI PUSH1 0x0 CALLDATASIZE PUSH1 0x3 NOT ADD SLT PUSH2 0x31D JUMPI PUSH1 0x20 PUSH1 0xFF PUSH1 0xCA SLOAD PUSH1 0x8 SHR AND PUSH1 0x40 MLOAD SWAP1 ISZERO ISZERO DUP2 MSTORE RETURN JUMPDEST CALLVALUE PUSH2 0x31D JUMPI PUSH1 0x20 CALLDATASIZE PUSH1 0x3 NOT ADD SLT PUSH2 0x31D JUMPI PUSH1 0x4 CALLDATALOAD PUSH1 0x0 MSTORE PUSH2 0x26E PUSH1 0x20 MSTORE PUSH1 0x40 PUSH1 0x0 KECCAK256 PUSH1 0x1 DUP1 PUSH1 0xA0 SHL SUB PUSH2 0x319 DUP2 DUP4 SLOAD AND SWAP2 PUSH1 0x1 DUP5 ADD SLOAD SWAP4 PUSH1 0x2 DUP2 ADD SLOAD SWAP2 PUSH1 0x3 DUP3 ADD SLOAD DUP2 PUSH1 0x4 DUP5 ADD SLOAD AND SWAP2 PUSH1 0x6 DUP2 PUSH1 0x5 DUP7 ADD SLOAD AND SWAP5 ADD SLOAD AND SWAP4 PUSH1 0x40 MLOAD SWAP8 DUP9 SWAP8 DUP9 PUSH2 0x2824 JUMP JUMPDEST CALLVALUE PUSH2 0x31D JUMPI PUSH1 0x0 CALLDATASIZE PUSH1 0x3 NOT ADD SLT PUSH2 0x31D JUMPI PUSH32 0x0 PUSH1 0x1 PUSH1 0x1 PUSH1 0xA0 SHL SUB AND ADDRESS SUB PUSH2 0x1147 JUMPI PUSH1 0x20 PUSH1 0x40 MLOAD PUSH32 0x360894A13BA1A3210667C828492DB98DCA3E2076CC3735A920A3CA505D382BBC DUP2 MSTORE RETURN JUMPDEST PUSH1 0x40 MLOAD PUSH3 0x461BCD PUSH1 0xE5 SHL DUP2 MSTORE PUSH1 0x20 PUSH1 0x4 DUP3 ADD MSTORE PUSH1 0x38 PUSH1 0x24 DUP3 ADD MSTORE PUSH32 0x555550535570677261646561626C653A206D757374206E6F742062652063616C PUSH1 0x44 DUP3 ADD MSTORE PUSH32 0x6C6564207468726F7567682064656C656761746563616C6C0000000000000000 PUSH1 0x64 DUP3 ADD MSTORE PUSH1 0x84 SWAP1 REVERT JUMPDEST CALLVALUE PUSH2 0x31D JUMPI PUSH1 0x0 CALLDATASIZE PUSH1 0x3 NOT ADD SLT PUSH2 0x31D JUMPI PUSH2 0x11CB PUSH2 0x2E3E JUMP JUMPDEST PUSH1 0xCA DUP1 SLOAD PUSH1 0xFF NOT AND SWAP1 SSTORE STOP JUMPDEST PUSH1 0x40 CALLDATASIZE PUSH1 0x3 NOT ADD SLT PUSH2 0x31D JUMPI PUSH1 0x1 PUSH1 0x1 PUSH1 0xA0 SHL SUB PUSH1 0x4 CALLDATALOAD DUP2 DUP2 AND DUP2 SUB PUSH2 0x31D JUMPI PUSH1 0x24 CALLDATALOAD PUSH8 0xFFFFFFFFFFFFFFFF DUP2 GT PUSH2 0x31D JUMPI CALLDATASIZE PUSH1 0x23 DUP3 ADD SLT ISZERO PUSH2 0x31D JUMPI DUP1 PUSH1 0x4 ADD CALLDATALOAD SWAP2 PUSH2 0x1223 DUP4 PUSH2 0x289F JUMP JUMPDEST SWAP2 PUSH2 0x1231 PUSH1 0x40 MLOAD SWAP4 DUP5 PUSH2 0x2867 JUMP JUMPDEST DUP4 DUP4 MSTORE CALLDATASIZE PUSH1 0x24 DUP6 DUP4 ADD ADD GT PUSH2 0x31D JUMPI PUSH2 0x8D3 SWAP5 PUSH1 0x0 PUSH1 0x20 DUP7 PUSH1 0x1 SWAP8 PUSH1 0x24 PUSH2 0x12B4 SWAP7 ADD DUP4 DUP10 ADD CALLDATACOPY DUP7 ADD ADD MSTORE DUP1 PUSH32 0x0 AND SWAP1 PUSH2 0x128B DUP3 ADDRESS EQ ISZERO PUSH2 0x2974 JUMP JUMPDEST PUSH32 0x360894A13BA1A3210667C828492DB98DCA3E2076CC3735A920A3CA505D382BBC SLOAD AND EQ PUSH2 0x29D5 JUMP JUMPDEST PUSH2 0x12BC PUSH2 0x2E3E JUMP JUMPDEST PUSH2 0x2A36 JUMP JUMPDEST CALLVALUE PUSH2 0x31D JUMPI PUSH1 0x20 CALLDATASIZE PUSH1 0x3 NOT ADD SLT PUSH2 0x31D JUMPI PUSH1 0x4 CALLDATALOAD PUSH1 0x1 PUSH1 0x1 PUSH1 0xA0 SHL SUB DUP2 AND SWAP1 SUB PUSH2 0x31D JUMPI PUSH2 0x12ED PUSH2 0x2EC1 JUMP JUMPDEST PUSH1 0x2 PUSH2 0x232 SLOAD EQ PUSH2 0x1F8F JUMPI PUSH1 0x2 PUSH2 0x232 SSTORE PUSH2 0x1327 PUSH32 0xD8AA0F3194971A2A116679F7C2090F6939C8D4E01A2A8D7E41D55E5351469E63 PUSH2 0x2F42 JUMP JUMPDEST PUSH2 0x266 SLOAD PUSH1 0x0 PUSH2 0x265 SLOAD PUSH2 0x271 SLOAD SWAP1 DUP2 PUSH1 0x80 SHR DUP5 ADD DUP1 DUP3 LT PUSH1 0x0 EQ PUSH2 0x1F84 JUMPI POP SWAP1 SWAP3 SWAP2 SWAP3 JUMPDEST DUP2 DUP4 LT PUSH2 0x1399 JUMPI JUMPDEST POP POP PUSH2 0x266 SSTORE DUP1 PUSH2 0x1368 JUMPI JUMPDEST PUSH1 0x1 PUSH2 0x232 SSTORE STOP JUMPDEST PUSH1 0x0 DUP1 DUP1 DUP1 SWAP4 PUSH1 0x4 CALLDATALOAD GAS CALL PUSH2 0x137B PUSH2 0x2D11 JUMP JUMPDEST POP ISZERO PUSH2 0x1387 JUMPI DUP1 PUSH2 0x1360 JUMP JUMPDEST PUSH1 0x40 MLOAD PUSH4 0x8F589409 PUSH1 0xE0 SHL DUP2 MSTORE PUSH1 0x4 SWAP1 REVERT JUMPDEST SWAP1 SWAP2 PUSH1 0x0 SWAP1 PUSH1 0x0 SWAP2 DUP2 PUSH1 0x0 MSTORE PUSH2 0x270 PUSH1 0x20 MSTORE PUSH1 0x40 PUSH1 0x0 KECCAK256 PUSH1 0x40 MLOAD SWAP1 PUSH2 0x13BF PUSH1 0x40 DUP4 PUSH2 0x2867 JUMP JUMPDEST SLOAD PUSH2 0x13CD PUSH1 0xFF DUP3 AND DUP4 PUSH2 0x318E JUMP JUMPDEST PUSH1 0x8 SHR DUP1 PUSH1 0x20 DUP4 ADD MSTORE PUSH1 0x1 PUSH1 0x1 PUSH1 0x80 SHL SUB DUP7 AND NUMBER SUB LT PUSH1 0x0 EQ PUSH2 0x1452 JUMPI POP PUSH1 0x0 SWAP3 POP DUP3 SWAP1 POP DUP1 JUMPDEST PUSH2 0x143C JUMPI JUMPDEST ISZERO PUSH2 0x1435 JUMPI DUP1 PUSH1 0x1 SWAP2 CALLER PUSH32 0xB207E6B6B26274F3764B879E578B4539B8E37F41DFF43932DDC87B3E04090974 PUSH1 0x0 DUP1 LOG3 ADD SWAP4 ADD SWAP2 SWAP1 SWAP3 SWAP2 SWAP3 PUSH2 0x134C JUMP JUMPDEST SWAP3 POP PUSH2 0x1354 JUMP JUMPDEST DUP2 PUSH1 0x0 MSTORE PUSH2 0x270 PUSH1 0x20 MSTORE PUSH1 0x0 PUSH1 0x40 DUP2 KECCAK256 SSTORE PUSH2 0x13F9 JUMP JUMPDEST DUP1 MLOAD PUSH1 0xA DUP2 LT ISZERO PUSH2 0x3F9 JUMPI PUSH1 0x1 SUB PUSH2 0x1716 JUMPI POP POP DUP1 SWAP2 POP PUSH1 0x0 MSTORE PUSH2 0x267 PUSH1 0x20 MSTORE PUSH2 0x147F PUSH1 0x40 PUSH1 0x0 KECCAK256 PUSH2 0x319A JUMP JUMPDEST PUSH2 0x264 DUP1 SLOAD PUSH1 0x40 DUP1 MLOAD PUSH4 0x235E81CF PUSH1 0xE0 SHL DUP2 MSTORE DUP5 MLOAD PUSH1 0x4 DUP3 ADD MSTORE PUSH1 0x20 DUP6 ADD MLOAD PUSH1 0x24 DUP3 ADD MSTORE SWAP1 DUP5 ADD MLOAD PUSH1 0x1 PUSH1 0x1 PUSH1 0xA0 SHL SUB SWAP1 DUP2 AND PUSH1 0x44 DUP4 ADD MSTORE PUSH1 0x60 DUP6 ADD MLOAD DUP2 AND PUSH1 0x64 DUP4 ADD MSTORE PUSH1 0x80 DUP6 ADD MLOAD DUP2 AND PUSH1 0x84 DUP4 ADD MSTORE SWAP1 SWAP2 PUSH1 0x0 SWAP2 AND DUP3 PUSH1 0xA4 DUP2 PUSH1 0xC0 SWAP5 DUP6 SWAP5 GAS CALL PUSH1 0x0 SWAP3 DUP4 SWAP3 DUP3 PUSH2 0x16E1 JUMPI JUMPDEST POP POP PUSH2 0x1665 JUMPI POP POP PUSH2 0x14FB PUSH2 0x2D11 JUMP JUMPDEST PUSH2 0x1504 DUP2 PUSH2 0x3249 JUMP JUMPDEST SWAP1 PUSH1 0x1 PUSH1 0x1 PUSH1 0xE0 SHL SUB NOT DUP3 AND PUSH4 0xB63F1A7 PUSH1 0xE0 SHL DUP2 SUB PUSH2 0x1600 JUMPI POP POP PUSH2 0x1540 PUSH1 0x0 DUP1 MLOAD PUSH1 0x20 PUSH2 0x4A7B DUP4 CODECOPY DUP2 MLOAD SWAP2 MSTORE SWAP2 PUSH1 0x40 MLOAD SWAP2 DUP3 SWAP2 DUP8 DUP4 PUSH2 0x32B6 JUMP JUMPDEST SUB SWAP1 LOG1 JUMPDEST SLOAD PUSH1 0x40 DUP3 ADD MLOAD PUSH1 0x20 SWAP1 SWAP3 ADD MLOAD PUSH1 0x1 PUSH1 0x1 PUSH1 0xA0 SHL SUB SWAP2 DUP3 AND SWAP3 SWAP1 SWAP2 AND SWAP1 DUP3 EXTCODESIZE ISZERO PUSH2 0x31D JUMPI PUSH1 0x40 MLOAD PUSH4 0x58F32DE9 PUSH1 0xE0 SHL DUP2 MSTORE PUSH1 0x1 PUSH1 0x1 PUSH1 0xA0 SHL SUB SWAP3 SWAP1 SWAP3 AND PUSH1 0x4 DUP4 ADD MSTORE PUSH1 0x24 DUP3 ADD MSTORE SWAP1 PUSH1 0x0 SWAP1 DUP3 SWAP1 PUSH1 0x44 SWAP1 DUP3 SWAP1 DUP5 SWAP1 GAS CALL DUP1 ISZERO PUSH2 0x15F4 JUMPI PUSH2 0x15E3 JUMPI JUMPDEST POP JUMPDEST DUP1 PUSH1 0x0 MSTORE PUSH2 0x267 PUSH1 0x20 MSTORE PUSH2 0x15D6 PUSH1 0x40 PUSH1 0x0 KECCAK256 PUSH1 0x4 PUSH1 0x0 SWAP2 DUP3 DUP2 SSTORE DUP3 PUSH1 0x1 DUP3 ADD SSTORE DUP3 PUSH1 0x2 DUP3 ADD SSTORE DUP3 PUSH1 0x3 DUP3 ADD SSTORE ADD SSTORE JUMP JUMPDEST PUSH2 0x1F7 SLOAD SWAP1 PUSH1 0x1 DUP1 PUSH2 0x13F4 JUMP JUMPDEST PUSH1 0x0 PUSH2 0x15EE SWAP2 PUSH2 0x2867 JUMP JUMPDEST DUP5 PUSH2 0x15A4 JUMP JUMPDEST PUSH1 0x40 MLOAD RETURNDATASIZE PUSH1 0x0 DUP3 RETURNDATACOPY RETURNDATASIZE SWAP1 REVERT JUMPDEST PUSH4 0x79121201 PUSH1 0xE0 SHL SUB PUSH2 0x1636 JUMPI POP PUSH2 0x162E PUSH1 0x0 DUP1 MLOAD PUSH1 0x20 PUSH2 0x4A7B DUP4 CODECOPY DUP2 MLOAD SWAP2 MSTORE SWAP2 PUSH1 0x40 MLOAD SWAP2 DUP3 SWAP2 DUP8 DUP4 PUSH2 0x327A JUMP JUMPDEST SUB SWAP1 LOG1 PUSH2 0x1544 JUMP JUMPDEST PUSH1 0x0 DUP1 MLOAD PUSH1 0x20 PUSH2 0x4A9B DUP4 CODECOPY DUP2 MLOAD SWAP2 MSTORE SWAP2 POP PUSH2 0x162E SWAP1 PUSH1 0x40 MLOAD SWAP2 DUP3 SWAP2 DUP8 DUP4 MSTORE PUSH1 0x40 PUSH1 0x20 DUP5 ADD MSTORE PUSH1 0x40 DUP4 ADD SWAP1 PUSH2 0x2E01 JUMP JUMPDEST PUSH32 0x5090A820029ACAE4D47B64DA9AF62CE04A5A1BDB546934E5FCFE091EE1F780EE SWAP2 SWAP3 POP PUSH1 0x1 DUP1 PUSH1 0xA0 SHL SUB PUSH1 0x40 DUP6 ADD MLOAD AND SWAP3 PUSH2 0x16D9 DUP7 PUSH1 0x60 PUSH1 0x1 DUP1 PUSH1 0xA0 SHL SUB DUP2 DUP10 ADD MLOAD AND SWAP8 DUP1 MLOAD SWAP5 DUP1 MLOAD SWAP3 PUSH1 0x20 DUP3 ADD MLOAD SWAP1 PUSH1 0x40 DUP4 ADD MLOAD SWAP3 ADD MLOAD SWAP3 PUSH1 0x80 PUSH1 0x1 DUP1 PUSH1 0xA0 SHL SUB SWAP2 ADD MLOAD AND SWAP4 PUSH1 0x40 MLOAD SWAP9 DUP10 SWAP9 DUP10 PUSH2 0x32FB JUMP JUMPDEST SUB SWAP1 LOG3 PUSH2 0x15A6 JUMP JUMPDEST DUP1 SWAP2 SWAP3 SWAP5 POP PUSH2 0x1705 SWAP4 POP SWAP1 RETURNDATASIZE LT PUSH2 0x170F JUMPI JUMPDEST PUSH2 0x16FD DUP2 DUP4 PUSH2 0x2867 JUMP JUMPDEST DUP2 ADD SWAP1 PUSH2 0x3226 JUMP JUMPDEST SWAP3 SWAP1 POP DUP10 DUP1 PUSH2 0x14EB JUMP JUMPDEST POP RETURNDATASIZE PUSH2 0x16F3 JUMP JUMPDEST DUP1 MLOAD PUSH1 0xA DUP2 LT ISZERO PUSH2 0x3F9 JUMPI PUSH1 0x2 SUB PUSH2 0x1A1B JUMPI POP POP DUP1 SWAP2 POP PUSH1 0x0 MSTORE PUSH2 0x269 PUSH1 0x20 MSTORE PUSH2 0x1743 PUSH1 0x40 PUSH1 0x0 KECCAK256 PUSH2 0x319A JUMP JUMPDEST PUSH2 0x264 DUP1 SLOAD PUSH1 0x40 DUP1 MLOAD PUSH4 0xBFE42621 PUSH1 0xE0 SHL DUP2 MSTORE DUP5 MLOAD PUSH1 0x4 DUP3 ADD MSTORE PUSH1 0x20 DUP6 ADD MLOAD PUSH1 0x24 DUP3 ADD MSTORE SWAP1 DUP5 ADD MLOAD PUSH1 0x1 PUSH1 0x1 PUSH1 0xA0 SHL SUB SWAP1 DUP2 AND PUSH1 0x44 DUP4 ADD MSTORE PUSH1 0x60 DUP6 ADD MLOAD DUP2 AND PUSH1 0x64 DUP4 ADD MSTORE PUSH1 0x80 DUP6 ADD MLOAD DUP2 AND PUSH1 0x84 DUP4 ADD MSTORE SWAP1 SWAP2 PUSH1 0x0 SWAP2 AND DUP3 PUSH1 0xA4 DUP2 PUSH1 0xC0 SWAP5 DUP6 SWAP5 GAS CALL PUSH1 0x0 SWAP3 DUP4 SWAP3 DUP3 PUSH2 0x19F6 JUMPI JUMPDEST POP POP PUSH2 0x197A JUMPI POP POP PUSH2 0x17BF PUSH2 0x2D11 JUMP JUMPDEST PUSH2 0x17C8 DUP2 PUSH2 0x3249 JUMP JUMPDEST PUSH1 0x1 PUSH1 0x1 PUSH1 0xE0 SHL SUB NOT DUP2 AND SWAP2 PUSH4 0xA5DB715D PUSH1 0xE0 SHL DUP4 SUB PUSH2 0x18E3 JUMPI POP POP PUSH1 0xA0 PUSH1 0x0 DUP1 MLOAD PUSH1 0x20 PUSH2 0x4A7B DUP4 CODECOPY DUP2 MLOAD SWAP2 MSTORE SWAP2 PUSH1 0x40 MLOAD SWAP1 DUP7 DUP3 MSTORE PUSH1 0x20 DUP3 ADD MSTORE PUSH1 0x19 PUSH1 0x60 DUP1 PUSH1 0x40 DUP5 ADD MSTORE DUP3 ADD MSTORE PUSH32 0x496E73756666696369656E7420746320746F2072656465656D00000000000000 PUSH1 0x80 DUP3 ADD MSTORE LOG1 JUMPDEST SLOAD PUSH1 0x40 DUP3 ADD MLOAD SWAP2 MLOAD PUSH1 0x1 PUSH1 0x1 PUSH1 0xA0 SHL SUB SWAP2 DUP3 AND SWAP3 SWAP1 SWAP2 AND SWAP1 DUP3 EXTCODESIZE ISZERO PUSH2 0x31D JUMPI PUSH1 0x40 MLOAD PUSH4 0x53B16D17 PUSH1 0xE0 SHL DUP2 MSTORE PUSH1 0x1 PUSH1 0x1 PUSH1 0xA0 SHL SUB SWAP3 SWAP1 SWAP3 AND PUSH1 0x4 DUP4 ADD MSTORE PUSH1 0x24 DUP3 ADD MSTORE SWAP1 PUSH1 0x0 SWAP1 DUP3 SWAP1 PUSH1 0x44 SWAP1 DUP3 SWAP1 DUP5 SWAP1 GAS CALL DUP1 ISZERO PUSH2 0x15F4 JUMPI PUSH2 0x18D2 JUMPI JUMPDEST POP JUMPDEST DUP1 PUSH1 0x0 MSTORE PUSH2 0x269 PUSH1 0x20 MSTORE PUSH2 0x18C5 PUSH1 0x40 PUSH1 0x0 KECCAK256 PUSH1 0x4 PUSH1 0x0 SWAP2 DUP3 DUP2 SSTORE DUP3 PUSH1 0x1 DUP3 ADD SSTORE DUP3 PUSH1 0x2 DUP3 ADD SSTORE DUP3 PUSH1 0x3 DUP3 ADD SSTORE ADD SSTORE JUMP JUMPDEST PUSH2 0x1F8 SLOAD SWAP1 PUSH1 0x1 DUP1 PUSH2 0x13F4 JUMP JUMPDEST PUSH1 0x0 PUSH2 0x18DD SWAP2 PUSH2 0x2867 JUMP JUMPDEST DUP5 PUSH2 0x1893 JUMP JUMPDEST SWAP1 SWAP2 PUSH4 0x54CDE313 PUSH1 0xE0 SHL DUP2 SUB PUSH2 0x191D JUMPI POP POP PUSH2 0x1915 PUSH1 0x0 DUP1 MLOAD PUSH1 0x20 PUSH2 0x4A7B DUP4 CODECOPY DUP2 MLOAD SWAP2 MSTORE SWAP2 PUSH1 0x40 MLOAD SWAP2 DUP3 SWAP2 DUP8 DUP4 PUSH2 0x333A JUMP JUMPDEST SUB SWAP1 LOG1 PUSH2 0x1837 JUMP JUMPDEST PUSH4 0x79121201 PUSH1 0xE0 SHL SUB PUSH2 0x194B JUMPI POP PUSH2 0x1915 PUSH1 0x0 DUP1 MLOAD PUSH1 0x20 PUSH2 0x4A7B DUP4 CODECOPY DUP2 MLOAD SWAP2 MSTORE SWAP2 PUSH1 0x40 MLOAD SWAP2 DUP3 SWAP2 DUP8 DUP4 PUSH2 0x327A JUMP JUMPDEST PUSH1 0x0 DUP1 MLOAD PUSH1 0x20 PUSH2 0x4A9B DUP4 CODECOPY DUP2 MLOAD SWAP2 MSTORE SWAP2 POP PUSH2 0x1915 SWAP1 PUSH1 0x40 MLOAD SWAP2 DUP3 SWAP2 DUP8 DUP4 MSTORE PUSH1 0x40 PUSH1 0x20 DUP5 ADD MSTORE PUSH1 0x40 DUP4 ADD SWAP1 PUSH2 0x2E01 JUMP JUMPDEST PUSH32 0x7E7043742F69701E6292386D468D710F2D6E44BF93232A1E52F1641E50A9DE12 SWAP2 SWAP3 POP PUSH1 0x1 DUP1 PUSH1 0xA0 SHL SUB PUSH1 0x40 DUP6 ADD MLOAD AND SWAP3 PUSH2 0x19EE DUP7 PUSH1 0x60 PUSH1 0x1 DUP1 PUSH1 0xA0 SHL SUB DUP2 DUP10 ADD MLOAD AND SWAP8 DUP1 MLOAD SWAP5 DUP1 MLOAD SWAP3 PUSH1 0x20 DUP3 ADD MLOAD SWAP1 PUSH1 0x40 DUP4 ADD MLOAD SWAP3 ADD MLOAD SWAP3 PUSH1 0x80 PUSH1 0x1 DUP1 PUSH1 0xA0 SHL SUB SWAP2 ADD MLOAD AND SWAP4 PUSH1 0x40 MLOAD SWAP9 DUP10 SWAP9 DUP10 PUSH2 0x32FB JUMP JUMPDEST SUB SWAP1 LOG3 PUSH2 0x1895 JUMP JUMPDEST DUP1 SWAP2 SWAP3 SWAP5 POP PUSH2 0x1A11 SWAP4 POP SWAP1 RETURNDATASIZE LT PUSH2 0x170F JUMPI PUSH2 0x16FD DUP2 DUP4 PUSH2 0x2867 JUMP JUMPDEST SWAP3 SWAP1 POP DUP10 DUP1 PUSH2 0x17AF JUMP JUMPDEST DUP1 MLOAD PUSH1 0xA DUP2 LT ISZERO PUSH2 0x3F9 JUMPI PUSH1 0x3 SUB PUSH2 0x1A46 JUMPI POP POP SWAP1 POP PUSH2 0x1A3A DUP2 PUSH2 0x3480 JUMP JUMPDEST SWAP1 DUP2 PUSH2 0x1F9 SLOAD SWAP3 PUSH2 0x13F4 JUMP JUMPDEST DUP1 MLOAD PUSH1 0xA DUP2 LT ISZERO PUSH2 0x3F9 JUMPI PUSH1 0x4 SUB PUSH2 0x1A71 JUMPI POP POP SWAP1 POP PUSH2 0x1A65 DUP2 PUSH2 0x3789 JUMP JUMPDEST SWAP1 DUP2 PUSH2 0x1FA SLOAD SWAP3 PUSH2 0x13F4 JUMP JUMPDEST DUP1 MLOAD PUSH1 0xA DUP2 LT ISZERO PUSH2 0x3F9 JUMPI PUSH1 0x5 SUB PUSH2 0x1A9C JUMPI POP POP SWAP1 POP PUSH2 0x1A90 DUP2 PUSH2 0x39F8 JUMP JUMPDEST SWAP1 DUP2 PUSH2 0x1FF SLOAD SWAP3 PUSH2 0x13F4 JUMP JUMPDEST DUP1 MLOAD PUSH1 0xA DUP2 LT ISZERO PUSH2 0x3F9 JUMPI PUSH1 0x6 SUB PUSH2 0x1AC7 JUMPI POP POP SWAP1 POP PUSH2 0x1ABB DUP2 PUSH2 0x3D8C JUMP JUMPDEST SWAP1 DUP2 PUSH2 0x1FE SLOAD SWAP3 PUSH2 0x13F4 JUMP JUMPDEST DUP1 MLOAD PUSH1 0xA DUP2 LT ISZERO PUSH2 0x3F9 JUMPI PUSH1 0x7 SUB PUSH2 0x1AF2 JUMPI POP POP SWAP1 POP PUSH2 0x1AE6 DUP2 PUSH2 0x415A JUMP JUMPDEST SWAP1 DUP2 PUSH2 0x1FD SLOAD SWAP3 PUSH2 0x13F4 JUMP JUMPDEST DUP1 MLOAD PUSH1 0xA DUP2 LT ISZERO PUSH2 0x3F9 JUMPI PUSH1 0x8 SUB PUSH2 0x1B1D JUMPI POP POP SWAP1 POP PUSH2 0x1B11 DUP2 PUSH2 0x443C JUMP JUMPDEST SWAP1 DUP2 PUSH2 0x1FC SLOAD SWAP3 PUSH2 0x13F4 JUMP JUMPDEST MLOAD PUSH1 0xA DUP2 LT ISZERO PUSH2 0x3F9 JUMPI PUSH1 0x9 EQ PUSH2 0x1B35 JUMPI JUMPDEST DUP1 PUSH2 0x13F4 JUMP JUMPDEST POP DUP1 SWAP2 POP PUSH1 0x0 MSTORE PUSH2 0x26F PUSH1 0x20 MSTORE PUSH1 0x0 PUSH1 0x40 DUP2 KECCAK256 PUSH1 0x40 MLOAD SWAP1 PUSH2 0x1B58 PUSH2 0x100 DUP4 PUSH2 0x2867 JUMP JUMPDEST PUSH1 0x1 DUP1 PUSH1 0xA0 SHL SUB DUP2 SLOAD AND DUP3 MSTORE PUSH1 0x1 DUP1 PUSH1 0xA0 SHL SUB PUSH1 0x1 DUP3 ADD SLOAD AND PUSH1 0x20 DUP4 ADD MSTORE PUSH1 0x2 DUP2 ADD SLOAD PUSH1 0x40 DUP4 ADD MSTORE PUSH1 0x3 DUP2 ADD SLOAD PUSH1 0x60 DUP4 ADD MSTORE PUSH1 0x4 DUP2 ADD SLOAD PUSH1 0x80 DUP4 ADD MSTORE PUSH1 0x1 DUP1 PUSH1 0xA0 SHL SUB PUSH1 0x5 DUP3 ADD SLOAD AND PUSH1 0xA0 DUP4 ADD MSTORE PUSH1 0x1 DUP1 PUSH1 0xA0 SHL SUB PUSH1 0x6 DUP3 ADD SLOAD AND PUSH1 0xC0 DUP4 ADD MSTORE PUSH1 0x7 PUSH1 0x1 DUP1 PUSH1 0xA0 SHL SUB SWAP2 ADD SLOAD AND PUSH1 0xE0 DUP3 ADD MSTORE DUP3 DUP3 MSTORE PUSH2 0x26F PUSH1 0x20 MSTORE DUP2 PUSH1 0x7 PUSH1 0x40 DUP3 KECCAK256 DUP3 DUP2 SSTORE DUP3 PUSH1 0x1 DUP3 ADD SSTORE DUP3 PUSH1 0x2 DUP3 ADD SSTORE DUP3 PUSH1 0x3 DUP3 ADD SSTORE DUP3 PUSH1 0x4 DUP3 ADD SSTORE DUP3 PUSH1 0x5 DUP3 ADD SSTORE DUP3 PUSH1 0x6 DUP3 ADD SSTORE ADD SSTORE PUSH1 0xE0 PUSH1 0x1 DUP1 PUSH1 0xA0 SHL SUB PUSH2 0x264 SLOAD AND PUSH2 0x104 PUSH1 0x40 MLOAD DUP1 SWAP6 DUP2 SWAP4 PUSH4 0x391BF6CF DUP7 SHL DUP4 MSTORE PUSH1 0x1 DUP1 PUSH1 0xA0 SHL SUB DUP8 MLOAD AND PUSH1 0x4 DUP5 ADD MSTORE PUSH1 0x1 DUP1 PUSH1 0xA0 SHL SUB PUSH1 0x20 DUP9 ADD MLOAD AND PUSH1 0x24 DUP5 ADD MSTORE PUSH1 0x40 DUP8 ADD MLOAD PUSH1 0x44 DUP5 ADD MSTORE PUSH1 0x60 DUP8 ADD MLOAD PUSH1 0x64 DUP5 ADD MSTORE PUSH1 0x80 DUP8 ADD MLOAD PUSH1 0x84 DUP5 ADD MSTORE PUSH1 0x1 DUP1 PUSH1 0xA0 SHL SUB PUSH1 0xA0 DUP9 ADD MLOAD AND PUSH1 0xA4 DUP5 ADD MSTORE PUSH1 0x1 DUP1 PUSH1 0xA0 SHL SUB PUSH1 0xC0 DUP9 ADD MLOAD AND PUSH1 0xC4 DUP5 ADD MSTORE PUSH1 0x1 DUP1 PUSH1 0xA0 SHL SUB DUP7 DUP9 ADD MLOAD AND PUSH1 0xE4 DUP5 ADD MSTORE GAS CALL SWAP2 DUP3 PUSH1 0x0 SWAP2 PUSH1 0x0 SWAP5 PUSH2 0x1F4D JUMPI JUMPDEST POP PUSH2 0x1E97 JUMPI POP SWAP1 POP PUSH2 0x1CB7 PUSH2 0x2D11 JUMP JUMPDEST PUSH2 0x1CC0 DUP2 PUSH2 0x3249 JUMP JUMPDEST SWAP1 PUSH1 0x1 PUSH1 0x1 PUSH1 0xE0 SHL SUB NOT DUP3 AND PUSH4 0xB63F1A7 PUSH1 0xE0 SHL DUP2 SUB PUSH2 0x1E02 JUMPI POP POP PUSH2 0x1CFC PUSH1 0x0 DUP1 MLOAD PUSH1 0x20 PUSH2 0x4A7B DUP4 CODECOPY DUP2 MLOAD SWAP2 MSTORE SWAP2 PUSH1 0x40 MLOAD SWAP2 DUP3 SWAP2 DUP7 DUP4 PUSH2 0x32B6 JUMP JUMPDEST SUB SWAP1 LOG1 JUMPDEST PUSH2 0x264 SLOAD PUSH1 0xA0 DUP3 ADD MLOAD DUP3 MLOAD PUSH1 0x40 DUP5 ADD MLOAD PUSH1 0x1 PUSH1 0x1 PUSH1 0xA0 SHL SUB SWAP2 DUP3 AND SWAP4 SWAP3 DUP3 AND SWAP3 SWAP1 SWAP2 AND DUP1 EXTCODESIZE ISZERO PUSH2 0x31D JUMPI PUSH1 0x40 MLOAD PUSH4 0xE2C5E99 PUSH1 0xE4 SHL DUP2 MSTORE PUSH1 0x1 PUSH1 0x1 PUSH1 0xA0 SHL SUB SWAP4 DUP5 AND PUSH1 0x4 DUP3 ADD MSTORE SWAP4 SWAP1 SWAP3 AND PUSH1 0x24 DUP5 ADD MSTORE PUSH1 0x44 DUP4 ADD MSTORE PUSH1 0x0 SWAP1 DUP3 SWAP1 PUSH1 0x64 SWAP1 DUP3 SWAP1 DUP5 SWAP1 GAS CALL DUP1 ISZERO PUSH2 0x15F4 JUMPI PUSH2 0x1DF1 JUMPI JUMPDEST POP PUSH2 0x264 SLOAD PUSH1 0xA0 DUP3 ADD MLOAD PUSH1 0x80 SWAP1 SWAP3 ADD MLOAD PUSH1 0x1 PUSH1 0x1 PUSH1 0xA0 SHL SUB SWAP2 DUP3 AND SWAP3 SWAP1 SWAP2 AND SWAP1 DUP3 EXTCODESIZE ISZERO PUSH2 0x31D JUMPI PUSH1 0x40 MLOAD PUSH4 0x58F32DE9 PUSH1 0xE0 SHL DUP2 MSTORE PUSH1 0x1 PUSH1 0x1 PUSH1 0xA0 SHL SUB SWAP3 SWAP1 SWAP3 AND PUSH1 0x4 DUP4 ADD MSTORE PUSH1 0x24 DUP3 ADD MSTORE SWAP1 PUSH1 0x0 SWAP1 DUP3 SWAP1 PUSH1 0x44 SWAP1 DUP3 SWAP1 DUP5 SWAP1 GAS CALL DUP1 ISZERO PUSH2 0x15F4 JUMPI PUSH2 0x1DE0 JUMPI JUMPDEST POP JUMPDEST PUSH2 0x1FB SLOAD SWAP1 PUSH1 0x1 PUSH2 0x1B2F JUMP JUMPDEST PUSH1 0x0 PUSH2 0x1DEB SWAP2 PUSH2 0x2867 JUMP JUMPDEST DUP5 PUSH2 0x1DD2 JUMP JUMPDEST PUSH1 0x0 PUSH2 0x1DFC SWAP2 PUSH2 0x2867 JUMP JUMPDEST DUP6 PUSH2 0x1D6E JUMP JUMPDEST PUSH4 0x272E3F59 PUSH1 0xE2 SHL DUP2 SUB PUSH2 0x1E3A JUMPI POP POP PUSH2 0x1E32 PUSH1 0x0 DUP1 MLOAD PUSH1 0x20 PUSH2 0x4A7B DUP4 CODECOPY DUP2 MLOAD SWAP2 MSTORE SWAP2 PUSH1 0x40 MLOAD SWAP2 DUP3 SWAP2 DUP7 DUP4 PUSH2 0x410D JUMP JUMPDEST SUB SWAP1 LOG1 PUSH2 0x1D00 JUMP JUMPDEST PUSH4 0x79121201 PUSH1 0xE0 SHL SUB PUSH2 0x1E68 JUMPI POP PUSH2 0x1E32 PUSH1 0x0 DUP1 MLOAD PUSH1 0x20 PUSH2 0x4A7B DUP4 CODECOPY DUP2 MLOAD SWAP2 MSTORE SWAP2 PUSH1 0x40 MLOAD SWAP2 DUP3 SWAP2 DUP7 DUP4 PUSH2 0x327A JUMP JUMPDEST PUSH1 0x0 DUP1 MLOAD PUSH1 0x20 PUSH2 0x4A9B DUP4 CODECOPY DUP2 MLOAD SWAP2 MSTORE SWAP2 POP PUSH2 0x1E32 SWAP1 PUSH1 0x40 MLOAD SWAP2 DUP3 SWAP2 DUP7 DUP4 MSTORE PUSH1 0x40 PUSH1 0x20 DUP5 ADD MSTORE PUSH1 0x40 DUP4 ADD SWAP1 PUSH2 0x2E01 JUMP JUMPDEST PUSH32 0xF86F4487D2C5541B78F06D2368E28E0F4052E182124DEF54D5855BF2A01D3258 PUSH2 0x120 PUSH1 0x1 DUP1 PUSH1 0xA0 SHL SUB DUP5 MLOAD AND SWAP3 PUSH1 0x1 DUP1 PUSH1 0xA0 SHL SUB PUSH1 0x20 DUP7 ADD MLOAD AND SWAP1 PUSH1 0x1 DUP1 PUSH1 0xA0 SHL SUB PUSH1 0xA0 DUP8 ADD MLOAD AND SWAP6 PUSH1 0x1 DUP1 PUSH1 0xA0 SHL SUB PUSH1 0xC0 DUP3 ADD MLOAD AND SWAP8 PUSH1 0x40 DUP3 ADD MLOAD SWAP3 DUP2 MLOAD PUSH1 0x20 DUP4 ADD MLOAD SWAP2 PUSH1 0x60 PUSH1 0x40 DUP6 ADD MLOAD SWAP5 ADD MLOAD SWAP5 PUSH1 0xE0 PUSH1 0x1 DUP1 PUSH1 0xA0 SHL SUB SWAP2 ADD MLOAD AND SWAP6 PUSH1 0x40 MLOAD SWAP8 DUP9 MSTORE PUSH1 0x20 DUP9 ADD MSTORE PUSH1 0x40 DUP8 ADD MSTORE PUSH1 0x60 DUP7 ADD MSTORE PUSH1 0x80 DUP6 ADD MSTORE PUSH1 0xA0 DUP5 ADD MSTORE PUSH1 0xC0 DUP4 ADD MSTORE PUSH1 0xE0 DUP3 ADD MSTORE DUP7 PUSH2 0x100 DUP3 ADD MSTORE LOG4 PUSH2 0x1DD4 JUMP JUMPDEST SWAP1 SWAP4 POP PUSH2 0x1F72 SWAP2 POP PUSH1 0xE0 RETURNDATASIZE PUSH1 0xE0 GT PUSH2 0x1F7D JUMPI JUMPDEST PUSH2 0x1F6A DUP2 DUP4 PUSH2 0x2867 JUMP JUMPDEST DUP2 ADD SWAP1 PUSH2 0x39D4 JUMP JUMPDEST SWAP3 POP POP SWAP1 SWAP3 DUP9 PUSH2 0x1CA7 JUMP JUMPDEST POP RETURNDATASIZE PUSH2 0x1F60 JUMP JUMPDEST SWAP1 POP SWAP1 SWAP3 SWAP2 SWAP3 PUSH2 0x134C JUMP JUMPDEST PUSH1 0x40 MLOAD PUSH3 0x461BCD PUSH1 0xE5 SHL DUP2 MSTORE PUSH1 0x20 PUSH1 0x4 DUP3 ADD MSTORE PUSH1 0x1F PUSH1 0x24 DUP3 ADD MSTORE PUSH32 0x5265656E7472616E637947756172643A207265656E7472616E742063616C6C00 PUSH1 0x44 DUP3 ADD MSTORE PUSH1 0x64 SWAP1 REVERT JUMPDEST CALLVALUE PUSH2 0x31D JUMPI PUSH2 0x120 CALLDATASIZE PUSH1 0x3 NOT ADD SLT PUSH2 0x31D JUMPI PUSH2 0x1FEE PUSH2 0x2E3E JUMP JUMPDEST PUSH2 0x266 SLOAD PUSH2 0x265 SLOAD SUB PUSH2 0x2005 JUMPI PUSH2 0x8D3 PUSH1 0x4 PUSH2 0x4972 JUMP JUMPDEST PUSH1 0x40 MLOAD PUSH4 0x15996EAB PUSH1 0xE0 SHL DUP2 MSTORE PUSH1 0x4 SWAP1 REVERT JUMPDEST PUSH1 0xC0 CALLDATASIZE PUSH1 0x3 NOT ADD SLT PUSH2 0x31D JUMPI PUSH2 0x202B PUSH2 0x2EC1 JUMP JUMPDEST PUSH2 0x2042 PUSH1 0x0 DUP1 MLOAD PUSH1 0x20 PUSH2 0x4ADB DUP4 CODECOPY DUP2 MLOAD SWAP2 MSTORE PUSH2 0x2F42 JUMP JUMPDEST PUSH2 0x204E PUSH2 0x1FF SLOAD PUSH2 0x4950 JUMP JUMPDEST PUSH2 0x265 DUP1 SLOAD PUSH1 0x40 MLOAD SWAP2 PUSH2 0x2062 PUSH1 0x40 DUP5 PUSH2 0x2867 JUMP JUMPDEST PUSH1 0x5 DUP4 MSTORE PUSH1 0x20 DUP4 ADD SWAP3 PUSH1 0x1 DUP1 PUSH1 0xF8 SHL SUB NUMBER AND DUP5 MSTORE DUP3 PUSH1 0x0 MSTORE PUSH2 0x270 PUSH1 0x20 MSTORE PUSH1 0x40 PUSH1 0x0 KECCAK256 SWAP1 MLOAD PUSH1 0xA DUP2 LT ISZERO PUSH2 0x3F9 JUMPI PUSH1 0xFF PUSH1 0x20 SWAP6 DUP2 NOT SWAP1 MLOAD PUSH1 0x8 SHL AND SWAP2 AND OR SWAP1 SSTORE DUP2 PUSH1 0x0 MSTORE PUSH2 0x26B DUP4 MSTORE PUSH2 0x20BA PUSH1 0x4 PUSH1 0x40 PUSH1 0x0 KECCAK256 PUSH2 0x4788 JUMP JUMPDEST PUSH1 0x40 MLOAD DUP3 DUP2 MSTORE PUSH1 0x5 DUP5 DUP3 ADD MSTORE PUSH1 0x0 DUP1 MLOAD PUSH1 0x20 PUSH2 0x4ABB DUP4 CODECOPY DUP2 MLOAD SWAP2 MSTORE PUSH1 0x40 CALLER SWAP3 LOG2 PUSH2 0x3EF DUP2 SLOAD PUSH2 0x4779 JUMP JUMPDEST CALLVALUE PUSH2 0x31D JUMPI PUSH1 0x20 CALLDATASIZE PUSH1 0x3 NOT ADD SLT PUSH2 0x31D JUMPI PUSH1 0x4 CALLDATALOAD PUSH1 0x0 MSTORE PUSH2 0x26F PUSH1 0x20 MSTORE PUSH2 0x100 PUSH1 0x40 PUSH1 0x0 KECCAK256 PUSH1 0x1 DUP1 PUSH1 0xA0 SHL SUB DUP1 DUP3 SLOAD AND SWAP2 DUP2 PUSH1 0x1 DUP3 ADD SLOAD AND SWAP2 PUSH1 0x2 DUP3 ADD SLOAD PUSH1 0x3 DUP4 ADD SLOAD PUSH1 0x4 DUP5 ADD SLOAD SWAP2 DUP4 PUSH1 0x5 DUP7 ADD SLOAD AND SWAP4 PUSH1 0x7 DUP2 PUSH1 0x6 DUP9 ADD SLOAD AND SWAP7 ADD SLOAD AND SWAP6 PUSH1 0x40 MLOAD SWAP8 DUP9 MSTORE PUSH1 0x20 DUP9 ADD MSTORE PUSH1 0x40 DUP8 ADD MSTORE PUSH1 0x60 DUP7 ADD MSTORE PUSH1 0x80 DUP6 ADD MSTORE PUSH1 0xA0 DUP5 ADD MSTORE PUSH1 0xC0 DUP4 ADD MSTORE PUSH1 0xE0 DUP3 ADD MSTORE RETURN JUMPDEST CALLVALUE PUSH2 0x31D JUMPI PUSH1 0x0 CALLDATASIZE PUSH1 0x3 NOT ADD SLT PUSH2 0x31D JUMPI PUSH1 0x20 PUSH2 0x1FF SLOAD PUSH1 0x40 MLOAD SWAP1 DUP2 MSTORE RETURN JUMPDEST CALLVALUE PUSH2 0x31D JUMPI PUSH1 0x0 CALLDATASIZE PUSH1 0x3 NOT ADD SLT PUSH2 0x31D JUMPI PUSH1 0xCA SLOAD PUSH1 0xFF DUP2 PUSH1 0x8 SHR AND ISZERO PUSH2 0x21F5 JUMPI PUSH1 0x10 DUP2 SWAP1 SHR PUSH1 0x1 PUSH1 0x1 PUSH1 0xA0 SHL SUB AND CALLER SUB PUSH2 0xD0B JUMPI PUSH2 0xFF00 NOT AND PUSH1 0xCA SSTORE PUSH32 0x5DB9EE0A495BF2E6FF9C91A7834C1BA4FDD244A5E8AA4E537BD38AEAE4B073AA PUSH1 0x20 PUSH1 0x40 MLOAD CALLER DUP2 MSTORE LOG1 STOP JUMPDEST PUSH1 0x40 MLOAD PUSH4 0x7C7FD079 PUSH1 0xE0 SHL DUP2 MSTORE PUSH1 0x4 SWAP1 REVERT JUMPDEST CALLVALUE PUSH2 0x31D JUMPI PUSH1 0x0 CALLDATASIZE PUSH1 0x3 NOT ADD SLT PUSH2 0x31D JUMPI PUSH1 0x20 PUSH2 0x1F9 SLOAD PUSH1 0x40 MLOAD SWAP1 DUP2 MSTORE RETURN JUMPDEST CALLVALUE PUSH2 0x31D JUMPI PUSH1 0x0 CALLDATASIZE PUSH1 0x3 NOT ADD SLT PUSH2 0x31D JUMPI PUSH1 0x20 PUSH2 0x2241 PUSH2 0x4869 JUMP JUMPDEST PUSH1 0x40 MLOAD SWAP1 ISZERO ISZERO DUP2 MSTORE RETURN JUMPDEST CALLVALUE PUSH2 0x31D JUMPI PUSH1 0x20 CALLDATASIZE PUSH1 0x3 NOT ADD SLT PUSH2 0x31D JUMPI PUSH1 0x4 CALLDATALOAD PUSH1 0x1 PUSH1 0x1 PUSH1 0x80 SHL SUB DUP2 AND DUP1 SWAP2 SUB PUSH2 0x31D JUMPI PUSH2 0x2278 PUSH2 0x2E3E JUMP JUMPDEST PUSH2 0x271 DUP1 SLOAD PUSH1 0x1 PUSH1 0x1 PUSH1 0x80 SHL SUB NOT AND SWAP1 SWAP2 OR SWAP1 SSTORE STOP JUMPDEST CALLVALUE PUSH2 0x31D JUMPI PUSH1 0x20 CALLDATASIZE PUSH1 0x3 NOT ADD SLT PUSH2 0x31D JUMPI PUSH1 0x4 CALLDATALOAD PUSH1 0x1 PUSH1 0x1 PUSH1 0xA0 SHL SUB DUP1 DUP3 AND DUP3 SUB PUSH2 0x31D JUMPI PUSH2 0x8D3 SWAP2 PUSH2 0x22ED DUP3 PUSH1 0x0 SWAP4 PUSH32 0x0 AND SWAP1 PUSH2 0x128B DUP3 ADDRESS EQ ISZERO PUSH2 0x2974 JUMP JUMPDEST PUSH2 0x22F5 PUSH2 0x2E3E JUMP JUMPDEST PUSH2 0x22FE DUP3 PUSH2 0x289F JUMP JUMPDEST SWAP1 PUSH2 0x230C PUSH1 0x40 MLOAD SWAP3 DUP4 PUSH2 0x2867 JUMP JUMPDEST DUP3 DUP3 MSTORE PUSH1 0x1F NOT PUSH2 0x231B DUP5 PUSH2 0x289F JUMP JUMPDEST ADD CALLDATASIZE PUSH1 0x20 DUP5 ADD CALLDATACOPY PUSH2 0x2A36 JUMP JUMPDEST CALLVALUE PUSH2 0x31D JUMPI PUSH1 0x40 CALLDATASIZE PUSH1 0x3 NOT ADD SLT PUSH2 0x31D JUMPI PUSH1 0x24 CALLDATALOAD PUSH1 0x1 PUSH1 0x1 PUSH1 0xA0 SHL SUB DUP2 AND DUP1 DUP3 SUB PUSH2 0x31D JUMPI CALLER SUB PUSH2 0x235E JUMPI PUSH2 0x8D3 SWAP1 PUSH1 0x4 CALLDATALOAD PUSH2 0x28F5 JUMP JUMPDEST PUSH1 0x40 MLOAD PUSH3 0x461BCD PUSH1 0xE5 SHL DUP2 MSTORE PUSH1 0x20 PUSH1 0x4 DUP3 ADD MSTORE PUSH1 0x2F PUSH1 0x24 DUP3 ADD MSTORE PUSH32 0x416363657373436F6E74726F6C3A2063616E206F6E6C792072656E6F756E6365 PUSH1 0x44 DUP3 ADD MSTORE PUSH15 0x103937B632B9903337B91039B2B633 PUSH1 0x89 SHL PUSH1 0x64 DUP3 ADD MSTORE PUSH1 0x84 SWAP1 REVERT JUMPDEST PUSH2 0x100 CALLDATASIZE PUSH1 0x3 NOT ADD SLT PUSH2 0x31D JUMPI PUSH2 0x23D0 PUSH2 0x2EC1 JUMP JUMPDEST PUSH2 0x23E7 PUSH1 0x0 DUP1 MLOAD PUSH1 0x20 PUSH2 0x4ADB DUP4 CODECOPY DUP2 MLOAD SWAP2 MSTORE PUSH2 0x2F42 JUMP JUMPDEST PUSH2 0x23F3 PUSH2 0x1FB SLOAD PUSH2 0x4950 JUMP JUMPDEST PUSH2 0x265 DUP1 SLOAD PUSH1 0x40 MLOAD PUSH2 0x2406 PUSH1 0x40 DUP3 PUSH2 0x2867 JUMP JUMPDEST PUSH1 0x9 DUP2 MSTORE PUSH1 0x20 DUP2 ADD PUSH1 0x1 DUP1 PUSH1 0xF8 SHL SUB NUMBER AND DUP2 MSTORE DUP3 PUSH1 0x0 MSTORE PUSH2 0x270 PUSH1 0x20 MSTORE PUSH1 0x40 PUSH1 0x0 KECCAK256 SWAP2 MLOAD SWAP1 PUSH1 0xA DUP3 LT ISZERO PUSH2 0x3F9 JUMPI MLOAD PUSH1 0xFF SWAP2 SWAP1 SWAP2 AND PUSH1 0x8 SWAP2 SWAP1 SWAP2 SHL PUSH1 0xFF NOT AND OR SWAP1 SSTORE PUSH1 0x0 DUP2 DUP2 MSTORE PUSH2 0x26F PUSH1 0x20 MSTORE PUSH1 0x40 SWAP1 KECCAK256 PUSH1 0x1 PUSH1 0x1 PUSH1 0xA0 SHL SUB PUSH1 0x4 CALLDATALOAD DUP2 DUP2 AND SWAP5 SWAP3 SWAP1 DUP6 SWAP1 SUB PUSH2 0x31D JUMPI PUSH1 0x1 PUSH1 0x1 PUSH1 0x60 SHL SUB PUSH1 0xA0 SHL SWAP5 DUP6 DUP3 SLOAD AND OR DUP2 SSTORE PUSH1 0x1 DUP2 ADD PUSH1 0x24 CALLDATALOAD DUP4 DUP2 AND DUP1 SWAP2 SUB PUSH2 0x31D JUMPI DUP7 DUP3 SLOAD AND OR SWAP1 SSTORE PUSH1 0x44 CALLDATALOAD PUSH1 0x2 DUP3 ADD SSTORE PUSH1 0x64 CALLDATALOAD PUSH1 0x3 DUP3 ADD SSTORE PUSH1 0x84 CALLDATALOAD PUSH1 0x4 DUP3 ADD SSTORE PUSH1 0x5 DUP2 ADD PUSH1 0xA4 CALLDATALOAD DUP4 DUP2 AND DUP1 SWAP2 SUB PUSH2 0x31D JUMPI DUP7 DUP3 SLOAD AND OR SWAP1 SSTORE PUSH1 0x6 DUP2 ADD SWAP1 PUSH1 0xC4 CALLDATALOAD SWAP2 DUP4 DUP4 AND DUP1 SWAP4 SUB PUSH2 0x31D JUMPI PUSH1 0x7 SWAP3 DUP8 DUP3 SLOAD AND OR SWAP1 SSTORE ADD SWAP1 PUSH1 0xE4 CALLDATALOAD SWAP1 DUP2 AND DUP1 SWAP2 SUB PUSH2 0x31D JUMPI PUSH1 0x20 SWAP5 DUP3 SLOAD AND OR SWAP1 SSTORE PUSH1 0x40 MLOAD DUP3 DUP2 MSTORE PUSH1 0x9 DUP5 DUP3 ADD MSTORE PUSH1 0x0 DUP1 MLOAD PUSH1 0x20 PUSH2 0x4ABB DUP4 CODECOPY DUP2 MLOAD SWAP2 MSTORE PUSH1 0x40 CALLER SWAP3 LOG2 PUSH2 0x3EF DUP2 SLOAD PUSH2 0x4779 JUMP JUMPDEST CALLVALUE PUSH2 0x31D JUMPI PUSH1 0x40 CALLDATASIZE PUSH1 0x3 NOT ADD SLT PUSH2 0x31D JUMPI PUSH1 0x4 CALLDATALOAD PUSH1 0x24 CALLDATALOAD PUSH1 0x1 PUSH1 0x1 PUSH1 0xA0 SHL SUB DUP2 AND DUP2 SUB PUSH2 0x31D JUMPI DUP2 PUSH2 0x255D PUSH2 0x8D3 SWAP4 PUSH2 0x49C2 JUMP JUMPDEST PUSH2 0x48CE JUMP JUMPDEST CALLVALUE PUSH2 0x31D JUMPI PUSH1 0x20 CALLDATASIZE PUSH1 0x3 NOT ADD SLT PUSH2 0x31D JUMPI PUSH1 0x4 CALLDATALOAD PUSH1 0x1 PUSH1 0x1 PUSH1 0xA0 SHL SUB DUP2 AND DUP2 SUB PUSH2 0x31D JUMPI PUSH2 0x258E PUSH2 0x2E3E JUMP JUMPDEST PUSH1 0xCA DUP1 SLOAD PUSH3 0x10000 PUSH1 0x1 PUSH1 0xB0 SHL SUB NOT AND PUSH1 0x10 SWAP3 SWAP1 SWAP3 SHL PUSH3 0x10000 PUSH1 0x1 PUSH1 0xB0 SHL SUB AND SWAP2 SWAP1 SWAP2 OR SWAP1 SSTORE STOP JUMPDEST CALLVALUE PUSH2 0x31D JUMPI PUSH1 0x0 CALLDATASIZE PUSH1 0x3 NOT ADD SLT PUSH2 0x31D JUMPI PUSH1 0x20 PUSH2 0x266 SLOAD PUSH1 0x40 MLOAD SWAP1 DUP2 MSTORE RETURN JUMPDEST CALLVALUE PUSH2 0x31D JUMPI PUSH1 0x20 CALLDATASIZE PUSH1 0x3 NOT ADD SLT PUSH2 0x31D JUMPI PUSH1 0x4 CALLDATALOAD PUSH1 0x0 MSTORE PUSH2 0x193 PUSH1 0x20 MSTORE PUSH1 0x20 PUSH1 0x1 PUSH1 0x40 PUSH1 0x0 KECCAK256 ADD SLOAD PUSH1 0x40 MLOAD SWAP1 DUP2 MSTORE RETURN JUMPDEST CALLVALUE PUSH2 0x31D JUMPI PUSH1 0x20 CALLDATASIZE PUSH1 0x3 NOT ADD SLT PUSH2 0x31D JUMPI PUSH1 0x4 DUP1 CALLDATALOAD PUSH1 0x0 SWAP1 DUP2 MSTORE PUSH2 0x267 PUSH1 0x20 SWAP1 DUP2 MSTORE PUSH1 0x40 SWAP2 DUP3 SWAP1 KECCAK256 DUP1 SLOAD PUSH1 0x1 DUP3 ADD SLOAD PUSH1 0x2 DUP4 ADD SLOAD PUSH1 0x3 DUP5 ADD SLOAD SWAP4 SWAP1 SWAP7 ADD SLOAD DUP6 MLOAD SWAP3 DUP4 MSTORE SWAP4 DUP3 ADD MSTORE PUSH1 0x1 PUSH1 0x1 PUSH1 0xA0 SHL SUB SWAP5 DUP6 AND SWAP4 DUP2 ADD SWAP4 SWAP1 SWAP4 MSTORE DUP4 AND PUSH1 0x60 DUP4 ADD MSTORE SWAP2 SWAP1 SWAP2 AND PUSH1 0x80 DUP3 ADD MSTORE PUSH1 0xA0 SWAP1 RETURN JUMPDEST CALLVALUE PUSH2 0x31D JUMPI PUSH1 0x20 CALLDATASIZE PUSH1 0x3 NOT ADD SLT PUSH2 0x31D JUMPI PUSH1 0x4 CALLDATALOAD PUSH1 0x0 MSTORE PUSH2 0x26D PUSH1 0x20 MSTORE PUSH1 0x40 PUSH1 0x0 KECCAK256 PUSH1 0x1 DUP1 PUSH1 0xA0 SHL SUB PUSH2 0x319 DUP2 DUP4 SLOAD AND SWAP2 PUSH1 0x1 DUP5 ADD SLOAD SWAP4 PUSH1 0x2 DUP2 ADD SLOAD SWAP2 PUSH1 0x3 DUP3 ADD SLOAD DUP2 PUSH1 0x4 DUP5 ADD SLOAD AND SWAP2 PUSH1 0x6 DUP2 PUSH1 0x5 DUP7 ADD SLOAD AND SWAP5 ADD SLOAD AND SWAP4 PUSH1 0x40 MLOAD SWAP8 DUP9 SWAP8 DUP9 PUSH2 0x2824 JUMP JUMPDEST CALLVALUE PUSH2 0x31D JUMPI PUSH1 0x0 CALLDATASIZE PUSH1 0x3 NOT ADD SLT PUSH2 0x31D JUMPI PUSH1 0x97 SLOAD PUSH1 0x40 MLOAD PUSH1 0x1 PUSH1 0x1 PUSH1 0xA0 SHL SUB SWAP1 SWAP2 AND DUP2 MSTORE PUSH1 0x20 SWAP1 RETURN JUMPDEST CALLVALUE PUSH2 0x31D JUMPI PUSH1 0x20 CALLDATASIZE PUSH1 0x3 NOT ADD SLT PUSH2 0x31D JUMPI PUSH1 0x4 CALLDATALOAD PUSH4 0xFFFFFFFF PUSH1 0xE0 SHL DUP2 AND DUP1 SWAP2 SUB PUSH2 0x31D JUMPI PUSH1 0x20 SWAP1 PUSH4 0x7965DB0B PUSH1 0xE0 SHL DUP2 EQ SWAP1 DUP2 ISZERO PUSH2 0x2746 JUMPI JUMPDEST POP PUSH1 0x40 MLOAD SWAP1 ISZERO ISZERO DUP2 MSTORE RETURN JUMPDEST PUSH4 0x1FFC9A7 PUSH1 0xE0 SHL EQ SWAP1 POP DUP3 PUSH2 0x273B JUMP JUMPDEST PUSH1 0xE0 CALLDATASIZE PUSH1 0x3 NOT ADD SLT PUSH2 0x31D JUMPI PUSH2 0x276B PUSH2 0x2EC1 JUMP JUMPDEST PUSH2 0x2782 PUSH1 0x0 DUP1 MLOAD PUSH1 0x20 PUSH2 0x4ADB DUP4 CODECOPY DUP2 MLOAD SWAP2 MSTORE PUSH2 0x2F42 JUMP JUMPDEST PUSH2 0x278E PUSH2 0x1FC SLOAD PUSH2 0x4950 JUMP JUMPDEST PUSH2 0x265 DUP1 SLOAD PUSH1 0x40 MLOAD SWAP2 PUSH2 0x27A2 PUSH1 0x40 DUP5 PUSH2 0x2867 JUMP JUMPDEST PUSH1 0x8 DUP4 MSTORE PUSH1 0x20 DUP4 ADD SWAP3 PUSH1 0x1 DUP1 PUSH1 0xF8 SHL SUB NUMBER AND DUP5 MSTORE DUP3 PUSH1 0x0 MSTORE PUSH2 0x270 PUSH1 0x20 MSTORE PUSH1 0x40 PUSH1 0x0 KECCAK256 SWAP1 MLOAD PUSH1 0xA DUP2 LT ISZERO PUSH2 0x3F9 JUMPI PUSH1 0xFF PUSH1 0x20 SWAP6 DUP2 NOT SWAP1 MLOAD PUSH1 0x8 SHL AND SWAP2 AND OR SWAP1 SSTORE DUP2 PUSH1 0x0 MSTORE PUSH2 0x26E DUP4 MSTORE PUSH2 0x27FA PUSH1 0x4 PUSH1 0x40 PUSH1 0x0 KECCAK256 PUSH2 0x47F3 JUMP JUMPDEST PUSH1 0x40 MLOAD DUP3 DUP2 MSTORE PUSH1 0x8 DUP5 DUP3 ADD MSTORE PUSH1 0x0 DUP1 MLOAD PUSH1 0x20 PUSH2 0x4ABB DUP4 CODECOPY DUP2 MLOAD SWAP2 MSTORE PUSH1 0x40 CALLER SWAP3 LOG2 PUSH2 0x3EF DUP2 SLOAD PUSH2 0x4779 JUMP JUMPDEST PUSH1 0x1 PUSH1 0x1 PUSH1 0xA0 SHL SUB SWAP2 DUP3 AND DUP2 MSTORE PUSH1 0x20 DUP2 ADD SWAP3 SWAP1 SWAP3 MSTORE PUSH1 0x40 DUP3 ADD SWAP3 SWAP1 SWAP3 MSTORE PUSH1 0x60 DUP2 ADD SWAP3 SWAP1 SWAP3 MSTORE SWAP2 DUP3 AND PUSH1 0x80 DUP3 ADD MSTORE SWAP2 DUP2 AND PUSH1 0xA0 DUP4 ADD MSTORE SWAP1 SWAP2 AND PUSH1 0xC0 DUP3 ADD MSTORE PUSH1 0xE0 ADD SWAP1 JUMP JUMPDEST SWAP1 PUSH1 0x1F DUP1 NOT SWAP2 ADD AND DUP2 ADD SWAP1 DUP2 LT PUSH8 0xFFFFFFFFFFFFFFFF DUP3 GT OR PUSH2 0x2889 JUMPI PUSH1 0x40 MSTORE JUMP JUMPDEST PUSH4 0x4E487B71 PUSH1 0xE0 SHL PUSH1 0x0 MSTORE PUSH1 0x41 PUSH1 0x4 MSTORE PUSH1 0x24 PUSH1 0x0 REVERT JUMPDEST PUSH8 0xFFFFFFFFFFFFFFFF DUP2 GT PUSH2 0x2889 JUMPI PUSH1 0x1F ADD PUSH1 0x1F NOT AND PUSH1 0x20 ADD SWAP1 JUMP JUMPDEST PUSH1 0x1 PUSH1 0x1 PUSH1 0xA0 SHL SUB SWAP2 DUP3 AND DUP2 MSTORE PUSH1 0x20 DUP2 ADD SWAP3 SWAP1 SWAP3 MSTORE PUSH1 0x40 DUP3 ADD SWAP3 SWAP1 SWAP3 MSTORE SWAP2 DUP2 AND PUSH1 0x60 DUP4 ADD MSTORE SWAP2 DUP3 AND PUSH1 0x80 DUP3 ADD MSTORE SWAP2 AND PUSH1 0xA0 DUP3 ADD MSTORE PUSH1 0xC0 ADD SWAP1 JUMP JUMPDEST SWAP1 PUSH1 0x0 SWAP2 DUP1 DUP4 MSTORE PUSH2 0x193 DUP1 PUSH1 0x20 MSTORE PUSH1 0x40 DUP5 KECCAK256 SWAP3 PUSH1 0x1 DUP1 PUSH1 0xA0 SHL SUB AND SWAP3 DUP4 DUP6 MSTORE PUSH1 0x20 MSTORE PUSH1 0xFF PUSH1 0x40 DUP6 KECCAK256 SLOAD AND PUSH2 0x292A JUMPI JUMPDEST POP POP POP POP JUMP JUMPDEST DUP2 DUP5 MSTORE PUSH1 0x20 MSTORE PUSH1 0x40 DUP4 KECCAK256 DUP3 DUP5 MSTORE PUSH1 0x20 MSTORE PUSH1 0x40 DUP4 KECCAK256 PUSH1 0xFF NOT DUP2 SLOAD AND SWAP1 SSTORE PUSH32 0xF6391F5C32D9C69D2A47EA670B442974B53935D1EDC7FD64EB21E047A839171B CALLER SWAP4 DUP1 LOG4 CODESIZE DUP1 DUP1 DUP1 PUSH2 0x2924 JUMP JUMPDEST ISZERO PUSH2 0x297B JUMPI JUMP JUMPDEST PUSH1 0x40 MLOAD PUSH3 0x461BCD PUSH1 0xE5 SHL DUP2 MSTORE PUSH1 0x20 PUSH1 0x4 DUP3 ADD MSTORE PUSH1 0x2C PUSH1 0x24 DUP3 ADD MSTORE PUSH32 0x46756E6374696F6E206D7573742062652063616C6C6564207468726F75676820 PUSH1 0x44 DUP3 ADD MSTORE PUSH12 0x19195B1959D85D1958D85B1B PUSH1 0xA2 SHL PUSH1 0x64 DUP3 ADD MSTORE PUSH1 0x84 SWAP1 REVERT JUMPDEST ISZERO PUSH2 0x29DC JUMPI JUMP JUMPDEST PUSH1 0x40 MLOAD PUSH3 0x461BCD PUSH1 0xE5 SHL DUP2 MSTORE PUSH1 0x20 PUSH1 0x4 DUP3 ADD MSTORE PUSH1 0x2C PUSH1 0x24 DUP3 ADD MSTORE PUSH32 0x46756E6374696F6E206D7573742062652063616C6C6564207468726F75676820 PUSH1 0x44 DUP3 ADD MSTORE PUSH12 0x6163746976652070726F7879 PUSH1 0xA0 SHL PUSH1 0x64 DUP3 ADD MSTORE PUSH1 0x84 SWAP1 REVERT JUMPDEST SWAP1 PUSH1 0xFF PUSH32 0x4910FDFA16FED3260ED0E7147F7CC6DA11A60208B5B9406D12A635614FFD9143 SLOAD AND PUSH1 0x0 EQ PUSH2 0x2A70 JUMPI POP PUSH2 0x2A6E SWAP2 POP PUSH2 0x2C6F JUMP JUMPDEST JUMP JUMPDEST PUSH1 0x40 MLOAD PUSH4 0x52D1902D PUSH1 0xE0 SHL DUP2 MSTORE PUSH1 0x20 SWAP4 SWAP2 SWAP3 SWAP2 SWAP1 PUSH1 0x1 PUSH1 0x1 PUSH1 0xA0 SHL SUB DUP4 AND SWAP1 DUP6 DUP2 PUSH1 0x4 DUP2 DUP6 GAS STATICCALL PUSH1 0x0 SWAP2 DUP2 PUSH2 0x2C3D JUMPI JUMPDEST POP PUSH2 0x2B01 JUMPI PUSH1 0x40 MLOAD PUSH3 0x461BCD PUSH1 0xE5 SHL DUP2 MSTORE PUSH1 0x4 DUP2 ADD DUP8 SWAP1 MSTORE PUSH1 0x2E PUSH1 0x24 DUP3 ADD MSTORE PUSH32 0x45524331393637557067726164653A206E657720696D706C656D656E74617469 PUSH1 0x44 DUP3 ADD MSTORE PUSH14 0x6F6E206973206E6F742055555053 PUSH1 0x90 SHL PUSH1 0x64 DUP3 ADD MSTORE PUSH1 0x84 SWAP1 REVERT JUMPDEST SWAP4 SWAP5 SWAP4 PUSH32 0xC9F76B5EC45E5CDEF99837D7B6D2467235C1DF8933C8CA56DF5C35AFA2C7D444 ADD PUSH2 0x2BE6 JUMPI PUSH2 0x2B33 DUP4 PUSH2 0x2C6F JUMP JUMPDEST PUSH32 0xBC7CD75A20EE27FD9ADEBAB32041F755214DBC6BFFA90CC0225B39DA2E5C2D3B PUSH1 0x0 DUP1 LOG2 DUP4 MLOAD ISZERO SWAP1 DUP2 ISZERO SWAP2 PUSH2 0x2BDE JUMPI JUMPDEST POP PUSH2 0x2B6E JUMPI POP POP POP JUMP JUMPDEST PUSH1 0x0 DUP1 PUSH2 0x2BDB SWAP5 PUSH2 0x2B7F PUSH1 0x27 PUSH2 0x289F JUMP JUMPDEST SWAP5 PUSH2 0x2B8D PUSH1 0x40 MLOAD SWAP7 DUP8 PUSH2 0x2867 JUMP JUMPDEST PUSH1 0x27 DUP7 MSTORE PUSH32 0x416464726573733A206C6F772D6C6576656C2064656C65676174652063616C6C DUP2 DUP8 ADD MSTORE PUSH7 0x819985A5B1959 PUSH1 0xCA SHL PUSH1 0x40 DUP8 ADD MSTORE DUP2 MLOAD SWAP2 ADD DUP5 GAS DELEGATECALL PUSH2 0x2BD5 PUSH2 0x2D11 JUMP JUMPDEST SWAP2 PUSH2 0x2D41 JUMP JUMPDEST POP JUMP JUMPDEST SWAP1 POP CODESIZE PUSH2 0x2B64 JUMP JUMPDEST PUSH1 0x40 MLOAD PUSH3 0x461BCD PUSH1 0xE5 SHL DUP2 MSTORE PUSH1 0x4 DUP2 ADD DUP6 SWAP1 MSTORE PUSH1 0x29 PUSH1 0x24 DUP3 ADD MSTORE PUSH32 0x45524331393637557067726164653A20756E737570706F727465642070726F78 PUSH1 0x44 DUP3 ADD MSTORE PUSH9 0x1A58589B1955555251 PUSH1 0xBA SHL PUSH1 0x64 DUP3 ADD MSTORE PUSH1 0x84 SWAP1 REVERT JUMPDEST SWAP1 SWAP2 DUP8 DUP3 DUP2 RETURNDATASIZE DUP4 GT PUSH2 0x2C68 JUMPI JUMPDEST PUSH2 0x2C54 DUP2 DUP4 PUSH2 0x2867 JUMP JUMPDEST DUP2 ADD SUB SLT PUSH2 0x2C65 JUMPI POP MLOAD SWAP1 CODESIZE PUSH2 0x2AA0 JUMP JUMPDEST DUP1 REVERT JUMPDEST POP RETURNDATASIZE PUSH2 0x2C4A JUMP JUMPDEST DUP1 EXTCODESIZE ISZERO PUSH2 0x2CB6 JUMPI PUSH32 0x360894A13BA1A3210667C828492DB98DCA3E2076CC3735A920A3CA505D382BBC DUP1 SLOAD PUSH1 0x1 PUSH1 0x1 PUSH1 0xA0 SHL SUB NOT AND PUSH1 0x1 PUSH1 0x1 PUSH1 0xA0 SHL SUB SWAP1 SWAP3 AND SWAP2 SWAP1 SWAP2 OR SWAP1 SSTORE JUMP JUMPDEST PUSH1 0x40 MLOAD PUSH3 0x461BCD PUSH1 0xE5 SHL DUP2 MSTORE PUSH1 0x20 PUSH1 0x4 DUP3 ADD MSTORE PUSH1 0x2D PUSH1 0x24 DUP3 ADD MSTORE PUSH32 0x455243313936373A206E657720696D706C656D656E746174696F6E206973206E PUSH1 0x44 DUP3 ADD MSTORE PUSH13 0x1BDD08184818DBDB9D1C9858DD PUSH1 0x9A SHL PUSH1 0x64 DUP3 ADD MSTORE PUSH1 0x84 SWAP1 REVERT JUMPDEST RETURNDATASIZE ISZERO PUSH2 0x2D3C JUMPI RETURNDATASIZE SWAP1 PUSH2 0x2D22 DUP3 PUSH2 0x289F JUMP JUMPDEST SWAP2 PUSH2 0x2D30 PUSH1 0x40 MLOAD SWAP4 DUP5 PUSH2 0x2867 JUMP JUMPDEST DUP3 MSTORE RETURNDATASIZE PUSH1 0x0 PUSH1 0x20 DUP5 ADD RETURNDATACOPY JUMP JUMPDEST PUSH1 0x60 SWAP1 JUMP JUMPDEST SWAP2 SWAP3 SWAP1 ISZERO PUSH2 0x2DA3 JUMPI POP DUP2 MLOAD ISZERO PUSH2 0x2D55 JUMPI POP SWAP1 JUMP JUMPDEST EXTCODESIZE ISZERO PUSH2 0x2D5E JUMPI SWAP1 JUMP JUMPDEST PUSH1 0x40 MLOAD PUSH3 0x461BCD PUSH1 0xE5 SHL DUP2 MSTORE PUSH1 0x20 PUSH1 0x4 DUP3 ADD MSTORE PUSH1 0x1D PUSH1 0x24 DUP3 ADD MSTORE PUSH32 0x416464726573733A2063616C6C20746F206E6F6E2D636F6E7472616374000000 PUSH1 0x44 DUP3 ADD MSTORE PUSH1 0x64 SWAP1 REVERT JUMPDEST DUP3 MLOAD SWAP1 SWAP2 POP ISZERO PUSH2 0x2DB6 JUMPI POP DUP1 MLOAD SWAP1 PUSH1 0x20 ADD REVERT JUMPDEST PUSH1 0x40 MLOAD PUSH3 0x461BCD PUSH1 0xE5 SHL DUP2 MSTORE PUSH1 0x20 PUSH1 0x4 DUP3 ADD MSTORE SWAP1 DUP2 SWAP1 PUSH2 0x2DDA SWAP1 PUSH1 0x24 DUP4 ADD SWAP1 PUSH2 0x2E01 JUMP JUMPDEST SUB SWAP1 REVERT JUMPDEST PUSH1 0x0 JUMPDEST DUP4 DUP2 LT PUSH2 0x2DF1 JUMPI POP POP PUSH1 0x0 SWAP2 ADD MSTORE JUMP JUMPDEST DUP2 DUP2 ADD MLOAD DUP4 DUP3 ADD MSTORE PUSH1 0x20 ADD PUSH2 0x2DE1 JUMP JUMPDEST SWAP1 PUSH1 0x20 SWAP2 PUSH2 0x2E1A DUP2 MLOAD DUP1 SWAP3 DUP2 DUP6 MSTORE DUP6 DUP1 DUP7 ADD SWAP2 ADD PUSH2 0x2DDE JUMP JUMPDEST PUSH1 0x1F ADD PUSH1 0x1F NOT AND ADD ADD SWAP1 JUMP JUMPDEST SWAP1 DUP2 PUSH1 0x20 SWAP2 SUB SLT PUSH2 0x31D JUMPI MLOAD DUP1 ISZERO ISZERO DUP2 SUB PUSH2 0x31D JUMPI SWAP1 JUMP JUMPDEST PUSH1 0x97 SLOAD PUSH1 0x40 MLOAD PUSH4 0xD994D6D5 PUSH1 0xE0 SHL DUP2 MSTORE CALLER PUSH1 0x4 DUP3 ADD MSTORE SWAP1 PUSH1 0x20 SWAP1 DUP3 SWAP1 PUSH1 0x24 SWAP1 DUP3 SWAP1 PUSH1 0x1 PUSH1 0x1 PUSH1 0xA0 SHL SUB AND GAS STATICCALL SWAP1 DUP2 ISZERO PUSH2 0x15F4 JUMPI PUSH1 0x0 SWAP2 PUSH2 0x2E93 JUMPI JUMPDEST POP ISZERO PUSH2 0x2E81 JUMPI JUMP JUMPDEST PUSH1 0x40 MLOAD PUSH4 0x1DD1B1B5 PUSH1 0xE2 SHL DUP2 MSTORE PUSH1 0x4 SWAP1 REVERT JUMPDEST PUSH2 0x2EB4 SWAP2 POP PUSH1 0x20 RETURNDATASIZE DUP2 GT PUSH2 0x2EBA JUMPI JUMPDEST PUSH2 0x2EAC DUP2 DUP4 PUSH2 0x2867 JUMP JUMPDEST DUP2 ADD SWAP1 PUSH2 0x2E26 JUMP JUMPDEST CODESIZE PUSH2 0x2E79 JUMP JUMPDEST POP RETURNDATASIZE PUSH2 0x2EA2 JUMP JUMPDEST PUSH1 0xFF PUSH1 0xCA SLOAD PUSH1 0x8 SHR AND PUSH2 0x2ED0 JUMPI JUMP JUMPDEST PUSH1 0x40 MLOAD PUSH4 0x783BB6C9 PUSH1 0xE1 SHL DUP2 MSTORE PUSH1 0x4 SWAP1 REVERT JUMPDEST ISZERO PUSH2 0x2EE9 JUMPI JUMP JUMPDEST PUSH1 0x40 MLOAD PUSH3 0x461BCD PUSH1 0xE5 SHL DUP2 MSTORE PUSH1 0x20 PUSH1 0x4 DUP3 ADD MSTORE PUSH1 0x2B PUSH1 0x24 DUP3 ADD MSTORE PUSH32 0x496E697469616C697A61626C653A20636F6E7472616374206973206E6F742069 PUSH1 0x44 DUP3 ADD MSTORE PUSH11 0x6E697469616C697A696E67 PUSH1 0xA8 SHL PUSH1 0x64 DUP3 ADD MSTORE PUSH1 0x84 SWAP1 REVERT JUMPDEST DUP1 PUSH1 0x0 MSTORE PUSH1 0x20 PUSH2 0x193 DUP2 MSTORE PUSH1 0x40 PUSH1 0x0 KECCAK256 CALLER PUSH1 0x0 MSTORE DUP2 MSTORE PUSH1 0xFF PUSH1 0x40 PUSH1 0x0 KECCAK256 SLOAD AND ISZERO PUSH2 0x2F6A JUMPI POP POP JUMP JUMPDEST PUSH2 0x3000 PUSH1 0x48 PUSH2 0x2F84 DUP4 PUSH2 0x2F7E PUSH1 0x14 CALLER PUSH2 0x3021 JUMP JUMPDEST SWAP6 PUSH2 0x3021 JUMP JUMPDEST SWAP4 PUSH1 0x40 MLOAD SWAP5 DUP6 SWAP2 PUSH32 0x416363657373436F6E74726F6C3A206163636F756E7420000000000000000000 DUP7 DUP5 ADD MSTORE PUSH2 0x2FC3 DUP2 MLOAD DUP1 SWAP3 DUP9 PUSH1 0x37 DUP8 ADD SWAP2 ADD PUSH2 0x2DDE JUMP JUMPDEST DUP3 ADD PUSH17 0x1034B99036B4B9B9B4B733903937B6329 PUSH1 0x7D SHL PUSH1 0x37 DUP3 ADD MSTORE PUSH2 0x2FF1 DUP3 MLOAD DUP1 SWAP4 DUP9 DUP8 DUP6 ADD SWAP2 ADD PUSH2 0x2DDE JUMP JUMPDEST ADD SUB PUSH1 0x28 DUP2 ADD DUP6 MSTORE ADD DUP4 PUSH2 0x2867 JUMP JUMPDEST PUSH2 0x2DDA PUSH1 0x40 MLOAD SWAP3 DUP4 SWAP3 PUSH3 0x461BCD PUSH1 0xE5 SHL DUP5 MSTORE PUSH1 0x4 DUP5 ADD MSTORE PUSH1 0x24 DUP4 ADD SWAP1 PUSH2 0x2E01 JUMP JUMPDEST PUSH1 0x1 SWAP2 DUP1 DUP4 SHL SWAP2 SWAP1 PUSH1 0x1 PUSH1 0x1 PUSH1 0xFF SHL SUB DUP2 AND SUB PUSH2 0x3162 JUMPI PUSH1 0x2 DUP3 ADD SWAP3 DUP4 DUP4 GT PUSH2 0x3162 JUMPI PUSH2 0x3066 PUSH2 0x3050 DUP6 PUSH2 0x289F JUMP JUMPDEST SWAP5 PUSH2 0x305E PUSH1 0x40 MLOAD SWAP7 DUP8 PUSH2 0x2867 JUMP JUMPDEST DUP1 DUP7 MSTORE PUSH2 0x289F JUMP JUMPDEST PUSH1 0x20 SWAP4 SWAP1 DUP6 DUP6 ADD SWAP1 PUSH1 0x1F NOT ADD CALLDATASIZE DUP3 CALLDATACOPY DUP6 MLOAD ISZERO PUSH2 0x3178 JUMPI PUSH1 0x30 SWAP1 MSTORE8 DUP5 MLOAD DUP3 LT ISZERO PUSH2 0x3178 JUMPI PUSH1 0x78 PUSH1 0x21 DUP7 ADD MSTORE8 DUP2 DUP2 ADD DUP1 SWAP2 GT PUSH2 0x3162 JUMPI SWAP1 JUMPDEST DUP1 DUP3 GT PUSH2 0x30F0 JUMPI POP POP PUSH2 0x30AD JUMPI POP SWAP1 JUMP JUMPDEST PUSH1 0x64 SWAP1 PUSH1 0x40 MLOAD SWAP1 PUSH3 0x461BCD PUSH1 0xE5 SHL DUP3 MSTORE DUP1 PUSH1 0x4 DUP4 ADD MSTORE PUSH1 0x24 DUP3 ADD MSTORE PUSH32 0x537472696E67733A20686578206C656E67746820696E73756666696369656E74 PUSH1 0x44 DUP3 ADD MSTORE REVERT JUMPDEST SWAP1 SWAP2 PUSH1 0xF DUP2 AND PUSH1 0x10 DUP2 LT ISZERO PUSH2 0x314D JUMPI DUP6 MLOAD DUP5 LT ISZERO PUSH2 0x314D JUMPI PUSH16 0x181899199A1A9B1B9C1CB0B131B232B3 PUSH1 0x81 SHL SWAP1 BYTE DUP6 DUP5 ADD DUP6 ADD MSTORE8 PUSH1 0x4 SHR SWAP2 DUP1 ISZERO PUSH2 0x3138 JUMPI PUSH1 0x0 NOT ADD SWAP1 PUSH2 0x309C JUMP JUMPDEST PUSH1 0x24 PUSH1 0x0 PUSH4 0x4E487B71 PUSH1 0xE0 SHL DUP2 MSTORE PUSH1 0x11 PUSH1 0x4 MSTORE REVERT JUMPDEST PUSH1 0x24 PUSH1 0x0 PUSH4 0x4E487B71 PUSH1 0xE0 SHL DUP2 MSTORE PUSH1 0x32 PUSH1 0x4 MSTORE REVERT JUMPDEST PUSH4 0x4E487B71 PUSH1 0xE0 SHL PUSH1 0x0 MSTORE PUSH1 0x11 PUSH1 0x4 MSTORE PUSH1 0x24 PUSH1 0x0 REVERT JUMPDEST PUSH4 0x4E487B71 PUSH1 0xE0 SHL PUSH1 0x0 MSTORE PUSH1 0x32 PUSH1 0x4 MSTORE PUSH1 0x24 PUSH1 0x0 REVERT JUMPDEST PUSH1 0xA DUP3 LT ISZERO PUSH2 0x3F9 JUMPI MSTORE JUMP JUMPDEST SWAP1 PUSH1 0x40 MLOAD PUSH2 0x31A9 PUSH1 0xA0 DUP3 PUSH2 0x2867 JUMP JUMPDEST DUP3 SLOAD DUP2 MSTORE PUSH1 0x1 DUP4 ADD SLOAD PUSH1 0x20 DUP3 ADD MSTORE PUSH1 0x2 DUP4 ADD SLOAD PUSH1 0x1 PUSH1 0x1 PUSH1 0xA0 SHL SUB SWAP1 DUP2 AND PUSH1 0x40 DUP4 ADD MSTORE PUSH1 0x3 DUP5 ADD SLOAD DUP2 AND PUSH1 0x60 DUP4 ADD MSTORE PUSH1 0x4 SWAP1 SWAP4 ADD SLOAD SWAP1 SWAP3 AND PUSH1 0x80 DUP4 ADD MSTORE JUMP JUMPDEST SWAP2 SWAP1 DUP3 PUSH1 0x80 SWAP2 SUB SLT PUSH2 0x31D JUMPI PUSH1 0x40 MLOAD PUSH2 0x3202 PUSH1 0x80 DUP3 PUSH2 0x2867 JUMP JUMPDEST PUSH1 0x60 DUP1 DUP3 SWAP5 DUP1 MLOAD DUP5 MSTORE PUSH1 0x20 DUP2 ADD MLOAD PUSH1 0x20 DUP6 ADD MSTORE PUSH1 0x40 DUP2 ADD MLOAD PUSH1 0x40 DUP6 ADD MSTORE ADD MLOAD SWAP2 ADD MSTORE JUMP JUMPDEST SWAP1 SWAP2 PUSH1 0xC0 DUP3 DUP5 SUB SLT PUSH2 0x31D JUMPI PUSH2 0x3246 DUP3 MLOAD SWAP4 PUSH1 0x40 PUSH1 0x20 DUP6 ADD MLOAD SWAP5 ADD PUSH2 0x31E8 JUMP JUMPDEST SWAP1 JUMP JUMPDEST SWAP1 PUSH1 0x20 DUP3 MLOAD SWAP3 ADD MLOAD PUSH4 0xFFFFFFFF PUSH1 0xE0 SHL SWAP1 DUP2 DUP2 AND SWAP4 PUSH1 0x4 DUP2 LT PUSH2 0x326B JUMPI POP POP POP JUMP JUMPDEST PUSH1 0x4 SUB PUSH1 0x3 SHL DUP3 SWAP1 SHL AND AND SWAP2 POP JUMP JUMPDEST SWAP1 SWAP2 PUSH1 0xA0 SWAP3 DUP3 MSTORE PUSH4 0xFFFFFFFF PUSH1 0xE0 SHL AND PUSH1 0x20 DUP3 ADD MSTORE PUSH1 0x60 PUSH1 0x40 DUP3 ADD MSTORE PUSH1 0xC PUSH1 0x60 DUP3 ADD MSTORE PUSH12 0x4C6F7720636F766572616765 PUSH1 0xA0 SHL PUSH1 0x80 DUP3 ADD MSTORE ADD SWAP1 JUMP JUMPDEST SWAP1 SWAP2 PUSH1 0xA0 SWAP3 DUP3 MSTORE PUSH4 0xFFFFFFFF PUSH1 0xE0 SHL AND PUSH1 0x20 DUP3 ADD MSTORE PUSH1 0x60 PUSH1 0x40 DUP3 ADD MSTORE PUSH1 0x15 PUSH1 0x60 DUP3 ADD MSTORE PUSH21 0x125B9CDD59999A58DA595B9D081C5858C81CD95B9D PUSH1 0x5A SHL PUSH1 0x80 DUP3 ADD MSTORE ADD SWAP1 JUMP JUMPDEST SWAP5 SWAP2 SWAP3 PUSH1 0xE0 SWAP7 SWAP4 SWAP10 SWAP9 SWAP8 SWAP5 SWAP2 SWAP10 PUSH2 0x100 DUP8 ADD SWAP11 DUP8 MSTORE PUSH1 0x20 DUP8 ADD MSTORE PUSH1 0x40 DUP7 ADD MSTORE PUSH1 0x60 DUP6 ADD MSTORE PUSH1 0x80 DUP5 ADD MSTORE PUSH1 0xA0 DUP4 ADD MSTORE PUSH1 0x1 DUP1 PUSH1 0xA0 SHL SUB AND PUSH1 0xC0 DUP3 ADD MSTORE ADD MSTORE JUMP JUMPDEST SWAP1 SWAP2 PUSH1 0xA0 SWAP3 DUP3 MSTORE PUSH4 0xFFFFFFFF PUSH1 0xE0 SHL AND PUSH1 0x20 DUP3 ADD MSTORE PUSH1 0x60 PUSH1 0x40 DUP3 ADD MSTORE PUSH1 0x1A PUSH1 0x60 DUP3 ADD MSTORE PUSH32 0x7141432062656C6F77206D696E696D756D207265717569726564000000000000 PUSH1 0x80 DUP3 ADD MSTORE ADD SWAP1 JUMP JUMPDEST SWAP1 PUSH1 0x40 MLOAD PUSH2 0x3396 PUSH1 0xC0 DUP3 PUSH2 0x2867 JUMP JUMPDEST DUP3 SLOAD PUSH1 0x1 PUSH1 0x1 PUSH1 0xA0 SHL SUB SWAP1 DUP2 AND DUP3 MSTORE PUSH1 0x1 DUP5 ADD SLOAD PUSH1 0x20 DUP4 ADD MSTORE PUSH1 0x2 DUP5 ADD SLOAD PUSH1 0x40 DUP4 ADD MSTORE PUSH1 0x3 DUP5 ADD SLOAD DUP2 AND PUSH1 0x60 DUP4 ADD MSTORE PUSH1 0x4 DUP5 ADD SLOAD DUP2 AND PUSH1 0x80 DUP4 ADD MSTORE PUSH1 0x5 SWAP1 SWAP4 ADD SLOAD SWAP1 SWAP3 AND PUSH1 0xA0 DUP4 ADD MSTORE JUMP JUMPDEST PUSH1 0xA0 SWAP1 DUP2 PUSH1 0x1 DUP1 DUP3 SHL SUB SWAP2 DUP3 DUP2 MLOAD AND DUP6 MSTORE PUSH1 0x20 DUP2 ADD MLOAD PUSH1 0x20 DUP7 ADD MSTORE PUSH1 0x40 DUP2 ADD MLOAD PUSH1 0x40 DUP7 ADD MSTORE DUP3 PUSH1 0x60 DUP3 ADD MLOAD AND PUSH1 0x60 DUP7 ADD MSTORE DUP3 PUSH1 0x80 DUP3 ADD MLOAD AND PUSH1 0x80 DUP7 ADD MSTORE ADD MLOAD AND SWAP2 ADD MSTORE JUMP JUMPDEST SWAP1 SWAP2 PUSH1 0xC0 SWAP3 DUP3 MSTORE PUSH4 0xFFFFFFFF PUSH1 0xE0 SHL AND PUSH1 0x20 DUP3 ADD MSTORE PUSH1 0x60 PUSH1 0x40 DUP3 ADD MSTORE PUSH1 0x24 PUSH1 0x60 DUP3 ADD MSTORE PUSH32 0x4D617820666C757820636170616369746F72206F7065726174696F6E20726561 PUSH1 0x80 DUP3 ADD MSTORE PUSH4 0x18DA1959 PUSH1 0xE2 SHL PUSH1 0xA0 DUP3 ADD MSTORE ADD SWAP1 JUMP JUMPDEST SWAP1 PUSH1 0x0 DUP3 DUP2 MSTORE PUSH2 0x268 SWAP3 PUSH1 0x20 SWAP1 DUP5 DUP3 MSTORE PUSH1 0x40 PUSH2 0x349D DUP2 DUP6 KECCAK256 PUSH2 0x3387 JUMP JUMPDEST PUSH2 0x264 DUP1 SLOAD DUP4 MLOAD PUSH4 0x5A21A619 PUSH1 0xE1 SHL DUP2 MSTORE PUSH1 0x1 PUSH1 0x1 PUSH1 0xA0 SHL SUB SWAP10 SWAP3 SWAP7 SWAP2 PUSH1 0xC0 SWAP1 DUP3 SWAP1 PUSH1 0xC4 SWAP1 DUP3 SWAP1 DUP13 SWAP1 DUP16 AND PUSH2 0x34D5 PUSH1 0x4 DUP5 ADD DUP12 PUSH2 0x33E1 JUMP JUMPDEST GAS CALL SWAP1 DUP2 DUP10 SWAP2 DUP11 SWAP4 PUSH2 0x3765 JUMPI JUMPDEST POP PUSH2 0x36EC JUMPI POP POP PUSH2 0x34F1 PUSH2 0x2D11 JUMP JUMPDEST SWAP9 PUSH2 0x34FB DUP11 PUSH2 0x3249 JUMP JUMPDEST SWAP7 PUSH1 0x1 PUSH1 0x1 PUSH1 0xE0 SHL SUB NOT DUP9 AND PUSH4 0x6DA41E5 PUSH1 0xE1 SHL DUP2 SUB PUSH2 0x3542 JUMPI POP POP POP POP POP POP PUSH1 0x0 DUP1 MLOAD PUSH1 0x20 PUSH2 0x4A7B DUP4 CODECOPY DUP2 MLOAD SWAP2 MSTORE SWAP4 SWAP5 SWAP6 POP PUSH2 0x353C SWAP1 MLOAD SWAP3 DUP4 SWAP3 DUP4 PUSH2 0x3426 JUMP JUMPDEST SUB SWAP1 LOG1 SWAP1 JUMP JUMPDEST DUP7 SWAP10 SWAP9 DUP4 SWAP6 SWAP9 SWAP7 SWAP13 PUSH4 0xC39B739F PUSH1 0xE0 SWAP10 SWAP7 SWAP10 SHL DUP4 EQ PUSH1 0x0 EQ PUSH2 0x365B JUMPI POP POP PUSH1 0xA0 PUSH1 0x0 DUP1 MLOAD PUSH1 0x20 PUSH2 0x4A7B DUP4 CODECOPY DUP2 MLOAD SWAP2 MSTORE SWAP2 DUP6 MLOAD SWAP1 DUP9 DUP3 MSTORE DUP10 DUP3 ADD MSTORE PUSH1 0x60 DUP7 DUP3 ADD MSTORE PUSH1 0x17 PUSH1 0x60 DUP3 ADD MSTORE PUSH32 0x496E73756666696369656E7420747020746F206D696E74000000000000000000 PUSH1 0x80 DUP3 ADD MSTORE LOG1 JUMPDEST SLOAD AND SWAP2 PUSH1 0x60 DUP11 ADD MLOAD AND SWAP9 ADD MLOAD SWAP8 DUP2 EXTCODESIZE ISZERO PUSH2 0x3657 JUMPI DUP7 MLOAD PUSH4 0x58F32DE9 PUSH1 0xE0 SHL DUP2 MSTORE PUSH1 0x1 PUSH1 0x1 PUSH1 0xA0 SHL SUB SWAP1 SWAP2 AND PUSH1 0x4 DUP3 ADD MSTORE PUSH1 0x24 DUP2 ADD SWAP9 SWAP1 SWAP9 MSTORE DUP5 SWAP1 DUP9 SWAP1 DUP2 DUP4 DUP2 PUSH1 0x44 DUP2 ADD JUMPDEST SUB SWAP3 GAS CALL SWAP7 DUP8 ISZERO PUSH2 0x364D JUMPI PUSH2 0x3634 SWAP7 SWAP8 PUSH2 0x3639 JUMPI JUMPDEST POP JUMPDEST DUP4 MSTORE MSTORE KECCAK256 PUSH1 0x5 PUSH1 0x0 SWAP2 DUP3 DUP2 SSTORE DUP3 PUSH1 0x1 DUP3 ADD SSTORE DUP3 PUSH1 0x2 DUP3 ADD SSTORE DUP3 PUSH1 0x3 DUP3 ADD SSTORE DUP3 PUSH1 0x4 DUP3 ADD SSTORE ADD SSTORE JUMP JUMPDEST PUSH1 0x1 SWAP1 JUMP JUMPDEST DUP5 PUSH2 0x3646 SWAP2 SWAP6 SWAP3 SWAP6 PUSH2 0x2867 JUMP JUMPDEST SWAP3 CODESIZE PUSH2 0x360A JUMP JUMPDEST DUP6 MLOAD RETURNDATASIZE DUP7 DUP3 RETURNDATACOPY RETURNDATASIZE SWAP1 REVERT JUMPDEST DUP6 DUP1 REVERT JUMPDEST SWAP1 SWAP2 PUSH4 0xB63F1A7 PUSH1 0xE0 SHL DUP2 SUB PUSH2 0x3694 JUMPI POP POP PUSH2 0x368C PUSH1 0x0 DUP1 MLOAD PUSH1 0x20 PUSH2 0x4A7B DUP4 CODECOPY DUP2 MLOAD SWAP2 MSTORE SWAP2 DUP6 MLOAD SWAP2 DUP3 SWAP2 DUP10 DUP4 PUSH2 0x32B6 JUMP JUMPDEST SUB SWAP1 LOG1 PUSH2 0x35B1 JUMP JUMPDEST PUSH4 0x79121201 PUSH1 0xE0 SHL SUB PUSH2 0x36C1 JUMPI POP PUSH2 0x368C PUSH1 0x0 DUP1 MLOAD PUSH1 0x20 PUSH2 0x4A7B DUP4 CODECOPY DUP2 MLOAD SWAP2 MSTORE SWAP2 DUP6 MLOAD SWAP2 DUP3 SWAP2 DUP10 DUP4 PUSH2 0x327A JUMP JUMPDEST PUSH1 0x0 DUP1 MLOAD PUSH1 0x20 PUSH2 0x4A9B DUP4 CODECOPY DUP2 MLOAD SWAP2 MSTORE SWAP2 POP PUSH2 0x368C SWAP1 DUP6 MLOAD SWAP2 DUP3 SWAP2 DUP10 DUP4 MSTORE DUP8 DUP12 DUP5 ADD MSTORE DUP8 DUP4 ADD SWAP1 PUSH2 0x2E01 JUMP JUMPDEST DUP5 SWAP3 SWAP6 SWAP9 SWAP8 POP PUSH32 0x125247FDF990B9B419D4B4F895B1BB75BC485E3F8B813CF5557A4A12A56D054D SWAP1 DUP12 PUSH2 0x3634 SWAP12 SWAP13 SWAP4 SWAP6 SWAP9 SWAP7 MLOAD AND SWAP3 PUSH2 0x375D DUP8 DUP13 DUP4 PUSH1 0x60 DUP10 ADD MLOAD AND SWAP8 DUP5 PUSH1 0x80 DUP3 ADD MLOAD AND SWAP10 DUP13 DUP3 ADD MLOAD SWAP6 DUP14 DUP3 MLOAD SWAP1 DUP4 ADD MLOAD SWAP2 PUSH1 0xA0 PUSH1 0x60 DUP8 DUP7 ADD MLOAD SWAP6 ADD MLOAD SWAP6 ADD MLOAD AND SWAP5 MLOAD SWAP9 DUP10 SWAP9 DUP10 PUSH2 0x32FB JUMP JUMPDEST SUB SWAP1 LOG4 PUSH2 0x360C JUMP JUMPDEST SWAP1 SWAP3 POP PUSH2 0x3780 SWAP2 POP PUSH1 0xC0 RETURNDATASIZE DUP2 GT PUSH2 0x170F JUMPI PUSH2 0x16FD DUP2 DUP4 PUSH2 0x2867 JUMP JUMPDEST SWAP3 SWAP1 POP CODESIZE PUSH2 0x34E2 JUMP JUMPDEST SWAP1 PUSH1 0x0 DUP3 DUP2 MSTORE PUSH2 0x26A PUSH1 0x20 SWAP4 DUP2 DUP6 MSTORE PUSH1 0x40 PUSH2 0x37A5 DUP2 DUP6 KECCAK256 PUSH2 0x3387 JUMP JUMPDEST PUSH2 0x264 DUP1 SLOAD DUP4 MLOAD PUSH4 0xAD4E666D PUSH1 0xE0 SHL DUP2 MSTORE PUSH1 0x1 PUSH1 0x1 PUSH1 0xA0 SHL SUB SWAP10 SWAP3 SWAP7 SWAP4 SWAP2 PUSH1 0xC0 SWAP1 DUP3 SWAP1 PUSH1 0xC4 SWAP1 DUP3 SWAP1 DUP13 SWAP1 DUP16 AND PUSH2 0x37DE PUSH1 0x4 DUP5 ADD DUP10 PUSH2 0x33E1 JUMP JUMPDEST GAS CALL SWAP1 DUP2 DUP10 SWAP2 DUP11 SWAP4 PUSH2 0x39B0 JUMPI JUMPDEST POP PUSH2 0x393F JUMPI POP POP PUSH2 0x37FA PUSH2 0x2D11 JUMP JUMPDEST SWAP6 PUSH2 0x3804 DUP8 PUSH2 0x3249 JUMP JUMPDEST SWAP7 PUSH1 0x1 PUSH1 0x1 PUSH1 0xE0 SHL SUB NOT DUP9 AND PUSH4 0x6DA41E5 PUSH1 0xE1 SHL DUP2 SUB PUSH2 0x3845 JUMPI POP POP POP POP POP POP PUSH1 0x0 DUP1 MLOAD PUSH1 0x20 PUSH2 0x4A7B DUP4 CODECOPY DUP2 MLOAD SWAP2 MSTORE SWAP4 SWAP5 SWAP6 POP PUSH2 0x353C SWAP1 MLOAD SWAP3 DUP4 SWAP3 DUP4 PUSH2 0x3426 JUMP JUMPDEST SWAP1 DUP12 SWAP4 SWAP5 SWAP7 SWAP10 SWAP9 SWAP2 PUSH4 0x54CDE313 PUSH1 0xE0 SWAP10 SWAP8 SWAP10 SHL DUP2 EQ PUSH1 0x0 EQ PUSH2 0x38DF JUMPI POP POP PUSH2 0x3882 PUSH1 0x0 DUP1 MLOAD PUSH1 0x20 PUSH2 0x4A7B DUP4 CODECOPY DUP2 MLOAD SWAP2 MSTORE SWAP2 DUP11 MLOAD SWAP2 DUP3 SWAP2 DUP9 DUP4 PUSH2 0x333A JUMP JUMPDEST SUB SWAP1 LOG1 JUMPDEST SLOAD AND SWAP1 DUP4 DUP10 PUSH1 0x60 DUP4 ADD MLOAD AND SWAP10 DUP3 MLOAD AND SWAP2 ADD MLOAD SWAP9 DUP3 EXTCODESIZE ISZERO PUSH2 0x38DB JUMPI DUP8 MLOAD PUSH4 0xE2C5E99 PUSH1 0xE4 SHL DUP2 MSTORE PUSH1 0x1 PUSH1 0x1 PUSH1 0xA0 SHL SUB SWAP2 DUP3 AND PUSH1 0x4 DUP3 ADD MSTORE SWAP2 AND PUSH1 0x24 DUP3 ADD MSTORE PUSH1 0x44 DUP2 ADD SWAP9 SWAP1 SWAP9 MSTORE DUP5 SWAP1 DUP9 SWAP1 DUP2 DUP4 DUP2 PUSH1 0x64 DUP2 ADD PUSH2 0x35F5 JUMP JUMPDEST DUP7 DUP1 REVERT JUMPDEST PUSH4 0x79121201 PUSH1 0xE0 SHL SUB PUSH2 0x3914 JUMPI POP PUSH2 0x390C PUSH1 0x0 DUP1 MLOAD PUSH1 0x20 PUSH2 0x4A7B DUP4 CODECOPY DUP2 MLOAD SWAP2 MSTORE SWAP2 DUP11 MLOAD SWAP2 DUP3 SWAP2 DUP9 DUP4 PUSH2 0x327A JUMP JUMPDEST SUB SWAP1 LOG1 PUSH2 0x3886 JUMP JUMPDEST PUSH1 0x0 DUP1 MLOAD PUSH1 0x20 PUSH2 0x4A9B DUP4 CODECOPY DUP2 MLOAD SWAP2 MSTORE SWAP2 POP PUSH2 0x390C SWAP1 DUP11 MLOAD SWAP2 DUP3 SWAP2 DUP9 DUP4 MSTORE DUP13 DUP11 DUP5 ADD MSTORE DUP13 DUP4 ADD SWAP1 PUSH2 0x2E01 JUMP JUMPDEST DUP11 SWAP2 SWAP4 SWAP6 SWAP9 SWAP8 POP PUSH32 0x625B9FC283A619F53BEB817D79B8AB044D60E307FD2AF4BB89FA5E9A24CE4EBC SWAP1 PUSH2 0x3634 SWAP11 SWAP12 DUP5 SWAP9 SWAP7 SWAP9 MLOAD AND SWAP3 PUSH2 0x375D DUP8 DUP13 DUP4 PUSH1 0x60 DUP10 ADD MLOAD AND SWAP8 DUP5 PUSH1 0x80 DUP3 ADD MLOAD AND SWAP10 DUP13 DUP3 ADD MLOAD SWAP6 DUP14 DUP3 MLOAD SWAP1 DUP4 ADD MLOAD SWAP2 PUSH1 0xA0 PUSH1 0x60 DUP8 DUP7 ADD MLOAD SWAP6 ADD MLOAD SWAP6 ADD MLOAD AND SWAP5 MLOAD SWAP9 DUP10 SWAP9 DUP10 PUSH2 0x32FB JUMP JUMPDEST SWAP1 SWAP3 POP PUSH2 0x39CB SWAP2 POP PUSH1 0xC0 RETURNDATASIZE DUP2 GT PUSH2 0x170F JUMPI PUSH2 0x16FD DUP2 DUP4 PUSH2 0x2867 JUMP JUMPDEST SWAP3 SWAP1 POP CODESIZE PUSH2 0x37EB JUMP JUMPDEST PUSH1 0xE0 DUP2 DUP4 SUB SLT PUSH2 0x31D JUMPI DUP1 MLOAD SWAP3 PUSH2 0x3246 PUSH1 0x20 DUP4 ADD MLOAD SWAP4 PUSH1 0x60 PUSH1 0x40 DUP6 ADD MLOAD SWAP5 ADD PUSH2 0x31E8 JUMP JUMPDEST SWAP1 PUSH1 0x0 DUP3 DUP2 MSTORE PUSH2 0x26B DUP1 PUSH1 0x20 MSTORE PUSH1 0x40 SWAP4 PUSH2 0x3A13 DUP6 DUP5 KECCAK256 PUSH2 0x3387 JUMP JUMPDEST SWAP5 PUSH1 0x1 DUP1 PUSH1 0xA0 SHL SUB SWAP6 PUSH2 0x264 SWAP4 DUP6 PUSH1 0xE0 DUP10 DUP8 SLOAD AND PUSH1 0xC4 DUP7 MLOAD DUP1 SWAP5 DUP2 SWAP4 PUSH4 0x883D21CB DUP7 SHL DUP4 MSTORE PUSH2 0x3A45 PUSH1 0x4 DUP5 ADD DUP11 PUSH2 0x33E1 JUMP JUMPDEST GAS CALL DUP8 SWAP2 DUP3 SWAP2 DUP3 SWAP2 DUP2 PUSH2 0x3C6F JUMPI JUMPDEST POP PUSH2 0x3BF4 JUMPI POP POP POP PUSH2 0x3A63 PUSH2 0x2D11 JUMP JUMPDEST SWAP8 PUSH2 0x3A6D DUP10 PUSH2 0x3249 JUMP JUMPDEST SWAP6 PUSH1 0x1 PUSH1 0x1 PUSH1 0xE0 SHL SUB NOT DUP8 AND PUSH4 0x6DA41E5 PUSH1 0xE1 SHL DUP2 SUB PUSH2 0x3AAD JUMPI POP POP POP POP POP PUSH1 0x0 DUP1 MLOAD PUSH1 0x20 PUSH2 0x4A7B DUP4 CODECOPY DUP2 MLOAD SWAP2 MSTORE SWAP4 SWAP5 SWAP6 POP PUSH2 0x353C SWAP1 MLOAD SWAP3 DUP4 SWAP3 DUP4 PUSH2 0x3426 JUMP JUMPDEST SWAP7 DUP3 SWAP5 SWAP11 DUP7 SWAP10 SWAP9 PUSH4 0xB63F1A7 PUSH1 0xE0 SWAP10 SWAP9 SWAP7 SWAP10 SHL DUP2 EQ PUSH1 0x0 EQ PUSH2 0x3B93 JUMPI POP POP PUSH2 0x3AEA PUSH1 0x0 DUP1 MLOAD PUSH1 0x20 PUSH2 0x4A7B DUP4 CODECOPY DUP2 MLOAD SWAP2 MSTORE SWAP2 DUP6 MLOAD SWAP2 DUP3 SWAP2 DUP10 DUP4 PUSH2 0x32B6 JUMP JUMPDEST SUB SWAP1 LOG1 JUMPDEST SLOAD AND SWAP2 PUSH1 0x60 DUP10 ADD MLOAD AND SWAP8 ADD MLOAD SWAP7 DUP2 EXTCODESIZE ISZERO PUSH2 0x3B8F JUMPI DUP6 MLOAD PUSH4 0x58F32DE9 PUSH1 0xE0 SHL DUP2 MSTORE PUSH1 0x1 PUSH1 0x1 PUSH1 0xA0 SHL SUB SWAP2 SWAP1 SWAP2 AND PUSH1 0x4 DUP3 ADD MSTORE PUSH1 0x24 DUP2 ADD SWAP8 SWAP1 SWAP8 MSTORE DUP4 SWAP1 DUP8 SWAP1 PUSH1 0x44 SWAP1 DUP3 SWAP1 DUP5 SWAP1 GAS CALL SWAP6 DUP7 ISZERO PUSH2 0x3B85 JUMPI PUSH2 0x3634 SWAP6 SWAP7 PUSH2 0x3B71 JUMPI JUMPDEST POP JUMPDEST DUP3 MSTORE PUSH1 0x20 MSTORE KECCAK256 PUSH1 0x5 PUSH1 0x0 SWAP2 DUP3 DUP2 SSTORE DUP3 PUSH1 0x1 DUP3 ADD SSTORE DUP3 PUSH1 0x2 DUP3 ADD SSTORE DUP3 PUSH1 0x3 DUP3 ADD SSTORE DUP3 PUSH1 0x4 DUP3 ADD SSTORE ADD SSTORE JUMP JUMPDEST DUP4 PUSH2 0x3B7E SWAP2 SWAP5 SWAP3 SWAP5 PUSH2 0x2867 JUMP JUMPDEST SWAP2 CODESIZE PUSH2 0x3B45 JUMP JUMPDEST DUP5 MLOAD RETURNDATASIZE DUP6 DUP3 RETURNDATACOPY RETURNDATASIZE SWAP1 REVERT JUMPDEST DUP5 DUP1 REVERT JUMPDEST PUSH4 0x79121201 PUSH1 0xE0 SHL SUB PUSH2 0x3BC8 JUMPI POP PUSH2 0x3BC0 PUSH1 0x0 DUP1 MLOAD PUSH1 0x20 PUSH2 0x4A7B DUP4 CODECOPY DUP2 MLOAD SWAP2 MSTORE SWAP2 DUP6 MLOAD SWAP2 DUP3 SWAP2 DUP10 DUP4 PUSH2 0x327A JUMP JUMPDEST SUB SWAP1 LOG1 PUSH2 0x3AEE JUMP JUMPDEST PUSH1 0x0 DUP1 MLOAD PUSH1 0x20 PUSH2 0x4A9B DUP4 CODECOPY DUP2 MLOAD SWAP2 MSTORE SWAP2 POP PUSH2 0x3BC0 SWAP1 DUP6 MLOAD SWAP2 DUP3 SWAP2 DUP10 DUP4 MSTORE DUP8 PUSH1 0x20 DUP5 ADD MSTORE DUP8 DUP4 ADD SWAP1 PUSH2 0x2E01 JUMP JUMPDEST DUP6 SWAP9 SWAP8 POP SWAP1 PUSH32 0x3E9E02A94D7486426FCF2B05A27E911B8D1B61E2E1DCF103785512F46C84764 SWAP2 PUSH2 0x3C67 DUP9 DUP8 SWAP6 SWAP7 SWAP10 SWAP9 DUP15 PUSH2 0x3634 SWAP15 SWAP16 SWAP10 MLOAD AND SWAP7 DUP10 PUSH1 0x60 DUP3 ADD MLOAD AND SWAP9 DUP11 PUSH1 0x80 DUP4 ADD MLOAD AND SWAP11 PUSH1 0x20 DUP4 ADD MLOAD SWAP8 DUP3 MLOAD SWAP1 PUSH1 0x20 DUP5 ADD MLOAD SWAP3 PUSH1 0xA0 PUSH1 0x60 DUP9 DUP8 ADD MLOAD SWAP7 ADD MLOAD SWAP7 ADD MLOAD AND SWAP6 MLOAD SWAP10 DUP11 SWAP10 DUP11 PUSH2 0x3C94 JUMP JUMPDEST SUB SWAP1 LOG4 PUSH2 0x3B47 JUMP JUMPDEST SWAP2 POP SWAP3 POP PUSH2 0x3C8B SWAP2 POP PUSH1 0xE0 RETURNDATASIZE DUP2 GT PUSH2 0x1F7D JUMPI PUSH2 0x1F6A DUP2 DUP4 PUSH2 0x2867 JUMP JUMPDEST SWAP4 SWAP1 POP CODESIZE PUSH2 0x3A53 JUMP JUMPDEST SWAP6 SWAP3 PUSH2 0x100 SWAP8 SWAP5 SWAP2 SWAP11 SWAP10 SWAP9 SWAP6 SWAP3 PUSH2 0x120 DUP9 ADD SWAP12 DUP9 MSTORE PUSH1 0x20 DUP9 ADD MSTORE PUSH1 0x40 DUP8 ADD MSTORE PUSH1 0x60 DUP7 ADD MSTORE PUSH1 0x80 DUP6 ADD MSTORE PUSH1 0xA0 DUP5 ADD MSTORE PUSH1 0xC0 DUP4 ADD MSTORE PUSH1 0x1 DUP1 PUSH1 0xA0 SHL SUB AND PUSH1 0xE0 DUP3 ADD MSTORE ADD MSTORE JUMP JUMPDEST SWAP1 PUSH1 0x40 MLOAD PUSH2 0x3CE7 PUSH1 0xE0 DUP3 PUSH2 0x2867 JUMP JUMPDEST DUP3 SLOAD PUSH1 0x1 PUSH1 0x1 PUSH1 0xA0 SHL SUB SWAP1 DUP2 AND DUP3 MSTORE PUSH1 0x1 DUP5 ADD SLOAD PUSH1 0x20 DUP4 ADD MSTORE PUSH1 0x2 DUP5 ADD SLOAD PUSH1 0x40 DUP4 ADD MSTORE PUSH1 0x3 DUP5 ADD SLOAD PUSH1 0x60 DUP4 ADD MSTORE PUSH1 0x4 DUP5 ADD SLOAD DUP2 AND PUSH1 0x80 DUP4 ADD MSTORE PUSH1 0x5 DUP5 ADD SLOAD DUP2 AND PUSH1 0xA0 DUP4 ADD MSTORE PUSH1 0x6 SWAP1 SWAP4 ADD SLOAD SWAP1 SWAP3 AND PUSH1 0xC0 DUP4 ADD MSTORE JUMP JUMPDEST PUSH1 0xC0 SWAP1 DUP2 PUSH1 0x1 DUP1 PUSH1 0xA0 SHL SUB SWAP2 DUP3 DUP2 MLOAD AND DUP6 MSTORE PUSH1 0x20 DUP2 ADD MLOAD PUSH1 0x20 DUP7 ADD MSTORE PUSH1 0x40 DUP2 ADD MLOAD PUSH1 0x40 DUP7 ADD MSTORE PUSH1 0x60 DUP2 ADD MLOAD PUSH1 0x60 DUP7 ADD MSTORE DUP3 PUSH1 0x80 DUP3 ADD MLOAD AND PUSH1 0x80 DUP7 ADD MSTORE DUP3 PUSH1 0xA0 DUP3 ADD MLOAD AND PUSH1 0xA0 DUP7 ADD MSTORE ADD MLOAD AND SWAP2 ADD MSTORE JUMP JUMPDEST SWAP1 PUSH1 0x0 DUP3 DUP2 MSTORE PUSH2 0x26C PUSH1 0x20 SWAP1 DUP1 DUP3 MSTORE PUSH1 0x40 SWAP1 PUSH2 0x3DA9 DUP3 DUP6 KECCAK256 PUSH2 0x3CD8 JUMP JUMPDEST PUSH2 0x264 DUP1 SLOAD DUP5 MLOAD PUSH4 0x3631A6BB PUSH1 0xE2 SHL DUP2 MSTORE PUSH1 0x1 PUSH1 0x1 PUSH1 0xA0 SHL SUB SWAP7 SWAP4 SWAP3 SWAP2 PUSH1 0xE0 SWAP1 DUP3 SWAP1 PUSH1 0xE4 SWAP1 DUP3 SWAP1 DUP13 SWAP1 DUP13 AND PUSH2 0x3DE1 PUSH1 0x4 DUP5 ADD DUP11 PUSH2 0x3D3C JUMP JUMPDEST GAS CALL SWAP1 DUP9 DUP3 DUP11 SWAP3 DUP12 SWAP5 PUSH2 0x40E5 JUMPI JUMPDEST POP PUSH2 0x406B JUMPI POP POP POP PUSH2 0x3DFF PUSH2 0x2D11 JUMP JUMPDEST SWAP6 PUSH2 0x3E09 DUP8 PUSH2 0x3249 JUMP JUMPDEST SWAP7 PUSH1 0x1 PUSH1 0x1 PUSH1 0xE0 SHL SUB NOT DUP9 AND SWAP1 PUSH4 0x6DA41E5 PUSH1 0xE1 SHL DUP3 SUB PUSH2 0x3E4B JUMPI POP POP POP POP POP POP POP SWAP4 PUSH2 0x353C PUSH1 0x0 DUP1 MLOAD PUSH1 0x20 PUSH2 0x4A7B DUP4 CODECOPY DUP2 MLOAD SWAP2 MSTORE SWAP4 SWAP5 SWAP6 MLOAD SWAP3 DUP4 SWAP3 DUP4 PUSH2 0x3426 JUMP JUMPDEST PUSH4 0x7A031DA3 PUSH1 0xE1 SWAP11 SWAP10 SWAP3 SWAP4 SWAP5 SWAP6 SWAP7 SWAP8 SWAP9 SWAP11 SHL DUP4 EQ PUSH1 0x0 EQ PUSH2 0x3FDA JUMPI POP POP PUSH1 0xA0 PUSH1 0x0 DUP1 MLOAD PUSH1 0x20 PUSH2 0x4A7B DUP4 CODECOPY DUP2 MLOAD SWAP2 MSTORE SWAP2 DUP10 MLOAD SWAP1 DUP13 DUP3 MSTORE DUP8 DUP3 ADD MSTORE PUSH1 0x60 DUP11 DUP3 ADD MSTORE PUSH1 0x14 PUSH1 0x60 DUP3 ADD MSTORE PUSH20 0x125B9CDD59999A58DA595B9D081D1C081CD95B9D PUSH1 0x62 SHL PUSH1 0x80 DUP3 ADD MSTORE LOG1 JUMPDEST DUP1 DUP3 SLOAD AND SWAP2 PUSH1 0x80 DUP5 ADD SWAP3 DUP3 DUP5 MLOAD AND SWAP1 DUP4 DUP7 MLOAD AND DUP11 DUP8 ADD MLOAD SWAP3 DUP3 EXTCODESIZE ISZERO PUSH2 0x3FD6 JUMPI DUP12 MLOAD PUSH4 0xE2C5E99 PUSH1 0xE4 SHL DUP2 MSTORE PUSH1 0x1 PUSH1 0x1 PUSH1 0xA0 SHL SUB SWAP2 DUP3 AND PUSH1 0x4 DUP3 ADD MSTORE SWAP2 AND PUSH1 0x24 DUP3 ADD MSTORE PUSH1 0x44 DUP2 ADD SWAP3 SWAP1 SWAP3 MSTORE DUP9 SWAP1 DUP3 SWAP1 PUSH1 0x64 SWAP1 DUP3 SWAP1 DUP5 SWAP1 GAS CALL DUP1 ISZERO PUSH2 0x3FCC JUMPI PUSH2 0x3FB4 JUMPI JUMPDEST POP SWAP1 DUP1 DUP6 SWAP3 SLOAD AND SWAP3 MLOAD AND SWAP3 ADD MLOAD SWAP2 DUP2 EXTCODESIZE ISZERO PUSH2 0x3657 JUMPI DUP7 MLOAD PUSH4 0x53B16D17 PUSH1 0xE0 SHL DUP2 MSTORE PUSH1 0x1 PUSH1 0x1 PUSH1 0xA0 SHL SUB SWAP1 SWAP2 AND PUSH1 0x4 DUP3 ADD MSTORE PUSH1 0x24 DUP2 ADD SWAP3 SWAP1 SWAP3 MSTORE DUP5 SWAP1 DUP3 SWAP1 DUP2 DUP4 DUP2 PUSH1 0x44 DUP2 ADD JUMPDEST SUB SWAP3 GAS CALL DUP1 ISZERO PUSH2 0x364D JUMPI PUSH2 0x3F9B JUMPI JUMPDEST POP PUSH2 0x3634 SWAP5 SWAP6 JUMPDEST DUP4 MSTORE MSTORE KECCAK256 PUSH1 0x6 PUSH1 0x0 SWAP2 DUP3 DUP2 SSTORE DUP3 PUSH1 0x1 DUP3 ADD SSTORE DUP3 PUSH1 0x2 DUP3 ADD SSTORE DUP3 PUSH1 0x3 DUP3 ADD SSTORE DUP3 PUSH1 0x4 DUP3 ADD SSTORE DUP3 PUSH1 0x5 DUP3 ADD SSTORE ADD SSTORE JUMP JUMPDEST PUSH2 0x3FA6 DUP5 DUP1 SWAP3 PUSH2 0x2867 JUMP JUMPDEST PUSH2 0x3FB0 JUMPI CODESIZE PUSH2 0x3F66 JUMP JUMPDEST DUP3 DUP1 REVERT JUMPDEST SWAP2 DUP8 PUSH2 0x3FC3 DUP3 SWAP4 SWAP10 DUP9 SWAP6 PUSH2 0x2867 JUMP JUMPDEST SWAP8 SWAP2 SWAP3 POP PUSH2 0x3F12 JUMP JUMPDEST DUP10 MLOAD RETURNDATASIZE DUP11 DUP3 RETURNDATACOPY RETURNDATASIZE SWAP1 REVERT JUMPDEST DUP11 DUP1 REVERT JUMPDEST SWAP1 SWAP2 PUSH4 0x54CDE313 PUSH1 0xE0 SHL DUP2 SUB PUSH2 0x4013 JUMPI POP POP PUSH2 0x400B PUSH1 0x0 DUP1 MLOAD PUSH1 0x20 PUSH2 0x4A7B DUP4 CODECOPY DUP2 MLOAD SWAP2 MSTORE SWAP2 DUP10 MLOAD SWAP2 DUP3 SWAP2 DUP14 DUP4 PUSH2 0x333A JUMP JUMPDEST SUB SWAP1 LOG1 PUSH2 0x3EB0 JUMP JUMPDEST PUSH4 0x79121201 PUSH1 0xE0 SHL SUB PUSH2 0x4040 JUMPI POP PUSH2 0x400B PUSH1 0x0 DUP1 MLOAD PUSH1 0x20 PUSH2 0x4A7B DUP4 CODECOPY DUP2 MLOAD SWAP2 MSTORE SWAP2 DUP10 MLOAD SWAP2 DUP3 SWAP2 DUP14 DUP4 PUSH2 0x327A JUMP JUMPDEST PUSH1 0x0 DUP1 MLOAD PUSH1 0x20 PUSH2 0x4A9B DUP4 CODECOPY DUP2 MLOAD SWAP2 MSTORE SWAP2 POP PUSH2 0x400B SWAP1 DUP10 MLOAD SWAP2 DUP3 SWAP2 DUP14 DUP4 MSTORE DUP12 DUP10 DUP5 ADD MSTORE DUP12 DUP4 ADD SWAP1 PUSH2 0x2E01 JUMP JUMPDEST DUP5 SWAP3 SWAP4 POP SWAP1 PUSH32 0x4D33A2F9C4F66A101333F7CA2AB718582E763C941FF6FC304D2D4408D43A8284 SWAP2 PUSH2 0x40DD DUP14 DUP11 PUSH2 0x3634 SWAP15 SWAP16 SWAP10 SWAP11 SWAP12 SWAP14 SWAP13 DUP1 SWAP10 MLOAD AND SWAP7 DUP10 PUSH1 0x80 DUP3 ADD MLOAD AND SWAP9 DUP11 PUSH1 0xA0 DUP4 ADD MLOAD AND SWAP11 DUP14 DUP1 DUP5 ADD MLOAD SWAP8 DUP4 MLOAD SWAP2 DUP5 ADD MLOAD SWAP3 PUSH1 0xC0 PUSH1 0x60 DUP9 DUP8 ADD MLOAD SWAP7 ADD MLOAD SWAP7 ADD MLOAD AND SWAP6 MLOAD SWAP10 DUP11 SWAP10 DUP11 PUSH2 0x3C94 JUMP JUMPDEST SUB SWAP1 LOG4 PUSH2 0x3F6D JUMP JUMPDEST SWAP2 POP SWAP3 POP PUSH2 0x4101 SWAP2 POP PUSH1 0xE0 RETURNDATASIZE DUP2 GT PUSH2 0x1F7D JUMPI PUSH2 0x1F6A DUP2 DUP4 PUSH2 0x2867 JUMP JUMPDEST SWAP3 SWAP1 POP SWAP1 SWAP2 SWAP3 CODESIZE PUSH2 0x3DEF JUMP JUMPDEST SWAP1 SWAP2 PUSH1 0xA0 SWAP3 DUP3 MSTORE PUSH4 0xFFFFFFFF PUSH1 0xE0 SHL AND PUSH1 0x20 DUP3 ADD MSTORE PUSH1 0x60 PUSH1 0x40 DUP3 ADD MSTORE PUSH1 0x1A PUSH1 0x60 DUP3 ADD MSTORE PUSH32 0x7154702062656C6F77206D696E696D756D207265717569726564000000000000 PUSH1 0x80 DUP3 ADD MSTORE ADD SWAP1 JUMP JUMPDEST SWAP1 PUSH1 0x0 DUP3 DUP2 MSTORE PUSH2 0x26D PUSH1 0x20 SWAP1 DUP1 DUP3 MSTORE PUSH1 0x40 SWAP1 PUSH2 0x4177 DUP3 DUP6 KECCAK256 PUSH2 0x3CD8 JUMP JUMPDEST PUSH2 0x264 DUP1 SLOAD DUP5 MLOAD PUSH4 0x12BCE9BF PUSH1 0xE2 SHL DUP2 MSTORE PUSH1 0x1 PUSH1 0x1 PUSH1 0xA0 SHL SUB SWAP7 SWAP4 SWAP3 SWAP2 PUSH1 0xE0 SWAP1 DUP3 SWAP1 PUSH1 0xE4 SWAP1 DUP3 SWAP1 DUP13 SWAP1 DUP13 AND PUSH2 0x41AF PUSH1 0x4 DUP5 ADD DUP11 PUSH2 0x3D3C JUMP JUMPDEST GAS CALL SWAP1 DUP2 DUP10 SWAP2 DUP11 SWAP4 PUSH2 0x4416 JUMPI JUMPDEST POP PUSH2 0x43A5 JUMPI POP POP PUSH2 0x41CB PUSH2 0x2D11 JUMP JUMPDEST SWAP6 PUSH2 0x41D5 DUP8 PUSH2 0x3249 JUMP JUMPDEST SWAP7 PUSH1 0x1 PUSH1 0x1 PUSH1 0xE0 SHL SUB NOT DUP9 AND PUSH4 0x6DA41E5 PUSH1 0xE1 SHL DUP2 SUB PUSH2 0x4216 JUMPI POP POP POP POP POP POP POP SWAP4 PUSH2 0x353C PUSH1 0x0 DUP1 MLOAD PUSH1 0x20 PUSH2 0x4A7B DUP4 CODECOPY DUP2 MLOAD SWAP2 MSTORE SWAP4 SWAP5 SWAP6 MLOAD SWAP3 DUP4 SWAP3 DUP4 PUSH2 0x3426 JUMP JUMPDEST PUSH4 0xB63F1A7 PUSH1 0xE0 SWAP11 SWAP10 SWAP4 SWAP5 SWAP6 SWAP7 SWAP8 SWAP9 SWAP11 SHL DUP2 EQ PUSH1 0x0 EQ PUSH2 0x4316 JUMPI POP POP PUSH2 0x4251 PUSH1 0x0 DUP1 MLOAD PUSH1 0x20 PUSH2 0x4A7B DUP4 CODECOPY DUP2 MLOAD SWAP2 MSTORE SWAP2 DUP10 MLOAD SWAP2 DUP3 SWAP2 DUP14 DUP4 PUSH2 0x32B6 JUMP JUMPDEST SUB SWAP1 LOG1 JUMPDEST DUP1 DUP3 SLOAD AND SWAP2 PUSH1 0x80 DUP5 ADD SWAP3 DUP3 DUP5 MLOAD AND SWAP1 DUP7 DUP7 ADD MLOAD SWAP2 DUP2 EXTCODESIZE ISZERO PUSH2 0x4312 JUMPI DUP11 MLOAD PUSH4 0x53B16D17 PUSH1 0xE0 SHL DUP2 MSTORE PUSH1 0x1 PUSH1 0x1 PUSH1 0xA0 SHL SUB SWAP1 SWAP2 AND PUSH1 0x4 DUP3 ADD MSTORE PUSH1 0x24 DUP2 ADD SWAP3 SWAP1 SWAP3 MSTORE DUP9 SWAP1 DUP3 SWAP1 DUP2 DUP4 DUP2 PUSH1 0x44 DUP2 ADD JUMPDEST SUB SWAP3 GAS CALL DUP1 ISZERO PUSH2 0x3FCC JUMPI PUSH2 0x42F9 JUMPI JUMPDEST POP SWAP1 DUP1 PUSH1 0x60 SWAP3 SLOAD AND SWAP3 MLOAD AND SWAP3 ADD MLOAD SWAP2 DUP2 EXTCODESIZE ISZERO PUSH2 0x3657 JUMPI DUP7 MLOAD PUSH4 0x58F32DE9 PUSH1 0xE0 SHL DUP2 MSTORE PUSH1 0x1 PUSH1 0x1 PUSH1 0xA0 SHL SUB SWAP1 SWAP2 AND PUSH1 0x4 DUP3 ADD MSTORE PUSH1 0x24 DUP2 ADD SWAP3 SWAP1 SWAP3 MSTORE DUP5 SWAP1 DUP3 SWAP1 DUP2 DUP4 DUP2 PUSH1 0x44 DUP2 ADD PUSH2 0x3F57 JUMP JUMPDEST SWAP2 DUP8 PUSH2 0x4309 DUP3 SWAP4 SWAP10 PUSH1 0x60 SWAP6 PUSH2 0x2867 JUMP JUMPDEST SWAP8 SWAP2 SWAP3 POP PUSH2 0x42AF JUMP JUMPDEST DUP10 DUP1 REVERT JUMPDEST PUSH4 0x272E3F59 PUSH1 0xE2 SHL DUP2 SUB PUSH2 0x434D JUMPI POP POP PUSH2 0x4345 PUSH1 0x0 DUP1 MLOAD PUSH1 0x20 PUSH2 0x4A7B DUP4 CODECOPY DUP2 MLOAD SWAP2 MSTORE SWAP2 DUP10 MLOAD SWAP2 DUP3 SWAP2 DUP14 DUP4 PUSH2 0x410D JUMP JUMPDEST SUB SWAP1 LOG1 PUSH2 0x4255 JUMP JUMPDEST PUSH4 0x79121201 PUSH1 0xE0 SHL SUB PUSH2 0x437A JUMPI POP PUSH2 0x4345 PUSH1 0x0 DUP1 MLOAD PUSH1 0x20 PUSH2 0x4A7B DUP4 CODECOPY DUP2 MLOAD SWAP2 MSTORE SWAP2 DUP10 MLOAD SWAP2 DUP3 SWAP2 DUP14 DUP4 PUSH2 0x327A JUMP JUMPDEST PUSH1 0x0 DUP1 MLOAD PUSH1 0x20 PUSH2 0x4A9B DUP4 CODECOPY DUP2 MLOAD SWAP2 MSTORE SWAP2 POP PUSH2 0x4345 SWAP1 DUP10 MLOAD SWAP2 DUP3 SWAP2 DUP14 DUP4 MSTORE DUP12 DUP10 DUP5 ADD MSTORE DUP12 DUP4 ADD SWAP1 PUSH2 0x2E01 JUMP JUMPDEST DUP4 SWAP3 POP PUSH32 0xF8DCB57698D7067DA58AB71C48CD2E3B329B69E7E9853F88630C2C69C2557C78 SWAP1 DUP9 PUSH2 0x3634 SWAP12 SWAP13 SWAP7 SWAP8 SWAP9 SWAP11 SWAP10 SWAP4 SWAP6 MLOAD AND SWAP3 PUSH2 0x40DD DUP8 DUP13 DUP4 PUSH1 0x80 DUP10 ADD MLOAD AND SWAP8 DUP5 PUSH1 0xA0 DUP3 ADD MLOAD AND SWAP10 DUP13 DUP3 ADD MLOAD SWAP6 DUP14 DUP3 MLOAD SWAP1 DUP4 ADD MLOAD SWAP2 PUSH1 0xC0 PUSH1 0x60 DUP8 DUP7 ADD MLOAD SWAP6 ADD MLOAD SWAP6 ADD MLOAD AND SWAP5 MLOAD SWAP9 DUP10 SWAP9 DUP10 PUSH2 0x32FB JUMP JUMPDEST SWAP1 SWAP3 POP PUSH2 0x4431 SWAP2 POP PUSH1 0xE0 RETURNDATASIZE DUP2 GT PUSH2 0x1F7D JUMPI PUSH2 0x1F6A DUP2 DUP4 PUSH2 0x2867 JUMP JUMPDEST SWAP3 POP POP SWAP1 SWAP2 CODESIZE PUSH2 0x41BC JUMP JUMPDEST SWAP1 PUSH1 0x0 DUP3 DUP2 MSTORE PUSH2 0x26E PUSH1 0x20 SWAP1 DUP1 DUP3 MSTORE PUSH1 0x40 SWAP1 PUSH2 0x4459 DUP3 DUP6 KECCAK256 PUSH2 0x3CD8 JUMP JUMPDEST PUSH2 0x264 DUP1 SLOAD DUP5 MLOAD PUSH4 0x5E272AD9 PUSH1 0xE1 SHL DUP2 MSTORE PUSH1 0x1 PUSH1 0x1 PUSH1 0xA0 SHL SUB SWAP7 SWAP4 SWAP3 SWAP2 PUSH1 0xE0 SWAP1 DUP3 SWAP1 PUSH1 0xE4 SWAP1 DUP3 SWAP1 DUP13 SWAP1 DUP13 AND PUSH2 0x4491 PUSH1 0x4 DUP5 ADD DUP11 PUSH2 0x3D3C JUMP JUMPDEST GAS CALL SWAP1 DUP2 DUP10 SWAP2 DUP11 SWAP4 PUSH2 0x46CC JUMPI JUMPDEST POP PUSH2 0x465B JUMPI POP POP PUSH2 0x44AD PUSH2 0x2D11 JUMP JUMPDEST SWAP6 PUSH2 0x44B7 DUP8 PUSH2 0x3249 JUMP JUMPDEST SWAP7 PUSH1 0x1 PUSH1 0x1 PUSH1 0xE0 SHL SUB NOT DUP9 AND SWAP1 PUSH4 0x6DA41E5 PUSH1 0xE1 SHL DUP3 SUB PUSH2 0x44F9 JUMPI POP POP POP POP POP POP POP SWAP4 PUSH2 0x353C PUSH1 0x0 DUP1 MLOAD PUSH1 0x20 PUSH2 0x4A7B DUP4 CODECOPY DUP2 MLOAD SWAP2 MSTORE SWAP4 SWAP5 SWAP6 MLOAD SWAP3 DUP4 SWAP3 DUP4 PUSH2 0x3426 JUMP JUMPDEST PUSH4 0xB63F1A7 PUSH1 0xE0 SWAP11 SWAP10 SWAP3 SWAP4 SWAP5 SWAP6 SWAP7 SWAP8 SWAP9 SWAP11 SHL DUP4 EQ PUSH1 0x0 EQ PUSH2 0x4594 JUMPI POP PUSH1 0x0 DUP1 MLOAD PUSH1 0x20 PUSH2 0x4A7B DUP4 CODECOPY DUP2 MLOAD SWAP2 MSTORE SWAP2 POP PUSH2 0x4536 SWAP1 DUP10 MLOAD SWAP2 DUP3 SWAP2 DUP14 DUP4 PUSH2 0x32B6 JUMP JUMPDEST SUB SWAP1 LOG1 JUMPDEST DUP1 DUP3 SLOAD AND SWAP2 PUSH1 0x80 DUP5 ADD SWAP3 DUP3 DUP5 MLOAD AND SWAP1 DUP4 DUP7 MLOAD AND DUP8 DUP8 ADD MLOAD SWAP3 DUP3 EXTCODESIZE ISZERO PUSH2 0x3FD6 JUMPI DUP12 MLOAD PUSH4 0xE2C5E99 PUSH1 0xE4 SHL DUP2 MSTORE PUSH1 0x1 PUSH1 0x1 PUSH1 0xA0 SHL SUB SWAP2 DUP3 AND PUSH1 0x4 DUP3 ADD MSTORE SWAP2 AND PUSH1 0x24 DUP3 ADD MSTORE PUSH1 0x44 DUP2 ADD SWAP3 SWAP1 SWAP3 MSTORE DUP9 SWAP1 DUP3 SWAP1 DUP2 DUP4 DUP2 PUSH1 0x64 DUP2 ADD PUSH2 0x42A0 JUMP JUMPDEST PUSH4 0xF577BEF5 PUSH1 0xE0 SHL DUP4 SUB PUSH2 0x45F9 JUMPI POP POP PUSH1 0xA0 PUSH1 0x0 DUP1 MLOAD PUSH1 0x20 PUSH2 0x4A7B DUP4 CODECOPY DUP2 MLOAD SWAP2 MSTORE SWAP2 DUP10 MLOAD SWAP1 DUP13 DUP3 MSTORE DUP8 DUP3 ADD MSTORE PUSH1 0x60 DUP11 DUP3 ADD MSTORE PUSH1 0x1A PUSH1 0x60 DUP3 ADD MSTORE PUSH32 0x7154632062656C6F77206D696E696D756D207265717569726564000000000000 PUSH1 0x80 DUP3 ADD MSTORE LOG1 PUSH2 0x453A JUMP JUMPDEST SWAP1 SWAP2 PUSH4 0x79121201 PUSH1 0xE0 SHL SUB PUSH2 0x4630 JUMPI POP PUSH2 0x4628 PUSH1 0x0 DUP1 MLOAD PUSH1 0x20 PUSH2 0x4A7B DUP4 CODECOPY DUP2 MLOAD SWAP2 MSTORE SWAP2 DUP10 MLOAD SWAP2 DUP3 SWAP2 DUP14 DUP4 PUSH2 0x327A JUMP JUMPDEST SUB SWAP1 LOG1 PUSH2 0x453A JUMP JUMPDEST PUSH1 0x0 DUP1 MLOAD PUSH1 0x20 PUSH2 0x4A9B DUP4 CODECOPY DUP2 MLOAD SWAP2 MSTORE SWAP2 POP PUSH2 0x4628 SWAP1 DUP10 MLOAD SWAP2 DUP3 SWAP2 DUP14 DUP4 MSTORE DUP12 DUP10 DUP5 ADD MSTORE DUP12 DUP4 ADD SWAP1 PUSH2 0x2E01 JUMP JUMPDEST DUP4 SWAP3 POP PUSH32 0x8AB42044CE8B230E021E5542EB53688D77443E50EE84CDA7917F6BDD833C697F SWAP1 DUP9 PUSH2 0x3634 SWAP12 SWAP13 SWAP7 SWAP8 SWAP9 SWAP11 SWAP10 SWAP4 SWAP6 MLOAD AND SWAP3 PUSH2 0x40DD DUP8 DUP13 DUP4 PUSH1 0x80 DUP10 ADD MLOAD AND SWAP8 DUP5 PUSH1 0xA0 DUP3 ADD MLOAD AND SWAP10 DUP13 DUP3 ADD MLOAD SWAP6 DUP14 DUP3 MLOAD SWAP1 DUP4 ADD MLOAD SWAP2 PUSH1 0xC0 PUSH1 0x60 DUP8 DUP7 ADD MLOAD SWAP6 ADD MLOAD SWAP6 ADD MLOAD AND SWAP5 MLOAD SWAP9 DUP10 SWAP9 DUP10 PUSH2 0x32FB JUMP JUMPDEST SWAP1 SWAP3 POP PUSH2 0x46E7 SWAP2 POP PUSH1 0xE0 RETURNDATASIZE DUP2 GT PUSH2 0x1F7D JUMPI PUSH2 0x1F6A DUP2 DUP4 PUSH2 0x2867 JUMP JUMPDEST SWAP3 POP POP SWAP1 SWAP2 CODESIZE PUSH2 0x449E JUMP JUMPDEST CALLDATALOAD PUSH1 0x1 PUSH1 0x1 PUSH1 0xA0 SHL SUB DUP2 AND DUP2 SUB PUSH2 0x31D JUMPI SWAP1 JUMP JUMPDEST DUP2 CALLDATALOAD DUP2 SSTORE PUSH1 0x20 DUP3 ADD CALLDATALOAD PUSH1 0x1 DUP3 ADD SSTORE PUSH1 0x2 DUP2 ADD SWAP1 PUSH1 0x1 PUSH1 0x1 PUSH1 0xA0 SHL SUB SWAP1 PUSH2 0x476F SWAP1 PUSH1 0x80 SWAP1 PUSH1 0x4 SWAP1 DUP5 PUSH2 0x4739 PUSH1 0x40 DUP10 ADD PUSH2 0x46F2 JUMP JUMPDEST AND SWAP6 PUSH1 0x1 PUSH1 0x1 PUSH1 0x60 SHL SUB PUSH1 0xA0 SHL SWAP7 DUP8 DUP3 SLOAD AND OR SWAP1 SSTORE PUSH1 0x3 DUP2 ADD DUP6 PUSH2 0x475F PUSH1 0x60 DUP11 ADD PUSH2 0x46F2 JUMP JUMPDEST AND DUP8 DUP3 SLOAD AND OR SWAP1 SSTORE ADD SWAP5 ADD PUSH2 0x46F2 JUMP JUMPDEST AND SWAP1 DUP3 SLOAD AND OR SWAP1 SSTORE JUMP JUMPDEST PUSH1 0x0 NOT DUP2 EQ PUSH2 0x3162 JUMPI PUSH1 0x1 ADD SWAP1 JUMP JUMPDEST PUSH1 0x1 PUSH1 0x1 PUSH1 0xA0 SHL SUB PUSH2 0x476F PUSH1 0xA0 PUSH1 0x5 DUP4 PUSH2 0x47A1 DUP8 PUSH2 0x46F2 JUMP JUMPDEST AND SWAP5 PUSH1 0x1 PUSH1 0x1 PUSH1 0x60 SHL SUB DUP4 SHL SWAP6 DUP7 DUP3 SLOAD AND OR DUP2 SSTORE PUSH1 0x20 DUP8 ADD CALLDATALOAD PUSH1 0x1 DUP3 ADD SSTORE PUSH1 0x40 DUP8 ADD CALLDATALOAD PUSH1 0x2 DUP3 ADD SSTORE PUSH1 0x3 DUP2 ADD DUP6 PUSH2 0x47DA PUSH1 0x60 DUP11 ADD PUSH2 0x46F2 JUMP JUMPDEST AND DUP8 DUP3 SLOAD AND OR SWAP1 SSTORE PUSH1 0x4 DUP2 ADD DUP6 PUSH2 0x475F PUSH1 0x80 DUP11 ADD PUSH2 0x46F2 JUMP JUMPDEST PUSH1 0x1 PUSH1 0x1 PUSH1 0xA0 SHL SUB PUSH2 0x476F PUSH1 0xC0 PUSH1 0x6 DUP4 PUSH2 0x480C DUP8 PUSH2 0x46F2 JUMP JUMPDEST AND SWAP5 PUSH1 0x1 PUSH1 0x1 PUSH1 0x60 SHL SUB PUSH1 0xA0 SHL SWAP6 DUP7 DUP3 SLOAD AND OR DUP2 SSTORE PUSH1 0x20 DUP8 ADD CALLDATALOAD PUSH1 0x1 DUP3 ADD SSTORE PUSH1 0x40 DUP8 ADD CALLDATALOAD PUSH1 0x2 DUP3 ADD SSTORE PUSH1 0x60 DUP8 ADD CALLDATALOAD PUSH1 0x3 DUP3 ADD SSTORE PUSH1 0x4 DUP2 ADD DUP6 PUSH2 0x4850 PUSH1 0x80 DUP11 ADD PUSH2 0x46F2 JUMP JUMPDEST AND DUP8 DUP3 SLOAD AND OR SWAP1 SSTORE PUSH1 0x5 DUP2 ADD DUP6 PUSH2 0x475F PUSH1 0xA0 DUP11 ADD PUSH2 0x46F2 JUMP JUMPDEST PUSH2 0x266 SLOAD PUSH2 0x265 SLOAD DUP2 EQ PUSH2 0x48C8 JUMPI PUSH1 0x0 MSTORE PUSH2 0x270 PUSH1 0x20 MSTORE PUSH1 0x20 PUSH1 0x40 PUSH1 0x0 KECCAK256 PUSH1 0x40 MLOAD SWAP1 PUSH2 0x4896 PUSH1 0x40 DUP4 PUSH2 0x2867 JUMP JUMPDEST SLOAD PUSH2 0x48A4 PUSH1 0xFF DUP3 AND DUP4 PUSH2 0x318E JUMP JUMPDEST PUSH1 0x8 SHR SWAP2 DUP3 SWAP2 ADD MSTORE PUSH1 0x1 PUSH1 0x1 PUSH1 0x80 SHL SUB PUSH2 0x271 SLOAD AND NUMBER SUB SWAP1 NUMBER DUP3 GT PUSH2 0x3162 JUMPI GT ISZERO SWAP1 JUMP JUMPDEST POP PUSH1 0x0 SWAP1 JUMP JUMPDEST SWAP1 PUSH1 0x0 SWAP2 DUP1 DUP4 MSTORE PUSH2 0x193 DUP1 PUSH1 0x20 MSTORE PUSH1 0x40 DUP5 KECCAK256 SWAP3 PUSH1 0x1 DUP1 PUSH1 0xA0 SHL SUB AND SWAP3 DUP4 DUP6 MSTORE PUSH1 0x20 MSTORE PUSH1 0xFF PUSH1 0x40 DUP6 KECCAK256 SLOAD AND ISZERO PUSH2 0x4903 JUMPI POP POP POP POP JUMP JUMPDEST DUP2 DUP5 MSTORE PUSH1 0x20 MSTORE PUSH1 0x40 DUP4 KECCAK256 DUP3 DUP5 MSTORE PUSH1 0x20 MSTORE PUSH1 0x40 DUP4 KECCAK256 PUSH1 0x1 PUSH1 0xFF NOT DUP3 SLOAD AND OR SWAP1 SSTORE PUSH32 0x2F8788117E7EFF1D82E926EC794901D17C78024A50270940304540A733656F0D CALLER SWAP4 DUP1 LOG4 CODESIZE DUP1 DUP1 DUP1 PUSH2 0x2924 JUMP JUMPDEST CALLVALUE DUP2 SUB PUSH2 0x495A JUMPI POP JUMP JUMPDEST PUSH1 0x24 SWAP1 PUSH1 0x40 MLOAD SWAP1 PUSH4 0x49E6F69 PUSH1 0xE4 SHL DUP3 MSTORE PUSH1 0x4 DUP3 ADD MSTORE REVERT JUMPDEST DUP1 CALLDATALOAD PUSH2 0x1F7 SSTORE PUSH1 0x20 DUP2 ADD CALLDATALOAD PUSH2 0x1F8 SSTORE PUSH1 0x40 DUP2 ADD CALLDATALOAD PUSH2 0x1F9 SSTORE PUSH1 0x60 DUP2 ADD CALLDATALOAD PUSH2 0x1FA SSTORE PUSH1 0x80 DUP2 ADD CALLDATALOAD PUSH2 0x1FB SSTORE PUSH1 0xA0 DUP2 ADD CALLDATALOAD PUSH2 0x1FC SSTORE PUSH1 0xC0 DUP2 ADD CALLDATALOAD PUSH2 0x1FD SSTORE PUSH1 0xE0 DUP2 ADD CALLDATALOAD PUSH2 0x1FE SSTORE PUSH2 0x100 ADD CALLDATALOAD PUSH2 0x1FF SSTORE JUMP JUMPDEST PUSH1 0x97 SLOAD PUSH1 0x40 DUP1 MLOAD PUSH4 0xD994D6D5 PUSH1 0xE0 SHL DUP2 MSTORE CALLER PUSH1 0x4 DUP3 ADD MSTORE SWAP1 SWAP3 SWAP2 PUSH1 0x20 SWAP1 DUP3 SWAP1 PUSH1 0x24 SWAP1 DUP3 SWAP1 PUSH1 0x1 PUSH1 0x1 PUSH1 0xA0 SHL SUB AND GAS STATICCALL SWAP1 DUP2 ISZERO PUSH2 0x4A6F JUMPI PUSH1 0x0 SWAP2 PUSH2 0x4A51 JUMPI JUMPDEST POP ISZERO SWAP1 DUP2 PUSH2 0x4A21 JUMPI JUMPDEST POP PUSH2 0x4A11 JUMPI POP JUMP JUMPDEST MLOAD PUSH4 0x1DD1B1B5 PUSH1 0xE2 SHL DUP2 MSTORE PUSH1 0x4 SWAP1 REVERT JUMPDEST SWAP1 POP PUSH1 0x0 MSTORE PUSH2 0x193 PUSH1 0x20 MSTORE PUSH1 0x1 DUP2 PUSH1 0x0 KECCAK256 ADD SLOAD PUSH1 0x0 MSTORE DUP1 PUSH1 0x0 KECCAK256 CALLER PUSH1 0x0 MSTORE PUSH1 0x20 MSTORE PUSH1 0xFF DUP2 PUSH1 0x0 KECCAK256 SLOAD AND ISZERO CODESIZE PUSH2 0x4A09 JUMP JUMPDEST PUSH2 0x4A69 SWAP2 POP PUSH1 0x20 RETURNDATASIZE DUP2 GT PUSH2 0x2EBA JUMPI PUSH2 0x2EAC DUP2 DUP4 PUSH2 0x2867 JUMP JUMPDEST CODESIZE PUSH2 0x4A00 JUMP JUMPDEST DUP4 MLOAD RETURNDATASIZE PUSH1 0x0 DUP3 RETURNDATACOPY RETURNDATASIZE SWAP1 REVERT INVALID JUMPDEST 0xBE 0xBB PUSH5 0xD62396F99C 0xAE 0x4B EXTCODESIZE PUSH25 0xD9386CB0F2893AAB6A69F27EB61F8E7C29775E3EA497186958 0xEC PUSH4 0x8834F65E 0xC5 0xA5 PUSH18 0xC2B2E877E5D59A76804EC0448FAC7829BABF 0xA5 0xD4 EXP 0xB5 SWAP6 STATICCALL PUSH2 0x3B17 JUMP PUSH15 0xA5E38A5CAC79A71F09CE1435246DB2 0xE6 DUP1 PC AND 0xC2 PUSH30 0x5E686862EC2250829EB6DEE4A7CB0834865072F135485C874D3BBBE39BDF 0xDB LOG2 PUSH5 0x6970667358 0x22 SLT KECCAK256 0xDC AND PUSH31 0xD9E03BDEE9B8602B726E45FE4ABA13A92C39B57C3C8B1267166C485EB16473 PUSH16 0x6C634300081400330000000000000000 "
    },
    "gasEstimates": {
      "creation": {
        "codeDepositCost": "3849600",
        "executionCost": "infinite",
        "totalCost": "infinite"
      },
      "external": {
        "DEFAULT_ADMIN_ROLE()": "1115",
        "changeGovernor(address)": "infinite",
        "execute(address)": "infinite",
        "firstOperId()": "2382",
        "getRoleAdmin(bytes32)": "2432",
        "governor()": "2318",
        "grantRole(bytes32,address)": "infinite",
        "hasRole(bytes32,address)": "3323",
        "initialize(address,address,uint128,uint128,(uint256,uint256,uint256,uint256,uint256,uint256,uint256,uint256,uint256))": "infinite",
        "isEmpty()": "4972",
        "makeStoppable()": "infinite",
        "makeUnstoppable()": "infinite",
        "maxOperPerBatch()": "3422",
        "minOperWaitingBlk()": "3126",
        "mintTCandTPExecFee()": "2602",
        "mocCore()": "3396",
        "operIdCount()": "2954",
        "operationsMintTC(uint256)": "10981",
        "operationsMintTCandTP(uint256)": "13937",
        "operationsMintTP(uint256)": "13915",
        "operationsRedeemTC(uint256)": "11883",
        "operationsRedeemTCandTP(uint256)": "15919",
        "operationsRedeemTP(uint256)": "14418",
        "operationsSwapTCforTP(uint256)": "15303",
        "operationsSwapTPforTC(uint256)": "15765",
        "operationsSwapTPforTP(uint256)": "17618",
        "opersInfo(uint256)": "3125",
        "pause()": "28396",
        "paused()": "2818",
        "pauser()": "3229",
        "proxiableUUID()": "infinite",
        "queueMintTC((uint256,uint256,address,address,address))": "infinite",
        "queueMintTCandTP((address,uint256,uint256,address,address,address))": "infinite",
        "queueMintTP((address,uint256,uint256,address,address,address))": "infinite",
        "queueRedeemTC((uint256,uint256,address,address,address))": "infinite",
        "queueRedeemTCandTP((address,uint256,uint256,uint256,address,address,address))": "infinite",
        "queueRedeemTP((address,uint256,uint256,address,address,address))": "infinite",
        "queueSwapTCforTP((address,uint256,uint256,uint256,address,address,address))": "infinite",
        "queueSwapTPforTC((address,uint256,uint256,uint256,address,address,address))": "infinite",
        "queueSwapTPforTP((address,address,uint256,uint256,uint256,address,address,address))": "infinite",
        "readyToExecute()": "9210",
        "redeemTCandTPExecFee()": "2976",
        "registerBucket(address)": "infinite",
        "renounceRole(bytes32,address)": "28986",
        "revokeRole(bytes32,address)": "infinite",
        "setMaxOperPerBatch(uint128)": "infinite",
        "setMinOperWaitingBlk(uint128)": "infinite",
        "setPauser(address)": "infinite",
        "stoppable()": "3274",
        "supportsInterface(bytes4)": "293",
        "swapTCforTPExecFee()": "3526",
        "swapTPforTCExecFee()": "2844",
        "swapTPforTPExecFee()": "3504",
        "tcMintExecFee()": "3174",
        "tcRedeemExecFee()": "3152",
        "tpMintExecFee()": "2558",
        "tpRedeemExecFee()": "3328",
        "unpause()": "25779",
        "updateExecutionFees((uint256,uint256,uint256,uint256,uint256,uint256,uint256,uint256,uint256))": "infinite",
        "upgradeTo(address)": "infinite",
        "upgradeToAndCall(address,bytes)": "infinite"
      },
      "internal": {
        "_executeMintTC(uint256)": "infinite",
        "_executeMintTCandTP(uint256)": "infinite",
        "_executeMintTP(uint256)": "infinite",
        "_executeRedeemTC(uint256)": "infinite",
        "_executeRedeemTCandTP(uint256)": "infinite",
        "_executeRedeemTP(uint256)": "infinite",
        "_executeSwapTCforTP(uint256)": "infinite",
        "_executeSwapTPforTC(uint256)": "infinite",
        "_executeSwapTPforTP(uint256)": "infinite",
        "_onDeferredTCMinted(uint256,struct MocCore.MintTCParams memory,uint256,struct MocCommons.FeeCalcs memory)": "infinite",
        "_onDeferredTCRedeemed(uint256,struct MocCore.RedeemTCParams memory,uint256,struct MocCommons.FeeCalcs memory)": "infinite",
        "_onDeferredTCandTPMinted(uint256,struct MocCommons.MintTCandTPParams memory,uint256,uint256,struct MocCommons.FeeCalcs memory)": "infinite",
        "_onDeferredTCandTPRedeemed(uint256,struct MocCommons.RedeemTCandTPParams memory,uint256,uint256,struct MocCommons.FeeCalcs memory)": "infinite",
        "_onDeferredTCforTPSwapped(uint256,struct MocCommons.SwapTCforTPParams memory,uint256,struct MocCommons.FeeCalcs memory)": "infinite",
        "_onDeferredTPMinted(uint256,struct MocCore.MintTPParams memory,uint256,struct MocCommons.FeeCalcs memory)": "infinite",
        "_onDeferredTPRedeemed(uint256,struct MocCommons.RedeemTPParams memory,uint256,struct MocCommons.FeeCalcs memory)": "infinite",
        "_onDeferredTPforTCSwapped(uint256,struct MocCommons.SwapTPforTCParams memory,uint256,struct MocCommons.FeeCalcs memory)": "infinite",
        "_onDeferredTPforTPSwapped(uint256,struct MocCommons.SwapTPforTPParams memory,uint256,struct MocCommons.FeeCalcs memory)": "infinite",
        "execute(uint256,uint256)": "infinite"
      }
    },
    "methodIdentifiers": {
      "DEFAULT_ADMIN_ROLE()": "a217fddf",
      "changeGovernor(address)": "e4c0aaf4",
      "execute(address)": "4b64e492",
      "firstOperId()": "2b994849",
      "getRoleAdmin(bytes32)": "248a9ca3",
      "governor()": "0c340a24",
      "grantRole(bytes32,address)": "2f2ff15d",
      "hasRole(bytes32,address)": "91d14854",
      "initialize(address,address,uint128,uint128,(uint256,uint256,uint256,uint256,uint256,uint256,uint256,uint256,uint256))": "db901477",
      "isEmpty()": "681fe70c",
      "makeStoppable()": "68274357",
      "makeUnstoppable()": "5210570c",
      "maxOperPerBatch()": "dbb0b684",
      "minOperWaitingBlk()": "8e7e8189",
      "mintTCandTPExecFee()": "3fa9e0c6",
      "mocCore()": "d9a862d6",
      "operIdCount()": "73e3d086",
      "operationsMintTC(uint256)": "1a0c5440",
      "operationsMintTCandTP(uint256)": "8b20076c",
      "operationsMintTP(uint256)": "8a4737ab",
      "operationsRedeemTC(uint256)": "ad16c2de",
      "operationsRedeemTCandTP(uint256)": "6b763330",
      "operationsRedeemTP(uint256)": "fb8aafb8",
      "operationsSwapTCforTP(uint256)": "1826ebf0",
      "operationsSwapTPforTC(uint256)": "5c817aa3",
      "operationsSwapTPforTP(uint256)": "435c7e37",
      "opersInfo(uint256)": "7c50b7e4",
      "pause()": "8456cb59",
      "paused()": "5c975abb",
      "pauser()": "9fd0506d",
      "proxiableUUID()": "52d1902d",
      "queueMintTC((uint256,uint256,address,address,address))": "e97a4d63",
      "queueMintTCandTP((address,uint256,uint256,address,address,address))": "47d8496a",
      "queueMintTP((address,uint256,uint256,address,address,address))": "7e81a821",
      "queueRedeemTC((uint256,uint256,address,address,address))": "fa91a9a5",
      "queueRedeemTCandTP((address,uint256,uint256,uint256,address,address,address))": "e4e1b729",
      "queueRedeemTP((address,uint256,uint256,address,address,address))": "c84d8bb6",
      "queueSwapTCforTP((address,uint256,uint256,uint256,address,address,address))": "6b59c22f",
      "queueSwapTPforTC((address,uint256,uint256,uint256,address,address,address))": "00c6e88e",
      "queueSwapTPforTP((address,address,uint256,uint256,uint256,address,address,address))": "34975a41",
      "readyToExecute()": "3cbcf4c4",
      "redeemTCandTPExecFee()": "7656cd10",
      "registerBucket(address)": "bbe720d9",
      "renounceRole(bytes32,address)": "36568abe",
      "revokeRole(bytes32,address)": "d547741f",
      "setMaxOperPerBatch(uint128)": "5ee1d2bb",
      "setMinOperWaitingBlk(uint128)": "3bb4b05c",
      "setPauser(address)": "2d88af4a",
      "stoppable()": "bb4872de",
      "supportsInterface(bytes4)": "01ffc9a7",
      "swapTCforTPExecFee()": "f2cee87a",
      "swapTPforTCExecFee()": "64d9e821",
      "swapTPforTPExecFee()": "eeab6f4b",
      "tcMintExecFee()": "9aac1c2a",
      "tcRedeemExecFee()": "97ac81fb",
      "tpMintExecFee()": "3dc8797a",
      "tpRedeemExecFee()": "d17910e2",
      "unpause()": "3f4ba83a",
      "updateExecutionFees((uint256,uint256,uint256,uint256,uint256,uint256,uint256,uint256,uint256))": "4981d04e",
      "upgradeTo(address)": "3659cfe6",
      "upgradeToAndCall(address,bytes)": "4f1ef286"
    }
  },
  "storageLayout": {
    "storage": [
      {
        "astId": 950,
        "contract": "contracts/queue/MocQueue.sol:MocQueue",
        "label": "_initialized",
        "offset": 0,
        "slot": "0",
        "type": "t_uint8"
      },
      {
        "astId": 953,
        "contract": "contracts/queue/MocQueue.sol:MocQueue",
        "label": "_initializing",
        "offset": 1,
        "slot": "0",
        "type": "t_bool"
      },
      {
        "astId": 932,
        "contract": "contracts/queue/MocQueue.sol:MocQueue",
        "label": "__gap",
        "offset": 0,
        "slot": "1",
        "type": "t_array(t_uint256)50_storage"
      },
      {
        "astId": 1247,
        "contract": "contracts/queue/MocQueue.sol:MocQueue",
        "label": "__gap",
        "offset": 0,
        "slot": "51",
        "type": "t_array(t_uint256)50_storage"
      },
      {
        "astId": 30379,
        "contract": "contracts/queue/MocQueue.sol:MocQueue",
        "label": "__gap",
        "offset": 0,
        "slot": "101",
        "type": "t_array(t_uint256)50_storage"
      },
      {
        "astId": 24623,
        "contract": "contracts/queue/MocQueue.sol:MocQueue",
        "label": "governor",
        "offset": 0,
        "slot": "151",
        "type": "t_contract(IGovernor)25472"
      },
      {
        "astId": 24694,
        "contract": "contracts/queue/MocQueue.sol:MocQueue",
        "label": "__gap",
        "offset": 0,
        "slot": "152",
        "type": "t_array(t_uint256)50_storage"
      },
      {
        "astId": 24763,
        "contract": "contracts/queue/MocQueue.sol:MocQueue",
        "label": "stoppable",
        "offset": 0,
        "slot": "202",
        "type": "t_bool"
      },
      {
        "astId": 24765,
        "contract": "contracts/queue/MocQueue.sol:MocQueue",
        "label": "_paused",
        "offset": 1,
        "slot": "202",
        "type": "t_bool"
      },
      {
        "astId": 24767,
        "contract": "contracts/queue/MocQueue.sol:MocQueue",
        "label": "pauser",
        "offset": 2,
        "slot": "202",
        "type": "t_address"
      },
      {
        "astId": 24926,
        "contract": "contracts/queue/MocQueue.sol:MocQueue",
        "label": "__gap",
        "offset": 0,
        "slot": "203",
        "type": "t_array(t_uint256)50_storage"
      },
      {
        "astId": 24745,
        "contract": "contracts/queue/MocQueue.sol:MocQueue",
        "label": "__gap",
        "offset": 0,
        "slot": "253",
        "type": "t_array(t_uint256)50_storage"
      },
      {
        "astId": 3017,
        "contract": "contracts/queue/MocQueue.sol:MocQueue",
        "label": "__gap",
        "offset": 0,
        "slot": "303",
        "type": "t_array(t_uint256)50_storage"
      },
      {
        "astId": 3400,
        "contract": "contracts/queue/MocQueue.sol:MocQueue",
        "label": "__gap",
        "offset": 0,
        "slot": "353",
        "type": "t_array(t_uint256)50_storage"
      },
      {
        "astId": 184,
        "contract": "contracts/queue/MocQueue.sol:MocQueue",
        "label": "_roles",
        "offset": 0,
        "slot": "403",
        "type": "t_mapping(t_bytes32,t_struct(RoleData)179_storage)"
      },
      {
        "astId": 479,
        "contract": "contracts/queue/MocQueue.sol:MocQueue",
        "label": "__gap",
        "offset": 0,
        "slot": "404",
        "type": "t_array(t_uint256)49_storage"
      },
      {
        "astId": 30283,
        "contract": "contracts/queue/MocQueue.sol:MocQueue",
        "label": "__gap",
        "offset": 0,
        "slot": "453",
        "type": "t_array(t_uint256)50_storage"
      },
      {
        "astId": 29696,
        "contract": "contracts/queue/MocQueue.sol:MocQueue",
        "label": "tcMintExecFee",
        "offset": 0,
        "slot": "503",
        "type": "t_uint256"
      },
      {
        "astId": 29698,
        "contract": "contracts/queue/MocQueue.sol:MocQueue",
        "label": "tcRedeemExecFee",
        "offset": 0,
        "slot": "504",
        "type": "t_uint256"
      },
      {
        "astId": 29700,
        "contract": "contracts/queue/MocQueue.sol:MocQueue",
        "label": "tpMintExecFee",
        "offset": 0,
        "slot": "505",
        "type": "t_uint256"
      },
      {
        "astId": 29702,
        "contract": "contracts/queue/MocQueue.sol:MocQueue",
        "label": "tpRedeemExecFee",
        "offset": 0,
        "slot": "506",
        "type": "t_uint256"
      },
      {
        "astId": 29704,
        "contract": "contracts/queue/MocQueue.sol:MocQueue",
        "label": "swapTPforTPExecFee",
        "offset": 0,
        "slot": "507",
        "type": "t_uint256"
      },
      {
        "astId": 29706,
        "contract": "contracts/queue/MocQueue.sol:MocQueue",
        "label": "swapTPforTCExecFee",
        "offset": 0,
        "slot": "508",
        "type": "t_uint256"
      },
      {
        "astId": 29708,
        "contract": "contracts/queue/MocQueue.sol:MocQueue",
        "label": "swapTCforTPExecFee",
        "offset": 0,
        "slot": "509",
        "type": "t_uint256"
      },
      {
        "astId": 29710,
        "contract": "contracts/queue/MocQueue.sol:MocQueue",
        "label": "redeemTCandTPExecFee",
        "offset": 0,
        "slot": "510",
        "type": "t_uint256"
      },
      {
        "astId": 29712,
        "contract": "contracts/queue/MocQueue.sol:MocQueue",
        "label": "mintTCandTPExecFee",
        "offset": 0,
        "slot": "511",
        "type": "t_uint256"
      },
      {
        "astId": 29833,
        "contract": "contracts/queue/MocQueue.sol:MocQueue",
        "label": "__gap",
        "offset": 0,
        "slot": "512",
        "type": "t_array(t_uint256)50_storage"
      },
      {
        "astId": 1389,
        "contract": "contracts/queue/MocQueue.sol:MocQueue",
        "label": "_status",
        "offset": 0,
        "slot": "562",
        "type": "t_uint256"
      },
      {
        "astId": 1458,
        "contract": "contracts/queue/MocQueue.sol:MocQueue",
        "label": "__gap",
        "offset": 0,
        "slot": "563",
        "type": "t_array(t_uint256)49_storage"
      },
      {
        "astId": 27186,
        "contract": "contracts/queue/MocQueue.sol:MocQueue",
        "label": "mocCore",
        "offset": 0,
        "slot": "612",
        "type": "t_contract(MocCARC20Deferred)14070"
      },
      {
        "astId": 27188,
        "contract": "contracts/queue/MocQueue.sol:MocQueue",
        "label": "operIdCount",
        "offset": 0,
        "slot": "613",
        "type": "t_uint256"
      },
      {
        "astId": 27190,
        "contract": "contracts/queue/MocQueue.sol:MocQueue",
        "label": "firstOperId",
        "offset": 0,
        "slot": "614",
        "type": "t_uint256"
      },
      {
        "astId": 27195,
        "contract": "contracts/queue/MocQueue.sol:MocQueue",
        "label": "operationsMintTC",
        "offset": 0,
        "slot": "615",
        "type": "t_mapping(t_uint256,t_struct(MintTCParams)17039_storage)"
      },
      {
        "astId": 27200,
        "contract": "contracts/queue/MocQueue.sol:MocQueue",
        "label": "operationsMintTP",
        "offset": 0,
        "slot": "616",
        "type": "t_mapping(t_uint256,t_struct(MintTPParams)17306_storage)"
      },
      {
        "astId": 27205,
        "contract": "contracts/queue/MocQueue.sol:MocQueue",
        "label": "operationsRedeemTC",
        "offset": 0,
        "slot": "617",
        "type": "t_mapping(t_uint256,t_struct(RedeemTCParams)17171_storage)"
      },
      {
        "astId": 27210,
        "contract": "contracts/queue/MocQueue.sol:MocQueue",
        "label": "operationsRedeemTP",
        "offset": 0,
        "slot": "618",
        "type": "t_mapping(t_uint256,t_struct(RedeemTPParams)16019_storage)"
      },
      {
        "astId": 27215,
        "contract": "contracts/queue/MocQueue.sol:MocQueue",
        "label": "operationsMintTCandTP",
        "offset": 0,
        "slot": "619",
        "type": "t_mapping(t_uint256,t_struct(MintTCandTPParams)15944_storage)"
      },
      {
        "astId": 27220,
        "contract": "contracts/queue/MocQueue.sol:MocQueue",
        "label": "operationsRedeemTCandTP",
        "offset": 0,
        "slot": "620",
        "type": "t_mapping(t_uint256,t_struct(RedeemTCandTPParams)15959_storage)"
      },
      {
        "astId": 27225,
        "contract": "contracts/queue/MocQueue.sol:MocQueue",
        "label": "operationsSwapTCforTP",
        "offset": 0,
        "slot": "621",
        "type": "t_mapping(t_uint256,t_struct(SwapTCforTPParams)16006_storage)"
      },
      {
        "astId": 27230,
        "contract": "contracts/queue/MocQueue.sol:MocQueue",
        "label": "operationsSwapTPforTC",
        "offset": 0,
        "slot": "622",
        "type": "t_mapping(t_uint256,t_struct(SwapTPforTCParams)15991_storage)"
      },
      {
        "astId": 27235,
        "contract": "contracts/queue/MocQueue.sol:MocQueue",
        "label": "operationsSwapTPforTP",
        "offset": 0,
        "slot": "623",
        "type": "t_mapping(t_uint256,t_struct(SwapTPforTPParams)15976_storage)"
      },
      {
        "astId": 27251,
        "contract": "contracts/queue/MocQueue.sol:MocQueue",
        "label": "opersInfo",
        "offset": 0,
        "slot": "624",
        "type": "t_mapping(t_uint256,t_struct(OperInfo)27183_storage)"
      },
      {
        "astId": 27253,
        "contract": "contracts/queue/MocQueue.sol:MocQueue",
        "label": "minOperWaitingBlk",
        "offset": 0,
        "slot": "625",
        "type": "t_uint128"
      },
      {
        "astId": 27255,
        "contract": "contracts/queue/MocQueue.sol:MocQueue",
        "label": "maxOperPerBatch",
        "offset": 16,
        "slot": "625",
        "type": "t_uint128"
      },
      {
        "astId": 29659,
        "contract": "contracts/queue/MocQueue.sol:MocQueue",
        "label": "__gap",
        "offset": 0,
        "slot": "626",
        "type": "t_array(t_uint256)50_storage"
      }
    ],
    "types": {
      "t_address": {
        "encoding": "inplace",
        "label": "address",
        "numberOfBytes": "20"
      },
      "t_array(t_uint256)49_storage": {
        "base": "t_uint256",
        "encoding": "inplace",
        "label": "uint256[49]",
        "numberOfBytes": "1568"
      },
      "t_array(t_uint256)50_storage": {
        "base": "t_uint256",
        "encoding": "inplace",
        "label": "uint256[50]",
        "numberOfBytes": "1600"
      },
      "t_bool": {
        "encoding": "inplace",
        "label": "bool",
        "numberOfBytes": "1"
      },
      "t_bytes32": {
        "encoding": "inplace",
        "label": "bytes32",
        "numberOfBytes": "32"
      },
      "t_contract(IGovernor)25472": {
        "encoding": "inplace",
        "label": "contract IGovernor",
        "numberOfBytes": "20"
      },
      "t_contract(MocCARC20Deferred)14070": {
        "encoding": "inplace",
        "label": "contract MocCARC20Deferred",
        "numberOfBytes": "20"
      },
      "t_enum(OperType)27246": {
        "encoding": "inplace",
        "label": "enum MocQueue.OperType",
        "numberOfBytes": "1"
      },
      "t_mapping(t_address,t_bool)": {
        "encoding": "mapping",
        "key": "t_address",
        "label": "mapping(address => bool)",
        "numberOfBytes": "32",
        "value": "t_bool"
      },
      "t_mapping(t_bytes32,t_struct(RoleData)179_storage)": {
        "encoding": "mapping",
        "key": "t_bytes32",
        "label": "mapping(bytes32 => struct AccessControlUpgradeable.RoleData)",
        "numberOfBytes": "32",
        "value": "t_struct(RoleData)179_storage"
      },
      "t_mapping(t_uint256,t_struct(MintTCParams)17039_storage)": {
        "encoding": "mapping",
        "key": "t_uint256",
        "label": "mapping(uint256 => struct MocCore.MintTCParams)",
        "numberOfBytes": "32",
        "value": "t_struct(MintTCParams)17039_storage"
      },
      "t_mapping(t_uint256,t_struct(MintTCandTPParams)15944_storage)": {
        "encoding": "mapping",
        "key": "t_uint256",
        "label": "mapping(uint256 => struct MocCommons.MintTCandTPParams)",
        "numberOfBytes": "32",
        "value": "t_struct(MintTCandTPParams)15944_storage"
      },
      "t_mapping(t_uint256,t_struct(MintTPParams)17306_storage)": {
        "encoding": "mapping",
        "key": "t_uint256",
        "label": "mapping(uint256 => struct MocCore.MintTPParams)",
        "numberOfBytes": "32",
        "value": "t_struct(MintTPParams)17306_storage"
      },
      "t_mapping(t_uint256,t_struct(OperInfo)27183_storage)": {
        "encoding": "mapping",
        "key": "t_uint256",
        "label": "mapping(uint256 => struct MocQueue.OperInfo)",
        "numberOfBytes": "32",
        "value": "t_struct(OperInfo)27183_storage"
      },
      "t_mapping(t_uint256,t_struct(RedeemTCParams)17171_storage)": {
        "encoding": "mapping",
        "key": "t_uint256",
        "label": "mapping(uint256 => struct MocCore.RedeemTCParams)",
        "numberOfBytes": "32",
        "value": "t_struct(RedeemTCParams)17171_storage"
      },
      "t_mapping(t_uint256,t_struct(RedeemTCandTPParams)15959_storage)": {
        "encoding": "mapping",
        "key": "t_uint256",
        "label": "mapping(uint256 => struct MocCommons.RedeemTCandTPParams)",
        "numberOfBytes": "32",
        "value": "t_struct(RedeemTCandTPParams)15959_storage"
      },
      "t_mapping(t_uint256,t_struct(RedeemTPParams)16019_storage)": {
        "encoding": "mapping",
        "key": "t_uint256",
        "label": "mapping(uint256 => struct MocCommons.RedeemTPParams)",
        "numberOfBytes": "32",
        "value": "t_struct(RedeemTPParams)16019_storage"
      },
      "t_mapping(t_uint256,t_struct(SwapTCforTPParams)16006_storage)": {
        "encoding": "mapping",
        "key": "t_uint256",
        "label": "mapping(uint256 => struct MocCommons.SwapTCforTPParams)",
        "numberOfBytes": "32",
        "value": "t_struct(SwapTCforTPParams)16006_storage"
      },
      "t_mapping(t_uint256,t_struct(SwapTPforTCParams)15991_storage)": {
        "encoding": "mapping",
        "key": "t_uint256",
        "label": "mapping(uint256 => struct MocCommons.SwapTPforTCParams)",
        "numberOfBytes": "32",
        "value": "t_struct(SwapTPforTCParams)15991_storage"
      },
      "t_mapping(t_uint256,t_struct(SwapTPforTPParams)15976_storage)": {
        "encoding": "mapping",
        "key": "t_uint256",
        "label": "mapping(uint256 => struct MocCommons.SwapTPforTPParams)",
        "numberOfBytes": "32",
        "value": "t_struct(SwapTPforTPParams)15976_storage"
      },
      "t_struct(MintTCParams)17039_storage": {
        "encoding": "inplace",
        "label": "struct MocCore.MintTCParams",
        "members": [
          {
            "astId": 17030,
            "contract": "contracts/queue/MocQueue.sol:MocQueue",
            "label": "qTC",
            "offset": 0,
            "slot": "0",
            "type": "t_uint256"
          },
          {
            "astId": 17032,
            "contract": "contracts/queue/MocQueue.sol:MocQueue",
            "label": "qACmax",
            "offset": 0,
            "slot": "1",
            "type": "t_uint256"
          },
          {
            "astId": 17034,
            "contract": "contracts/queue/MocQueue.sol:MocQueue",
            "label": "sender",
            "offset": 0,
            "slot": "2",
            "type": "t_address"
          },
          {
            "astId": 17036,
            "contract": "contracts/queue/MocQueue.sol:MocQueue",
            "label": "recipient",
            "offset": 0,
            "slot": "3",
            "type": "t_address"
          },
          {
            "astId": 17038,
            "contract": "contracts/queue/MocQueue.sol:MocQueue",
            "label": "vendor",
            "offset": 0,
            "slot": "4",
            "type": "t_address"
          }
        ],
        "numberOfBytes": "160"
      },
      "t_struct(MintTCandTPParams)15944_storage": {
        "encoding": "inplace",
        "label": "struct MocCommons.MintTCandTPParams",
        "members": [
          {
            "astId": 15933,
            "contract": "contracts/queue/MocQueue.sol:MocQueue",
            "label": "tp",
            "offset": 0,
            "slot": "0",
            "type": "t_address"
          },
          {
            "astId": 15935,
            "contract": "contracts/queue/MocQueue.sol:MocQueue",
            "label": "qTP",
            "offset": 0,
            "slot": "1",
            "type": "t_uint256"
          },
          {
            "astId": 15937,
            "contract": "contracts/queue/MocQueue.sol:MocQueue",
            "label": "qACmax",
            "offset": 0,
            "slot": "2",
            "type": "t_uint256"
          },
          {
            "astId": 15939,
            "contract": "contracts/queue/MocQueue.sol:MocQueue",
            "label": "sender",
            "offset": 0,
            "slot": "3",
            "type": "t_address"
          },
          {
            "astId": 15941,
            "contract": "contracts/queue/MocQueue.sol:MocQueue",
            "label": "recipient",
            "offset": 0,
            "slot": "4",
            "type": "t_address"
          },
          {
            "astId": 15943,
            "contract": "contracts/queue/MocQueue.sol:MocQueue",
            "label": "vendor",
            "offset": 0,
            "slot": "5",
            "type": "t_address"
          }
        ],
        "numberOfBytes": "192"
      },
      "t_struct(MintTPParams)17306_storage": {
        "encoding": "inplace",
        "label": "struct MocCore.MintTPParams",
        "members": [
          {
            "astId": 17295,
            "contract": "contracts/queue/MocQueue.sol:MocQueue",
            "label": "tp",
            "offset": 0,
            "slot": "0",
            "type": "t_address"
          },
          {
            "astId": 17297,
            "contract": "contracts/queue/MocQueue.sol:MocQueue",
            "label": "qTP",
            "offset": 0,
            "slot": "1",
            "type": "t_uint256"
          },
          {
            "astId": 17299,
            "contract": "contracts/queue/MocQueue.sol:MocQueue",
            "label": "qACmax",
            "offset": 0,
            "slot": "2",
            "type": "t_uint256"
          },
          {
            "astId": 17301,
            "contract": "contracts/queue/MocQueue.sol:MocQueue",
            "label": "sender",
            "offset": 0,
            "slot": "3",
            "type": "t_address"
          },
          {
            "astId": 17303,
            "contract": "contracts/queue/MocQueue.sol:MocQueue",
            "label": "recipient",
            "offset": 0,
            "slot": "4",
            "type": "t_address"
          },
          {
            "astId": 17305,
            "contract": "contracts/queue/MocQueue.sol:MocQueue",
            "label": "vendor",
            "offset": 0,
            "slot": "5",
            "type": "t_address"
          }
        ],
        "numberOfBytes": "192"
      },
      "t_struct(OperInfo)27183_storage": {
        "encoding": "inplace",
        "label": "struct MocQueue.OperInfo",
        "members": [
          {
            "astId": 27180,
            "contract": "contracts/queue/MocQueue.sol:MocQueue",
            "label": "operType",
            "offset": 0,
            "slot": "0",
            "type": "t_enum(OperType)27246"
          },
          {
            "astId": 27182,
            "contract": "contracts/queue/MocQueue.sol:MocQueue",
            "label": "queuedBlk",
            "offset": 1,
            "slot": "0",
            "type": "t_uint248"
          }
        ],
        "numberOfBytes": "32"
      },
      "t_struct(RedeemTCParams)17171_storage": {
        "encoding": "inplace",
        "label": "struct MocCore.RedeemTCParams",
        "members": [
          {
            "astId": 17162,
            "contract": "contracts/queue/MocQueue.sol:MocQueue",
            "label": "qTC",
            "offset": 0,
            "slot": "0",
            "type": "t_uint256"
          },
          {
            "astId": 17164,
            "contract": "contracts/queue/MocQueue.sol:MocQueue",
            "label": "qACmin",
            "offset": 0,
            "slot": "1",
            "type": "t_uint256"
          },
          {
            "astId": 17166,
            "contract": "contracts/queue/MocQueue.sol:MocQueue",
            "label": "sender",
            "offset": 0,
            "slot": "2",
            "type": "t_address"
          },
          {
            "astId": 17168,
            "contract": "contracts/queue/MocQueue.sol:MocQueue",
            "label": "recipient",
            "offset": 0,
            "slot": "3",
            "type": "t_address"
          },
          {
            "astId": 17170,
            "contract": "contracts/queue/MocQueue.sol:MocQueue",
            "label": "vendor",
            "offset": 0,
            "slot": "4",
            "type": "t_address"
          }
        ],
        "numberOfBytes": "160"
      },
      "t_struct(RedeemTCandTPParams)15959_storage": {
        "encoding": "inplace",
        "label": "struct MocCommons.RedeemTCandTPParams",
        "members": [
          {
            "astId": 15946,
            "contract": "contracts/queue/MocQueue.sol:MocQueue",
            "label": "tp",
            "offset": 0,
            "slot": "0",
            "type": "t_address"
          },
          {
            "astId": 15948,
            "contract": "contracts/queue/MocQueue.sol:MocQueue",
            "label": "qTC",
            "offset": 0,
            "slot": "1",
            "type": "t_uint256"
          },
          {
            "astId": 15950,
            "contract": "contracts/queue/MocQueue.sol:MocQueue",
            "label": "qTP",
            "offset": 0,
            "slot": "2",
            "type": "t_uint256"
          },
          {
            "astId": 15952,
            "contract": "contracts/queue/MocQueue.sol:MocQueue",
            "label": "qACmin",
            "offset": 0,
            "slot": "3",
            "type": "t_uint256"
          },
          {
            "astId": 15954,
            "contract": "contracts/queue/MocQueue.sol:MocQueue",
            "label": "sender",
            "offset": 0,
            "slot": "4",
            "type": "t_address"
          },
          {
            "astId": 15956,
            "contract": "contracts/queue/MocQueue.sol:MocQueue",
            "label": "recipient",
            "offset": 0,
            "slot": "5",
            "type": "t_address"
          },
          {
            "astId": 15958,
            "contract": "contracts/queue/MocQueue.sol:MocQueue",
            "label": "vendor",
            "offset": 0,
            "slot": "6",
            "type": "t_address"
          }
        ],
        "numberOfBytes": "224"
      },
      "t_struct(RedeemTPParams)16019_storage": {
        "encoding": "inplace",
        "label": "struct MocCommons.RedeemTPParams",
        "members": [
          {
            "astId": 16008,
            "contract": "contracts/queue/MocQueue.sol:MocQueue",
            "label": "tp",
            "offset": 0,
            "slot": "0",
            "type": "t_address"
          },
          {
            "astId": 16010,
            "contract": "contracts/queue/MocQueue.sol:MocQueue",
            "label": "qTP",
            "offset": 0,
            "slot": "1",
            "type": "t_uint256"
          },
          {
            "astId": 16012,
            "contract": "contracts/queue/MocQueue.sol:MocQueue",
            "label": "qACmin",
            "offset": 0,
            "slot": "2",
            "type": "t_uint256"
          },
          {
            "astId": 16014,
            "contract": "contracts/queue/MocQueue.sol:MocQueue",
            "label": "sender",
            "offset": 0,
            "slot": "3",
            "type": "t_address"
          },
          {
            "astId": 16016,
            "contract": "contracts/queue/MocQueue.sol:MocQueue",
            "label": "recipient",
            "offset": 0,
            "slot": "4",
            "type": "t_address"
          },
          {
            "astId": 16018,
            "contract": "contracts/queue/MocQueue.sol:MocQueue",
            "label": "vendor",
            "offset": 0,
            "slot": "5",
            "type": "t_address"
          }
        ],
        "numberOfBytes": "192"
      },
      "t_struct(RoleData)179_storage": {
        "encoding": "inplace",
        "label": "struct AccessControlUpgradeable.RoleData",
        "members": [
          {
            "astId": 176,
            "contract": "contracts/queue/MocQueue.sol:MocQueue",
            "label": "members",
            "offset": 0,
            "slot": "0",
            "type": "t_mapping(t_address,t_bool)"
          },
          {
            "astId": 178,
            "contract": "contracts/queue/MocQueue.sol:MocQueue",
            "label": "adminRole",
            "offset": 0,
            "slot": "1",
            "type": "t_bytes32"
          }
        ],
        "numberOfBytes": "64"
      },
      "t_struct(SwapTCforTPParams)16006_storage": {
        "encoding": "inplace",
        "label": "struct MocCommons.SwapTCforTPParams",
        "members": [
          {
            "astId": 15993,
            "contract": "contracts/queue/MocQueue.sol:MocQueue",
            "label": "tp",
            "offset": 0,
            "slot": "0",
            "type": "t_address"
          },
          {
            "astId": 15995,
            "contract": "contracts/queue/MocQueue.sol:MocQueue",
            "label": "qTC",
            "offset": 0,
            "slot": "1",
            "type": "t_uint256"
          },
          {
            "astId": 15997,
            "contract": "contracts/queue/MocQueue.sol:MocQueue",
            "label": "qTPmin",
            "offset": 0,
            "slot": "2",
            "type": "t_uint256"
          },
          {
            "astId": 15999,
            "contract": "contracts/queue/MocQueue.sol:MocQueue",
            "label": "qACmax",
            "offset": 0,
            "slot": "3",
            "type": "t_uint256"
          },
          {
            "astId": 16001,
            "contract": "contracts/queue/MocQueue.sol:MocQueue",
            "label": "sender",
            "offset": 0,
            "slot": "4",
            "type": "t_address"
          },
          {
            "astId": 16003,
            "contract": "contracts/queue/MocQueue.sol:MocQueue",
            "label": "recipient",
            "offset": 0,
            "slot": "5",
            "type": "t_address"
          },
          {
            "astId": 16005,
            "contract": "contracts/queue/MocQueue.sol:MocQueue",
            "label": "vendor",
            "offset": 0,
            "slot": "6",
            "type": "t_address"
          }
        ],
        "numberOfBytes": "224"
      },
      "t_struct(SwapTPforTCParams)15991_storage": {
        "encoding": "inplace",
        "label": "struct MocCommons.SwapTPforTCParams",
        "members": [
          {
            "astId": 15978,
            "contract": "contracts/queue/MocQueue.sol:MocQueue",
            "label": "tp",
            "offset": 0,
            "slot": "0",
            "type": "t_address"
          },
          {
            "astId": 15980,
            "contract": "contracts/queue/MocQueue.sol:MocQueue",
            "label": "qTP",
            "offset": 0,
            "slot": "1",
            "type": "t_uint256"
          },
          {
            "astId": 15982,
            "contract": "contracts/queue/MocQueue.sol:MocQueue",
            "label": "qTCmin",
            "offset": 0,
            "slot": "2",
            "type": "t_uint256"
          },
          {
            "astId": 15984,
            "contract": "contracts/queue/MocQueue.sol:MocQueue",
            "label": "qACmax",
            "offset": 0,
            "slot": "3",
            "type": "t_uint256"
          },
          {
            "astId": 15986,
            "contract": "contracts/queue/MocQueue.sol:MocQueue",
            "label": "sender",
            "offset": 0,
            "slot": "4",
            "type": "t_address"
          },
          {
            "astId": 15988,
            "contract": "contracts/queue/MocQueue.sol:MocQueue",
            "label": "recipient",
            "offset": 0,
            "slot": "5",
            "type": "t_address"
          },
          {
            "astId": 15990,
            "contract": "contracts/queue/MocQueue.sol:MocQueue",
            "label": "vendor",
            "offset": 0,
            "slot": "6",
            "type": "t_address"
          }
        ],
        "numberOfBytes": "224"
      },
      "t_struct(SwapTPforTPParams)15976_storage": {
        "encoding": "inplace",
        "label": "struct MocCommons.SwapTPforTPParams",
        "members": [
          {
            "astId": 15961,
            "contract": "contracts/queue/MocQueue.sol:MocQueue",
            "label": "tpFrom",
            "offset": 0,
            "slot": "0",
            "type": "t_address"
          },
          {
            "astId": 15963,
            "contract": "contracts/queue/MocQueue.sol:MocQueue",
            "label": "tpTo",
            "offset": 0,
            "slot": "1",
            "type": "t_address"
          },
          {
            "astId": 15965,
            "contract": "contracts/queue/MocQueue.sol:MocQueue",
            "label": "qTP",
            "offset": 0,
            "slot": "2",
            "type": "t_uint256"
          },
          {
            "astId": 15967,
            "contract": "contracts/queue/MocQueue.sol:MocQueue",
            "label": "qTPmin",
            "offset": 0,
            "slot": "3",
            "type": "t_uint256"
          },
          {
            "astId": 15969,
            "contract": "contracts/queue/MocQueue.sol:MocQueue",
            "label": "qACmax",
            "offset": 0,
            "slot": "4",
            "type": "t_uint256"
          },
          {
            "astId": 15971,
            "contract": "contracts/queue/MocQueue.sol:MocQueue",
            "label": "sender",
            "offset": 0,
            "slot": "5",
            "type": "t_address"
          },
          {
            "astId": 15973,
            "contract": "contracts/queue/MocQueue.sol:MocQueue",
            "label": "recipient",
            "offset": 0,
            "slot": "6",
            "type": "t_address"
          },
          {
            "astId": 15975,
            "contract": "contracts/queue/MocQueue.sol:MocQueue",
            "label": "vendor",
            "offset": 0,
            "slot": "7",
            "type": "t_address"
          }
        ],
        "numberOfBytes": "256"
      },
      "t_uint128": {
        "encoding": "inplace",
        "label": "uint128",
        "numberOfBytes": "16"
      },
      "t_uint248": {
        "encoding": "inplace",
        "label": "uint248",
        "numberOfBytes": "31"
      },
      "t_uint256": {
        "encoding": "inplace",
        "label": "uint256",
        "numberOfBytes": "32"
      },
      "t_uint8": {
        "encoding": "inplace",
        "label": "uint8",
        "numberOfBytes": "1"
      }
    }
  },
  "userdoc": {
    "kind": "user",
    "methods": {
      "changeGovernor(address)": {
        "notice": "Change the contract's governor. Should be called through the old governance system"
      },
      "execute(address)": {
        "notice": "registered executors can process Operations in the queue"
      },
      "governor()": {
        "notice": "The address of the contract which governs this one"
      },
      "isEmpty()": {
        "notice": "true if the queue is empty"
      },
      "makeStoppable()": {
        "notice": "Switches ON the stoppability of the contract; if the contract was paused before making it unstoppable it will be paused again after calling this function"
      },
      "makeUnstoppable()": {
        "notice": "Switches OFF the stoppability of the contract; if the contract was paused it will no longer be so"
      },
      "pause()": {
        "notice": "Called by the owner to pause, triggers stopped state"
      },
      "paused()": {
        "notice": "Returns true if paused"
      },
      "queueMintTC((uint256,uint256,address,address,address))": {
        "notice": "registered enqueuer can queue an Operations"
      },
      "queueMintTCandTP((address,uint256,uint256,address,address,address))": {
        "notice": "Registered enqueuer can queue an Operations"
      },
      "queueMintTP((address,uint256,uint256,address,address,address))": {
        "notice": "registered enqueuer can queue an Operations"
      },
      "queueRedeemTC((uint256,uint256,address,address,address))": {
        "notice": "registered enqueuer can queue an Operations"
      },
      "queueRedeemTCandTP((address,uint256,uint256,uint256,address,address,address))": {
        "notice": "Registered enqueuer can queue an Operations"
      },
      "queueRedeemTP((address,uint256,uint256,address,address,address))": {
        "notice": "Registered enqueuer can queue an Operations"
      },
      "queueSwapTCforTP((address,uint256,uint256,uint256,address,address,address))": {
        "notice": "Registered enqueuer can queue an Operations"
      },
      "queueSwapTPforTC((address,uint256,uint256,uint256,address,address,address))": {
        "notice": "Registered enqueuer can queue an Operations"
      },
      "queueSwapTPforTP((address,address,uint256,uint256,uint256,address,address,address))": {
        "notice": "Registered enqueuer can queue an Operations"
      },
      "readyToExecute()": {
        "notice": "true if the queue has at least one Operation ready to be executed"
      },
      "registerBucket(address)": {
        "notice": "registers the mocCore bucket that would operate over this queue"
      },
      "setMaxOperPerBatch(uint128)": {
        "notice": "sets Moc Queue maximum amount of operations per execution batch"
      },
      "setMinOperWaitingBlk(uint128)": {
        "notice": "sets Moc Queue minimum operation waiting blocks"
      },
      "setPauser(address)": {
        "notice": "Changes the address which is enable to pause this contract"
      },
      "unpause()": {
        "notice": "Called by the owner to unpause, returns to normal state"
      }
    },
    "version": 1
  }
}