{
  "_format": "hh-sol-artifact-1",
  "contractName": "MocQueue",
  "sourceName": "moc-main/contracts/queue/MocQueue.sol",
  "abi": [
    {
      "inputs": [],
      "name": "InvalidAddress",
      "type": "error"
    },
    {
      "inputs": [],
      "name": "InvalidValue",
      "type": "error"
    },
    {
      "inputs": [],
      "name": "NotAuthorizedChanger",
      "type": "error"
    },
    {
      "inputs": [],
      "name": "NotWhenPaused",
      "type": "error"
    },
    {
      "inputs": [],
      "name": "OnlyPauser",
      "type": "error"
    },
    {
      "inputs": [],
      "name": "OnlyWhilePaused",
      "type": "error"
    },
    {
      "inputs": [],
      "name": "Unstoppable",
      "type": "error"
    },
    {
      "anonymous": false,
      "inputs": [
        {
          "indexed": false,
          "internalType": "address",
          "name": "previousAdmin",
          "type": "address"
        },
        {
          "indexed": false,
          "internalType": "address",
          "name": "newAdmin",
          "type": "address"
        }
      ],
      "name": "AdminChanged",
      "type": "event"
    },
    {
      "anonymous": false,
      "inputs": [
        {
          "indexed": true,
          "internalType": "address",
          "name": "beacon",
          "type": "address"
        }
      ],
      "name": "BeaconUpgraded",
      "type": "event"
    },
    {
      "anonymous": false,
      "inputs": [
        {
          "indexed": false,
          "internalType": "uint8",
          "name": "version",
          "type": "uint8"
        }
      ],
      "name": "Initialized",
      "type": "event"
    },
    {
      "anonymous": false,
      "inputs": [
        {
          "indexed": false,
          "internalType": "uint256",
          "name": "operId_",
          "type": "uint256"
        },
        {
          "indexed": false,
          "internalType": "bytes4",
          "name": "errorCode_",
          "type": "bytes4"
        },
        {
          "indexed": false,
          "internalType": "string",
          "name": "msg_",
          "type": "string"
        }
      ],
      "name": "OperationError",
      "type": "event"
    },
    {
      "anonymous": false,
      "inputs": [
        {
          "indexed": true,
          "internalType": "address",
          "name": "bucket_",
          "type": "address"
        },
        {
          "indexed": false,
          "internalType": "uint256",
          "name": "operId_",
          "type": "uint256"
        },
        {
          "indexed": false,
          "internalType": "enum MocQueue.OperType",
          "name": "operType_",
          "type": "uint8"
        }
      ],
      "name": "OperationQueued",
      "type": "event"
    },
    {
      "anonymous": false,
      "inputs": [
        {
          "indexed": false,
          "internalType": "address",
          "name": "account",
          "type": "address"
        }
      ],
      "name": "Paused",
      "type": "event"
    },
    {
      "anonymous": false,
      "inputs": [
        {
          "indexed": true,
          "internalType": "bytes32",
          "name": "role",
          "type": "bytes32"
        },
        {
          "indexed": true,
          "internalType": "bytes32",
          "name": "previousAdminRole",
          "type": "bytes32"
        },
        {
          "indexed": true,
          "internalType": "bytes32",
          "name": "newAdminRole",
          "type": "bytes32"
        }
      ],
      "name": "RoleAdminChanged",
      "type": "event"
    },
    {
      "anonymous": false,
      "inputs": [
        {
          "indexed": true,
          "internalType": "bytes32",
          "name": "role",
          "type": "bytes32"
        },
        {
          "indexed": true,
          "internalType": "address",
          "name": "account",
          "type": "address"
        },
        {
          "indexed": true,
          "internalType": "address",
          "name": "sender",
          "type": "address"
        }
      ],
      "name": "RoleGranted",
      "type": "event"
    },
    {
      "anonymous": false,
      "inputs": [
        {
          "indexed": true,
          "internalType": "bytes32",
          "name": "role",
          "type": "bytes32"
        },
        {
          "indexed": true,
          "internalType": "address",
          "name": "account",
          "type": "address"
        },
        {
          "indexed": true,
          "internalType": "address",
          "name": "sender",
          "type": "address"
        }
      ],
      "name": "RoleRevoked",
      "type": "event"
    },
    {
      "anonymous": false,
      "inputs": [
        {
          "indexed": true,
          "internalType": "address",
          "name": "sender_",
          "type": "address"
        },
        {
          "indexed": true,
          "internalType": "address",
          "name": "recipient_",
          "type": "address"
        },
        {
          "indexed": false,
          "internalType": "uint256",
          "name": "qTC_",
          "type": "uint256"
        },
        {
          "indexed": false,
          "internalType": "uint256",
          "name": "qAC_",
          "type": "uint256"
        },
        {
          "indexed": false,
          "internalType": "uint256",
          "name": "qACfee_",
          "type": "uint256"
        },
        {
          "indexed": false,
          "internalType": "uint256",
          "name": "qFeeToken_",
          "type": "uint256"
        },
        {
          "indexed": false,
          "internalType": "uint256",
          "name": "qACVendorMarkup_",
          "type": "uint256"
        },
        {
          "indexed": false,
          "internalType": "uint256",
          "name": "qFeeTokenVendorMarkup_",
          "type": "uint256"
        },
        {
          "indexed": false,
          "internalType": "address",
          "name": "vendor_",
          "type": "address"
        },
        {
          "indexed": false,
          "internalType": "uint256",
          "name": "operId_",
          "type": "uint256"
        }
      ],
      "name": "TCMinted",
      "type": "event"
    },
    {
      "anonymous": false,
      "inputs": [
        {
          "indexed": true,
          "internalType": "address",
          "name": "sender_",
          "type": "address"
        },
        {
          "indexed": true,
          "internalType": "address",
          "name": "recipient_",
          "type": "address"
        },
        {
          "indexed": false,
          "internalType": "uint256",
          "name": "qTC_",
          "type": "uint256"
        },
        {
          "indexed": false,
          "internalType": "uint256",
          "name": "qAC_",
          "type": "uint256"
        },
        {
          "indexed": false,
          "internalType": "uint256",
          "name": "qACfee_",
          "type": "uint256"
        },
        {
          "indexed": false,
          "internalType": "uint256",
          "name": "qFeeToken_",
          "type": "uint256"
        },
        {
          "indexed": false,
          "internalType": "uint256",
          "name": "qACVendorMarkup_",
          "type": "uint256"
        },
        {
          "indexed": false,
          "internalType": "uint256",
          "name": "qFeeTokenVendorMarkup_",
          "type": "uint256"
        },
        {
          "indexed": false,
          "internalType": "address",
          "name": "vendor_",
          "type": "address"
        },
        {
          "indexed": false,
          "internalType": "uint256",
          "name": "operId_",
          "type": "uint256"
        }
      ],
      "name": "TCRedeemed",
      "type": "event"
    },
    {
      "anonymous": false,
      "inputs": [
        {
          "indexed": true,
          "internalType": "address",
          "name": "tp_",
          "type": "address"
        },
        {
          "indexed": true,
          "internalType": "address",
          "name": "sender_",
          "type": "address"
        },
        {
          "indexed": true,
          "internalType": "address",
          "name": "recipient_",
          "type": "address"
        },
        {
          "indexed": false,
          "internalType": "uint256",
          "name": "qTC_",
          "type": "uint256"
        },
        {
          "indexed": false,
          "internalType": "uint256",
          "name": "qTP_",
          "type": "uint256"
        },
        {
          "indexed": false,
          "internalType": "uint256",
          "name": "qACfee_",
          "type": "uint256"
        },
        {
          "indexed": false,
          "internalType": "uint256",
          "name": "qFeeToken_",
          "type": "uint256"
        },
        {
          "indexed": false,
          "internalType": "uint256",
          "name": "qACVendorMarkup_",
          "type": "uint256"
        },
        {
          "indexed": false,
          "internalType": "uint256",
          "name": "qFeeTokenVendorMarkup_",
          "type": "uint256"
        },
        {
          "indexed": false,
          "internalType": "address",
          "name": "vendor_",
          "type": "address"
        },
        {
          "indexed": false,
          "internalType": "uint256",
          "name": "operId_",
          "type": "uint256"
        }
      ],
      "name": "TCSwappedForTP",
      "type": "event"
    },
    {
      "anonymous": false,
      "inputs": [
        {
          "indexed": true,
          "internalType": "address",
          "name": "tp_",
          "type": "address"
        },
        {
          "indexed": true,
          "internalType": "address",
          "name": "sender_",
          "type": "address"
        },
        {
          "indexed": true,
          "internalType": "address",
          "name": "recipient_",
          "type": "address"
        },
        {
          "indexed": false,
          "internalType": "uint256",
          "name": "qTC_",
          "type": "uint256"
        },
        {
          "indexed": false,
          "internalType": "uint256",
          "name": "qTP_",
          "type": "uint256"
        },
        {
          "indexed": false,
          "internalType": "uint256",
          "name": "qAC_",
          "type": "uint256"
        },
        {
          "indexed": false,
          "internalType": "uint256",
          "name": "qACfee_",
          "type": "uint256"
        },
        {
          "indexed": false,
          "internalType": "uint256",
          "name": "qFeeToken_",
          "type": "uint256"
        },
        {
          "indexed": false,
          "internalType": "uint256",
          "name": "qACVendorMarkup_",
          "type": "uint256"
        },
        {
          "indexed": false,
          "internalType": "uint256",
          "name": "qFeeTokenVendorMarkup_",
          "type": "uint256"
        },
        {
          "indexed": false,
          "internalType": "address",
          "name": "vendor_",
          "type": "address"
        },
        {
          "indexed": false,
          "internalType": "uint256",
          "name": "operId_",
          "type": "uint256"
        }
      ],
      "name": "TCandTPMinted",
      "type": "event"
    },
    {
      "anonymous": false,
      "inputs": [
        {
          "indexed": true,
          "internalType": "address",
          "name": "tp_",
          "type": "address"
        },
        {
          "indexed": true,
          "internalType": "address",
          "name": "sender_",
          "type": "address"
        },
        {
          "indexed": true,
          "internalType": "address",
          "name": "recipient_",
          "type": "address"
        },
        {
          "indexed": false,
          "internalType": "uint256",
          "name": "qTC_",
          "type": "uint256"
        },
        {
          "indexed": false,
          "internalType": "uint256",
          "name": "qTP_",
          "type": "uint256"
        },
        {
          "indexed": false,
          "internalType": "uint256",
          "name": "qAC_",
          "type": "uint256"
        },
        {
          "indexed": false,
          "internalType": "uint256",
          "name": "qACfee_",
          "type": "uint256"
        },
        {
          "indexed": false,
          "internalType": "uint256",
          "name": "qFeeToken_",
          "type": "uint256"
        },
        {
          "indexed": false,
          "internalType": "uint256",
          "name": "qACVendorMarkup_",
          "type": "uint256"
        },
        {
          "indexed": false,
          "internalType": "uint256",
          "name": "qFeeTokenVendorMarkup_",
          "type": "uint256"
        },
        {
          "indexed": false,
          "internalType": "address",
          "name": "vendor_",
          "type": "address"
        },
        {
          "indexed": false,
          "internalType": "uint256",
          "name": "operId_",
          "type": "uint256"
        }
      ],
      "name": "TCandTPRedeemed",
      "type": "event"
    },
    {
      "anonymous": false,
      "inputs": [
        {
          "indexed": true,
          "internalType": "address",
          "name": "tp",
          "type": "address"
        },
        {
          "indexed": true,
          "internalType": "address",
          "name": "sender_",
          "type": "address"
        },
        {
          "indexed": true,
          "internalType": "address",
          "name": "recipient_",
          "type": "address"
        },
        {
          "indexed": false,
          "internalType": "uint256",
          "name": "qTP_",
          "type": "uint256"
        },
        {
          "indexed": false,
          "internalType": "uint256",
          "name": "qAC_",
          "type": "uint256"
        },
        {
          "indexed": false,
          "internalType": "uint256",
          "name": "qACfee_",
          "type": "uint256"
        },
        {
          "indexed": false,
          "internalType": "uint256",
          "name": "qFeeToken_",
          "type": "uint256"
        },
        {
          "indexed": false,
          "internalType": "uint256",
          "name": "qACVendorMarkup_",
          "type": "uint256"
        },
        {
          "indexed": false,
          "internalType": "uint256",
          "name": "qFeeTokenVendorMarkup_",
          "type": "uint256"
        },
        {
          "indexed": false,
          "internalType": "address",
          "name": "vendor_",
          "type": "address"
        },
        {
          "indexed": false,
          "internalType": "uint256",
          "name": "operId_",
          "type": "uint256"
        }
      ],
      "name": "TPMinted",
      "type": "event"
    },
    {
      "anonymous": false,
      "inputs": [
        {
          "indexed": true,
          "internalType": "address",
          "name": "tp_",
          "type": "address"
        },
        {
          "indexed": true,
          "internalType": "address",
          "name": "sender_",
          "type": "address"
        },
        {
          "indexed": true,
          "internalType": "address",
          "name": "recipient_",
          "type": "address"
        },
        {
          "indexed": false,
          "internalType": "uint256",
          "name": "qTP_",
          "type": "uint256"
        },
        {
          "indexed": false,
          "internalType": "uint256",
          "name": "qAC_",
          "type": "uint256"
        },
        {
          "indexed": false,
          "internalType": "uint256",
          "name": "qACfee_",
          "type": "uint256"
        },
        {
          "indexed": false,
          "internalType": "uint256",
          "name": "qFeeToken_",
          "type": "uint256"
        },
        {
          "indexed": false,
          "internalType": "uint256",
          "name": "qACVendorMarkup_",
          "type": "uint256"
        },
        {
          "indexed": false,
          "internalType": "uint256",
          "name": "qFeeTokenVendorMarkup_",
          "type": "uint256"
        },
        {
          "indexed": false,
          "internalType": "address",
          "name": "vendor_",
          "type": "address"
        },
        {
          "indexed": false,
          "internalType": "uint256",
          "name": "operId_",
          "type": "uint256"
        }
      ],
      "name": "TPRedeemed",
      "type": "event"
    },
    {
      "anonymous": false,
      "inputs": [
        {
          "indexed": true,
          "internalType": "address",
          "name": "tp_",
          "type": "address"
        },
        {
          "indexed": true,
          "internalType": "address",
          "name": "sender_",
          "type": "address"
        },
        {
          "indexed": true,
          "internalType": "address",
          "name": "recipient_",
          "type": "address"
        },
        {
          "indexed": false,
          "internalType": "uint256",
          "name": "qTP_",
          "type": "uint256"
        },
        {
          "indexed": false,
          "internalType": "uint256",
          "name": "qTC_",
          "type": "uint256"
        },
        {
          "indexed": false,
          "internalType": "uint256",
          "name": "qACfee_",
          "type": "uint256"
        },
        {
          "indexed": false,
          "internalType": "uint256",
          "name": "qFeeToken_",
          "type": "uint256"
        },
        {
          "indexed": false,
          "internalType": "uint256",
          "name": "qACVendorMarkup_",
          "type": "uint256"
        },
        {
          "indexed": false,
          "internalType": "uint256",
          "name": "qFeeTokenVendorMarkup_",
          "type": "uint256"
        },
        {
          "indexed": false,
          "internalType": "address",
          "name": "vendor_",
          "type": "address"
        },
        {
          "indexed": false,
          "internalType": "uint256",
          "name": "operId_",
          "type": "uint256"
        }
      ],
      "name": "TPSwappedForTC",
      "type": "event"
    },
    {
      "anonymous": false,
      "inputs": [
        {
          "indexed": true,
          "internalType": "address",
          "name": "tpFrom_",
          "type": "address"
        },
        {
          "indexed": false,
          "internalType": "address",
          "name": "tpTo_",
          "type": "address"
        },
        {
          "indexed": true,
          "internalType": "address",
          "name": "sender_",
          "type": "address"
        },
        {
          "indexed": true,
          "internalType": "address",
          "name": "recipient_",
          "type": "address"
        },
        {
          "indexed": false,
          "internalType": "uint256",
          "name": "qTPfrom_",
          "type": "uint256"
        },
        {
          "indexed": false,
          "internalType": "uint256",
          "name": "qTPto_",
          "type": "uint256"
        },
        {
          "indexed": false,
          "internalType": "uint256",
          "name": "qACfee_",
          "type": "uint256"
        },
        {
          "indexed": false,
          "internalType": "uint256",
          "name": "qFeeToken_",
          "type": "uint256"
        },
        {
          "indexed": false,
          "internalType": "uint256",
          "name": "qACVendorMarkup_",
          "type": "uint256"
        },
        {
          "indexed": false,
          "internalType": "uint256",
          "name": "qFeeTokenVendorMarkup_",
          "type": "uint256"
        },
        {
          "indexed": false,
          "internalType": "address",
          "name": "vendor_",
          "type": "address"
        },
        {
          "indexed": false,
          "internalType": "uint256",
          "name": "operId_",
          "type": "uint256"
        }
      ],
      "name": "TPSwappedForTP",
      "type": "event"
    },
    {
      "anonymous": false,
      "inputs": [
        {
          "indexed": false,
          "internalType": "uint256",
          "name": "operId_",
          "type": "uint256"
        },
        {
          "indexed": false,
          "internalType": "bytes",
          "name": "reason_",
          "type": "bytes"
        }
      ],
      "name": "UnhandledError",
      "type": "event"
    },
    {
      "anonymous": false,
      "inputs": [
        {
          "indexed": false,
          "internalType": "address",
          "name": "account",
          "type": "address"
        }
      ],
      "name": "Unpaused",
      "type": "event"
    },
    {
      "anonymous": false,
      "inputs": [
        {
          "indexed": true,
          "internalType": "address",
          "name": "implementation",
          "type": "address"
        }
      ],
      "name": "Upgraded",
      "type": "event"
    },
    {
      "inputs": [],
      "name": "DEFAULT_ADMIN_ROLE",
      "outputs": [
        {
          "internalType": "bytes32",
          "name": "",
          "type": "bytes32"
        }
      ],
      "stateMutability": "view",
      "type": "function"
    },
    {
      "inputs": [
        {
          "internalType": "contract IGovernor",
          "name": "newGovernor_",
          "type": "address"
        }
      ],
      "name": "changeGovernor",
      "outputs": [],
      "stateMutability": "nonpayable",
      "type": "function"
    },
    {
      "inputs": [
        {
          "internalType": "uint256",
          "name": "operId_",
          "type": "uint256"
        }
      ],
      "name": "execute",
      "outputs": [],
      "stateMutability": "nonpayable",
      "type": "function"
    },
    {
      "inputs": [
        {
          "internalType": "bytes32",
          "name": "role",
          "type": "bytes32"
        }
      ],
      "name": "getRoleAdmin",
      "outputs": [
        {
          "internalType": "bytes32",
          "name": "",
          "type": "bytes32"
        }
      ],
      "stateMutability": "view",
      "type": "function"
    },
    {
      "inputs": [],
      "name": "governor",
      "outputs": [
        {
          "internalType": "contract IGovernor",
          "name": "",
          "type": "address"
        }
      ],
      "stateMutability": "view",
      "type": "function"
    },
    {
      "inputs": [
        {
          "internalType": "bytes32",
          "name": "role",
          "type": "bytes32"
        },
        {
          "internalType": "address",
          "name": "account",
          "type": "address"
        }
      ],
      "name": "grantRole",
      "outputs": [],
      "stateMutability": "nonpayable",
      "type": "function"
    },
    {
      "inputs": [
        {
          "internalType": "bytes32",
          "name": "role",
          "type": "bytes32"
        },
        {
          "internalType": "address",
          "name": "account",
          "type": "address"
        }
      ],
      "name": "hasRole",
      "outputs": [
        {
          "internalType": "bool",
          "name": "",
          "type": "bool"
        }
      ],
      "stateMutability": "view",
      "type": "function"
    },
    {
      "inputs": [
        {
          "internalType": "address",
          "name": "governor_",
          "type": "address"
        },
        {
          "internalType": "address",
          "name": "pauser_",
          "type": "address"
        }
      ],
      "name": "initialize",
      "outputs": [],
      "stateMutability": "nonpayable",
      "type": "function"
    },
    {
      "inputs": [],
      "name": "makeStoppable",
      "outputs": [],
      "stateMutability": "nonpayable",
      "type": "function"
    },
    {
      "inputs": [],
      "name": "makeUnstoppable",
      "outputs": [],
      "stateMutability": "nonpayable",
      "type": "function"
    },
    {
      "inputs": [],
      "name": "mocCore",
      "outputs": [
        {
          "internalType": "contract MocCARC20Deferred",
          "name": "",
          "type": "address"
        }
      ],
      "stateMutability": "view",
      "type": "function"
    },
    {
      "inputs": [],
      "name": "operIdCount",
      "outputs": [
        {
          "internalType": "uint256",
          "name": "",
          "type": "uint256"
        }
      ],
      "stateMutability": "view",
      "type": "function"
    },
    {
      "inputs": [
        {
          "internalType": "uint256",
          "name": "",
          "type": "uint256"
        }
      ],
      "name": "operTypes",
      "outputs": [
        {
          "internalType": "enum MocQueue.OperType",
          "name": "",
          "type": "uint8"
        }
      ],
      "stateMutability": "view",
      "type": "function"
    },
    {
      "inputs": [
        {
          "internalType": "uint256",
          "name": "",
          "type": "uint256"
        }
      ],
      "name": "operationsMintTC",
      "outputs": [
        {
          "internalType": "uint256",
          "name": "qTC",
          "type": "uint256"
        },
        {
          "internalType": "uint256",
          "name": "qACmax",
          "type": "uint256"
        },
        {
          "internalType": "address",
          "name": "sender",
          "type": "address"
        },
        {
          "internalType": "address",
          "name": "recipient",
          "type": "address"
        },
        {
          "internalType": "address",
          "name": "vendor",
          "type": "address"
        }
      ],
      "stateMutability": "view",
      "type": "function"
    },
    {
      "inputs": [
        {
          "internalType": "uint256",
          "name": "",
          "type": "uint256"
        }
      ],
      "name": "operationsMintTCandTP",
      "outputs": [
        {
          "internalType": "address",
          "name": "tp",
          "type": "address"
        },
        {
          "internalType": "uint256",
          "name": "qTP",
          "type": "uint256"
        },
        {
          "internalType": "uint256",
          "name": "qACmax",
          "type": "uint256"
        },
        {
          "internalType": "address",
          "name": "sender",
          "type": "address"
        },
        {
          "internalType": "address",
          "name": "recipient",
          "type": "address"
        },
        {
          "internalType": "address",
          "name": "vendor",
          "type": "address"
        }
      ],
      "stateMutability": "view",
      "type": "function"
    },
    {
      "inputs": [
        {
          "internalType": "uint256",
          "name": "",
          "type": "uint256"
        }
      ],
      "name": "operationsMintTP",
      "outputs": [
        {
          "internalType": "address",
          "name": "tp",
          "type": "address"
        },
        {
          "internalType": "uint256",
          "name": "qTP",
          "type": "uint256"
        },
        {
          "internalType": "uint256",
          "name": "qACmax",
          "type": "uint256"
        },
        {
          "internalType": "address",
          "name": "sender",
          "type": "address"
        },
        {
          "internalType": "address",
          "name": "recipient",
          "type": "address"
        },
        {
          "internalType": "address",
          "name": "vendor",
          "type": "address"
        }
      ],
      "stateMutability": "view",
      "type": "function"
    },
    {
      "inputs": [
        {
          "internalType": "uint256",
          "name": "",
          "type": "uint256"
        }
      ],
      "name": "operationsRedeemTC",
      "outputs": [
        {
          "internalType": "uint256",
          "name": "qTC",
          "type": "uint256"
        },
        {
          "internalType": "uint256",
          "name": "qACmin",
          "type": "uint256"
        },
        {
          "internalType": "address",
          "name": "sender",
          "type": "address"
        },
        {
          "internalType": "address",
          "name": "recipient",
          "type": "address"
        },
        {
          "internalType": "address",
          "name": "vendor",
          "type": "address"
        }
      ],
      "stateMutability": "view",
      "type": "function"
    },
    {
      "inputs": [
        {
          "internalType": "uint256",
          "name": "",
          "type": "uint256"
        }
      ],
      "name": "operationsRedeemTCandTP",
      "outputs": [
        {
          "internalType": "address",
          "name": "tp",
          "type": "address"
        },
        {
          "internalType": "uint256",
          "name": "qTC",
          "type": "uint256"
        },
        {
          "internalType": "uint256",
          "name": "qTP",
          "type": "uint256"
        },
        {
          "internalType": "uint256",
          "name": "qACmin",
          "type": "uint256"
        },
        {
          "internalType": "address",
          "name": "sender",
          "type": "address"
        },
        {
          "internalType": "address",
          "name": "recipient",
          "type": "address"
        },
        {
          "internalType": "address",
          "name": "vendor",
          "type": "address"
        }
      ],
      "stateMutability": "view",
      "type": "function"
    },
    {
      "inputs": [
        {
          "internalType": "uint256",
          "name": "",
          "type": "uint256"
        }
      ],
      "name": "operationsRedeemTP",
      "outputs": [
        {
          "internalType": "address",
          "name": "tp",
          "type": "address"
        },
        {
          "internalType": "uint256",
          "name": "qTP",
          "type": "uint256"
        },
        {
          "internalType": "uint256",
          "name": "qACmin",
          "type": "uint256"
        },
        {
          "internalType": "address",
          "name": "sender",
          "type": "address"
        },
        {
          "internalType": "address",
          "name": "recipient",
          "type": "address"
        },
        {
          "internalType": "address",
          "name": "vendor",
          "type": "address"
        }
      ],
      "stateMutability": "view",
      "type": "function"
    },
    {
      "inputs": [
        {
          "internalType": "uint256",
          "name": "",
          "type": "uint256"
        }
      ],
      "name": "operationsSwapTCforTP",
      "outputs": [
        {
          "internalType": "address",
          "name": "tp",
          "type": "address"
        },
        {
          "internalType": "uint256",
          "name": "qTC",
          "type": "uint256"
        },
        {
          "internalType": "uint256",
          "name": "qTPmin",
          "type": "uint256"
        },
        {
          "internalType": "uint256",
          "name": "qACmax",
          "type": "uint256"
        },
        {
          "internalType": "address",
          "name": "sender",
          "type": "address"
        },
        {
          "internalType": "address",
          "name": "recipient",
          "type": "address"
        },
        {
          "internalType": "address",
          "name": "vendor",
          "type": "address"
        }
      ],
      "stateMutability": "view",
      "type": "function"
    },
    {
      "inputs": [
        {
          "internalType": "uint256",
          "name": "",
          "type": "uint256"
        }
      ],
      "name": "operationsSwapTPforTC",
      "outputs": [
        {
          "internalType": "address",
          "name": "tp",
          "type": "address"
        },
        {
          "internalType": "uint256",
          "name": "qTP",
          "type": "uint256"
        },
        {
          "internalType": "uint256",
          "name": "qTCmin",
          "type": "uint256"
        },
        {
          "internalType": "uint256",
          "name": "qACmax",
          "type": "uint256"
        },
        {
          "internalType": "address",
          "name": "sender",
          "type": "address"
        },
        {
          "internalType": "address",
          "name": "recipient",
          "type": "address"
        },
        {
          "internalType": "address",
          "name": "vendor",
          "type": "address"
        }
      ],
      "stateMutability": "view",
      "type": "function"
    },
    {
      "inputs": [
        {
          "internalType": "uint256",
          "name": "",
          "type": "uint256"
        }
      ],
      "name": "operationsSwapTPforTP",
      "outputs": [
        {
          "internalType": "address",
          "name": "tpFrom",
          "type": "address"
        },
        {
          "internalType": "address",
          "name": "tpTo",
          "type": "address"
        },
        {
          "internalType": "uint256",
          "name": "qTP",
          "type": "uint256"
        },
        {
          "internalType": "uint256",
          "name": "qTPmin",
          "type": "uint256"
        },
        {
          "internalType": "uint256",
          "name": "qACmax",
          "type": "uint256"
        },
        {
          "internalType": "address",
          "name": "sender",
          "type": "address"
        },
        {
          "internalType": "address",
          "name": "recipient",
          "type": "address"
        },
        {
          "internalType": "address",
          "name": "vendor",
          "type": "address"
        }
      ],
      "stateMutability": "view",
      "type": "function"
    },
    {
      "inputs": [],
      "name": "pause",
      "outputs": [],
      "stateMutability": "nonpayable",
      "type": "function"
    },
    {
      "inputs": [],
      "name": "paused",
      "outputs": [
        {
          "internalType": "bool",
          "name": "",
          "type": "bool"
        }
      ],
      "stateMutability": "view",
      "type": "function"
    },
    {
      "inputs": [],
      "name": "pauser",
      "outputs": [
        {
          "internalType": "address",
          "name": "",
          "type": "address"
        }
      ],
      "stateMutability": "view",
      "type": "function"
    },
    {
      "inputs": [],
      "name": "proxiableUUID",
      "outputs": [
        {
          "internalType": "bytes32",
          "name": "",
          "type": "bytes32"
        }
      ],
      "stateMutability": "view",
      "type": "function"
    },
    {
      "inputs": [
        {
          "components": [
            {
              "internalType": "uint256",
              "name": "qTC",
              "type": "uint256"
            },
            {
              "internalType": "uint256",
              "name": "qACmax",
              "type": "uint256"
            },
            {
              "internalType": "address",
              "name": "sender",
              "type": "address"
            },
            {
              "internalType": "address",
              "name": "recipient",
              "type": "address"
            },
            {
              "internalType": "address",
              "name": "vendor",
              "type": "address"
            }
          ],
          "internalType": "struct MocCore.MintTCParams",
          "name": "params",
          "type": "tuple"
        }
      ],
      "name": "queueMintTC",
      "outputs": [
        {
          "internalType": "uint256",
          "name": "operId",
          "type": "uint256"
        }
      ],
      "stateMutability": "nonpayable",
      "type": "function"
    },
    {
      "inputs": [
        {
          "components": [
            {
              "internalType": "address",
              "name": "tp",
              "type": "address"
            },
            {
              "internalType": "uint256",
              "name": "qTP",
              "type": "uint256"
            },
            {
              "internalType": "uint256",
              "name": "qACmax",
              "type": "uint256"
            },
            {
              "internalType": "address",
              "name": "sender",
              "type": "address"
            },
            {
              "internalType": "address",
              "name": "recipient",
              "type": "address"
            },
            {
              "internalType": "address",
              "name": "vendor",
              "type": "address"
            }
          ],
          "internalType": "struct MocCore.MintTCandTPParams",
          "name": "params",
          "type": "tuple"
        }
      ],
      "name": "queueMintTCandTP",
      "outputs": [
        {
          "internalType": "uint256",
          "name": "operId",
          "type": "uint256"
        }
      ],
      "stateMutability": "nonpayable",
      "type": "function"
    },
    {
      "inputs": [
        {
          "components": [
            {
              "internalType": "address",
              "name": "tp",
              "type": "address"
            },
            {
              "internalType": "uint256",
              "name": "qTP",
              "type": "uint256"
            },
            {
              "internalType": "uint256",
              "name": "qACmax",
              "type": "uint256"
            },
            {
              "internalType": "address",
              "name": "sender",
              "type": "address"
            },
            {
              "internalType": "address",
              "name": "recipient",
              "type": "address"
            },
            {
              "internalType": "address",
              "name": "vendor",
              "type": "address"
            }
          ],
          "internalType": "struct MocCore.MintTPParams",
          "name": "params",
          "type": "tuple"
        }
      ],
      "name": "queueMintTP",
      "outputs": [
        {
          "internalType": "uint256",
          "name": "operId",
          "type": "uint256"
        }
      ],
      "stateMutability": "nonpayable",
      "type": "function"
    },
    {
      "inputs": [
        {
          "components": [
            {
              "internalType": "uint256",
              "name": "qTC",
              "type": "uint256"
            },
            {
              "internalType": "uint256",
              "name": "qACmin",
              "type": "uint256"
            },
            {
              "internalType": "address",
              "name": "sender",
              "type": "address"
            },
            {
              "internalType": "address",
              "name": "recipient",
              "type": "address"
            },
            {
              "internalType": "address",
              "name": "vendor",
              "type": "address"
            }
          ],
          "internalType": "struct MocCore.RedeemTCParams",
          "name": "params",
          "type": "tuple"
        }
      ],
      "name": "queueRedeemTC",
      "outputs": [
        {
          "internalType": "uint256",
          "name": "operId",
          "type": "uint256"
        }
      ],
      "stateMutability": "nonpayable",
      "type": "function"
    },
    {
      "inputs": [
        {
          "components": [
            {
              "internalType": "address",
              "name": "tp",
              "type": "address"
            },
            {
              "internalType": "uint256",
              "name": "qTC",
              "type": "uint256"
            },
            {
              "internalType": "uint256",
              "name": "qTP",
              "type": "uint256"
            },
            {
              "internalType": "uint256",
              "name": "qACmin",
              "type": "uint256"
            },
            {
              "internalType": "address",
              "name": "sender",
              "type": "address"
            },
            {
              "internalType": "address",
              "name": "recipient",
              "type": "address"
            },
            {
              "internalType": "address",
              "name": "vendor",
              "type": "address"
            }
          ],
          "internalType": "struct MocCore.RedeemTCandTPParams",
          "name": "params",
          "type": "tuple"
        }
      ],
      "name": "queueRedeemTCandTP",
      "outputs": [
        {
          "internalType": "uint256",
          "name": "operId",
          "type": "uint256"
        }
      ],
      "stateMutability": "nonpayable",
      "type": "function"
    },
    {
      "inputs": [
        {
          "components": [
            {
              "internalType": "address",
              "name": "tp",
              "type": "address"
            },
            {
              "internalType": "uint256",
              "name": "qTP",
              "type": "uint256"
            },
            {
              "internalType": "uint256",
              "name": "qACmin",
              "type": "uint256"
            },
            {
              "internalType": "address",
              "name": "sender",
              "type": "address"
            },
            {
              "internalType": "address",
              "name": "recipient",
              "type": "address"
            },
            {
              "internalType": "address",
              "name": "vendor",
              "type": "address"
            }
          ],
          "internalType": "struct MocCommons.RedeemTPParams",
          "name": "params",
          "type": "tuple"
        }
      ],
      "name": "queueRedeemTP",
      "outputs": [
        {
          "internalType": "uint256",
          "name": "operId",
          "type": "uint256"
        }
      ],
      "stateMutability": "nonpayable",
      "type": "function"
    },
    {
      "inputs": [
        {
          "components": [
            {
              "internalType": "address",
              "name": "tp",
              "type": "address"
            },
            {
              "internalType": "uint256",
              "name": "qTC",
              "type": "uint256"
            },
            {
              "internalType": "uint256",
              "name": "qTPmin",
              "type": "uint256"
            },
            {
              "internalType": "uint256",
              "name": "qACmax",
              "type": "uint256"
            },
            {
              "internalType": "address",
              "name": "sender",
              "type": "address"
            },
            {
              "internalType": "address",
              "name": "recipient",
              "type": "address"
            },
            {
              "internalType": "address",
              "name": "vendor",
              "type": "address"
            }
          ],
          "internalType": "struct MocCommons.SwapTCforTPParams",
          "name": "params",
          "type": "tuple"
        }
      ],
      "name": "queueSwapTCforTP",
      "outputs": [
        {
          "internalType": "uint256",
          "name": "operId",
          "type": "uint256"
        }
      ],
      "stateMutability": "nonpayable",
      "type": "function"
    },
    {
      "inputs": [
        {
          "components": [
            {
              "internalType": "address",
              "name": "tp",
              "type": "address"
            },
            {
              "internalType": "uint256",
              "name": "qTP",
              "type": "uint256"
            },
            {
              "internalType": "uint256",
              "name": "qTCmin",
              "type": "uint256"
            },
            {
              "internalType": "uint256",
              "name": "qACmax",
              "type": "uint256"
            },
            {
              "internalType": "address",
              "name": "sender",
              "type": "address"
            },
            {
              "internalType": "address",
              "name": "recipient",
              "type": "address"
            },
            {
              "internalType": "address",
              "name": "vendor",
              "type": "address"
            }
          ],
          "internalType": "struct MocCommons.SwapTPforTCParams",
          "name": "params",
          "type": "tuple"
        }
      ],
      "name": "queueSwapTPforTC",
      "outputs": [
        {
          "internalType": "uint256",
          "name": "operId",
          "type": "uint256"
        }
      ],
      "stateMutability": "nonpayable",
      "type": "function"
    },
    {
      "inputs": [
        {
          "components": [
            {
              "internalType": "address",
              "name": "tpFrom",
              "type": "address"
            },
            {
              "internalType": "address",
              "name": "tpTo",
              "type": "address"
            },
            {
              "internalType": "uint256",
              "name": "qTP",
              "type": "uint256"
            },
            {
              "internalType": "uint256",
              "name": "qTPmin",
              "type": "uint256"
            },
            {
              "internalType": "uint256",
              "name": "qACmax",
              "type": "uint256"
            },
            {
              "internalType": "address",
              "name": "sender",
              "type": "address"
            },
            {
              "internalType": "address",
              "name": "recipient",
              "type": "address"
            },
            {
              "internalType": "address",
              "name": "vendor",
              "type": "address"
            }
          ],
          "internalType": "struct MocCommons.SwapTPforTPParams",
          "name": "params",
          "type": "tuple"
        }
      ],
      "name": "queueSwapTPforTP",
      "outputs": [
        {
          "internalType": "uint256",
          "name": "operId",
          "type": "uint256"
        }
      ],
      "stateMutability": "nonpayable",
      "type": "function"
    },
    {
      "inputs": [
        {
          "internalType": "contract MocCARC20Deferred",
          "name": "bucket",
          "type": "address"
        }
      ],
      "name": "registerBucket",
      "outputs": [],
      "stateMutability": "nonpayable",
      "type": "function"
    },
    {
      "inputs": [
        {
          "internalType": "bytes32",
          "name": "role",
          "type": "bytes32"
        },
        {
          "internalType": "address",
          "name": "account",
          "type": "address"
        }
      ],
      "name": "renounceRole",
      "outputs": [],
      "stateMutability": "nonpayable",
      "type": "function"
    },
    {
      "inputs": [
        {
          "internalType": "bytes32",
          "name": "role",
          "type": "bytes32"
        },
        {
          "internalType": "address",
          "name": "account",
          "type": "address"
        }
      ],
      "name": "revokeRole",
      "outputs": [],
      "stateMutability": "nonpayable",
      "type": "function"
    },
    {
      "inputs": [
        {
          "internalType": "address",
          "name": "newPauser_",
          "type": "address"
        }
      ],
      "name": "setPauser",
      "outputs": [],
      "stateMutability": "nonpayable",
      "type": "function"
    },
    {
      "inputs": [],
      "name": "stoppable",
      "outputs": [
        {
          "internalType": "bool",
          "name": "",
          "type": "bool"
        }
      ],
      "stateMutability": "view",
      "type": "function"
    },
    {
      "inputs": [
        {
          "internalType": "bytes4",
          "name": "interfaceId",
          "type": "bytes4"
        }
      ],
      "name": "supportsInterface",
      "outputs": [
        {
          "internalType": "bool",
          "name": "",
          "type": "bool"
        }
      ],
      "stateMutability": "view",
      "type": "function"
    },
    {
      "inputs": [],
      "name": "unpause",
      "outputs": [],
      "stateMutability": "nonpayable",
      "type": "function"
    },
    {
      "inputs": [
        {
          "internalType": "address",
          "name": "newImplementation",
          "type": "address"
        }
      ],
      "name": "upgradeTo",
      "outputs": [],
      "stateMutability": "nonpayable",
      "type": "function"
    },
    {
      "inputs": [
        {
          "internalType": "address",
          "name": "newImplementation",
          "type": "address"
        },
        {
          "internalType": "bytes",
          "name": "data",
          "type": "bytes"
        }
      ],
      "name": "upgradeToAndCall",
      "outputs": [],
      "stateMutability": "payable",
      "type": "function"
    }
  ],
  "bytecode": "0x60a080604052346100315730608052613e6590816100378239608051818181612360015281816124d001526128b70152f35b600080fdfe6080604052600436101561001257600080fd5b6000803560e01c8062c6e88e14612d2157806301ffc9a714612cca5780630c340a2414612ca15780631753909714612c675780631826ebf014612c045780631a0c544014612b9b578063248a9ca314612b6d5780632d88af4a14612b165780632f2ff15d14612ae157806334975a41146129b357806336568abe1461291e5780633659cfe6146128865780633f4ba83a1461280b578063435c7e371461278257806347d8496a146126f4578063485cc955146125405780634f1ef286146124495780635210570c1461242357806352d1902d1461234d5780635c817aa3146122ea5780635c975abb146122c4578063682743571461229b5780636b59c22f1461220d5780636b763330146121aa57806373e3d0861461218b5780637e81a821146120fd5780638456cb59146120665780638a4737ab146120085780638b20076c14611faa57806391d1485414611f5c5780639fd0506d14611f2f578063a217fddf14611f13578063ad16c2de14611eaa578063bb4872de14611e87578063bbe720d914611e2c578063c84d8bb614611d9f578063d547741f14611d5e578063d9a862d614611d34578063e4c0aaf414611cef578063e4e1b72914611c61578063e97a4d6314611bd3578063fa91a9a514611b3b578063fb8aafb814611ad95763fe0d94c11461020057600080fd5b34611ad6576020366003190112611ad65761021961345a565b6102427fd8aa0f3194971a2a116679f7c2090f6939c8d4e01a2a8d7e41d55e5351469e636135c2565b60043581526102028060205260ff604083205416826060604051610267608082612df2565b8281528260208201528260408201520152600a811015611ac2576001810361053a57506004358252816101f9806020526102a36040832061380e565b9060043583526020526102d16040832060046000918281558260018201558260028201558260038201550155565b6101f780546040805163235e81cf60e01b81528451600482015260208501516024820152908401516001600160a01b03908116604483015260608501518116606483015260808501518116608483015293929160c090829060a4908290899089165af1908186918793610506575b5061049657505082602091610352613299565b61035b8161387c565b906001600160e01b03198216630b63f1a760e01b810361042e575050610399600080516020613db083398151915291604051918291600435836138e9565b0390a15b541692604083015116910151823b1561042a576040516358f32de960e01b81526001600160a01b0392909216600483015260248201529082908290604490829084905af1801561041f57610406575b50505b600435825260205260408120805460ff1916905580f35b8161041091612df2565b61041b5781386103ec565b5080fd5b6040513d84823e3d90fd5b8380fd5b637912120160e01b03610466575061045e600080516020613db083398151915291604051918291600435836138ad565b0390a161039d565b600080516020613dd0833981519152915061045e9060405191829160043583526040888401526040830190613389565b9091508394506104fe839460407f5090a820029acae4d47b64da9af62ce04a5a1bdb546934e5fcfe091ee1f780ee950151169486606082015116968151918551956020810151926080606060408401519301519301511692604051978897600435968961392e565b0390a36103ef565b90925061052a915060c03d8111610533575b6105228183612df2565b81019061385c565b9290503861033f565b503d610518565b6002810361081a57506004358252816101fb8060205261055c6040832061380e565b90600435835260205261058a6040832060046000918281558260018201558260028201558260038201550155565b6101f780546040805163bfe4262160e01b81528451600482015260208501516024820152908401516001600160a01b03908116604483015260608501518116606483015260808501518116608483015293929160c090829060a4908290899089165af19081869187936107f6575b5061078e5750508290610609613299565b6106128161387c565b6001600160e01b031981169163a5db715d60e01b83036106f157505060a0600080516020613db083398151915291604051906004358252602082015260606040820152601960608201527f496e73756666696369656e7420746320746f2072656465656d000000000000006080820152a15b5416916040820151169051823b1561042a576040516353b16d1760e01b81526001600160a01b03909216600483015260248201529082908290818381604481015b03925af1801561041f576106dc575b50505b6103ef565b816106e691612df2565b61041b5781386106d4565b90916354cde31360e01b810361072d575050610725600080516020613db0833981519152916040519182916004358361396d565b0390a1610684565b637912120160e01b0361075d5750610725600080516020613db083398151915291604051918291600435836138ad565b600080516020613dd08339815191529150610725906040519182916004358352604060208401526040830190613389565b9091508394506104fe839460407f7e7043742f69701e6292386d468d710f2d6e44bf93232a1e52f1641e50a9de12950151169486606082015116968151918551956020810151926080606060408401519301519301511692604051978897600435968961392e565b909250610811915060c03d8111610533576105228183612df2565b929050386105f8565b60038103610abb57506004358252816101fa8060205261083c604083206139ba565b9060043583526020526108706040832060056000918281558260018201558260028201558260038201558260048201550155565b6101f78054604051635a21a61960e11b81526001600160a01b0393929160c090829060c4908290899089166108a8600484018a613a14565b5af18086928792610a96575b50610a1e575050826040916108c7613299565b6108d08161387c565b6001600160e01b031981169163c39b739f60e01b830361098657505060a0600080516020613db08339815191529185519060043582526020820152606086820152601760608201527f496e73756666696369656e7420747020746f206d696e740000000000000000006080820152a15b541692606083015116910151823b1561042a576040516358f32de960e01b81526001600160a01b03909216600483015260248201529082908290818381604481016106c5565b9091630b63f1a760e01b81036109c15750506109b9600080516020613db0833981519152918551918291600435836138e9565b0390a1610940565b637912120160e01b036109f057506109b9600080516020613db0833981519152918551918291600435836138ad565b600080516020613dd083398151915291506109b9908551918291600435835287602084015287830190613389565b9092938095507f125247fdf990b9b419d4b4f895b1bb75bc485e3f8b813cf5557a4a12a56d054d925084511692610a8e8660608701511695876080820151169760208201519185519560208101519260a0606060408401519301519301511692604051978897600435968961392e565b0390a46103ef565b909250610ab1915060c03d8111610533576105228183612df2565b91929050386108b4565b60048103610d1457506004358252816101fc80602052610add604083206139ba565b906004358352602052610b116040832060056000918281558260018201558260028201558260038201558260048201550155565b6101f7805460405163ad4e666d60e01b81526001600160a01b03929160c090829060c490829089908816610b48600484018b613a14565b5af18086928792610cef575b50610c805750508190610b65613299565b610b6e8161387c565b906001600160e01b031982166354cde31360e01b8103610c17575050610bac600080516020613db0833981519152916040519182916004358361396d565b0390a15b54166020826060850151169284511693015190803b15610c1357604051630e2c5e9960e41b81526001600160a01b039384166004820152939092166024840152604483015282908290606490829084905af1801561041f576106dc5750506103ef565b8480fd5b637912120160e01b03610c4f5750610c47600080516020613db083398151915291604051918291600435836138ad565b0390a1610bb0565b600080516020613dd08339815191529150610c47906040519182916004358352604060208401526040830190613389565b90928095507f625b9fc283a619f53beb817d79b8ab044d60e307fd2af4bb89fa5e9a24ce4ebc925084511692610a8e8660608701511695876080820151169760208201519185519560208101519260a0606060408401519301519301511692604051978897600435968961392e565b909250610d0a915060c03d8111610533576105228183612df2565b9192905038610b54565b60058103610efa57506004358252816101fd80602052610d36604083206139ba565b906004358352602052610d6a6040832060056000918281558260018201558260028201558260038201558260048201550155565b6101f7805460405163883d21cb60e01b81526001600160a01b0393929160e090829060c490829089908916610da2600484018a613a14565b5af185908087938892610ec3575b50610e535750505082604091610dc4613299565b610dcd8161387c565b906001600160e01b03198216630b63f1a760e01b81036109c1575050610e0a600080516020613db0833981519152918551918291600435836138e9565b0390a1541692606083015116910151823b1561042a576040516358f32de960e01b81526001600160a01b03909216600483015260248201529082908290818381604481016106c5565b90919395507f03e9e02a94d7486426fcf2b05a27e911b8d1b61e2e1dcf103785512f46c847649250610a8e858751169486606089015116968060808a0151169860208101519480519260208201519060a0606060408501519401519401511693604051988998600435978a613a59565b91509250610ee9915060e03d60e011610ef3575b610ee18183612df2565b81019061359b565b9193905038610db0565b503d610ed7565b6006810361123257506004358252816101fe80602052610f1c60408320613a9d565b906004358352602052610f566040832060066000918281558260018201558260028201558260038201558260048201558260058201550155565b6101f78054604051633631a6bb60e21b81526001600160a01b0393929160e090829060e490829089908916610f8e600484018a613b01565b5af18591829182918161120c575b5061119c57505050610fac613299565b610fb58161387c565b6001600160e01b0319811691637a031da360e11b83036110ff57505060a0600080516020613db0833981519152916040519060043582526020820152606060408201526014606082015273125b9cdd59999a58da595b9d081d1c081cd95b9d60621b6080820152a15b82815416926080830193818551168285511691604086015190803b156110fb57604051630e2c5e9960e41b81526001600160a01b039384166004820152939092166024840152604483015286908290606490829084905af19081156110f05786916110db575b5050806020925416935116910151823b1561042a576040516353b16d1760e01b81526001600160a01b0392909216600483015260248201529082908290604490829084905af1801561041f576106dc5750506103ef565b816110e591612df2565b610c13578438611084565b6040513d88823e3d90fd5b8880fd5b90916354cde31360e01b810361113b575050611133600080516020613db0833981519152916040519182916004358361396d565b0390a161101e565b637912120160e01b0361116b5750611133600080516020613db083398151915291604051918291600435836138ad565b600080516020613dd08339815191529150611133906040519182916004358352604060208401526040830190613389565b90919395507f4d33a2f9c4f66a101333f7ca2ab718582e763c941ff6fc304d2d4408d43a82849250610a8e858751169486608089015116968060a08a0151169860208101519280519260208201519060c0606060408501519401519401511693604051988998600435978a613a59565b91509250611229915060e03d60e011610ef357610ee18183612df2565b93905038610f9c565b6007810361155457506004358252816101ff8060205261125460408320613a9d565b90600435835260205261128e6040832060066000918281558260018201558260028201558260038201558260048201558260058201550155565b6101f780546040516312bce9bf60e21b81526001600160a01b0393929160e090829060e4908290899089166112c6600484018a613b01565b5af1808692879261152c575b506114bc5750506112e1613299565b6112ea8161387c565b6001600160e01b0319811691630b63f1a760e01b83036113e75750600080516020613db0833981519152915061132990604051918291600435836138e9565b0390a15b82815416926080830193818551166020850151823b156113e3576040516353b16d1760e01b81526001600160a01b0392909216600483015260248201529086908290604490829084905af19081156110f05786916113ce575b5050806060925416935116910151823b1561042a576040516358f32de960e01b81526001600160a01b03909216600483015260248201529082908290818381604481016106c5565b816113d891612df2565b610c13578438611386565b8780fd5b63272e3f5960e21b830361145157505060a0600080516020613db083398151915291604051906004358252602082015260606040820152601a60608201527f7154702062656c6f77206d696e696d756d2072657175697265640000000000006080820152a161132d565b9091637912120160e01b0361148b5750611483600080516020613db083398151915291604051918291600435836138ad565b0390a161132d565b600080516020613dd08339815191529150611483906040519182916004358352604060208401526040830190613389565b9092938095507ff8dcb57698d7067da58ab71c48cd2e3b329b69e7e9853f88630c2c69c2557c78925084511692610a8e86608087015116958760a0820151169760208201519185519560208101519260c0606060408401519301519301511692604051978897600435968961392e565b909250611548915060e03d60e011610ef357610ee18183612df2565b939250509190386112d2565b600881036118955750906004358152610200918260205261157760408320613a9d565b9260043583526020526115b16040832060066000918281558260018201558260028201558260038201558260048201558260058201550155565b6101f78054604051635e272ad960e11b81526001600160a01b03959160e090829060e490829089908b166115e86004840189613b01565b5af1808692879261186d575b506117fc575050611603613299565b61160c8161387c565b6001600160e01b0319811691630b63f1a760e01b83036117275750600080516020613db0833981519152915061164b90604051918291600435836138e9565b0390a15b84825416916080820192868451169087845116602085015192823b156110fb57604051630e2c5e9960e41b81526001600160a01b03918216600482015291166024820152604481019290925286908290606490829084905af180156110f05761170e575b508585966060929695965416935116910151823b1561042a576040516358f32de960e01b81526001600160a01b0392909216600483015260248201529082908290604490829084905af1801561041f576106dc5750506103ef565b8561171e60609396978993612df2565b959491506116b3565b63f577bef560e01b830361179157505060a0600080516020613db083398151915291604051906004358252602082015260606040820152601a60608201527f7154632062656c6f77206d696e696d756d2072657175697265640000000000006080820152a161164f565b9091637912120160e01b036117cb57506117c3600080516020613db083398151915291604051918291600435836138ad565b0390a161164f565b600080516020613dd083398151915291506117c3906040519182916004358352604060208401526040830190613389565b829350867f8ab42044ce8b230e021e5542eb53688d77443e50ee84cda7917f6bdd833c697f929397959697511692610a8e86608087015116958760a0820151169760208201519185519560208101519260c0606060408401519301519301511692604051978897600435968961392e565b909250611889915060e03d60e011610ef357610ee18183612df2565b939250509190386115f4565b6009036106d7576004358252610201806020528260408120604051906118bd61010083612df2565b80546001600160a01b039081168352600182015481166020840190815260028301546040808601918252600385015460608701908152600480870154608089019081526005880154871660a08a019081526006890154881660c08b01908152600790990154881660e0808c019182526101f754965163391bf6cf60e01b81528c518b169581019590955297518916602485015295516044840152925160648301525160848201529051851660a48201529451841660c48601529051831660e48501529294909285926101049284929091165af1918215611ab75785908693611a91575b507ff86f4487d2c5541b78f06d2368e28e0f4052e182124def54d5855bf2a01d325861012060018060a01b038451169260018060a01b036020860151169060018060a01b0360a0870151169560018060a01b0360c082015116976040820151928151602083015191606060408501519401519460e060018060a01b039101511695604051978852602088015260408701526060860152608085015260a084015260c083015260e0820152600435610100820152a460043583526020528160076040822082815582600182015582600282015582600382015582600482015582600582015582600682015501556103ef565b9050611aad91925060e03d60e011610ef357610ee18183612df2565b93925050386119a0565b6040513d87823e3d90fd5b634e487b7160e01b83526021600452602483fd5b80fd5b5034611ad6576020366003190112611ad65760409060043581526101fc6020522060018060a01b03611b3781835416916001840154936002810154918060038301541690600581600485015416930154169260405196879687612e46565b0390f35b5034611ad65760a0366003190112611ad657602090611b5861345a565b611b6f600080516020613e108339815191526135c2565b6101f8611b9f600460408354948581526102028752611b916002838320613b51565b8581526101fb875220613b93565b604051828152600284820152600080516020613df083398151915260403392a2611bc98154613c06565b9055604051908152f35b5034611ad65760a0366003190112611ad657602090611bf061345a565b611c07600080516020613e108339815191526135c2565b6101f8611c37600460408354948581526102028752611c296001838320613b51565b8581526101f9875220613b93565b604051828152600184820152600080516020613df083398151915260403392a2611bc98154613c06565b5034611ad65760e0366003190112611ad657602090611c7e61345a565b611c95600080516020613e108339815191526135c2565b6101f8611cc5600460408354948581526102028752611cb76006838320613b51565b8581526101fe875220613c80565b604051828152600684820152600080516020613df083398151915260403392a2611bc98154613c06565b5034611ad6576020366003190112611ad6576004356001600160a01b0381169081900361041b57611d1e6133cb565b6001600160601b0360a01b609754161760975580f35b5034611ad65780600319360112611ad6576101f7546040516001600160a01b039091168152602090f35b5034611ad6576040366003190112611ad6576004356024356001600160a01b0381168103611d9b5781611d93611d9893613cf6565b612e80565b80f35b8280fd5b5034611ad65760c0366003190112611ad657602090611dbc61345a565b611dd3600080516020613e108339815191526135c2565b6101f8611e02600460408354948581526102028752611df483838320613b51565b8581526101fc875220613c15565b604051828152600484820152600080516020613df083398151915260403392a2611bc98154613c06565b5034611ad6576020366003190112611ad6576004356001600160a01b0381169081900361041b576101f780546001600160a01b03191682179055611d9890600080516020613e10833981519152611e8281613cf6565b6134db565b5034611ad65780600319360112611ad657602060ff60ca54166040519015158152f35b5034611ad6576020366003190112611ad6576004803582526101fb6020908152604092839020805460018201546002830154600384015493909501548651928352938201526001600160a01b03938416948101949094528216606084015216608082015260a090f35b5034611ad65780600319360112611ad657602090604051908152f35b5034611ad65780600319360112611ad65760ca5460405160109190911c6001600160a01b03168152602090f35b5034611ad6576040366003190112611ad6576024356001600160a01b0381169081900361041b57604060209260ff926004358252610193855282822090825284522054166040519015158152f35b5034611ad6576020366003190112611ad65760409060043581526101fd6020522060018060a01b03611b3781835416916001840154936002810154918060038301541690600581600485015416930154169260405196879687612e46565b5034611ad6576020366003190112611ad65760409060043581526101fa6020522060018060a01b03611b3781835416916001840154936002810154918060038301541690600581600485015416930154169260405196879687612e46565b5034611ad65780600319360112611ad65761207f61345a565b60ca54601081901c6001600160a01b031633036120eb5760ff8116156120d9576101009061ff0019161760ca557f62e78cea01bee320cd4e420270b5ea74000d11b0c9f74754ebdbfc544b05a2586020604051338152a180f35b60405163866099c360e01b8152600490fd5b604051631d77d47760e21b8152600490fd5b5034611ad65760c0366003190112611ad65760209061211a61345a565b612131600080516020613e108339815191526135c2565b6101f86121616004604083549485815261020287526121536003838320613b51565b8581526101fa875220613c15565b604051828152600384820152600080516020613df083398151915260403392a2611bc98154613c06565b5034611ad65780600319360112611ad65760206101f854604051908152f35b5034611ad6576020366003190112611ad65760409060043581526101fe6020522060018060a01b03611b37818354169160018401549360028101549160038201548160048401541691600681600586015416940154169360405197889788612daf565b5034611ad65760e0366003190112611ad65760209061222a61345a565b612241600080516020613e108339815191526135c2565b6101f86122716004604083549485815261020287526122636007838320613b51565b8581526101ff875220613c80565b604051828152600784820152600080516020613df083398151915260403392a2611bc98154613c06565b5034611ad65780600319360112611ad6576122b46133cb565b600160ff1960ca54161760ca5580f35b5034611ad65780600319360112611ad657602060ff60ca5460081c166040519015158152f35b5034611ad6576020366003190112611ad65760409060043581526102006020522060018060a01b03611b37818354169160018401549360028101549160038201548160048401541691600681600586015416940154169360405197889788612daf565b5034611ad65780600319360112611ad6577f00000000000000000000000000000000000000000000000000000000000000006001600160a01b031630036123b85760206040517f360894a13ba1a3210667c828492db98dca3e2076cc3735a920a3ca505d382bbc8152f35b60405162461bcd60e51b815260206004820152603860248201527f555550535570677261646561626c653a206d757374206e6f742062652063616c60448201527f6c6564207468726f7567682064656c656761746563616c6c00000000000000006064820152608490fd5b5034611ad65780600319360112611ad65761243c6133cb565b60ff1960ca541660ca5580f35b506040366003190112611ad657806004356001600160a01b03808216820361253c576024359167ffffffffffffffff8311612537573660238401121561253757826004013561249781612e2a565b926124a56040519485612df2565b818452366024838701011161253357611d9895602083612526946024600199018389013786010152807f000000000000000000000000000000000000000000000000000000000000000016906124fd82301415612eff565b7f360894a13ba1a3210667c828492db98dca3e2076cc3735a920a3ca505d382bbc541614612f60565b61252e6133cb565b612fc1565b8580fd5b505050fd5b5050fd5b5034611ad6576040366003190112611ad6576001600160a01b0360043581811690819003611d9b576024359182168203611d9b5782549160ff8360081c1615928380946126e7575b80156126d0575b15612674576001926125f991858560ff198316178855612663575b5060ff865460081c16906125bd8261347b565b6125c68261347b565b6125cf8261347b565b6125d88261347b565b6125e18261347b565b6001600160601b0360a01b609754161760975561347b565b60ca5490620100008360b01b039060101b169061ff018360b01b031916171760ca5561262533836134db565b61262c5780f35b61ff001981541681557f7f26b83ff96e1f2b6a682f133852f6798a09c465da95921460cefb3847402498602060405160018152a180f35b61ffff1916610101178655386125aa565b60405162461bcd60e51b815260206004820152602e60248201527f496e697469616c697a61626c653a20636f6e747261637420697320616c72656160448201526d191e481a5b9a5d1a585b1a5e995960921b6064820152608490fd5b50303b15801561258f5750600160ff82161461258f565b50600160ff821610612588565b5034611ad65760c0366003190112611ad65760209061271161345a565b612728600080516020613e108339815191526135c2565b6101f861275860046040835494858152610202875261274a6005838320613b51565b8581526101fd875220613c15565b604051828152600584820152600080516020613df083398151915260403392a2611bc98154613c06565b5034611ad6576020366003190112611ad65760406101009160043581526102016020522060018060a01b03808254169181600182015416916002820154600383015460048401549183600586015416936007816006880154169601541695604051978852602088015260408701526060860152608085015260a084015260c083015260e0820152f35b5034611ad65780600319360112611ad65760ca5460ff8160081c161561287457601081901c6001600160a01b031633036120eb5761ff00191660ca557f5db9ee0a495bf2e6ff9c91a7834c1ba4fdd244a5e8aa4e537bd38aeae4b073aa6020604051338152a180f35b604051637c7fd07960e01b8152600490fd5b5034611ad6576020366003190112611ad6576001600160a01b0381600435828116810361041b576128e483611d98947f000000000000000000000000000000000000000000000000000000000000000016906124fd82301415612eff565b6128ec6133cb565b6128f582612e2a565b906129036040519283612df2565b828252601f1961291284612e2a565b01366020840137612fc1565b5034611ad6576040366003190112611ad6576024356001600160a01b038116808203611d9b57330361295657611d9890600435612e80565b60405162461bcd60e51b815260206004820152602f60248201527f416363657373436f6e74726f6c3a2063616e206f6e6c792072656e6f756e636560448201526e103937b632b9903337b91039b2b63360891b6064820152608490fd5b5034611ad657610100366003190112611ad6576129ce61345a565b6129e5600080516020613e108339815191526135c2565b6101f8805490818352610202602052612a02600960408520613b51565b818352610201602052604083206001600160a01b036004358181169290839003612533576001600160601b0360a01b9283825416178155600181016024358381168091036113e357848254161790556044356002820155606435600382015560843560048201556005810160a4358381168091036113e35784825416179055600681019060c435918383168093036113e35760079285825416179055019160e4359182168092036125335760209550825416179055604051828152600984820152600080516020613df083398151915260403392a2611bc98154613c06565b5034611ad6576040366003190112611ad6576004356024356001600160a01b0381168103611d9b5781611e82611d9893613cf6565b5034611ad6576020366003190112611ad6576004356001600160a01b038116810361041b57612b436133cb565b60ca805462010000600160b01b03191660109290921b62010000600160b01b031691909117905580f35b5034611ad6576020366003190112611ad6576001604060209260043581526101938452200154604051908152f35b5034611ad6576020366003190112611ad6576004803582526101f96020908152604092839020805460018201546002830154600384015493909501548651928352938201526001600160a01b03938416948101949094528216606084015216608082015260a090f35b5034611ad6576020366003190112611ad65760409060043581526101ff6020522060018060a01b03611b37818354169160018401549360028101549160038201548160048401541691600681600586015416940154169360405197889788612daf565b5034611ad6576020366003190112611ad657600435815261020260205260ff60408220541660405190600a811015611ac257602092508152f35b5034611ad65780600319360112611ad6576097546040516001600160a01b039091168152602090f35b5034611ad6576020366003190112611ad65760043563ffffffff60e01b811680910361041b57602090637965db0b60e01b8114908115612d10575b506040519015158152f35b6301ffc9a760e01b14905082612d05565b5034611ad65760e0366003190112611ad657602090612d3e61345a565b612d55600080516020613e108339815191526135c2565b6101f8612d85600460408354948581526102028752612d776008838320613b51565b858152610200875220613c80565b604051828152600884820152600080516020613df083398151915260403392a2611bc98154613c06565b6001600160a01b039182168152602081019290925260408201929092526060810192909252918216608082015291811660a083015290911660c082015260e00190565b90601f8019910116810190811067ffffffffffffffff821117612e1457604052565b634e487b7160e01b600052604160045260246000fd5b67ffffffffffffffff8111612e1457601f01601f191660200190565b6001600160a01b0391821681526020810192909252604082019290925291811660608301529182166080820152911660a082015260c00190565b9060009180835261019380602052604084209260018060a01b03169283855260205260ff604085205416612eb5575b50505050565b818452602052604083208284526020526040832060ff1981541690557ff6391f5c32d9c69d2a47ea670b442974b53935d1edc7fd64eb21e047a839171b339380a438808080612eaf565b15612f0657565b60405162461bcd60e51b815260206004820152602c60248201527f46756e6374696f6e206d7573742062652063616c6c6564207468726f7567682060448201526b19195b1959d85d1958d85b1b60a21b6064820152608490fd5b15612f6757565b60405162461bcd60e51b815260206004820152602c60248201527f46756e6374696f6e206d7573742062652063616c6c6564207468726f7567682060448201526b6163746976652070726f787960a01b6064820152608490fd5b9060ff7f4910fdfa16fed3260ed0e7147f7cc6da11a60208b5b9406d12a635614ffd91435416600014612ffb5750612ff991506131f7565b565b6040516352d1902d60e01b8152602093919291906001600160a01b038316908581600481855afa600091816131c8575b5061308c5760405162461bcd60e51b815260048101879052602e60248201527f45524331393637557067726164653a206e657720696d706c656d656e7461746960448201526d6f6e206973206e6f74205555505360901b6064820152608490fd5b9394937fc9f76b5ec45e5cdef99837d7b6d2467235c1df8933c8ca56df5c35afa2c7d44401613171576130be836131f7565b7fbc7cd75a20ee27fd9adebab32041f755214dbc6bffa90cc0225b39da2e5c2d3b600080a283511590811591613169575b506130f957505050565b6000806131669461310a6027612e2a565b946131186040519687612df2565b602786527f416464726573733a206c6f772d6c6576656c2064656c65676174652063616c6c81870152660819985a5b195960ca1b604087015281519101845af4613160613299565b916132c9565b50565b9050386130ef565b60405162461bcd60e51b815260048101859052602960248201527f45524331393637557067726164653a20756e737570706f727465642070726f786044820152681a58589b195555525160ba1b6064820152608490fd5b90918782813d83116131f0575b6131df8183612df2565b81010312611ad6575051903861302b565b503d6131d5565b803b1561323e577f360894a13ba1a3210667c828492db98dca3e2076cc3735a920a3ca505d382bbc80546001600160a01b0319166001600160a01b03909216919091179055565b60405162461bcd60e51b815260206004820152602d60248201527f455243313936373a206e657720696d706c656d656e746174696f6e206973206e60448201526c1bdd08184818dbdb9d1c9858dd609a1b6064820152608490fd5b3d156132c4573d906132aa82612e2a565b916132b86040519384612df2565b82523d6000602084013e565b606090565b9192901561332b57508151156132dd575090565b3b156132e65790565b60405162461bcd60e51b815260206004820152601d60248201527f416464726573733a2063616c6c20746f206e6f6e2d636f6e74726163740000006044820152606490fd5b82519091501561333e5750805190602001fd5b60405162461bcd60e51b815260206004820152908190613362906024830190613389565b0390fd5b60005b8381106133795750506000910152565b8181015183820152602001613369565b906020916133a281518092818552858086019101613366565b601f01601f1916010190565b908160209103126133c6575180151581036133c65790565b600080fd5b60975460405163d994d6d560e01b815233600482015290602090829060249082906001600160a01b03165afa90811561344e57600091613420575b501561340e57565b604051631dd1b1b560e21b8152600490fd5b613441915060203d8111613447575b6134398183612df2565b8101906133ae565b38613406565b503d61342f565b6040513d6000823e3d90fd5b60ff60ca5460081c1661346957565b60405163783bb6c960e11b8152600490fd5b1561348257565b60405162461bcd60e51b815260206004820152602b60248201527f496e697469616c697a61626c653a20636f6e7472616374206973206e6f74206960448201526a6e697469616c697a696e6760a81b6064820152608490fd5b9060009180835261019380602052604084209260018060a01b03169283855260205260ff604085205416156135105750505050565b8184526020526040832082845260205260408320600160ff198254161790557f2f8788117e7eff1d82e926ec794901d17c78024a50270940304540a733656f0d339380a438808080612eaf565b91908260809103126133c657604051613577608082612df2565b60608082948051845260208101516020850152604081015160408501520151910152565b60e0818303126133c6578051926135bf60208301519360606040850151940161355d565b90565b8060005260206101938152604060002033600052815260ff60406000205416156135ea575050565b6136806048613604836135fe6014336136a1565b956136a1565b936040519485917f416363657373436f6e74726f6c3a206163636f756e7420000000000000000000868401526136438151809288603787019101613366565b82017001034b99036b4b9b9b4b733903937b6329607d1b603782015261367182518093888785019101613366565b01036028810185520183612df2565b61336260405192839262461bcd60e51b845260048401526024830190613389565b60019180831b91906001600160ff1b038116036137e25760028201928383116137e2576136e66136d085612e2a565b946136de6040519687612df2565b808652612e2a565b6020939085850190601f19013682378551156137f8576030905384518210156137f857607860218601538181018091116137e257905b80821161377057505061372d575090565b6064906040519062461bcd60e51b825280600483015260248201527f537472696e67733a20686578206c656e67746820696e73756666696369656e746044820152fd5b9091600f811660108110156137cd5785518410156137cd576f181899199a1a9b1b9c1cb0b131b232b360811b901a85840185015360041c9180156137b857600019019061371c565b60246000634e487b7160e01b81526011600452fd5b60246000634e487b7160e01b81526032600452fd5b634e487b7160e01b600052601160045260246000fd5b634e487b7160e01b600052603260045260246000fd5b9060405161381d60a082612df2565b825481526001830154602082015260028301546001600160a01b0390811660408301526003840154811660608301526004909301549092166080830152565b909160c0828403126133c6576135bf82519360406020850151940161355d565b906020825192015163ffffffff60e01b90818116936004811061389e57505050565b60040360031b82901b16169150565b909160a092825263ffffffff60e01b16602082015260606040820152600c60608201526b4c6f7720636f76657261676560a01b60808201520190565b909160a092825263ffffffff60e01b166020820152606060408201526015606082015274125b9cdd59999a58da595b9d081c5858c81cd95b9d605a1b60808201520190565b94919260e0969399989794919961010087019a8752602087015260408601526060850152608084015260a083015260018060a01b031660c08201520152565b909160a092825263ffffffff60e01b16602082015260606040820152601a60608201527f7141432062656c6f77206d696e696d756d20726571756972656400000000000060808201520190565b906040516139c960c082612df2565b82546001600160a01b039081168252600184015460208301526002840154604083015260038401548116606083015260048401548116608083015260059093015490921660a0830152565b60a09081600180821b03918281511685526020810151602086015260408101516040860152826060820151166060860152826080820151166080860152015116910152565b95926101009794919a9998959261012088019b8852602088015260408701526060860152608085015260a084015260c083015260018060a01b031660e08201520152565b90604051613aac60e082612df2565b82546001600160a01b0390811682526001840154602083015260028401546040830152600384015460608301526004840154811660808301526005840154811660a083015260069093015490921660c0830152565b60c0908160018060a01b03918281511685526020810151602086015260408101516040860152606081015160608601528260808201511660808601528260a08201511660a0860152015116910152565b90600a811015613b695760ff80198354169116179055565b634e487b7160e01b600052602160045260246000fd5b356001600160a01b03811681036133c65790565b813581556020820135600182015560028101906001600160a01b0390613bfc9060809060049084613bc660408901613b7f565b16956001600160601b0360a01b96878254161790556003810185613bec60608a01613b7f565b1687825416179055019401613b7f565b1690825416179055565b60001981146137e25760010190565b6001600160a01b03613bfc60a0600583613c2e87613b7f565b16946001600160601b03831b958682541617815560208701356001820155604087013560028201556003810185613c6760608a01613b7f565b16878254161790556004810185613bec60808a01613b7f565b6001600160a01b03613bfc60c0600683613c9987613b7f565b16946001600160601b0360a01b95868254161781556020870135600182015560408701356002820155606087013560038201556004810185613cdd60808a01613b7f565b16878254161790556005810185613bec60a08a01613b7f565b6097546040805163d994d6d560e01b8152336004820152909291602090829060249082906001600160a01b03165afa908115613da457600091613d86575b5015908115613d56575b50613d465750565b51631dd1b1b560e21b8152600490fd5b90506000526101936020526001816000200154600052806000203360005260205260ff8160002054161538613d3e565b613d9e915060203d8111613447576134398183612df2565b38613d34565b83513d6000823e3d90fdfe5bbebb64d62396f99cae4b3b78d9386cb0f2893aab6a69f27eb61f8e7c29775e3ea497186958ec638834f65ec5a571c2b2e877e5d59a76804ec0448fac7829babfa5d40ab595fa613b17566ea5e38a5cac79a71f09ce1435246db2e6805816c27d5e686862ec2250829eb6dee4a7cb0834865072f135485c874d3bbbe39bdfdba26469706673582212205f2de59eb05fcddffca1abe945999aeef41876c1516bba33a88a372762e0196964736f6c63430008120033",
  "linkReferences": {},
  "deployedLinkReferences": {}
}