{
  "_format": "hh-sol-artifact-1",
  "contractName": "MocQueue",
  "sourceName": "moc-main/contracts/queue/MocQueue.sol",
  "abi": [
    {
      "inputs": [],
      "name": "ExecutionFeePaymentFailed",
      "type": "error"
    },
    {
      "inputs": [],
      "name": "InvalidAddress",
      "type": "error"
    },
    {
      "inputs": [],
      "name": "InvalidValue",
      "type": "error"
    },
    {
      "inputs": [],
      "name": "NotAllowOnNoneEmptyQueue",
      "type": "error"
    },
    {
      "inputs": [],
      "name": "NotAuthorizedChanger",
      "type": "error"
    },
    {
      "inputs": [],
      "name": "NotWhenPaused",
      "type": "error"
    },
    {
      "inputs": [],
      "name": "OnlyPauser",
      "type": "error"
    },
    {
      "inputs": [],
      "name": "OnlyWhilePaused",
      "type": "error"
    },
    {
      "inputs": [],
      "name": "Unstoppable",
      "type": "error"
    },
    {
      "inputs": [
        {
          "internalType": "uint256",
          "name": "expectedValue",
          "type": "uint256"
        }
      ],
      "name": "WrongExecutionFee",
      "type": "error"
    },
    {
      "anonymous": false,
      "inputs": [
        {
          "indexed": false,
          "internalType": "address",
          "name": "previousAdmin",
          "type": "address"
        },
        {
          "indexed": false,
          "internalType": "address",
          "name": "newAdmin",
          "type": "address"
        }
      ],
      "name": "AdminChanged",
      "type": "event"
    },
    {
      "anonymous": false,
      "inputs": [
        {
          "indexed": true,
          "internalType": "address",
          "name": "beacon",
          "type": "address"
        }
      ],
      "name": "BeaconUpgraded",
      "type": "event"
    },
    {
      "anonymous": false,
      "inputs": [
        {
          "indexed": false,
          "internalType": "uint8",
          "name": "version",
          "type": "uint8"
        }
      ],
      "name": "Initialized",
      "type": "event"
    },
    {
      "anonymous": false,
      "inputs": [
        {
          "indexed": false,
          "internalType": "uint256",
          "name": "operId_",
          "type": "uint256"
        },
        {
          "indexed": false,
          "internalType": "bytes4",
          "name": "errorCode_",
          "type": "bytes4"
        },
        {
          "indexed": false,
          "internalType": "string",
          "name": "msg_",
          "type": "string"
        }
      ],
      "name": "OperationError",
      "type": "event"
    },
    {
      "anonymous": false,
      "inputs": [
        {
          "indexed": true,
          "internalType": "address",
          "name": "executor",
          "type": "address"
        },
        {
          "indexed": true,
          "internalType": "uint256",
          "name": "operId_",
          "type": "uint256"
        }
      ],
      "name": "OperationExecuted",
      "type": "event"
    },
    {
      "anonymous": false,
      "inputs": [
        {
          "indexed": true,
          "internalType": "address",
          "name": "bucket_",
          "type": "address"
        },
        {
          "indexed": false,
          "internalType": "uint256",
          "name": "operId_",
          "type": "uint256"
        },
        {
          "indexed": false,
          "internalType": "enum MocQueue.OperType",
          "name": "operType_",
          "type": "uint8"
        }
      ],
      "name": "OperationQueued",
      "type": "event"
    },
    {
      "anonymous": false,
      "inputs": [
        {
          "indexed": false,
          "internalType": "address",
          "name": "account",
          "type": "address"
        }
      ],
      "name": "Paused",
      "type": "event"
    },
    {
      "anonymous": false,
      "inputs": [
        {
          "indexed": true,
          "internalType": "bytes32",
          "name": "role",
          "type": "bytes32"
        },
        {
          "indexed": true,
          "internalType": "bytes32",
          "name": "previousAdminRole",
          "type": "bytes32"
        },
        {
          "indexed": true,
          "internalType": "bytes32",
          "name": "newAdminRole",
          "type": "bytes32"
        }
      ],
      "name": "RoleAdminChanged",
      "type": "event"
    },
    {
      "anonymous": false,
      "inputs": [
        {
          "indexed": true,
          "internalType": "bytes32",
          "name": "role",
          "type": "bytes32"
        },
        {
          "indexed": true,
          "internalType": "address",
          "name": "account",
          "type": "address"
        },
        {
          "indexed": true,
          "internalType": "address",
          "name": "sender",
          "type": "address"
        }
      ],
      "name": "RoleGranted",
      "type": "event"
    },
    {
      "anonymous": false,
      "inputs": [
        {
          "indexed": true,
          "internalType": "bytes32",
          "name": "role",
          "type": "bytes32"
        },
        {
          "indexed": true,
          "internalType": "address",
          "name": "account",
          "type": "address"
        },
        {
          "indexed": true,
          "internalType": "address",
          "name": "sender",
          "type": "address"
        }
      ],
      "name": "RoleRevoked",
      "type": "event"
    },
    {
      "anonymous": false,
      "inputs": [
        {
          "indexed": true,
          "internalType": "address",
          "name": "sender_",
          "type": "address"
        },
        {
          "indexed": true,
          "internalType": "address",
          "name": "recipient_",
          "type": "address"
        },
        {
          "indexed": false,
          "internalType": "uint256",
          "name": "qTC_",
          "type": "uint256"
        },
        {
          "indexed": false,
          "internalType": "uint256",
          "name": "qAC_",
          "type": "uint256"
        },
        {
          "indexed": false,
          "internalType": "uint256",
          "name": "qACfee_",
          "type": "uint256"
        },
        {
          "indexed": false,
          "internalType": "uint256",
          "name": "qFeeToken_",
          "type": "uint256"
        },
        {
          "indexed": false,
          "internalType": "uint256",
          "name": "qACVendorMarkup_",
          "type": "uint256"
        },
        {
          "indexed": false,
          "internalType": "uint256",
          "name": "qFeeTokenVendorMarkup_",
          "type": "uint256"
        },
        {
          "indexed": false,
          "internalType": "address",
          "name": "vendor_",
          "type": "address"
        },
        {
          "indexed": false,
          "internalType": "uint256",
          "name": "operId_",
          "type": "uint256"
        }
      ],
      "name": "TCMinted",
      "type": "event"
    },
    {
      "anonymous": false,
      "inputs": [
        {
          "indexed": true,
          "internalType": "address",
          "name": "sender_",
          "type": "address"
        },
        {
          "indexed": true,
          "internalType": "address",
          "name": "recipient_",
          "type": "address"
        },
        {
          "indexed": false,
          "internalType": "uint256",
          "name": "qTC_",
          "type": "uint256"
        },
        {
          "indexed": false,
          "internalType": "uint256",
          "name": "qAC_",
          "type": "uint256"
        },
        {
          "indexed": false,
          "internalType": "uint256",
          "name": "qACfee_",
          "type": "uint256"
        },
        {
          "indexed": false,
          "internalType": "uint256",
          "name": "qFeeToken_",
          "type": "uint256"
        },
        {
          "indexed": false,
          "internalType": "uint256",
          "name": "qACVendorMarkup_",
          "type": "uint256"
        },
        {
          "indexed": false,
          "internalType": "uint256",
          "name": "qFeeTokenVendorMarkup_",
          "type": "uint256"
        },
        {
          "indexed": false,
          "internalType": "address",
          "name": "vendor_",
          "type": "address"
        },
        {
          "indexed": false,
          "internalType": "uint256",
          "name": "operId_",
          "type": "uint256"
        }
      ],
      "name": "TCRedeemed",
      "type": "event"
    },
    {
      "anonymous": false,
      "inputs": [
        {
          "indexed": true,
          "internalType": "address",
          "name": "tp_",
          "type": "address"
        },
        {
          "indexed": true,
          "internalType": "address",
          "name": "sender_",
          "type": "address"
        },
        {
          "indexed": true,
          "internalType": "address",
          "name": "recipient_",
          "type": "address"
        },
        {
          "indexed": false,
          "internalType": "uint256",
          "name": "qTC_",
          "type": "uint256"
        },
        {
          "indexed": false,
          "internalType": "uint256",
          "name": "qTP_",
          "type": "uint256"
        },
        {
          "indexed": false,
          "internalType": "uint256",
          "name": "qACfee_",
          "type": "uint256"
        },
        {
          "indexed": false,
          "internalType": "uint256",
          "name": "qFeeToken_",
          "type": "uint256"
        },
        {
          "indexed": false,
          "internalType": "uint256",
          "name": "qACVendorMarkup_",
          "type": "uint256"
        },
        {
          "indexed": false,
          "internalType": "uint256",
          "name": "qFeeTokenVendorMarkup_",
          "type": "uint256"
        },
        {
          "indexed": false,
          "internalType": "address",
          "name": "vendor_",
          "type": "address"
        },
        {
          "indexed": false,
          "internalType": "uint256",
          "name": "operId_",
          "type": "uint256"
        }
      ],
      "name": "TCSwappedForTP",
      "type": "event"
    },
    {
      "anonymous": false,
      "inputs": [
        {
          "indexed": true,
          "internalType": "address",
          "name": "tp_",
          "type": "address"
        },
        {
          "indexed": true,
          "internalType": "address",
          "name": "sender_",
          "type": "address"
        },
        {
          "indexed": true,
          "internalType": "address",
          "name": "recipient_",
          "type": "address"
        },
        {
          "indexed": false,
          "internalType": "uint256",
          "name": "qTC_",
          "type": "uint256"
        },
        {
          "indexed": false,
          "internalType": "uint256",
          "name": "qTP_",
          "type": "uint256"
        },
        {
          "indexed": false,
          "internalType": "uint256",
          "name": "qAC_",
          "type": "uint256"
        },
        {
          "indexed": false,
          "internalType": "uint256",
          "name": "qACfee_",
          "type": "uint256"
        },
        {
          "indexed": false,
          "internalType": "uint256",
          "name": "qFeeToken_",
          "type": "uint256"
        },
        {
          "indexed": false,
          "internalType": "uint256",
          "name": "qACVendorMarkup_",
          "type": "uint256"
        },
        {
          "indexed": false,
          "internalType": "uint256",
          "name": "qFeeTokenVendorMarkup_",
          "type": "uint256"
        },
        {
          "indexed": false,
          "internalType": "address",
          "name": "vendor_",
          "type": "address"
        },
        {
          "indexed": false,
          "internalType": "uint256",
          "name": "operId_",
          "type": "uint256"
        }
      ],
      "name": "TCandTPMinted",
      "type": "event"
    },
    {
      "anonymous": false,
      "inputs": [
        {
          "indexed": true,
          "internalType": "address",
          "name": "tp_",
          "type": "address"
        },
        {
          "indexed": true,
          "internalType": "address",
          "name": "sender_",
          "type": "address"
        },
        {
          "indexed": true,
          "internalType": "address",
          "name": "recipient_",
          "type": "address"
        },
        {
          "indexed": false,
          "internalType": "uint256",
          "name": "qTC_",
          "type": "uint256"
        },
        {
          "indexed": false,
          "internalType": "uint256",
          "name": "qTP_",
          "type": "uint256"
        },
        {
          "indexed": false,
          "internalType": "uint256",
          "name": "qAC_",
          "type": "uint256"
        },
        {
          "indexed": false,
          "internalType": "uint256",
          "name": "qACfee_",
          "type": "uint256"
        },
        {
          "indexed": false,
          "internalType": "uint256",
          "name": "qFeeToken_",
          "type": "uint256"
        },
        {
          "indexed": false,
          "internalType": "uint256",
          "name": "qACVendorMarkup_",
          "type": "uint256"
        },
        {
          "indexed": false,
          "internalType": "uint256",
          "name": "qFeeTokenVendorMarkup_",
          "type": "uint256"
        },
        {
          "indexed": false,
          "internalType": "address",
          "name": "vendor_",
          "type": "address"
        },
        {
          "indexed": false,
          "internalType": "uint256",
          "name": "operId_",
          "type": "uint256"
        }
      ],
      "name": "TCandTPRedeemed",
      "type": "event"
    },
    {
      "anonymous": false,
      "inputs": [
        {
          "indexed": true,
          "internalType": "address",
          "name": "tp",
          "type": "address"
        },
        {
          "indexed": true,
          "internalType": "address",
          "name": "sender_",
          "type": "address"
        },
        {
          "indexed": true,
          "internalType": "address",
          "name": "recipient_",
          "type": "address"
        },
        {
          "indexed": false,
          "internalType": "uint256",
          "name": "qTP_",
          "type": "uint256"
        },
        {
          "indexed": false,
          "internalType": "uint256",
          "name": "qAC_",
          "type": "uint256"
        },
        {
          "indexed": false,
          "internalType": "uint256",
          "name": "qACfee_",
          "type": "uint256"
        },
        {
          "indexed": false,
          "internalType": "uint256",
          "name": "qFeeToken_",
          "type": "uint256"
        },
        {
          "indexed": false,
          "internalType": "uint256",
          "name": "qACVendorMarkup_",
          "type": "uint256"
        },
        {
          "indexed": false,
          "internalType": "uint256",
          "name": "qFeeTokenVendorMarkup_",
          "type": "uint256"
        },
        {
          "indexed": false,
          "internalType": "address",
          "name": "vendor_",
          "type": "address"
        },
        {
          "indexed": false,
          "internalType": "uint256",
          "name": "operId_",
          "type": "uint256"
        }
      ],
      "name": "TPMinted",
      "type": "event"
    },
    {
      "anonymous": false,
      "inputs": [
        {
          "indexed": true,
          "internalType": "address",
          "name": "tp_",
          "type": "address"
        },
        {
          "indexed": true,
          "internalType": "address",
          "name": "sender_",
          "type": "address"
        },
        {
          "indexed": true,
          "internalType": "address",
          "name": "recipient_",
          "type": "address"
        },
        {
          "indexed": false,
          "internalType": "uint256",
          "name": "qTP_",
          "type": "uint256"
        },
        {
          "indexed": false,
          "internalType": "uint256",
          "name": "qAC_",
          "type": "uint256"
        },
        {
          "indexed": false,
          "internalType": "uint256",
          "name": "qACfee_",
          "type": "uint256"
        },
        {
          "indexed": false,
          "internalType": "uint256",
          "name": "qFeeToken_",
          "type": "uint256"
        },
        {
          "indexed": false,
          "internalType": "uint256",
          "name": "qACVendorMarkup_",
          "type": "uint256"
        },
        {
          "indexed": false,
          "internalType": "uint256",
          "name": "qFeeTokenVendorMarkup_",
          "type": "uint256"
        },
        {
          "indexed": false,
          "internalType": "address",
          "name": "vendor_",
          "type": "address"
        },
        {
          "indexed": false,
          "internalType": "uint256",
          "name": "operId_",
          "type": "uint256"
        }
      ],
      "name": "TPRedeemed",
      "type": "event"
    },
    {
      "anonymous": false,
      "inputs": [
        {
          "indexed": true,
          "internalType": "address",
          "name": "tp_",
          "type": "address"
        },
        {
          "indexed": true,
          "internalType": "address",
          "name": "sender_",
          "type": "address"
        },
        {
          "indexed": true,
          "internalType": "address",
          "name": "recipient_",
          "type": "address"
        },
        {
          "indexed": false,
          "internalType": "uint256",
          "name": "qTP_",
          "type": "uint256"
        },
        {
          "indexed": false,
          "internalType": "uint256",
          "name": "qTC_",
          "type": "uint256"
        },
        {
          "indexed": false,
          "internalType": "uint256",
          "name": "qACfee_",
          "type": "uint256"
        },
        {
          "indexed": false,
          "internalType": "uint256",
          "name": "qFeeToken_",
          "type": "uint256"
        },
        {
          "indexed": false,
          "internalType": "uint256",
          "name": "qACVendorMarkup_",
          "type": "uint256"
        },
        {
          "indexed": false,
          "internalType": "uint256",
          "name": "qFeeTokenVendorMarkup_",
          "type": "uint256"
        },
        {
          "indexed": false,
          "internalType": "address",
          "name": "vendor_",
          "type": "address"
        },
        {
          "indexed": false,
          "internalType": "uint256",
          "name": "operId_",
          "type": "uint256"
        }
      ],
      "name": "TPSwappedForTC",
      "type": "event"
    },
    {
      "anonymous": false,
      "inputs": [
        {
          "indexed": true,
          "internalType": "address",
          "name": "tpFrom_",
          "type": "address"
        },
        {
          "indexed": false,
          "internalType": "address",
          "name": "tpTo_",
          "type": "address"
        },
        {
          "indexed": true,
          "internalType": "address",
          "name": "sender_",
          "type": "address"
        },
        {
          "indexed": true,
          "internalType": "address",
          "name": "recipient_",
          "type": "address"
        },
        {
          "indexed": false,
          "internalType": "uint256",
          "name": "qTPfrom_",
          "type": "uint256"
        },
        {
          "indexed": false,
          "internalType": "uint256",
          "name": "qTPto_",
          "type": "uint256"
        },
        {
          "indexed": false,
          "internalType": "uint256",
          "name": "qACfee_",
          "type": "uint256"
        },
        {
          "indexed": false,
          "internalType": "uint256",
          "name": "qFeeToken_",
          "type": "uint256"
        },
        {
          "indexed": false,
          "internalType": "uint256",
          "name": "qACVendorMarkup_",
          "type": "uint256"
        },
        {
          "indexed": false,
          "internalType": "uint256",
          "name": "qFeeTokenVendorMarkup_",
          "type": "uint256"
        },
        {
          "indexed": false,
          "internalType": "address",
          "name": "vendor_",
          "type": "address"
        },
        {
          "indexed": false,
          "internalType": "uint256",
          "name": "operId_",
          "type": "uint256"
        }
      ],
      "name": "TPSwappedForTP",
      "type": "event"
    },
    {
      "anonymous": false,
      "inputs": [
        {
          "indexed": false,
          "internalType": "uint256",
          "name": "operId_",
          "type": "uint256"
        },
        {
          "indexed": false,
          "internalType": "bytes",
          "name": "reason_",
          "type": "bytes"
        }
      ],
      "name": "UnhandledError",
      "type": "event"
    },
    {
      "anonymous": false,
      "inputs": [
        {
          "indexed": false,
          "internalType": "address",
          "name": "account",
          "type": "address"
        }
      ],
      "name": "Unpaused",
      "type": "event"
    },
    {
      "anonymous": false,
      "inputs": [
        {
          "indexed": true,
          "internalType": "address",
          "name": "implementation",
          "type": "address"
        }
      ],
      "name": "Upgraded",
      "type": "event"
    },
    {
      "inputs": [],
      "name": "DEFAULT_ADMIN_ROLE",
      "outputs": [
        {
          "internalType": "bytes32",
          "name": "",
          "type": "bytes32"
        }
      ],
      "stateMutability": "view",
      "type": "function"
    },
    {
      "inputs": [],
      "name": "MAX_OPER_PER_BATCH",
      "outputs": [
        {
          "internalType": "uint256",
          "name": "",
          "type": "uint256"
        }
      ],
      "stateMutability": "view",
      "type": "function"
    },
    {
      "inputs": [
        {
          "internalType": "contract IGovernor",
          "name": "newGovernor_",
          "type": "address"
        }
      ],
      "name": "changeGovernor",
      "outputs": [],
      "stateMutability": "nonpayable",
      "type": "function"
    },
    {
      "inputs": [
        {
          "internalType": "address",
          "name": "executionFeeRecipient",
          "type": "address"
        }
      ],
      "name": "execute",
      "outputs": [],
      "stateMutability": "nonpayable",
      "type": "function"
    },
    {
      "inputs": [],
      "name": "firstOperId",
      "outputs": [
        {
          "internalType": "uint256",
          "name": "",
          "type": "uint256"
        }
      ],
      "stateMutability": "view",
      "type": "function"
    },
    {
      "inputs": [
        {
          "internalType": "bytes32",
          "name": "role",
          "type": "bytes32"
        }
      ],
      "name": "getRoleAdmin",
      "outputs": [
        {
          "internalType": "bytes32",
          "name": "",
          "type": "bytes32"
        }
      ],
      "stateMutability": "view",
      "type": "function"
    },
    {
      "inputs": [],
      "name": "governor",
      "outputs": [
        {
          "internalType": "contract IGovernor",
          "name": "",
          "type": "address"
        }
      ],
      "stateMutability": "view",
      "type": "function"
    },
    {
      "inputs": [
        {
          "internalType": "bytes32",
          "name": "role",
          "type": "bytes32"
        },
        {
          "internalType": "address",
          "name": "account",
          "type": "address"
        }
      ],
      "name": "grantRole",
      "outputs": [],
      "stateMutability": "nonpayable",
      "type": "function"
    },
    {
      "inputs": [
        {
          "internalType": "bytes32",
          "name": "role",
          "type": "bytes32"
        },
        {
          "internalType": "address",
          "name": "account",
          "type": "address"
        }
      ],
      "name": "hasRole",
      "outputs": [
        {
          "internalType": "bool",
          "name": "",
          "type": "bool"
        }
      ],
      "stateMutability": "view",
      "type": "function"
    },
    {
      "inputs": [
        {
          "internalType": "address",
          "name": "governor_",
          "type": "address"
        },
        {
          "internalType": "address",
          "name": "pauser_",
          "type": "address"
        },
        {
          "internalType": "uint256",
          "name": "minOperWaitingBlk_",
          "type": "uint256"
        },
        {
          "components": [
            {
              "internalType": "uint256",
              "name": "tcMintExecFee",
              "type": "uint256"
            },
            {
              "internalType": "uint256",
              "name": "tcRedeemExecFee",
              "type": "uint256"
            },
            {
              "internalType": "uint256",
              "name": "tpMintExecFee",
              "type": "uint256"
            },
            {
              "internalType": "uint256",
              "name": "tpRedeemExecFee",
              "type": "uint256"
            },
            {
              "internalType": "uint256",
              "name": "swapTPforTPExecFee",
              "type": "uint256"
            },
            {
              "internalType": "uint256",
              "name": "swapTPforTCExecFee",
              "type": "uint256"
            },
            {
              "internalType": "uint256",
              "name": "swapTCforTPExecFee",
              "type": "uint256"
            },
            {
              "internalType": "uint256",
              "name": "redeemTCandTPExecFee",
              "type": "uint256"
            },
            {
              "internalType": "uint256",
              "name": "mintTCandTPExecFee",
              "type": "uint256"
            }
          ],
          "internalType": "struct MocQueueExecFees.InitializeMocQueueExecFeesParams",
          "name": "mocQueueExecFeesParams_",
          "type": "tuple"
        }
      ],
      "name": "initialize",
      "outputs": [],
      "stateMutability": "nonpayable",
      "type": "function"
    },
    {
      "inputs": [],
      "name": "isEmpty",
      "outputs": [
        {
          "internalType": "bool",
          "name": "",
          "type": "bool"
        }
      ],
      "stateMutability": "view",
      "type": "function"
    },
    {
      "inputs": [],
      "name": "makeStoppable",
      "outputs": [],
      "stateMutability": "nonpayable",
      "type": "function"
    },
    {
      "inputs": [],
      "name": "makeUnstoppable",
      "outputs": [],
      "stateMutability": "nonpayable",
      "type": "function"
    },
    {
      "inputs": [],
      "name": "minOperWaitingBlk",
      "outputs": [
        {
          "internalType": "uint256",
          "name": "",
          "type": "uint256"
        }
      ],
      "stateMutability": "view",
      "type": "function"
    },
    {
      "inputs": [],
      "name": "mintTCandTPExecFee",
      "outputs": [
        {
          "internalType": "uint256",
          "name": "",
          "type": "uint256"
        }
      ],
      "stateMutability": "view",
      "type": "function"
    },
    {
      "inputs": [],
      "name": "mocCore",
      "outputs": [
        {
          "internalType": "contract MocCARC20Deferred",
          "name": "",
          "type": "address"
        }
      ],
      "stateMutability": "view",
      "type": "function"
    },
    {
      "inputs": [],
      "name": "operIdCount",
      "outputs": [
        {
          "internalType": "uint256",
          "name": "",
          "type": "uint256"
        }
      ],
      "stateMutability": "view",
      "type": "function"
    },
    {
      "inputs": [
        {
          "internalType": "uint256",
          "name": "",
          "type": "uint256"
        }
      ],
      "name": "operationsMintTC",
      "outputs": [
        {
          "internalType": "uint256",
          "name": "qTC",
          "type": "uint256"
        },
        {
          "internalType": "uint256",
          "name": "qACmax",
          "type": "uint256"
        },
        {
          "internalType": "address",
          "name": "sender",
          "type": "address"
        },
        {
          "internalType": "address",
          "name": "recipient",
          "type": "address"
        },
        {
          "internalType": "address",
          "name": "vendor",
          "type": "address"
        }
      ],
      "stateMutability": "view",
      "type": "function"
    },
    {
      "inputs": [
        {
          "internalType": "uint256",
          "name": "",
          "type": "uint256"
        }
      ],
      "name": "operationsMintTCandTP",
      "outputs": [
        {
          "internalType": "address",
          "name": "tp",
          "type": "address"
        },
        {
          "internalType": "uint256",
          "name": "qTP",
          "type": "uint256"
        },
        {
          "internalType": "uint256",
          "name": "qACmax",
          "type": "uint256"
        },
        {
          "internalType": "address",
          "name": "sender",
          "type": "address"
        },
        {
          "internalType": "address",
          "name": "recipient",
          "type": "address"
        },
        {
          "internalType": "address",
          "name": "vendor",
          "type": "address"
        }
      ],
      "stateMutability": "view",
      "type": "function"
    },
    {
      "inputs": [
        {
          "internalType": "uint256",
          "name": "",
          "type": "uint256"
        }
      ],
      "name": "operationsMintTP",
      "outputs": [
        {
          "internalType": "address",
          "name": "tp",
          "type": "address"
        },
        {
          "internalType": "uint256",
          "name": "qTP",
          "type": "uint256"
        },
        {
          "internalType": "uint256",
          "name": "qACmax",
          "type": "uint256"
        },
        {
          "internalType": "address",
          "name": "sender",
          "type": "address"
        },
        {
          "internalType": "address",
          "name": "recipient",
          "type": "address"
        },
        {
          "internalType": "address",
          "name": "vendor",
          "type": "address"
        }
      ],
      "stateMutability": "view",
      "type": "function"
    },
    {
      "inputs": [
        {
          "internalType": "uint256",
          "name": "",
          "type": "uint256"
        }
      ],
      "name": "operationsRedeemTC",
      "outputs": [
        {
          "internalType": "uint256",
          "name": "qTC",
          "type": "uint256"
        },
        {
          "internalType": "uint256",
          "name": "qACmin",
          "type": "uint256"
        },
        {
          "internalType": "address",
          "name": "sender",
          "type": "address"
        },
        {
          "internalType": "address",
          "name": "recipient",
          "type": "address"
        },
        {
          "internalType": "address",
          "name": "vendor",
          "type": "address"
        }
      ],
      "stateMutability": "view",
      "type": "function"
    },
    {
      "inputs": [
        {
          "internalType": "uint256",
          "name": "",
          "type": "uint256"
        }
      ],
      "name": "operationsRedeemTCandTP",
      "outputs": [
        {
          "internalType": "address",
          "name": "tp",
          "type": "address"
        },
        {
          "internalType": "uint256",
          "name": "qTC",
          "type": "uint256"
        },
        {
          "internalType": "uint256",
          "name": "qTP",
          "type": "uint256"
        },
        {
          "internalType": "uint256",
          "name": "qACmin",
          "type": "uint256"
        },
        {
          "internalType": "address",
          "name": "sender",
          "type": "address"
        },
        {
          "internalType": "address",
          "name": "recipient",
          "type": "address"
        },
        {
          "internalType": "address",
          "name": "vendor",
          "type": "address"
        }
      ],
      "stateMutability": "view",
      "type": "function"
    },
    {
      "inputs": [
        {
          "internalType": "uint256",
          "name": "",
          "type": "uint256"
        }
      ],
      "name": "operationsRedeemTP",
      "outputs": [
        {
          "internalType": "address",
          "name": "tp",
          "type": "address"
        },
        {
          "internalType": "uint256",
          "name": "qTP",
          "type": "uint256"
        },
        {
          "internalType": "uint256",
          "name": "qACmin",
          "type": "uint256"
        },
        {
          "internalType": "address",
          "name": "sender",
          "type": "address"
        },
        {
          "internalType": "address",
          "name": "recipient",
          "type": "address"
        },
        {
          "internalType": "address",
          "name": "vendor",
          "type": "address"
        }
      ],
      "stateMutability": "view",
      "type": "function"
    },
    {
      "inputs": [
        {
          "internalType": "uint256",
          "name": "",
          "type": "uint256"
        }
      ],
      "name": "operationsSwapTCforTP",
      "outputs": [
        {
          "internalType": "address",
          "name": "tp",
          "type": "address"
        },
        {
          "internalType": "uint256",
          "name": "qTC",
          "type": "uint256"
        },
        {
          "internalType": "uint256",
          "name": "qTPmin",
          "type": "uint256"
        },
        {
          "internalType": "uint256",
          "name": "qACmax",
          "type": "uint256"
        },
        {
          "internalType": "address",
          "name": "sender",
          "type": "address"
        },
        {
          "internalType": "address",
          "name": "recipient",
          "type": "address"
        },
        {
          "internalType": "address",
          "name": "vendor",
          "type": "address"
        }
      ],
      "stateMutability": "view",
      "type": "function"
    },
    {
      "inputs": [
        {
          "internalType": "uint256",
          "name": "",
          "type": "uint256"
        }
      ],
      "name": "operationsSwapTPforTC",
      "outputs": [
        {
          "internalType": "address",
          "name": "tp",
          "type": "address"
        },
        {
          "internalType": "uint256",
          "name": "qTP",
          "type": "uint256"
        },
        {
          "internalType": "uint256",
          "name": "qTCmin",
          "type": "uint256"
        },
        {
          "internalType": "uint256",
          "name": "qACmax",
          "type": "uint256"
        },
        {
          "internalType": "address",
          "name": "sender",
          "type": "address"
        },
        {
          "internalType": "address",
          "name": "recipient",
          "type": "address"
        },
        {
          "internalType": "address",
          "name": "vendor",
          "type": "address"
        }
      ],
      "stateMutability": "view",
      "type": "function"
    },
    {
      "inputs": [
        {
          "internalType": "uint256",
          "name": "",
          "type": "uint256"
        }
      ],
      "name": "operationsSwapTPforTP",
      "outputs": [
        {
          "internalType": "address",
          "name": "tpFrom",
          "type": "address"
        },
        {
          "internalType": "address",
          "name": "tpTo",
          "type": "address"
        },
        {
          "internalType": "uint256",
          "name": "qTP",
          "type": "uint256"
        },
        {
          "internalType": "uint256",
          "name": "qTPmin",
          "type": "uint256"
        },
        {
          "internalType": "uint256",
          "name": "qACmax",
          "type": "uint256"
        },
        {
          "internalType": "address",
          "name": "sender",
          "type": "address"
        },
        {
          "internalType": "address",
          "name": "recipient",
          "type": "address"
        },
        {
          "internalType": "address",
          "name": "vendor",
          "type": "address"
        }
      ],
      "stateMutability": "view",
      "type": "function"
    },
    {
      "inputs": [
        {
          "internalType": "uint256",
          "name": "",
          "type": "uint256"
        }
      ],
      "name": "opersInfo",
      "outputs": [
        {
          "internalType": "enum MocQueue.OperType",
          "name": "operType",
          "type": "uint8"
        },
        {
          "internalType": "uint248",
          "name": "queuedBlk",
          "type": "uint248"
        }
      ],
      "stateMutability": "view",
      "type": "function"
    },
    {
      "inputs": [],
      "name": "pause",
      "outputs": [],
      "stateMutability": "nonpayable",
      "type": "function"
    },
    {
      "inputs": [],
      "name": "paused",
      "outputs": [
        {
          "internalType": "bool",
          "name": "",
          "type": "bool"
        }
      ],
      "stateMutability": "view",
      "type": "function"
    },
    {
      "inputs": [],
      "name": "pauser",
      "outputs": [
        {
          "internalType": "address",
          "name": "",
          "type": "address"
        }
      ],
      "stateMutability": "view",
      "type": "function"
    },
    {
      "inputs": [],
      "name": "proxiableUUID",
      "outputs": [
        {
          "internalType": "bytes32",
          "name": "",
          "type": "bytes32"
        }
      ],
      "stateMutability": "view",
      "type": "function"
    },
    {
      "inputs": [
        {
          "components": [
            {
              "internalType": "uint256",
              "name": "qTC",
              "type": "uint256"
            },
            {
              "internalType": "uint256",
              "name": "qACmax",
              "type": "uint256"
            },
            {
              "internalType": "address",
              "name": "sender",
              "type": "address"
            },
            {
              "internalType": "address",
              "name": "recipient",
              "type": "address"
            },
            {
              "internalType": "address",
              "name": "vendor",
              "type": "address"
            }
          ],
          "internalType": "struct MocCore.MintTCParams",
          "name": "params",
          "type": "tuple"
        }
      ],
      "name": "queueMintTC",
      "outputs": [
        {
          "internalType": "uint256",
          "name": "operId",
          "type": "uint256"
        }
      ],
      "stateMutability": "payable",
      "type": "function"
    },
    {
      "inputs": [
        {
          "components": [
            {
              "internalType": "address",
              "name": "tp",
              "type": "address"
            },
            {
              "internalType": "uint256",
              "name": "qTP",
              "type": "uint256"
            },
            {
              "internalType": "uint256",
              "name": "qACmax",
              "type": "uint256"
            },
            {
              "internalType": "address",
              "name": "sender",
              "type": "address"
            },
            {
              "internalType": "address",
              "name": "recipient",
              "type": "address"
            },
            {
              "internalType": "address",
              "name": "vendor",
              "type": "address"
            }
          ],
          "internalType": "struct MocCore.MintTCandTPParams",
          "name": "params",
          "type": "tuple"
        }
      ],
      "name": "queueMintTCandTP",
      "outputs": [
        {
          "internalType": "uint256",
          "name": "operId",
          "type": "uint256"
        }
      ],
      "stateMutability": "payable",
      "type": "function"
    },
    {
      "inputs": [
        {
          "components": [
            {
              "internalType": "address",
              "name": "tp",
              "type": "address"
            },
            {
              "internalType": "uint256",
              "name": "qTP",
              "type": "uint256"
            },
            {
              "internalType": "uint256",
              "name": "qACmax",
              "type": "uint256"
            },
            {
              "internalType": "address",
              "name": "sender",
              "type": "address"
            },
            {
              "internalType": "address",
              "name": "recipient",
              "type": "address"
            },
            {
              "internalType": "address",
              "name": "vendor",
              "type": "address"
            }
          ],
          "internalType": "struct MocCore.MintTPParams",
          "name": "params",
          "type": "tuple"
        }
      ],
      "name": "queueMintTP",
      "outputs": [
        {
          "internalType": "uint256",
          "name": "operId",
          "type": "uint256"
        }
      ],
      "stateMutability": "payable",
      "type": "function"
    },
    {
      "inputs": [
        {
          "components": [
            {
              "internalType": "uint256",
              "name": "qTC",
              "type": "uint256"
            },
            {
              "internalType": "uint256",
              "name": "qACmin",
              "type": "uint256"
            },
            {
              "internalType": "address",
              "name": "sender",
              "type": "address"
            },
            {
              "internalType": "address",
              "name": "recipient",
              "type": "address"
            },
            {
              "internalType": "address",
              "name": "vendor",
              "type": "address"
            }
          ],
          "internalType": "struct MocCore.RedeemTCParams",
          "name": "params",
          "type": "tuple"
        }
      ],
      "name": "queueRedeemTC",
      "outputs": [
        {
          "internalType": "uint256",
          "name": "operId",
          "type": "uint256"
        }
      ],
      "stateMutability": "payable",
      "type": "function"
    },
    {
      "inputs": [
        {
          "components": [
            {
              "internalType": "address",
              "name": "tp",
              "type": "address"
            },
            {
              "internalType": "uint256",
              "name": "qTC",
              "type": "uint256"
            },
            {
              "internalType": "uint256",
              "name": "qTP",
              "type": "uint256"
            },
            {
              "internalType": "uint256",
              "name": "qACmin",
              "type": "uint256"
            },
            {
              "internalType": "address",
              "name": "sender",
              "type": "address"
            },
            {
              "internalType": "address",
              "name": "recipient",
              "type": "address"
            },
            {
              "internalType": "address",
              "name": "vendor",
              "type": "address"
            }
          ],
          "internalType": "struct MocCore.RedeemTCandTPParams",
          "name": "params",
          "type": "tuple"
        }
      ],
      "name": "queueRedeemTCandTP",
      "outputs": [
        {
          "internalType": "uint256",
          "name": "operId",
          "type": "uint256"
        }
      ],
      "stateMutability": "payable",
      "type": "function"
    },
    {
      "inputs": [
        {
          "components": [
            {
              "internalType": "address",
              "name": "tp",
              "type": "address"
            },
            {
              "internalType": "uint256",
              "name": "qTP",
              "type": "uint256"
            },
            {
              "internalType": "uint256",
              "name": "qACmin",
              "type": "uint256"
            },
            {
              "internalType": "address",
              "name": "sender",
              "type": "address"
            },
            {
              "internalType": "address",
              "name": "recipient",
              "type": "address"
            },
            {
              "internalType": "address",
              "name": "vendor",
              "type": "address"
            }
          ],
          "internalType": "struct MocCommons.RedeemTPParams",
          "name": "params",
          "type": "tuple"
        }
      ],
      "name": "queueRedeemTP",
      "outputs": [
        {
          "internalType": "uint256",
          "name": "operId",
          "type": "uint256"
        }
      ],
      "stateMutability": "payable",
      "type": "function"
    },
    {
      "inputs": [
        {
          "components": [
            {
              "internalType": "address",
              "name": "tp",
              "type": "address"
            },
            {
              "internalType": "uint256",
              "name": "qTC",
              "type": "uint256"
            },
            {
              "internalType": "uint256",
              "name": "qTPmin",
              "type": "uint256"
            },
            {
              "internalType": "uint256",
              "name": "qACmax",
              "type": "uint256"
            },
            {
              "internalType": "address",
              "name": "sender",
              "type": "address"
            },
            {
              "internalType": "address",
              "name": "recipient",
              "type": "address"
            },
            {
              "internalType": "address",
              "name": "vendor",
              "type": "address"
            }
          ],
          "internalType": "struct MocCommons.SwapTCforTPParams",
          "name": "params",
          "type": "tuple"
        }
      ],
      "name": "queueSwapTCforTP",
      "outputs": [
        {
          "internalType": "uint256",
          "name": "operId",
          "type": "uint256"
        }
      ],
      "stateMutability": "payable",
      "type": "function"
    },
    {
      "inputs": [
        {
          "components": [
            {
              "internalType": "address",
              "name": "tp",
              "type": "address"
            },
            {
              "internalType": "uint256",
              "name": "qTP",
              "type": "uint256"
            },
            {
              "internalType": "uint256",
              "name": "qTCmin",
              "type": "uint256"
            },
            {
              "internalType": "uint256",
              "name": "qACmax",
              "type": "uint256"
            },
            {
              "internalType": "address",
              "name": "sender",
              "type": "address"
            },
            {
              "internalType": "address",
              "name": "recipient",
              "type": "address"
            },
            {
              "internalType": "address",
              "name": "vendor",
              "type": "address"
            }
          ],
          "internalType": "struct MocCommons.SwapTPforTCParams",
          "name": "params",
          "type": "tuple"
        }
      ],
      "name": "queueSwapTPforTC",
      "outputs": [
        {
          "internalType": "uint256",
          "name": "operId",
          "type": "uint256"
        }
      ],
      "stateMutability": "payable",
      "type": "function"
    },
    {
      "inputs": [
        {
          "components": [
            {
              "internalType": "address",
              "name": "tpFrom",
              "type": "address"
            },
            {
              "internalType": "address",
              "name": "tpTo",
              "type": "address"
            },
            {
              "internalType": "uint256",
              "name": "qTP",
              "type": "uint256"
            },
            {
              "internalType": "uint256",
              "name": "qTPmin",
              "type": "uint256"
            },
            {
              "internalType": "uint256",
              "name": "qACmax",
              "type": "uint256"
            },
            {
              "internalType": "address",
              "name": "sender",
              "type": "address"
            },
            {
              "internalType": "address",
              "name": "recipient",
              "type": "address"
            },
            {
              "internalType": "address",
              "name": "vendor",
              "type": "address"
            }
          ],
          "internalType": "struct MocCommons.SwapTPforTPParams",
          "name": "params",
          "type": "tuple"
        }
      ],
      "name": "queueSwapTPforTP",
      "outputs": [
        {
          "internalType": "uint256",
          "name": "operId",
          "type": "uint256"
        }
      ],
      "stateMutability": "payable",
      "type": "function"
    },
    {
      "inputs": [],
      "name": "redeemTCandTPExecFee",
      "outputs": [
        {
          "internalType": "uint256",
          "name": "",
          "type": "uint256"
        }
      ],
      "stateMutability": "view",
      "type": "function"
    },
    {
      "inputs": [
        {
          "internalType": "contract MocCARC20Deferred",
          "name": "bucket",
          "type": "address"
        }
      ],
      "name": "registerBucket",
      "outputs": [],
      "stateMutability": "nonpayable",
      "type": "function"
    },
    {
      "inputs": [
        {
          "internalType": "bytes32",
          "name": "role",
          "type": "bytes32"
        },
        {
          "internalType": "address",
          "name": "account",
          "type": "address"
        }
      ],
      "name": "renounceRole",
      "outputs": [],
      "stateMutability": "nonpayable",
      "type": "function"
    },
    {
      "inputs": [
        {
          "internalType": "bytes32",
          "name": "role",
          "type": "bytes32"
        },
        {
          "internalType": "address",
          "name": "account",
          "type": "address"
        }
      ],
      "name": "revokeRole",
      "outputs": [],
      "stateMutability": "nonpayable",
      "type": "function"
    },
    {
      "inputs": [
        {
          "internalType": "uint256",
          "name": "minOperWaitingBlk_",
          "type": "uint256"
        }
      ],
      "name": "setMinOperWaitingBlk",
      "outputs": [],
      "stateMutability": "nonpayable",
      "type": "function"
    },
    {
      "inputs": [
        {
          "internalType": "address",
          "name": "newPauser_",
          "type": "address"
        }
      ],
      "name": "setPauser",
      "outputs": [],
      "stateMutability": "nonpayable",
      "type": "function"
    },
    {
      "inputs": [],
      "name": "stoppable",
      "outputs": [
        {
          "internalType": "bool",
          "name": "",
          "type": "bool"
        }
      ],
      "stateMutability": "view",
      "type": "function"
    },
    {
      "inputs": [
        {
          "internalType": "bytes4",
          "name": "interfaceId",
          "type": "bytes4"
        }
      ],
      "name": "supportsInterface",
      "outputs": [
        {
          "internalType": "bool",
          "name": "",
          "type": "bool"
        }
      ],
      "stateMutability": "view",
      "type": "function"
    },
    {
      "inputs": [],
      "name": "swapTCforTPExecFee",
      "outputs": [
        {
          "internalType": "uint256",
          "name": "",
          "type": "uint256"
        }
      ],
      "stateMutability": "view",
      "type": "function"
    },
    {
      "inputs": [],
      "name": "swapTPforTCExecFee",
      "outputs": [
        {
          "internalType": "uint256",
          "name": "",
          "type": "uint256"
        }
      ],
      "stateMutability": "view",
      "type": "function"
    },
    {
      "inputs": [],
      "name": "swapTPforTPExecFee",
      "outputs": [
        {
          "internalType": "uint256",
          "name": "",
          "type": "uint256"
        }
      ],
      "stateMutability": "view",
      "type": "function"
    },
    {
      "inputs": [],
      "name": "tcMintExecFee",
      "outputs": [
        {
          "internalType": "uint256",
          "name": "",
          "type": "uint256"
        }
      ],
      "stateMutability": "view",
      "type": "function"
    },
    {
      "inputs": [],
      "name": "tcRedeemExecFee",
      "outputs": [
        {
          "internalType": "uint256",
          "name": "",
          "type": "uint256"
        }
      ],
      "stateMutability": "view",
      "type": "function"
    },
    {
      "inputs": [],
      "name": "tpMintExecFee",
      "outputs": [
        {
          "internalType": "uint256",
          "name": "",
          "type": "uint256"
        }
      ],
      "stateMutability": "view",
      "type": "function"
    },
    {
      "inputs": [],
      "name": "tpRedeemExecFee",
      "outputs": [
        {
          "internalType": "uint256",
          "name": "",
          "type": "uint256"
        }
      ],
      "stateMutability": "view",
      "type": "function"
    },
    {
      "inputs": [],
      "name": "unpause",
      "outputs": [],
      "stateMutability": "nonpayable",
      "type": "function"
    },
    {
      "inputs": [
        {
          "components": [
            {
              "internalType": "uint256",
              "name": "tcMintExecFee",
              "type": "uint256"
            },
            {
              "internalType": "uint256",
              "name": "tcRedeemExecFee",
              "type": "uint256"
            },
            {
              "internalType": "uint256",
              "name": "tpMintExecFee",
              "type": "uint256"
            },
            {
              "internalType": "uint256",
              "name": "tpRedeemExecFee",
              "type": "uint256"
            },
            {
              "internalType": "uint256",
              "name": "swapTPforTPExecFee",
              "type": "uint256"
            },
            {
              "internalType": "uint256",
              "name": "swapTPforTCExecFee",
              "type": "uint256"
            },
            {
              "internalType": "uint256",
              "name": "swapTCforTPExecFee",
              "type": "uint256"
            },
            {
              "internalType": "uint256",
              "name": "redeemTCandTPExecFee",
              "type": "uint256"
            },
            {
              "internalType": "uint256",
              "name": "mintTCandTPExecFee",
              "type": "uint256"
            }
          ],
          "internalType": "struct MocQueueExecFees.InitializeMocQueueExecFeesParams",
          "name": "mocQueueExecFeesParams_",
          "type": "tuple"
        }
      ],
      "name": "updateExecutionFees",
      "outputs": [],
      "stateMutability": "nonpayable",
      "type": "function"
    },
    {
      "inputs": [
        {
          "internalType": "address",
          "name": "newImplementation",
          "type": "address"
        }
      ],
      "name": "upgradeTo",
      "outputs": [],
      "stateMutability": "nonpayable",
      "type": "function"
    },
    {
      "inputs": [
        {
          "internalType": "address",
          "name": "newImplementation",
          "type": "address"
        },
        {
          "internalType": "bytes",
          "name": "data",
          "type": "bytes"
        }
      ],
      "name": "upgradeToAndCall",
      "outputs": [],
      "stateMutability": "payable",
      "type": "function"
    }
  ],
  "bytecode": "0x60a08060405234610031573060805261499290816100378239608051818181611066015281816111d501526121ad0152f35b600080fdfe6080604052600436101561001257600080fd5b60003560e01c8062c6e88e1461263f57806301ffc9a7146125e95780630c340a24146125c05780631826ebf01461255c5780631a0c5440146124ee578063248a9ca3146124be5780632b9948491461249f5780632d88af4a1461244a5780632f2ff15d1461241657806334975a41146122a857806336568abe146122145780633659cfe61461217b5780633dc8797a1461215c5780633f4ba83a146120e25780633fa9e0c6146120c3578063435c7e371461203957806347d8496a14611f6c5780634981d04e14611f295780634b64e492146112385780634f1ef2861461114e5780635210570c1461112957806352d1902d146110535780635c817aa314610fef5780635c975abb14610fc957806364d9e82114610faa578063681fe70c14610f865780636827435714610f5e5780636b59c22f14610e915780636b76333014610e2d57806373e3d08614610e0e5780637656cd1014610def5780637c50b7e414610dab5780637e81a82114610cde5780638456cb5914610c485780638a4737ab14610be95780638b20076c14610b8a5780638e7e818914610b6b57806391d1485414610b1857806397ac81fb14610af95780639aac1c2a14610ada5780639fd0506d14610aad578063a217fddf14610a91578063a6859a7914610891578063ad16c2de14610823578063bb4872de14610800578063bbe720d9146107a6578063c84d8bb6146106d9578063c9dccc16146106b7578063cf340bd71461069b578063d17910e21461067c578063d547741f14610641578063d9a862d614610617578063e4c0aaf4146105d1578063e4e1b72914610504578063e97a4d6314610437578063eeab6f4b14610418578063f2cee87a146103f9578063fa91a9a51461030c5763fb8aafb8146102a457600080fd5b346103075760203660031901126103075760043560005261026a602052604060002060018060a01b03610303818354169160018401549360028101549180600383015416906005816004850154169301541692604051968796876127a3565b0390f35b600080fd5b60a036600319011261030757610320612da9565b61033760008051602061493d833981519152612eac565b6103436101f8546147b1565b61026580546040519161035760408461274f565b60028352602083019260018060f81b03431684528260005261027060205260406000209051600a8110156103e35760ff6020958119905160081b1691161790558160005261026983526103af6004604060002061464e565b60405182815260028482015260008051602061491d83398151915260403392a26103d981546146c1565b9055604051908152f35b634e487b7160e01b600052602160045260246000fd5b346103075760003660031901126103075760206101fd54604051908152f35b346103075760003660031901126103075760206101fb54604051908152f35b60a03660031901126103075761044b612da9565b61046260008051602061493d833981519152612eac565b61046e6101f7546147b1565b61026580546040519161048260408461274f565b60018352602083019260018060f81b03431684528260005261027060205260406000209051600a8110156103e35760ff6020958119905160081b1691161790558160005261026783526104da6004604060002061464e565b60405182815260018482015260008051602061491d83398151915260403392a26103d981546146c1565b60e036600319011261030757610518612da9565b61052f60008051602061493d833981519152612eac565b61053b6101fe546147b1565b61026580546040519161054f60408461274f565b60068352602083019260018060f81b03431684528260005261027060205260406000209051600a8110156103e35760ff6020958119905160081b1691161790558160005261026c83526105a76004604060002061473b565b60405182815260068482015260008051602061491d83398151915260403392a26103d981546146c1565b34610307576020366003190112610307576004356001600160a01b03811690819003610307576105ff612d26565b6001600160601b0360a01b6097541617609755600080f35b3461030757600036600319011261030757610264546040516001600160a01b039091168152602090f35b34610307576040366003190112610307576004356024356001600160a01b0381168103610307578161067561067a93614823565b6127dd565b005b346103075760003660031901126103075760206101fa54604051908152f35b34610307576000366003190112610307576020604051600a8152f35b34610307576020366003190112610307576106d0612d26565b60043561027155005b60c0366003190112610307576106ed612da9565b61070460008051602061493d833981519152612eac565b6107106101fa546147b1565b61026580546040519161072460408461274f565b60048352602083019260018060f81b03431684528260005261027060205260406000209051600a8110156103e35760ff6020958119905160081b1691161790558160005261026a835261077c600460406000206146d0565b60405182815260048482015260008051602061491d83398151915260403392a26103d981546146c1565b34610307576020366003190112610307576004356001600160a01b038116908190036103075761026480546001600160a01b0319168217905561067a9060008051602061493d8339815191526107fb81614823565b612e2a565b3461030757600036600319011261030757602060ff60ca54166040519015158152f35b34610307576020366003190112610307576004803560009081526102696020908152604091829020805460018201546002830154600384015493909601548551928352938201526001600160a01b03948516938101939093528316606083015291909116608082015260a090f35b3461030757610180366003190112610307576004356001600160a01b038181169182900361030757602435908116810361030757610120366063190112610307576000549160ff8360081c161592838094610a84575b8015610a6d575b15610a115761098592600191858360ff198316176000556109ff575b5060ff60005460081c169261091e84612dca565b61092784612dca565b61093084612dca565b61093984612dca565b61094284612dca565b6001600160601b0360a01b609754161760975561095e83612dca565b60ca5490620100008360b01b039060101b169061ff018360b01b031916171760ca55612dca565b61098f60646147d3565b6109a960ff60005460081c166109a481612dca565b612dca565b6001610232556109ba336000612e2a565b604435610271556109c757005b61ff0019600054166000557f7f26b83ff96e1f2b6a682f133852f6798a09c465da95921460cefb3847402498602060405160018152a1005b61ffff1916610101176000558561090a565b60405162461bcd60e51b815260206004820152602e60248201527f496e697469616c697a61626c653a20636f6e747261637420697320616c72656160448201526d191e481a5b9a5d1a585b1a5e995960921b6064820152608490fd5b50303b1580156108ee5750600160ff8216146108ee565b50600160ff8216106108e7565b3461030757600036600319011261030757602060405160008152f35b346103075760003660031901126103075760ca5460405160109190911c6001600160a01b03168152602090f35b346103075760003660031901126103075760206101f754604051908152f35b346103075760003660031901126103075760206101f854604051908152f35b34610307576040366003190112610307576024356001600160a01b0381169081900361030757600435600052610193602052604060002090600052602052602060ff604060002054166040519015158152f35b3461030757600036600319011261030757602061027154604051908152f35b346103075760203660031901126103075760043560005261026b602052604060002060018060a01b03610303818354169160018401549360028101549180600383015416906005816004850154169301541692604051968796876127a3565b3461030757602036600319011261030757600435600052610268602052604060002060018060a01b03610303818354169160018401549360028101549180600383015416906005816004850154169301541692604051968796876127a3565b3461030757600036600319011261030757610c61612da9565b60ca54601081901c6001600160a01b03163303610ccc5760ff811615610cba576101009061ff0019161760ca557f62e78cea01bee320cd4e420270b5ea74000d11b0c9f74754ebdbfc544b05a2586020604051338152a1005b60405163866099c360e01b8152600490fd5b604051631d77d47760e21b8152600490fd5b60c036600319011261030757610cf2612da9565b610d0960008051602061493d833981519152612eac565b610d156101f9546147b1565b610265805460405191610d2960408461274f565b60038352602083019260018060f81b03431684528260005261027060205260406000209051600a8110156103e35760ff6020958119905160081b169116179055816000526102688352610d81600460406000206146d0565b60405182815260038482015260008051602061491d83398151915260403392a26103d981546146c1565b346103075760203660031901126103075760043560005261027060205260406000205460ff81169060405190600a8310156103e357604092825260081c6020820152f35b346103075760003660031901126103075760206101fe54604051908152f35b3461030757600036600319011261030757602061026554604051908152f35b346103075760203660031901126103075760043560005261026c602052604060002060018060a01b0361030381835416916001840154936002810154916003820154816004840154169160068160058601541694015416936040519788978861270c565b60e036600319011261030757610ea5612da9565b610ebc60008051602061493d833981519152612eac565b610ec86101fd546147b1565b610265805460405191610edc60408461274f565b60078352602083019260018060f81b03431684528260005261027060205260406000209051600a8110156103e35760ff6020958119905160081b1691161790558160005261026d8352610f346004604060002061473b565b60405182815260078482015260008051602061491d83398151915260403392a26103d981546146c1565b3461030757600036600319011261030757610f77612d26565b60ca805460ff19166001179055005b34610307576000366003190112610307576020610266546102655414604051908152f35b346103075760003660031901126103075760206101fc54604051908152f35b3461030757600036600319011261030757602060ff60ca5460081c166040519015158152f35b346103075760203660031901126103075760043560005261026e602052604060002060018060a01b0361030381835416916001840154936002810154916003820154816004840154169160068160058601541694015416936040519788978861270c565b34610307576000366003190112610307577f00000000000000000000000000000000000000000000000000000000000000006001600160a01b031630036110be5760206040517f360894a13ba1a3210667c828492db98dca3e2076cc3735a920a3ca505d382bbc8152f35b60405162461bcd60e51b815260206004820152603860248201527f555550535570677261646561626c653a206d757374206e6f742062652063616c60448201527f6c6564207468726f7567682064656c656761746563616c6c00000000000000006064820152608490fd5b3461030757600036600319011261030757611142612d26565b60ca805460ff19169055005b6040366003190112610307576001600160a01b0360043581811681036103075760243567ffffffffffffffff811161030757366023820112156103075780600401359161119a83612787565b916111a8604051938461274f565b83835236602485830101116103075761067a946000602086600197602461122b96018389013786010152807f000000000000000000000000000000000000000000000000000000000000000016906112028230141561285c565b7f360894a13ba1a3210667c828492db98dca3e2076cc3735a920a3ca505d382bbc5416146128bd565b611233612d26565b61291e565b34610307576020366003190112610307576004356001600160a01b038116900361030757611264612da9565b60026102325414611ee45760026102325561129e7fd8aa0f3194971a2a116679f7c2090f6939c8d4e01a2a8d7e41d55e5351469e63612eac565b6102665461026554600a820180821015611edd57505b610271544303438111611ec75791906000925b818310611314575b505061026655806112e3575b600161023255005b6000808080936004355af16112f6612bf9565b501561130257806112db565b604051638f58940960e01b8152600490fd5b90916000906000918160005261027060205260406000206040519061133a60408361274f565b5490600a60ff831610156103e35760ff8216815285602060089284841c9182910152116000146113cf575050509050600090816000925b6113b9575b156113b25780600191337fb207e6b6b26274f3764b879e578b4539b8e37f41dff43932ddc87b3e04090974600080a301930191909291926112c7565b92506112cf565b8160005261027060205260006040812055611376565b60ff821660010361168d575050508091506000526102676020526113f660406000206130e2565b61026480546040805163235e81cf60e01b81528451600482015260208501516024820152908401516001600160a01b0390811660448301526060850151811660648301526080850151811660848301529091600091168260a48160c09485945af1600092839282611658575b50506115dc575050611472612bf9565b61147b81613191565b906001600160e01b03198216630b63f1a760e01b81036115775750506114b76000805160206148dd8339815191529160405191829187836131fe565b0390a15b5460408201516020909201516001600160a01b039182169290911690823b15610307576040516358f32de960e01b81526001600160a01b039290921660048301526024820152906000908290604490829084905af1801561156b5761155a575b505b8060005261026760205261154d604060002060046000918281558260018201558260028201558260038201550155565b6101f75490600180611371565b60006115659161274f565b8461151b565b6040513d6000823e3d90fd5b637912120160e01b036115ad57506115a56000805160206148dd8339815191529160405191829187836131c2565b0390a16114bb565b6000805160206148fd83398151915291506115a590604051918291878352604060208401526040830190612ce9565b7f5090a820029acae4d47b64da9af62ce04a5a1bdb546934e5fcfe091ee1f780ee91925060018060a01b036040850151169261165086606060018060a01b03818901511697805194805192602082015190604083015192015192608060018060a01b03910151169360405198899889613243565b0390a361151d565b809192945061167c9350903d10611686575b611674818361274f565b81019061316e565b9290508980611462565b503d61166a565b60ff821660020361198c575050508091506000526102696020526116b460406000206130e2565b61026480546040805163bfe4262160e01b81528451600482015260208501516024820152908401516001600160a01b0390811660448301526060850151811660648301526080850151811660848301529091600091168260a48160c09485945af1600092839282611967575b50506118eb575050611730612bf9565b61173981613191565b6001600160e01b031981169163a5db715d60e01b830361185457505060a06000805160206148dd83398151915291604051908682526020820152601960608060408401528201527f496e73756666696369656e7420746320746f2072656465656d000000000000006080820152a15b54604082015191516001600160a01b039182169290911690823b15610307576040516353b16d1760e01b81526001600160a01b039290921660048301526024820152906000908290604490829084905af1801561156b57611843575b505b80600052610269602052611836604060002060046000918281558260018201558260028201558260038201550155565b6101f85490600180611371565b600061184e9161274f565b84611804565b90916354cde31360e01b810361188e5750506118866000805160206148dd833981519152916040519182918783613282565b0390a16117a8565b637912120160e01b036118bc57506118866000805160206148dd8339815191529160405191829187836131c2565b6000805160206148fd833981519152915061188690604051918291878352604060208401526040830190612ce9565b7f7e7043742f69701e6292386d468d710f2d6e44bf93232a1e52f1641e50a9de1291925060018060a01b036040850151169261195f86606060018060a01b03818901511697805194805192602082015190604083015192015192608060018060a01b03910151169360405198899889613243565b0390a3611806565b80919294506119829350903d1061168657611674818361274f565b9290508980611720565b60ff82166003036119b15750505090506119a5816133c8565b90816101f95492611371565b60ff82166004036119d65750505090506119ca816136d1565b90816101fa5492611371565b60ff82166005036119fb5750505090506119ef81613940565b90816101ff5492611371565b60ff8216600603611a20575050509050611a1481613cd4565b90816101fe5492611371565b60ff8216600703611a45575050509050611a39816140a2565b90816101fd5492611371565b60ff821603611a675750509050611a5b81614384565b90816101fc5492611371565b60ff16600914611a78575b80611371565b5080915060005261026f60205260006040812060405190611a9b6101008361274f565b60018060a01b03815416825260018060a01b03600182015416602083015260028101546040830152600381015460608301526004810154608083015260018060a01b0360058201541660a083015260018060a01b0360068201541660c0830152600760018060a01b039101541660e082015282825261026f60205281600760408220828155826001820155826002820155826003820155826004820155826005820155826006820155015560e060018060a01b0361026454166101046040518095819363391bf6cf861b835260018060a01b03875116600484015260018060a01b03602088015116602484015260408701516044840152606087015160648401526080870151608484015260018060a01b0360a08801511660a484015260018060a01b0360c08801511660c484015260018060a01b03868801511660e48401525af19182600091600094611e90575b50611dda57509050611bfa612bf9565b611c0381613191565b906001600160e01b03198216630b63f1a760e01b8103611d45575050611c3f6000805160206148dd8339815191529160405191829186836131fe565b0390a15b6102645460a0820151825160408401516001600160a01b039182169392821692909116803b1561030757604051630e2c5e9960e41b81526001600160a01b03938416600482015293909216602484015260448301526000908290606490829084905af1801561156b57611d34575b506102645460a08201516080909201516001600160a01b039182169290911690823b15610307576040516358f32de960e01b81526001600160a01b039290921660048301526024820152906000908290604490829084905af1801561156b57611d23575b505b6101fb54906001611a72565b6000611d2e9161274f565b84611d15565b6000611d3f9161274f565b85611cb1565b63272e3f5960e21b8103611d7d575050611d756000805160206148dd833981519152916040519182918683614055565b0390a1611c43565b637912120160e01b03611dab5750611d756000805160206148dd8339815191529160405191829186836131c2565b6000805160206148fd8339815191529150611d7590604051918291868352604060208401526040830190612ce9565b7ff86f4487d2c5541b78f06d2368e28e0f4052e182124def54d5855bf2a01d325861012060018060a01b038451169260018060a01b036020860151169060018060a01b0360a0870151169560018060a01b0360c082015116976040820151928151602083015191606060408501519401519460e060018060a01b039101511695604051978852602088015260408701526060860152608085015260a084015260c083015260e082015286610100820152a4611d17565b909350611eb5915060e03d60e011611ec0575b611ead818361274f565b81019061391c565b925050909288611bea565b503d611ea3565b634e487b7160e01b600052601160045260246000fd5b90506112b4565b60405162461bcd60e51b815260206004820152601f60248201527f5265656e7472616e637947756172643a207265656e7472616e742063616c6c006044820152606490fd5b346103075761012036600319011261030757611f43612d26565b610266546102655403611f5a5761067a60046147d3565b6040516315996eab60e01b8152600490fd5b60c036600319011261030757611f80612da9565b611f9760008051602061493d833981519152612eac565b611fa36101ff546147b1565b610265805460405191611fb760408461274f565b60058352602083019260018060f81b03431684528260005261027060205260406000209051600a8110156103e35760ff6020958119905160081b1691161790558160005261026b835261200f600460406000206146d0565b60405182815260058482015260008051602061491d83398151915260403392a26103d981546146c1565b346103075760203660031901126103075760043560005261026f602052610100604060002060018060a01b03808254169181600182015416916002820154600383015460048401549183600586015416936007816006880154169601541695604051978852602088015260408701526060860152608085015260a084015260c083015260e0820152f35b346103075760003660031901126103075760206101ff54604051908152f35b346103075760003660031901126103075760ca5460ff8160081c161561214a57601081901c6001600160a01b03163303610ccc5761ff00191660ca557f5db9ee0a495bf2e6ff9c91a7834c1ba4fdd244a5e8aa4e537bd38aeae4b073aa6020604051338152a1005b604051637c7fd07960e01b8152600490fd5b346103075760003660031901126103075760206101f954604051908152f35b34610307576020366003190112610307576004356001600160a01b0380821682036103075761067a916121da826000937f000000000000000000000000000000000000000000000000000000000000000016906112028230141561285c565b6121e2612d26565b6121eb82612787565b906121f9604051928361274f565b828252601f1961220884612787565b0136602084013761291e565b34610307576040366003190112610307576024356001600160a01b03811680820361030757330361224b5761067a906004356127dd565b60405162461bcd60e51b815260206004820152602f60248201527f416363657373436f6e74726f6c3a2063616e206f6e6c792072656e6f756e636560448201526e103937b632b9903337b91039b2b63360891b6064820152608490fd5b610100366003190112610307576122bd612da9565b6122d460008051602061493d833981519152612eac565b6122e06101fb546147b1565b61026580546040516122f360408261274f565b600981526020810160018060f81b0343168152826000526102706020526040600020915190600a8210156103e3575160ff9190911660089190911b60ff1916179055600081815261026f602052604090206001600160a01b03600435818116949290859003610307576001600160601b0360a01b94858254161781556001810160243583811680910361030757868254161790556044356002820155606435600382015560843560048201556005810160a4358381168091036103075786825416179055600681019060c435918383168093036103075760079287825416179055019060e4359081168091036103075760209482541617905560405182815260098482015260008051602061491d83398151915260403392a26103d981546146c1565b34610307576040366003190112610307576004356024356001600160a01b038116810361030757816107fb61067a93614823565b34610307576020366003190112610307576004356001600160a01b038116810361030757612476612d26565b60ca805462010000600160b01b03191660109290921b62010000600160b01b0316919091179055005b3461030757600036600319011261030757602061026654604051908152f35b34610307576020366003190112610307576004356000526101936020526020600160406000200154604051908152f35b34610307576020366003190112610307576004803560009081526102676020908152604091829020805460018201546002830154600384015493909601548551928352938201526001600160a01b03948516938101939093528316606083015291909116608082015260a090f35b346103075760203660031901126103075760043560005261026d602052604060002060018060a01b0361030381835416916001840154936002810154916003820154816004840154169160068160058601541694015416936040519788978861270c565b34610307576000366003190112610307576097546040516001600160a01b039091168152602090f35b346103075760203660031901126103075760043563ffffffff60e01b811680910361030757602090637965db0b60e01b811490811561262e575b506040519015158152f35b6301ffc9a760e01b14905082612623565b60e036600319011261030757612653612da9565b61266a60008051602061493d833981519152612eac565b6126766101fc546147b1565b61026580546040519161268a60408461274f565b60088352602083019260018060f81b03431684528260005261027060205260406000209051600a8110156103e35760ff6020958119905160081b1691161790558160005261026e83526126e26004604060002061473b565b60405182815260088482015260008051602061491d83398151915260403392a26103d981546146c1565b6001600160a01b039182168152602081019290925260408201929092526060810192909252918216608082015291811660a083015290911660c082015260e00190565b90601f8019910116810190811067ffffffffffffffff82111761277157604052565b634e487b7160e01b600052604160045260246000fd5b67ffffffffffffffff811161277157601f01601f191660200190565b6001600160a01b0391821681526020810192909252604082019290925291811660608301529182166080820152911660a082015260c00190565b9060009180835261019380602052604084209260018060a01b03169283855260205260ff604085205416612812575b50505050565b818452602052604083208284526020526040832060ff1981541690557ff6391f5c32d9c69d2a47ea670b442974b53935d1edc7fd64eb21e047a839171b339380a43880808061280c565b1561286357565b60405162461bcd60e51b815260206004820152602c60248201527f46756e6374696f6e206d7573742062652063616c6c6564207468726f7567682060448201526b19195b1959d85d1958d85b1b60a21b6064820152608490fd5b156128c457565b60405162461bcd60e51b815260206004820152602c60248201527f46756e6374696f6e206d7573742062652063616c6c6564207468726f7567682060448201526b6163746976652070726f787960a01b6064820152608490fd5b9060ff7f4910fdfa16fed3260ed0e7147f7cc6da11a60208b5b9406d12a635614ffd9143541660001461295857506129569150612b57565b565b6040516352d1902d60e01b8152602093919291906001600160a01b038316908581600481855afa60009181612b25575b506129e95760405162461bcd60e51b815260048101879052602e60248201527f45524331393637557067726164653a206e657720696d706c656d656e7461746960448201526d6f6e206973206e6f74205555505360901b6064820152608490fd5b9394937fc9f76b5ec45e5cdef99837d7b6d2467235c1df8933c8ca56df5c35afa2c7d44401612ace57612a1b83612b57565b7fbc7cd75a20ee27fd9adebab32041f755214dbc6bffa90cc0225b39da2e5c2d3b600080a283511590811591612ac6575b50612a5657505050565b600080612ac394612a676027612787565b94612a75604051968761274f565b602786527f416464726573733a206c6f772d6c6576656c2064656c65676174652063616c6c81870152660819985a5b195960ca1b604087015281519101845af4612abd612bf9565b91612c29565b50565b905038612a4c565b60405162461bcd60e51b815260048101859052602960248201527f45524331393637557067726164653a20756e737570706f727465642070726f786044820152681a58589b195555525160ba1b6064820152608490fd5b90918782813d8311612b50575b612b3c818361274f565b81010312612b4d5750519038612988565b80fd5b503d612b32565b803b15612b9e577f360894a13ba1a3210667c828492db98dca3e2076cc3735a920a3ca505d382bbc80546001600160a01b0319166001600160a01b03909216919091179055565b60405162461bcd60e51b815260206004820152602d60248201527f455243313936373a206e657720696d706c656d656e746174696f6e206973206e60448201526c1bdd08184818dbdb9d1c9858dd609a1b6064820152608490fd5b3d15612c24573d90612c0a82612787565b91612c18604051938461274f565b82523d6000602084013e565b606090565b91929015612c8b5750815115612c3d575090565b3b15612c465790565b60405162461bcd60e51b815260206004820152601d60248201527f416464726573733a2063616c6c20746f206e6f6e2d636f6e74726163740000006044820152606490fd5b825190915015612c9e5750805190602001fd5b60405162461bcd60e51b815260206004820152908190612cc2906024830190612ce9565b0390fd5b60005b838110612cd95750506000910152565b8181015183820152602001612cc9565b90602091612d0281518092818552858086019101612cc6565b601f01601f1916010190565b90816020910312610307575180151581036103075790565b60975460405163d994d6d560e01b815233600482015290602090829060249082906001600160a01b03165afa90811561156b57600091612d7b575b5015612d6957565b604051631dd1b1b560e21b8152600490fd5b612d9c915060203d8111612da2575b612d94818361274f565b810190612d0e565b38612d61565b503d612d8a565b60ff60ca5460081c16612db857565b60405163783bb6c960e11b8152600490fd5b15612dd157565b60405162461bcd60e51b815260206004820152602b60248201527f496e697469616c697a61626c653a20636f6e7472616374206973206e6f74206960448201526a6e697469616c697a696e6760a81b6064820152608490fd5b9060009180835261019380602052604084209260018060a01b03169283855260205260ff60408520541615612e5f5750505050565b8184526020526040832082845260205260408320600160ff198254161790557f2f8788117e7eff1d82e926ec794901d17c78024a50270940304540a733656f0d339380a43880808061280c565b8060005260206101938152604060002033600052815260ff6040600020541615612ed4575050565b612f6a6048612eee83612ee8601433612f8b565b95612f8b565b936040519485917f416363657373436f6e74726f6c3a206163636f756e742000000000000000000086840152612f2d8151809288603787019101612cc6565b82017001034b99036b4b9b9b4b733903937b6329607d1b6037820152612f5b82518093888785019101612cc6565b0103602881018552018361274f565b612cc260405192839262461bcd60e51b845260048401526024830190612ce9565b60019180831b91906001600160ff1b03811603611ec7576002820192838311611ec757612fd0612fba85612787565b94612fc8604051968761274f565b808652612787565b6020939085850190601f19013682378551156130cc576030905384518210156130cc5760786021860153818101809111611ec757905b80821161305a575050613017575090565b6064906040519062461bcd60e51b825280600483015260248201527f537472696e67733a20686578206c656e67746820696e73756666696369656e746044820152fd5b9091600f811660108110156130b75785518410156130b7576f181899199a1a9b1b9c1cb0b131b232b360811b901a85840185015360041c9180156130a2576000190190613006565b60246000634e487b7160e01b81526011600452fd5b60246000634e487b7160e01b81526032600452fd5b634e487b7160e01b600052603260045260246000fd5b906040516130f160a08261274f565b825481526001830154602082015260028301546001600160a01b0390811660408301526003840154811660608301526004909301549092166080830152565b91908260809103126103075760405161314a60808261274f565b60608082948051845260208101516020850152604081015160408501520151910152565b909160c0828403126103075761318e825193604060208501519401613130565b90565b906020825192015163ffffffff60e01b9081811693600481106131b357505050565b60040360031b82901b16169150565b909160a092825263ffffffff60e01b16602082015260606040820152600c60608201526b4c6f7720636f76657261676560a01b60808201520190565b909160a092825263ffffffff60e01b166020820152606060408201526015606082015274125b9cdd59999a58da595b9d081c5858c81cd95b9d605a1b60808201520190565b94919260e0969399989794919961010087019a8752602087015260408601526060850152608084015260a083015260018060a01b031660c08201520152565b909160a092825263ffffffff60e01b16602082015260606040820152601a60608201527f7141432062656c6f77206d696e696d756d20726571756972656400000000000060808201520190565b906040516132de60c08261274f565b82546001600160a01b039081168252600184015460208301526002840154604083015260038401548116606083015260048401548116608083015260059093015490921660a0830152565b60a09081600180821b03918281511685526020810151602086015260408101516040860152826060820151166060860152826080820151166080860152015116910152565b909160c092825263ffffffff60e01b16602082015260606040820152602460608201527f4d617820666c757820636170616369746f72206f7065726174696f6e2072656160808201526318da195960e21b60a08201520190565b9060008281526102689260209084825260406133e58185206132cf565b61026480548351635a21a61960e11b81526001600160a01b039992969160c090829060c49082908c908f1661341d600484018b613329565b5af1908189918a936136ad575b50613634575050613439612bf9565b986134438a613191565b966001600160e01b031988166306da41e560e11b810361348a575050505050506000805160206148dd8339815191529394955061348490519283928361336e565b0390a190565b869998839598969c63c39b739f60e09996991b83146000146135a357505060a06000805160206148dd8339815191529185519088825289820152606086820152601760608201527f496e73756666696369656e7420747020746f206d696e740000000000000000006080820152a15b54169160608a01511698015197813b1561359f5786516358f32de960e01b81526001600160a01b039091166004820152602481019890985284908890818381604481015b03925af19687156135955761357c9697613581575b505b8352522060056000918281558260018201558260028201558260038201558260048201550155565b600190565b8461358e9195929561274f565b9238613552565b85513d86823e3d90fd5b8580fd5b9091630b63f1a760e01b81036135dc5750506135d46000805160206148dd83398151915291855191829189836131fe565b0390a16134f9565b637912120160e01b0361360957506135d46000805160206148dd83398151915291855191829189836131c2565b6000805160206148fd83398151915291506135d4908551918291898352878b84015287830190612ce9565b8492959897507f125247fdf990b9b419d4b4f895b1bb75bc485e3f8b813cf5557a4a12a56d054d908b61357c9b9c939598965116926136a5878c836060890151169784608082015116998c820151958d8251908301519160a060608786015195015195015116945198899889613243565b0390a4613554565b9092506136c8915060c03d811161168657611674818361274f565b9290503861342a565b90600082815261026a60209381855260406136ed8185206132cf565b6102648054835163ad4e666d60e01b81526001600160a01b03999296939160c090829060c49082908c908f166137266004840189613329565b5af1908189918a936138f8575b50613887575050613742612bf9565b9561374c87613191565b966001600160e01b031988166306da41e560e11b810361378d575050505050506000805160206148dd8339815191529394955061348490519283928361336e565b908b9394969998916354cde31360e09997991b81146000146138275750506137ca6000805160206148dd833981519152918a519182918883613282565b0390a15b54169083896060830151169982511691015198823b15613823578751630e2c5e9960e41b81526001600160a01b039182166004820152911660248201526044810198909852849088908183816064810161353d565b8680fd5b637912120160e01b0361385c57506138546000805160206148dd833981519152918a5191829188836131c2565b0390a16137ce565b6000805160206148fd8339815191529150613854908a519182918883528c8a8401528c830190612ce9565b8a9193959897507f625b9fc283a619f53beb817d79b8ab044d60e307fd2af4bb89fa5e9a24ce4ebc9061357c9a9b849896985116926136a5878c836060890151169784608082015116998c820151958d8251908301519160a060608786015195015195015116945198899889613243565b909250613913915060c03d811161168657611674818361274f565b92905038613733565b60e0818303126103075780519261318e602083015193606060408501519401613130565b90600082815261026b8060205260409361395b8584206132cf565b9460018060a01b0395610264938560e08987541660c486518094819363883d21cb861b835261398d600484018a613329565b5af187918291829181613bb7575b50613b3c575050506139ab612bf9565b976139b589613191565b956001600160e01b031987166306da41e560e11b81036139f55750505050506000805160206148dd8339815191529394955061348490519283928361336e565b9682949a869998630b63f1a760e0999896991b8114600014613adb575050613a326000805160206148dd83398151915291855191829189836131fe565b0390a15b54169160608901511697015196813b15613ad75785516358f32de960e01b81526001600160a01b03919091166004820152602481019790975283908790604490829084905af1958615613acd5761357c9596613ab9575b505b82526020522060056000918281558260018201558260028201558260038201558260048201550155565b83613ac69194929461274f565b9138613a8d565b84513d85823e3d90fd5b8480fd5b637912120160e01b03613b105750613b086000805160206148dd83398151915291855191829189836131c2565b0390a1613a36565b6000805160206148fd8339815191529150613b0890855191829189835287602084015287830190612ce9565b85989750907f03e9e02a94d7486426fcf2b05a27e911b8d1b61e2e1dcf103785512f46c8476491613baf8887959699988e61357c9e9f9951169689606082015116988a6080830151169a60208301519782519060208401519260a0606088870151960151960151169551998a998a613bdc565b0390a4613a8f565b91509250613bd3915060e03d8111611ec057611ead818361274f565b9390503861399b565b95926101009794919a9998959261012088019b8852602088015260408701526060860152608085015260a084015260c083015260018060a01b031660e08201520152565b90604051613c2f60e08261274f565b82546001600160a01b0390811682526001840154602083015260028401546040830152600384015460608301526004840154811660808301526005840154811660a083015260069093015490921660c0830152565b60c0908160018060a01b03918281511685526020810151602086015260408101516040860152606081015160608601528260808201511660808601528260a08201511660a0860152015116910152565b90600082815261026c602090808252604090613cf1828520613c20565b61026480548451633631a6bb60e21b81526001600160a01b039693929160e090829060e49082908c908c16613d29600484018a613c84565b5af19088828a928b9461402d575b50613fb357505050613d47612bf9565b95613d5187613191565b966001600160e01b03198816906306da41e560e11b8203613d935750505050505050936134846000805160206148dd833981519152939495519283928361336e565b637a031da360e19a99929394959697989a1b8314600014613f2257505060a06000805160206148dd833981519152918951908c82528782015260608a8201526014606082015273125b9cdd59999a58da595b9d081d1c081cd95b9d60621b6080820152a15b808254169160808401928284511690838651168a87015192823b15613f1e578b51630e2c5e9960e41b81526001600160a01b03918216600482015291166024820152604481019290925288908290606490829084905af18015613f1457613efc575b5090808592541692511692015191813b1561359f5786516353b16d1760e01b81526001600160a01b039091166004820152602481019290925284908290818381604481015b03925af1801561359557613ee3575b5061357c94955b8352522060066000918281558260018201558260028201558260038201558260048201558260058201550155565b613eee84809261274f565b613ef85738613eae565b8280fd5b9187613f0b829399889561274f565b97919250613e5a565b89513d8a823e3d90fd5b8a80fd5b90916354cde31360e01b8103613f5b575050613f536000805160206148dd8339815191529189519182918d83613282565b0390a1613df8565b637912120160e01b03613f885750613f536000805160206148dd8339815191529189519182918d836131c2565b6000805160206148fd8339815191529150613f539089519182918d83528b898401528b830190612ce9565b84929350907f4d33a2f9c4f66a101333f7ca2ab718582e763c941ff6fc304d2d4408d43a8284916140258d8a61357c9e9f999a9b9d9c809951169689608082015116988a60a0830151169a8d80840151978351918401519260c0606088870151960151960151169551998a998a613bdc565b0390a4613eb5565b91509250614049915060e03d8111611ec057611ead818361274f565b92905090919238613d37565b909160a092825263ffffffff60e01b16602082015260606040820152601a60608201527f7154702062656c6f77206d696e696d756d20726571756972656400000000000060808201520190565b90600082815261026d6020908082526040906140bf828520613c20565b610264805484516312bce9bf60e21b81526001600160a01b039693929160e090829060e49082908c908c166140f7600484018a613c84565b5af1908189918a9361435e575b506142ed575050614113612bf9565b9561411d87613191565b966001600160e01b031988166306da41e560e11b810361415e5750505050505050936134846000805160206148dd833981519152939495519283928361336e565b630b63f1a760e09a999394959697989a1b811460001461425e5750506141996000805160206148dd8339815191529189519182918d836131fe565b0390a15b8082541691608084019282845116908686015191813b1561425a578a516353b16d1760e01b81526001600160a01b039091166004820152602481019290925288908290818381604481015b03925af18015613f1457614241575b509080606092541692511692015191813b1561359f5786516358f32de960e01b81526001600160a01b03909116600482015260248101929092528490829081838160448101613e9f565b918761425182939960609561274f565b979192506141f7565b8980fd5b63272e3f5960e21b810361429557505061428d6000805160206148dd8339815191529189519182918d83614055565b0390a161419d565b637912120160e01b036142c2575061428d6000805160206148dd8339815191529189519182918d836131c2565b6000805160206148fd833981519152915061428d9089519182918d83528b898401528b830190612ce9565b8392507ff8dcb57698d7067da58ab71c48cd2e3b329b69e7e9853f88630c2c69c2557c78908861357c9b9c9697989a999395511692614025878c83608089015116978460a082015116998c820151958d8251908301519160c060608786015195015195015116945198899889613243565b909250614379915060e03d8111611ec057611ead818361274f565b925050909138614104565b90600082815261026e6020908082526040906143a1828520613c20565b61026480548451635e272ad960e11b81526001600160a01b039693929160e090829060e49082908c908c166143d9600484018a613c84565b5af1908189918a93614614575b506145a35750506143f5612bf9565b956143ff87613191565b966001600160e01b03198816906306da41e560e11b82036144415750505050505050936134846000805160206148dd833981519152939495519283928361336e565b630b63f1a760e09a99929394959697989a1b83146000146144dc57506000805160206148dd833981519152915061447e9089519182918d836131fe565b0390a15b808254169160808401928284511690838651168787015192823b15613f1e578b51630e2c5e9960e41b81526001600160a01b03918216600482015291166024820152604481019290925288908290818381606481016141e8565b63f577bef560e01b830361454157505060a06000805160206148dd833981519152918951908c82528782015260608a820152601a60608201527f7154632062656c6f77206d696e696d756d2072657175697265640000000000006080820152a1614482565b9091637912120160e01b0361457857506145706000805160206148dd8339815191529189519182918d836131c2565b0390a1614482565b6000805160206148fd83398151915291506145709089519182918d83528b898401528b830190612ce9565b8392507f8ab42044ce8b230e021e5542eb53688d77443e50ee84cda7917f6bdd833c697f908861357c9b9c9697989a999395511692614025878c83608089015116978460a082015116998c820151958d8251908301519160c060608786015195015195015116945198899889613243565b90925061462f915060e03d8111611ec057611ead818361274f565b9250509091386143e6565b356001600160a01b03811681036103075790565b813581556020820135600182015560028101906001600160a01b03906146b790608090600490846146816040890161463a565b16956001600160601b0360a01b968782541617905560038101856146a760608a0161463a565b168782541617905501940161463a565b1690825416179055565b6000198114611ec75760010190565b6001600160a01b036146b760a06005836146e98761463a565b16946001600160601b03831b95868254161781556020870135600182015560408701356002820155600381018561472260608a0161463a565b168782541617905560048101856146a760808a0161463a565b6001600160a01b036146b760c06006836147548761463a565b16946001600160601b0360a01b9586825416178155602087013560018201556040870135600282015560608701356003820155600481018561479860808a0161463a565b168782541617905560058101856146a760a08a0161463a565b3481036147bb5750565b6024906040519063049e6f6960e41b82526004820152fd5b80356101f75560208101356101f85560408101356101f95560608101356101fa5560808101356101fb5560a08101356101fc5560c08101356101fd5560e08101356101fe5561010001356101ff55565b6097546040805163d994d6d560e01b8152336004820152909291602090829060249082906001600160a01b03165afa9081156148d1576000916148b3575b5015908115614883575b506148735750565b51631dd1b1b560e21b8152600490fd5b90506000526101936020526001816000200154600052806000203360005260205260ff816000205416153861486b565b6148cb915060203d8111612da257612d94818361274f565b38614861565b83513d6000823e3d90fdfe5bbebb64d62396f99cae4b3b78d9386cb0f2893aab6a69f27eb61f8e7c29775e3ea497186958ec638834f65ec5a571c2b2e877e5d59a76804ec0448fac7829babfa5d40ab595fa613b17566ea5e38a5cac79a71f09ce1435246db2e6805816c27d5e686862ec2250829eb6dee4a7cb0834865072f135485c874d3bbbe39bdfdba26469706673582212205332cab261815ec66374f694af894d747aee1580a2eed40504a99428773d82ed64736f6c63430008120033",
  "linkReferences": {},
  "deployedLinkReferences": {}
}