{
  "_format": "hh-sol-artifact-1",
  "contractName": "MocRif",
  "sourceName": "contracts/MocRif.sol",
  "abi": [
    {
      "inputs": [
        {
          "internalType": "uint256",
          "name": "qACsent_",
          "type": "uint256"
        },
        {
          "internalType": "uint256",
          "name": "qACNeeded_",
          "type": "uint256"
        }
      ],
      "name": "InsufficientQacSent",
      "type": "error"
    },
    {
      "inputs": [
        {
          "internalType": "uint256",
          "name": "qTPsent_",
          "type": "uint256"
        },
        {
          "internalType": "uint256",
          "name": "qTPNeeded_",
          "type": "uint256"
        }
      ],
      "name": "InsufficientQtpSent",
      "type": "error"
    },
    {
      "inputs": [
        {
          "internalType": "uint256",
          "name": "qTC_",
          "type": "uint256"
        },
        {
          "internalType": "uint256",
          "name": "tcAvailableToRedeem_",
          "type": "uint256"
        }
      ],
      "name": "InsufficientTCtoRedeem",
      "type": "error"
    },
    {
      "inputs": [
        {
          "internalType": "uint256",
          "name": "qTP_",
          "type": "uint256"
        },
        {
          "internalType": "uint256",
          "name": "tpAvailableToMint_",
          "type": "uint256"
        }
      ],
      "name": "InsufficientTPtoMint",
      "type": "error"
    },
    {
      "inputs": [
        {
          "internalType": "uint256",
          "name": "qTP_",
          "type": "uint256"
        },
        {
          "internalType": "uint256",
          "name": "tpAvailableToRedeem_",
          "type": "uint256"
        }
      ],
      "name": "InsufficientTPtoRedeem",
      "type": "error"
    },
    {
      "inputs": [],
      "name": "InvalidAddress",
      "type": "error"
    },
    {
      "inputs": [],
      "name": "InvalidValue",
      "type": "error"
    },
    {
      "inputs": [],
      "name": "Liquidated",
      "type": "error"
    },
    {
      "inputs": [
        {
          "internalType": "uint256",
          "name": "cglb_",
          "type": "uint256"
        },
        {
          "internalType": "uint256",
          "name": "covThrld_",
          "type": "uint256"
        }
      ],
      "name": "LowCoverage",
      "type": "error"
    },
    {
      "inputs": [],
      "name": "MissingBlocksToSettlement",
      "type": "error"
    },
    {
      "inputs": [],
      "name": "MissingBlocksToTCInterestPayment",
      "type": "error"
    },
    {
      "inputs": [
        {
          "internalType": "address",
          "name": "priceProviderAddress_",
          "type": "address"
        }
      ],
      "name": "MissingProviderPrice",
      "type": "error"
    },
    {
      "inputs": [],
      "name": "NotAuthorizedChanger",
      "type": "error"
    },
    {
      "inputs": [],
      "name": "NotWhenPaused",
      "type": "error"
    },
    {
      "inputs": [],
      "name": "OnlyPauser",
      "type": "error"
    },
    {
      "inputs": [],
      "name": "OnlyWhenLiquidated",
      "type": "error"
    },
    {
      "inputs": [],
      "name": "OnlyWhilePaused",
      "type": "error"
    },
    {
      "inputs": [],
      "name": "PeggedTokenAlreadyAdded",
      "type": "error"
    },
    {
      "inputs": [
        {
          "internalType": "uint256",
          "name": "qACmin_",
          "type": "uint256"
        },
        {
          "internalType": "uint256",
          "name": "qACtoRedeem_",
          "type": "uint256"
        }
      ],
      "name": "QacBelowMinimumRequired",
      "type": "error"
    },
    {
      "inputs": [],
      "name": "QacNeededMustBeGreaterThanZero",
      "type": "error"
    },
    {
      "inputs": [
        {
          "internalType": "uint256",
          "name": "qTCmin_",
          "type": "uint256"
        },
        {
          "internalType": "uint256",
          "name": "qTC_",
          "type": "uint256"
        }
      ],
      "name": "QtcBelowMinimumRequired",
      "type": "error"
    },
    {
      "inputs": [
        {
          "internalType": "uint256",
          "name": "qTPmin_",
          "type": "uint256"
        },
        {
          "internalType": "uint256",
          "name": "qTP_",
          "type": "uint256"
        }
      ],
      "name": "QtpBelowMinimumRequired",
      "type": "error"
    },
    {
      "inputs": [],
      "name": "TransferFailed",
      "type": "error"
    },
    {
      "inputs": [],
      "name": "Unstoppable",
      "type": "error"
    },
    {
      "inputs": [],
      "name": "protocolAlreadyMigrated",
      "type": "error"
    },
    {
      "anonymous": false,
      "inputs": [
        {
          "indexed": false,
          "internalType": "address",
          "name": "previousAdmin",
          "type": "address"
        },
        {
          "indexed": false,
          "internalType": "address",
          "name": "newAdmin",
          "type": "address"
        }
      ],
      "name": "AdminChanged",
      "type": "event"
    },
    {
      "anonymous": false,
      "inputs": [
        {
          "indexed": true,
          "internalType": "address",
          "name": "beacon",
          "type": "address"
        }
      ],
      "name": "BeaconUpgraded",
      "type": "event"
    },
    {
      "anonymous": false,
      "inputs": [],
      "name": "ContractLiquidated",
      "type": "event"
    },
    {
      "anonymous": false,
      "inputs": [
        {
          "indexed": false,
          "internalType": "uint8",
          "name": "version",
          "type": "uint8"
        }
      ],
      "name": "Initialized",
      "type": "event"
    },
    {
      "anonymous": false,
      "inputs": [
        {
          "indexed": false,
          "internalType": "address",
          "name": "account",
          "type": "address"
        }
      ],
      "name": "Paused",
      "type": "event"
    },
    {
      "anonymous": false,
      "inputs": [
        {
          "indexed": true,
          "internalType": "uint256",
          "name": "i_",
          "type": "uint256"
        },
        {
          "components": [
            {
              "internalType": "address",
              "name": "tpTokenAddress",
              "type": "address"
            },
            {
              "internalType": "address",
              "name": "priceProviderAddress",
              "type": "address"
            },
            {
              "internalType": "uint256",
              "name": "tpCtarg",
              "type": "uint256"
            },
            {
              "internalType": "uint256",
              "name": "tpMintFee",
              "type": "uint256"
            },
            {
              "internalType": "uint256",
              "name": "tpRedeemFee",
              "type": "uint256"
            },
            {
              "internalType": "uint256",
              "name": "tpEma",
              "type": "uint256"
            },
            {
              "internalType": "uint256",
              "name": "tpEmaSf",
              "type": "uint256"
            }
          ],
          "indexed": false,
          "internalType": "struct PeggedTokenParams",
          "name": "peggedTokenParams_",
          "type": "tuple"
        }
      ],
      "name": "PeggedTokenChange",
      "type": "event"
    },
    {
      "anonymous": false,
      "inputs": [],
      "name": "SettlementExecuted",
      "type": "event"
    },
    {
      "anonymous": false,
      "inputs": [
        {
          "indexed": false,
          "internalType": "uint256",
          "name": "mocGain_",
          "type": "uint256"
        },
        {
          "indexed": false,
          "internalType": "uint256[]",
          "name": "tpGain_",
          "type": "uint256[]"
        }
      ],
      "name": "SuccessFeeDistributed",
      "type": "event"
    },
    {
      "anonymous": false,
      "inputs": [
        {
          "indexed": false,
          "internalType": "uint256",
          "name": "interestAmount_",
          "type": "uint256"
        }
      ],
      "name": "TCInterestPayment",
      "type": "event"
    },
    {
      "anonymous": false,
      "inputs": [
        {
          "indexed": true,
          "internalType": "address",
          "name": "sender_",
          "type": "address"
        },
        {
          "indexed": true,
          "internalType": "address",
          "name": "recipient_",
          "type": "address"
        },
        {
          "indexed": false,
          "internalType": "uint256",
          "name": "qTC_",
          "type": "uint256"
        },
        {
          "indexed": false,
          "internalType": "uint256",
          "name": "qAC_",
          "type": "uint256"
        },
        {
          "indexed": false,
          "internalType": "uint256",
          "name": "qACfee_",
          "type": "uint256"
        },
        {
          "indexed": false,
          "internalType": "uint256",
          "name": "qFeeToken_",
          "type": "uint256"
        },
        {
          "indexed": false,
          "internalType": "uint256",
          "name": "qACVendorMarkup_",
          "type": "uint256"
        },
        {
          "indexed": false,
          "internalType": "uint256",
          "name": "qFeeTokenVendorMarkup_",
          "type": "uint256"
        }
      ],
      "name": "TCMinted",
      "type": "event"
    },
    {
      "anonymous": false,
      "inputs": [
        {
          "indexed": true,
          "internalType": "address",
          "name": "sender_",
          "type": "address"
        },
        {
          "indexed": true,
          "internalType": "address",
          "name": "recipient_",
          "type": "address"
        },
        {
          "indexed": false,
          "internalType": "uint256",
          "name": "qTC_",
          "type": "uint256"
        },
        {
          "indexed": false,
          "internalType": "uint256",
          "name": "qAC_",
          "type": "uint256"
        },
        {
          "indexed": false,
          "internalType": "uint256",
          "name": "qACfee_",
          "type": "uint256"
        },
        {
          "indexed": false,
          "internalType": "uint256",
          "name": "qFeeToken_",
          "type": "uint256"
        },
        {
          "indexed": false,
          "internalType": "uint256",
          "name": "qACVendorMarkup_",
          "type": "uint256"
        },
        {
          "indexed": false,
          "internalType": "uint256",
          "name": "qFeeTokenVendorMarkup_",
          "type": "uint256"
        }
      ],
      "name": "TCRedeemed",
      "type": "event"
    },
    {
      "anonymous": false,
      "inputs": [
        {
          "indexed": true,
          "internalType": "uint256",
          "name": "i_",
          "type": "uint256"
        },
        {
          "indexed": true,
          "internalType": "address",
          "name": "sender_",
          "type": "address"
        },
        {
          "indexed": true,
          "internalType": "address",
          "name": "recipient_",
          "type": "address"
        },
        {
          "indexed": false,
          "internalType": "uint256",
          "name": "qTC_",
          "type": "uint256"
        },
        {
          "indexed": false,
          "internalType": "uint256",
          "name": "qTP_",
          "type": "uint256"
        },
        {
          "indexed": false,
          "internalType": "uint256",
          "name": "qACfee_",
          "type": "uint256"
        },
        {
          "indexed": false,
          "internalType": "uint256",
          "name": "qFeeToken_",
          "type": "uint256"
        },
        {
          "indexed": false,
          "internalType": "uint256",
          "name": "qACVendorMarkup_",
          "type": "uint256"
        },
        {
          "indexed": false,
          "internalType": "uint256",
          "name": "qFeeTokenVendorMarkup_",
          "type": "uint256"
        }
      ],
      "name": "TCSwappedForTP",
      "type": "event"
    },
    {
      "anonymous": false,
      "inputs": [
        {
          "indexed": true,
          "internalType": "uint256",
          "name": "i_",
          "type": "uint256"
        },
        {
          "indexed": true,
          "internalType": "address",
          "name": "sender_",
          "type": "address"
        },
        {
          "indexed": true,
          "internalType": "address",
          "name": "recipient_",
          "type": "address"
        },
        {
          "indexed": false,
          "internalType": "uint256",
          "name": "qTC_",
          "type": "uint256"
        },
        {
          "indexed": false,
          "internalType": "uint256",
          "name": "qTP_",
          "type": "uint256"
        },
        {
          "indexed": false,
          "internalType": "uint256",
          "name": "qAC_",
          "type": "uint256"
        },
        {
          "indexed": false,
          "internalType": "uint256",
          "name": "qACfee_",
          "type": "uint256"
        },
        {
          "indexed": false,
          "internalType": "uint256",
          "name": "qFeeToken_",
          "type": "uint256"
        },
        {
          "indexed": false,
          "internalType": "uint256",
          "name": "qACVendorMarkup_",
          "type": "uint256"
        },
        {
          "indexed": false,
          "internalType": "uint256",
          "name": "qFeeTokenVendorMarkup_",
          "type": "uint256"
        }
      ],
      "name": "TCandTPMinted",
      "type": "event"
    },
    {
      "anonymous": false,
      "inputs": [
        {
          "indexed": true,
          "internalType": "uint256",
          "name": "i_",
          "type": "uint256"
        },
        {
          "indexed": true,
          "internalType": "address",
          "name": "sender_",
          "type": "address"
        },
        {
          "indexed": true,
          "internalType": "address",
          "name": "recipient_",
          "type": "address"
        },
        {
          "indexed": false,
          "internalType": "uint256",
          "name": "qTC_",
          "type": "uint256"
        },
        {
          "indexed": false,
          "internalType": "uint256",
          "name": "qTP_",
          "type": "uint256"
        },
        {
          "indexed": false,
          "internalType": "uint256",
          "name": "qAC_",
          "type": "uint256"
        },
        {
          "indexed": false,
          "internalType": "uint256",
          "name": "qACfee_",
          "type": "uint256"
        },
        {
          "indexed": false,
          "internalType": "uint256",
          "name": "qFeeToken_",
          "type": "uint256"
        },
        {
          "indexed": false,
          "internalType": "uint256",
          "name": "qACVendorMarkup_",
          "type": "uint256"
        },
        {
          "indexed": false,
          "internalType": "uint256",
          "name": "qFeeTokenVendorMarkup_",
          "type": "uint256"
        }
      ],
      "name": "TCandTPRedeemed",
      "type": "event"
    },
    {
      "anonymous": false,
      "inputs": [
        {
          "indexed": true,
          "internalType": "uint256",
          "name": "i_",
          "type": "uint256"
        },
        {
          "indexed": true,
          "internalType": "address",
          "name": "sender_",
          "type": "address"
        },
        {
          "indexed": true,
          "internalType": "address",
          "name": "recipient_",
          "type": "address"
        },
        {
          "indexed": false,
          "internalType": "uint256",
          "name": "qTP_",
          "type": "uint256"
        },
        {
          "indexed": false,
          "internalType": "uint256",
          "name": "qAC_",
          "type": "uint256"
        },
        {
          "indexed": false,
          "internalType": "uint256",
          "name": "qACfee_",
          "type": "uint256"
        },
        {
          "indexed": false,
          "internalType": "uint256",
          "name": "qFeeToken_",
          "type": "uint256"
        },
        {
          "indexed": false,
          "internalType": "uint256",
          "name": "qACVendorMarkup_",
          "type": "uint256"
        },
        {
          "indexed": false,
          "internalType": "uint256",
          "name": "qFeeTokenVendorMarkup_",
          "type": "uint256"
        }
      ],
      "name": "TPMinted",
      "type": "event"
    },
    {
      "anonymous": false,
      "inputs": [
        {
          "indexed": true,
          "internalType": "uint256",
          "name": "i_",
          "type": "uint256"
        },
        {
          "indexed": true,
          "internalType": "address",
          "name": "sender_",
          "type": "address"
        },
        {
          "indexed": true,
          "internalType": "address",
          "name": "recipient_",
          "type": "address"
        },
        {
          "indexed": false,
          "internalType": "uint256",
          "name": "qTP_",
          "type": "uint256"
        },
        {
          "indexed": false,
          "internalType": "uint256",
          "name": "qAC_",
          "type": "uint256"
        },
        {
          "indexed": false,
          "internalType": "uint256",
          "name": "qACfee_",
          "type": "uint256"
        },
        {
          "indexed": false,
          "internalType": "uint256",
          "name": "qFeeToken_",
          "type": "uint256"
        },
        {
          "indexed": false,
          "internalType": "uint256",
          "name": "qACVendorMarkup_",
          "type": "uint256"
        },
        {
          "indexed": false,
          "internalType": "uint256",
          "name": "qFeeTokenVendorMarkup_",
          "type": "uint256"
        }
      ],
      "name": "TPRedeemed",
      "type": "event"
    },
    {
      "anonymous": false,
      "inputs": [
        {
          "indexed": true,
          "internalType": "uint256",
          "name": "i_",
          "type": "uint256"
        },
        {
          "indexed": true,
          "internalType": "address",
          "name": "sender_",
          "type": "address"
        },
        {
          "indexed": true,
          "internalType": "address",
          "name": "recipient_",
          "type": "address"
        },
        {
          "indexed": false,
          "internalType": "uint256",
          "name": "qTP_",
          "type": "uint256"
        },
        {
          "indexed": false,
          "internalType": "uint256",
          "name": "qTC_",
          "type": "uint256"
        },
        {
          "indexed": false,
          "internalType": "uint256",
          "name": "qACfee_",
          "type": "uint256"
        },
        {
          "indexed": false,
          "internalType": "uint256",
          "name": "qFeeToken_",
          "type": "uint256"
        },
        {
          "indexed": false,
          "internalType": "uint256",
          "name": "qACVendorMarkup_",
          "type": "uint256"
        },
        {
          "indexed": false,
          "internalType": "uint256",
          "name": "qFeeTokenVendorMarkup_",
          "type": "uint256"
        }
      ],
      "name": "TPSwappedForTC",
      "type": "event"
    },
    {
      "anonymous": false,
      "inputs": [
        {
          "indexed": true,
          "internalType": "uint256",
          "name": "iFrom_",
          "type": "uint256"
        },
        {
          "indexed": false,
          "internalType": "uint256",
          "name": "iTo_",
          "type": "uint256"
        },
        {
          "indexed": true,
          "internalType": "address",
          "name": "sender_",
          "type": "address"
        },
        {
          "indexed": true,
          "internalType": "address",
          "name": "recipient_",
          "type": "address"
        },
        {
          "indexed": false,
          "internalType": "uint256",
          "name": "qTPfrom_",
          "type": "uint256"
        },
        {
          "indexed": false,
          "internalType": "uint256",
          "name": "qTPto_",
          "type": "uint256"
        },
        {
          "indexed": false,
          "internalType": "uint256",
          "name": "qACfee_",
          "type": "uint256"
        },
        {
          "indexed": false,
          "internalType": "uint256",
          "name": "qFeeToken_",
          "type": "uint256"
        },
        {
          "indexed": false,
          "internalType": "uint256",
          "name": "qACVendorMarkup_",
          "type": "uint256"
        },
        {
          "indexed": false,
          "internalType": "uint256",
          "name": "qFeeTokenVendorMarkup_",
          "type": "uint256"
        }
      ],
      "name": "TPSwappedForTP",
      "type": "event"
    },
    {
      "anonymous": false,
      "inputs": [
        {
          "indexed": true,
          "internalType": "uint256",
          "name": "i_",
          "type": "uint256"
        },
        {
          "indexed": false,
          "internalType": "uint256",
          "name": "oldTPema_",
          "type": "uint256"
        },
        {
          "indexed": false,
          "internalType": "uint256",
          "name": "newTPema_",
          "type": "uint256"
        }
      ],
      "name": "TPemaUpdated",
      "type": "event"
    },
    {
      "anonymous": false,
      "inputs": [
        {
          "indexed": false,
          "internalType": "address",
          "name": "account",
          "type": "address"
        }
      ],
      "name": "Unpaused",
      "type": "event"
    },
    {
      "anonymous": false,
      "inputs": [
        {
          "indexed": true,
          "internalType": "address",
          "name": "implementation",
          "type": "address"
        }
      ],
      "name": "Upgraded",
      "type": "event"
    },
    {
      "inputs": [],
      "name": "acToken",
      "outputs": [
        {
          "internalType": "contract IERC20",
          "name": "",
          "type": "address"
        }
      ],
      "stateMutability": "view",
      "type": "function"
    },
    {
      "inputs": [
        {
          "components": [
            {
              "internalType": "address",
              "name": "tpTokenAddress",
              "type": "address"
            },
            {
              "internalType": "address",
              "name": "priceProviderAddress",
              "type": "address"
            },
            {
              "internalType": "uint256",
              "name": "tpCtarg",
              "type": "uint256"
            },
            {
              "internalType": "uint256",
              "name": "tpMintFee",
              "type": "uint256"
            },
            {
              "internalType": "uint256",
              "name": "tpRedeemFee",
              "type": "uint256"
            },
            {
              "internalType": "uint256",
              "name": "tpEma",
              "type": "uint256"
            },
            {
              "internalType": "uint256",
              "name": "tpEmaSf",
              "type": "uint256"
            }
          ],
          "internalType": "struct PeggedTokenParams",
          "name": "peggedTokenParams_",
          "type": "tuple"
        }
      ],
      "name": "addPeggedToken",
      "outputs": [],
      "stateMutability": "nonpayable",
      "type": "function"
    },
    {
      "inputs": [],
      "name": "appreciationFactor",
      "outputs": [
        {
          "internalType": "uint256",
          "name": "",
          "type": "uint256"
        }
      ],
      "stateMutability": "view",
      "type": "function"
    },
    {
      "inputs": [],
      "name": "bes",
      "outputs": [
        {
          "internalType": "uint256",
          "name": "",
          "type": "uint256"
        }
      ],
      "stateMutability": "view",
      "type": "function"
    },
    {
      "inputs": [],
      "name": "bns",
      "outputs": [
        {
          "internalType": "uint256",
          "name": "",
          "type": "uint256"
        }
      ],
      "stateMutability": "view",
      "type": "function"
    },
    {
      "inputs": [],
      "name": "calcCtargemaCA",
      "outputs": [
        {
          "internalType": "uint256",
          "name": "ctargemaCA",
          "type": "uint256"
        }
      ],
      "stateMutability": "view",
      "type": "function"
    },
    {
      "inputs": [
        {
          "internalType": "contract IGovernor",
          "name": "newGovernor_",
          "type": "address"
        }
      ],
      "name": "changeGovernor",
      "outputs": [],
      "stateMutability": "nonpayable",
      "type": "function"
    },
    {
      "inputs": [
        {
          "components": [
            {
              "internalType": "address",
              "name": "tpTokenAddress",
              "type": "address"
            },
            {
              "internalType": "address",
              "name": "priceProviderAddress",
              "type": "address"
            },
            {
              "internalType": "uint256",
              "name": "tpCtarg",
              "type": "uint256"
            },
            {
              "internalType": "uint256",
              "name": "tpMintFee",
              "type": "uint256"
            },
            {
              "internalType": "uint256",
              "name": "tpRedeemFee",
              "type": "uint256"
            },
            {
              "internalType": "uint256",
              "name": "tpEma",
              "type": "uint256"
            },
            {
              "internalType": "uint256",
              "name": "tpEmaSf",
              "type": "uint256"
            }
          ],
          "internalType": "struct PeggedTokenParams",
          "name": "peggedTokenParams_",
          "type": "tuple"
        }
      ],
      "name": "editPeggedToken",
      "outputs": [],
      "stateMutability": "nonpayable",
      "type": "function"
    },
    {
      "inputs": [],
      "name": "emaCalculationBlockSpan",
      "outputs": [
        {
          "internalType": "uint256",
          "name": "",
          "type": "uint256"
        }
      ],
      "stateMutability": "view",
      "type": "function"
    },
    {
      "inputs": [],
      "name": "evalLiquidation",
      "outputs": [],
      "stateMutability": "nonpayable",
      "type": "function"
    },
    {
      "inputs": [],
      "name": "execSettlement",
      "outputs": [],
      "stateMutability": "nonpayable",
      "type": "function"
    },
    {
      "inputs": [],
      "name": "feeRetainer",
      "outputs": [
        {
          "internalType": "uint256",
          "name": "",
          "type": "uint256"
        }
      ],
      "stateMutability": "view",
      "type": "function"
    },
    {
      "inputs": [],
      "name": "feeToken",
      "outputs": [
        {
          "internalType": "contract IERC20",
          "name": "",
          "type": "address"
        }
      ],
      "stateMutability": "view",
      "type": "function"
    },
    {
      "inputs": [],
      "name": "feeTokenPct",
      "outputs": [
        {
          "internalType": "uint256",
          "name": "",
          "type": "uint256"
        }
      ],
      "stateMutability": "view",
      "type": "function"
    },
    {
      "inputs": [],
      "name": "feeTokenPriceProvider",
      "outputs": [
        {
          "internalType": "contract IPriceProvider",
          "name": "",
          "type": "address"
        }
      ],
      "stateMutability": "view",
      "type": "function"
    },
    {
      "inputs": [],
      "name": "getBts",
      "outputs": [
        {
          "internalType": "uint256",
          "name": "",
          "type": "uint256"
        }
      ],
      "stateMutability": "view",
      "type": "function"
    },
    {
      "inputs": [],
      "name": "getCglb",
      "outputs": [
        {
          "internalType": "uint256",
          "name": "cglob",
          "type": "uint256"
        }
      ],
      "stateMutability": "view",
      "type": "function"
    },
    {
      "inputs": [],
      "name": "getLckAC",
      "outputs": [
        {
          "internalType": "uint256",
          "name": "lckAC",
          "type": "uint256"
        }
      ],
      "stateMutability": "view",
      "type": "function"
    },
    {
      "inputs": [],
      "name": "getLeverageTC",
      "outputs": [
        {
          "internalType": "uint256",
          "name": "leverageTC",
          "type": "uint256"
        }
      ],
      "stateMutability": "view",
      "type": "function"
    },
    {
      "inputs": [
        {
          "internalType": "uint256",
          "name": "i_",
          "type": "uint256"
        }
      ],
      "name": "getPACtp",
      "outputs": [
        {
          "internalType": "uint256",
          "name": "",
          "type": "uint256"
        }
      ],
      "stateMutability": "view",
      "type": "function"
    },
    {
      "inputs": [],
      "name": "getPTCac",
      "outputs": [
        {
          "internalType": "uint256",
          "name": "pTCac",
          "type": "uint256"
        }
      ],
      "stateMutability": "view",
      "type": "function"
    },
    {
      "inputs": [],
      "name": "getTCAvailableToRedeem",
      "outputs": [
        {
          "internalType": "uint256",
          "name": "tcAvailableToRedeem",
          "type": "uint256"
        }
      ],
      "stateMutability": "view",
      "type": "function"
    },
    {
      "inputs": [
        {
          "internalType": "uint256",
          "name": "i_",
          "type": "uint256"
        }
      ],
      "name": "getTPAvailableToMint",
      "outputs": [
        {
          "internalType": "uint256",
          "name": "tpAvailableToMint",
          "type": "uint256"
        }
      ],
      "stateMutability": "view",
      "type": "function"
    },
    {
      "inputs": [],
      "name": "getTotalACavailable",
      "outputs": [
        {
          "internalType": "uint256",
          "name": "totalACavailable",
          "type": "uint256"
        }
      ],
      "stateMutability": "view",
      "type": "function"
    },
    {
      "inputs": [],
      "name": "governor",
      "outputs": [
        {
          "internalType": "contract IGovernor",
          "name": "",
          "type": "address"
        }
      ],
      "stateMutability": "view",
      "type": "function"
    },
    {
      "inputs": [
        {
          "components": [
            {
              "components": [
                {
                  "components": [
                    {
                      "internalType": "address",
                      "name": "feeTokenAddress",
                      "type": "address"
                    },
                    {
                      "internalType": "address",
                      "name": "feeTokenPriceProviderAddress",
                      "type": "address"
                    },
                    {
                      "internalType": "address",
                      "name": "tcTokenAddress",
                      "type": "address"
                    },
                    {
                      "internalType": "address",
                      "name": "mocFeeFlowAddress",
                      "type": "address"
                    },
                    {
                      "internalType": "address",
                      "name": "mocAppreciationBeneficiaryAddress",
                      "type": "address"
                    },
                    {
                      "internalType": "uint256",
                      "name": "protThrld",
                      "type": "uint256"
                    },
                    {
                      "internalType": "uint256",
                      "name": "liqThrld",
                      "type": "uint256"
                    },
                    {
                      "internalType": "uint256",
                      "name": "feeRetainer",
                      "type": "uint256"
                    },
                    {
                      "internalType": "uint256",
                      "name": "tcMintFee",
                      "type": "uint256"
                    },
                    {
                      "internalType": "uint256",
                      "name": "tcRedeemFee",
                      "type": "uint256"
                    },
                    {
                      "internalType": "uint256",
                      "name": "swapTPforTPFee",
                      "type": "uint256"
                    },
                    {
                      "internalType": "uint256",
                      "name": "swapTPforTCFee",
                      "type": "uint256"
                    },
                    {
                      "internalType": "uint256",
                      "name": "swapTCforTPFee",
                      "type": "uint256"
                    },
                    {
                      "internalType": "uint256",
                      "name": "redeemTCandTPFee",
                      "type": "uint256"
                    },
                    {
                      "internalType": "uint256",
                      "name": "mintTCandTPFee",
                      "type": "uint256"
                    },
                    {
                      "internalType": "uint256",
                      "name": "feeTokenPct",
                      "type": "uint256"
                    },
                    {
                      "internalType": "uint256",
                      "name": "successFee",
                      "type": "uint256"
                    },
                    {
                      "internalType": "uint256",
                      "name": "appreciationFactor",
                      "type": "uint256"
                    },
                    {
                      "internalType": "uint256",
                      "name": "bes",
                      "type": "uint256"
                    },
                    {
                      "internalType": "address",
                      "name": "tcInterestCollectorAddress",
                      "type": "address"
                    },
                    {
                      "internalType": "uint256",
                      "name": "tcInterestRate",
                      "type": "uint256"
                    },
                    {
                      "internalType": "uint256",
                      "name": "tcInterestPaymentBlockSpan",
                      "type": "uint256"
                    }
                  ],
                  "internalType": "struct MocBaseBucket.InitializeBaseBucketParams",
                  "name": "initializeBaseBucketParams",
                  "type": "tuple"
                },
                {
                  "internalType": "address",
                  "name": "governorAddress",
                  "type": "address"
                },
                {
                  "internalType": "address",
                  "name": "pauserAddress",
                  "type": "address"
                },
                {
                  "internalType": "address",
                  "name": "mocCoreExpansion",
                  "type": "address"
                },
                {
                  "internalType": "uint256",
                  "name": "emaCalculationBlockSpan",
                  "type": "uint256"
                },
                {
                  "internalType": "address",
                  "name": "mocVendors",
                  "type": "address"
                }
              ],
              "internalType": "struct MocCore.InitializeCoreParams",
              "name": "initializeCoreParams",
              "type": "tuple"
            },
            {
              "internalType": "address",
              "name": "acTokenAddress",
              "type": "address"
            }
          ],
          "internalType": "struct MocCARC20.InitializeParams",
          "name": "initializeParams_",
          "type": "tuple"
        }
      ],
      "name": "initialize",
      "outputs": [],
      "stateMutability": "nonpayable",
      "type": "function"
    },
    {
      "inputs": [],
      "name": "isLiquidationReached",
      "outputs": [
        {
          "internalType": "bool",
          "name": "",
          "type": "bool"
        }
      ],
      "stateMutability": "view",
      "type": "function"
    },
    {
      "inputs": [],
      "name": "liqEnabled",
      "outputs": [
        {
          "internalType": "bool",
          "name": "",
          "type": "bool"
        }
      ],
      "stateMutability": "view",
      "type": "function"
    },
    {
      "inputs": [
        {
          "internalType": "uint256",
          "name": "i_",
          "type": "uint256"
        }
      ],
      "name": "liqRedeemTP",
      "outputs": [
        {
          "internalType": "uint256",
          "name": "qACRedeemed",
          "type": "uint256"
        }
      ],
      "stateMutability": "nonpayable",
      "type": "function"
    },
    {
      "inputs": [
        {
          "internalType": "uint256",
          "name": "i_",
          "type": "uint256"
        },
        {
          "internalType": "address",
          "name": "recipient_",
          "type": "address"
        }
      ],
      "name": "liqRedeemTPto",
      "outputs": [
        {
          "internalType": "uint256",
          "name": "qACRedeemed",
          "type": "uint256"
        }
      ],
      "stateMutability": "nonpayable",
      "type": "function"
    },
    {
      "inputs": [],
      "name": "liqThrld",
      "outputs": [
        {
          "internalType": "uint256",
          "name": "",
          "type": "uint256"
        }
      ],
      "stateMutability": "view",
      "type": "function"
    },
    {
      "inputs": [],
      "name": "liquidated",
      "outputs": [
        {
          "internalType": "bool",
          "name": "",
          "type": "bool"
        }
      ],
      "stateMutability": "view",
      "type": "function"
    },
    {
      "inputs": [],
      "name": "makeStoppable",
      "outputs": [],
      "stateMutability": "nonpayable",
      "type": "function"
    },
    {
      "inputs": [],
      "name": "makeUnstoppable",
      "outputs": [],
      "stateMutability": "nonpayable",
      "type": "function"
    },
    {
      "inputs": [
        {
          "internalType": "uint256",
          "name": "qAC_",
          "type": "uint256"
        },
        {
          "internalType": "uint256",
          "name": "qTC_",
          "type": "uint256"
        },
        {
          "internalType": "uint256",
          "name": "qTP_",
          "type": "uint256"
        },
        {
          "internalType": "uint256",
          "name": "tpEma_",
          "type": "uint256"
        },
        {
          "internalType": "uint256",
          "name": "nextEmaCalculation_",
          "type": "uint256"
        },
        {
          "internalType": "uint256",
          "name": "nextTCInterestPayment_",
          "type": "uint256"
        }
      ],
      "name": "migrateFromV1",
      "outputs": [],
      "stateMutability": "nonpayable",
      "type": "function"
    },
    {
      "inputs": [
        {
          "internalType": "uint256",
          "name": "qTC_",
          "type": "uint256"
        },
        {
          "internalType": "uint256",
          "name": "qACmax_",
          "type": "uint256"
        }
      ],
      "name": "mintTC",
      "outputs": [
        {
          "internalType": "uint256",
          "name": "qACtotalNeeded",
          "type": "uint256"
        },
        {
          "internalType": "uint256",
          "name": "qFeeToken",
          "type": "uint256"
        }
      ],
      "stateMutability": "nonpayable",
      "type": "function"
    },
    {
      "inputs": [
        {
          "internalType": "uint256",
          "name": "qTC_",
          "type": "uint256"
        },
        {
          "internalType": "uint256",
          "name": "qACmax_",
          "type": "uint256"
        },
        {
          "internalType": "address",
          "name": "vendor_",
          "type": "address"
        }
      ],
      "name": "mintTCViaVendor",
      "outputs": [
        {
          "internalType": "uint256",
          "name": "qACtotalNeeded",
          "type": "uint256"
        },
        {
          "internalType": "uint256",
          "name": "qFeeToken",
          "type": "uint256"
        }
      ],
      "stateMutability": "nonpayable",
      "type": "function"
    },
    {
      "inputs": [
        {
          "internalType": "uint256",
          "name": "i_",
          "type": "uint256"
        },
        {
          "internalType": "uint256",
          "name": "qTP_",
          "type": "uint256"
        },
        {
          "internalType": "uint256",
          "name": "qACmax_",
          "type": "uint256"
        }
      ],
      "name": "mintTCandTP",
      "outputs": [
        {
          "internalType": "uint256",
          "name": "qACtotalNeeded",
          "type": "uint256"
        },
        {
          "internalType": "uint256",
          "name": "qTCtoMint",
          "type": "uint256"
        },
        {
          "internalType": "uint256",
          "name": "qFeeToken",
          "type": "uint256"
        }
      ],
      "stateMutability": "nonpayable",
      "type": "function"
    },
    {
      "inputs": [],
      "name": "mintTCandTPFee",
      "outputs": [
        {
          "internalType": "uint256",
          "name": "",
          "type": "uint256"
        }
      ],
      "stateMutability": "view",
      "type": "function"
    },
    {
      "inputs": [
        {
          "internalType": "uint256",
          "name": "i_",
          "type": "uint256"
        },
        {
          "internalType": "uint256",
          "name": "qTP_",
          "type": "uint256"
        },
        {
          "internalType": "uint256",
          "name": "qACmax_",
          "type": "uint256"
        },
        {
          "internalType": "address",
          "name": "vendor_",
          "type": "address"
        }
      ],
      "name": "mintTCandTPViaVendor",
      "outputs": [
        {
          "internalType": "uint256",
          "name": "qACtotalNeeded",
          "type": "uint256"
        },
        {
          "internalType": "uint256",
          "name": "qTCtoMint",
          "type": "uint256"
        },
        {
          "internalType": "uint256",
          "name": "qFeeToken",
          "type": "uint256"
        }
      ],
      "stateMutability": "nonpayable",
      "type": "function"
    },
    {
      "inputs": [
        {
          "internalType": "uint256",
          "name": "i_",
          "type": "uint256"
        },
        {
          "internalType": "uint256",
          "name": "qTP_",
          "type": "uint256"
        },
        {
          "internalType": "uint256",
          "name": "qACmax_",
          "type": "uint256"
        },
        {
          "internalType": "address",
          "name": "recipient_",
          "type": "address"
        }
      ],
      "name": "mintTCandTPto",
      "outputs": [
        {
          "internalType": "uint256",
          "name": "qACtotalNeeded",
          "type": "uint256"
        },
        {
          "internalType": "uint256",
          "name": "qTCtoMint",
          "type": "uint256"
        },
        {
          "internalType": "uint256",
          "name": "qFeeToken",
          "type": "uint256"
        }
      ],
      "stateMutability": "nonpayable",
      "type": "function"
    },
    {
      "inputs": [
        {
          "internalType": "uint256",
          "name": "i_",
          "type": "uint256"
        },
        {
          "internalType": "uint256",
          "name": "qTP_",
          "type": "uint256"
        },
        {
          "internalType": "uint256",
          "name": "qACmax_",
          "type": "uint256"
        },
        {
          "internalType": "address",
          "name": "recipient_",
          "type": "address"
        },
        {
          "internalType": "address",
          "name": "vendor_",
          "type": "address"
        }
      ],
      "name": "mintTCandTPtoViaVendor",
      "outputs": [
        {
          "internalType": "uint256",
          "name": "qACtotalNeeded",
          "type": "uint256"
        },
        {
          "internalType": "uint256",
          "name": "qTCtoMint",
          "type": "uint256"
        },
        {
          "internalType": "uint256",
          "name": "qFeeToken",
          "type": "uint256"
        }
      ],
      "stateMutability": "nonpayable",
      "type": "function"
    },
    {
      "inputs": [
        {
          "internalType": "uint256",
          "name": "qTC_",
          "type": "uint256"
        },
        {
          "internalType": "uint256",
          "name": "qACmax_",
          "type": "uint256"
        },
        {
          "internalType": "address",
          "name": "recipient_",
          "type": "address"
        }
      ],
      "name": "mintTCto",
      "outputs": [
        {
          "internalType": "uint256",
          "name": "qACtotalNeeded",
          "type": "uint256"
        },
        {
          "internalType": "uint256",
          "name": "qFeeToken",
          "type": "uint256"
        }
      ],
      "stateMutability": "nonpayable",
      "type": "function"
    },
    {
      "inputs": [
        {
          "internalType": "uint256",
          "name": "qTC_",
          "type": "uint256"
        },
        {
          "internalType": "uint256",
          "name": "qACmax_",
          "type": "uint256"
        },
        {
          "internalType": "address",
          "name": "recipient_",
          "type": "address"
        },
        {
          "internalType": "address",
          "name": "vendor_",
          "type": "address"
        }
      ],
      "name": "mintTCtoViaVendor",
      "outputs": [
        {
          "internalType": "uint256",
          "name": "qACtotalNeeded",
          "type": "uint256"
        },
        {
          "internalType": "uint256",
          "name": "qFeeToken",
          "type": "uint256"
        }
      ],
      "stateMutability": "nonpayable",
      "type": "function"
    },
    {
      "inputs": [
        {
          "internalType": "uint256",
          "name": "i_",
          "type": "uint256"
        },
        {
          "internalType": "uint256",
          "name": "qTP_",
          "type": "uint256"
        },
        {
          "internalType": "uint256",
          "name": "qACmax_",
          "type": "uint256"
        }
      ],
      "name": "mintTP",
      "outputs": [
        {
          "internalType": "uint256",
          "name": "qACtotalNeeded",
          "type": "uint256"
        },
        {
          "internalType": "uint256",
          "name": "qFeeToken",
          "type": "uint256"
        }
      ],
      "stateMutability": "nonpayable",
      "type": "function"
    },
    {
      "inputs": [
        {
          "internalType": "uint256",
          "name": "i_",
          "type": "uint256"
        },
        {
          "internalType": "uint256",
          "name": "qTP_",
          "type": "uint256"
        },
        {
          "internalType": "uint256",
          "name": "qACmax_",
          "type": "uint256"
        },
        {
          "internalType": "address",
          "name": "vendor_",
          "type": "address"
        }
      ],
      "name": "mintTPViaVendor",
      "outputs": [
        {
          "internalType": "uint256",
          "name": "qACtotalNeeded",
          "type": "uint256"
        },
        {
          "internalType": "uint256",
          "name": "qFeeToken",
          "type": "uint256"
        }
      ],
      "stateMutability": "nonpayable",
      "type": "function"
    },
    {
      "inputs": [
        {
          "internalType": "uint256",
          "name": "i_",
          "type": "uint256"
        },
        {
          "internalType": "uint256",
          "name": "qTP_",
          "type": "uint256"
        },
        {
          "internalType": "uint256",
          "name": "qACmax_",
          "type": "uint256"
        },
        {
          "internalType": "address",
          "name": "recipient_",
          "type": "address"
        }
      ],
      "name": "mintTPto",
      "outputs": [
        {
          "internalType": "uint256",
          "name": "qACtotalNeeded",
          "type": "uint256"
        },
        {
          "internalType": "uint256",
          "name": "qFeeToken",
          "type": "uint256"
        }
      ],
      "stateMutability": "nonpayable",
      "type": "function"
    },
    {
      "inputs": [
        {
          "internalType": "uint256",
          "name": "i_",
          "type": "uint256"
        },
        {
          "internalType": "uint256",
          "name": "qTP_",
          "type": "uint256"
        },
        {
          "internalType": "uint256",
          "name": "qACmax_",
          "type": "uint256"
        },
        {
          "internalType": "address",
          "name": "recipient_",
          "type": "address"
        },
        {
          "internalType": "address",
          "name": "vendor_",
          "type": "address"
        }
      ],
      "name": "mintTPtoViaVendor",
      "outputs": [
        {
          "internalType": "uint256",
          "name": "qACtotalNeeded",
          "type": "uint256"
        },
        {
          "internalType": "uint256",
          "name": "qFeeToken",
          "type": "uint256"
        }
      ],
      "stateMutability": "nonpayable",
      "type": "function"
    },
    {
      "inputs": [],
      "name": "mocAppreciationBeneficiaryAddress",
      "outputs": [
        {
          "internalType": "address",
          "name": "",
          "type": "address"
        }
      ],
      "stateMutability": "view",
      "type": "function"
    },
    {
      "inputs": [],
      "name": "mocFeeFlowAddress",
      "outputs": [
        {
          "internalType": "address",
          "name": "",
          "type": "address"
        }
      ],
      "stateMutability": "view",
      "type": "function"
    },
    {
      "inputs": [],
      "name": "mocVendors",
      "outputs": [
        {
          "internalType": "contract MocVendors",
          "name": "",
          "type": "address"
        }
      ],
      "stateMutability": "view",
      "type": "function"
    },
    {
      "inputs": [],
      "name": "nACcb",
      "outputs": [
        {
          "internalType": "uint256",
          "name": "",
          "type": "uint256"
        }
      ],
      "stateMutability": "view",
      "type": "function"
    },
    {
      "inputs": [],
      "name": "nTCcb",
      "outputs": [
        {
          "internalType": "uint256",
          "name": "",
          "type": "uint256"
        }
      ],
      "stateMutability": "view",
      "type": "function"
    },
    {
      "inputs": [],
      "name": "nextEmaCalculation",
      "outputs": [
        {
          "internalType": "uint256",
          "name": "",
          "type": "uint256"
        }
      ],
      "stateMutability": "view",
      "type": "function"
    },
    {
      "inputs": [],
      "name": "nextTCInterestPayment",
      "outputs": [
        {
          "internalType": "uint256",
          "name": "",
          "type": "uint256"
        }
      ],
      "stateMutability": "view",
      "type": "function"
    },
    {
      "inputs": [],
      "name": "pause",
      "outputs": [],
      "stateMutability": "nonpayable",
      "type": "function"
    },
    {
      "inputs": [],
      "name": "paused",
      "outputs": [
        {
          "internalType": "bool",
          "name": "",
          "type": "bool"
        }
      ],
      "stateMutability": "view",
      "type": "function"
    },
    {
      "inputs": [],
      "name": "pauser",
      "outputs": [
        {
          "internalType": "address",
          "name": "",
          "type": "address"
        }
      ],
      "stateMutability": "view",
      "type": "function"
    },
    {
      "inputs": [
        {
          "internalType": "uint256",
          "name": "",
          "type": "uint256"
        }
      ],
      "name": "pegContainer",
      "outputs": [
        {
          "internalType": "uint256",
          "name": "nTP",
          "type": "uint256"
        },
        {
          "internalType": "contract IPriceProvider",
          "name": "priceProvider",
          "type": "address"
        }
      ],
      "stateMutability": "view",
      "type": "function"
    },
    {
      "inputs": [
        {
          "internalType": "address",
          "name": "",
          "type": "address"
        }
      ],
      "name": "peggedTokenIndex",
      "outputs": [
        {
          "internalType": "uint256",
          "name": "index",
          "type": "uint256"
        },
        {
          "internalType": "bool",
          "name": "exists",
          "type": "bool"
        }
      ],
      "stateMutability": "view",
      "type": "function"
    },
    {
      "inputs": [],
      "name": "protThrld",
      "outputs": [
        {
          "internalType": "uint256",
          "name": "",
          "type": "uint256"
        }
      ],
      "stateMutability": "view",
      "type": "function"
    },
    {
      "inputs": [],
      "name": "proxiableUUID",
      "outputs": [
        {
          "internalType": "bytes32",
          "name": "",
          "type": "bytes32"
        }
      ],
      "stateMutability": "view",
      "type": "function"
    },
    {
      "inputs": [
        {
          "internalType": "uint256",
          "name": "qTC_",
          "type": "uint256"
        },
        {
          "internalType": "uint256",
          "name": "qACmin_",
          "type": "uint256"
        }
      ],
      "name": "redeemTC",
      "outputs": [
        {
          "internalType": "uint256",
          "name": "qACRedeemed",
          "type": "uint256"
        },
        {
          "internalType": "uint256",
          "name": "qFeeToken",
          "type": "uint256"
        }
      ],
      "stateMutability": "nonpayable",
      "type": "function"
    },
    {
      "inputs": [
        {
          "internalType": "uint256",
          "name": "qTC_",
          "type": "uint256"
        },
        {
          "internalType": "uint256",
          "name": "qACmin_",
          "type": "uint256"
        },
        {
          "internalType": "address",
          "name": "vendor_",
          "type": "address"
        }
      ],
      "name": "redeemTCViaVendor",
      "outputs": [
        {
          "internalType": "uint256",
          "name": "qACRedeemed",
          "type": "uint256"
        },
        {
          "internalType": "uint256",
          "name": "qFeeToken",
          "type": "uint256"
        }
      ],
      "stateMutability": "nonpayable",
      "type": "function"
    },
    {
      "inputs": [
        {
          "internalType": "uint256",
          "name": "i_",
          "type": "uint256"
        },
        {
          "internalType": "uint256",
          "name": "qTC_",
          "type": "uint256"
        },
        {
          "internalType": "uint256",
          "name": "qTP_",
          "type": "uint256"
        },
        {
          "internalType": "uint256",
          "name": "qACmin_",
          "type": "uint256"
        }
      ],
      "name": "redeemTCandTP",
      "outputs": [
        {
          "internalType": "uint256",
          "name": "qACRedeemed",
          "type": "uint256"
        },
        {
          "internalType": "uint256",
          "name": "qTPRedeemed",
          "type": "uint256"
        },
        {
          "internalType": "uint256",
          "name": "qFeeToken",
          "type": "uint256"
        }
      ],
      "stateMutability": "nonpayable",
      "type": "function"
    },
    {
      "inputs": [],
      "name": "redeemTCandTPFee",
      "outputs": [
        {
          "internalType": "uint256",
          "name": "",
          "type": "uint256"
        }
      ],
      "stateMutability": "view",
      "type": "function"
    },
    {
      "inputs": [
        {
          "internalType": "uint256",
          "name": "i_",
          "type": "uint256"
        },
        {
          "internalType": "uint256",
          "name": "qTC_",
          "type": "uint256"
        },
        {
          "internalType": "uint256",
          "name": "qTP_",
          "type": "uint256"
        },
        {
          "internalType": "uint256",
          "name": "qACmin_",
          "type": "uint256"
        },
        {
          "internalType": "address",
          "name": "vendor_",
          "type": "address"
        }
      ],
      "name": "redeemTCandTPViaVendor",
      "outputs": [
        {
          "internalType": "uint256",
          "name": "qACRedeemed",
          "type": "uint256"
        },
        {
          "internalType": "uint256",
          "name": "qTPRedeemed",
          "type": "uint256"
        },
        {
          "internalType": "uint256",
          "name": "qFeeToken",
          "type": "uint256"
        }
      ],
      "stateMutability": "nonpayable",
      "type": "function"
    },
    {
      "inputs": [
        {
          "internalType": "uint256",
          "name": "i_",
          "type": "uint256"
        },
        {
          "internalType": "uint256",
          "name": "qTC_",
          "type": "uint256"
        },
        {
          "internalType": "uint256",
          "name": "qTP_",
          "type": "uint256"
        },
        {
          "internalType": "uint256",
          "name": "qACmin_",
          "type": "uint256"
        },
        {
          "internalType": "address",
          "name": "recipient_",
          "type": "address"
        }
      ],
      "name": "redeemTCandTPto",
      "outputs": [
        {
          "internalType": "uint256",
          "name": "qACRedeemed",
          "type": "uint256"
        },
        {
          "internalType": "uint256",
          "name": "qTPRedeemed",
          "type": "uint256"
        },
        {
          "internalType": "uint256",
          "name": "qFeeToken",
          "type": "uint256"
        }
      ],
      "stateMutability": "nonpayable",
      "type": "function"
    },
    {
      "inputs": [
        {
          "internalType": "uint256",
          "name": "i_",
          "type": "uint256"
        },
        {
          "internalType": "uint256",
          "name": "qTC_",
          "type": "uint256"
        },
        {
          "internalType": "uint256",
          "name": "qTP_",
          "type": "uint256"
        },
        {
          "internalType": "uint256",
          "name": "qACmin_",
          "type": "uint256"
        },
        {
          "internalType": "address",
          "name": "recipient_",
          "type": "address"
        },
        {
          "internalType": "address",
          "name": "vendor_",
          "type": "address"
        }
      ],
      "name": "redeemTCandTPtoViaVendor",
      "outputs": [
        {
          "internalType": "uint256",
          "name": "qACRedeemed",
          "type": "uint256"
        },
        {
          "internalType": "uint256",
          "name": "qTPRedeemed",
          "type": "uint256"
        },
        {
          "internalType": "uint256",
          "name": "qFeeToken",
          "type": "uint256"
        }
      ],
      "stateMutability": "nonpayable",
      "type": "function"
    },
    {
      "inputs": [
        {
          "internalType": "uint256",
          "name": "qTC_",
          "type": "uint256"
        },
        {
          "internalType": "uint256",
          "name": "qACmin_",
          "type": "uint256"
        },
        {
          "internalType": "address",
          "name": "recipient_",
          "type": "address"
        }
      ],
      "name": "redeemTCto",
      "outputs": [
        {
          "internalType": "uint256",
          "name": "qACRedeemed",
          "type": "uint256"
        },
        {
          "internalType": "uint256",
          "name": "qFeeToken",
          "type": "uint256"
        }
      ],
      "stateMutability": "nonpayable",
      "type": "function"
    },
    {
      "inputs": [
        {
          "internalType": "uint256",
          "name": "qTC_",
          "type": "uint256"
        },
        {
          "internalType": "uint256",
          "name": "qACmin_",
          "type": "uint256"
        },
        {
          "internalType": "address",
          "name": "recipient_",
          "type": "address"
        },
        {
          "internalType": "address",
          "name": "vendor_",
          "type": "address"
        }
      ],
      "name": "redeemTCtoViaVendor",
      "outputs": [
        {
          "internalType": "uint256",
          "name": "qACRedeemed",
          "type": "uint256"
        },
        {
          "internalType": "uint256",
          "name": "qFeeToken",
          "type": "uint256"
        }
      ],
      "stateMutability": "nonpayable",
      "type": "function"
    },
    {
      "inputs": [
        {
          "internalType": "uint256",
          "name": "i_",
          "type": "uint256"
        },
        {
          "internalType": "uint256",
          "name": "qTP_",
          "type": "uint256"
        },
        {
          "internalType": "uint256",
          "name": "qACmin_",
          "type": "uint256"
        }
      ],
      "name": "redeemTP",
      "outputs": [
        {
          "internalType": "uint256",
          "name": "qACRedeemed",
          "type": "uint256"
        },
        {
          "internalType": "uint256",
          "name": "qFeeToken",
          "type": "uint256"
        }
      ],
      "stateMutability": "nonpayable",
      "type": "function"
    },
    {
      "inputs": [
        {
          "internalType": "uint256",
          "name": "i_",
          "type": "uint256"
        },
        {
          "internalType": "uint256",
          "name": "qTP_",
          "type": "uint256"
        },
        {
          "internalType": "uint256",
          "name": "qACmin_",
          "type": "uint256"
        },
        {
          "internalType": "address",
          "name": "vendor_",
          "type": "address"
        }
      ],
      "name": "redeemTPViaVendor",
      "outputs": [
        {
          "internalType": "uint256",
          "name": "qACRedeemed",
          "type": "uint256"
        },
        {
          "internalType": "uint256",
          "name": "qFeeToken",
          "type": "uint256"
        }
      ],
      "stateMutability": "nonpayable",
      "type": "function"
    },
    {
      "inputs": [
        {
          "internalType": "uint256",
          "name": "i_",
          "type": "uint256"
        },
        {
          "internalType": "uint256",
          "name": "qTP_",
          "type": "uint256"
        },
        {
          "internalType": "uint256",
          "name": "qACmin_",
          "type": "uint256"
        },
        {
          "internalType": "address",
          "name": "recipient_",
          "type": "address"
        }
      ],
      "name": "redeemTPto",
      "outputs": [
        {
          "internalType": "uint256",
          "name": "qACRedeemed",
          "type": "uint256"
        },
        {
          "internalType": "uint256",
          "name": "qFeeToken",
          "type": "uint256"
        }
      ],
      "stateMutability": "nonpayable",
      "type": "function"
    },
    {
      "inputs": [
        {
          "internalType": "uint256",
          "name": "i_",
          "type": "uint256"
        },
        {
          "internalType": "uint256",
          "name": "qTP_",
          "type": "uint256"
        },
        {
          "internalType": "uint256",
          "name": "qACmin_",
          "type": "uint256"
        },
        {
          "internalType": "address",
          "name": "recipient_",
          "type": "address"
        },
        {
          "internalType": "address",
          "name": "vendor_",
          "type": "address"
        }
      ],
      "name": "redeemTPtoViaVendor",
      "outputs": [
        {
          "internalType": "uint256",
          "name": "qACRedeemed",
          "type": "uint256"
        },
        {
          "internalType": "uint256",
          "name": "qFeeToken",
          "type": "uint256"
        }
      ],
      "stateMutability": "nonpayable",
      "type": "function"
    },
    {
      "inputs": [],
      "name": "refreshACBalance",
      "outputs": [],
      "stateMutability": "nonpayable",
      "type": "function"
    },
    {
      "inputs": [
        {
          "internalType": "uint256",
          "name": "appreciationFactor_",
          "type": "uint256"
        }
      ],
      "name": "setAppreciationFactor",
      "outputs": [],
      "stateMutability": "nonpayable",
      "type": "function"
    },
    {
      "inputs": [
        {
          "internalType": "uint256",
          "name": "bes_",
          "type": "uint256"
        }
      ],
      "name": "setBes",
      "outputs": [],
      "stateMutability": "nonpayable",
      "type": "function"
    },
    {
      "inputs": [
        {
          "internalType": "uint256",
          "name": "blockSpan_",
          "type": "uint256"
        }
      ],
      "name": "setEmaCalculationBlockSpan",
      "outputs": [],
      "stateMutability": "nonpayable",
      "type": "function"
    },
    {
      "inputs": [
        {
          "internalType": "uint256",
          "name": "feeRetainer_",
          "type": "uint256"
        }
      ],
      "name": "setFeeRetainer",
      "outputs": [],
      "stateMutability": "nonpayable",
      "type": "function"
    },
    {
      "inputs": [
        {
          "internalType": "address",
          "name": "mocFeeTokenAddress_",
          "type": "address"
        }
      ],
      "name": "setFeeTokenAddress",
      "outputs": [],
      "stateMutability": "nonpayable",
      "type": "function"
    },
    {
      "inputs": [
        {
          "internalType": "uint256",
          "name": "feeTokenPct_",
          "type": "uint256"
        }
      ],
      "name": "setFeeTokenPct",
      "outputs": [],
      "stateMutability": "nonpayable",
      "type": "function"
    },
    {
      "inputs": [
        {
          "internalType": "address",
          "name": "mocFeeTokenPriceProviderAddress_",
          "type": "address"
        }
      ],
      "name": "setFeeTokenPriceProviderAddress",
      "outputs": [],
      "stateMutability": "nonpayable",
      "type": "function"
    },
    {
      "inputs": [
        {
          "internalType": "bool",
          "name": "liqEnabled_",
          "type": "bool"
        }
      ],
      "name": "setLiqEnabled",
      "outputs": [],
      "stateMutability": "nonpayable",
      "type": "function"
    },
    {
      "inputs": [
        {
          "internalType": "uint256",
          "name": "liqThrld_",
          "type": "uint256"
        }
      ],
      "name": "setLiqThrld",
      "outputs": [],
      "stateMutability": "nonpayable",
      "type": "function"
    },
    {
      "inputs": [
        {
          "internalType": "uint256",
          "name": "mintTCandTPFee_",
          "type": "uint256"
        }
      ],
      "name": "setMintTCandTPFee",
      "outputs": [],
      "stateMutability": "nonpayable",
      "type": "function"
    },
    {
      "inputs": [
        {
          "internalType": "address",
          "name": "mocAppreciationBeneficiaryAddress_",
          "type": "address"
        }
      ],
      "name": "setMocAppreciationBeneficiaryAddress",
      "outputs": [],
      "stateMutability": "nonpayable",
      "type": "function"
    },
    {
      "inputs": [
        {
          "internalType": "address",
          "name": "mocCoreExpansion_",
          "type": "address"
        }
      ],
      "name": "setMocCoreExpansion",
      "outputs": [],
      "stateMutability": "nonpayable",
      "type": "function"
    },
    {
      "inputs": [
        {
          "internalType": "address",
          "name": "mocFeeFlowAddress_",
          "type": "address"
        }
      ],
      "name": "setMocFeeFlowAddress",
      "outputs": [],
      "stateMutability": "nonpayable",
      "type": "function"
    },
    {
      "inputs": [
        {
          "internalType": "address",
          "name": "newPauser_",
          "type": "address"
        }
      ],
      "name": "setPauser",
      "outputs": [],
      "stateMutability": "nonpayable",
      "type": "function"
    },
    {
      "inputs": [
        {
          "internalType": "uint256",
          "name": "protThrld_",
          "type": "uint256"
        }
      ],
      "name": "setProtThrld",
      "outputs": [],
      "stateMutability": "nonpayable",
      "type": "function"
    },
    {
      "inputs": [
        {
          "internalType": "uint256",
          "name": "redeemTCandTPFee_",
          "type": "uint256"
        }
      ],
      "name": "setRedeemTCandTPFee",
      "outputs": [],
      "stateMutability": "nonpayable",
      "type": "function"
    },
    {
      "inputs": [
        {
          "internalType": "uint256",
          "name": "successFee_",
          "type": "uint256"
        }
      ],
      "name": "setSuccessFee",
      "outputs": [],
      "stateMutability": "nonpayable",
      "type": "function"
    },
    {
      "inputs": [
        {
          "internalType": "uint256",
          "name": "swapTCforTPFee_",
          "type": "uint256"
        }
      ],
      "name": "setSwapTCforTPFee",
      "outputs": [],
      "stateMutability": "nonpayable",
      "type": "function"
    },
    {
      "inputs": [
        {
          "internalType": "uint256",
          "name": "swapTPforTCFee_",
          "type": "uint256"
        }
      ],
      "name": "setSwapTPforTCFee",
      "outputs": [],
      "stateMutability": "nonpayable",
      "type": "function"
    },
    {
      "inputs": [
        {
          "internalType": "uint256",
          "name": "swapTPforTPFee_",
          "type": "uint256"
        }
      ],
      "name": "setSwapTPforTPFee",
      "outputs": [],
      "stateMutability": "nonpayable",
      "type": "function"
    },
    {
      "inputs": [
        {
          "internalType": "address",
          "name": "tcInterestCollectorAddress_",
          "type": "address"
        }
      ],
      "name": "setTCInterestCollectorAddress",
      "outputs": [],
      "stateMutability": "nonpayable",
      "type": "function"
    },
    {
      "inputs": [
        {
          "internalType": "uint256",
          "name": "tcInterestPaymentBlockSpan_",
          "type": "uint256"
        }
      ],
      "name": "setTCInterestPaymentBlockSpan",
      "outputs": [],
      "stateMutability": "nonpayable",
      "type": "function"
    },
    {
      "inputs": [
        {
          "internalType": "uint256",
          "name": "tcInterestRate_",
          "type": "uint256"
        }
      ],
      "name": "setTCInterestRate",
      "outputs": [],
      "stateMutability": "nonpayable",
      "type": "function"
    },
    {
      "inputs": [
        {
          "internalType": "uint256",
          "name": "tcMintFee_",
          "type": "uint256"
        }
      ],
      "name": "setTcMintFee",
      "outputs": [],
      "stateMutability": "nonpayable",
      "type": "function"
    },
    {
      "inputs": [
        {
          "internalType": "uint256",
          "name": "tcRedeemFee_",
          "type": "uint256"
        }
      ],
      "name": "setTcRedeemFee",
      "outputs": [],
      "stateMutability": "nonpayable",
      "type": "function"
    },
    {
      "inputs": [],
      "name": "shouldCalculateEma",
      "outputs": [
        {
          "internalType": "bool",
          "name": "",
          "type": "bool"
        }
      ],
      "stateMutability": "view",
      "type": "function"
    },
    {
      "inputs": [],
      "name": "stoppable",
      "outputs": [
        {
          "internalType": "bool",
          "name": "",
          "type": "bool"
        }
      ],
      "stateMutability": "view",
      "type": "function"
    },
    {
      "inputs": [],
      "name": "successFee",
      "outputs": [
        {
          "internalType": "uint256",
          "name": "",
          "type": "uint256"
        }
      ],
      "stateMutability": "view",
      "type": "function"
    },
    {
      "inputs": [
        {
          "internalType": "uint256",
          "name": "i_",
          "type": "uint256"
        },
        {
          "internalType": "uint256",
          "name": "qTC_",
          "type": "uint256"
        },
        {
          "internalType": "uint256",
          "name": "qTPmin_",
          "type": "uint256"
        },
        {
          "internalType": "uint256",
          "name": "qACmax_",
          "type": "uint256"
        }
      ],
      "name": "swapTCforTP",
      "outputs": [
        {
          "internalType": "uint256",
          "name": "qACFee",
          "type": "uint256"
        },
        {
          "internalType": "uint256",
          "name": "qTPMinted",
          "type": "uint256"
        },
        {
          "internalType": "uint256",
          "name": "qFeeToken",
          "type": "uint256"
        }
      ],
      "stateMutability": "nonpayable",
      "type": "function"
    },
    {
      "inputs": [],
      "name": "swapTCforTPFee",
      "outputs": [
        {
          "internalType": "uint256",
          "name": "",
          "type": "uint256"
        }
      ],
      "stateMutability": "view",
      "type": "function"
    },
    {
      "inputs": [
        {
          "internalType": "uint256",
          "name": "i_",
          "type": "uint256"
        },
        {
          "internalType": "uint256",
          "name": "qTC_",
          "type": "uint256"
        },
        {
          "internalType": "uint256",
          "name": "qTPmin_",
          "type": "uint256"
        },
        {
          "internalType": "uint256",
          "name": "qACmax_",
          "type": "uint256"
        },
        {
          "internalType": "address",
          "name": "vendor_",
          "type": "address"
        }
      ],
      "name": "swapTCforTPViaVendor",
      "outputs": [
        {
          "internalType": "uint256",
          "name": "qACFee",
          "type": "uint256"
        },
        {
          "internalType": "uint256",
          "name": "qTPMinted",
          "type": "uint256"
        },
        {
          "internalType": "uint256",
          "name": "qFeeToken",
          "type": "uint256"
        }
      ],
      "stateMutability": "nonpayable",
      "type": "function"
    },
    {
      "inputs": [
        {
          "internalType": "uint256",
          "name": "i_",
          "type": "uint256"
        },
        {
          "internalType": "uint256",
          "name": "qTC_",
          "type": "uint256"
        },
        {
          "internalType": "uint256",
          "name": "qTPmin_",
          "type": "uint256"
        },
        {
          "internalType": "uint256",
          "name": "qACmax_",
          "type": "uint256"
        },
        {
          "internalType": "address",
          "name": "recipient_",
          "type": "address"
        }
      ],
      "name": "swapTCforTPto",
      "outputs": [
        {
          "internalType": "uint256",
          "name": "qACFee",
          "type": "uint256"
        },
        {
          "internalType": "uint256",
          "name": "qTPMinted",
          "type": "uint256"
        },
        {
          "internalType": "uint256",
          "name": "qFeeToken",
          "type": "uint256"
        }
      ],
      "stateMutability": "nonpayable",
      "type": "function"
    },
    {
      "inputs": [
        {
          "internalType": "uint256",
          "name": "i_",
          "type": "uint256"
        },
        {
          "internalType": "uint256",
          "name": "qTC_",
          "type": "uint256"
        },
        {
          "internalType": "uint256",
          "name": "qTPmin_",
          "type": "uint256"
        },
        {
          "internalType": "uint256",
          "name": "qACmax_",
          "type": "uint256"
        },
        {
          "internalType": "address",
          "name": "recipient_",
          "type": "address"
        },
        {
          "internalType": "address",
          "name": "vendor_",
          "type": "address"
        }
      ],
      "name": "swapTCforTPtoViaVendor",
      "outputs": [
        {
          "internalType": "uint256",
          "name": "qACFee",
          "type": "uint256"
        },
        {
          "internalType": "uint256",
          "name": "qTPMinted",
          "type": "uint256"
        },
        {
          "internalType": "uint256",
          "name": "qFeeToken",
          "type": "uint256"
        }
      ],
      "stateMutability": "nonpayable",
      "type": "function"
    },
    {
      "inputs": [
        {
          "internalType": "uint256",
          "name": "i_",
          "type": "uint256"
        },
        {
          "internalType": "uint256",
          "name": "qTP_",
          "type": "uint256"
        },
        {
          "internalType": "uint256",
          "name": "qTCmin_",
          "type": "uint256"
        },
        {
          "internalType": "uint256",
          "name": "qACmax_",
          "type": "uint256"
        }
      ],
      "name": "swapTPforTC",
      "outputs": [
        {
          "internalType": "uint256",
          "name": "qACFee",
          "type": "uint256"
        },
        {
          "internalType": "uint256",
          "name": "qTPMinted",
          "type": "uint256"
        },
        {
          "internalType": "uint256",
          "name": "qFeeToken",
          "type": "uint256"
        }
      ],
      "stateMutability": "nonpayable",
      "type": "function"
    },
    {
      "inputs": [],
      "name": "swapTPforTCFee",
      "outputs": [
        {
          "internalType": "uint256",
          "name": "",
          "type": "uint256"
        }
      ],
      "stateMutability": "view",
      "type": "function"
    },
    {
      "inputs": [
        {
          "internalType": "uint256",
          "name": "i_",
          "type": "uint256"
        },
        {
          "internalType": "uint256",
          "name": "qTP_",
          "type": "uint256"
        },
        {
          "internalType": "uint256",
          "name": "qTCmin_",
          "type": "uint256"
        },
        {
          "internalType": "uint256",
          "name": "qACmax_",
          "type": "uint256"
        },
        {
          "internalType": "address",
          "name": "vendor_",
          "type": "address"
        }
      ],
      "name": "swapTPforTCViaVendor",
      "outputs": [
        {
          "internalType": "uint256",
          "name": "qACFee",
          "type": "uint256"
        },
        {
          "internalType": "uint256",
          "name": "qTPMinted",
          "type": "uint256"
        },
        {
          "internalType": "uint256",
          "name": "qFeeToken",
          "type": "uint256"
        }
      ],
      "stateMutability": "nonpayable",
      "type": "function"
    },
    {
      "inputs": [
        {
          "internalType": "uint256",
          "name": "i_",
          "type": "uint256"
        },
        {
          "internalType": "uint256",
          "name": "qTP_",
          "type": "uint256"
        },
        {
          "internalType": "uint256",
          "name": "qTCmin_",
          "type": "uint256"
        },
        {
          "internalType": "uint256",
          "name": "qACmax_",
          "type": "uint256"
        },
        {
          "internalType": "address",
          "name": "recipient_",
          "type": "address"
        }
      ],
      "name": "swapTPforTCto",
      "outputs": [
        {
          "internalType": "uint256",
          "name": "qACFee",
          "type": "uint256"
        },
        {
          "internalType": "uint256",
          "name": "qTPMinted",
          "type": "uint256"
        },
        {
          "internalType": "uint256",
          "name": "qFeeToken",
          "type": "uint256"
        }
      ],
      "stateMutability": "nonpayable",
      "type": "function"
    },
    {
      "inputs": [
        {
          "internalType": "uint256",
          "name": "i_",
          "type": "uint256"
        },
        {
          "internalType": "uint256",
          "name": "qTP_",
          "type": "uint256"
        },
        {
          "internalType": "uint256",
          "name": "qTCmin_",
          "type": "uint256"
        },
        {
          "internalType": "uint256",
          "name": "qACmax_",
          "type": "uint256"
        },
        {
          "internalType": "address",
          "name": "recipient_",
          "type": "address"
        },
        {
          "internalType": "address",
          "name": "vendor_",
          "type": "address"
        }
      ],
      "name": "swapTPforTCtoViaVendor",
      "outputs": [
        {
          "internalType": "uint256",
          "name": "qACFee",
          "type": "uint256"
        },
        {
          "internalType": "uint256",
          "name": "qTPMinted",
          "type": "uint256"
        },
        {
          "internalType": "uint256",
          "name": "qFeeToken",
          "type": "uint256"
        }
      ],
      "stateMutability": "nonpayable",
      "type": "function"
    },
    {
      "inputs": [
        {
          "internalType": "uint256",
          "name": "iFrom_",
          "type": "uint256"
        },
        {
          "internalType": "uint256",
          "name": "iTo_",
          "type": "uint256"
        },
        {
          "internalType": "uint256",
          "name": "qTP_",
          "type": "uint256"
        },
        {
          "internalType": "uint256",
          "name": "qTPmin_",
          "type": "uint256"
        },
        {
          "internalType": "uint256",
          "name": "qACmax_",
          "type": "uint256"
        }
      ],
      "name": "swapTPforTP",
      "outputs": [
        {
          "internalType": "uint256",
          "name": "qACFee",
          "type": "uint256"
        },
        {
          "internalType": "uint256",
          "name": "qTPMinted",
          "type": "uint256"
        },
        {
          "internalType": "uint256",
          "name": "qFeeToken",
          "type": "uint256"
        }
      ],
      "stateMutability": "nonpayable",
      "type": "function"
    },
    {
      "inputs": [],
      "name": "swapTPforTPFee",
      "outputs": [
        {
          "internalType": "uint256",
          "name": "",
          "type": "uint256"
        }
      ],
      "stateMutability": "view",
      "type": "function"
    },
    {
      "inputs": [
        {
          "internalType": "uint256",
          "name": "iFrom_",
          "type": "uint256"
        },
        {
          "internalType": "uint256",
          "name": "iTo_",
          "type": "uint256"
        },
        {
          "internalType": "uint256",
          "name": "qTP_",
          "type": "uint256"
        },
        {
          "internalType": "uint256",
          "name": "qTPmin_",
          "type": "uint256"
        },
        {
          "internalType": "uint256",
          "name": "qACmax_",
          "type": "uint256"
        },
        {
          "internalType": "address",
          "name": "vendor_",
          "type": "address"
        }
      ],
      "name": "swapTPforTPViaVendor",
      "outputs": [
        {
          "internalType": "uint256",
          "name": "qACFee",
          "type": "uint256"
        },
        {
          "internalType": "uint256",
          "name": "qTPMinted",
          "type": "uint256"
        },
        {
          "internalType": "uint256",
          "name": "qFeeToken",
          "type": "uint256"
        }
      ],
      "stateMutability": "nonpayable",
      "type": "function"
    },
    {
      "inputs": [
        {
          "internalType": "uint256",
          "name": "iFrom_",
          "type": "uint256"
        },
        {
          "internalType": "uint256",
          "name": "iTo_",
          "type": "uint256"
        },
        {
          "internalType": "uint256",
          "name": "qTP_",
          "type": "uint256"
        },
        {
          "internalType": "uint256",
          "name": "qTPmin_",
          "type": "uint256"
        },
        {
          "internalType": "uint256",
          "name": "qACmax_",
          "type": "uint256"
        },
        {
          "internalType": "address",
          "name": "recipient_",
          "type": "address"
        }
      ],
      "name": "swapTPforTPto",
      "outputs": [
        {
          "internalType": "uint256",
          "name": "qACFee",
          "type": "uint256"
        },
        {
          "internalType": "uint256",
          "name": "qTPMinted",
          "type": "uint256"
        },
        {
          "internalType": "uint256",
          "name": "qFeeToken",
          "type": "uint256"
        }
      ],
      "stateMutability": "nonpayable",
      "type": "function"
    },
    {
      "inputs": [
        {
          "internalType": "uint256",
          "name": "iFrom_",
          "type": "uint256"
        },
        {
          "internalType": "uint256",
          "name": "iTo_",
          "type": "uint256"
        },
        {
          "internalType": "uint256",
          "name": "qTP_",
          "type": "uint256"
        },
        {
          "internalType": "uint256",
          "name": "qTPmin_",
          "type": "uint256"
        },
        {
          "internalType": "uint256",
          "name": "qACmax_",
          "type": "uint256"
        },
        {
          "internalType": "address",
          "name": "recipient_",
          "type": "address"
        },
        {
          "internalType": "address",
          "name": "vendor_",
          "type": "address"
        }
      ],
      "name": "swapTPforTPtoViaVendor",
      "outputs": [
        {
          "internalType": "uint256",
          "name": "qACFee",
          "type": "uint256"
        },
        {
          "internalType": "uint256",
          "name": "qTPMinted",
          "type": "uint256"
        },
        {
          "internalType": "uint256",
          "name": "qFeeToken",
          "type": "uint256"
        }
      ],
      "stateMutability": "nonpayable",
      "type": "function"
    },
    {
      "inputs": [],
      "name": "tcHoldersInterestPayment",
      "outputs": [],
      "stateMutability": "nonpayable",
      "type": "function"
    },
    {
      "inputs": [],
      "name": "tcInterestCollectorAddress",
      "outputs": [
        {
          "internalType": "address",
          "name": "",
          "type": "address"
        }
      ],
      "stateMutability": "view",
      "type": "function"
    },
    {
      "inputs": [],
      "name": "tcInterestPaymentBlockSpan",
      "outputs": [
        {
          "internalType": "uint256",
          "name": "",
          "type": "uint256"
        }
      ],
      "stateMutability": "view",
      "type": "function"
    },
    {
      "inputs": [],
      "name": "tcInterestRate",
      "outputs": [
        {
          "internalType": "uint256",
          "name": "",
          "type": "uint256"
        }
      ],
      "stateMutability": "view",
      "type": "function"
    },
    {
      "inputs": [],
      "name": "tcMintFee",
      "outputs": [
        {
          "internalType": "uint256",
          "name": "",
          "type": "uint256"
        }
      ],
      "stateMutability": "view",
      "type": "function"
    },
    {
      "inputs": [],
      "name": "tcRedeemFee",
      "outputs": [
        {
          "internalType": "uint256",
          "name": "",
          "type": "uint256"
        }
      ],
      "stateMutability": "view",
      "type": "function"
    },
    {
      "inputs": [],
      "name": "tcToken",
      "outputs": [
        {
          "internalType": "contract MocTC",
          "name": "",
          "type": "address"
        }
      ],
      "stateMutability": "view",
      "type": "function"
    },
    {
      "inputs": [
        {
          "internalType": "uint256",
          "name": "",
          "type": "uint256"
        }
      ],
      "name": "tpCtarg",
      "outputs": [
        {
          "internalType": "uint256",
          "name": "",
          "type": "uint256"
        }
      ],
      "stateMutability": "view",
      "type": "function"
    },
    {
      "inputs": [
        {
          "internalType": "uint256",
          "name": "",
          "type": "uint256"
        }
      ],
      "name": "tpEma",
      "outputs": [
        {
          "internalType": "uint256",
          "name": "ema",
          "type": "uint256"
        },
        {
          "internalType": "uint256",
          "name": "sf",
          "type": "uint256"
        }
      ],
      "stateMutability": "view",
      "type": "function"
    },
    {
      "inputs": [
        {
          "internalType": "uint256",
          "name": "",
          "type": "uint256"
        }
      ],
      "name": "tpMintFee",
      "outputs": [
        {
          "internalType": "uint256",
          "name": "",
          "type": "uint256"
        }
      ],
      "stateMutability": "view",
      "type": "function"
    },
    {
      "inputs": [
        {
          "internalType": "uint256",
          "name": "",
          "type": "uint256"
        }
      ],
      "name": "tpRedeemFee",
      "outputs": [
        {
          "internalType": "uint256",
          "name": "",
          "type": "uint256"
        }
      ],
      "stateMutability": "view",
      "type": "function"
    },
    {
      "inputs": [
        {
          "internalType": "uint256",
          "name": "",
          "type": "uint256"
        }
      ],
      "name": "tpTokens",
      "outputs": [
        {
          "internalType": "contract IMocRC20",
          "name": "",
          "type": "address"
        }
      ],
      "stateMutability": "view",
      "type": "function"
    },
    {
      "inputs": [],
      "name": "unpause",
      "outputs": [],
      "stateMutability": "nonpayable",
      "type": "function"
    },
    {
      "inputs": [],
      "name": "updateEmas",
      "outputs": [],
      "stateMutability": "nonpayable",
      "type": "function"
    },
    {
      "inputs": [
        {
          "internalType": "address",
          "name": "newImplementation",
          "type": "address"
        }
      ],
      "name": "upgradeTo",
      "outputs": [],
      "stateMutability": "nonpayable",
      "type": "function"
    },
    {
      "inputs": [
        {
          "internalType": "address",
          "name": "newImplementation",
          "type": "address"
        },
        {
          "internalType": "bytes",
          "name": "data",
          "type": "bytes"
        }
      ],
      "name": "upgradeToAndCall",
      "outputs": [],
      "stateMutability": "payable",
      "type": "function"
    }
  ],
  "bytecode": "0x60a08060405234620000e157306080526000549060ff8260081c166200008f575060ff8082161062000053575b604051615c949081620000e782396080518181816127da01528181612a0d0152612e4d0152f35b60ff90811916176000557f7f26b83ff96e1f2b6a682f133852f6798a09c465da95921460cefb3847402498602060405160ff8152a1386200002c565b62461bcd60e51b815260206004820152602760248201527f496e697469616c697a61626c653a20636f6e747261637420697320696e697469604482015266616c697a696e6760c81b6064820152608490fd5b600080fdfe6040608081526004908136101561001557600080fd5b60009160e08335811c908162abc30a1461408c57816301cded9c1461402257816301dde6ef14613fff57816301f1b68414613fba5781630579188f14613e77578163073763b914613e545781630bb7f60814613db15781630c340a2414613d875781630c36d89714613d665781630d6ac46314613d215781630db4965614613d005781630e0a8fd214613cdd5781630f1e5e2b14613c985781630f6a46f314613c29578163102fefac14613bc15781631301a8f014613b3657816317574bc51461397957816317df0ab8146138b1578163181770da1461379a5781631867e2f5146137795781631a89b8f21461371c5781631f1138a61461369b5781631fb0dda0146136775781631fe6a7ad1461363e5781632069f7531461361b57816323b98cde146135f257816325bc6c41146135c757816327eab2a11461358257816328b7a82e1461316a5781632a20d57d146131495781632c43bd3b146131265781632d88af4a146130d05781632ded50f0146130af5781632e9680e41461302e5781633174125814612fc5578163333431fd14612fa457816333421c3814612eb35781633659cfe614612e1c5781633bc4ac0a14612df95781633dbc50a914612da45781633f4ba83a14612d2b5781634017936a14612ce9578163407f0e3414612cc85781634310adc614612c5f5781634454ae8b14612bf5578163471a80e314612b8e5781634b74600114612b465781634cffbaab14612ae55781634d977e7814612ac45781634e1f907a14612a995781634f0f27ee14612a785781634f1ef286146129885781635210570c146129605781635241271c1461293157816352a0331d1461289957816352d1902d146127c4578163543aeb48146127a157816354a73c62146127435781635c616a731461248c5781635c975abb146124645781635d65d0451461242d5781635e1e8928146123d057816360009e0b146123a5578163647846a51461237a57816364ec230a14612357578163662013f414612339578163682743571461230e5781636b5488df146122ed57816370713468146122ca57816371cd722d146121c3578163735d39601461217e5781637554fffd1461215d5781637750ba0c1461213a57816379f9a91c146121195781637a193c31146120f85781637a4ff1d9146120d55781637a727fe8146120b45781637af5758c146120915781637c2879991461202d5781637cba23831461200a5781637d8e031414611fdb5781637f01c71514611fb05781637f4a4fe014611f8f578163826fcd5814611f6b5781638456cb5914611eda5781638ce6c2c114611e7b5781638cfa424114611e5a5781638e2bdb8614611e2f5781638f1a383a14611e065781638f27ec6c14611cb2578163904aa85b14611c915781639195c85b14611c6c5781639853c35a14611c415781639abb14c914611b3c5781639ad6659d14611b055781639bdd7cce146118c95781639cabfc001461187e5781639fd0506d14611850578163a17bfb96146117ef578163a8e9ac30146117cb578163aea038dc146117aa578163b9fa641314611789578163bad25a21146115e2578163bb2ac7881461152d578163bb4872de14611508578163becaca6b146114e5578163c00f538d146114c2578163c039cc6914611473578163c84353c914611450578163ceecc55a14611362578163cf351c1d1461131d578163d1a0faa0146112ff578163da2f567d1461121d578163db796072146111df578163de08160f146111a2578163de8d520a1461116e578163e23c135c1461111e578163e401294514610f27578163e4c0aaf414610ede578163e6a683e014610e99578163e6b1627c14610e5b578163e7c2597814610e35578163e8859a1514610e17578163f13f405414610dec578163f21fcc0014610b79578163f26114aa14610b1357508063f280877814610af1578063f30b561414610ad1578063f375cfba14610ab1578063fa6e83bd14610a91578063fa79589e14610a42578063fbbb53a714610839578063fda70f8b14610815578063fed0ade4146107bd5763ffe31539146105f057600080fd5b346107b95760603660031901126107b4576001600160a01b039060443582811691908290036107b4576106bd9184519561062b60a0886142b7565b823587526020870194602435865286880197338952606081019033825260808101948552610657614ee4565b61065f615c1b565b670de0b6b3a764000061069161068b610682610679614c83565b61017b54614fae565b85519291614ff1565b906149cb565b049061069b614d1d565b506106b2848c5116838689511661016e549261502c565b9891849a919a614897565b9951808b116107985750891561078a575083928b928461075f938d9e9d8b8e9f61077e9e9f857f73ef11a21cabab55ca448e6e2ae4b60bda75ed8109e2496084c92dc17b8334db92511692610752878a51169587519280516020820151906060848401519301519351968796879260a094919796959260c0850198855260208501526040840152606083015260808201520152565b0390a35192511691614f06565b6107728983610253541630903390614d44565b51169251169180615500565b82519182526020820152f35b8a5163f3e39b5d60e01b8152fd5b8b51630b63f1a760e01b815291820152602481018a9052604490fd5b600080fd5b8280fd5b50346107b9576106bd6107d03683614275565b91949296908651976107e360a08a6142b7565b88526020880195865286880197338952606081019060018060a01b038093168252826080820195168552610657614ee4565b50503461083557816003193601126108355760209061016e549051908152f35b5080fd5b5090346107b9576108d99261084e368461430b565b9286979497959295519761086360c08a6142b7565b88526020880190815286880195865260608801973389526080810160018060a01b0380941681528360a083019616865261089b614ee4565b6108a3615c1b565b6108ab615af9565b6108ef6108b6615a3d565b6108c48593929351826148a4565b519d8e916108d3838851615368565b84614fae565b918651946108e9828a5197615995565b906153bf565b90808210610a2657505061091b61095698999a9b610916670de0b6b3a764000086516149cb565b6149de565b91610924614d1d565b5061094b858d511684878a511661093e8551610176614194565b90549060031b1c9261502c565b9991859b919b614897565b9a51808c11610a0a57508a156109fc5750928a9b9261075f9286868d9e8c61077e9e9f7fb1c19484081f58b25de95eb3695caea3c2167249920a6439ec0253054d343e73859b5191868c5116936109ed888a5116968c519280516020820151906060848401519301519351968796879260a094919796959260c0850198855260208501526040840152606083015260808201520152565b0390a4519351915116926152cf565b8b5163f3e39b5d60e01b8152fd5b8c51630b63f1a760e01b815291820152602481018b9052604490fd5b60449189918c519263c39b739f60e01b84528301526024820152fd5b509134610a8e576020366003190112610a8e5750610a87610a7f60209335610a68615a3d565b906108e9610a7684846148a4565b519485936148b8565b959094615995565b9051908152f35b80fd5b50503461083557816003193601126108355760209061016c549051908152f35b505034610835578160031936011261083557602090610173549051908152f35b505034610835578160031936011261083557602090610163549051908152f35b50346107b95760203660031901126107b957610b0b615b8d565b3561016e5551f35b905034610b75573660031901126107b957610b51610b5f610b7192610b36615b8d565b84516379308a5560e11b6020820152928391602483016158f7565b03601f1981018352826142b7565b610220546001600160a01b0316615490565b5051f35b8380fd5b50508234610a8e5760603660031901126107b457825190610b9b60c0836142b7565b82358252602082019360243585528083019160443583526060840193338552608081019133835260a0820191818352610bd2614ee4565b610bda615c1b565b610be2615af9565b610bea615a3d565b979099610bf883518a6148a4565b51610c04818551615368565b610c118a61017c54614fae565b5050610c27610c2183519b6148b8565b90614ff1565b9b670de0b6b3a763ffff198101908111610dd9579b610c7a826109168d9e9f610c8095610cb39e9f610c5c92610916916149cb565b93610c74670de0b6b3a76400009161091683886149cb565b9f6149cb565b90614897565b95610c89614d1d565b5060018060a01b0393610ca88585511689878a5116610174549261502c565b9991829c919c614897565b9b51808d11610dbd57508b15610dad5793610d7b84888f9e9d9b98958f8f96610da99f9d9a828f91610d8e9f9c8f8b7f3d9b2786930e9c1e492d52af3cc38bd2ffe9405d82b4997053a26a89560562008f9e8f99610d62610d6f998d968d808e51985116985116985194815160208301519160608585015194015194519788978893909796959260c0959260e08601998652602086015260408501526060840152608083015260a08201520152565b0390a48486511691614f06565b519351915116926152cf565b6107728b83610253541630903390614d44565b51938493846040919493926060820195825260208201520152565b0390f35b895163f3e39b5d60e01b81528e90fd5b8e8d6044928d5192630b63f1a760e01b84528301526024820152fd5b634e487b7160e01b865260118c52602486fd5b505050346108355781600319360112610835576101625490516001600160a01b039091168152602090f35b50505034610835578160031936011261083557602090610a87615958565b5050503461083557816003193601126108355760209060ff61017d541690519015158152f35b5050346107b95760203660031901126107b957356101b88054821015610b755790610e859161429b565b506001815491015482519182526020820152f35b5050346107b95760203660031901126107b957356001600160a01b038116908190036107b457610ec7615b8d565b61022080546001600160a01b031916909117905551f35b5050346107b95760203660031901126107b957356001600160a01b038116908190036107b957610f0c615b8d565b6bffffffffffffffffffffffff60a01b609754161760975551f35b5050346107b95760603660031901126107b4576001600160a01b0390604435828116908190036107b457835194610f5f60a0876142b7565b82358652602086019360243585528587013381526060880193845260808801928352610f89614ee4565b610f91615c1b565b610f99615af9565b87610fbf610fb3610fcf610fab615a3d565b819391614fae565b818195929651946153f4565b610fc98486614ff1565b906149de565b90808210611102575050670de0b6b3a76400009161068b610ff2928c5192614ff1565b0480156110f257611029969798611007614d1d565b5061101e84845116838688511661016f549261502c565b9891849a919a6147f9565b9951808b106110d65750509280836110c882948c978e8b7f96956e9e47738119037532fcf68a81b25d418eaf754281e005f11fa2d33bfffb8b61077e9f9e9d9b8f908a806110b99251169551169587519280516020820151906060848401519301519351968796879260a094919796959260c0850198855260208501526040840152606083015260808201520152565b0390a351908484511691615713565b511694511691511692615500565b8b516354cde31360e01b815291820152602481018a9052604490fd5b875163f3e39b5d60e01b81528690fd5b60449189918c519263a5db715d60e01b84528301526024820152fd5b5050503461083557816003193601126108355761113a3061481c565b6101639061114a825480926147f9565b61115357505051f35b80610c7a611169926111643061481c565b6147f9565b905551f35b50505034610835578160031936011261083557602090610a87611197611192614c83565b6148b8565b9050610163546147f9565b5050346107b95760203660031901126107b9573591610176908154841015610a8e57506020926111d191614194565b91905490519160031b1c8152f35b905034610b75573660031901126107b957610b51610b5f610b7192611202615b8d565b8451636dbcb03960e11b6020820152928391602483016158f7565b848484346107b957610da991611237610d8e9236906141c2565b969461124c879a95929a949394519b8c6142b7565b8a5260208a015284890152606088015260808701933385526112e56112d660018060a01b03998a809a1660a08201528960c082019416845261128c614ee4565b611294615c1b565b61129c614d1d565b508651630a899e9f60e41b6020820152906112bb9060248301906154b2565b60e481526112cb610104826142b7565b896102205416615490565b60208082518301019101615435565b949299919a90976107728b83610253541630903390614d44565b5050503461083557816003193601126108355761131a615af9565b51f35b5050346107b95760203660031901126107b957356001600160a01b038116908190036107b45761134b615b8d565b61016180546001600160a01b031916909117905551f35b90508383346108355760a0366003190112610835579081610da992519461138b610100876142b7565b358552610d8e602086019260243584528287019360443585526060880160643581526080890190608435825260a08a019633885260c08b0199338b528b01938585526113d5614ee4565b6113dd615c1b565b6113e5614d1d565b5087519b8c6020631c280ce160e01b9101525160248d01525160448c01525160648b01525160848a01525160a48901526112e56112d660018060a01b03998a809a818a511660c4840152511660e482015289845116610104908183015281526112cb610124826142b7565b5050346107b95760203660031901126107b95761146b615b8d565b3561017e5551f35b50505034610835578160031936011261083557602090610a876114b5610916670de0b6b3a76400006114bc6114a9611192614c83565b610163959195546147f9565b93846147f9565b926149cb565b5050346107b95760203660031901126107b9576114dd615b8d565b3561016f5551f35b5050346107b95760203660031901126107b957611500615b8d565b3561016b5551f35b5050503461083557816003193601126108355760209060ff60ca541690519015158152f35b9291905034610b755792610da9916115496112d69536906141fb565b92611559859392935198896142b7565b87526020870152828601526060850152610d8e60808501923384523360a087015260c08601818152611589614ee4565b611591615c1b565b611599614d1d565b508351630a899e9f60e41b6020820152966115b89060248901906154b2565b60e487526115c8610104886142b7565b610220546001600160a01b039889986112e5928a16615490565b50508234610a8e57506116b46115f8368361430b565b9195939287519361160a60c0866142b7565b8452602084019081528784019687526060840190338252608085019460018060a01b0380941686528360a0820195168552611643614ee4565b61164b615c1b565b611686611656614c83565b6116716116648451836148a4565b5191610679838651615368565b5050610916670de0b6b3a764000085516149cb565b9061168f614d1d565b506116a985855116838789511661093e8551610177614194565b9991849b919b6147f9565b9a831561177a5751808c1061175e575050938695936110c882948394888f8f9a9c8e61077e9f9e8d7f94623cc0bdff77f15a945c5f7c85f92e30baeee629058db590ceeba3755ad3be91519261174e8c808d5116965116968a519280516020820151906060848401519301519351968796879260a094919796959260c0850198855260208501526040840152606083015260808201520152565b0390a45191518585511692615796565b8c516354cde31360e01b815291820152602481018b9052604490fd5b508b5163f3e39b5d60e01b8152fd5b50505034610835578160031936011261083557602090610185549051908152f35b5050503461083557816003193601126108355760209061016f549051908152f35b505050346108355781600319360112610835576020906101b9544310159051908152f35b505090346107b9576108d992611805368461421d565b855192969194919361181860c0856142b7565b8352602083019687528583019485526060830196338852608084019333855260a081019460018060a01b03809416865261089b614ee4565b5050503461083557816003193601126108355760ca54905160109190911c6001600160a01b03168152602090f35b8385843461083557602036600319011261083557356001600160a01b03811691908290036107b457829181526101686020522060ff6001825492015416825191825215156020820152f35b848385346107b95761198e936118df3684614166565b9197936118f1879694965194856142b7565b83526020830194855285830197885260608301526080820133815260a083019360018060a01b03809316855260c084019381855261192d614ee4565b611935615c1b565b61193d614c83565b61196161194b8351836148a4565b5191611958838551615368565b61017c54614fae565b9c909161197881611973858d516149cb565b6149cb565b670de0b6b3a764000092839161016654906149de565b049d8e9d519e8f10611ae8578d9e506119fc9c9d6119c584936109166119d297968f6119cb966119bf915199614ff1565b946149cb565b936149cb565b0490614897565b6119da614d1d565b506119f1858551168287895116610173549261502c565b9991839c919c6147f9565b9b8c6060850151809110611acc57508c1561078a575094846110c88e8b99968f9896610da99f9e9d8698978f9c610d8e9f9d928e8a9b8f897f754f66f66f0afcd87e3edd11c0796fef32599efe490000fdb0f014e3ad9560fa91611ab18f998a611ac09b8d5197511697511697895193815160208301519160608585015194015194519788978893909796959260c0959260e08601998652602086015260408501526060840152608083015260a08201520152565b0390a451908888511691615713565b51918585511692615796565b8b516354cde31360e01b815291820152602481018d9052604490fd5b60448f8f8f918f5192637a031da360e11b84528301526024820152fd5b50505034610835578160031936011261083557602090611b2f611b29611192614c83565b90614a5f565b61017c5410159051908152f35b5050346107b957816003193601126107b457815190611b5c60a0836142b7565b803582526020820191602435835283810194338652606082019133835260808101918252611b88614ee4565b611b90615c1b565b611b98615af9565b611bab611ba3615a3d565b819291614fae565b9091611bbd610fbf83858751946153f4565b90808210611c25575050670de0b6b3a76400009161068b611be092855192614ff1565b04968715611c1557611029959697611bf6614d1d565b5060018060a01b039261101e84845116838688511661016f549261502c565b865163f3e39b5d60e01b81528590fd5b60449188918b519263a5db715d60e01b84528301526024820152fd5b505050346108355781600319360112610835576101785490516001600160a01b039091168152602090f35b50509134610a8e576020366003190112610a8e5750610a876020923390339035615812565b50509134610a8e576020366003190112610a8e5750610a8760209235614bad565b8285853461083557611cc4368461421d565b9290939194825191611cd760c0846142b7565b8252602082019586528282019485526060820190338252608083019433865260a084019260018060a01b038092168452611d0f614ee4565b611d17615c1b565b611d1f615af9565b611d27615a3d565b611d35879b929b51826148a4565b51611d41818951615368565b611d4e8261017c54614fae565b5050611d5e610c218451936148b8565b9b670de0b6b3a763ffff198101908111611df257611d7d8291846149cb565b90611d87916149de565b91670de0b6b3a76400009c611d9c8e856149cb565b90611da6916149de565b9c611db0916149cb565b90611dba916149de565b611dc391614897565b97611dcc614d1d565b5083835116848751168a6101745491611de49361502c565b9891610cb3908c929c614897565b50634e487b7160e01b865260118d52602486fd5b50505034610835578160031936011261083557602090611e27611192614c83565b509051908152f35b505050346108355781600319360112610835576101825490516001600160a01b039091168152602090f35b5050503461083557816003193601126108355760209061017c549051908152f35b8285853461083557611e8d368461430b565b909391949295835192611ea160c0856142b7565b8352602083019687528383019586526060830194338652608084019560018060a01b0380921687528160a0860194168452611d0f614ee4565b5050346107b957826003193601126107b957611ef4615c1b565b60ca5490601082901c6001600160a01b03163303611f5d5760ff821615611f4f57506101009061ff0019161760ca557f62e78cea01bee320cd4e420270b5ea74000d11b0c9f74754ebdbfc544b05a25860208251338152a151f35b825163866099c360e01b8152fd5b8251631d77d47760e21b8152fd5b50505034610835578160031936011261083557602090610a87611b29611192614c83565b50505034610835578160031936011261083557602090610184549051908152f35b505050346108355781600319360112610835576101ed5490516001600160a01b039091168152602090f35b5050346107b95760203660031901126107b957359161017a908154841015610a8e57506020926111d191614194565b5050346107b95760203660031901126107b957612025615b8d565b3561017b5551f35b848385346107b95761198e936120433684614166565b919793612055879694965194856142b7565b83526020830194855285830197885260608301526080820133815260a083019333855260c084019360018060a01b03809416855261192d614ee4565b5050346107b95760203660031901126107b9576120ac615b8d565b356101725551f35b505050346108355781600319360112610835576020906101ba549051908152f35b5050346107b95760203660031901126107b9576120f0615b8d565b356101735551f35b50505034610835578160031936011261083557602090610166549051908152f35b50505034610835578160031936011261083557602090610174549051908152f35b5050346107b95760203660031901126107b957612155615b8d565b3561016d5551f35b5050503461083557816003193601126108355760209061016b549051908152f35b5050346107b95760203660031901126107b957356001600160a01b038116908190036107b4576121ac615b8d565b61018280546001600160a01b031916909117905551f35b84929150346107b957806003193601126107b9576001600160a01b039360a435858116908190036107b45760c435948686168096036107b45786956112e56112d6610da99789610d8e9688519261221c610100856142b7565b3583526020830160243581528984016044358152606085019060643582526080860192608435845260a087019d8e33905260c088019586528701998a52612261614ee4565b612269615c1b565b612271614d1d565b508c5196631c280ce160e01b60208901525160248801525160448701525160648601525160848501525160a4840152818a511660c4840152511660e482015289845116610104908183015281526112cb610124826142b7565b5050346107b95760203660031901126107b9576122e5615b8d565b356101705551f35b5050503461083557816003193601126108355760209061017b549051908152f35b50505034610835578160031936011261083557612329615b8d565b600160ff1960ca54161760ca5551f35b50505034610835578160031936011261083557602090611e27615a3d565b5050346107b95760203660031901126107b957612372615b8d565b356101835551f35b505050346108355781600319360112610835576101615490516001600160a01b039091168152602090f35b505050346108355781600319360112610835576101655490516001600160a01b039091168152602090f35b50508234610a8e57506116b46123e6368361421d565b86519195936123f660c0846142b7565b82526020820192835286820195865260608201338152608083019333855260a084019360018060a01b038094168552611643614ee4565b50509134610a8e5781600319360112610a8e5750602435916001600160a01b03831683036107b457602092610a8791339035615812565b5050503461083557816003193601126108355760209060ff60ca5460081c1690519015158152f35b828585346108355781600319360112610835576124a7615c1b565b61017f805443106127335761017e54430190557fd3c59bda47e141a8ec5a33d241b7f71b86e30d359f83a9227d912858b60404fc828251a18161016954936124ee85614aa1565b94845b81811061266257505081612566575b508151908152602080820183905284518284018190526060830195820191855b8281106125525786867fae5116a8119d08673a0f1dfa7546b95da4bd54bb17feda7c61130ac7859152f6878b0388a151f35b835188529681019692810192600101612520565b9061257e670de0b6b3a76400009161016b54906149cb565b049061016361258e8382546147f9565b90556101785461012f805490926001600160a01b039283169160021461261f575090838392600260019555816125c9575b5050505584612500565b61025354875163a9059cbb60e01b60208201526001600160a01b03909216602483015260448201929092526126179290911661261282606481015b03601f1981018452836142b7565b614d88565b8683816125bf565b606490602087519162461bcd60e51b8352820152601f60248201527f5265656e7472616e637947756172643a207265656e7472616e742063616c6c006044820152fd5b61266b81614bad565b6126758183615368565b8661018091896126858585614194565b90549060031b1c918383136126a2575b50505050506001016124f1565b946126e78382969a6126ed946126e1856126d46126da6127069a60019e670de0b6b3a764000093849161016c546149cb565b046149cb565b04926148a4565b52614897565b98614194565b819391549060031b600019811b9283911b169119161790565b9055612729612715828a6148a4565b5188848060a01b03610179541691846152cf565b9086898981612695565b815163101b685960e01b81528490fd5b83858434610835576116b490612759368261421d565b90959187519361276a60c0866142b7565b8452602084019081528784019687526060840190338252608085019460018060a01b03809416865260a08101948552611643614ee4565b5050346107b95760203660031901126107b9576127bc615b8d565b356101755551f35b50508234610a8e5780600319360112610a8e57507f00000000000000000000000000000000000000000000000000000000000000006001600160a01b0316300361283157602082517f360894a13ba1a3210667c828492db98dca3e2076cc3735a920a3ca505d382bbc8152f35b6020608492519162461bcd60e51b8352820152603860248201527f555550535570677261646561626c653a206d757374206e6f742062652063616c60448201527f6c6564207468726f7567682064656c656761746563616c6c00000000000000006064820152fd5b8385843461083557906128b0610da9923690614166565b96936128c18594929451998a6142b7565b88526020880152828701526060860152610d8e60808601923384523360a088015260c087016112e56112d660018060a01b03998a809a168452612902614ee4565b61290a615c1b565b612912614d1d565b50865163f1cc804760e01b6020820152906112bb9060248301906154b2565b5050346107b95760203660031901126107b9573591610177908154841015610a8e57506020926111d191614194565b5050503461083557816003193601126108355761297b615b8d565b60ff1960ca541660ca5551f35b5050816003193601126107b9578035906001600160a01b0380831683036107b45784926024359267ffffffffffffffff8411612a745736602385011215612a74578301356129d5816142ef565b926129e2875194856142b7565b8184523660248387010111612a705761131a95602083612a63946024600199018389013786010152807f00000000000000000000000000000000000000000000000000000000000000001690612a3a82301415614336565b7f360894a13ba1a3210667c828492db98dca3e2076cc3735a920a3ca505d382bbc541614614397565b612a6b615b8d565b6143f8565b8580fd5b8480fd5b5050503461083557816003193601126108355760209061016d549051908152f35b505050346108355781600319360112610835576101795490516001600160a01b039091168152602090f35b5050503461083557816003193601126108355760209061017e549051908152f35b505090346107b9576108d992612afb368461421d565b8551929691949193612b0e60c0856142b7565b8352602083019687528583019485526060830196338852608084019360018060a01b03809316855260a081019484865261089b614ee4565b5050346107b95760203660031901126107b957356101698054821015610b755790612b709161429b565b50805460019091015482519182526001600160a01b03166020820152f35b50509134610a8e575060603660031901126107b4576001600160a01b039160443583811691908290036107b457825193612bc960a0866142b7565b813585526020850192602435845284860191338352606087019233845260808801928352610f89614ee4565b838584346108355790612c0c610da9923690614166565b9693612c1d8594929451998a6142b7565b88526020880152828701526060860152610d8e608086019233845260018060a01b03968780971660a08201526112e56112d660c0830192848452612902614ee4565b5050346107b95760603660031901126107b4576001600160a01b03604435818116949192908590036107b45783516106bd92612c9c60a0836142b7565b823582526020820194602435865286830197338952606084019081526080840193838552610657614ee4565b50505034610835578160031936011261083557602090610170549051908152f35b50505034610835578160031936011261083557602090610a87612d1b610fc9612d25612d13615a3d565b9390936148b8565b81819392956153f4565b92614ff1565b5050346107b957826003193601126107b95760ca549060ff8260081c1615612d9657601082901c6001600160a01b03163303611f5d575061ff00191660ca557f5db9ee0a495bf2e6ff9c91a7834c1ba4fdd244a5e8aa4e537bd38aeae4b073aa60208251338152a151f35b8251637c7fd07960e01b8152fd5b50509134610a8e5750612db73683614275565b8451959293612dc760a0886142b7565b86526020860193845284860191338352606087019260018060a01b038092168452816080890193168352610f89614ee4565b5050346107b95760203660031901126107b957612e14615b8d565b356101ba5551f35b5050346107b95760203660031901126107b957356001600160a01b0380821682036107b45761131a91612e7a8286937f00000000000000000000000000000000000000000000000000000000000000001690612a3a82301415614336565b612e82615b8d565b612e8b826142ef565b90612e98855192836142b7565b828252601f19612ea7846142ef565b013660208401376143f8565b83858434610835578160031936011261083557612ece615c1b565b61017d805460ff811680612f96575b80612f7c575b612eec57838551f35b61ff0019166101001790558251907f8b77276c97a5709f0d6db52329848a254eb760ce8be80d281799f633bdb69e838383a1610165546001600160a01b0316803b15610b7557839183838193638456cb5960e01b83525af18015612f7257612f62575b5090612f59614ad3565b90828080838551f35b81612f6c916142b7565b82612f4f565b83513d84823e3d90fd5b50612f8b611b29611192614c83565b61017c541015612ee3565b5060ff8160081c1615612edd565b50505034610835578160031936011261083557602090610171549051908152f35b838584346108355790612fdc610da9923690614166565b9693612fed8594929451998a6142b7565b88526020880152828701526060860152610d8e60808601923384523360a088015260c087016112e56112d660018060a01b03998a809a16845261128c614ee4565b83858434610835576112d692610d8e610da99361304f6112e5943690614243565b9098939a929b889592955192613067610100856142b7565b8352602083019b8c528883019c8d526060830195865260808301998a5260a0830199338b5260c084019133835284019660018060a01b039e8f9e8f8096168a52612261614ee4565b50505034610835578160031936011261083557602090610175549051908152f35b5050346107b95760203660031901126107b957356001600160a01b03811681036107b9576130fc615b8d565b60ca805462010000600160b01b03191660109290921b62010000600160b01b031691909117905551f35b5050346107b95760203660031901126107b957613141615b8d565b3561017c5551f35b50505034610835578160031936011261083557602090610172549051908152f35b5050346107b9576103803660031901126107b957825460ff8160081c161590818092613575575b801561355e575b156135045760ff1981166001178555816134f3575b50610364356001600160a01b0381811691829003612a70576bffffffffffffffffffffffff60a01b91610253908382541617905585549360ff8560081c16906131f582614cbd565b610304358381168091036134ef5761022090858254161790556102c4358381168091036134ef576102e43584811681036134eb5760019161323585614cbd565b61323e85614cbd565b61324785614cbd565b61325085614cbd565b86609754161760975561326284614cbd565b60ca5490620100008360b01b039060101b169061ff018360b01b031916171760ca5561328d82614cbd565b60a435670de0b6b3a764000081106134dc5783828660e435936132af85615c3c565b61010435946132bd86615c3c565b61012435956132cb87615c3c565b610144356132d881615c3c565b61016435906132e682615c3c565b610184988935936132f685615c3c565b6101a4359561330487615c3c565b6101c4359761331289615c3c565b6101e435996133208b615c3c565b610224359c610204359c6133348f8f614897565b61333d90615c3c565b358181168091036134d05761016190838254161790556024358181168091036134d05761016290838254161790556044358181168091036134d05761016590838254161790556064358181168091036134d05761017890838254161790556084359081168091036134c5576101799182541617905561017b5560c43561017c5561016d5561016e5561016f5561017055610171556101725561017355610174556101755561016b5561016c55610244358061017e55610264358581168091036134c157610182908782541617905561028435610183556102a435809255430161017f5543016101855561017d61ffff198154169055610324359061344083614cbd565b81156134b35750806101ba5543016101b955610344359182168092036134af5761346990614cbd565b6101ed9182541617905561347b575051f35b61ff00191682557f7f26b83ff96e1f2b6a682f133852f6798a09c465da95921460cefb38474024986020825160018152a151f35b8680fd5b8751632a9ffab760e21b8152fd5b8a80fd5b505050505050508f80fd5b50505050505050508f80fd5b508651632a9ffab760e21b8152fd5b8980fd5b8880fd5b61ffff1916610101178455386131ad565b835162461bcd60e51b8152602081850152602e60248201527f496e697469616c697a61626c653a20636f6e747261637420697320616c72656160448201526d191e481a5b9a5d1a585b1a5e995960921b6064820152608490fd5b50303b1580156131985750600160ff821614613198565b50600160ff821610613191565b5050346107b95760203660031901126107b957356001600160a01b038116908190036107b9576135b0615b8d565b61017980546001600160a01b031916909117905551f35b505050346108355781600319360112610835576102535490516001600160a01b039091168152602090f35b5050503461083557816003193601126108355760209060ff61017d5460081c1690519015158152f35b5050346107b95760203660031901126107b957613636615b8d565b356101745551f35b5050346107b95760203660031901126107b957358015158091036107b957613664615b8d565b61017d9060ff8019835416911617905551f35b50505034610835578160031936011261083557602090610a87610c21611192614c83565b9291905034610b7557610da991610d8e6112d6956136bd6112e5943690614243565b9098939491889c939c51926136d4610100856142b7565b8352602083019586528883019c8d526060830190815260808301998a5260a0830199338b5260c084019160018060a01b039e8f9e8f80961685528601988a8a52612261614ee4565b828585346108355761372e368461421d565b929093919482519161374160c0846142b7565b8252602082019586528282019485526060820190338252608083019460018060a01b03809116865260a0840192828452611d0f614ee4565b5050503461083557816003193601126108355760209061017f549051908152f35b505090346107b95760603660031901126107b95761382c928151926137c060c0856142b7565b803584526020840160243581528385019260443584526060860195338752608081019233845260a08201938385526137f6614ee4565b6137fe615c1b565b613806615af9565b613832613843613814615a3d565b6138228794929451826148a4565b519d8e8851615368565b83614fae565b908d8751946108e982895197615995565b9080821061389557505061386a6109569798999a610916670de0b6b3a764000085516149cb565b90613873614d1d565b5060018060a01b039361094b858d511684878a511661093e8551610176614194565b60449188918b519263c39b739f60e01b84528301526024820152fd5b83858434610835576060366003190112610835576116b4908351926138d760c0856142b7565b813584526020840190602435825285850194604435865260608101338152608082019333855260a0830193845261390c614ee4565b613914615c1b565b61394f61391f614c83565b61393a61392d8651836148a4565b5191610679838851615368565b5050610916670de0b6b3a764000084516149cb565b613957614d1d565b5060018060a01b03936116a985855116838789511661093e8551610177614194565b905083833461083557613a079361399036826141fb565b95926139a286989392985193846142b7565b825260208201908152848201968752606082019586526080820133815260a083019333855260c08401938185526139d7614ee4565b6139df615c1b565b6139e7614c83565b6139f561194b8351836148a4565b9c909161197881611973858a516149cb565b049d8e9d519e8f10613b19578d9e50613a699c9d6119c58493610916613a3797966119bf6119cb968e5199614ff1565b613a3f614d1d565b5060018060a01b0394613a5e8686511683888a5116610173549261502c565b9a91849d919d6147f9565b9c51808e10611acc57508c1561078a575094846110c88e8b99968f9896610da99f9e9d8698978f9c610d8e9f9d928e8a9b8f897f754f66f66f0afcd87e3edd11c0796fef32599efe490000fdb0f014e3ad9560fa91611ab18f998a611ac09b8d5197511697511697895193815160208301519160608585015194015194519788978893909796959260c0959260e08601998652602086015260408501526060840152608083015260a08201520152565b60448f8f8d918f5192637a031da360e11b84528301526024820152fd5b9291905034610b755792610da991613b526112d69536906141fb565b92613b62859392935198896142b7565b87526020870152828601526060850152610d8e60808501923384523360a087015260c08601818152613b92614ee4565b613b9a615c1b565b613ba2614d1d565b50835163f1cc804760e01b6020820152966115b89060248901906154b2565b848385346107b95761198e93613bd736846141c2565b939594613beb889a9392949a5196876142b7565b8552602085019586528685019889526060850152608084019033825260a085019460018060a01b0380941686528360c082019516855261192d614ee4565b848484346107b957610da991613c43610d8e9236906141c2565b9694613c58879a95929a949394519b8c6142b7565b8a5260208a015284890152606088015260808701933385526112e56112d660018060a01b03998a809a1660a08201528960c0820194168452612902614ee4565b5050346107b95760203660031901126107b957356001600160a01b038116908190036107b957613cc6615b8d565b61016280546001600160a01b031916909117905551f35b5050346107b95760203660031901126107b957613cf8615b8d565b356101715551f35b50505034610835578160031936011261083557602090610183549051908152f35b5050346107b95760203660031901126107b957356001600160a01b038116908190036107b957613d4f615b8d565b61017880546001600160a01b031916909117905551f35b505050346108355781600319360112610835576020906101b9549051908152f35b5050503461083557816003193601126108355760975490516001600160a01b039091168152602090f35b5050346107b957816003193601126107b9576106bd825191613dd460a0846142b7565b80358352602083019260243584528481019533875260608201913383526080810192828452613e01614ee4565b613e09615c1b565b670de0b6b3a7640000613e2c61068b613e23610679614c83565b86519291614ff1565b04613e35614d1d565b5060018060a01b03926106b2848c5116838689511661016e549261502c565b5050346107b95760203660031901126107b957613e6f615b8d565b356101845551f35b82858534610835578160031936011261083557613e92615c1b565b61018580544310613faa576101845443019055670de0b6b3a7640000613ebf6101635461018354906149cb565b04927f0e37fda283839477a1b77e29acf8336c0e13a5daa967913df0fe5ad258c0822f60208351868152a16101825461012f80546001600160a01b0392831696919390600214613f67575060019394956002845581613f20575b5050505551f35b61025354865163a9059cbb60e01b60208201526001600160a01b0390921660248301526044820192909252613f5f929091166126128260648101612604565b848080613f19565b606490602086519162461bcd60e51b8352820152601f60248201527f5265656e7472616e637947756172643a207265656e7472616e742063616c6c006044820152fd5b815163acce20e560e01b81528490fd5b5050346107b95760203660031901126107b9573591610167908154841015610a8e5750602092613fe991614194565b905491519160018060a01b039160031b1c168152f35b5050346107b95760203660031901126107b95761401a615b8d565b3561016c5551f35b838584346108355790614039610da9923690614166565b969361404a8594929451998a6142b7565b88526020880152828701526060860152610d8e608086019233845260018060a01b03968780971660a08201526112e56112d660c083019284845261128c614ee4565b5050346107b95760c03660031901126107b9576140a7615b8d565b610163908154908115801590614146575b8015614130575b61412257906140cf913590614897565b906101666140e06024358254614897565b9055556140ef8261016961429b565b506140fd6044358254614897565b905561410b826101b861429b565b5060643590556084356101b95560a4356101855551f35b8351636ed93c2760e01b8152fd5b5061413d8561016961429b565b505415156140bf565b506101665415156140b8565b35906001600160a01b03821682036107b457565b908160a09103126107b457803591602082013591604081013591614191608060608401359301614152565b90565b80548210156141ac5760005260206000200190600090565b634e487b7160e01b600052603260045260246000fd5b91908260c09103126107b45781359160208101359160408201359160608101359161419160a06141f460808501614152565b9301614152565b91908260809103126107b4578135916020810135916060604083013592013590565b91908260809103126107b457813591602081013591614191606060408401359301614152565b91908260c09103126107b45781359160208101359160408201359160608101359161419160a060808401359301614152565b91908260809103126107b45781359160208101359161419160606141f460408501614152565b80548210156141ac5760005260206000209060011b0190600090565b90601f8019910116810190811067ffffffffffffffff8211176142d957604052565b634e487b7160e01b600052604160045260246000fd5b67ffffffffffffffff81116142d957601f01601f191660200190565b908160a09103126107b45780359160208201359160408101359161419160806141f460608501614152565b1561433d57565b60405162461bcd60e51b815260206004820152602c60248201527f46756e6374696f6e206d7573742062652063616c6c6564207468726f7567682060448201526b19195b1959d85d1958d85b1b60a21b6064820152608490fd5b1561439e57565b60405162461bcd60e51b815260206004820152602c60248201527f46756e6374696f6e206d7573742062652063616c6c6564207468726f7567682060448201526b6163746976652070726f787960a01b6064820152608490fd5b9060ff7f4910fdfa16fed3260ed0e7147f7cc6da11a60208b5b9406d12a635614ffd914354166000146144325750614430915061464b565b565b6040516352d1902d60e01b81526020939192916001600160a01b038316918581600481865afa6000918161461c575b506144c25760405162461bcd60e51b815260048101879052602e60248201527f45524331393637557067726164653a206e657720696d706c656d656e7461746960448201526d6f6e206973206e6f74205555505360901b6064820152608490fd5b939492937fc9f76b5ec45e5cdef99837d7b6d2467235c1df8933c8ca56df5c35afa2c7d444016145c5576144f58461464b565b604051917fbc7cd75a20ee27fd9adebab32041f755214dbc6bffa90cc0225b39da2e5c2d3b600084a2845115908115916145bd575b50614536575b50505050565b823b1561456e575082600092839261456495519201905af46145566146ed565b61455e61471d565b91614771565b5038808080614530565b60849162461bcd60e51b82526004820152602660248201527f416464726573733a2064656c65676174652063616c6c20746f206e6f6e2d636f6044820152651b9d1c9858dd60d21b6064820152fd5b90503861452a565b60405162461bcd60e51b815260048101849052602960248201527f45524331393637557067726164653a20756e737570706f727465642070726f786044820152681a58589b195555525160ba1b6064820152608490fd5b90918782813d8311614644575b61463381836142b7565b81010312610a8e5750519038614461565b503d614629565b803b15614692577f360894a13ba1a3210667c828492db98dca3e2076cc3735a920a3ca505d382bbc80546001600160a01b0319166001600160a01b03909216919091179055565b60405162461bcd60e51b815260206004820152602d60248201527f455243313936373a206e657720696d706c656d656e746174696f6e206973206e60448201526c1bdd08184818dbdb9d1c9858dd609a1b6064820152608490fd5b3d15614718573d906146fe826142ef565b9161470c60405193846142b7565b82523d6000602084013e565b606090565b61472760276142ef565b9061473560405192836142b7565b60278252660819985a5b195960ca1b6040837f416464726573733a206c6f772d6c6576656c2064656c65676174652063616c6c60208201520152565b90916060911561478057505090565b6144309193925b80519092501561479a5750805190602001fd5b6040519062461bcd60e51b82528160208060048301528251908160248401526000935b8285106147e0575050604492506000838284010152601f80199101168101030190fd5b84810182015186860160440152938101938593506147bd565b9190820391821161480657565b634e487b7160e01b600052601160045260246000fd5b610253546040516370a0823160e01b81526001600160a01b0392831660048201529160209183916024918391165afa90811561488b5760009161485d575090565b906020823d8211614883575b81614876602093836142b7565b81010312610a8e57505190565b3d9150614869565b6040513d6000823e3d90fd5b9190820180921161480657565b80518210156141ac5760209160051b010190565b906000916000906101698054906000925b8284106148ef57505050506148eb670de0b6b3a76400009161016b54906149cb565b0490565b909192939561493e85614938600193610c7a61490b84886148a4565b51610916670de0b6b3a76400006119738b614931614929868b614964565b9a909261429b565b5054614897565b98614897565b94019291906148c9565b9190916000838201938412911290801582169115161761480657565b91906000906149928160009561498861497f82610180614194565b939054926149fe565b9160031b1c614948565b600081136149a1575b50509190565b6149c39194506126d492508094670de0b6b3a764000093849161016c546149cb565b04388061499b565b8060001904821181151516614806570290565b81156149e8570490565b634e487b7160e01b600052601260045260246000fd5b90614a4490614a3e614a31614a28670de0b6b3a7640000614a218761016961429b565b50546149cb565b94610181614194565b90549060031b1c846149de565b926149de565b90600082820392128183128116918313901516176148065790565b8015614a8157610916670de0b6b3a764000061197361419194610163546147f9565b505060001990565b67ffffffffffffffff81116142d95760051b60200190565b90614aab82614a89565b614ab860405191826142b7565b8281528092614ac9601f1991614a89565b0190602036910137565b610163548015614baa5761016990815491600090614af084614aa1565b9082905b858210614b5a57505060005b848110614b0e575050505050565b614b268461091685614b2085876148a4565b516149cb565b9061016a918254680100000000000000008110156142d9576126ed8160019586614b5294018155614194565b905501614b00565b9092614ba2600191614b6b86614bad565b614b7587876148a4565b52610c7a614b83878661429b565b5054610916670de0b6b3a7640000614b9b8a8a6148a4565b51926149cb565b930190614af4565b50565b614bb99061016961429b565b50600101546001600160a01b0316614bd081614c01565b91909115614bdc575090565b60249060405190637f6e4db960e01b82526004820152fd5b519081151582036107b457565b604080516359e02dd760e01b815292918190849060049082906001600160a01b03165afa928315614c78576000918294614c3b5750509190565b90809450813d8311614c71575b614c5281836142b7565b81010312610a8e5750614c69602083519301614bf4565b91388061499b565b503d614c48565b50513d6000823e3d90fd5b6101695490614c9182614aa1565b9160005b818110614ca0575050565b80614cac600192614bad565b614cb682876148a4565b5201614c95565b15614cc457565b60405162461bcd60e51b815260206004820152602b60248201527f496e697469616c697a61626c653a20636f6e7472616374206973206e6f74206960448201526a6e697469616c697a696e6760a81b6064820152608490fd5b60405190614d2c6080836142b7565b60006060838281528260208201528260408201520152565b6040516323b872dd60e01b60208201526001600160a01b039283166024820152929091166044830152606480830193909352918152614430916126126084836142b7565b602091614df1916001600160a01b0316600080614da4866142ef565b93614db260405195866142b7565b8685527f5361666545524332303a206c6f772d6c6576656c2063616c6c206661696c656487860152868151910182855af1614deb6146ed565b91614e72565b805180614dfd57505050565b818391810103126107b45781614e139101614bf4565b15614e1b5750565b6084906040519062461bcd60e51b82526004820152602a60248201527f5361666545524332303a204552433230206f7065726174696f6e20646964206e6044820152691bdd081cdd58d8d9595960b21b6064820152fd5b919260609115614ed7575050815115614e89575090565b3b15614e925790565b60405162461bcd60e51b815260206004820152601d60248201527f416464726573733a2063616c6c20746f206e6f6e2d636f6e74726163740000006044820152606490fd5b9093926144309250614787565b60ff61017d5460081c16614ef457565b604051631ca61d7760e01b8152600490fd5b614f6c92602092610166614f1b848254614897565b9055614f2b610163918254614897565b9055610165546040516340c10f1960e01b81526001600160a01b03928316600482015260248101939093529193849290911690829060009082906044820190565b03925af1801561488b57614f7d5750565b6020813d8211614fa6575b81614f95602093836142b7565b810103126107b457614baa90614bf4565b3d9150614f88565b9190614fb9906148b8565b919092614fc68385614a5f565b9080821115614fd3575050565b6044925060405191637912120160e01b835260048301526024820152fd5b906101665490811561501d57670de0b6b3a76400006119736141919461116461091694610163546147f9565b505050670de0b6b3a764000090565b929093916000916000918296615040614d1d565b966001600160a01b0391859083168061524c575b508261016154168360405193636eb1769f60e11b8552168060048501523060248501526020948585604481865afa948515615241578495615212575b50846150f1575b5050505050860151156150ad575b505050929190565b909192506150c5670de0b6b3a76400009283926149cb565b048085529082156150e9576150e1920490816040860152614897565b3880806150a5565b5090506150e1565b6150ff906101625416614c01565b9290921561509757909192939b50848b61513985670de0b6b3a76400006151336151298d8d6149cb565b61017554906149cb565b046149de565b81830181815295908b156152085750615164916151586060928d6149de565b91829101528551614897565b809d5b10928315615193575b505050615180575b808080615097565b8192995052806060880152963880615178565b909192506024604051809481936370a0823160e01b835260048301525afa9081156151fd57908b9184916151cc575b5010388481615170565b809250858092503d83116151f6575b6151e581836142b7565b810103126107b9578a9051386151c2565b503d6151db565b6040513d85823e3d90fd5b915050809d615167565b9094508581813d831161523a575b61522a81836142b7565b81010312610b7557519338615090565b503d615220565b6040513d86823e3d90fd5b9095506020836101ed5416916024604051809481936364a731e960e01b835260048301525afa80156152c4578690615291575b61528a9150846149cb565b9438615054565b506020813d82116152bc575b816152aa602093836142b7565b81010312612a705761528a905161527f565b3d915061529d565b6040513d88823e3d90fd5b6153479361530e6000926020956152e88261016961429b565b506152f4878254614897565b9055615304610163918254614897565b9055610167614194565b90546040516340c10f1960e01b81526001600160a01b039093166004840152602483019490945290948593928492909183906044820190565b039360039190911b1c6001600160a01b03165af1801561488b57614f7d5750565b6126ed6153bb9161537984826149fe565b6153b161538883610180614194565b61539b8294925492838360031b1c614948565b919060031b600019811b9283911b169119161790565b9055610181614194565b9055565b936153ce9361197392956153f4565b670de0b6b3a763ffff19820191821161480657670de0b6b3a7640000916148eb916149de565b9091816154018285614a5f565b111561542d57614191926114bc670de0b6b3a764000061197361542794610163546147f9565b906147f9565b505050600090565b80910360e081126107b4578151926020830151926080604082015193605f1901126107b45760c06040519161546b6080846142b7565b606081015183526080810151602084015260a081015160408401520151606082015290565b90614191916000806154a061471d565b93602081519101845af4614deb6146ed565b60c090805183526020810151602084015260408101516040840152606081015160608401528160018060a01b03918260808201511660808601528260a08201511660a0860152015116910152565b84519294919392156156bc5750670de0b6b3a764000061552561016d548351906149cb565b0491610163615535848254614897565b905560018060a01b03906155508261017854169484516147f9565b61012f9360028554146155e9576001956040926002875580615676575b5050015190600284558161562e575b505050555b61012f9060028254146155e957600192600283558061559f57505055565b6102535460405163a9059cbb60e01b60208201526001600160a01b03909316602484015260448301919091526155e6919060a085901b859003166126128260648101612604565b55565b60405162461bcd60e51b815260206004820152601f60248201527f5265656e7472616e637947756172643a207265656e7472616e742063616c6c006044820152606490fd5b6102535460405163a9059cbb60e01b60208201526001600160a01b039092166024830152604482019290925261566e929091166126128260648101612604565b38808061557c565b61025354845163a9059cbb60e01b60208201526001600160a01b03909316602484015260448301919091526156b5919086166126128260648101612604565b388061556d565b6101785460208301516156eb94929360609290916156e3916001600160a01b0316866156f0565b0151916156f0565b615581565b9190816156fc57505050565b6101615461443093906001600160a01b0316614d44565b91906101666157238482546147f9565b90556157336101639182546147f9565b9055610165546001600160a01b031691823b156107b457604051632770a7eb60e21b81526001600160a01b0390921660048301526024820152906000908290818381604481015b03925af1801561488b5761578b5750565b6000614430916142b7565b6157c49193926157a88261016961429b565b506157b48682546147f9565b90556153046101639182546147f9565b905460039190911b1c6001600160a01b031691823b156107b457604051632770a7eb60e21b81526001600160a01b03909216600483015260248201529060009082908183816044810161577a565b61587b90929192615821615c1b565b61582a3061481c565b60405163e01dce2d60e01b602082015260248101929092526001600160a01b0394851660448301528385166064830152608480830191909152815261587060a4826142b7565b836102205416615490565b6020818051810103126107b457602001519161012f9060028254146155e9578360019360028455816158af575b5050505590565b6102535460405163a9059cbb60e01b60208201526001600160a01b03909216602483015260448201929092526158ef929091166126128260648101612604565b3883816158a8565b60e08101929160c09081906001600160a01b038061591483614152565b16855261592360208301614152565b16602085015260408101356040850152606081013560608501526080810135608085015260a081013560a08501520135910152565b61017f548043101561596f576141919043906147f9565b50600090565b906040516159846040826142b7565b602060018294805484520154910152565b6159a18161017a614194565b90549060031b1c916101b8916159b7818461429b565b5054926101b9544310156159e2575b5050808210156159dd5761091690614191936149cb565b505090565b8293506159f6615a0193926159fc9261429b565b50615975565b615a09565b9038806159c6565b602081519101805192670de0b6b3a76400009384039084821161480657615a36610c7a926148eb956149cb565b92516149cb565b60008061016991825492615a5084614aa1565b9382915b85828410615a7f57505050508115615a735790615a70916149de565b91565b505061017b5460011b91565b611973615aea859796610c7a615ab9615ae18961091689611973615acb8460019d9e9f9c615aaf615af09e614bad565b98899788926148a4565b52615ac48682614964565b509361429b565b50611973670de0b6b3a764000093849254614897565b9485918c615995565b95614897565b94019190615a54565b6101b98054431015615b085750565b6101695460005b818110615b225750506101ba5443019055565b80807f19156e9379c7bbbce8f646ce5ee30ba860b8f954717405f3d5859a6c1a21ae606001936101b8615b586159f6838361429b565b90615b76615b6e615b6885614bad565b84615a09565b93849261429b565b50555160409182519182526020820152a201615b0f565b60975460405163d994d6d560e01b815233600482015290602090829060249082906001600160a01b03165afa90811561488b57600091615be2575b5015615bd057565b604051631dd1b1b560e21b8152600490fd5b906020823d8211615c13575b81615bfb602093836142b7565b81010312610a8e5750615c0d90614bf4565b38615bc8565b3d9150615bee565b60ff60ca5460081c16615c2a57565b60405163783bb6c960e11b8152600490fd5b670de0b6b3a764000010615c4c57565b604051632a9ffab760e21b8152600490fdfea2646970667358221220390eedaa22fce3bbff7f62b4461c47cb5d4c57c21326fd2aede4e6483126dd8764736f6c63430008100033",
  "linkReferences": {},
  "deployedLinkReferences": {}
}