{
  "_format": "hh-sol-artifact-1",
  "contractName": "MocRif",
  "sourceName": "contracts/MocRif.sol",
  "abi": [
    {
      "inputs": [
        {
          "internalType": "uint256",
          "name": "qACsent_",
          "type": "uint256"
        },
        {
          "internalType": "uint256",
          "name": "qACNeeded_",
          "type": "uint256"
        }
      ],
      "name": "InsufficientQacSent",
      "type": "error"
    },
    {
      "inputs": [
        {
          "internalType": "uint256",
          "name": "qTPsent_",
          "type": "uint256"
        },
        {
          "internalType": "uint256",
          "name": "qTPNeeded_",
          "type": "uint256"
        }
      ],
      "name": "InsufficientQtpSent",
      "type": "error"
    },
    {
      "inputs": [
        {
          "internalType": "uint256",
          "name": "qTC_",
          "type": "uint256"
        },
        {
          "internalType": "uint256",
          "name": "tcAvailableToRedeem_",
          "type": "uint256"
        }
      ],
      "name": "InsufficientTCtoRedeem",
      "type": "error"
    },
    {
      "inputs": [
        {
          "internalType": "uint256",
          "name": "qTP_",
          "type": "uint256"
        },
        {
          "internalType": "uint256",
          "name": "tpAvailableToMint_",
          "type": "uint256"
        }
      ],
      "name": "InsufficientTPtoMint",
      "type": "error"
    },
    {
      "inputs": [
        {
          "internalType": "uint256",
          "name": "qTP_",
          "type": "uint256"
        },
        {
          "internalType": "uint256",
          "name": "tpAvailableToRedeem_",
          "type": "uint256"
        }
      ],
      "name": "InsufficientTPtoRedeem",
      "type": "error"
    },
    {
      "inputs": [],
      "name": "InvalidAddress",
      "type": "error"
    },
    {
      "inputs": [],
      "name": "InvalidFluxCapacitorOperation",
      "type": "error"
    },
    {
      "inputs": [],
      "name": "InvalidValue",
      "type": "error"
    },
    {
      "inputs": [],
      "name": "Liquidated",
      "type": "error"
    },
    {
      "inputs": [
        {
          "internalType": "uint256",
          "name": "cglb_",
          "type": "uint256"
        },
        {
          "internalType": "uint256",
          "name": "covThrld_",
          "type": "uint256"
        }
      ],
      "name": "LowCoverage",
      "type": "error"
    },
    {
      "inputs": [
        {
          "internalType": "uint256",
          "name": "max_",
          "type": "uint256"
        },
        {
          "internalType": "uint256",
          "name": "new_",
          "type": "uint256"
        }
      ],
      "name": "MaxFluxCapacitorOperationReached",
      "type": "error"
    },
    {
      "inputs": [],
      "name": "MissingBlocksToSettlement",
      "type": "error"
    },
    {
      "inputs": [],
      "name": "MissingBlocksToTCInterestPayment",
      "type": "error"
    },
    {
      "inputs": [
        {
          "internalType": "address",
          "name": "dataProviderAddress_",
          "type": "address"
        }
      ],
      "name": "MissingProviderData",
      "type": "error"
    },
    {
      "inputs": [
        {
          "internalType": "address",
          "name": "priceProviderAddress_",
          "type": "address"
        }
      ],
      "name": "MissingProviderPrice",
      "type": "error"
    },
    {
      "inputs": [],
      "name": "NotAuthorizedChanger",
      "type": "error"
    },
    {
      "inputs": [],
      "name": "NotWhenPaused",
      "type": "error"
    },
    {
      "inputs": [],
      "name": "OnlyPauser",
      "type": "error"
    },
    {
      "inputs": [],
      "name": "OnlyWhenLiquidated",
      "type": "error"
    },
    {
      "inputs": [],
      "name": "OnlyWhilePaused",
      "type": "error"
    },
    {
      "inputs": [],
      "name": "PeggedTokenAlreadyAdded",
      "type": "error"
    },
    {
      "inputs": [
        {
          "internalType": "uint256",
          "name": "qACmin_",
          "type": "uint256"
        },
        {
          "internalType": "uint256",
          "name": "qACtoRedeem_",
          "type": "uint256"
        }
      ],
      "name": "QacBelowMinimumRequired",
      "type": "error"
    },
    {
      "inputs": [],
      "name": "QacNeededMustBeGreaterThanZero",
      "type": "error"
    },
    {
      "inputs": [
        {
          "internalType": "uint256",
          "name": "qTCmin_",
          "type": "uint256"
        },
        {
          "internalType": "uint256",
          "name": "qTC_",
          "type": "uint256"
        }
      ],
      "name": "QtcBelowMinimumRequired",
      "type": "error"
    },
    {
      "inputs": [
        {
          "internalType": "uint256",
          "name": "qTPmin_",
          "type": "uint256"
        },
        {
          "internalType": "uint256",
          "name": "qTP_",
          "type": "uint256"
        }
      ],
      "name": "QtpBelowMinimumRequired",
      "type": "error"
    },
    {
      "inputs": [],
      "name": "TransferFailed",
      "type": "error"
    },
    {
      "inputs": [],
      "name": "Unstoppable",
      "type": "error"
    },
    {
      "inputs": [],
      "name": "protocolAlreadyMigrated",
      "type": "error"
    },
    {
      "anonymous": false,
      "inputs": [
        {
          "indexed": false,
          "internalType": "address",
          "name": "previousAdmin",
          "type": "address"
        },
        {
          "indexed": false,
          "internalType": "address",
          "name": "newAdmin",
          "type": "address"
        }
      ],
      "name": "AdminChanged",
      "type": "event"
    },
    {
      "anonymous": false,
      "inputs": [
        {
          "indexed": true,
          "internalType": "address",
          "name": "beacon",
          "type": "address"
        }
      ],
      "name": "BeaconUpgraded",
      "type": "event"
    },
    {
      "anonymous": false,
      "inputs": [],
      "name": "ContractLiquidated",
      "type": "event"
    },
    {
      "anonymous": false,
      "inputs": [
        {
          "indexed": false,
          "internalType": "uint8",
          "name": "version",
          "type": "uint8"
        }
      ],
      "name": "Initialized",
      "type": "event"
    },
    {
      "anonymous": false,
      "inputs": [
        {
          "indexed": true,
          "internalType": "address",
          "name": "tp_",
          "type": "address"
        },
        {
          "indexed": true,
          "internalType": "address",
          "name": "sender_",
          "type": "address"
        },
        {
          "indexed": true,
          "internalType": "address",
          "name": "recipient_",
          "type": "address"
        },
        {
          "indexed": false,
          "internalType": "uint256",
          "name": "qTP_",
          "type": "uint256"
        },
        {
          "indexed": false,
          "internalType": "uint256",
          "name": "qAC_",
          "type": "uint256"
        }
      ],
      "name": "LiqTPRedeemed",
      "type": "event"
    },
    {
      "anonymous": false,
      "inputs": [
        {
          "indexed": false,
          "internalType": "address",
          "name": "account",
          "type": "address"
        }
      ],
      "name": "Paused",
      "type": "event"
    },
    {
      "anonymous": false,
      "inputs": [
        {
          "indexed": false,
          "internalType": "uint256",
          "name": "i_",
          "type": "uint256"
        },
        {
          "components": [
            {
              "internalType": "address",
              "name": "tpTokenAddress",
              "type": "address"
            },
            {
              "internalType": "address",
              "name": "priceProviderAddress",
              "type": "address"
            },
            {
              "internalType": "uint256",
              "name": "tpCtarg",
              "type": "uint256"
            },
            {
              "internalType": "uint256",
              "name": "tpMintFee",
              "type": "uint256"
            },
            {
              "internalType": "uint256",
              "name": "tpRedeemFee",
              "type": "uint256"
            },
            {
              "internalType": "uint256",
              "name": "tpEma",
              "type": "uint256"
            },
            {
              "internalType": "uint256",
              "name": "tpEmaSf",
              "type": "uint256"
            }
          ],
          "indexed": false,
          "internalType": "struct PeggedTokenParams",
          "name": "peggedTokenParams_",
          "type": "tuple"
        }
      ],
      "name": "PeggedTokenChange",
      "type": "event"
    },
    {
      "anonymous": false,
      "inputs": [],
      "name": "SettlementExecuted",
      "type": "event"
    },
    {
      "anonymous": false,
      "inputs": [
        {
          "indexed": false,
          "internalType": "uint256",
          "name": "mocGain_",
          "type": "uint256"
        },
        {
          "indexed": false,
          "internalType": "uint256[]",
          "name": "tpGain_",
          "type": "uint256[]"
        }
      ],
      "name": "SuccessFeeDistributed",
      "type": "event"
    },
    {
      "anonymous": false,
      "inputs": [
        {
          "indexed": false,
          "internalType": "uint256",
          "name": "interestAmount_",
          "type": "uint256"
        }
      ],
      "name": "TCInterestPayment",
      "type": "event"
    },
    {
      "anonymous": false,
      "inputs": [
        {
          "indexed": true,
          "internalType": "uint256",
          "name": "i_",
          "type": "uint256"
        },
        {
          "indexed": false,
          "internalType": "uint256",
          "name": "oldTPema_",
          "type": "uint256"
        },
        {
          "indexed": false,
          "internalType": "uint256",
          "name": "newTPema_",
          "type": "uint256"
        }
      ],
      "name": "TPemaUpdated",
      "type": "event"
    },
    {
      "anonymous": false,
      "inputs": [
        {
          "indexed": false,
          "internalType": "address",
          "name": "account",
          "type": "address"
        }
      ],
      "name": "Unpaused",
      "type": "event"
    },
    {
      "anonymous": false,
      "inputs": [
        {
          "indexed": true,
          "internalType": "address",
          "name": "implementation",
          "type": "address"
        }
      ],
      "name": "Upgraded",
      "type": "event"
    },
    {
      "inputs": [],
      "name": "absoluteAccumulator",
      "outputs": [
        {
          "internalType": "uint256",
          "name": "",
          "type": "uint256"
        }
      ],
      "stateMutability": "view",
      "type": "function"
    },
    {
      "inputs": [],
      "name": "acToken",
      "outputs": [
        {
          "internalType": "contract IERC20",
          "name": "",
          "type": "address"
        }
      ],
      "stateMutability": "view",
      "type": "function"
    },
    {
      "inputs": [
        {
          "components": [
            {
              "internalType": "address",
              "name": "tpTokenAddress",
              "type": "address"
            },
            {
              "internalType": "address",
              "name": "priceProviderAddress",
              "type": "address"
            },
            {
              "internalType": "uint256",
              "name": "tpCtarg",
              "type": "uint256"
            },
            {
              "internalType": "uint256",
              "name": "tpMintFee",
              "type": "uint256"
            },
            {
              "internalType": "uint256",
              "name": "tpRedeemFee",
              "type": "uint256"
            },
            {
              "internalType": "uint256",
              "name": "tpEma",
              "type": "uint256"
            },
            {
              "internalType": "uint256",
              "name": "tpEmaSf",
              "type": "uint256"
            }
          ],
          "internalType": "struct PeggedTokenParams",
          "name": "peggedTokenParams_",
          "type": "tuple"
        }
      ],
      "name": "addPeggedToken",
      "outputs": [],
      "stateMutability": "nonpayable",
      "type": "function"
    },
    {
      "inputs": [],
      "name": "appreciationFactor",
      "outputs": [
        {
          "internalType": "uint256",
          "name": "",
          "type": "uint256"
        }
      ],
      "stateMutability": "view",
      "type": "function"
    },
    {
      "inputs": [],
      "name": "bes",
      "outputs": [
        {
          "internalType": "uint256",
          "name": "",
          "type": "uint256"
        }
      ],
      "stateMutability": "view",
      "type": "function"
    },
    {
      "inputs": [],
      "name": "bns",
      "outputs": [
        {
          "internalType": "uint256",
          "name": "",
          "type": "uint256"
        }
      ],
      "stateMutability": "view",
      "type": "function"
    },
    {
      "inputs": [],
      "name": "calcCtargemaCA",
      "outputs": [
        {
          "internalType": "uint256",
          "name": "ctargemaCA",
          "type": "uint256"
        }
      ],
      "stateMutability": "view",
      "type": "function"
    },
    {
      "inputs": [
        {
          "internalType": "contract IGovernor",
          "name": "newGovernor_",
          "type": "address"
        }
      ],
      "name": "changeGovernor",
      "outputs": [],
      "stateMutability": "nonpayable",
      "type": "function"
    },
    {
      "inputs": [],
      "name": "decayBlockSpan",
      "outputs": [
        {
          "internalType": "uint256",
          "name": "",
          "type": "uint256"
        }
      ],
      "stateMutability": "view",
      "type": "function"
    },
    {
      "inputs": [],
      "name": "differentialAccumulator",
      "outputs": [
        {
          "internalType": "int256",
          "name": "",
          "type": "int256"
        }
      ],
      "stateMutability": "view",
      "type": "function"
    },
    {
      "inputs": [
        {
          "components": [
            {
              "internalType": "address",
              "name": "tpTokenAddress",
              "type": "address"
            },
            {
              "internalType": "address",
              "name": "priceProviderAddress",
              "type": "address"
            },
            {
              "internalType": "uint256",
              "name": "tpCtarg",
              "type": "uint256"
            },
            {
              "internalType": "uint256",
              "name": "tpMintFee",
              "type": "uint256"
            },
            {
              "internalType": "uint256",
              "name": "tpRedeemFee",
              "type": "uint256"
            },
            {
              "internalType": "uint256",
              "name": "tpEma",
              "type": "uint256"
            },
            {
              "internalType": "uint256",
              "name": "tpEmaSf",
              "type": "uint256"
            }
          ],
          "internalType": "struct PeggedTokenParams",
          "name": "peggedTokenParams_",
          "type": "tuple"
        }
      ],
      "name": "editPeggedToken",
      "outputs": [],
      "stateMutability": "nonpayable",
      "type": "function"
    },
    {
      "inputs": [],
      "name": "emaCalculationBlockSpan",
      "outputs": [
        {
          "internalType": "uint256",
          "name": "",
          "type": "uint256"
        }
      ],
      "stateMutability": "view",
      "type": "function"
    },
    {
      "inputs": [],
      "name": "evalLiquidation",
      "outputs": [],
      "stateMutability": "nonpayable",
      "type": "function"
    },
    {
      "inputs": [
        {
          "components": [
            {
              "internalType": "uint256",
              "name": "qTC",
              "type": "uint256"
            },
            {
              "internalType": "uint256",
              "name": "qACmax",
              "type": "uint256"
            },
            {
              "internalType": "address",
              "name": "sender",
              "type": "address"
            },
            {
              "internalType": "address",
              "name": "recipient",
              "type": "address"
            },
            {
              "internalType": "address",
              "name": "vendor",
              "type": "address"
            }
          ],
          "internalType": "struct MocCore.MintTCParams",
          "name": "params_",
          "type": "tuple"
        }
      ],
      "name": "execMintTC",
      "outputs": [
        {
          "internalType": "uint256",
          "name": "qACtotalNeeded",
          "type": "uint256"
        },
        {
          "internalType": "uint256",
          "name": "qFeeTokenTotalNeeded",
          "type": "uint256"
        },
        {
          "components": [
            {
              "internalType": "uint256",
              "name": "qACFee",
              "type": "uint256"
            },
            {
              "internalType": "uint256",
              "name": "qFeeToken",
              "type": "uint256"
            },
            {
              "internalType": "uint256",
              "name": "qACVendorMarkup",
              "type": "uint256"
            },
            {
              "internalType": "uint256",
              "name": "qFeeTokenVendorMarkup",
              "type": "uint256"
            }
          ],
          "internalType": "struct MocCommons.FeeCalcs",
          "name": "feeCalcs",
          "type": "tuple"
        }
      ],
      "stateMutability": "nonpayable",
      "type": "function"
    },
    {
      "inputs": [
        {
          "components": [
            {
              "internalType": "address",
              "name": "tp",
              "type": "address"
            },
            {
              "internalType": "uint256",
              "name": "qTP",
              "type": "uint256"
            },
            {
              "internalType": "uint256",
              "name": "qACmax",
              "type": "uint256"
            },
            {
              "internalType": "address",
              "name": "sender",
              "type": "address"
            },
            {
              "internalType": "address",
              "name": "recipient",
              "type": "address"
            },
            {
              "internalType": "address",
              "name": "vendor",
              "type": "address"
            }
          ],
          "internalType": "struct MocCommons.MintTCandTPParams",
          "name": "params_",
          "type": "tuple"
        }
      ],
      "name": "execMintTCandTP",
      "outputs": [
        {
          "internalType": "uint256",
          "name": "qACtotalNeeded",
          "type": "uint256"
        },
        {
          "internalType": "uint256",
          "name": "qTCMinted",
          "type": "uint256"
        },
        {
          "internalType": "uint256",
          "name": "qFeeTokenTotalNeeded",
          "type": "uint256"
        },
        {
          "components": [
            {
              "internalType": "uint256",
              "name": "qACFee",
              "type": "uint256"
            },
            {
              "internalType": "uint256",
              "name": "qFeeToken",
              "type": "uint256"
            },
            {
              "internalType": "uint256",
              "name": "qACVendorMarkup",
              "type": "uint256"
            },
            {
              "internalType": "uint256",
              "name": "qFeeTokenVendorMarkup",
              "type": "uint256"
            }
          ],
          "internalType": "struct MocCommons.FeeCalcs",
          "name": "feeCalcs",
          "type": "tuple"
        }
      ],
      "stateMutability": "nonpayable",
      "type": "function"
    },
    {
      "inputs": [
        {
          "components": [
            {
              "internalType": "address",
              "name": "tp",
              "type": "address"
            },
            {
              "internalType": "uint256",
              "name": "qTP",
              "type": "uint256"
            },
            {
              "internalType": "uint256",
              "name": "qACmax",
              "type": "uint256"
            },
            {
              "internalType": "address",
              "name": "sender",
              "type": "address"
            },
            {
              "internalType": "address",
              "name": "recipient",
              "type": "address"
            },
            {
              "internalType": "address",
              "name": "vendor",
              "type": "address"
            }
          ],
          "internalType": "struct MocCore.MintTPParams",
          "name": "params_",
          "type": "tuple"
        }
      ],
      "name": "execMintTP",
      "outputs": [
        {
          "internalType": "uint256",
          "name": "qACtotalNeeded",
          "type": "uint256"
        },
        {
          "internalType": "uint256",
          "name": "qFeeTokenTotalNeeded",
          "type": "uint256"
        },
        {
          "components": [
            {
              "internalType": "uint256",
              "name": "qACFee",
              "type": "uint256"
            },
            {
              "internalType": "uint256",
              "name": "qFeeToken",
              "type": "uint256"
            },
            {
              "internalType": "uint256",
              "name": "qACVendorMarkup",
              "type": "uint256"
            },
            {
              "internalType": "uint256",
              "name": "qFeeTokenVendorMarkup",
              "type": "uint256"
            }
          ],
          "internalType": "struct MocCommons.FeeCalcs",
          "name": "feeCalcs",
          "type": "tuple"
        }
      ],
      "stateMutability": "nonpayable",
      "type": "function"
    },
    {
      "inputs": [
        {
          "components": [
            {
              "internalType": "uint256",
              "name": "qTC",
              "type": "uint256"
            },
            {
              "internalType": "uint256",
              "name": "qACmin",
              "type": "uint256"
            },
            {
              "internalType": "address",
              "name": "sender",
              "type": "address"
            },
            {
              "internalType": "address",
              "name": "recipient",
              "type": "address"
            },
            {
              "internalType": "address",
              "name": "vendor",
              "type": "address"
            }
          ],
          "internalType": "struct MocCore.RedeemTCParams",
          "name": "params_",
          "type": "tuple"
        }
      ],
      "name": "execRedeemTC",
      "outputs": [
        {
          "internalType": "uint256",
          "name": "qACtoRedeem",
          "type": "uint256"
        },
        {
          "internalType": "uint256",
          "name": "qFeeTokenTotalNeeded",
          "type": "uint256"
        },
        {
          "components": [
            {
              "internalType": "uint256",
              "name": "qACFee",
              "type": "uint256"
            },
            {
              "internalType": "uint256",
              "name": "qFeeToken",
              "type": "uint256"
            },
            {
              "internalType": "uint256",
              "name": "qACVendorMarkup",
              "type": "uint256"
            },
            {
              "internalType": "uint256",
              "name": "qFeeTokenVendorMarkup",
              "type": "uint256"
            }
          ],
          "internalType": "struct MocCommons.FeeCalcs",
          "name": "feeCalcs",
          "type": "tuple"
        }
      ],
      "stateMutability": "nonpayable",
      "type": "function"
    },
    {
      "inputs": [
        {
          "components": [
            {
              "internalType": "address",
              "name": "tp",
              "type": "address"
            },
            {
              "internalType": "uint256",
              "name": "qTC",
              "type": "uint256"
            },
            {
              "internalType": "uint256",
              "name": "qTP",
              "type": "uint256"
            },
            {
              "internalType": "uint256",
              "name": "qACmin",
              "type": "uint256"
            },
            {
              "internalType": "address",
              "name": "sender",
              "type": "address"
            },
            {
              "internalType": "address",
              "name": "recipient",
              "type": "address"
            },
            {
              "internalType": "address",
              "name": "vendor",
              "type": "address"
            }
          ],
          "internalType": "struct MocCommons.RedeemTCandTPParams",
          "name": "params_",
          "type": "tuple"
        }
      ],
      "name": "execRedeemTCandTP",
      "outputs": [
        {
          "internalType": "uint256",
          "name": "qACtoRedeem",
          "type": "uint256"
        },
        {
          "internalType": "uint256",
          "name": "qTPRedeemed",
          "type": "uint256"
        },
        {
          "internalType": "uint256",
          "name": "qFeeTokenTotalNeeded",
          "type": "uint256"
        },
        {
          "components": [
            {
              "internalType": "uint256",
              "name": "qACFee",
              "type": "uint256"
            },
            {
              "internalType": "uint256",
              "name": "qFeeToken",
              "type": "uint256"
            },
            {
              "internalType": "uint256",
              "name": "qACVendorMarkup",
              "type": "uint256"
            },
            {
              "internalType": "uint256",
              "name": "qFeeTokenVendorMarkup",
              "type": "uint256"
            }
          ],
          "internalType": "struct MocCommons.FeeCalcs",
          "name": "feeCalcs",
          "type": "tuple"
        }
      ],
      "stateMutability": "nonpayable",
      "type": "function"
    },
    {
      "inputs": [
        {
          "components": [
            {
              "internalType": "address",
              "name": "tp",
              "type": "address"
            },
            {
              "internalType": "uint256",
              "name": "qTP",
              "type": "uint256"
            },
            {
              "internalType": "uint256",
              "name": "qACmin",
              "type": "uint256"
            },
            {
              "internalType": "address",
              "name": "sender",
              "type": "address"
            },
            {
              "internalType": "address",
              "name": "recipient",
              "type": "address"
            },
            {
              "internalType": "address",
              "name": "vendor",
              "type": "address"
            }
          ],
          "internalType": "struct MocCommons.RedeemTPParams",
          "name": "params_",
          "type": "tuple"
        }
      ],
      "name": "execRedeemTP",
      "outputs": [
        {
          "internalType": "uint256",
          "name": "qACtoRedeem",
          "type": "uint256"
        },
        {
          "internalType": "uint256",
          "name": "qFeeTokenTotalNeeded",
          "type": "uint256"
        },
        {
          "components": [
            {
              "internalType": "uint256",
              "name": "qACFee",
              "type": "uint256"
            },
            {
              "internalType": "uint256",
              "name": "qFeeToken",
              "type": "uint256"
            },
            {
              "internalType": "uint256",
              "name": "qACVendorMarkup",
              "type": "uint256"
            },
            {
              "internalType": "uint256",
              "name": "qFeeTokenVendorMarkup",
              "type": "uint256"
            }
          ],
          "internalType": "struct MocCommons.FeeCalcs",
          "name": "feeCalcs",
          "type": "tuple"
        }
      ],
      "stateMutability": "nonpayable",
      "type": "function"
    },
    {
      "inputs": [],
      "name": "execSettlement",
      "outputs": [],
      "stateMutability": "nonpayable",
      "type": "function"
    },
    {
      "inputs": [
        {
          "components": [
            {
              "internalType": "address",
              "name": "tp",
              "type": "address"
            },
            {
              "internalType": "uint256",
              "name": "qTC",
              "type": "uint256"
            },
            {
              "internalType": "uint256",
              "name": "qTPmin",
              "type": "uint256"
            },
            {
              "internalType": "uint256",
              "name": "qACmax",
              "type": "uint256"
            },
            {
              "internalType": "address",
              "name": "sender",
              "type": "address"
            },
            {
              "internalType": "address",
              "name": "recipient",
              "type": "address"
            },
            {
              "internalType": "address",
              "name": "vendor",
              "type": "address"
            }
          ],
          "internalType": "struct MocCommons.SwapTCforTPParams",
          "name": "params_",
          "type": "tuple"
        }
      ],
      "name": "execSwapTCforTP",
      "outputs": [
        {
          "internalType": "uint256",
          "name": "qACSurcharges",
          "type": "uint256"
        },
        {
          "internalType": "uint256",
          "name": "qTPMinted",
          "type": "uint256"
        },
        {
          "internalType": "uint256",
          "name": "qFeeTokenTotalNeeded",
          "type": "uint256"
        },
        {
          "components": [
            {
              "internalType": "uint256",
              "name": "qACFee",
              "type": "uint256"
            },
            {
              "internalType": "uint256",
              "name": "qFeeToken",
              "type": "uint256"
            },
            {
              "internalType": "uint256",
              "name": "qACVendorMarkup",
              "type": "uint256"
            },
            {
              "internalType": "uint256",
              "name": "qFeeTokenVendorMarkup",
              "type": "uint256"
            }
          ],
          "internalType": "struct MocCommons.FeeCalcs",
          "name": "feeCalcs",
          "type": "tuple"
        }
      ],
      "stateMutability": "nonpayable",
      "type": "function"
    },
    {
      "inputs": [
        {
          "components": [
            {
              "internalType": "address",
              "name": "tp",
              "type": "address"
            },
            {
              "internalType": "uint256",
              "name": "qTP",
              "type": "uint256"
            },
            {
              "internalType": "uint256",
              "name": "qTCmin",
              "type": "uint256"
            },
            {
              "internalType": "uint256",
              "name": "qACmax",
              "type": "uint256"
            },
            {
              "internalType": "address",
              "name": "sender",
              "type": "address"
            },
            {
              "internalType": "address",
              "name": "recipient",
              "type": "address"
            },
            {
              "internalType": "address",
              "name": "vendor",
              "type": "address"
            }
          ],
          "internalType": "struct MocCommons.SwapTPforTCParams",
          "name": "params_",
          "type": "tuple"
        }
      ],
      "name": "execSwapTPforTC",
      "outputs": [
        {
          "internalType": "uint256",
          "name": "qACSurcharges",
          "type": "uint256"
        },
        {
          "internalType": "uint256",
          "name": "qTCMinted",
          "type": "uint256"
        },
        {
          "internalType": "uint256",
          "name": "qFeeTokenTotalNeeded",
          "type": "uint256"
        },
        {
          "components": [
            {
              "internalType": "uint256",
              "name": "qACFee",
              "type": "uint256"
            },
            {
              "internalType": "uint256",
              "name": "qFeeToken",
              "type": "uint256"
            },
            {
              "internalType": "uint256",
              "name": "qACVendorMarkup",
              "type": "uint256"
            },
            {
              "internalType": "uint256",
              "name": "qFeeTokenVendorMarkup",
              "type": "uint256"
            }
          ],
          "internalType": "struct MocCommons.FeeCalcs",
          "name": "feeCalcs",
          "type": "tuple"
        }
      ],
      "stateMutability": "nonpayable",
      "type": "function"
    },
    {
      "inputs": [
        {
          "components": [
            {
              "internalType": "address",
              "name": "tpFrom",
              "type": "address"
            },
            {
              "internalType": "address",
              "name": "tpTo",
              "type": "address"
            },
            {
              "internalType": "uint256",
              "name": "qTP",
              "type": "uint256"
            },
            {
              "internalType": "uint256",
              "name": "qTPmin",
              "type": "uint256"
            },
            {
              "internalType": "uint256",
              "name": "qACmax",
              "type": "uint256"
            },
            {
              "internalType": "address",
              "name": "sender",
              "type": "address"
            },
            {
              "internalType": "address",
              "name": "recipient",
              "type": "address"
            },
            {
              "internalType": "address",
              "name": "vendor",
              "type": "address"
            }
          ],
          "internalType": "struct MocCommons.SwapTPforTPParams",
          "name": "params_",
          "type": "tuple"
        }
      ],
      "name": "execSwapTPforTP",
      "outputs": [
        {
          "internalType": "uint256",
          "name": "qACSurcharges",
          "type": "uint256"
        },
        {
          "internalType": "uint256",
          "name": "qTPMinted",
          "type": "uint256"
        },
        {
          "internalType": "uint256",
          "name": "qFeeTokenTotalNeeded",
          "type": "uint256"
        },
        {
          "components": [
            {
              "internalType": "uint256",
              "name": "qACFee",
              "type": "uint256"
            },
            {
              "internalType": "uint256",
              "name": "qFeeToken",
              "type": "uint256"
            },
            {
              "internalType": "uint256",
              "name": "qACVendorMarkup",
              "type": "uint256"
            },
            {
              "internalType": "uint256",
              "name": "qFeeTokenVendorMarkup",
              "type": "uint256"
            }
          ],
          "internalType": "struct MocCommons.FeeCalcs",
          "name": "feeCalcs",
          "type": "tuple"
        }
      ],
      "stateMutability": "nonpayable",
      "type": "function"
    },
    {
      "inputs": [],
      "name": "feeRetainer",
      "outputs": [
        {
          "internalType": "uint256",
          "name": "",
          "type": "uint256"
        }
      ],
      "stateMutability": "view",
      "type": "function"
    },
    {
      "inputs": [],
      "name": "feeToken",
      "outputs": [
        {
          "internalType": "contract IERC20",
          "name": "",
          "type": "address"
        }
      ],
      "stateMutability": "view",
      "type": "function"
    },
    {
      "inputs": [],
      "name": "feeTokenPct",
      "outputs": [
        {
          "internalType": "uint256",
          "name": "",
          "type": "uint256"
        }
      ],
      "stateMutability": "view",
      "type": "function"
    },
    {
      "inputs": [],
      "name": "feeTokenPriceProvider",
      "outputs": [
        {
          "internalType": "contract IPriceProvider",
          "name": "",
          "type": "address"
        }
      ],
      "stateMutability": "view",
      "type": "function"
    },
    {
      "inputs": [],
      "name": "getBts",
      "outputs": [
        {
          "internalType": "uint256",
          "name": "",
          "type": "uint256"
        }
      ],
      "stateMutability": "view",
      "type": "function"
    },
    {
      "inputs": [],
      "name": "getCglb",
      "outputs": [
        {
          "internalType": "uint256",
          "name": "cglob",
          "type": "uint256"
        }
      ],
      "stateMutability": "view",
      "type": "function"
    },
    {
      "inputs": [],
      "name": "getLckAC",
      "outputs": [
        {
          "internalType": "uint256",
          "name": "lckAC",
          "type": "uint256"
        }
      ],
      "stateMutability": "view",
      "type": "function"
    },
    {
      "inputs": [],
      "name": "getLeverageTC",
      "outputs": [
        {
          "internalType": "uint256",
          "name": "leverageTC",
          "type": "uint256"
        }
      ],
      "stateMutability": "view",
      "type": "function"
    },
    {
      "inputs": [
        {
          "internalType": "address",
          "name": "tp_",
          "type": "address"
        }
      ],
      "name": "getPACtp",
      "outputs": [
        {
          "internalType": "uint256",
          "name": "",
          "type": "uint256"
        }
      ],
      "stateMutability": "view",
      "type": "function"
    },
    {
      "inputs": [],
      "name": "getPTCac",
      "outputs": [
        {
          "internalType": "uint256",
          "name": "pTCac",
          "type": "uint256"
        }
      ],
      "stateMutability": "view",
      "type": "function"
    },
    {
      "inputs": [],
      "name": "getTCAvailableToRedeem",
      "outputs": [
        {
          "internalType": "int256",
          "name": "tcAvailableToRedeem",
          "type": "int256"
        }
      ],
      "stateMutability": "view",
      "type": "function"
    },
    {
      "inputs": [
        {
          "internalType": "address",
          "name": "tp_",
          "type": "address"
        }
      ],
      "name": "getTPAvailableToMint",
      "outputs": [
        {
          "internalType": "int256",
          "name": "tpAvailableToMint",
          "type": "int256"
        }
      ],
      "stateMutability": "view",
      "type": "function"
    },
    {
      "inputs": [],
      "name": "getTotalACavailable",
      "outputs": [
        {
          "internalType": "uint256",
          "name": "totalACavailable",
          "type": "uint256"
        }
      ],
      "stateMutability": "view",
      "type": "function"
    },
    {
      "inputs": [],
      "name": "governor",
      "outputs": [
        {
          "internalType": "contract IGovernor",
          "name": "",
          "type": "address"
        }
      ],
      "stateMutability": "view",
      "type": "function"
    },
    {
      "inputs": [
        {
          "components": [
            {
              "components": [
                {
                  "components": [
                    {
                      "internalType": "address",
                      "name": "feeTokenAddress",
                      "type": "address"
                    },
                    {
                      "internalType": "address",
                      "name": "feeTokenPriceProviderAddress",
                      "type": "address"
                    },
                    {
                      "internalType": "address",
                      "name": "tcTokenAddress",
                      "type": "address"
                    },
                    {
                      "internalType": "address",
                      "name": "mocFeeFlowAddress",
                      "type": "address"
                    },
                    {
                      "internalType": "address",
                      "name": "mocAppreciationBeneficiaryAddress",
                      "type": "address"
                    },
                    {
                      "internalType": "uint256",
                      "name": "protThrld",
                      "type": "uint256"
                    },
                    {
                      "internalType": "uint256",
                      "name": "liqThrld",
                      "type": "uint256"
                    },
                    {
                      "internalType": "uint256",
                      "name": "feeRetainer",
                      "type": "uint256"
                    },
                    {
                      "internalType": "uint256",
                      "name": "tcMintFee",
                      "type": "uint256"
                    },
                    {
                      "internalType": "uint256",
                      "name": "tcRedeemFee",
                      "type": "uint256"
                    },
                    {
                      "internalType": "uint256",
                      "name": "swapTPforTPFee",
                      "type": "uint256"
                    },
                    {
                      "internalType": "uint256",
                      "name": "swapTPforTCFee",
                      "type": "uint256"
                    },
                    {
                      "internalType": "uint256",
                      "name": "swapTCforTPFee",
                      "type": "uint256"
                    },
                    {
                      "internalType": "uint256",
                      "name": "redeemTCandTPFee",
                      "type": "uint256"
                    },
                    {
                      "internalType": "uint256",
                      "name": "mintTCandTPFee",
                      "type": "uint256"
                    },
                    {
                      "internalType": "uint256",
                      "name": "feeTokenPct",
                      "type": "uint256"
                    },
                    {
                      "internalType": "uint256",
                      "name": "successFee",
                      "type": "uint256"
                    },
                    {
                      "internalType": "uint256",
                      "name": "appreciationFactor",
                      "type": "uint256"
                    },
                    {
                      "internalType": "uint256",
                      "name": "bes",
                      "type": "uint256"
                    },
                    {
                      "internalType": "address",
                      "name": "tcInterestCollectorAddress",
                      "type": "address"
                    },
                    {
                      "internalType": "uint256",
                      "name": "tcInterestRate",
                      "type": "uint256"
                    },
                    {
                      "internalType": "uint256",
                      "name": "tcInterestPaymentBlockSpan",
                      "type": "uint256"
                    },
                    {
                      "internalType": "address",
                      "name": "maxAbsoluteOpProviderAddress",
                      "type": "address"
                    },
                    {
                      "internalType": "address",
                      "name": "maxOpDiffProviderAddress",
                      "type": "address"
                    },
                    {
                      "internalType": "uint256",
                      "name": "decayBlockSpan",
                      "type": "uint256"
                    }
                  ],
                  "internalType": "struct MocBaseBucket.InitializeBaseBucketParams",
                  "name": "initializeBaseBucketParams",
                  "type": "tuple"
                },
                {
                  "internalType": "address",
                  "name": "governorAddress",
                  "type": "address"
                },
                {
                  "internalType": "address",
                  "name": "pauserAddress",
                  "type": "address"
                },
                {
                  "internalType": "address",
                  "name": "mocCoreExpansion",
                  "type": "address"
                },
                {
                  "internalType": "uint256",
                  "name": "emaCalculationBlockSpan",
                  "type": "uint256"
                },
                {
                  "internalType": "address",
                  "name": "mocVendors",
                  "type": "address"
                }
              ],
              "internalType": "struct MocCore.InitializeCoreParams",
              "name": "initializeCoreParams",
              "type": "tuple"
            },
            {
              "internalType": "address",
              "name": "acTokenAddress",
              "type": "address"
            },
            {
              "internalType": "address",
              "name": "mocQueue",
              "type": "address"
            }
          ],
          "internalType": "struct MocCARC20Deferred.InitializeParams",
          "name": "initializeParams_",
          "type": "tuple"
        }
      ],
      "name": "initialize",
      "outputs": [],
      "stateMutability": "nonpayable",
      "type": "function"
    },
    {
      "inputs": [],
      "name": "isLiquidationReached",
      "outputs": [
        {
          "internalType": "bool",
          "name": "",
          "type": "bool"
        }
      ],
      "stateMutability": "view",
      "type": "function"
    },
    {
      "inputs": [],
      "name": "lastOperationBlockNumber",
      "outputs": [
        {
          "internalType": "uint256",
          "name": "",
          "type": "uint256"
        }
      ],
      "stateMutability": "view",
      "type": "function"
    },
    {
      "inputs": [],
      "name": "liqEnabled",
      "outputs": [
        {
          "internalType": "bool",
          "name": "",
          "type": "bool"
        }
      ],
      "stateMutability": "view",
      "type": "function"
    },
    {
      "inputs": [
        {
          "internalType": "address",
          "name": "tp_",
          "type": "address"
        }
      ],
      "name": "liqRedeemTP",
      "outputs": [
        {
          "internalType": "uint256",
          "name": "qACRedeemed",
          "type": "uint256"
        }
      ],
      "stateMutability": "nonpayable",
      "type": "function"
    },
    {
      "inputs": [
        {
          "internalType": "address",
          "name": "tp_",
          "type": "address"
        },
        {
          "internalType": "address",
          "name": "recipient_",
          "type": "address"
        }
      ],
      "name": "liqRedeemTPto",
      "outputs": [
        {
          "internalType": "uint256",
          "name": "qACRedeemed",
          "type": "uint256"
        }
      ],
      "stateMutability": "nonpayable",
      "type": "function"
    },
    {
      "inputs": [],
      "name": "liqThrld",
      "outputs": [
        {
          "internalType": "uint256",
          "name": "",
          "type": "uint256"
        }
      ],
      "stateMutability": "view",
      "type": "function"
    },
    {
      "inputs": [],
      "name": "liquidated",
      "outputs": [
        {
          "internalType": "bool",
          "name": "",
          "type": "bool"
        }
      ],
      "stateMutability": "view",
      "type": "function"
    },
    {
      "inputs": [],
      "name": "makeStoppable",
      "outputs": [],
      "stateMutability": "nonpayable",
      "type": "function"
    },
    {
      "inputs": [],
      "name": "makeUnstoppable",
      "outputs": [],
      "stateMutability": "nonpayable",
      "type": "function"
    },
    {
      "inputs": [],
      "name": "maxAbsoluteOpProvider",
      "outputs": [
        {
          "internalType": "contract IDataProvider",
          "name": "",
          "type": "address"
        }
      ],
      "stateMutability": "view",
      "type": "function"
    },
    {
      "inputs": [],
      "name": "maxOpDiffProvider",
      "outputs": [
        {
          "internalType": "contract IDataProvider",
          "name": "",
          "type": "address"
        }
      ],
      "stateMutability": "view",
      "type": "function"
    },
    {
      "inputs": [],
      "name": "maxQACToMintTP",
      "outputs": [
        {
          "internalType": "uint256",
          "name": "maxQAC",
          "type": "uint256"
        }
      ],
      "stateMutability": "view",
      "type": "function"
    },
    {
      "inputs": [],
      "name": "maxQACToRedeemTP",
      "outputs": [
        {
          "internalType": "uint256",
          "name": "maxQAC",
          "type": "uint256"
        }
      ],
      "stateMutability": "view",
      "type": "function"
    },
    {
      "inputs": [
        {
          "internalType": "uint256",
          "name": "qAC_",
          "type": "uint256"
        },
        {
          "internalType": "uint256",
          "name": "qTC_",
          "type": "uint256"
        },
        {
          "internalType": "uint256",
          "name": "qTP_",
          "type": "uint256"
        },
        {
          "internalType": "uint256",
          "name": "nextEmaCalculation_",
          "type": "uint256"
        },
        {
          "internalType": "uint256",
          "name": "nextTCInterestPayment_",
          "type": "uint256"
        }
      ],
      "name": "migrateFromV1",
      "outputs": [],
      "stateMutability": "nonpayable",
      "type": "function"
    },
    {
      "inputs": [
        {
          "internalType": "uint256",
          "name": "qTC_",
          "type": "uint256"
        },
        {
          "internalType": "uint256",
          "name": "qACmax_",
          "type": "uint256"
        }
      ],
      "name": "mintTC",
      "outputs": [
        {
          "internalType": "uint256",
          "name": "operId",
          "type": "uint256"
        }
      ],
      "stateMutability": "payable",
      "type": "function"
    },
    {
      "inputs": [
        {
          "internalType": "uint256",
          "name": "qTC_",
          "type": "uint256"
        },
        {
          "internalType": "uint256",
          "name": "qACmax_",
          "type": "uint256"
        },
        {
          "internalType": "address",
          "name": "vendor_",
          "type": "address"
        }
      ],
      "name": "mintTCViaVendor",
      "outputs": [
        {
          "internalType": "uint256",
          "name": "operId",
          "type": "uint256"
        }
      ],
      "stateMutability": "payable",
      "type": "function"
    },
    {
      "inputs": [
        {
          "internalType": "address",
          "name": "tp_",
          "type": "address"
        },
        {
          "internalType": "uint256",
          "name": "qTP_",
          "type": "uint256"
        },
        {
          "internalType": "uint256",
          "name": "qACmax_",
          "type": "uint256"
        }
      ],
      "name": "mintTCandTP",
      "outputs": [
        {
          "internalType": "uint256",
          "name": "operId",
          "type": "uint256"
        }
      ],
      "stateMutability": "payable",
      "type": "function"
    },
    {
      "inputs": [],
      "name": "mintTCandTPFee",
      "outputs": [
        {
          "internalType": "uint256",
          "name": "",
          "type": "uint256"
        }
      ],
      "stateMutability": "view",
      "type": "function"
    },
    {
      "inputs": [
        {
          "internalType": "address",
          "name": "tp_",
          "type": "address"
        },
        {
          "internalType": "uint256",
          "name": "qTP_",
          "type": "uint256"
        },
        {
          "internalType": "uint256",
          "name": "qACmax_",
          "type": "uint256"
        },
        {
          "internalType": "address",
          "name": "vendor_",
          "type": "address"
        }
      ],
      "name": "mintTCandTPViaVendor",
      "outputs": [
        {
          "internalType": "uint256",
          "name": "operId",
          "type": "uint256"
        }
      ],
      "stateMutability": "payable",
      "type": "function"
    },
    {
      "inputs": [
        {
          "internalType": "address",
          "name": "tp_",
          "type": "address"
        },
        {
          "internalType": "uint256",
          "name": "qTP_",
          "type": "uint256"
        },
        {
          "internalType": "uint256",
          "name": "qACmax_",
          "type": "uint256"
        },
        {
          "internalType": "address",
          "name": "recipient_",
          "type": "address"
        }
      ],
      "name": "mintTCandTPto",
      "outputs": [
        {
          "internalType": "uint256",
          "name": "operId",
          "type": "uint256"
        }
      ],
      "stateMutability": "payable",
      "type": "function"
    },
    {
      "inputs": [
        {
          "internalType": "address",
          "name": "tp_",
          "type": "address"
        },
        {
          "internalType": "uint256",
          "name": "qTP_",
          "type": "uint256"
        },
        {
          "internalType": "uint256",
          "name": "qACmax_",
          "type": "uint256"
        },
        {
          "internalType": "address",
          "name": "recipient_",
          "type": "address"
        },
        {
          "internalType": "address",
          "name": "vendor_",
          "type": "address"
        }
      ],
      "name": "mintTCandTPtoViaVendor",
      "outputs": [
        {
          "internalType": "uint256",
          "name": "operId",
          "type": "uint256"
        }
      ],
      "stateMutability": "payable",
      "type": "function"
    },
    {
      "inputs": [
        {
          "internalType": "uint256",
          "name": "qTC_",
          "type": "uint256"
        },
        {
          "internalType": "uint256",
          "name": "qACmax_",
          "type": "uint256"
        },
        {
          "internalType": "address",
          "name": "recipient_",
          "type": "address"
        }
      ],
      "name": "mintTCto",
      "outputs": [
        {
          "internalType": "uint256",
          "name": "operId",
          "type": "uint256"
        }
      ],
      "stateMutability": "payable",
      "type": "function"
    },
    {
      "inputs": [
        {
          "internalType": "uint256",
          "name": "qTC_",
          "type": "uint256"
        },
        {
          "internalType": "uint256",
          "name": "qACmax_",
          "type": "uint256"
        },
        {
          "internalType": "address",
          "name": "recipient_",
          "type": "address"
        },
        {
          "internalType": "address",
          "name": "vendor_",
          "type": "address"
        }
      ],
      "name": "mintTCtoViaVendor",
      "outputs": [
        {
          "internalType": "uint256",
          "name": "operId",
          "type": "uint256"
        }
      ],
      "stateMutability": "payable",
      "type": "function"
    },
    {
      "inputs": [
        {
          "internalType": "address",
          "name": "tp_",
          "type": "address"
        },
        {
          "internalType": "uint256",
          "name": "qTP_",
          "type": "uint256"
        },
        {
          "internalType": "uint256",
          "name": "qACmax_",
          "type": "uint256"
        }
      ],
      "name": "mintTP",
      "outputs": [
        {
          "internalType": "uint256",
          "name": "operId",
          "type": "uint256"
        }
      ],
      "stateMutability": "payable",
      "type": "function"
    },
    {
      "inputs": [
        {
          "internalType": "address",
          "name": "tp_",
          "type": "address"
        },
        {
          "internalType": "uint256",
          "name": "qTP_",
          "type": "uint256"
        },
        {
          "internalType": "uint256",
          "name": "qACmax_",
          "type": "uint256"
        },
        {
          "internalType": "address",
          "name": "vendor_",
          "type": "address"
        }
      ],
      "name": "mintTPViaVendor",
      "outputs": [
        {
          "internalType": "uint256",
          "name": "operId",
          "type": "uint256"
        }
      ],
      "stateMutability": "payable",
      "type": "function"
    },
    {
      "inputs": [
        {
          "internalType": "address",
          "name": "tp_",
          "type": "address"
        },
        {
          "internalType": "uint256",
          "name": "qTP_",
          "type": "uint256"
        },
        {
          "internalType": "uint256",
          "name": "qACmax_",
          "type": "uint256"
        },
        {
          "internalType": "address",
          "name": "recipient_",
          "type": "address"
        }
      ],
      "name": "mintTPto",
      "outputs": [
        {
          "internalType": "uint256",
          "name": "operId",
          "type": "uint256"
        }
      ],
      "stateMutability": "payable",
      "type": "function"
    },
    {
      "inputs": [
        {
          "internalType": "address",
          "name": "tp_",
          "type": "address"
        },
        {
          "internalType": "uint256",
          "name": "qTP_",
          "type": "uint256"
        },
        {
          "internalType": "uint256",
          "name": "qACmax_",
          "type": "uint256"
        },
        {
          "internalType": "address",
          "name": "recipient_",
          "type": "address"
        },
        {
          "internalType": "address",
          "name": "vendor_",
          "type": "address"
        }
      ],
      "name": "mintTPtoViaVendor",
      "outputs": [
        {
          "internalType": "uint256",
          "name": "operId",
          "type": "uint256"
        }
      ],
      "stateMutability": "payable",
      "type": "function"
    },
    {
      "inputs": [],
      "name": "mocAppreciationBeneficiaryAddress",
      "outputs": [
        {
          "internalType": "address",
          "name": "",
          "type": "address"
        }
      ],
      "stateMutability": "view",
      "type": "function"
    },
    {
      "inputs": [],
      "name": "mocFeeFlowAddress",
      "outputs": [
        {
          "internalType": "address",
          "name": "",
          "type": "address"
        }
      ],
      "stateMutability": "view",
      "type": "function"
    },
    {
      "inputs": [],
      "name": "mocQueue",
      "outputs": [
        {
          "internalType": "contract MocQueue",
          "name": "",
          "type": "address"
        }
      ],
      "stateMutability": "view",
      "type": "function"
    },
    {
      "inputs": [],
      "name": "mocVendors",
      "outputs": [
        {
          "internalType": "contract MocVendors",
          "name": "",
          "type": "address"
        }
      ],
      "stateMutability": "view",
      "type": "function"
    },
    {
      "inputs": [],
      "name": "nACcb",
      "outputs": [
        {
          "internalType": "uint256",
          "name": "",
          "type": "uint256"
        }
      ],
      "stateMutability": "view",
      "type": "function"
    },
    {
      "inputs": [],
      "name": "nTCcb",
      "outputs": [
        {
          "internalType": "uint256",
          "name": "",
          "type": "uint256"
        }
      ],
      "stateMutability": "view",
      "type": "function"
    },
    {
      "inputs": [],
      "name": "nextEmaCalculation",
      "outputs": [
        {
          "internalType": "uint256",
          "name": "",
          "type": "uint256"
        }
      ],
      "stateMutability": "view",
      "type": "function"
    },
    {
      "inputs": [],
      "name": "nextTCInterestPayment",
      "outputs": [
        {
          "internalType": "uint256",
          "name": "",
          "type": "uint256"
        }
      ],
      "stateMutability": "view",
      "type": "function"
    },
    {
      "inputs": [],
      "name": "pause",
      "outputs": [],
      "stateMutability": "nonpayable",
      "type": "function"
    },
    {
      "inputs": [],
      "name": "paused",
      "outputs": [
        {
          "internalType": "bool",
          "name": "",
          "type": "bool"
        }
      ],
      "stateMutability": "view",
      "type": "function"
    },
    {
      "inputs": [],
      "name": "pauser",
      "outputs": [
        {
          "internalType": "address",
          "name": "",
          "type": "address"
        }
      ],
      "stateMutability": "view",
      "type": "function"
    },
    {
      "inputs": [
        {
          "internalType": "uint256",
          "name": "",
          "type": "uint256"
        }
      ],
      "name": "pegContainer",
      "outputs": [
        {
          "internalType": "uint256",
          "name": "nTP",
          "type": "uint256"
        },
        {
          "internalType": "contract IPriceProvider",
          "name": "priceProvider",
          "type": "address"
        }
      ],
      "stateMutability": "view",
      "type": "function"
    },
    {
      "inputs": [
        {
          "internalType": "address",
          "name": "",
          "type": "address"
        }
      ],
      "name": "peggedTokenIndex",
      "outputs": [
        {
          "internalType": "uint256",
          "name": "index",
          "type": "uint256"
        },
        {
          "internalType": "bool",
          "name": "exists",
          "type": "bool"
        }
      ],
      "stateMutability": "view",
      "type": "function"
    },
    {
      "inputs": [],
      "name": "protThrld",
      "outputs": [
        {
          "internalType": "uint256",
          "name": "",
          "type": "uint256"
        }
      ],
      "stateMutability": "view",
      "type": "function"
    },
    {
      "inputs": [],
      "name": "proxiableUUID",
      "outputs": [
        {
          "internalType": "bytes32",
          "name": "",
          "type": "bytes32"
        }
      ],
      "stateMutability": "view",
      "type": "function"
    },
    {
      "inputs": [],
      "name": "qACLockedInPending",
      "outputs": [
        {
          "internalType": "uint256",
          "name": "",
          "type": "uint256"
        }
      ],
      "stateMutability": "view",
      "type": "function"
    },
    {
      "inputs": [
        {
          "internalType": "uint256",
          "name": "qTC_",
          "type": "uint256"
        },
        {
          "internalType": "uint256",
          "name": "qACmin_",
          "type": "uint256"
        }
      ],
      "name": "redeemTC",
      "outputs": [
        {
          "internalType": "uint256",
          "name": "operId",
          "type": "uint256"
        }
      ],
      "stateMutability": "payable",
      "type": "function"
    },
    {
      "inputs": [
        {
          "internalType": "uint256",
          "name": "qTC_",
          "type": "uint256"
        },
        {
          "internalType": "uint256",
          "name": "qACmin_",
          "type": "uint256"
        },
        {
          "internalType": "address",
          "name": "vendor_",
          "type": "address"
        }
      ],
      "name": "redeemTCViaVendor",
      "outputs": [
        {
          "internalType": "uint256",
          "name": "operId",
          "type": "uint256"
        }
      ],
      "stateMutability": "payable",
      "type": "function"
    },
    {
      "inputs": [
        {
          "internalType": "address",
          "name": "tp_",
          "type": "address"
        },
        {
          "internalType": "uint256",
          "name": "qTC_",
          "type": "uint256"
        },
        {
          "internalType": "uint256",
          "name": "qTP_",
          "type": "uint256"
        },
        {
          "internalType": "uint256",
          "name": "qACmin_",
          "type": "uint256"
        }
      ],
      "name": "redeemTCandTP",
      "outputs": [
        {
          "internalType": "uint256",
          "name": "operId",
          "type": "uint256"
        }
      ],
      "stateMutability": "payable",
      "type": "function"
    },
    {
      "inputs": [],
      "name": "redeemTCandTPFee",
      "outputs": [
        {
          "internalType": "uint256",
          "name": "",
          "type": "uint256"
        }
      ],
      "stateMutability": "view",
      "type": "function"
    },
    {
      "inputs": [
        {
          "internalType": "address",
          "name": "tp_",
          "type": "address"
        },
        {
          "internalType": "uint256",
          "name": "qTC_",
          "type": "uint256"
        },
        {
          "internalType": "uint256",
          "name": "qTP_",
          "type": "uint256"
        },
        {
          "internalType": "uint256",
          "name": "qACmin_",
          "type": "uint256"
        },
        {
          "internalType": "address",
          "name": "vendor_",
          "type": "address"
        }
      ],
      "name": "redeemTCandTPViaVendor",
      "outputs": [
        {
          "internalType": "uint256",
          "name": "operId",
          "type": "uint256"
        }
      ],
      "stateMutability": "payable",
      "type": "function"
    },
    {
      "inputs": [
        {
          "internalType": "address",
          "name": "tp_",
          "type": "address"
        },
        {
          "internalType": "uint256",
          "name": "qTC_",
          "type": "uint256"
        },
        {
          "internalType": "uint256",
          "name": "qTP_",
          "type": "uint256"
        },
        {
          "internalType": "uint256",
          "name": "qACmin_",
          "type": "uint256"
        },
        {
          "internalType": "address",
          "name": "recipient_",
          "type": "address"
        }
      ],
      "name": "redeemTCandTPto",
      "outputs": [
        {
          "internalType": "uint256",
          "name": "operId",
          "type": "uint256"
        }
      ],
      "stateMutability": "payable",
      "type": "function"
    },
    {
      "inputs": [
        {
          "internalType": "address",
          "name": "tp_",
          "type": "address"
        },
        {
          "internalType": "uint256",
          "name": "qTC_",
          "type": "uint256"
        },
        {
          "internalType": "uint256",
          "name": "qTP_",
          "type": "uint256"
        },
        {
          "internalType": "uint256",
          "name": "qACmin_",
          "type": "uint256"
        },
        {
          "internalType": "address",
          "name": "recipient_",
          "type": "address"
        },
        {
          "internalType": "address",
          "name": "vendor_",
          "type": "address"
        }
      ],
      "name": "redeemTCandTPtoViaVendor",
      "outputs": [
        {
          "internalType": "uint256",
          "name": "operId",
          "type": "uint256"
        }
      ],
      "stateMutability": "payable",
      "type": "function"
    },
    {
      "inputs": [
        {
          "internalType": "uint256",
          "name": "qTC_",
          "type": "uint256"
        },
        {
          "internalType": "uint256",
          "name": "qACmin_",
          "type": "uint256"
        },
        {
          "internalType": "address",
          "name": "recipient_",
          "type": "address"
        }
      ],
      "name": "redeemTCto",
      "outputs": [
        {
          "internalType": "uint256",
          "name": "operId",
          "type": "uint256"
        }
      ],
      "stateMutability": "payable",
      "type": "function"
    },
    {
      "inputs": [
        {
          "internalType": "uint256",
          "name": "qTC_",
          "type": "uint256"
        },
        {
          "internalType": "uint256",
          "name": "qACmin_",
          "type": "uint256"
        },
        {
          "internalType": "address",
          "name": "recipient_",
          "type": "address"
        },
        {
          "internalType": "address",
          "name": "vendor_",
          "type": "address"
        }
      ],
      "name": "redeemTCtoViaVendor",
      "outputs": [
        {
          "internalType": "uint256",
          "name": "operId",
          "type": "uint256"
        }
      ],
      "stateMutability": "payable",
      "type": "function"
    },
    {
      "inputs": [
        {
          "internalType": "address",
          "name": "tp_",
          "type": "address"
        },
        {
          "internalType": "uint256",
          "name": "qTP_",
          "type": "uint256"
        },
        {
          "internalType": "uint256",
          "name": "qACmin_",
          "type": "uint256"
        }
      ],
      "name": "redeemTP",
      "outputs": [
        {
          "internalType": "uint256",
          "name": "operId",
          "type": "uint256"
        }
      ],
      "stateMutability": "payable",
      "type": "function"
    },
    {
      "inputs": [
        {
          "internalType": "address",
          "name": "tp_",
          "type": "address"
        },
        {
          "internalType": "uint256",
          "name": "qTP_",
          "type": "uint256"
        },
        {
          "internalType": "uint256",
          "name": "qACmin_",
          "type": "uint256"
        },
        {
          "internalType": "address",
          "name": "vendor_",
          "type": "address"
        }
      ],
      "name": "redeemTPViaVendor",
      "outputs": [
        {
          "internalType": "uint256",
          "name": "operId",
          "type": "uint256"
        }
      ],
      "stateMutability": "payable",
      "type": "function"
    },
    {
      "inputs": [
        {
          "internalType": "address",
          "name": "tp_",
          "type": "address"
        },
        {
          "internalType": "uint256",
          "name": "qTP_",
          "type": "uint256"
        },
        {
          "internalType": "uint256",
          "name": "qACmin_",
          "type": "uint256"
        },
        {
          "internalType": "address",
          "name": "recipient_",
          "type": "address"
        }
      ],
      "name": "redeemTPto",
      "outputs": [
        {
          "internalType": "uint256",
          "name": "operId",
          "type": "uint256"
        }
      ],
      "stateMutability": "payable",
      "type": "function"
    },
    {
      "inputs": [
        {
          "internalType": "address",
          "name": "tp_",
          "type": "address"
        },
        {
          "internalType": "uint256",
          "name": "qTP_",
          "type": "uint256"
        },
        {
          "internalType": "uint256",
          "name": "qACmin_",
          "type": "uint256"
        },
        {
          "internalType": "address",
          "name": "recipient_",
          "type": "address"
        },
        {
          "internalType": "address",
          "name": "vendor_",
          "type": "address"
        }
      ],
      "name": "redeemTPtoViaVendor",
      "outputs": [
        {
          "internalType": "uint256",
          "name": "operId",
          "type": "uint256"
        }
      ],
      "stateMutability": "payable",
      "type": "function"
    },
    {
      "inputs": [],
      "name": "refreshACBalance",
      "outputs": [],
      "stateMutability": "nonpayable",
      "type": "function"
    },
    {
      "inputs": [
        {
          "internalType": "uint256",
          "name": "appreciationFactor_",
          "type": "uint256"
        }
      ],
      "name": "setAppreciationFactor",
      "outputs": [],
      "stateMutability": "nonpayable",
      "type": "function"
    },
    {
      "inputs": [
        {
          "internalType": "uint256",
          "name": "bes_",
          "type": "uint256"
        }
      ],
      "name": "setBes",
      "outputs": [],
      "stateMutability": "nonpayable",
      "type": "function"
    },
    {
      "inputs": [
        {
          "internalType": "uint256",
          "name": "decayBlockSpan_",
          "type": "uint256"
        }
      ],
      "name": "setDecayBlockSpan",
      "outputs": [],
      "stateMutability": "nonpayable",
      "type": "function"
    },
    {
      "inputs": [
        {
          "internalType": "uint256",
          "name": "blockSpan_",
          "type": "uint256"
        }
      ],
      "name": "setEmaCalculationBlockSpan",
      "outputs": [],
      "stateMutability": "nonpayable",
      "type": "function"
    },
    {
      "inputs": [
        {
          "internalType": "uint256",
          "name": "feeRetainer_",
          "type": "uint256"
        }
      ],
      "name": "setFeeRetainer",
      "outputs": [],
      "stateMutability": "nonpayable",
      "type": "function"
    },
    {
      "inputs": [
        {
          "internalType": "address",
          "name": "mocFeeTokenAddress_",
          "type": "address"
        }
      ],
      "name": "setFeeTokenAddress",
      "outputs": [],
      "stateMutability": "nonpayable",
      "type": "function"
    },
    {
      "inputs": [
        {
          "internalType": "uint256",
          "name": "feeTokenPct_",
          "type": "uint256"
        }
      ],
      "name": "setFeeTokenPct",
      "outputs": [],
      "stateMutability": "nonpayable",
      "type": "function"
    },
    {
      "inputs": [
        {
          "internalType": "address",
          "name": "mocFeeTokenPriceProviderAddress_",
          "type": "address"
        }
      ],
      "name": "setFeeTokenPriceProviderAddress",
      "outputs": [],
      "stateMutability": "nonpayable",
      "type": "function"
    },
    {
      "inputs": [
        {
          "internalType": "bool",
          "name": "liqEnabled_",
          "type": "bool"
        }
      ],
      "name": "setLiqEnabled",
      "outputs": [],
      "stateMutability": "nonpayable",
      "type": "function"
    },
    {
      "inputs": [
        {
          "internalType": "uint256",
          "name": "liqThrld_",
          "type": "uint256"
        }
      ],
      "name": "setLiqThrld",
      "outputs": [],
      "stateMutability": "nonpayable",
      "type": "function"
    },
    {
      "inputs": [
        {
          "internalType": "address",
          "name": "maxAbsoluteOpProviderAddress_",
          "type": "address"
        }
      ],
      "name": "setMaxAbsoluteOpProviderAddress",
      "outputs": [],
      "stateMutability": "nonpayable",
      "type": "function"
    },
    {
      "inputs": [
        {
          "internalType": "address",
          "name": "maxOpDiffProviderAddress_",
          "type": "address"
        }
      ],
      "name": "setMaxOpDiffProviderAddress",
      "outputs": [],
      "stateMutability": "nonpayable",
      "type": "function"
    },
    {
      "inputs": [
        {
          "internalType": "uint256",
          "name": "mintTCandTPFee_",
          "type": "uint256"
        }
      ],
      "name": "setMintTCandTPFee",
      "outputs": [],
      "stateMutability": "nonpayable",
      "type": "function"
    },
    {
      "inputs": [
        {
          "internalType": "address",
          "name": "mocAppreciationBeneficiaryAddress_",
          "type": "address"
        }
      ],
      "name": "setMocAppreciationBeneficiaryAddress",
      "outputs": [],
      "stateMutability": "nonpayable",
      "type": "function"
    },
    {
      "inputs": [
        {
          "internalType": "address",
          "name": "mocCoreExpansion_",
          "type": "address"
        }
      ],
      "name": "setMocCoreExpansion",
      "outputs": [],
      "stateMutability": "nonpayable",
      "type": "function"
    },
    {
      "inputs": [
        {
          "internalType": "address",
          "name": "mocFeeFlowAddress_",
          "type": "address"
        }
      ],
      "name": "setMocFeeFlowAddress",
      "outputs": [],
      "stateMutability": "nonpayable",
      "type": "function"
    },
    {
      "inputs": [
        {
          "internalType": "address",
          "name": "mocQueue_",
          "type": "address"
        }
      ],
      "name": "setMocQueue",
      "outputs": [],
      "stateMutability": "nonpayable",
      "type": "function"
    },
    {
      "inputs": [
        {
          "internalType": "address",
          "name": "mocVendors_",
          "type": "address"
        }
      ],
      "name": "setMocVendors",
      "outputs": [],
      "stateMutability": "nonpayable",
      "type": "function"
    },
    {
      "inputs": [
        {
          "internalType": "address",
          "name": "newPauser_",
          "type": "address"
        }
      ],
      "name": "setPauser",
      "outputs": [],
      "stateMutability": "nonpayable",
      "type": "function"
    },
    {
      "inputs": [
        {
          "internalType": "uint256",
          "name": "protThrld_",
          "type": "uint256"
        }
      ],
      "name": "setProtThrld",
      "outputs": [],
      "stateMutability": "nonpayable",
      "type": "function"
    },
    {
      "inputs": [
        {
          "internalType": "uint256",
          "name": "redeemTCandTPFee_",
          "type": "uint256"
        }
      ],
      "name": "setRedeemTCandTPFee",
      "outputs": [],
      "stateMutability": "nonpayable",
      "type": "function"
    },
    {
      "inputs": [
        {
          "internalType": "uint256",
          "name": "successFee_",
          "type": "uint256"
        }
      ],
      "name": "setSuccessFee",
      "outputs": [],
      "stateMutability": "nonpayable",
      "type": "function"
    },
    {
      "inputs": [
        {
          "internalType": "uint256",
          "name": "swapTCforTPFee_",
          "type": "uint256"
        }
      ],
      "name": "setSwapTCforTPFee",
      "outputs": [],
      "stateMutability": "nonpayable",
      "type": "function"
    },
    {
      "inputs": [
        {
          "internalType": "uint256",
          "name": "swapTPforTCFee_",
          "type": "uint256"
        }
      ],
      "name": "setSwapTPforTCFee",
      "outputs": [],
      "stateMutability": "nonpayable",
      "type": "function"
    },
    {
      "inputs": [
        {
          "internalType": "uint256",
          "name": "swapTPforTPFee_",
          "type": "uint256"
        }
      ],
      "name": "setSwapTPforTPFee",
      "outputs": [],
      "stateMutability": "nonpayable",
      "type": "function"
    },
    {
      "inputs": [
        {
          "internalType": "address",
          "name": "tcInterestCollectorAddress_",
          "type": "address"
        }
      ],
      "name": "setTCInterestCollectorAddress",
      "outputs": [],
      "stateMutability": "nonpayable",
      "type": "function"
    },
    {
      "inputs": [
        {
          "internalType": "uint256",
          "name": "tcInterestPaymentBlockSpan_",
          "type": "uint256"
        }
      ],
      "name": "setTCInterestPaymentBlockSpan",
      "outputs": [],
      "stateMutability": "nonpayable",
      "type": "function"
    },
    {
      "inputs": [
        {
          "internalType": "uint256",
          "name": "tcInterestRate_",
          "type": "uint256"
        }
      ],
      "name": "setTCInterestRate",
      "outputs": [],
      "stateMutability": "nonpayable",
      "type": "function"
    },
    {
      "inputs": [
        {
          "internalType": "uint256",
          "name": "tcMintFee_",
          "type": "uint256"
        }
      ],
      "name": "setTcMintFee",
      "outputs": [],
      "stateMutability": "nonpayable",
      "type": "function"
    },
    {
      "inputs": [
        {
          "internalType": "uint256",
          "name": "tcRedeemFee_",
          "type": "uint256"
        }
      ],
      "name": "setTcRedeemFee",
      "outputs": [],
      "stateMutability": "nonpayable",
      "type": "function"
    },
    {
      "inputs": [],
      "name": "shouldCalculateEma",
      "outputs": [
        {
          "internalType": "bool",
          "name": "",
          "type": "bool"
        }
      ],
      "stateMutability": "view",
      "type": "function"
    },
    {
      "inputs": [],
      "name": "stoppable",
      "outputs": [
        {
          "internalType": "bool",
          "name": "",
          "type": "bool"
        }
      ],
      "stateMutability": "view",
      "type": "function"
    },
    {
      "inputs": [],
      "name": "successFee",
      "outputs": [
        {
          "internalType": "uint256",
          "name": "",
          "type": "uint256"
        }
      ],
      "stateMutability": "view",
      "type": "function"
    },
    {
      "inputs": [
        {
          "internalType": "address",
          "name": "tp_",
          "type": "address"
        },
        {
          "internalType": "uint256",
          "name": "qTC_",
          "type": "uint256"
        },
        {
          "internalType": "uint256",
          "name": "qTPmin_",
          "type": "uint256"
        },
        {
          "internalType": "uint256",
          "name": "qACmax_",
          "type": "uint256"
        }
      ],
      "name": "swapTCforTP",
      "outputs": [
        {
          "internalType": "uint256",
          "name": "operId",
          "type": "uint256"
        }
      ],
      "stateMutability": "payable",
      "type": "function"
    },
    {
      "inputs": [],
      "name": "swapTCforTPFee",
      "outputs": [
        {
          "internalType": "uint256",
          "name": "",
          "type": "uint256"
        }
      ],
      "stateMutability": "view",
      "type": "function"
    },
    {
      "inputs": [
        {
          "internalType": "address",
          "name": "tp_",
          "type": "address"
        },
        {
          "internalType": "uint256",
          "name": "qTC_",
          "type": "uint256"
        },
        {
          "internalType": "uint256",
          "name": "qTPmin_",
          "type": "uint256"
        },
        {
          "internalType": "uint256",
          "name": "qACmax_",
          "type": "uint256"
        },
        {
          "internalType": "address",
          "name": "vendor_",
          "type": "address"
        }
      ],
      "name": "swapTCforTPViaVendor",
      "outputs": [
        {
          "internalType": "uint256",
          "name": "operId",
          "type": "uint256"
        }
      ],
      "stateMutability": "payable",
      "type": "function"
    },
    {
      "inputs": [
        {
          "internalType": "address",
          "name": "tp_",
          "type": "address"
        },
        {
          "internalType": "uint256",
          "name": "qTC_",
          "type": "uint256"
        },
        {
          "internalType": "uint256",
          "name": "qTPmin_",
          "type": "uint256"
        },
        {
          "internalType": "uint256",
          "name": "qACmax_",
          "type": "uint256"
        },
        {
          "internalType": "address",
          "name": "recipient_",
          "type": "address"
        }
      ],
      "name": "swapTCforTPto",
      "outputs": [
        {
          "internalType": "uint256",
          "name": "operId",
          "type": "uint256"
        }
      ],
      "stateMutability": "payable",
      "type": "function"
    },
    {
      "inputs": [
        {
          "internalType": "address",
          "name": "tp_",
          "type": "address"
        },
        {
          "internalType": "uint256",
          "name": "qTC_",
          "type": "uint256"
        },
        {
          "internalType": "uint256",
          "name": "qTPmin_",
          "type": "uint256"
        },
        {
          "internalType": "uint256",
          "name": "qACmax_",
          "type": "uint256"
        },
        {
          "internalType": "address",
          "name": "recipient_",
          "type": "address"
        },
        {
          "internalType": "address",
          "name": "vendor_",
          "type": "address"
        }
      ],
      "name": "swapTCforTPtoViaVendor",
      "outputs": [
        {
          "internalType": "uint256",
          "name": "operId",
          "type": "uint256"
        }
      ],
      "stateMutability": "payable",
      "type": "function"
    },
    {
      "inputs": [
        {
          "internalType": "address",
          "name": "tp_",
          "type": "address"
        },
        {
          "internalType": "uint256",
          "name": "qTP_",
          "type": "uint256"
        },
        {
          "internalType": "uint256",
          "name": "qTCmin_",
          "type": "uint256"
        },
        {
          "internalType": "uint256",
          "name": "qACmax_",
          "type": "uint256"
        }
      ],
      "name": "swapTPforTC",
      "outputs": [
        {
          "internalType": "uint256",
          "name": "operId",
          "type": "uint256"
        }
      ],
      "stateMutability": "payable",
      "type": "function"
    },
    {
      "inputs": [],
      "name": "swapTPforTCFee",
      "outputs": [
        {
          "internalType": "uint256",
          "name": "",
          "type": "uint256"
        }
      ],
      "stateMutability": "view",
      "type": "function"
    },
    {
      "inputs": [
        {
          "internalType": "address",
          "name": "tp_",
          "type": "address"
        },
        {
          "internalType": "uint256",
          "name": "qTP_",
          "type": "uint256"
        },
        {
          "internalType": "uint256",
          "name": "qTCmin_",
          "type": "uint256"
        },
        {
          "internalType": "uint256",
          "name": "qACmax_",
          "type": "uint256"
        },
        {
          "internalType": "address",
          "name": "vendor_",
          "type": "address"
        }
      ],
      "name": "swapTPforTCViaVendor",
      "outputs": [
        {
          "internalType": "uint256",
          "name": "operId",
          "type": "uint256"
        }
      ],
      "stateMutability": "payable",
      "type": "function"
    },
    {
      "inputs": [
        {
          "internalType": "address",
          "name": "tp_",
          "type": "address"
        },
        {
          "internalType": "uint256",
          "name": "qTP_",
          "type": "uint256"
        },
        {
          "internalType": "uint256",
          "name": "qTCmin_",
          "type": "uint256"
        },
        {
          "internalType": "uint256",
          "name": "qACmax_",
          "type": "uint256"
        },
        {
          "internalType": "address",
          "name": "recipient_",
          "type": "address"
        }
      ],
      "name": "swapTPforTCto",
      "outputs": [
        {
          "internalType": "uint256",
          "name": "operId",
          "type": "uint256"
        }
      ],
      "stateMutability": "payable",
      "type": "function"
    },
    {
      "inputs": [
        {
          "internalType": "address",
          "name": "tp_",
          "type": "address"
        },
        {
          "internalType": "uint256",
          "name": "qTP_",
          "type": "uint256"
        },
        {
          "internalType": "uint256",
          "name": "qTCmin_",
          "type": "uint256"
        },
        {
          "internalType": "uint256",
          "name": "qACmax_",
          "type": "uint256"
        },
        {
          "internalType": "address",
          "name": "recipient_",
          "type": "address"
        },
        {
          "internalType": "address",
          "name": "vendor_",
          "type": "address"
        }
      ],
      "name": "swapTPforTCtoViaVendor",
      "outputs": [
        {
          "internalType": "uint256",
          "name": "operId",
          "type": "uint256"
        }
      ],
      "stateMutability": "payable",
      "type": "function"
    },
    {
      "inputs": [
        {
          "internalType": "address",
          "name": "tpFrom_",
          "type": "address"
        },
        {
          "internalType": "address",
          "name": "tpTo_",
          "type": "address"
        },
        {
          "internalType": "uint256",
          "name": "qTP_",
          "type": "uint256"
        },
        {
          "internalType": "uint256",
          "name": "qTPmin_",
          "type": "uint256"
        },
        {
          "internalType": "uint256",
          "name": "qACmax_",
          "type": "uint256"
        }
      ],
      "name": "swapTPforTP",
      "outputs": [
        {
          "internalType": "uint256",
          "name": "operId",
          "type": "uint256"
        }
      ],
      "stateMutability": "payable",
      "type": "function"
    },
    {
      "inputs": [],
      "name": "swapTPforTPFee",
      "outputs": [
        {
          "internalType": "uint256",
          "name": "",
          "type": "uint256"
        }
      ],
      "stateMutability": "view",
      "type": "function"
    },
    {
      "inputs": [
        {
          "internalType": "address",
          "name": "tpFrom_",
          "type": "address"
        },
        {
          "internalType": "address",
          "name": "tpTo_",
          "type": "address"
        },
        {
          "internalType": "uint256",
          "name": "qTP_",
          "type": "uint256"
        },
        {
          "internalType": "uint256",
          "name": "qTPmin_",
          "type": "uint256"
        },
        {
          "internalType": "uint256",
          "name": "qACmax_",
          "type": "uint256"
        },
        {
          "internalType": "address",
          "name": "vendor_",
          "type": "address"
        }
      ],
      "name": "swapTPforTPViaVendor",
      "outputs": [
        {
          "internalType": "uint256",
          "name": "operId",
          "type": "uint256"
        }
      ],
      "stateMutability": "payable",
      "type": "function"
    },
    {
      "inputs": [
        {
          "internalType": "address",
          "name": "tpFrom_",
          "type": "address"
        },
        {
          "internalType": "address",
          "name": "tpTo_",
          "type": "address"
        },
        {
          "internalType": "uint256",
          "name": "qTP_",
          "type": "uint256"
        },
        {
          "internalType": "uint256",
          "name": "qTPmin_",
          "type": "uint256"
        },
        {
          "internalType": "uint256",
          "name": "qACmax_",
          "type": "uint256"
        },
        {
          "internalType": "address",
          "name": "recipient_",
          "type": "address"
        }
      ],
      "name": "swapTPforTPto",
      "outputs": [
        {
          "internalType": "uint256",
          "name": "operId",
          "type": "uint256"
        }
      ],
      "stateMutability": "payable",
      "type": "function"
    },
    {
      "inputs": [
        {
          "internalType": "address",
          "name": "tpFrom_",
          "type": "address"
        },
        {
          "internalType": "address",
          "name": "tpTo_",
          "type": "address"
        },
        {
          "internalType": "uint256",
          "name": "qTP_",
          "type": "uint256"
        },
        {
          "internalType": "uint256",
          "name": "qTPmin_",
          "type": "uint256"
        },
        {
          "internalType": "uint256",
          "name": "qACmax_",
          "type": "uint256"
        },
        {
          "internalType": "address",
          "name": "recipient_",
          "type": "address"
        },
        {
          "internalType": "address",
          "name": "vendor_",
          "type": "address"
        }
      ],
      "name": "swapTPforTPtoViaVendor",
      "outputs": [
        {
          "internalType": "uint256",
          "name": "operId",
          "type": "uint256"
        }
      ],
      "stateMutability": "payable",
      "type": "function"
    },
    {
      "inputs": [],
      "name": "tcHoldersInterestPayment",
      "outputs": [],
      "stateMutability": "nonpayable",
      "type": "function"
    },
    {
      "inputs": [],
      "name": "tcInterestCollectorAddress",
      "outputs": [
        {
          "internalType": "address",
          "name": "",
          "type": "address"
        }
      ],
      "stateMutability": "view",
      "type": "function"
    },
    {
      "inputs": [],
      "name": "tcInterestPaymentBlockSpan",
      "outputs": [
        {
          "internalType": "uint256",
          "name": "",
          "type": "uint256"
        }
      ],
      "stateMutability": "view",
      "type": "function"
    },
    {
      "inputs": [],
      "name": "tcInterestRate",
      "outputs": [
        {
          "internalType": "uint256",
          "name": "",
          "type": "uint256"
        }
      ],
      "stateMutability": "view",
      "type": "function"
    },
    {
      "inputs": [],
      "name": "tcMintFee",
      "outputs": [
        {
          "internalType": "uint256",
          "name": "",
          "type": "uint256"
        }
      ],
      "stateMutability": "view",
      "type": "function"
    },
    {
      "inputs": [],
      "name": "tcRedeemFee",
      "outputs": [
        {
          "internalType": "uint256",
          "name": "",
          "type": "uint256"
        }
      ],
      "stateMutability": "view",
      "type": "function"
    },
    {
      "inputs": [],
      "name": "tcToken",
      "outputs": [
        {
          "internalType": "contract MocTC",
          "name": "",
          "type": "address"
        }
      ],
      "stateMutability": "view",
      "type": "function"
    },
    {
      "inputs": [
        {
          "internalType": "uint256",
          "name": "",
          "type": "uint256"
        }
      ],
      "name": "tpCtarg",
      "outputs": [
        {
          "internalType": "uint256",
          "name": "",
          "type": "uint256"
        }
      ],
      "stateMutability": "view",
      "type": "function"
    },
    {
      "inputs": [
        {
          "internalType": "uint256",
          "name": "",
          "type": "uint256"
        }
      ],
      "name": "tpEma",
      "outputs": [
        {
          "internalType": "uint256",
          "name": "ema",
          "type": "uint256"
        },
        {
          "internalType": "uint256",
          "name": "sf",
          "type": "uint256"
        }
      ],
      "stateMutability": "view",
      "type": "function"
    },
    {
      "inputs": [
        {
          "internalType": "uint256",
          "name": "",
          "type": "uint256"
        }
      ],
      "name": "tpLiqPrices",
      "outputs": [
        {
          "internalType": "uint256",
          "name": "",
          "type": "uint256"
        }
      ],
      "stateMutability": "view",
      "type": "function"
    },
    {
      "inputs": [
        {
          "internalType": "address",
          "name": "",
          "type": "address"
        }
      ],
      "name": "tpMintFees",
      "outputs": [
        {
          "internalType": "uint256",
          "name": "",
          "type": "uint256"
        }
      ],
      "stateMutability": "view",
      "type": "function"
    },
    {
      "inputs": [
        {
          "internalType": "address",
          "name": "",
          "type": "address"
        }
      ],
      "name": "tpRedeemFees",
      "outputs": [
        {
          "internalType": "uint256",
          "name": "",
          "type": "uint256"
        }
      ],
      "stateMutability": "view",
      "type": "function"
    },
    {
      "inputs": [
        {
          "internalType": "uint256",
          "name": "",
          "type": "uint256"
        }
      ],
      "name": "tpTokens",
      "outputs": [
        {
          "internalType": "contract IMocRC20",
          "name": "",
          "type": "address"
        }
      ],
      "stateMutability": "view",
      "type": "function"
    },
    {
      "inputs": [
        {
          "internalType": "address",
          "name": "owner_",
          "type": "address"
        },
        {
          "internalType": "uint256",
          "name": "qACToUnlock_",
          "type": "uint256"
        }
      ],
      "name": "unlockACInPending",
      "outputs": [],
      "stateMutability": "nonpayable",
      "type": "function"
    },
    {
      "inputs": [
        {
          "internalType": "address",
          "name": "owner_",
          "type": "address"
        },
        {
          "internalType": "uint256",
          "name": "qTCToUnlock_",
          "type": "uint256"
        }
      ],
      "name": "unlockTCInPending",
      "outputs": [],
      "stateMutability": "nonpayable",
      "type": "function"
    },
    {
      "inputs": [
        {
          "internalType": "address",
          "name": "owner_",
          "type": "address"
        },
        {
          "internalType": "contract IERC20Upgradeable",
          "name": "tpToken_",
          "type": "address"
        },
        {
          "internalType": "uint256",
          "name": "qTPToUnlock_",
          "type": "uint256"
        }
      ],
      "name": "unlockTPInPending",
      "outputs": [],
      "stateMutability": "nonpayable",
      "type": "function"
    },
    {
      "inputs": [],
      "name": "unpause",
      "outputs": [],
      "stateMutability": "nonpayable",
      "type": "function"
    },
    {
      "inputs": [],
      "name": "updateEmas",
      "outputs": [],
      "stateMutability": "nonpayable",
      "type": "function"
    },
    {
      "inputs": [
        {
          "internalType": "address",
          "name": "newImplementation",
          "type": "address"
        }
      ],
      "name": "upgradeTo",
      "outputs": [],
      "stateMutability": "nonpayable",
      "type": "function"
    },
    {
      "inputs": [
        {
          "internalType": "address",
          "name": "newImplementation",
          "type": "address"
        },
        {
          "internalType": "bytes",
          "name": "data",
          "type": "bytes"
        }
      ],
      "name": "upgradeToAndCall",
      "outputs": [],
      "stateMutability": "payable",
      "type": "function"
    }
  ],
  "bytecode": "0x60a08060405234620000e157306080526000549060ff8260081c166200008f575060ff8082160362000053575b604051615f849081620000e7823960805181818161264c015281816127bd01526131df0152f35b60ff90811916176000557f7f26b83ff96e1f2b6a682f133852f6798a09c465da95921460cefb3847402498602060405160ff8152a1386200002c565b62461bcd60e51b815260206004820152602760248201527f496e697469616c697a61626c653a20636f6e747261637420697320696e697469604482015266616c697a696e6760c81b6064820152608490fd5b600080fdfe60c0604052600436101561001257600080fd5b600060e0908035821c91826301dde6ef14613a8057826301f1b68414613a385782630579188f1461398f578263073763b91461396b5782630bb7f6081461394c5782630c340a24146139235782630c36d897146139045782630d6ac463146138be5782630db496561461389f5782630e0a8fd21461387b5782630f1e5e2b1461383557826313ed7ba51461380b57826315266e36146137ef57826317937f9b146137bc5782631867e2f51461379d5782631fb0dda0146137765782631fe6a7ad1461373c5782632069f75314613718578263235e81cf1461350c57826323b98cde146134e557826324ffaba3146134a757826325bc6c411461347d57826327eab2a1146134375782632a20d57d146134185782632b764fad146133fc5782632c43bd3b146133d85782632d88af4a146133815782632ded50f014613362578263333431fd1461334357826333421c381461325f57826334246862146132465782633659cfe6146131ad5782633915edcb1461317e578263391bf6cf1461302b5782633bc4ac0a146130075782633cfb09ef14612fc15782633dbc50a914612fa85782633f4ba83a14612f2d5782634017936a14612ee8578263407f0e3414612ec95782634310adc614612e9757826344719ee914612e61578263466b893414612e2b57826346e8fcbb146129c9578263471a80e314612998578263484ad7cd146129625782634af3a6fc146128de5782634b746001146128915782634d977e78146128725782634e1f907a146128485782634f0f27ee146128295782634f1ef286146127355782635210570c1461270f57826352d1902d1461263957826352e18f8f1461261f578263533a4bea146125cc57826353b16d1714612584578263543aeb48146125605782635860ee631461254157826358f32de9146124f05782635c616a73146122e65782635c975abb146122c05782635cfbe578146122a15782635ece17ef1461228557826360009e0b1461225b578263647846a51461223157826364ec230a1461220d578263662013f4146121f257826368274357146121c957826368f015df1461216e5782636b5488df1461214f5782636f30471f14612130578263707134681461210c578263735d3960146120c657826373e28af9146120a257826374873ad3146120865782637554fffd1461206757826376228055146120485782637750ba0c14612024578263791d7ddc14611f6957826379f9a91c14611f4a5782637a193c3114611f2b5782637a4ff1d914611f075782637a727fe814611ee85782637af5758c14611ec45782637b21b27414611ea85782637cba238314611e845782637d8e031414611e475782637f01c71514611e1d5782637f13b99814611de95782637f4a4fe014611dca578263826fcd5814611da9578263842d574814611d8f5782638456cb5914611cf857826385bf959314611cb2578263883d21cb14611be457826389fd503e14611bcb5782638acc201114611bb25782638cfa424114611b935782638e2bdb8614611b695782638f1a383a14611b425782639853c35a14611b1857826398b2086f14611aff5782639abb14c914611ae05782639ad6659d14611aab5782639bea71a414611a6b5782639cabfc0014611a1e5782639fd0506d146119f15782639fd8ed0e146119d8578263a8e9ac30146119b6578263aaf91eff1461199a578263aaf925f614611980578263ac0c88ab14611967578263ad4e666d1461172c578263aea038dc1461170d578263aeb41e69146116f1578263b4434c32146114d8578263b5e9ea8c146114ae578263b85edd6514611495578263b9fa641314611476578263bb4872de14611453578263bc4e55b214611309578263becaca6b146112e5578263bfe4262114611033578263c00f538d1461100f578263c039cc6914610fcf578263c09c30bd14610f86578263c239fca414610f6c578263c84353c914610f48578263cf351c1d14610f02578263d1a0faa014610ee9578263d6af11da14610eaf578263d76dc7fd14610e96578263d87aab6f14610e77578263d8c69aec14610cf1578263d8db6f5a14610cab578263db79607214610c6e578263ddb6d19014610c30578263de8d520a14610bff578263e23c135c14610bad578263e2c5e99014610b57578263e3867eeb14610b3a578263e401294514610b08578263e4c0aaf414610abe578263e6a683e014610a78578263e6b1627c14610a35578263e7c2597814610a11578263e8859a15146109f6578263ea302a97146109dc578263ee1f438f146109b2578263f13f405414610988578263f26114aa1461092357508163f280877814610900578163f2f9f456146108e7578163f30b5614146108c9578163f375cfba146108ab578163f88b143414610846578163fa6e83bd14610828578163fadda424146107b5578163fd80fa771461079b578163fda70f8b1461077a57508063fed0ade4146107615763ffe315391461072357600080fd5b606036600319011261075c576044356001600160a01b038116810361075c576107546020913360243560043561427d565b604051908152f35b600080fd5b6020610754610771366004613bd0565b9291909161427d565b34610798578060031936011261079857602061016e54604051908152f35b80fd5b6107546020916107ac366004613c93565b939290926147dc565b34610798576020366003190112610798576001600160a01b03600435818116810361075c576107f06107e86001926150b9565b610169613bf6565b500154166107fd8161513d565b9190911561081057602082604051908152f35b60249060405190637f6e4db960e01b82526004820152fd5b34610798578060031936011261079857602061016c54604051908152f35b34610798576020366003190112610798576004356001600160a01b038116810361075c5761075461089d60209261088661087e615d14565b9190926150b9565b916108a56108948484614db8565b51948593614dcc565b959094615c71565b906158c0565b34610798578060031936011261079857602061017354604051908152f35b34610798578060031936011261079857602061016354604051908152f35b60206107546108f7366004613c66565b929133926145da565b3461079857602036600319011261079857610919615e6b565b60043561016e5580f35b34610984573660031901126107985761093a615e6b565b6040516379308a5560e11b60208201526109809061096e81610960600460248301615bd9565b03601f198101835282613c12565b610226546001600160a01b0316615a66565b5080f35b5080fd5b5034610798578060031936011261079857610162546040516001600160a01b039091168152602090f35b5034610798578060031936011261079857610182546040516001600160a01b039091168152602090f35b6020610754836109ed366004613c93565b93929092614a5f565b50346107985780600319360112610798576020610754615c3a565b5034610798578060031936011261079857602060ff61017d54166040519015158152f35b503461079857602036600319011261079857600435906101be908154831015610798576040610a648484613bf6565b506001815491015482519182526020820152f35b5034610798576020366003190112610798576004356001600160a01b0381169081900361075c57610aa7615e6b565b61022680546001600160a01b031916909117905580f35b5034610798576020366003190112610798576004356001600160a01b0381169081900361098457610aed615e6b565b6bffffffffffffffffffffffff60a01b609754161760975580f35b50606036600319011261075c576044356001600160a01b038116810361075c57602091610754916024356004356144e7565b602061075483610b4b366004613cc5565b94939093929192614917565b5034610798576060366003190112610798576001600160a01b03600435818116810361075c57602435908282168203610ba957610b9d610ba69361025b54163314614be9565b60443591614d5a565b80f35b8380fd5b5034610798578060031936011261079857610bc730614202565b61016390610be4610bda835480936141df565b61025a54906141df565b80610bed578380f35b610bf69161436c565b90558180808380f35b50346107985780600319360112610798576020610754610c25610c206151a3565b614dcc565b9050610163546141df565b5034610798576020366003190112610798576004356001600160a01b0381169081900361075c57816040916020935261017783522054604051908152f35b346109845736600319011261079857610c85615e6b565b604051636dbcb03960e11b60208201526109809061096e81610960600460248301615bd9565b5034610798576020366003190112610798576004356001600160a01b0381169081900361075c57610cda615e6b565b61018280546001600160a01b031916909117905580f35b346109845736600319011261079857610d08614bc2565b5061025b546001600160a01b0390610d239082163314614be9565b610e10610d31366004614ce7565b91610d3a614bc2565b50610d43614d96565b610d4b615ef9565b610d8d610d7e60405163178aad2b60e11b6020820152610d7381610960308960248401615a88565b836102265416615a66565b60208082518301019101615a0b565b928685608083989495990151168660c08160a0850151169301511690610db1615aab565b865115610e535750610e0b90610e00670de0b6b3a7640000610dd861016d548a5190614edd565b04610163610de782825461436c565b9055610dfa8a6101785416918a516141df565b90615b02565b604087015190615b02565b615b02565b600161012f556004359280841680940361075c57608435908116810361075c57610e4f93610e4391876044350391614d5a565b60405194859485613b90565b0390f35b610e0b91610e6c89610178541660208a01519084615b23565b606088015191615b23565b5034610798578060031936011261079857602061018554604051908152f35b6020610754610ea6366004613d05565b93929092614763565b50346107985780600319360112610798576020610754610ecf60016151dd565b610ee3610edc8284614f10565b9183614e5a565b91615224565b5034610798578060031936011261079857610ba6615dd7565b5034610798576020366003190112610798576004356001600160a01b0381169081900361075c57610f31615e6b565b61016180546001600160a01b031916909117905580f35b503461079857602036600319011261079857610f62615e6b565b60043561017e5580f35b602061075483610f7d366004613c66565b92919091614763565b5060a0366003190112610798576001600160a01b039060043590828216820361075c57602435928316830361075c57602092610754923391608435916064359160443591614917565b50346107985780600319360112610798576020610754611002611009610ff6610c206151a3565b610163939193546141df565b91826141df565b90615f1a565b503461079857602036600319011261079857611029615e6b565b60043561016f5580f35b50346107985760a03660031901126107985761104d614bc2565b5061106460018060a01b0361025b54163314614be9565b61106f366004614c21565b611077614bc2565b50611080614d96565b611088615ef9565b611090615dd7565b6110a361109b615d14565b8192916153e1565b90916110b282848651936156fb565b8181106112c7575050670de0b6b3a7640000916110d46110da92855192615424565b90614edd565b049081156112b557604081018051608083015161016f5461111b959394926111109285916001600160a01b039182169116615458565b9391829691966141df565b936020830151808610611297575086835161016661113a8282546141df565b905561114a6101639485546141df565b8455610165546001600160a01b031690813b1561129357604051632770a7eb60e21b815230600482015260248101919091529882918a916044918391905af197881561128657869798969596611267575b5050516060830151608090930151610e4f95946112269490936001600160a01b03918216939092821691166111ce615aab565b865115611238575061121b610e0b92670de0b6b3a76400006111f561016d548a5190614edd565b049061120282825461436c565b9055610dfa60018060a01b0361017854169189516141df565b604086015190615b02565b600161012f5560405193849384613b29565b610178546020880151610e0b945091929161125c916001600160a01b031684615b23565b606087015191615b23565b8180939495965061127791613c12565b6107985790818694939261119b565b50604051903d90823e3d90fd5b8280fd5b60449086604051916354cde31360e01b835260048301526024820152fd5b60405163f3e39b5d60e01b8152600490fd5b604492506040519163a5db715d60e01b835260048301526024820152fd5b5034610798576020366003190112610798576112ff615e6b565b60043561016b5580f35b346109845736600319011261079857611320614bc2565b5061025b546001600160a01b039061133b9082163314614be9565b611346366004614ce7565b61134e614bc2565b50611357614d96565b61135f615ef9565b610e4f61141d611398610d7e60405163ab6dd71d60e01b602082015261138d81610960308960248401615a88565b866102265416615a66565b9391969092956060810151916113ae88846141df565b926113bd61025a9182546141df565b90558060c081608085015116930151166113d5615aab565b86511561142f57610e00610e0b92610dfa670de0b6b3a76400006113fe61016d548c5190614edd565b049161016361140e84825461436c565b90556101785416918a516141df565b600161012f5560405194859485613b90565b611447610e0b92610178541660208901519085615b23565b60608701519083615b23565b5034610798578060031936011261079857602060ff60ca54166040519015158152f35b5034610798578060031936011261079857602061018b54604051908152f35b6020610754836114a6366004613b67565b913393614ae0565b5034610798578060031936011261079857610183546040516001600160a01b039091168152602090f35b50346107985760c0366003190112610798576114f2614bc2565b5061025b546001600160a01b03919061150e9083163314614be9565b611519366004614c7e565b91611522614bc2565b5061152b614d96565b611533615ef9565b61153b615dd7565b611591611546615d14565b949092611555818351166150b9565b936115756115638689614db8565b519761156f8988615861565b826153e1565b60208596929601958987519461158b828b615c71565b906158b6565b8181106116d35750506115a86115e2968451615f1a565b91606081019180835116916115d760a08201938684865116858551168c5261017660205260408c205492615458565b9791879b919b61436c565b9860408301908151808c116116b557508a156112b557610e4f99888695866080819761161461161f976112269f615951565b519201511692615797565b519461162b8a876141df565b9561163a61025a9182546141df565b90555116925116611649615aab565b8551156116915761121b610e0b92610dfa670de0b6b3a764000061167261016d548b5190614edd565b049161016361168284825461436c565b905561017854169189516141df565b6116a9610e0b92610178541660208801519085615b23565b60608601519083615b23565b6044908c60405191630b63f1a760e01b835260048301526024820152fd5b604492506040519163c39b739f60e01b835260048301526024820152fd5b6020610754611701366004613c93565b939291909133936147dc565b5034610798578060031936011261079857602061016f54604051908152f35b50346107985760c036600319011261079857611746614bc2565b5061180960018060a01b036117618161025b54163314614be9565b61176c366004614c7e565b90611775614bc2565b5061177e614d96565b611786615ef9565b61178e6151a3565b9161179b828251166150b9565b916117be6117a98486614db8565b51946117b58686615861565b61017b546153e1565b50506117cf60208301948551615f1a565b91606081019282845116936117fe60a08401958386885116878751168d5261017760205260408d205492615458565b9791849a919a6141df565b9783156112b5576040850151808a10611949575090856118638c9361182f60018d615951565b519261183d81610169613bf6565b506118498582546141df565b90556118596101639788546141df565b8755610167613aa4565b90549060031b1c1690813b1561129357604051632770a7eb60e21b815230600482015260248101919091529a82918c916044918391905af1998a156112865788999a989798611926575b505091839182806080610e4f9a99976112269997511694015116945116916118d3615aab565b87511561190b575061121b90610dfa610e0b94670de0b6b3a76400006118fe61016d548c5190614edd565b049261168284825461436c565b91905061125c610e0b93610178541660208901519084615b23565b81809394959697985061193891613c12565b6107985790818896959493926118ad565b6044908a604051916354cde31360e01b835260048301526024820152fd5b602061075483611978366004613b67565b913393614a5f565b602061075483611991366004613c66565b929190916145da565b60206107546119aa366004613c93565b93929190913393614ae0565b503461079857806003193601126107985760206101bf54431015604051908152f35b60206107546119e8366004613d05565b939290926145da565b503461079857806003193601126107985760ca5460405160109190911c6001600160a01b03168152602090f35b5034610798576020366003190112610798576004356001600160a01b0381169081900361075c57604082819281526101686020522060ff6001825492015416825191825215156020820152f35b5034610798576040366003190112610798576001600160a01b03600435818116810361075c57602435918216820361075c57602091610754913390615b46565b50346107985780600319360112610798576020611ad2611acc610c206151a3565b90614f81565b61017c541015604051908152f35b50604036600319011261075c57610754602091336024356004356144e7565b6020610754611b0f366004613c66565b92913392614763565b5034610798578060031936011261079857610178546040516001600160a01b039091168152602090f35b50346107985780600319360112610798576020611b60610c206151a3565b50604051908152f35b5034610798578060031936011261079857610188546040516001600160a01b039091168152602090f35b5034610798578060031936011261079857602061017c54604051908152f35b6020610754611bc2366004613c66565b92913392614694565b6020610754611bdb366004613d05565b93929092614694565b50346107985760c036600319011261079857611bfe614bc2565b5061025b546001600160a01b0390611c199082163314614be9565b611c24366004614c7e565b611c2c614bc2565b50611c35614d96565b611c3d615ef9565b610e4f61141d611c75610d7e604051637225da8960e11b6020820152611c66602482018761464f565b60c4815261138d60e482613c12565b939196909295604081015191611c8b88846141df565b92611c9a61025a9182546141df565b90558060a081606085015116930151166113d5615aab565b5034610798576020366003190112610798576004356001600160a01b0381169081900361075c57611ce1615e6b565b61018380546001600160a01b031916909117905580f35b5034610798578060031936011261079857611d11615ef9565b60ca54601081901c6001600160a01b03163303611d7d5760ff811615611d6b576101009061ff0019161760ca557f62e78cea01bee320cd4e420270b5ea74000d11b0c9f74754ebdbfc544b05a2586020604051338152a180f35b60405163866099c360e01b8152600490fd5b604051631d77d47760e21b8152600490fd5b602061075483611da0366004613c93565b93929092614ae0565b50346107985780600319360112610798576020610754611acc610c206151a3565b5034610798578060031936011261079857602061018a54604051908152f35b50346107985780600319360112610798576020610754611e0960016151dd565b610ee3611e168284614e5a565b9183614f10565b50346107985780600319360112610798576101f3546040516001600160a01b039091168152602090f35b5034610798576020366003190112610798576004359061017a908154831015610798576020611e768484613aa4565b90546040519160031b1c8152f35b503461079857602036600319011261079857611e9e615e6b565b60043561017b5580f35b6020610754611eb8366004613cc5565b94939290923394614917565b503461079857602036600319011261079857611ede615e6b565b6004356101725580f35b503461079857806003193601126107985760206101c054604051908152f35b503461079857602036600319011261079857611f21615e6b565b6004356101735580f35b5034610798578060031936011261079857602061016654604051908152f35b5034610798578060031936011261079857602061017454604051908152f35b50346107985760a036600319011261079857611f83615e6b565b6101668054801580159061200e575b611ffc5782611fc09161016393611fb9611faf600435875461436c565b926024359061436c565b905561436c565b8155611fce82610169613bf6565b50611fdc604435825461436c565b9055611fe982825461436c565b90556064356101bf5560843561018b5580f35b604051636ed93c2760e01b8152600490fd5b5061201b83610169613bf6565b50541515611f92565b50346107985760203660031901126107985761203e615e6b565b60043561016d5580f35b5034610798578060031936011261079857602061018654604051908152f35b5034610798578060031936011261079857602061016b54604051908152f35b6020610754612096366004613c93565b93929190913393614a5f565b5034610798576020366003190112610798576120bc615e6b565b6004356101845580f35b5034610798576020366003190112610798576004356001600160a01b0381169081900361075c576120f5615e6b565b61018880546001600160a01b031916909117905580f35b503461079857602036600319011261079857612126615e6b565b6004356101705580f35b5034610798578060031936011261079857602061018454604051908152f35b5034610798578060031936011261079857602061017b54604051908152f35b366003190112610798576004356001600160a01b03808216820361075c5760243590808216820361075c5760a435818116810361075c5760c435918216820361075c5760209361075493608435916064359160443591614917565b50346107985780600319360112610798576121e2615e6b565b600160ff1960ca54161760ca5580f35b50346107985780600319360112610798576020611b60615d14565b503461079857602036600319011261079857612227615e6b565b6004356101895580f35b5034610798578060031936011261079857610161546040516001600160a01b039091168152602090f35b5034610798578060031936011261079857610165546040516001600160a01b039091168152602090f35b6020610754612295366004613ae6565b949390939291926147dc565b5034610798578060031936011261079857602061025a54604051908152f35b5034610798578060031936011261079857602060ff60ca5460081c166040519015158152f35b50346107985780600319360112610798576122ff615ef9565b61017f805443106124de5761017e54430190557fd3c59bda47e141a8ec5a33d241b7f71b86e30d359f83a9227d912858b60404fc8180a161233e615aab565b806101695461234c81614fb7565b90835b818110612413575050816123cc575b604051916040830190835260209060408285015282518091528160608501930191855b8281106123b857867fae5116a8119d08673a0f1dfa7546b95da4bd54bb17feda7c61130ac7859152f687870388a1600161012f5580f35b835185529381019392810192600101612381565b906123e4670de0b6b3a76400009161016b5490614edd565b04906101636123f48382546141df565b90556101785461240e9083906001600160a01b0316615b02565b61235e565b61241c816150f4565b6124268183615861565b85610180916124358484613aa4565b90549060031b1c90828213612451575b5050505060010161234f565b8461249583600197969a61247e6124846124b29761249b97670de0b6b3a764000093849161016c54614edd565b04614edd565b0461248f858d614db8565b5261436c565b98613aa4565b819391549060031b91821b91600019901b19161790565b90556124d56124c18286614db8565b5187848060a01b0361017954169184615797565b90858780612445565b60405163101b685960e01b8152600490fd5b5034610798576040366003190112610798576004356001600160a01b03808216820361075c57610ba6916024359161252e8161025b54163314614be9565b61025a8381540390556102595416614d5a565b5034610798578060031936011261079857602061018754604051908152f35b50346107985760203660031901126107985761257a615e6b565b6004356101755580f35b5034610798576040366003190112610798576004356001600160a01b03808216820361075c57610ba6916125be8261025b54163314614be9565b602435916101655416614d5a565b5034610798576020366003190112610798576004356001600160a01b038116810361075c57610ba6906125fd615e6b565b6101f380546001600160a01b0319166001600160a01b03909216919091179055565b602061075483612630366004613c66565b92919091614694565b50346107985780600319360112610798577f00000000000000000000000000000000000000000000000000000000000000006001600160a01b031630036126a45760206040517f360894a13ba1a3210667c828492db98dca3e2076cc3735a920a3ca505d382bbc8152f35b60405162461bcd60e51b815260206004820152603860248201527f555550535570677261646561626c653a206d757374206e6f742062652063616c60448201527f6c6564207468726f7567682064656c656761746563616c6c00000000000000006064820152608490fd5b5034610798578060031936011261079857612728615e6b565b60ff1960ca541660ca5580f35b506040366003190112610798576001600160a01b03600435818116810361075c5782916024359167ffffffffffffffff8311612824573660238401121561282457826004013561278481613c4a565b926127926040519485613c12565b818452366024838701011161282057610ba695602083612813946024600199018389013786010152807f000000000000000000000000000000000000000000000000000000000000000016906127ea82301415613d37565b7f360894a13ba1a3210667c828492db98dca3e2076cc3735a920a3ca505d382bbc541614613d98565b61281b615e6b565b613df9565b8580fd5b505050fd5b5034610798578060031936011261079857602061016d54604051908152f35b5034610798578060031936011261079857610179546040516001600160a01b039091168152602090f35b5034610798578060031936011261079857602061017e54604051908152f35b503461079857602036600319011261079857600435906101699081548310156107985760406128c08484613bf6565b50805460019091015482519182526001600160a01b03166020820152f35b3461098457366003190112610798576128f5614bc2565b5061025b546001600160a01b03906129109082163314614be9565b61291b366004614ce7565b612923614bc2565b5061292c614d96565b612934615ef9565b610e4f61141d611398610d7e60405163474c3add60e11b602082015261138d81610960308960248401615a88565b50606036600319011261075c576004356001600160a01b038116810361075c5760209161075491339060443590602435906145da565b606036600319011261075c576044356001600160a01b038116810361075c57610754602091336024356004356144e7565b50346107985761040036600319011261079857805460ff8160081c161590818092612e1e575b8015612e07575b15612dab5760ff198116600117835581612d9a575b506001600160a01b0360808190526103c4359081169081900361075c576bffffffffffffffffffffffff60a01b908160a0526102599182541617905560ff825460081c16612a5881615381565b610364356080519081811680910361075c5760a0519061022691825416179055610324359080821680920361075c5761034435908116810361075c57600191612aa084615381565b612aa984615381565b612ab284615381565b612abb84615381565b60a0516097541617609755612acf83615381565b60ca5490620100008360b01b039060101b169061ff018360b01b031916171760ca55612afa81615381565b60a435670de0b6b3a76400008110612d885760e43590612b1982615f3e565b61010435612b2681615f3e565b6101243590612b3482615f3e565b6101443591612b4283615f3e565b6101643592612b5084615f3e565b610184938435612b5f81615f3e565b6101a43590612b6d82615f3e565b6101c43592612b7b84615f3e565b6101e43594612b8986615f3e565b61020435966102243598612ba5612ba08b8b61436c565b615f3e565b6004359c8d9c6080519e8f16809e0361075c578e60a0519e8f906101619182541617905560243590811680910361075c578f908f906101629182541617905560443590811680910361075c578f908f906101659182541617905560643590811680910361075c578f908f906101789182541617905560843590811680910361075c578e906101799182541617905561017b5560c43561017c5561016d5561016e5561016f5561017055610171556101725561017355610174556101755561016b5561016c5561024435918261017e556102643584811680910361075c57610188908282541617905561028435610189556102a435938461018a556102c43581811680910361075c5761018290838254161790556102e43590811680910361075c57610183918254161790556103043590554361018755430161017f55430161018b5561017d61ffff19815416905561038435612d0082615381565b8015612d8857806101c05543016101bf556103a4356080518116810361075c576125fd612d2c92615381565b6103e435608051811680910361075c5760a0519061025b91825416179055612d515780f35b61ff001981541681557f7f26b83ff96e1f2b6a682f133852f6798a09c465da95921460cefb3847402498602060405160018152a180f35b604051632a9ffab760e21b8152600490fd5b61ffff191661010117825582612a0b565b60405162461bcd60e51b815260206004820152602e60248201527f496e697469616c697a61626c653a20636f6e747261637420697320616c72656160448201526d191e481a5b9a5d1a585b1a5e995960921b6064820152608490fd5b50303b1580156129f65750600160ff8216146129f6565b50600160ff8216106129ef565b50606036600319011261075c576004356001600160a01b038116810361075c576020916107549133906044359060243590614694565b50606036600319011261075c576004356001600160a01b038116810361075c576020916107549133906044359060243590614763565b50606036600319011261075c576044356001600160a01b038116810361075c576020916107549160243560043561427d565b5034610798578060031936011261079857602061017054604051908152f35b50346107985780600319360112610798576020610754612f17612f27612f21612f0f615d14565b939093614dcc565b8181939295615760565b92615424565b90615745565b503461079857806003193601126107985760ca5460ff8160081c1615612f9657601081901c6001600160a01b03163303611d7d5761ff00191660ca557f5db9ee0a495bf2e6ff9c91a7834c1ba4fdd244a5e8aa4e537bd38aeae4b073aa6020604051338152a180f35b604051637c7fd07960e01b8152600490fd5b6020610754612fb8366004613bd0565b929190916144e7565b5034610798576020366003190112610798576004356001600160a01b0381169081900361075c57612ff0615e6b565b61025b80546001600160a01b031916909117905580f35b503461079857602036600319011261079857613021615e6b565b6004356101c05580f35b90346107985761010090816003193601126107985750613049614bc2565b5061025b546001600160a01b0392906130659084163314614be9565b6130726040519283613c12565b600435838116810361075c578252602435838116810361075c576020830152604435604083015260643560608301526080820191608435835260a43592848416840361075c5760a0820193845260c435858116810361075c5760c083015260e43592858416840361075c578594610e4f9461314d610d7e8661141d958a98019384526130fc614bc2565b50613105614d96565b61310d615ef9565b604051631740b6e360e11b60208201529061312c906024830190614a03565b6101243081830152815261314261014482613c12565b876102265416615a66565b979299919a909651946131608b876141df565b9561316f61025a9182546141df565b905551169251166113d5615aab565b5034610798576020366003190112610798576004359061016a908154831015610798576020611e768484613aa4565b5034610798576020366003190112610798576004356001600160a01b03808216820361075c57610ba69161320c8285937f000000000000000000000000000000000000000000000000000000000000000016906127ea82301415613d37565b613214615e6b565b61321d82613c4a565b9061322b6040519283613c12565b828252601f1961323a84613c4a565b01366020840137613df9565b602061075483613257366004613b67565b9133936147dc565b5034610798578060031936011261079857613278615ef9565b61017d805460ff811680613335575b8061331b575b613295578280f35b61ff0019166101001790556040517f8b77276c97a5709f0d6db52329848a254eb760ce8be80d281799f633bdb69e838280a16101655482906001600160a01b0316803b156109845782600481848094638456cb5960e01b83525af180156112865761330b575b5050613305614fe9565b81808280f35b61331491613c12565b81816132fb565b5061332a611acc610c206151a3565b61017c54101561328d565b5060ff8160081c1615613287565b5034610798578060031936011261079857602061017154604051908152f35b5034610798578060031936011261079857602061017554604051908152f35b5034610798576020366003190112610798576004356001600160a01b0381168103610984576133ae615e6b565b60ca805462010000600160b01b03191660109290921b62010000600160b01b031691909117905580f35b5034610798576020366003190112610798576133f2615e6b565b60043561017c5580f35b602061075461340c366004613ae6565b94939093929192614ae0565b5034610798578060031936011261079857602061017254604051908152f35b5034610798576020366003190112610798576004356001600160a01b0381169081900361098457613466615e6b565b61017980546001600160a01b031916909117905580f35b5034610798578060031936011261079857610259546040516001600160a01b039091168152602090f35b5034610798576020366003190112610798576004356001600160a01b0381169081900361098457816040916020935261017683522054604051908152f35b5034610798578060031936011261079857602060ff61017d5460081c166040519015158152f35b50346107985760a0366003190112610798576135bc9061352a614bc2565b5061025b546001600160a01b03906135459082163314614be9565b613550366004614c21565b613558614bc2565b50613561614d96565b613569615ef9565b6135746117b56151a3565b929061358f83516110d4670de0b6b3a7640000968794615424565b04604083019282845116926135b16080830194848387511661016e5492615458565b9791859a919a61436c565b97602093848101918251808c116116b557508a156112b557858286606061363e9551920151166101666135f083825461436c565b90556136006101639a8b5461436c565b8a55610165546040516340c10f1960e01b81526001600160a01b03909216600483015260248201929092529384918816908290859082906044820190565b03925af18015611286576136c8575b5050916112269593918180610e4f9a999795519761366b8d8a6141df565b9861367a61025a9182546141df565b905551169551169261368a615aab565b8851156136ad575092610dfa61121b92610e0b956118fe61016d548c5190614edd565b9050610e0b93506116a9916101785416908801519085615b23565b8582813d8311613711575b6136dd8183613c12565b810103126107985750918380610e4f9a999795936136ff6112269a98966143e8565b5093509496989950819395975061364d565b503d6136d3565b503461079857602036600319011261079857613732615e6b565b6004356101745580f35b50346107985760203660031901126107985760043580151580910361098457613763615e6b565b61017d9060ff8019835416911617905580f35b50346107985780600319360112610798576020610754613797610c206151a3565b90615424565b5034610798578060031936011261079857602061017f54604051908152f35b503461079857602036600319011261079857600435906001600160a01b0382168203610798576020610754338085615b46565b60206107546137ff366004613ae6565b94939093929192614a5f565b503461079857806003193601126107985761025b546040516001600160a01b039091168152602090f35b5034610798576020366003190112610798576004356001600160a01b0381169081900361098457613864615e6b565b61016280546001600160a01b031916909117905580f35b503461079857602036600319011261079857613895615e6b565b6004356101715580f35b5034610798578060031936011261079857602061018954604051908152f35b5034610798576020366003190112610798576004356001600160a01b03811690819003610984576138ed615e6b565b61017880546001600160a01b031916909117905580f35b503461079857806003193601126107985760206101bf54604051908152f35b50346107985780600319360112610798576097546040516001600160a01b039091168152602090f35b506040366003190112610798576107546020913360243560043561427d565b503461079857602036600319011261079857613985615e6b565b60043561018a5580f35b50346107985780600319360112610798576139a8615ef9565b6139b0615aab565b61018b80544310613a265761018a5443019055613a1d670de0b6b3a76400006139e0610163546101895490614edd565b047f0e37fda283839477a1b77e29acf8336c0e13a5daa967913df0fe5ad258c0822f6020604051838152a1610188546001600160a01b0316615b02565b600161012f5580f35b60405163acce20e560e01b8152600490fd5b50346107985760203660031901126107985760043590610167908154831015610798576020613a678484613aa4565b905460405160039290921b1c6001600160a01b03168152f35b503461079857602036600319011261079857613a9a615e6b565b60043561016c5580f35b8054821015613abc5760005260206000200190600090565b634e487b7160e01b600052603260045260246000fd5b35906001600160a01b038216820361075c57565b91908260c091031261075c57613afb82613ad2565b91602081013591604082013591606081013591613b2660a0613b1f60808501613ad2565b9301613ad2565b90565b604090613b65939594929560c0820196825260208201520190606080918051845260208101516020850152604081015160408501520151910152565b565b919082608091031261075c57613b7c82613ad2565b916020810135916060604083013592013590565b613b659360609296959360e08301978352602083015260408201520190606080918051845260208101516020850152604081015160408501520151910152565b919082608091031261075c57813591602081013591613b266060613b1f60408501613ad2565b8054821015613abc5760005260206000209060011b0190600090565b90601f8019910116810190811067ffffffffffffffff821117613c3457604052565b634e487b7160e01b600052604160045260246000fd5b67ffffffffffffffff8111613c3457601f01601f191660200190565b919082608091031261075c57613c7b82613ad2565b91602081013591613b26606060408401359301613ad2565b908160a091031261075c57613ca781613ad2565b91602082013591604081013591613b26608060608401359301613ad2565b91908260c091031261075c57613cda82613ad2565b91613ce760208201613ad2565b91604082013591606081013591613b2660a060808401359301613ad2565b908160a091031261075c57613d1981613ad2565b91602082013591604081013591613b266080613b1f60608501613ad2565b15613d3e57565b60405162461bcd60e51b815260206004820152602c60248201527f46756e6374696f6e206d7573742062652063616c6c6564207468726f7567682060448201526b19195b1959d85d1958d85b1b60a21b6064820152608490fd5b15613d9f57565b60405162461bcd60e51b815260206004820152602c60248201527f46756e6374696f6e206d7573742062652063616c6c6564207468726f7567682060448201526b6163746976652070726f787960a01b6064820152608490fd5b9060ff7f4910fdfa16fed3260ed0e7147f7cc6da11a60208b5b9406d12a635614ffd91435416600014613e315750613b659150613fe5565b6040516352d1902d60e01b8152602093919291906001600160a01b038316908581600481855afa60009181613fb6575b50613ec25760405162461bcd60e51b815260048101879052602e60248201527f45524331393637557067726164653a206e657720696d706c656d656e7461746960448201526d6f6e206973206e6f74205555505360901b6064820152608490fd5b9394937fc9f76b5ec45e5cdef99837d7b6d2467235c1df8933c8ca56df5c35afa2c7d44401613f5f57613ef483613fe5565b7fbc7cd75a20ee27fd9adebab32041f755214dbc6bffa90cc0225b39da2e5c2d3b600080a283511590811591613f57575b50613f2f57505050565b600080613f5494613f3e614087565b9481519101845af4613f4e6140db565b9161410b565b50565b905038613f25565b60405162461bcd60e51b815260048101859052602960248201527f45524331393637557067726164653a20756e737570706f727465642070726f786044820152681a58589b195555525160ba1b6064820152608490fd5b90918782813d8311613fde575b613fcd8183613c12565b810103126107985750519038613e61565b503d613fc3565b803b1561402c577f360894a13ba1a3210667c828492db98dca3e2076cc3735a920a3ca505d382bbc80546001600160a01b0319166001600160a01b03909216919091179055565b60405162461bcd60e51b815260206004820152602d60248201527f455243313936373a206e657720696d706c656d656e746174696f6e206973206e60448201526c1bdd08184818dbdb9d1c9858dd609a1b6064820152608490fd5b6140916027613c4a565b9061409f6040519283613c12565b60278252660819985a5b195960ca1b6040837f416464726573733a206c6f772d6c6576656c2064656c65676174652063616c6c60208201520152565b3d15614106573d906140ec82613c4a565b916140fa6040519384613c12565b82523d6000602084013e565b606090565b9192901561416d575081511561411f575090565b3b156141285790565b60405162461bcd60e51b815260206004820152601d60248201527f416464726573733a2063616c6c20746f206e6f6e2d636f6e74726163740000006044820152606490fd5b8251909150156141805750805190602001fd5b6040519062461bcd60e51b82528160208060048301528251908160248401526000935b8285106141c6575050604492506000838284010152601f80199101168101030190fd5b84810182015186860160440152938101938593506141a3565b919082039182116141ec57565b634e487b7160e01b600052601160045260246000fd5b610259546040516370a0823160e01b81526001600160a01b0392831660048201529160209183916024918391165afa90811561427157600091614243575090565b906020823d8211614269575b8161425c60209383613c12565b8101031261079857505190565b3d915061424f565b6040513d6000823e3d90fd5b9260a461431a9160209394614290614d96565b614298615ef9565b604051966142a760a089613c12565b87528487018690523360408089019182526001600160a01b0392831660608a0190815293831660808a0190815261025b54915163e97a4d6360e01b81528a5160048201526020909a015160248b01529151831660448a015292518216606489015251811660848801528693849290911690565b34905af191821561427157600092614337575b50613b2690614379565b90916020823d8211614364575b8161435160209383613c12565b8101031261079857505190613b2661432d565b3d9150614344565b919082018092116141ec57565b613b659061025a61438b82825461436c565b905561025954309033906001600160a01b03165b6040516323b872dd60e01b60208201526001600160a01b039283166024820152929091166044830152606480830193909352918152613b65916143e3608483613c12565b6143f5565b5190811515820361075c57565b602091614458916001600160a01b031660008061441186613c4a565b9361441f6040519586613c12565b8685527f5361666545524332303a206c6f772d6c6576656c2063616c6c206661696c656487860152868151910182855af1613f4e6140db565b80518281159182156144c8575b50509050156144715750565b6084906040519062461bcd60e51b82526004820152602a60248201527f5361666545524332303a204552433230206f7065726174696f6e20646964206e6044820152691bdd081cdd58d8d9595960b21b6064820152fd5b838092935001031261075c57816144df91016143e8565b808238614465565b919290926144f3614d96565b6144fb615ef9565b6040519361450a60a086613c12565b83855260208086019182523360408088019182526001600160a01b03948516606089019081529585166080890190815261025b54915163fa91a9a560e01b8152985160048a0152935160248901529051841660448801529351831660648701529051821660848601529091849060a4908290851634905af1928315614271576000936145a5575b5090613b269161016554163090339061439f565b90926020823d82116145d2575b816145bf60209383613c12565b8101031261079857505191613b26614591565b3d91506145b2565b936020929361431a9260c4926145ee614d96565b6145f6615ef9565b6040519761460560c08a613c12565b60018060a01b03938493848093168b52888b01528860408b01523360608b01521660808901521660a087015261025b5416946040519586938492637e81a82160e01b845260048401905b60a09081600180821b03918281511685526020810151602086015260408101516040860152826060820151166060860152826080820151166080860152015116910152565b60c46020929461470c926146a6614d96565b6146ae615ef9565b604051976146bd60c08a613c12565b60018060a01b0380938180941698898c528a898d015260408c01523360608c01521660808a01521660a088015261025b5416956040519687938492636426c5db60e11b8452600484019061464f565b34905af19283156142715760009361472e575b5090613b26913090339061439f565b90926020823d821161475b575b8161474860209383613c12565b8101031261079857505191613b2661471f565b3d915061473b565b936020929361431a9260c492614777614d96565b61477f615ef9565b6040519761478e60c08a613c12565b60018060a01b03938493848093168b52888b01528860408b01523360608b01521660808901521660a087015261025b54169460405195869384926323ec24b560e11b8452600484019061464f565b939091936147e8614d96565b6147f0615ef9565b604051956147ff60e088613c12565b60018060a01b0380938180941696878a528660208b01528860408b015260608a01523360808a01521660a08801521660c0860152602061485d60e48361025b541697604051988993849263e4e1b72960e01b845260048401906148c7565b34905af194851561427157600095614892575b50613b269392916148899161016554163090339061439f565b3090339061439f565b90946020823d82116148bf575b816148ac60209383613c12565b8101031261079857505193613b26614870565b3d915061489f565b60c0908160018060a01b03918281511685526020810151602086015260408101516040860152606081015160608601528260808201511660808601528260a08201511660a0860152015116910152565b60406149a3929460209496979861010493614930614d96565b614938615ef9565b83519a8b9361494961010086613c12565b8a60018060a01b0396879687808097169d8e8352168c820152015260608d01528a60808d01523360a08d01521660c08b01521660e089015261025b54169660405197889384926334975a4160e01b84526004840190614a03565b34905af1938415614271576000946149ce575b50613b2692916149c9913090339061439f565b614379565b90936020823d82116149fb575b816149e860209383613c12565b8101031261079857505192613b266149b6565b3d91506149db565b60e0908160018060a01b03918281511685528260208201511660208601526040810151604086015260608101516060860152608081015160808601528260a08201511660a08601528260c08201511660c0860152015116910152565b60e482602080949697986149a394614a75614d96565b614a7d615ef9565b6040519a8b98614a8e60e08b613c12565b60018060a01b03958695868095169b8c8152015260408d01528a60608d01523360808d01521660a08b01521660c089015261025b54169660405197889384926263744760e11b845260048401906148c7565b949391909293614aee614d96565b614af6615ef9565b60405195614b0560e088613c12565b60018060a01b039384938480931689528660208a015260408901528660608901523360808901521660a08701521660c08501526020614b6260e48361025b5416966040519788938492636b59c22f60e01b845260048401906148c7565b34905af193841561427157600094614b8d575b50613b2692916149c99161016554163090339061439f565b90936020823d8211614bba575b81614ba760209383613c12565b8101031261079857505192613b26614b75565b3d9150614b9a565b60405190614bd1608083613c12565b60006060838281528260208201528260408201520152565b15614bf057565b60405162461bcd60e51b81526020600482015260096024820152684e4f5420717565756560b81b6044820152606490fd5b91908260a091031261075c57604051614c3b60a082613c12565b6080614c798183958035855260208101356020860152614c5d60408201613ad2565b6040860152614c6e60608201613ad2565b606086015201613ad2565b910152565b91908260c091031261075c57604051614c9860c082613c12565b60a0614c79818395614ca981613ad2565b85526020810135602086015260408101356040860152614ccb60608201613ad2565b6060860152614cdc60808201613ad2565b608086015201613ad2565b91908260e091031261075c57604051614d0160e082613c12565b60c0614c79818395614d1281613ad2565b8552602081013560208601526040810135604086015260608101356060860152614d3e60808201613ad2565b6080860152614d4f60a08201613ad2565b60a086015201613ad2565b60405163a9059cbb60e01b60208201526001600160a01b03929092166024830152604480830193909352918152613b65916143e3606483613c12565b60ff61017d5460081c16614da657565b604051631ca61d7760e01b8152600490fd5b8051821015613abc5760209160051b010190565b906000916000906101698054906000925b828410614e035750505050614dff670de0b6b3a76400009161016b5490614edd565b0490565b9091929395614e50614e3f614e4a600193614e44614e218a88614db8565b51614e2c818c614e76565b9590614e388d8c613bf6565b505461436c565b615f1a565b9061436c565b9861436c565b9401929190614ddd565b919091600083820193841291129080158216911516176141ec57565b9190600090614ea481600095614e9a614e9182610180613aa4565b93905492614f29565b9160031b1c614e5a565b60008113614eb3575b50509190565b614ed591945061247e92508094670de0b6b3a764000093849161016c54614edd565b043880614ead565b818102929181159184041417156141ec57565b8115614efa570490565b634e487b7160e01b600052601260045260246000fd5b818103929160001380158285131691841216176141ec57565b614f3581610169613bf6565b505490670de0b6b3a7640000918281029281840414901517156141ec57613b2692614f75614f68614f7b93610181613aa4565b90549060031b1c84614ef0565b92614ef0565b90614f10565b8015614f9757614e3f613b2692610163546141df565b505060001990565b67ffffffffffffffff8111613c345760051b60200190565b90614fc182614f9f565b614fce6040519182613c12565b8281528092614fdf601f1991614f9f565b0190602036910137565b610163548015613f54576101699081549160009061500684614fb7565b9082905b85821061507557505060005b848110615024575050505050565b6150418461503c856150368587614db8565b51614edd565b614ef0565b9061016a91825468010000000000000000811015613c345761249b816001958661506d94018155613aa4565b905501615016565b90926150b1600191615086866150f4565b6150908787614db8565b52614e4461509e8786613bf6565b50546150aa8888614db8565b5190615f1a565b93019061500a565b6001600160a01b0316600090815261016860205260409020600181015460ff16156150e2575490565b60405163e6c4247b60e01b8152600490fd5b61510090610169613bf6565b50600101546001600160a01b03166151178161513d565b91909115610810575090565b919082604091031261075c57613b266020835193016143e8565b604080516359e02dd760e01b81529291839060049082906001600160a01b03165afa91821561427157600090819361517457509190565b905061519891925060403d811161519c575b6151908183613c12565b810190615123565b9091565b503d615186565b61016954906151b182614fb7565b9160005b8181106151c0575050565b806151cc6001926150f4565b6151d68287614db8565b52016151b5565b906151fe670de0b6b3a7640000928361018754610184549243010302614ef0565b8281101561521b5782039180836101855402049261018654020590565b50600091508190565b909161522e615286565b92908082101561527c578391615243916141df565b931115615277578181101561526f5761525b916141df565b60011c8082101561526a575090565b905090565b505050600090565b505090565b5050505050600090565b61018254604080516359e02dd760e01b80825293929091906001600160a01b039081168284600481845afa8015615376576000948591615353575b501561533c575061018354169080519485528085600481855afa801561533157600095869161530e575b50156152f75750509190565b6024925051906305e8989360e11b82526004820152fd5b9050816153289296503d871161519c576151908183613c12565b949094386152eb565b50513d6000823e3d90fd5b6024908351906305e8989360e11b82526004820152fd5b905061536d919450833d851161519c576151908183613c12565b939093386152c1565b83513d6000823e3d90fd5b1561538857565b60405162461bcd60e51b815260206004820152602b60248201527f496e697469616c697a61626c653a20636f6e7472616374206973206e6f74206960448201526a6e697469616c697a696e6760a81b6064820152608490fd5b91906153ec90614dcc565b9190926153f98385614f81565b9080821115615406575050565b6044925060405191637912120160e01b835260048301526024820152fd5b906101665490811561544957613b2692615444614e3f92610163546141df565b6141df565b505050670de0b6b3a764000090565b92909391600091600091829661546c614bc2565b966001600160a01b03918590831680615678575b508261016154168360405193636eb1769f60e11b8552168060048501523060248501526020948585604481865afa94851561566d57849561563e575b508461551d575b5050505050860151156154d9575b505050929190565b909192506154f1670de0b6b3a7640000928392614edd565b048085529082156155155761550d92049081604086015261436c565b3880806154d1565b50905061550d565b61552b90610162541661513d565b929092156154c357909192939b50848b61556585670de0b6b3a764000061555f6155558d8d614edd565b6101755490614edd565b04614ef0565b81830181815295908b156156345750615590916155846060928d614ef0565b9182910152855161436c565b809d5b109283156155bf575b5050506155ac575b8080806154c3565b81929950528060608801529638806155a4565b909192506024604051809481936370a0823160e01b835260048301525afa90811561562957908b9184916155f8575b501038848161559c565b809250858092503d8311615622575b6156118183613c12565b81010312611293578a9051386155ee565b503d615607565b6040513d85823e3d90fd5b915050809d615593565b9094508581813d8311615666575b6156568183613c12565b81010312610ba9575193386154bc565b503d61564c565b6040513d86823e3d90fd5b9095506020836101f35416916024604051809481936364a731e960e01b835260048301525afa80156156f05786906156bd575b6156b6915084614edd565b9438615480565b506020813d82116156e8575b816156d660209383613c12565b81010312612820576156b690516156ab565b3d91506156c9565b6040513d88823e3d90fd5b615713615709848484615760565b612f278585615424565b9260008412928315615730575b50505061572a5790565b50600090565b61573b929350614f81565b1115388080615720565b8115614efa57600160ff1b81146000198314166141ec570590565b909161576f90610163546141df565b90670de0b6b3a7640000918281029281840414901517156141ec57613b2692614f7b91614edd565b61580f936157d66000926020956157b082610169613bf6565b506157bc87825461436c565b90556157cc61016391825461436c565b9055610167613aa4565b90546040516340c10f1960e01b81526001600160a01b039093166004840152602483019490945290948593928492909183906044820190565b039360039190911b1c6001600160a01b03165af18015614271576158305750565b6020813d8211615859575b8161584860209383613c12565b8101031261075c57613f54906143e8565b3d915061583b565b61249b6158b2916158728482614f29565b6158a861588183610180613aa4565b6158948294925492838360031b1c614e5a565b919060031b91821b91600019901b19161790565b9055610181613aa4565b9055565b9183859161571393855b926158ce9295949193615760565b6000938181029190858212600160ff1b82141661593d57818305149015171561592957670de0b6b3a763ffff19820191821161592957670de0b6b3a76400009182810292818404149015171561592957613b26929350615745565b634e487b7160e01b84526011600452602484fd5b634e487b7160e01b86526011600452602486fd5b8061595a615286565b91909361596760006151dd565b94019382916159ff575b01938460008082126159f957505b8403918185116159c15750508181116159a357505061018555610186554361018755565b60449250604051916306da41e560e11b835260048301526024820152fd5b90808592116159e757604491604051916306da41e560e11b835260048301526024820152fd5b604051630fb4fd3560e11b8152600490fd5b0361597f565b90508160000390615971565b80910360e0811261075c578151926020830151926080604082015193605f19011261075c5760c060405191615a41608084613c12565b606081015183526080810151602084015260a081015160408401520151606082015290565b90613b2691600080615a76614087565b93602081519101845af4613f4e6140db565b90929160e090615a9d836101008101966148c7565b6001600160a01b0316910152565b61012f6002815414615abd5760029055565b60405162461bcd60e51b815260206004820152601f60248201527f5265656e7472616e637947756172643a207265656e7472616e742063616c6c006044820152606490fd5b9080615b0c575050565b61025954613b6592906001600160a01b0316614d5a565b919081615b2f57505050565b61016154613b6593906001600160a01b031661439f565b615bb491615b52615ef9565b615b5a615aab565b615b6330614202565b604051636845c44560e01b60208201526001600160a01b03938416602482015291831660448301528483166064830152608480830191909152815290615baa60a483613c12565b6102265416615a66565b60208180518101031261075c576020615bd09101518092615b02565b600161012f5590565b60e08101929160c09081906001600160a01b0380615bf683613ad2565b168552615c0560208301613ad2565b16602085015260408101356040850152606081013560608501526080810135608085015260a081013560a08501520135910152565b61017f548043101561572a57613b269043906141df565b90604051615c60604082613c12565b602060018294805484520154910152565b615c7d8161017a613aa4565b90549060031b1c916101be91615c938184613bf6565b5054926101bf54431015615cb9575b5050808210156152775761503c90613b2693614edd565b829350615ccd615cd89392615cd392613bf6565b50615c51565b615ce0565b903880615ca2565b602081519101805192670de0b6b3a7640000938403908482116141ec57615d0d614e4492614dff95614edd565b9251614edd565b60008061016991825492615d2784614fb7565b9382915b818310615d54575050508115615d485790615d4591614ef0565b91565b505061017b5460011b91565b90919392615d61856150f4565b9081615d6d8789614db8565b52615d86615d7b8388614e76565b50614e388886613bf6565b670de0b6b3a7640000908181029181830414901517156141ec57615dc8615dce92614e4485615dba600197615dc396615f1a565b9485918c615c71565b614edd565b9561436c565b94019190615d2b565b6101bf8054431015615de65750565b6101695460005b818110615e005750506101c05443019055565b80807f19156e9379c7bbbce8f646ce5ee30ba860b8f954717405f3d5859a6c1a21ae606001936101be615e36615ccd8383613bf6565b90615e54615e4c615e46856150f4565b84615ce0565b938492613bf6565b50555160409182519182526020820152a201615ded565b60975460405163d994d6d560e01b815233600482015290602090829060249082906001600160a01b03165afa90811561427157600091615ec0575b5015615eae57565b604051631dd1b1b560e21b8152600490fd5b906020823d8211615ef1575b81615ed960209383613c12565b810103126107985750615eeb906143e8565b38615ea6565b3d9150615ecc565b60ff60ca5460081c16615f0857565b60405163783bb6c960e11b8152600490fd5b90670de0b6b3a7640000918281029281840414901517156141ec57613b2691614ef0565b670de0b6b3a764000010612d885756fea264697066735822122020f88acb39f9b6b8ee6403b5aa2b692a0ce7932e0277c7bf5eb2ab77113c14fb64736f6c63430008140033",
  "linkReferences": {},
  "deployedLinkReferences": {}
}