{
  "_format": "hh-sol-artifact-1",
  "contractName": "MocRif",
  "sourceName": "contracts/MocRif.sol",
  "abi": [
    {
      "inputs": [
        {
          "internalType": "uint256",
          "name": "qACsent_",
          "type": "uint256"
        },
        {
          "internalType": "uint256",
          "name": "qACNeeded_",
          "type": "uint256"
        }
      ],
      "name": "InsufficientQacSent",
      "type": "error"
    },
    {
      "inputs": [
        {
          "internalType": "uint256",
          "name": "qTPsent_",
          "type": "uint256"
        },
        {
          "internalType": "uint256",
          "name": "qTPNeeded_",
          "type": "uint256"
        }
      ],
      "name": "InsufficientQtpSent",
      "type": "error"
    },
    {
      "inputs": [
        {
          "internalType": "uint256",
          "name": "qTC_",
          "type": "uint256"
        },
        {
          "internalType": "uint256",
          "name": "tcAvailableToRedeem_",
          "type": "uint256"
        }
      ],
      "name": "InsufficientTCtoRedeem",
      "type": "error"
    },
    {
      "inputs": [
        {
          "internalType": "uint256",
          "name": "qTP_",
          "type": "uint256"
        },
        {
          "internalType": "uint256",
          "name": "tpAvailableToMint_",
          "type": "uint256"
        }
      ],
      "name": "InsufficientTPtoMint",
      "type": "error"
    },
    {
      "inputs": [
        {
          "internalType": "uint256",
          "name": "qTP_",
          "type": "uint256"
        },
        {
          "internalType": "uint256",
          "name": "tpAvailableToRedeem_",
          "type": "uint256"
        }
      ],
      "name": "InsufficientTPtoRedeem",
      "type": "error"
    },
    {
      "inputs": [],
      "name": "InvalidAddress",
      "type": "error"
    },
    {
      "inputs": [],
      "name": "InvalidFluxCapacitorOperation",
      "type": "error"
    },
    {
      "inputs": [],
      "name": "InvalidValue",
      "type": "error"
    },
    {
      "inputs": [],
      "name": "Liquidated",
      "type": "error"
    },
    {
      "inputs": [
        {
          "internalType": "uint256",
          "name": "cglb_",
          "type": "uint256"
        },
        {
          "internalType": "uint256",
          "name": "covThrld_",
          "type": "uint256"
        }
      ],
      "name": "LowCoverage",
      "type": "error"
    },
    {
      "inputs": [
        {
          "internalType": "uint256",
          "name": "max_",
          "type": "uint256"
        },
        {
          "internalType": "uint256",
          "name": "new_",
          "type": "uint256"
        }
      ],
      "name": "MaxFluxCapacitorOperationReached",
      "type": "error"
    },
    {
      "inputs": [],
      "name": "MissingBlocksToSettlement",
      "type": "error"
    },
    {
      "inputs": [],
      "name": "MissingBlocksToTCInterestPayment",
      "type": "error"
    },
    {
      "inputs": [
        {
          "internalType": "address",
          "name": "dataProviderAddress_",
          "type": "address"
        }
      ],
      "name": "MissingProviderData",
      "type": "error"
    },
    {
      "inputs": [
        {
          "internalType": "address",
          "name": "priceProviderAddress_",
          "type": "address"
        }
      ],
      "name": "MissingProviderPrice",
      "type": "error"
    },
    {
      "inputs": [],
      "name": "NotAuthorizedChanger",
      "type": "error"
    },
    {
      "inputs": [],
      "name": "NotWhenPaused",
      "type": "error"
    },
    {
      "inputs": [],
      "name": "OnlyPauser",
      "type": "error"
    },
    {
      "inputs": [],
      "name": "OnlyQueue",
      "type": "error"
    },
    {
      "inputs": [],
      "name": "OnlyWhenLiquidated",
      "type": "error"
    },
    {
      "inputs": [],
      "name": "OnlyWhilePaused",
      "type": "error"
    },
    {
      "inputs": [],
      "name": "PeggedTokenAlreadyAdded",
      "type": "error"
    },
    {
      "inputs": [
        {
          "internalType": "uint256",
          "name": "qACmin_",
          "type": "uint256"
        },
        {
          "internalType": "uint256",
          "name": "qACtoRedeem_",
          "type": "uint256"
        }
      ],
      "name": "QacBelowMinimumRequired",
      "type": "error"
    },
    {
      "inputs": [],
      "name": "QacNeededMustBeGreaterThanZero",
      "type": "error"
    },
    {
      "inputs": [
        {
          "internalType": "uint256",
          "name": "qTCmin_",
          "type": "uint256"
        },
        {
          "internalType": "uint256",
          "name": "qTC_",
          "type": "uint256"
        }
      ],
      "name": "QtcBelowMinimumRequired",
      "type": "error"
    },
    {
      "inputs": [
        {
          "internalType": "uint256",
          "name": "qTPmin_",
          "type": "uint256"
        },
        {
          "internalType": "uint256",
          "name": "qTP_",
          "type": "uint256"
        }
      ],
      "name": "QtpBelowMinimumRequired",
      "type": "error"
    },
    {
      "inputs": [],
      "name": "RecipientMustBeSender",
      "type": "error"
    },
    {
      "inputs": [],
      "name": "TransferFailed",
      "type": "error"
    },
    {
      "inputs": [],
      "name": "Unstoppable",
      "type": "error"
    },
    {
      "inputs": [],
      "name": "protocolAlreadyMigrated",
      "type": "error"
    },
    {
      "anonymous": false,
      "inputs": [
        {
          "indexed": false,
          "internalType": "address",
          "name": "previousAdmin",
          "type": "address"
        },
        {
          "indexed": false,
          "internalType": "address",
          "name": "newAdmin",
          "type": "address"
        }
      ],
      "name": "AdminChanged",
      "type": "event"
    },
    {
      "anonymous": false,
      "inputs": [
        {
          "indexed": true,
          "internalType": "address",
          "name": "beacon",
          "type": "address"
        }
      ],
      "name": "BeaconUpgraded",
      "type": "event"
    },
    {
      "anonymous": false,
      "inputs": [],
      "name": "ContractLiquidated",
      "type": "event"
    },
    {
      "anonymous": false,
      "inputs": [
        {
          "indexed": false,
          "internalType": "uint8",
          "name": "version",
          "type": "uint8"
        }
      ],
      "name": "Initialized",
      "type": "event"
    },
    {
      "anonymous": false,
      "inputs": [
        {
          "indexed": true,
          "internalType": "address",
          "name": "tp_",
          "type": "address"
        },
        {
          "indexed": true,
          "internalType": "address",
          "name": "sender_",
          "type": "address"
        },
        {
          "indexed": true,
          "internalType": "address",
          "name": "recipient_",
          "type": "address"
        },
        {
          "indexed": false,
          "internalType": "uint256",
          "name": "qTP_",
          "type": "uint256"
        },
        {
          "indexed": false,
          "internalType": "uint256",
          "name": "qAC_",
          "type": "uint256"
        }
      ],
      "name": "LiqTPRedeemed",
      "type": "event"
    },
    {
      "anonymous": false,
      "inputs": [
        {
          "indexed": false,
          "internalType": "address",
          "name": "account",
          "type": "address"
        }
      ],
      "name": "Paused",
      "type": "event"
    },
    {
      "anonymous": false,
      "inputs": [
        {
          "indexed": false,
          "internalType": "uint256",
          "name": "i_",
          "type": "uint256"
        },
        {
          "components": [
            {
              "internalType": "address",
              "name": "tpTokenAddress",
              "type": "address"
            },
            {
              "internalType": "address",
              "name": "priceProviderAddress",
              "type": "address"
            },
            {
              "internalType": "uint256",
              "name": "tpCtarg",
              "type": "uint256"
            },
            {
              "internalType": "uint256",
              "name": "tpMintFee",
              "type": "uint256"
            },
            {
              "internalType": "uint256",
              "name": "tpRedeemFee",
              "type": "uint256"
            },
            {
              "internalType": "uint256",
              "name": "tpEma",
              "type": "uint256"
            },
            {
              "internalType": "uint256",
              "name": "tpEmaSf",
              "type": "uint256"
            }
          ],
          "indexed": false,
          "internalType": "struct PeggedTokenParams",
          "name": "peggedTokenParams_",
          "type": "tuple"
        }
      ],
      "name": "PeggedTokenChange",
      "type": "event"
    },
    {
      "anonymous": false,
      "inputs": [],
      "name": "SettlementExecuted",
      "type": "event"
    },
    {
      "anonymous": false,
      "inputs": [
        {
          "indexed": false,
          "internalType": "uint256",
          "name": "mocGain_",
          "type": "uint256"
        },
        {
          "indexed": false,
          "internalType": "uint256[]",
          "name": "tpGain_",
          "type": "uint256[]"
        }
      ],
      "name": "SuccessFeeDistributed",
      "type": "event"
    },
    {
      "anonymous": false,
      "inputs": [
        {
          "indexed": false,
          "internalType": "uint256",
          "name": "interestAmount_",
          "type": "uint256"
        }
      ],
      "name": "TCInterestPayment",
      "type": "event"
    },
    {
      "anonymous": false,
      "inputs": [
        {
          "indexed": true,
          "internalType": "uint256",
          "name": "i_",
          "type": "uint256"
        },
        {
          "indexed": false,
          "internalType": "uint256",
          "name": "oldTPema_",
          "type": "uint256"
        },
        {
          "indexed": false,
          "internalType": "uint256",
          "name": "newTPema_",
          "type": "uint256"
        }
      ],
      "name": "TPemaUpdated",
      "type": "event"
    },
    {
      "anonymous": false,
      "inputs": [
        {
          "indexed": false,
          "internalType": "address",
          "name": "account",
          "type": "address"
        }
      ],
      "name": "Unpaused",
      "type": "event"
    },
    {
      "anonymous": false,
      "inputs": [
        {
          "indexed": true,
          "internalType": "address",
          "name": "implementation",
          "type": "address"
        }
      ],
      "name": "Upgraded",
      "type": "event"
    },
    {
      "inputs": [],
      "name": "absoluteAccumulator",
      "outputs": [
        {
          "internalType": "uint256",
          "name": "",
          "type": "uint256"
        }
      ],
      "stateMutability": "view",
      "type": "function"
    },
    {
      "inputs": [],
      "name": "acToken",
      "outputs": [
        {
          "internalType": "contract IERC20",
          "name": "",
          "type": "address"
        }
      ],
      "stateMutability": "view",
      "type": "function"
    },
    {
      "inputs": [
        {
          "components": [
            {
              "internalType": "address",
              "name": "tpTokenAddress",
              "type": "address"
            },
            {
              "internalType": "address",
              "name": "priceProviderAddress",
              "type": "address"
            },
            {
              "internalType": "uint256",
              "name": "tpCtarg",
              "type": "uint256"
            },
            {
              "internalType": "uint256",
              "name": "tpMintFee",
              "type": "uint256"
            },
            {
              "internalType": "uint256",
              "name": "tpRedeemFee",
              "type": "uint256"
            },
            {
              "internalType": "uint256",
              "name": "tpEma",
              "type": "uint256"
            },
            {
              "internalType": "uint256",
              "name": "tpEmaSf",
              "type": "uint256"
            }
          ],
          "internalType": "struct PeggedTokenParams",
          "name": "peggedTokenParams_",
          "type": "tuple"
        }
      ],
      "name": "addPeggedToken",
      "outputs": [],
      "stateMutability": "nonpayable",
      "type": "function"
    },
    {
      "inputs": [],
      "name": "allowDifferentRecipient",
      "outputs": [
        {
          "internalType": "bool",
          "name": "",
          "type": "bool"
        }
      ],
      "stateMutability": "view",
      "type": "function"
    },
    {
      "inputs": [],
      "name": "appreciationFactor",
      "outputs": [
        {
          "internalType": "uint256",
          "name": "",
          "type": "uint256"
        }
      ],
      "stateMutability": "view",
      "type": "function"
    },
    {
      "inputs": [],
      "name": "bes",
      "outputs": [
        {
          "internalType": "uint256",
          "name": "",
          "type": "uint256"
        }
      ],
      "stateMutability": "view",
      "type": "function"
    },
    {
      "inputs": [],
      "name": "bns",
      "outputs": [
        {
          "internalType": "uint256",
          "name": "",
          "type": "uint256"
        }
      ],
      "stateMutability": "view",
      "type": "function"
    },
    {
      "inputs": [],
      "name": "calcCtargemaCA",
      "outputs": [
        {
          "internalType": "uint256",
          "name": "ctargemaCA",
          "type": "uint256"
        }
      ],
      "stateMutability": "view",
      "type": "function"
    },
    {
      "inputs": [
        {
          "internalType": "contract IGovernor",
          "name": "newGovernor_",
          "type": "address"
        }
      ],
      "name": "changeGovernor",
      "outputs": [],
      "stateMutability": "nonpayable",
      "type": "function"
    },
    {
      "inputs": [],
      "name": "decayBlockSpan",
      "outputs": [
        {
          "internalType": "uint256",
          "name": "",
          "type": "uint256"
        }
      ],
      "stateMutability": "view",
      "type": "function"
    },
    {
      "inputs": [],
      "name": "differentialAccumulator",
      "outputs": [
        {
          "internalType": "int256",
          "name": "",
          "type": "int256"
        }
      ],
      "stateMutability": "view",
      "type": "function"
    },
    {
      "inputs": [
        {
          "components": [
            {
              "internalType": "address",
              "name": "tpTokenAddress",
              "type": "address"
            },
            {
              "internalType": "address",
              "name": "priceProviderAddress",
              "type": "address"
            },
            {
              "internalType": "uint256",
              "name": "tpCtarg",
              "type": "uint256"
            },
            {
              "internalType": "uint256",
              "name": "tpMintFee",
              "type": "uint256"
            },
            {
              "internalType": "uint256",
              "name": "tpRedeemFee",
              "type": "uint256"
            },
            {
              "internalType": "uint256",
              "name": "tpEma",
              "type": "uint256"
            },
            {
              "internalType": "uint256",
              "name": "tpEmaSf",
              "type": "uint256"
            }
          ],
          "internalType": "struct PeggedTokenParams",
          "name": "peggedTokenParams_",
          "type": "tuple"
        }
      ],
      "name": "editPeggedToken",
      "outputs": [],
      "stateMutability": "nonpayable",
      "type": "function"
    },
    {
      "inputs": [],
      "name": "emaCalculationBlockSpan",
      "outputs": [
        {
          "internalType": "uint256",
          "name": "",
          "type": "uint256"
        }
      ],
      "stateMutability": "view",
      "type": "function"
    },
    {
      "inputs": [],
      "name": "evalLiquidation",
      "outputs": [],
      "stateMutability": "nonpayable",
      "type": "function"
    },
    {
      "inputs": [
        {
          "components": [
            {
              "internalType": "uint256",
              "name": "qTC",
              "type": "uint256"
            },
            {
              "internalType": "uint256",
              "name": "qACmax",
              "type": "uint256"
            },
            {
              "internalType": "address",
              "name": "sender",
              "type": "address"
            },
            {
              "internalType": "address",
              "name": "recipient",
              "type": "address"
            },
            {
              "internalType": "address",
              "name": "vendor",
              "type": "address"
            }
          ],
          "internalType": "struct MocCore.MintTCParams",
          "name": "params_",
          "type": "tuple"
        }
      ],
      "name": "execMintTC",
      "outputs": [
        {
          "internalType": "uint256",
          "name": "qACtotalNeeded",
          "type": "uint256"
        },
        {
          "internalType": "uint256",
          "name": "qFeeTokenTotalNeeded",
          "type": "uint256"
        },
        {
          "components": [
            {
              "internalType": "uint256",
              "name": "qACFee",
              "type": "uint256"
            },
            {
              "internalType": "uint256",
              "name": "qFeeToken",
              "type": "uint256"
            },
            {
              "internalType": "uint256",
              "name": "qACVendorMarkup",
              "type": "uint256"
            },
            {
              "internalType": "uint256",
              "name": "qFeeTokenVendorMarkup",
              "type": "uint256"
            }
          ],
          "internalType": "struct MocCommons.FeeCalcs",
          "name": "feeCalcs",
          "type": "tuple"
        }
      ],
      "stateMutability": "nonpayable",
      "type": "function"
    },
    {
      "inputs": [
        {
          "components": [
            {
              "internalType": "address",
              "name": "tp",
              "type": "address"
            },
            {
              "internalType": "uint256",
              "name": "qTP",
              "type": "uint256"
            },
            {
              "internalType": "uint256",
              "name": "qACmax",
              "type": "uint256"
            },
            {
              "internalType": "address",
              "name": "sender",
              "type": "address"
            },
            {
              "internalType": "address",
              "name": "recipient",
              "type": "address"
            },
            {
              "internalType": "address",
              "name": "vendor",
              "type": "address"
            }
          ],
          "internalType": "struct MocCommons.MintTCandTPParams",
          "name": "params_",
          "type": "tuple"
        }
      ],
      "name": "execMintTCandTP",
      "outputs": [
        {
          "internalType": "uint256",
          "name": "qACtotalNeeded",
          "type": "uint256"
        },
        {
          "internalType": "uint256",
          "name": "qTCMinted",
          "type": "uint256"
        },
        {
          "internalType": "uint256",
          "name": "qFeeTokenTotalNeeded",
          "type": "uint256"
        },
        {
          "components": [
            {
              "internalType": "uint256",
              "name": "qACFee",
              "type": "uint256"
            },
            {
              "internalType": "uint256",
              "name": "qFeeToken",
              "type": "uint256"
            },
            {
              "internalType": "uint256",
              "name": "qACVendorMarkup",
              "type": "uint256"
            },
            {
              "internalType": "uint256",
              "name": "qFeeTokenVendorMarkup",
              "type": "uint256"
            }
          ],
          "internalType": "struct MocCommons.FeeCalcs",
          "name": "feeCalcs",
          "type": "tuple"
        }
      ],
      "stateMutability": "nonpayable",
      "type": "function"
    },
    {
      "inputs": [
        {
          "components": [
            {
              "internalType": "address",
              "name": "tp",
              "type": "address"
            },
            {
              "internalType": "uint256",
              "name": "qTP",
              "type": "uint256"
            },
            {
              "internalType": "uint256",
              "name": "qACmax",
              "type": "uint256"
            },
            {
              "internalType": "address",
              "name": "sender",
              "type": "address"
            },
            {
              "internalType": "address",
              "name": "recipient",
              "type": "address"
            },
            {
              "internalType": "address",
              "name": "vendor",
              "type": "address"
            }
          ],
          "internalType": "struct MocCore.MintTPParams",
          "name": "params_",
          "type": "tuple"
        }
      ],
      "name": "execMintTP",
      "outputs": [
        {
          "internalType": "uint256",
          "name": "qACtotalNeeded",
          "type": "uint256"
        },
        {
          "internalType": "uint256",
          "name": "qFeeTokenTotalNeeded",
          "type": "uint256"
        },
        {
          "components": [
            {
              "internalType": "uint256",
              "name": "qACFee",
              "type": "uint256"
            },
            {
              "internalType": "uint256",
              "name": "qFeeToken",
              "type": "uint256"
            },
            {
              "internalType": "uint256",
              "name": "qACVendorMarkup",
              "type": "uint256"
            },
            {
              "internalType": "uint256",
              "name": "qFeeTokenVendorMarkup",
              "type": "uint256"
            }
          ],
          "internalType": "struct MocCommons.FeeCalcs",
          "name": "feeCalcs",
          "type": "tuple"
        }
      ],
      "stateMutability": "nonpayable",
      "type": "function"
    },
    {
      "inputs": [
        {
          "components": [
            {
              "internalType": "uint256",
              "name": "qTC",
              "type": "uint256"
            },
            {
              "internalType": "uint256",
              "name": "qACmin",
              "type": "uint256"
            },
            {
              "internalType": "address",
              "name": "sender",
              "type": "address"
            },
            {
              "internalType": "address",
              "name": "recipient",
              "type": "address"
            },
            {
              "internalType": "address",
              "name": "vendor",
              "type": "address"
            }
          ],
          "internalType": "struct MocCore.RedeemTCParams",
          "name": "params_",
          "type": "tuple"
        }
      ],
      "name": "execRedeemTC",
      "outputs": [
        {
          "internalType": "uint256",
          "name": "qACtoRedeem",
          "type": "uint256"
        },
        {
          "internalType": "uint256",
          "name": "qFeeTokenTotalNeeded",
          "type": "uint256"
        },
        {
          "components": [
            {
              "internalType": "uint256",
              "name": "qACFee",
              "type": "uint256"
            },
            {
              "internalType": "uint256",
              "name": "qFeeToken",
              "type": "uint256"
            },
            {
              "internalType": "uint256",
              "name": "qACVendorMarkup",
              "type": "uint256"
            },
            {
              "internalType": "uint256",
              "name": "qFeeTokenVendorMarkup",
              "type": "uint256"
            }
          ],
          "internalType": "struct MocCommons.FeeCalcs",
          "name": "feeCalcs",
          "type": "tuple"
        }
      ],
      "stateMutability": "nonpayable",
      "type": "function"
    },
    {
      "inputs": [
        {
          "components": [
            {
              "internalType": "address",
              "name": "tp",
              "type": "address"
            },
            {
              "internalType": "uint256",
              "name": "qTC",
              "type": "uint256"
            },
            {
              "internalType": "uint256",
              "name": "qTP",
              "type": "uint256"
            },
            {
              "internalType": "uint256",
              "name": "qACmin",
              "type": "uint256"
            },
            {
              "internalType": "address",
              "name": "sender",
              "type": "address"
            },
            {
              "internalType": "address",
              "name": "recipient",
              "type": "address"
            },
            {
              "internalType": "address",
              "name": "vendor",
              "type": "address"
            }
          ],
          "internalType": "struct MocCommons.RedeemTCandTPParams",
          "name": "params_",
          "type": "tuple"
        }
      ],
      "name": "execRedeemTCandTP",
      "outputs": [
        {
          "internalType": "uint256",
          "name": "qACtoRedeem",
          "type": "uint256"
        },
        {
          "internalType": "uint256",
          "name": "qTPRedeemed",
          "type": "uint256"
        },
        {
          "internalType": "uint256",
          "name": "qFeeTokenTotalNeeded",
          "type": "uint256"
        },
        {
          "components": [
            {
              "internalType": "uint256",
              "name": "qACFee",
              "type": "uint256"
            },
            {
              "internalType": "uint256",
              "name": "qFeeToken",
              "type": "uint256"
            },
            {
              "internalType": "uint256",
              "name": "qACVendorMarkup",
              "type": "uint256"
            },
            {
              "internalType": "uint256",
              "name": "qFeeTokenVendorMarkup",
              "type": "uint256"
            }
          ],
          "internalType": "struct MocCommons.FeeCalcs",
          "name": "feeCalcs",
          "type": "tuple"
        }
      ],
      "stateMutability": "nonpayable",
      "type": "function"
    },
    {
      "inputs": [
        {
          "components": [
            {
              "internalType": "address",
              "name": "tp",
              "type": "address"
            },
            {
              "internalType": "uint256",
              "name": "qTP",
              "type": "uint256"
            },
            {
              "internalType": "uint256",
              "name": "qACmin",
              "type": "uint256"
            },
            {
              "internalType": "address",
              "name": "sender",
              "type": "address"
            },
            {
              "internalType": "address",
              "name": "recipient",
              "type": "address"
            },
            {
              "internalType": "address",
              "name": "vendor",
              "type": "address"
            }
          ],
          "internalType": "struct MocCommons.RedeemTPParams",
          "name": "params_",
          "type": "tuple"
        }
      ],
      "name": "execRedeemTP",
      "outputs": [
        {
          "internalType": "uint256",
          "name": "qACtoRedeem",
          "type": "uint256"
        },
        {
          "internalType": "uint256",
          "name": "qFeeTokenTotalNeeded",
          "type": "uint256"
        },
        {
          "components": [
            {
              "internalType": "uint256",
              "name": "qACFee",
              "type": "uint256"
            },
            {
              "internalType": "uint256",
              "name": "qFeeToken",
              "type": "uint256"
            },
            {
              "internalType": "uint256",
              "name": "qACVendorMarkup",
              "type": "uint256"
            },
            {
              "internalType": "uint256",
              "name": "qFeeTokenVendorMarkup",
              "type": "uint256"
            }
          ],
          "internalType": "struct MocCommons.FeeCalcs",
          "name": "feeCalcs",
          "type": "tuple"
        }
      ],
      "stateMutability": "nonpayable",
      "type": "function"
    },
    {
      "inputs": [],
      "name": "execSettlement",
      "outputs": [],
      "stateMutability": "nonpayable",
      "type": "function"
    },
    {
      "inputs": [
        {
          "components": [
            {
              "internalType": "address",
              "name": "tp",
              "type": "address"
            },
            {
              "internalType": "uint256",
              "name": "qTC",
              "type": "uint256"
            },
            {
              "internalType": "uint256",
              "name": "qTPmin",
              "type": "uint256"
            },
            {
              "internalType": "uint256",
              "name": "qACmax",
              "type": "uint256"
            },
            {
              "internalType": "address",
              "name": "sender",
              "type": "address"
            },
            {
              "internalType": "address",
              "name": "recipient",
              "type": "address"
            },
            {
              "internalType": "address",
              "name": "vendor",
              "type": "address"
            }
          ],
          "internalType": "struct MocCommons.SwapTCforTPParams",
          "name": "params_",
          "type": "tuple"
        }
      ],
      "name": "execSwapTCforTP",
      "outputs": [
        {
          "internalType": "uint256",
          "name": "qACSurcharges",
          "type": "uint256"
        },
        {
          "internalType": "uint256",
          "name": "qTPMinted",
          "type": "uint256"
        },
        {
          "internalType": "uint256",
          "name": "qFeeTokenTotalNeeded",
          "type": "uint256"
        },
        {
          "components": [
            {
              "internalType": "uint256",
              "name": "qACFee",
              "type": "uint256"
            },
            {
              "internalType": "uint256",
              "name": "qFeeToken",
              "type": "uint256"
            },
            {
              "internalType": "uint256",
              "name": "qACVendorMarkup",
              "type": "uint256"
            },
            {
              "internalType": "uint256",
              "name": "qFeeTokenVendorMarkup",
              "type": "uint256"
            }
          ],
          "internalType": "struct MocCommons.FeeCalcs",
          "name": "feeCalcs",
          "type": "tuple"
        }
      ],
      "stateMutability": "nonpayable",
      "type": "function"
    },
    {
      "inputs": [
        {
          "components": [
            {
              "internalType": "address",
              "name": "tp",
              "type": "address"
            },
            {
              "internalType": "uint256",
              "name": "qTP",
              "type": "uint256"
            },
            {
              "internalType": "uint256",
              "name": "qTCmin",
              "type": "uint256"
            },
            {
              "internalType": "uint256",
              "name": "qACmax",
              "type": "uint256"
            },
            {
              "internalType": "address",
              "name": "sender",
              "type": "address"
            },
            {
              "internalType": "address",
              "name": "recipient",
              "type": "address"
            },
            {
              "internalType": "address",
              "name": "vendor",
              "type": "address"
            }
          ],
          "internalType": "struct MocCommons.SwapTPforTCParams",
          "name": "params_",
          "type": "tuple"
        }
      ],
      "name": "execSwapTPforTC",
      "outputs": [
        {
          "internalType": "uint256",
          "name": "qACSurcharges",
          "type": "uint256"
        },
        {
          "internalType": "uint256",
          "name": "qTCMinted",
          "type": "uint256"
        },
        {
          "internalType": "uint256",
          "name": "qFeeTokenTotalNeeded",
          "type": "uint256"
        },
        {
          "components": [
            {
              "internalType": "uint256",
              "name": "qACFee",
              "type": "uint256"
            },
            {
              "internalType": "uint256",
              "name": "qFeeToken",
              "type": "uint256"
            },
            {
              "internalType": "uint256",
              "name": "qACVendorMarkup",
              "type": "uint256"
            },
            {
              "internalType": "uint256",
              "name": "qFeeTokenVendorMarkup",
              "type": "uint256"
            }
          ],
          "internalType": "struct MocCommons.FeeCalcs",
          "name": "feeCalcs",
          "type": "tuple"
        }
      ],
      "stateMutability": "nonpayable",
      "type": "function"
    },
    {
      "inputs": [
        {
          "components": [
            {
              "internalType": "address",
              "name": "tpFrom",
              "type": "address"
            },
            {
              "internalType": "address",
              "name": "tpTo",
              "type": "address"
            },
            {
              "internalType": "uint256",
              "name": "qTP",
              "type": "uint256"
            },
            {
              "internalType": "uint256",
              "name": "qTPmin",
              "type": "uint256"
            },
            {
              "internalType": "uint256",
              "name": "qACmax",
              "type": "uint256"
            },
            {
              "internalType": "address",
              "name": "sender",
              "type": "address"
            },
            {
              "internalType": "address",
              "name": "recipient",
              "type": "address"
            },
            {
              "internalType": "address",
              "name": "vendor",
              "type": "address"
            }
          ],
          "internalType": "struct MocCommons.SwapTPforTPParams",
          "name": "params_",
          "type": "tuple"
        }
      ],
      "name": "execSwapTPforTP",
      "outputs": [
        {
          "internalType": "uint256",
          "name": "qACSurcharges",
          "type": "uint256"
        },
        {
          "internalType": "uint256",
          "name": "qTPMinted",
          "type": "uint256"
        },
        {
          "internalType": "uint256",
          "name": "qFeeTokenTotalNeeded",
          "type": "uint256"
        },
        {
          "components": [
            {
              "internalType": "uint256",
              "name": "qACFee",
              "type": "uint256"
            },
            {
              "internalType": "uint256",
              "name": "qFeeToken",
              "type": "uint256"
            },
            {
              "internalType": "uint256",
              "name": "qACVendorMarkup",
              "type": "uint256"
            },
            {
              "internalType": "uint256",
              "name": "qFeeTokenVendorMarkup",
              "type": "uint256"
            }
          ],
          "internalType": "struct MocCommons.FeeCalcs",
          "name": "feeCalcs",
          "type": "tuple"
        }
      ],
      "stateMutability": "nonpayable",
      "type": "function"
    },
    {
      "inputs": [],
      "name": "feeRetainer",
      "outputs": [
        {
          "internalType": "uint256",
          "name": "",
          "type": "uint256"
        }
      ],
      "stateMutability": "view",
      "type": "function"
    },
    {
      "inputs": [],
      "name": "feeToken",
      "outputs": [
        {
          "internalType": "contract IERC20",
          "name": "",
          "type": "address"
        }
      ],
      "stateMutability": "view",
      "type": "function"
    },
    {
      "inputs": [],
      "name": "feeTokenPct",
      "outputs": [
        {
          "internalType": "uint256",
          "name": "",
          "type": "uint256"
        }
      ],
      "stateMutability": "view",
      "type": "function"
    },
    {
      "inputs": [],
      "name": "feeTokenPriceProvider",
      "outputs": [
        {
          "internalType": "contract IPriceProvider",
          "name": "",
          "type": "address"
        }
      ],
      "stateMutability": "view",
      "type": "function"
    },
    {
      "inputs": [],
      "name": "getBts",
      "outputs": [
        {
          "internalType": "uint256",
          "name": "",
          "type": "uint256"
        }
      ],
      "stateMutability": "view",
      "type": "function"
    },
    {
      "inputs": [],
      "name": "getCglb",
      "outputs": [
        {
          "internalType": "uint256",
          "name": "cglob",
          "type": "uint256"
        }
      ],
      "stateMutability": "view",
      "type": "function"
    },
    {
      "inputs": [],
      "name": "getLckAC",
      "outputs": [
        {
          "internalType": "uint256",
          "name": "lckAC",
          "type": "uint256"
        }
      ],
      "stateMutability": "view",
      "type": "function"
    },
    {
      "inputs": [],
      "name": "getLeverageTC",
      "outputs": [
        {
          "internalType": "uint256",
          "name": "leverageTC",
          "type": "uint256"
        }
      ],
      "stateMutability": "view",
      "type": "function"
    },
    {
      "inputs": [
        {
          "internalType": "address",
          "name": "tp_",
          "type": "address"
        }
      ],
      "name": "getPACtp",
      "outputs": [
        {
          "internalType": "uint256",
          "name": "",
          "type": "uint256"
        }
      ],
      "stateMutability": "view",
      "type": "function"
    },
    {
      "inputs": [],
      "name": "getPTCac",
      "outputs": [
        {
          "internalType": "uint256",
          "name": "pTCac",
          "type": "uint256"
        }
      ],
      "stateMutability": "view",
      "type": "function"
    },
    {
      "inputs": [],
      "name": "getTCAvailableToRedeem",
      "outputs": [
        {
          "internalType": "uint256",
          "name": "tcAvailableToRedeem",
          "type": "uint256"
        }
      ],
      "stateMutability": "view",
      "type": "function"
    },
    {
      "inputs": [
        {
          "internalType": "address",
          "name": "tp_",
          "type": "address"
        }
      ],
      "name": "getTPAvailableToMint",
      "outputs": [
        {
          "internalType": "int256",
          "name": "tpAvailableToMint",
          "type": "int256"
        }
      ],
      "stateMutability": "view",
      "type": "function"
    },
    {
      "inputs": [],
      "name": "getTotalACavailable",
      "outputs": [
        {
          "internalType": "uint256",
          "name": "totalACavailable",
          "type": "uint256"
        }
      ],
      "stateMutability": "view",
      "type": "function"
    },
    {
      "inputs": [],
      "name": "getTpAmount",
      "outputs": [
        {
          "internalType": "uint256",
          "name": "",
          "type": "uint256"
        }
      ],
      "stateMutability": "view",
      "type": "function"
    },
    {
      "inputs": [],
      "name": "governor",
      "outputs": [
        {
          "internalType": "contract IGovernor",
          "name": "",
          "type": "address"
        }
      ],
      "stateMutability": "view",
      "type": "function"
    },
    {
      "inputs": [
        {
          "components": [
            {
              "components": [
                {
                  "components": [
                    {
                      "internalType": "address payable",
                      "name": "mocQueueAddress",
                      "type": "address"
                    },
                    {
                      "internalType": "address",
                      "name": "feeTokenAddress",
                      "type": "address"
                    },
                    {
                      "internalType": "address",
                      "name": "feeTokenPriceProviderAddress",
                      "type": "address"
                    },
                    {
                      "internalType": "address",
                      "name": "tcTokenAddress",
                      "type": "address"
                    },
                    {
                      "internalType": "address",
                      "name": "mocFeeFlowAddress",
                      "type": "address"
                    },
                    {
                      "internalType": "address",
                      "name": "mocAppreciationBeneficiaryAddress",
                      "type": "address"
                    },
                    {
                      "internalType": "uint256",
                      "name": "protThrld",
                      "type": "uint256"
                    },
                    {
                      "internalType": "uint256",
                      "name": "liqThrld",
                      "type": "uint256"
                    },
                    {
                      "internalType": "uint256",
                      "name": "feeRetainer",
                      "type": "uint256"
                    },
                    {
                      "internalType": "uint256",
                      "name": "tcMintFee",
                      "type": "uint256"
                    },
                    {
                      "internalType": "uint256",
                      "name": "tcRedeemFee",
                      "type": "uint256"
                    },
                    {
                      "internalType": "uint256",
                      "name": "swapTPforTPFee",
                      "type": "uint256"
                    },
                    {
                      "internalType": "uint256",
                      "name": "swapTPforTCFee",
                      "type": "uint256"
                    },
                    {
                      "internalType": "uint256",
                      "name": "swapTCforTPFee",
                      "type": "uint256"
                    },
                    {
                      "internalType": "uint256",
                      "name": "redeemTCandTPFee",
                      "type": "uint256"
                    },
                    {
                      "internalType": "uint256",
                      "name": "mintTCandTPFee",
                      "type": "uint256"
                    },
                    {
                      "internalType": "uint256",
                      "name": "feeTokenPct",
                      "type": "uint256"
                    },
                    {
                      "internalType": "uint256",
                      "name": "successFee",
                      "type": "uint256"
                    },
                    {
                      "internalType": "uint256",
                      "name": "appreciationFactor",
                      "type": "uint256"
                    },
                    {
                      "internalType": "uint256",
                      "name": "bes",
                      "type": "uint256"
                    },
                    {
                      "internalType": "address",
                      "name": "tcInterestCollectorAddress",
                      "type": "address"
                    },
                    {
                      "internalType": "uint256",
                      "name": "tcInterestRate",
                      "type": "uint256"
                    },
                    {
                      "internalType": "uint256",
                      "name": "tcInterestPaymentBlockSpan",
                      "type": "uint256"
                    },
                    {
                      "internalType": "address",
                      "name": "maxAbsoluteOpProviderAddress",
                      "type": "address"
                    },
                    {
                      "internalType": "address",
                      "name": "maxOpDiffProviderAddress",
                      "type": "address"
                    },
                    {
                      "internalType": "uint256",
                      "name": "decayBlockSpan",
                      "type": "uint256"
                    },
                    {
                      "internalType": "bool",
                      "name": "allowDifferentRecipient",
                      "type": "bool"
                    }
                  ],
                  "internalType": "struct MocBaseBucket.InitializeBaseBucketParams",
                  "name": "initializeBaseBucketParams",
                  "type": "tuple"
                },
                {
                  "internalType": "address",
                  "name": "governorAddress",
                  "type": "address"
                },
                {
                  "internalType": "address",
                  "name": "pauserAddress",
                  "type": "address"
                },
                {
                  "internalType": "address",
                  "name": "mocCoreExpansion",
                  "type": "address"
                },
                {
                  "internalType": "uint256",
                  "name": "emaCalculationBlockSpan",
                  "type": "uint256"
                },
                {
                  "internalType": "address",
                  "name": "mocVendors",
                  "type": "address"
                }
              ],
              "internalType": "struct MocCore.InitializeCoreParams",
              "name": "initializeCoreParams",
              "type": "tuple"
            },
            {
              "internalType": "address",
              "name": "acTokenAddress",
              "type": "address"
            }
          ],
          "internalType": "struct MocCARC20.InitializeParams",
          "name": "initializeParams_",
          "type": "tuple"
        }
      ],
      "name": "initialize",
      "outputs": [],
      "stateMutability": "nonpayable",
      "type": "function"
    },
    {
      "inputs": [],
      "name": "isLiquidationReached",
      "outputs": [
        {
          "internalType": "bool",
          "name": "",
          "type": "bool"
        }
      ],
      "stateMutability": "view",
      "type": "function"
    },
    {
      "inputs": [],
      "name": "lastOperationBlockNumber",
      "outputs": [
        {
          "internalType": "uint256",
          "name": "",
          "type": "uint256"
        }
      ],
      "stateMutability": "view",
      "type": "function"
    },
    {
      "inputs": [],
      "name": "liqEnabled",
      "outputs": [
        {
          "internalType": "bool",
          "name": "",
          "type": "bool"
        }
      ],
      "stateMutability": "view",
      "type": "function"
    },
    {
      "inputs": [
        {
          "internalType": "address",
          "name": "tp_",
          "type": "address"
        },
        {
          "internalType": "address",
          "name": "recipient_",
          "type": "address"
        }
      ],
      "name": "liqRedeemTP",
      "outputs": [
        {
          "internalType": "uint256",
          "name": "qACRedeemed",
          "type": "uint256"
        }
      ],
      "stateMutability": "nonpayable",
      "type": "function"
    },
    {
      "inputs": [],
      "name": "liqThrld",
      "outputs": [
        {
          "internalType": "uint256",
          "name": "",
          "type": "uint256"
        }
      ],
      "stateMutability": "view",
      "type": "function"
    },
    {
      "inputs": [],
      "name": "liquidated",
      "outputs": [
        {
          "internalType": "bool",
          "name": "",
          "type": "bool"
        }
      ],
      "stateMutability": "view",
      "type": "function"
    },
    {
      "inputs": [],
      "name": "makeStoppable",
      "outputs": [],
      "stateMutability": "nonpayable",
      "type": "function"
    },
    {
      "inputs": [],
      "name": "makeUnstoppable",
      "outputs": [],
      "stateMutability": "nonpayable",
      "type": "function"
    },
    {
      "inputs": [],
      "name": "maxAbsoluteOpProvider",
      "outputs": [
        {
          "internalType": "contract IDataProvider",
          "name": "",
          "type": "address"
        }
      ],
      "stateMutability": "view",
      "type": "function"
    },
    {
      "inputs": [],
      "name": "maxOpDiffProvider",
      "outputs": [
        {
          "internalType": "contract IDataProvider",
          "name": "",
          "type": "address"
        }
      ],
      "stateMutability": "view",
      "type": "function"
    },
    {
      "inputs": [],
      "name": "maxQACToMintTP",
      "outputs": [
        {
          "internalType": "uint256",
          "name": "maxQAC",
          "type": "uint256"
        }
      ],
      "stateMutability": "view",
      "type": "function"
    },
    {
      "inputs": [],
      "name": "maxQACToRedeemTP",
      "outputs": [
        {
          "internalType": "uint256",
          "name": "maxQAC",
          "type": "uint256"
        }
      ],
      "stateMutability": "view",
      "type": "function"
    },
    {
      "inputs": [
        {
          "internalType": "uint256",
          "name": "qAC_",
          "type": "uint256"
        },
        {
          "internalType": "uint256",
          "name": "qTC_",
          "type": "uint256"
        },
        {
          "internalType": "uint256",
          "name": "qTP_",
          "type": "uint256"
        },
        {
          "internalType": "uint256",
          "name": "nextEmaCalculation_",
          "type": "uint256"
        },
        {
          "internalType": "uint256",
          "name": "nextTCInterestPayment_",
          "type": "uint256"
        }
      ],
      "name": "migrateFromV1",
      "outputs": [],
      "stateMutability": "nonpayable",
      "type": "function"
    },
    {
      "inputs": [
        {
          "internalType": "uint256",
          "name": "qTC_",
          "type": "uint256"
        },
        {
          "internalType": "uint256",
          "name": "qACmax_",
          "type": "uint256"
        },
        {
          "internalType": "address",
          "name": "recipient_",
          "type": "address"
        },
        {
          "internalType": "address",
          "name": "vendor_",
          "type": "address"
        }
      ],
      "name": "mintTC",
      "outputs": [
        {
          "internalType": "uint256",
          "name": "operId",
          "type": "uint256"
        }
      ],
      "stateMutability": "payable",
      "type": "function"
    },
    {
      "inputs": [
        {
          "internalType": "address",
          "name": "tp_",
          "type": "address"
        },
        {
          "internalType": "uint256",
          "name": "qTP_",
          "type": "uint256"
        },
        {
          "internalType": "uint256",
          "name": "qACmax_",
          "type": "uint256"
        },
        {
          "internalType": "address",
          "name": "recipient_",
          "type": "address"
        },
        {
          "internalType": "address",
          "name": "vendor_",
          "type": "address"
        }
      ],
      "name": "mintTCandTP",
      "outputs": [
        {
          "internalType": "uint256",
          "name": "operId",
          "type": "uint256"
        }
      ],
      "stateMutability": "payable",
      "type": "function"
    },
    {
      "inputs": [],
      "name": "mintTCandTPFee",
      "outputs": [
        {
          "internalType": "uint256",
          "name": "",
          "type": "uint256"
        }
      ],
      "stateMutability": "view",
      "type": "function"
    },
    {
      "inputs": [
        {
          "internalType": "address",
          "name": "tp_",
          "type": "address"
        },
        {
          "internalType": "uint256",
          "name": "qTP_",
          "type": "uint256"
        },
        {
          "internalType": "uint256",
          "name": "qACmax_",
          "type": "uint256"
        },
        {
          "internalType": "address",
          "name": "recipient_",
          "type": "address"
        },
        {
          "internalType": "address",
          "name": "vendor_",
          "type": "address"
        }
      ],
      "name": "mintTP",
      "outputs": [
        {
          "internalType": "uint256",
          "name": "operId",
          "type": "uint256"
        }
      ],
      "stateMutability": "payable",
      "type": "function"
    },
    {
      "inputs": [],
      "name": "mocAppreciationBeneficiaryAddress",
      "outputs": [
        {
          "internalType": "address",
          "name": "",
          "type": "address"
        }
      ],
      "stateMutability": "view",
      "type": "function"
    },
    {
      "inputs": [],
      "name": "mocFeeFlowAddress",
      "outputs": [
        {
          "internalType": "address",
          "name": "",
          "type": "address"
        }
      ],
      "stateMutability": "view",
      "type": "function"
    },
    {
      "inputs": [],
      "name": "mocQueue",
      "outputs": [
        {
          "internalType": "address payable",
          "name": "",
          "type": "address"
        }
      ],
      "stateMutability": "view",
      "type": "function"
    },
    {
      "inputs": [],
      "name": "mocVendors",
      "outputs": [
        {
          "internalType": "contract MocVendors",
          "name": "",
          "type": "address"
        }
      ],
      "stateMutability": "view",
      "type": "function"
    },
    {
      "inputs": [],
      "name": "nACcb",
      "outputs": [
        {
          "internalType": "uint256",
          "name": "",
          "type": "uint256"
        }
      ],
      "stateMutability": "view",
      "type": "function"
    },
    {
      "inputs": [],
      "name": "nTCcb",
      "outputs": [
        {
          "internalType": "uint256",
          "name": "",
          "type": "uint256"
        }
      ],
      "stateMutability": "view",
      "type": "function"
    },
    {
      "inputs": [],
      "name": "nextEmaCalculation",
      "outputs": [
        {
          "internalType": "uint256",
          "name": "",
          "type": "uint256"
        }
      ],
      "stateMutability": "view",
      "type": "function"
    },
    {
      "inputs": [],
      "name": "nextTCInterestPayment",
      "outputs": [
        {
          "internalType": "uint256",
          "name": "",
          "type": "uint256"
        }
      ],
      "stateMutability": "view",
      "type": "function"
    },
    {
      "inputs": [],
      "name": "pause",
      "outputs": [],
      "stateMutability": "nonpayable",
      "type": "function"
    },
    {
      "inputs": [],
      "name": "paused",
      "outputs": [
        {
          "internalType": "bool",
          "name": "",
          "type": "bool"
        }
      ],
      "stateMutability": "view",
      "type": "function"
    },
    {
      "inputs": [],
      "name": "pauser",
      "outputs": [
        {
          "internalType": "address",
          "name": "",
          "type": "address"
        }
      ],
      "stateMutability": "view",
      "type": "function"
    },
    {
      "inputs": [
        {
          "internalType": "uint256",
          "name": "",
          "type": "uint256"
        }
      ],
      "name": "pegContainer",
      "outputs": [
        {
          "internalType": "uint256",
          "name": "nTP",
          "type": "uint256"
        },
        {
          "internalType": "contract IPriceProvider",
          "name": "priceProvider",
          "type": "address"
        }
      ],
      "stateMutability": "view",
      "type": "function"
    },
    {
      "inputs": [
        {
          "internalType": "address",
          "name": "",
          "type": "address"
        }
      ],
      "name": "peggedTokenIndex",
      "outputs": [
        {
          "internalType": "uint256",
          "name": "index",
          "type": "uint256"
        },
        {
          "internalType": "bool",
          "name": "exists",
          "type": "bool"
        }
      ],
      "stateMutability": "view",
      "type": "function"
    },
    {
      "inputs": [],
      "name": "protThrld",
      "outputs": [
        {
          "internalType": "uint256",
          "name": "",
          "type": "uint256"
        }
      ],
      "stateMutability": "view",
      "type": "function"
    },
    {
      "inputs": [],
      "name": "proxiableUUID",
      "outputs": [
        {
          "internalType": "bytes32",
          "name": "",
          "type": "bytes32"
        }
      ],
      "stateMutability": "view",
      "type": "function"
    },
    {
      "inputs": [],
      "name": "qACLockedInPending",
      "outputs": [
        {
          "internalType": "uint256",
          "name": "",
          "type": "uint256"
        }
      ],
      "stateMutability": "view",
      "type": "function"
    },
    {
      "inputs": [
        {
          "internalType": "uint256",
          "name": "qTC_",
          "type": "uint256"
        },
        {
          "internalType": "uint256",
          "name": "qACmin_",
          "type": "uint256"
        },
        {
          "internalType": "address",
          "name": "recipient_",
          "type": "address"
        },
        {
          "internalType": "address",
          "name": "vendor_",
          "type": "address"
        }
      ],
      "name": "redeemTC",
      "outputs": [
        {
          "internalType": "uint256",
          "name": "operId",
          "type": "uint256"
        }
      ],
      "stateMutability": "payable",
      "type": "function"
    },
    {
      "inputs": [
        {
          "internalType": "address",
          "name": "tp_",
          "type": "address"
        },
        {
          "internalType": "uint256",
          "name": "qTC_",
          "type": "uint256"
        },
        {
          "internalType": "uint256",
          "name": "qTP_",
          "type": "uint256"
        },
        {
          "internalType": "uint256",
          "name": "qACmin_",
          "type": "uint256"
        },
        {
          "internalType": "address",
          "name": "recipient_",
          "type": "address"
        },
        {
          "internalType": "address",
          "name": "vendor_",
          "type": "address"
        }
      ],
      "name": "redeemTCandTP",
      "outputs": [
        {
          "internalType": "uint256",
          "name": "operId",
          "type": "uint256"
        }
      ],
      "stateMutability": "payable",
      "type": "function"
    },
    {
      "inputs": [],
      "name": "redeemTCandTPFee",
      "outputs": [
        {
          "internalType": "uint256",
          "name": "",
          "type": "uint256"
        }
      ],
      "stateMutability": "view",
      "type": "function"
    },
    {
      "inputs": [
        {
          "internalType": "address",
          "name": "tp_",
          "type": "address"
        },
        {
          "internalType": "uint256",
          "name": "qTP_",
          "type": "uint256"
        },
        {
          "internalType": "uint256",
          "name": "qACmin_",
          "type": "uint256"
        },
        {
          "internalType": "address",
          "name": "recipient_",
          "type": "address"
        },
        {
          "internalType": "address",
          "name": "vendor_",
          "type": "address"
        }
      ],
      "name": "redeemTP",
      "outputs": [
        {
          "internalType": "uint256",
          "name": "operId",
          "type": "uint256"
        }
      ],
      "stateMutability": "payable",
      "type": "function"
    },
    {
      "inputs": [],
      "name": "refreshACBalance",
      "outputs": [],
      "stateMutability": "nonpayable",
      "type": "function"
    },
    {
      "inputs": [
        {
          "internalType": "bool",
          "name": "allowDifferentRecipient_",
          "type": "bool"
        }
      ],
      "name": "setAllowDifferentRecipient",
      "outputs": [],
      "stateMutability": "nonpayable",
      "type": "function"
    },
    {
      "inputs": [
        {
          "internalType": "uint256",
          "name": "appreciationFactor_",
          "type": "uint256"
        }
      ],
      "name": "setAppreciationFactor",
      "outputs": [],
      "stateMutability": "nonpayable",
      "type": "function"
    },
    {
      "inputs": [
        {
          "internalType": "uint256",
          "name": "bes_",
          "type": "uint256"
        }
      ],
      "name": "setBes",
      "outputs": [],
      "stateMutability": "nonpayable",
      "type": "function"
    },
    {
      "inputs": [
        {
          "internalType": "uint256",
          "name": "decayBlockSpan_",
          "type": "uint256"
        }
      ],
      "name": "setDecayBlockSpan",
      "outputs": [],
      "stateMutability": "nonpayable",
      "type": "function"
    },
    {
      "inputs": [
        {
          "internalType": "uint256",
          "name": "blockSpan_",
          "type": "uint256"
        }
      ],
      "name": "setEmaCalculationBlockSpan",
      "outputs": [],
      "stateMutability": "nonpayable",
      "type": "function"
    },
    {
      "inputs": [
        {
          "internalType": "uint256",
          "name": "feeRetainer_",
          "type": "uint256"
        }
      ],
      "name": "setFeeRetainer",
      "outputs": [],
      "stateMutability": "nonpayable",
      "type": "function"
    },
    {
      "inputs": [
        {
          "internalType": "address",
          "name": "mocFeeTokenAddress_",
          "type": "address"
        }
      ],
      "name": "setFeeTokenAddress",
      "outputs": [],
      "stateMutability": "nonpayable",
      "type": "function"
    },
    {
      "inputs": [
        {
          "internalType": "uint256",
          "name": "feeTokenPct_",
          "type": "uint256"
        }
      ],
      "name": "setFeeTokenPct",
      "outputs": [],
      "stateMutability": "nonpayable",
      "type": "function"
    },
    {
      "inputs": [
        {
          "internalType": "address",
          "name": "mocFeeTokenPriceProviderAddress_",
          "type": "address"
        }
      ],
      "name": "setFeeTokenPriceProviderAddress",
      "outputs": [],
      "stateMutability": "nonpayable",
      "type": "function"
    },
    {
      "inputs": [
        {
          "internalType": "bool",
          "name": "liqEnabled_",
          "type": "bool"
        }
      ],
      "name": "setLiqEnabled",
      "outputs": [],
      "stateMutability": "nonpayable",
      "type": "function"
    },
    {
      "inputs": [
        {
          "internalType": "uint256",
          "name": "liqThrld_",
          "type": "uint256"
        }
      ],
      "name": "setLiqThrld",
      "outputs": [],
      "stateMutability": "nonpayable",
      "type": "function"
    },
    {
      "inputs": [
        {
          "internalType": "address",
          "name": "maxAbsoluteOpProviderAddress_",
          "type": "address"
        }
      ],
      "name": "setMaxAbsoluteOpProviderAddress",
      "outputs": [],
      "stateMutability": "nonpayable",
      "type": "function"
    },
    {
      "inputs": [
        {
          "internalType": "address",
          "name": "maxOpDiffProviderAddress_",
          "type": "address"
        }
      ],
      "name": "setMaxOpDiffProviderAddress",
      "outputs": [],
      "stateMutability": "nonpayable",
      "type": "function"
    },
    {
      "inputs": [
        {
          "internalType": "uint256",
          "name": "mintTCandTPFee_",
          "type": "uint256"
        }
      ],
      "name": "setMintTCandTPFee",
      "outputs": [],
      "stateMutability": "nonpayable",
      "type": "function"
    },
    {
      "inputs": [
        {
          "internalType": "address",
          "name": "mocAppreciationBeneficiaryAddress_",
          "type": "address"
        }
      ],
      "name": "setMocAppreciationBeneficiaryAddress",
      "outputs": [],
      "stateMutability": "nonpayable",
      "type": "function"
    },
    {
      "inputs": [
        {
          "internalType": "address",
          "name": "mocCoreExpansion_",
          "type": "address"
        }
      ],
      "name": "setMocCoreExpansion",
      "outputs": [],
      "stateMutability": "nonpayable",
      "type": "function"
    },
    {
      "inputs": [
        {
          "internalType": "address",
          "name": "mocFeeFlowAddress_",
          "type": "address"
        }
      ],
      "name": "setMocFeeFlowAddress",
      "outputs": [],
      "stateMutability": "nonpayable",
      "type": "function"
    },
    {
      "inputs": [
        {
          "internalType": "address payable",
          "name": "mocQueueAddress_",
          "type": "address"
        }
      ],
      "name": "setMocQueue",
      "outputs": [],
      "stateMutability": "nonpayable",
      "type": "function"
    },
    {
      "inputs": [
        {
          "internalType": "address",
          "name": "mocVendors_",
          "type": "address"
        }
      ],
      "name": "setMocVendors",
      "outputs": [],
      "stateMutability": "nonpayable",
      "type": "function"
    },
    {
      "inputs": [
        {
          "internalType": "address",
          "name": "newPauser_",
          "type": "address"
        }
      ],
      "name": "setPauser",
      "outputs": [],
      "stateMutability": "nonpayable",
      "type": "function"
    },
    {
      "inputs": [
        {
          "internalType": "uint256",
          "name": "protThrld_",
          "type": "uint256"
        }
      ],
      "name": "setProtThrld",
      "outputs": [],
      "stateMutability": "nonpayable",
      "type": "function"
    },
    {
      "inputs": [
        {
          "internalType": "uint256",
          "name": "redeemTCandTPFee_",
          "type": "uint256"
        }
      ],
      "name": "setRedeemTCandTPFee",
      "outputs": [],
      "stateMutability": "nonpayable",
      "type": "function"
    },
    {
      "inputs": [
        {
          "internalType": "uint256",
          "name": "successFee_",
          "type": "uint256"
        }
      ],
      "name": "setSuccessFee",
      "outputs": [],
      "stateMutability": "nonpayable",
      "type": "function"
    },
    {
      "inputs": [
        {
          "internalType": "uint256",
          "name": "swapTCforTPFee_",
          "type": "uint256"
        }
      ],
      "name": "setSwapTCforTPFee",
      "outputs": [],
      "stateMutability": "nonpayable",
      "type": "function"
    },
    {
      "inputs": [
        {
          "internalType": "uint256",
          "name": "swapTPforTCFee_",
          "type": "uint256"
        }
      ],
      "name": "setSwapTPforTCFee",
      "outputs": [],
      "stateMutability": "nonpayable",
      "type": "function"
    },
    {
      "inputs": [
        {
          "internalType": "uint256",
          "name": "swapTPforTPFee_",
          "type": "uint256"
        }
      ],
      "name": "setSwapTPforTPFee",
      "outputs": [],
      "stateMutability": "nonpayable",
      "type": "function"
    },
    {
      "inputs": [
        {
          "internalType": "address",
          "name": "tcInterestCollectorAddress_",
          "type": "address"
        }
      ],
      "name": "setTCInterestCollectorAddress",
      "outputs": [],
      "stateMutability": "nonpayable",
      "type": "function"
    },
    {
      "inputs": [
        {
          "internalType": "uint256",
          "name": "tcInterestPaymentBlockSpan_",
          "type": "uint256"
        }
      ],
      "name": "setTCInterestPaymentBlockSpan",
      "outputs": [],
      "stateMutability": "nonpayable",
      "type": "function"
    },
    {
      "inputs": [
        {
          "internalType": "uint256",
          "name": "tcInterestRate_",
          "type": "uint256"
        }
      ],
      "name": "setTCInterestRate",
      "outputs": [],
      "stateMutability": "nonpayable",
      "type": "function"
    },
    {
      "inputs": [
        {
          "internalType": "uint256",
          "name": "tcMintFee_",
          "type": "uint256"
        }
      ],
      "name": "setTcMintFee",
      "outputs": [],
      "stateMutability": "nonpayable",
      "type": "function"
    },
    {
      "inputs": [
        {
          "internalType": "uint256",
          "name": "tcRedeemFee_",
          "type": "uint256"
        }
      ],
      "name": "setTcRedeemFee",
      "outputs": [],
      "stateMutability": "nonpayable",
      "type": "function"
    },
    {
      "inputs": [],
      "name": "shouldCalculateEma",
      "outputs": [
        {
          "internalType": "bool",
          "name": "",
          "type": "bool"
        }
      ],
      "stateMutability": "view",
      "type": "function"
    },
    {
      "inputs": [],
      "name": "stoppable",
      "outputs": [
        {
          "internalType": "bool",
          "name": "",
          "type": "bool"
        }
      ],
      "stateMutability": "view",
      "type": "function"
    },
    {
      "inputs": [],
      "name": "successFee",
      "outputs": [
        {
          "internalType": "uint256",
          "name": "",
          "type": "uint256"
        }
      ],
      "stateMutability": "view",
      "type": "function"
    },
    {
      "inputs": [
        {
          "internalType": "address",
          "name": "tp_",
          "type": "address"
        },
        {
          "internalType": "uint256",
          "name": "qTC_",
          "type": "uint256"
        },
        {
          "internalType": "uint256",
          "name": "qTPmin_",
          "type": "uint256"
        },
        {
          "internalType": "uint256",
          "name": "qACmax_",
          "type": "uint256"
        },
        {
          "internalType": "address",
          "name": "recipient_",
          "type": "address"
        },
        {
          "internalType": "address",
          "name": "vendor_",
          "type": "address"
        }
      ],
      "name": "swapTCforTP",
      "outputs": [
        {
          "internalType": "uint256",
          "name": "operId",
          "type": "uint256"
        }
      ],
      "stateMutability": "payable",
      "type": "function"
    },
    {
      "inputs": [],
      "name": "swapTCforTPFee",
      "outputs": [
        {
          "internalType": "uint256",
          "name": "",
          "type": "uint256"
        }
      ],
      "stateMutability": "view",
      "type": "function"
    },
    {
      "inputs": [
        {
          "internalType": "address",
          "name": "tp_",
          "type": "address"
        },
        {
          "internalType": "uint256",
          "name": "qTP_",
          "type": "uint256"
        },
        {
          "internalType": "uint256",
          "name": "qTCmin_",
          "type": "uint256"
        },
        {
          "internalType": "uint256",
          "name": "qACmax_",
          "type": "uint256"
        },
        {
          "internalType": "address",
          "name": "recipient_",
          "type": "address"
        },
        {
          "internalType": "address",
          "name": "vendor_",
          "type": "address"
        }
      ],
      "name": "swapTPforTC",
      "outputs": [
        {
          "internalType": "uint256",
          "name": "operId",
          "type": "uint256"
        }
      ],
      "stateMutability": "payable",
      "type": "function"
    },
    {
      "inputs": [],
      "name": "swapTPforTCFee",
      "outputs": [
        {
          "internalType": "uint256",
          "name": "",
          "type": "uint256"
        }
      ],
      "stateMutability": "view",
      "type": "function"
    },
    {
      "inputs": [
        {
          "internalType": "address",
          "name": "tpFrom_",
          "type": "address"
        },
        {
          "internalType": "address",
          "name": "tpTo_",
          "type": "address"
        },
        {
          "internalType": "uint256",
          "name": "qTP_",
          "type": "uint256"
        },
        {
          "internalType": "uint256",
          "name": "qTPmin_",
          "type": "uint256"
        },
        {
          "internalType": "uint256",
          "name": "qACmax_",
          "type": "uint256"
        },
        {
          "internalType": "address",
          "name": "recipient_",
          "type": "address"
        },
        {
          "internalType": "address",
          "name": "vendor_",
          "type": "address"
        }
      ],
      "name": "swapTPforTP",
      "outputs": [
        {
          "internalType": "uint256",
          "name": "operId",
          "type": "uint256"
        }
      ],
      "stateMutability": "payable",
      "type": "function"
    },
    {
      "inputs": [],
      "name": "swapTPforTPFee",
      "outputs": [
        {
          "internalType": "uint256",
          "name": "",
          "type": "uint256"
        }
      ],
      "stateMutability": "view",
      "type": "function"
    },
    {
      "inputs": [],
      "name": "tcHoldersInterestPayment",
      "outputs": [],
      "stateMutability": "nonpayable",
      "type": "function"
    },
    {
      "inputs": [],
      "name": "tcInterestCollectorAddress",
      "outputs": [
        {
          "internalType": "address",
          "name": "",
          "type": "address"
        }
      ],
      "stateMutability": "view",
      "type": "function"
    },
    {
      "inputs": [],
      "name": "tcInterestPaymentBlockSpan",
      "outputs": [
        {
          "internalType": "uint256",
          "name": "",
          "type": "uint256"
        }
      ],
      "stateMutability": "view",
      "type": "function"
    },
    {
      "inputs": [],
      "name": "tcInterestRate",
      "outputs": [
        {
          "internalType": "uint256",
          "name": "",
          "type": "uint256"
        }
      ],
      "stateMutability": "view",
      "type": "function"
    },
    {
      "inputs": [],
      "name": "tcMintFee",
      "outputs": [
        {
          "internalType": "uint256",
          "name": "",
          "type": "uint256"
        }
      ],
      "stateMutability": "view",
      "type": "function"
    },
    {
      "inputs": [],
      "name": "tcRedeemFee",
      "outputs": [
        {
          "internalType": "uint256",
          "name": "",
          "type": "uint256"
        }
      ],
      "stateMutability": "view",
      "type": "function"
    },
    {
      "inputs": [],
      "name": "tcToken",
      "outputs": [
        {
          "internalType": "contract MocTC",
          "name": "",
          "type": "address"
        }
      ],
      "stateMutability": "view",
      "type": "function"
    },
    {
      "inputs": [
        {
          "internalType": "uint256",
          "name": "",
          "type": "uint256"
        }
      ],
      "name": "tpCtarg",
      "outputs": [
        {
          "internalType": "uint256",
          "name": "",
          "type": "uint256"
        }
      ],
      "stateMutability": "view",
      "type": "function"
    },
    {
      "inputs": [
        {
          "internalType": "uint256",
          "name": "",
          "type": "uint256"
        }
      ],
      "name": "tpEma",
      "outputs": [
        {
          "internalType": "uint256",
          "name": "ema",
          "type": "uint256"
        },
        {
          "internalType": "uint256",
          "name": "sf",
          "type": "uint256"
        }
      ],
      "stateMutability": "view",
      "type": "function"
    },
    {
      "inputs": [
        {
          "internalType": "uint256",
          "name": "",
          "type": "uint256"
        }
      ],
      "name": "tpLiqPrices",
      "outputs": [
        {
          "internalType": "uint256",
          "name": "",
          "type": "uint256"
        }
      ],
      "stateMutability": "view",
      "type": "function"
    },
    {
      "inputs": [
        {
          "internalType": "address",
          "name": "",
          "type": "address"
        }
      ],
      "name": "tpMintFees",
      "outputs": [
        {
          "internalType": "uint256",
          "name": "",
          "type": "uint256"
        }
      ],
      "stateMutability": "view",
      "type": "function"
    },
    {
      "inputs": [
        {
          "internalType": "address",
          "name": "",
          "type": "address"
        }
      ],
      "name": "tpRedeemFees",
      "outputs": [
        {
          "internalType": "uint256",
          "name": "",
          "type": "uint256"
        }
      ],
      "stateMutability": "view",
      "type": "function"
    },
    {
      "inputs": [
        {
          "internalType": "uint256",
          "name": "",
          "type": "uint256"
        }
      ],
      "name": "tpTokens",
      "outputs": [
        {
          "internalType": "contract IMocRC20",
          "name": "",
          "type": "address"
        }
      ],
      "stateMutability": "view",
      "type": "function"
    },
    {
      "inputs": [
        {
          "internalType": "address",
          "name": "owner_",
          "type": "address"
        },
        {
          "internalType": "uint256",
          "name": "qACToUnlock_",
          "type": "uint256"
        }
      ],
      "name": "unlockACInPending",
      "outputs": [],
      "stateMutability": "nonpayable",
      "type": "function"
    },
    {
      "inputs": [
        {
          "internalType": "address",
          "name": "owner_",
          "type": "address"
        },
        {
          "internalType": "uint256",
          "name": "qTCToUnlock_",
          "type": "uint256"
        }
      ],
      "name": "unlockTCInPending",
      "outputs": [],
      "stateMutability": "nonpayable",
      "type": "function"
    },
    {
      "inputs": [
        {
          "internalType": "address",
          "name": "owner_",
          "type": "address"
        },
        {
          "internalType": "contract IERC20Upgradeable",
          "name": "tpToken_",
          "type": "address"
        },
        {
          "internalType": "uint256",
          "name": "qTPToUnlock_",
          "type": "uint256"
        }
      ],
      "name": "unlockTPInPending",
      "outputs": [],
      "stateMutability": "nonpayable",
      "type": "function"
    },
    {
      "inputs": [],
      "name": "unpause",
      "outputs": [],
      "stateMutability": "nonpayable",
      "type": "function"
    },
    {
      "inputs": [],
      "name": "updateEmas",
      "outputs": [],
      "stateMutability": "nonpayable",
      "type": "function"
    },
    {
      "inputs": [
        {
          "internalType": "address",
          "name": "newImplementation",
          "type": "address"
        }
      ],
      "name": "upgradeTo",
      "outputs": [],
      "stateMutability": "nonpayable",
      "type": "function"
    },
    {
      "inputs": [
        {
          "internalType": "address",
          "name": "newImplementation",
          "type": "address"
        },
        {
          "internalType": "bytes",
          "name": "data",
          "type": "bytes"
        }
      ],
      "name": "upgradeToAndCall",
      "outputs": [],
      "stateMutability": "payable",
      "type": "function"
    }
  ],
  "bytecode": "0x60a08060405234620000e157306080526000549060ff8260081c166200008f575060ff8082160362000053575b6040516159729081620000e782396080518181816128ba01528181612a290152612fbc0152f35b60ff90811916176000557f7f26b83ff96e1f2b6a682f133852f6798a09c465da95921460cefb3847402498602060405160ff8152a1386200002c565b62461bcd60e51b815260206004820152602760248201527f496e697469616c697a61626c653a20636f6e747261637420697320696e697469604482015266616c697a696e6760c81b6064820152608490fd5b600080fdfe604060808152600436101561001357600080fd5b60009060e08235811c90816301dde6ef14613bde57816301f1b68414613b975781630579188f14613af0578163073763b914613acc57816307b00d0414613a895781630c340a2414613a605781630c36d89714613a405781630d6ac463146139fa5781630db49656146139da5781630e0a8fd2146139b65781630f1e5e2b1461397057816313ed7ba51461394657816314b4906d1461388b5781631867e2f51461386b5781631fb0dda0146138425781631fe6a7ad146138085781632069f753146137e4578163235e81cf146135f257816323b98cde146135ca57816324ffaba31461358d57816325bc6c411461356357816327eab2a11461351d5781632a20d57d146134fd5781632c43bd3b146134d95781632d88af4a146134825781632ded50f0146134625781632eccb11c1461337c5781632ed35ca114613245578163333431fd1461322557816333421c381461312a57816334d70ffa146130215781633659cfe614612f875781633915edcb14612f56578163391bf6cf14612e3e5781633bc4ac0a14612e1a5781633cfb09ef14612dd45781633f4ba83a14612cc85781634017936a14612c97578163407f0e3414612c7757816347dda6af14612bc35781634af3a6fc14612b445781634b74600114612afa5781634d977e7814612ada5781634e1f907a14612ab05781634f0f27ee14612a905781634f1ef286146129a05781635210570c1461297a57816352d1902d146128a5578163533a4bea1461287457816353b16d171461282f578163543aeb481461280b5781635860ee63146127eb57816358f32de9146127a35781635c616a73146125a85781635c975abb146125815781635cfbe5781461256157816360009e0b1461253757816360ef07bf14612486578163647846a51461245c57816364ec230a14612438578163662013f41461241b57816368274357146123f25781636b5488df146123d25781636f30471f146123b2578163707134681461238e578163735d39601461234857816373e28af9146123245781637554fffd1461230457816376228055146122e45781637750ba0c146122c0578163791d7ddc14612203578163797709ca1461210a57816379f9a91c146120ea5781637a193c31146120ca5781637a4ff1d9146120a65781637a727fe8146120865781637af5758c146120625781637cba23831461203e5781637d8e031414611fff5781637f01c71514611fd55781637f13b99814611f9f5781637f4a4fe014611f7f578163826fcd5814611f5c5781638456cb5914611ec757816385bf959314611e81578163883d21cb14611dc05781638cfa424114611da05781638e2bdb8614611d765781638f1a383a14611d4e578163938c3e65146117e35781639853c35a146117b95781639ad6659d146117835781639cabfc00146117375781639fd0506d1461170a578163a8e9ac30146116e7578163ad4e666d14611507578163aea038dc146114e7578163b03e11a0146113d3578163b4434c3214611215578163b5e9ea8c146111eb578163b9fa6413146111cb578163bb4872de146111a7578163bc4e55b2146110d9578163becaca6b146110b5578163bfe4262114610eba578163c00f538d14610e96578163c039cc6914610e54578163c84353c914610e30578163cf351c1d14610dea578163d1a0faa014610dd1578163d2dc25a514610d42578163d6af11da14610d06578163d87aab6f14610ce6578163d8c69aec14610bd0578163d8db6f5a14610b8a578163db79607214610b4d578163ddb6d19014610b10578163de8d520a14610add578163e23c135c14610ac4578163e2c5e99014610a63578163e4c0aaf414610a1e578163e6a683e0146109d8578163e6b1627c14610994578163e7c259781461096f578163e8859a1514610952578163ee1f438f14610928578163eee2002714610900578163f13f4054146108d6578163f26114aa1461087157508063f28087781461084d578063f30b56141461082e578063f375cfba1461080f578063f88b1434146107a6578063fa6e83bd14610787578063fadda42414610742578063fda70f8b14610723578063fdcdc11e146106325763fe6b92c11461061057600080fd5b3461062e578160031936011261062e57602090610135549051908152f35b5080fd5b6106c1838360c4610644366004613cc5565b61065198929591986150c6565b6106596158d4565b6106638933614b16565b86519461067160c087613d53565b60018060a01b03918280921687528160209b8c97888a0152898b8a01523360608a01521660808801521660a086015261014f541693865194859384926323ec24b560e11b845260048401906150e8565b34905af193841561071857936106e2575b506106dc9061505c565b51908152f35b9092508381813d8311610711575b6106fa8183613d53565b8101031261070c5751916106dc6106d2565b600080fd5b503d6106f0565b8351903d90823e3d90fd5b503461062e578160031936011261062e5760209061013c549051908152f35b5090346107845760203660031901126107845750600435906001600160a01b038216820361070c5761077d6107786020936147b4565b6147ef565b9051908152f35b80fd5b503461062e578160031936011261062e5760209061013a549051908152f35b5090346107845760203660031901126107845750600435906001600160a01b038216820361070c5761077d6108016020936107ea6107e2614f05565b9190926147b4565b916108096107f884846144b3565b519485936144c7565b959094614e62565b90614d5f565b503461062e578160031936011261062e57602090610141549051908152f35b503461062e578160031936011261062e57602090610131549051908152f35b823461078457602036600319011261078457610867615846565b60043561013c5580f35b9050346108d25736600319011261062e576108ce9061088e615846565b516379308a5560e11b60208201526108bc816108ae600460248301614c6b565b03601f198101835282613d53565b6101f6546001600160a01b0316614af4565b5080f35b8280fd5b50503461062e578160031936011261062e576101305490516001600160a01b039091168152602090f35b50503461062e578160031936011261062e5760209060ff61014b5460101c1690519015158152f35b50503461062e578160031936011261062e576101525490516001600160a01b039091168152602090f35b50503461062e578160031936011261062e5760209061077d614e25565b50503461062e578160031936011261062e5760209060ff61014b541690519015158152f35b50503461062e57602036600319011261062e5760043561018e80548210156109d457906109c091613d37565b506001815491015482519182526020820152f35b8380fd5b8334610784576020366003190112610784576004356001600160a01b0381169081900361070c57610a07615846565b6101f680546001600160a01b031916909117905580f35b8334610784576020366003190112610784576004356001600160a01b0381169081900361062e57610a4d615846565b6001600160601b0360a01b609754161760975580f35b828434610784576060366003190112610784576001600160a01b03600435818116810361070c576024359180831683036109d45761014f54163303610ab35790610ab0916044359161580d565b80f35b8351631974847760e01b8152600490fd5b8334610784578060031936011261078457610ab06143ee565b50503461062e578160031936011261062e5760209061077d610b05610b006148b6565b6144c7565b9050610131546143cb565b50503461062e57602036600319011261062e576004356001600160a01b0381169081900361070c5782829160209452610145845220549051908152f35b9050346108d25736600319011261062e576108ce90610b6a615846565b51636dbcb03960e11b60208201526108bc816108ae600460248301614c6b565b8334610784576020366003190112610784576004356001600160a01b0381169081900361070c57610bb9615846565b61015280546001600160a01b031916909117905580f35b8391503461062e573660031901126107845750610beb6151e1565b5061014f546001600160a01b03919082163303610cd657610c9b91610c1136600461579a565b91610c1a6151e1565b50610c236150c6565b610c2b6158d4565b610c77610c688251633dad0bd760e11b6020820152610c4d6024820187615191565b60e48152610c5d61010482613d53565b846101f65416614af4565b6020808251830101910161573f565b86848760808498969b95979a015116918860c08160a084015116920151169261554b565b6004359380851680950361070c57608435908116810361070c57610cd294610cc89188604435039161580d565b5194859485613cf7565b0390f35b51631974847760e01b8152600490fd5b50503461062e578160031936011261062e57602090610155549051908152f35b50503461062e578160031936011261062e5760209061077d610d2860016148f0565b610d3c610d35828461460b565b9183614555565b91614937565b6106c1848460c4610d54366004613cc5565b610d6198929591986150c6565b610d696158d4565b610d738933614b16565b865194610d8160c087613d53565b60018060a01b03918280921687528160209b8c97888a0152898b8a01523360608a01521660808801521660a086015261014f54169386519485938492637e81a82160e01b845260048401906150e8565b8334610784578060031936011261078457610ab0614fc8565b8334610784576020366003190112610784576004356001600160a01b0381169081900361070c57610e19615846565b61012f80546001600160a01b031916909117905580f35b833461078457602036600319011261078457610e4a615846565b60043561014c5580f35b50503461062e578160031936011261062e5760209061077d610e89610e90610e7d610b006148b6565b610131939193546143cb565b91826143cb565b906158f5565b833461078457602036600319011261078457610eb0615846565b60043561013d5580f35b8284346107845760a036600319011261078457610ed56151e1565b5061014f546001600160a01b0390811633036110a457610ef6366004615208565b91610eff6151e1565b50610f086150c6565b610f106158d4565b610f18614fc8565b610f2b610f23614f05565b819291615265565b9091610f3a8284885193614d00565b818110611087575050670de0b6b3a764000091610f5c610f6292875192614ccc565b906145d8565b049182156110765793839481610f9b9501908082511691610f906080890193878486511661013d54926152a8565b9691889991996143cb565b9660208a01518089106110595750895190610134610fba8382546143cb565b9055610fca6101319182546143cb565b905583610133541690813b156108d2578651632770a7eb60e21b815230600482015260248101919091529082908290604490829084905af1801561104f5761103a575b5050968561103093838060608996610cd29b9c9d5116950151169151169261554b565b5193849384613c87565b611045828092613d53565b610784578061100d565b86513d84823e3d90fd5b604490898851916354cde31360e01b835260048301526024820152fd5b845163f3e39b5d60e01b8152600490fd5b6044925087519163a5db715d60e01b835260048301526024820152fd5b8251631974847760e01b8152600490fd5b8334610784576020366003190112610784576110cf615846565b6004356101395580f35b8391503461062e5736600319011261078457506110f46151e1565b5061014f546001600160a01b03908116330361119657610cd2610cc89161111c36600461579a565b936111256151e1565b5061112e6150c6565b6111366158d4565b611158610c68825163f5571e0160e01b6020820152610c4d6024820189615191565b948860608793969599949a0191825161117561014e9182546143cb565b905560c061118b8b8360808601511695516143cb565b92015116918061554b565b8151631974847760e01b8152600490fd5b50503461062e578160031936011261062e5760209060ff60ca541690519015158152f35b50503461062e578160031936011261062e5760209061015b549051908152f35b50503461062e578160031936011261062e576101535490516001600160a01b039091168152602090f35b8284346107845760c0366003190112610784576112306151e1565b5061014f546001600160a01b03929083163303610cd6576112ca611255366004615604565b9161125e6151e1565b506112676150c6565b61126f6158d4565b611277614fc8565b61127f614f05565b61128e878695939551166147b4565b936112ae61129c86846144b3565b51926112a88488614c1a565b82615265565b6020889592950194848651946112c4828b614e62565b9061566d565b8181106113b65750509480966112e461131c9784516158f5565b94606087019061131183835116888a8960a082019888808b511693511681526101446020522054926152a8565b9891829b919b6144a6565b98878101968751808c1161139957508a15611388579489969461136382958d9e9f95610cd29e958560806110309e9c61135861137e9b86615685565b519201511692614b5a565b865161137361014e9182546143cb565b9055511694516143cb565b915116918061554b565b885163f3e39b5d60e01b8152600490fd5b6044908c8b5191630b63f1a760e01b835260048301526024820152fd5b6044925084519163c39b739f60e01b835260048301526024820152fd5b82846113e0366004613da7565b906113ed959392956150c6565b6113f56158d4565b6113ff8133614b16565b83519061140d60a083613d53565b838252602080830197885233868401526001600160a01b03918216606084019081529382166080840190815261014f54875163fa91a9a560e01b815285516004820152995160248b0152604090940151831660448a01529351821660648901529251811660848801529195908690829060a4908290861634905af19485156114dc57946114a9575b50906106dc91610133541630903390615082565b919093508482813d83116114d5575b6114c28183613d53565b8101031261070c579051926106dc611495565b503d6114b8565b8451903d90823e3d90fd5b50503461062e578160031936011261062e5760209061013d549051908152f35b50503461062e5760c036600319011261062e576115226151e1565b5061014f546001600160a01b03919082163303610cd657611544366004615604565b9161154d6151e1565b506115566150c6565b61155e6158d4565b6115666148b6565b91611573828551166147b4565b9161159661158184866144b3565b519461158d8686614c1a565b61014954615265565b50506115a7602086019485516158f5565b9081156116d657859660606115ec97019082825116936115e160a08b0195828c87808a5116915116865261014560205289862054926152a8565b9891839b919b6143cb565b98878c0151808b106116b95750859161163e9161160a60018d615685565b519361161882610137613d37565b506116248682546143cb565b90556116346101319182546143cb565b9055610135613c02565b90549060031b1c1690813b156108d2578651632770a7eb60e21b815230600482015260248101919091529082908290604490829084905af1801561104f576116a4575b5050968561103093838060808996610cd29b9c9d5116950151169151169261554b565b6116af828092613d53565b6107845780611681565b6044908b8a51916354cde31360e01b835260048301526024820152fd5b825163f3e39b5d60e01b8152600490fd5b50503461062e578160031936011261062e5760209061018f544310159051908152f35b50503461062e578160031936011261062e5760ca54905160109190911c6001600160a01b03168152602090f35b828434610784576020366003190112610784576004356001600160a01b038116919082900361070c57829181526101366020522060ff6001825492015416825191825215156020820152f35b50503461062e578160031936011261062e576020906117ac6117a6610b006148b6565b9061467c565b61014a5410159051908152f35b50503461062e578160031936011261062e576101465490516001600160a01b039091168152602090f35b50503461062e5761042036600319011261062e57815460ff8160081c161590818092611d41575b8015611d2a575b15611ccf5760ff198116600117845581611cbe575b5060ff835460081c1661183881614a94565b6103a4356001600160a01b0381169081900361070c576101f680546001600160a01b03191690911790556001600160a01b03610364359081169081900361070c57610384356001600160a01b038116810361070c5760019161189984614a94565b6118a284614a94565b6118ab84614a94565b6118b484614a94565b6001600160601b0360a01b60975416176097556118d083614a94565b60ca5490620100008360b01b039060101b169061ff018360b01b031916171760ca556118fb81614a94565b670de0b6b3a764000060c4351115611cad5761191961010435615919565b61192561012435615919565b61193161014435615919565b61193d61016435615919565b61194961018435615919565b6119556101a435615919565b6119616101c435615919565b61196d6101e435615919565b61197961020435615919565b61199161198c61024435610224356144a6565b615919565b6004356001600160a01b03811690819003611ca95761014f80546001600160a01b03191690911790556024356001600160a01b038116810361070c5761012f80546001600160a01b0319166001600160a01b03928316179055604435908116810361070c5761013080546001600160a01b0319166001600160a01b03928316179055606435908116810361070c5761013380546001600160a01b0319166001600160a01b03928316179055608435908116810361070c5761014680546001600160a01b0319166001600160a01b0392831617905560a435908116810361070c5761014780546001600160a01b0319166001600160a01b0392831617905560c4356101495560e43561014a556101043561013b556101243561013c556101443561013d556101643561013e556101843561013f556101a435610140556101c435610141556101e43561014255610204356101435561022435610139556102443561013a556102643561014c81905590610284359081169081900361070c5761015880546001600160a01b03191690911790556102a435610159556102c43561015a819055906001600160a01b036102e4359081169081900361070c5761015280546001600160a01b03191690911790556001600160a01b03610304359081169081900361070c57610153906001600160601b0360a01b82541617905561032435610154554361015755430161014d55430161015b5561014b805461034435801515809103611ca55762ff00009060101b169062ffffff19161790556103c435611bd882614a94565b8015611c9457610190819055430161018f556103e4356001600160a01b038116810361070c57611c0a611c2c92614a94565b6101c380546001600160a01b0319166001600160a01b03909216919091179055565b610404356001600160a01b0381169081900361070c5761022980546001600160a01b0319169091179055611c5e575080f35b60207f7f26b83ff96e1f2b6a682f133852f6798a09c465da95921460cefb38474024989161ff001984541684555160018152a180f35b8351632a9ffab760e21b8152600490fd5b8680fd5b8480fd5b8251632a9ffab760e21b8152600490fd5b61ffff191661010117835538611826565b825162461bcd60e51b815260206004820152602e60248201527f496e697469616c697a61626c653a20636f6e747261637420697320616c72656160448201526d191e481a5b9a5d1a585b1a5e995960921b6064820152608490fd5b50303b1580156118115750600160ff821614611811565b50600160ff82161061180a565b50503461062e578160031936011261062e57602090611d6e610b006148b6565b509051908152f35b50503461062e578160031936011261062e576101585490516001600160a01b039091168152602090f35b50503461062e578160031936011261062e5760209061014a549051908152f35b8284346107845760c03660031901126107845750611ddc6151e1565b5061014f546001600160a01b03908116330361119657610cd2610cc891611e04366004615604565b93611e0d6151e1565b50611e166150c6565b611e1e6158d4565b611e4f610c688251637225da8960e11b6020820152611e4060248201896150e8565b60c48152610c5d60e482613d53565b9488858793969599949a01918251611e6b61014e9182546143cb565b905560a061118b8b8360608601511695516143cb565b8334610784576020366003190112610784576004356001600160a01b0381169081900361070c57611eb0615846565b61015380546001600160a01b031916909117905580f35b50503461062e578160031936011261062e57611ee16158d4565b60ca54601081901c6001600160a01b03163303611f4b5760ff811615611f3a5761ff0019166101001760ca55513381527f62e78cea01bee320cd4e420270b5ea74000d11b0c9f74754ebdbfc544b05a25890602090a180f35b815163866099c360e01b8152600490fd5b8151631d77d47760e21b8152600490fd5b50503461062e578160031936011261062e5760209061077d6117a6610b006148b6565b50503461062e578160031936011261062e5760209061015a549051908152f35b50503461062e578160031936011261062e5760209061077d611fc160016148f0565b610d3c611fce8284614555565b918361460b565b50503461062e578160031936011261062e576101c35490516001600160a01b039091168152602090f35b50503461062e57602036600319011261062e5760043591610148908154841015610784575060209261203091613c02565b91905490519160031b1c8152f35b833461078457602036600319011261078457612058615846565b6004356101495580f35b83346107845760203660031901126107845761207c615846565b6004356101405580f35b50503461062e578160031936011261062e57602090610190549051908152f35b8334610784576020366003190112610784576120c0615846565b6004356101415580f35b50503461062e578160031936011261062e57602090610134549051908152f35b50503461062e578160031936011261062e57602090610142549051908152f35b905082612118366004613c44565b61212898959197929493986150c6565b6121306158d4565b61213a8833614b16565b61214686519384613d53565b60018060a01b03809881809416855260209a868c870152888601528660608601523360808601521660a08401521660c0820152866121a160e48861014f54169387519485938492636b59c22f60e01b84526004840190615191565b34905af19485156114dc57946121d0575b506121cb906106dc939495610133541630903390615082565b61505c565b909293508581813d83116121fc575b6121e98183613d53565b8101031261070c575192916121cb6121b2565b503d6121df565b50503461062e5760a036600319011261062e5761221e615846565b6101349081549081158015906122aa575b61229a57508261225e916101319361225761224d60043587546144a6565b92602435906144a6565b90556144a6565b815561226c82610137613d37565b5061227a60443582546144a6565b90556122878282546144a6565b905560643561018f5560843561015b5580f35b51636ed93c2760e01b8152600490fd5b506122b784610137613d37565b5054151561222f565b8334610784576020366003190112610784576122da615846565b60043561013b5580f35b50503461062e578160031936011261062e57602090610156549051908152f35b50503461062e578160031936011261062e57602090610139549051908152f35b83346107845760203660031901126107845761233e615846565b6004356101545580f35b8334610784576020366003190112610784576004356001600160a01b0381169081900361070c57612377615846565b61015880546001600160a01b031916909117905580f35b8334610784576020366003190112610784576123a8615846565b60043561013e5580f35b50503461062e578160031936011261062e57602090610154549051908152f35b50503461062e578160031936011261062e57602090610149549051908152f35b833461078457806003193601126107845761240b615846565b600160ff1960ca54161760ca5580f35b50503461062e578160031936011261062e57602090611d6e614f05565b833461078457602036600319011261078457612452615846565b6004356101595580f35b50503461062e578160031936011261062e5761012f5490516001600160a01b039091168152602090f35b8284612493366004613da7565b94929061249e6150c6565b6124a66158d4565b6124b08133614b16565b8351916124be60a084613d53565b8252602080830184815233868501526001600160a01b03928316606085019081529783166080850190815261014f54875163e97a4d6360e01b815286516004820152925160248401526040909501518416604483015297518316606482015296518216608488015295918691839160a4918391166106c1565b50503461062e578160031936011261062e576101335490516001600160a01b039091168152602090f35b50503461062e578160031936011261062e5760209061014e549051908152f35b50503461062e578160031936011261062e5760209060ff60ca5460081c1690519015158152f35b50503461062e578160031936011261062e576125c26158d4565b61014d805443106127925761014c54430190557fd3c59bda47e141a8ec5a33d241b7f71b86e30d359f83a9227d912858b60404fc8280a16101375482612607826146b2565b91845b8181106126c35750508061267e575b918051928184019084526020918285015282518091528160608501930191855b82811061266a57867fae5116a8119d08673a0f1dfa7546b95da4bd54bb17feda7c61130ac7859152f687870388a180f35b835185529381019392810192600101612639565b612695670de0b6b3a76400009161013954906145d8565b046101316126a48282546143cb565b9055610146546126be9082906001600160a01b0316614275565b612619565b6126cc816147ef565b6126d68183614c1a565b8661015091866126e68585613c02565b90549060031b1c91838313612703575b505050505060010161260a565b946127488382969961274e946127428561273561273b6127659a60019e670de0b6b3a764000093849161013a546145d8565b046145d8565b04926144b3565b526144a6565b97613c02565b819391549060031b91821b91600019901b19161790565b905561278861277482876144b3565b5188848060a01b0361014754169184614b5a565b90863886816126f6565b815163101b685960e01b8152600490fd5b8284346107845781600319360112610784576001600160a01b03600435818116810361070c576024359161014f54163303610ab35790610ab09161014e828154039055614275565b50503461062e578160031936011261062e57602090610157549051908152f35b833461078457602036600319011261078457612825615846565b6004356101435580f35b8284346107845781600319360112610784576001600160a01b03600435818116810361070c578161014f54163303610ab35790610ab09160243591610133541661580d565b8334610784576020366003190112610784576004356001600160a01b038116810361070c57610ab090611c0a615846565b828434610784578060031936011261078457507f00000000000000000000000000000000000000000000000000000000000000006001600160a01b0316300361291157602090517f360894a13ba1a3210667c828492db98dca3e2076cc3735a920a3ca505d382bbc8152f35b5162461bcd60e51b815260206004820152603860248201527f555550535570677261646561626c653a206d757374206e6f742062652063616c60448201527f6c6564207468726f7567682064656c656761746563616c6c00000000000000006064820152608490fd5b8334610784578060031936011261078457612993615846565b60ff1960ca541660ca5580f35b50508060031936011261062e57600435906001600160a01b0390818316830361070c5783926024359267ffffffffffffffff8411611ca95736602385011215611ca9578360040135906129fe6129f583613d8b565b94519485613d53565b8184523660248387010111612a8c57610ab095602083612a7f946024600199018389013786010152807f00000000000000000000000000000000000000000000000000000000000000001690612a5682301415613dcd565b7f360894a13ba1a3210667c828492db98dca3e2076cc3735a920a3ca505d382bbc541614613e2e565b612a87615846565b613e8f565b8580fd5b50503461062e578160031936011261062e5760209061013b549051908152f35b50503461062e578160031936011261062e576101475490516001600160a01b039091168152602090f35b50503461062e578160031936011261062e5760209061014c549051908152f35b50503461062e57602036600319011261062e5760043561013780548210156109d45790612b2691613d37565b50805460019091015482519182526001600160a01b03166020820152f35b8391503461062e573660031901126107845750612b5f6151e1565b5061014f546001600160a01b03908116330361119657610cd2610cc891612b8736600461579a565b93612b906151e1565b50612b996150c6565b612ba16158d4565b611158610c68825163d9b6c2e560e01b6020820152610c4d6024820189615191565b828434610784578160031936011261078457506004356001600160a01b038181169182900361070c57602435918183169182840361070c57612c5992612c076158d4565b612c118533614b16565b612c1a3061442b565b90865193632ab7831f60e01b602086015260248501523360448501526064840152608483015260848252612c4f60a483613d53565b6101f65416614af4565b9160208380518101031261070c576106dc6020809401518093614275565b50503461062e578160031936011261062e5760209061013e549051908152f35b50503461062e578160031936011261062e5760209061077d612cc2612cba614f05565b9190916144c7565b91614d00565b50503461062e578160031936011261062e5760ca5460ff8160081c1615612dc35760018060a01b03808260101c163314159081612d43575b50611f4b5760ff811615611f3a5761ff00191660ca55513381527f5db9ee0a495bf2e6ff9c91a7834c1ba4fdd244a5e8aa4e537bd38aeae4b073aa90602090a180f35b609754845163d994d6d560e01b8152336004820152925060209183916024918391165afa908115612db6578491612d7d575b501538612d00565b90506020813d8211612dae575b81612d9760209383613d53565b810103126109d457612da8906142cc565b38612d75565b3d9150612d8a565b50505051903d90823e3d90fd5b8151637c7fd07960e01b8152600490fd5b8334610784576020366003190112610784576004356001600160a01b0381169081900361062e57612e03615846565b61014f80546001600160a01b031916909117905580f35b833461078457602036600319011261078457612e34615846565b6004356101905580f35b83833461062e5761010091826003193601126107845750612e5d6151e1565b5061014f546001600160a01b0392908316330361119657612e8082519182613d53565b600435838116810361070c578152602435838116810361070c5760208201526044358282015260643560608201526080810191608435835260a43590848216820361070c5760a0830191825260c435858116810361070c5760c084015260e43592858416840361070c5785610cd295612f3c610c686108ae610c5d8661137e9d610cc898019a8b52612f106151e1565b50612f196150c6565b612f216158d4565b88516370f090ed60e11b60208201529283916024830161512d565b9892809b8a96939d9299865161137361014e9182546143cb565b50503461062e57602036600319011261062e5760043591610138908154841015610784575060209261203091613c02565b50503461062e57602036600319011261062e57600435906001600160a01b0390818316830361070c57610ab092612fe98386947f00000000000000000000000000000000000000000000000000000000000000001690612a5682301415613dcd565b612ff1615846565b613006612ffd84613d8b565b92519283613d53565b828252601f1961301584613d8b565b01366020840137613e8f565b828461302e366004613c44565b969461303e9891939492986150c6565b6130466158d4565b6130508433614b16565b61305c86519283613d53565b60018060a01b039788808093169586855260209b868d870152888a87015260608601523360808601521660a08401521660c0820152876130b960e48961014f5416938851948593849263e4e1b72960e01b84526004840190615191565b34905af195861561311f57956130ec575b506130e3906106dc949596610133541630903390615082565b30903390615082565b909394508681813d8311613118575b6131058183613d53565b8101031261070c575193926130e36130ca565b503d6130fb565b8551903d90823e3d90fd5b50503461062e578160031936011261062e576131446143ee565b61314c6158d4565b61014b805460ff811680613217575b806131fd575b613169578380f35b61ff00191661010017905580519082907f8b77276c97a5709f0d6db52329848a254eb760ce8be80d281799f633bdb69e838280a1610133546001600160a01b0316803b156108d25783600481858094638456cb5960e01b83525af19081156131f257506131e2575b50506131db6146e4565b3880808380f35b6131eb91613d53565b38816131d1565b51913d9150823e3d90fd5b5061320c6117a6610b006148b6565b61014a541015613161565b5060ff8160081c161561315b565b50503461062e578160031936011261062e5760209061013f549051908152f35b83838260031936011261062e576001600160a01b0392600435848116908190036109d45760243590858216809203611ca957604435916084359360a43597808916988981036133785760c4359082821680920361337457906132bd613318959493926132af6150c6565b6132b76158d4565b33614b16565b8851926132cc61010085613d53565b86845260209b8c9586860152888b86015260643560608601528960808601523360a086015260c085015283015261014f5416875180809581946334975a4160e01b83526004830161512d565b039134905af195861561311f578096613340575b50506106dc92916121cb9130903390615082565b909195508682813d831161336d575b6133598183613d53565b8101031261078457505193816121cb61332c565b503d61334f565b8980fd5b8880fd5b8284613389366004613cc5565b91613396969491966150c6565b61339e6158d4565b6133a88733614b16565b61340c60c48651936133bb60c086613d53565b60018060a01b0380809216968787528160209c8d978b898b01528c8a01523360608a01521660808801521660a086015261014f54169387519485938492636426c5db60e11b845260048401906150e8565b34905af19485156114dc57809561342e575b5050906106dc9130903390615082565b909194508582813d831161345b575b6134478183613d53565b81010312610784575051926106dc8661341e565b503d61343d565b50503461062e578160031936011261062e57602090610143549051908152f35b8334610784576020366003190112610784576004356001600160a01b038116810361062e576134af615846565b60ca805462010000600160b01b03191660109290921b62010000600160b01b031691909117905580f35b8334610784576020366003190112610784576134f3615846565b60043561014a5580f35b50503461062e578160031936011261062e57602090610140549051908152f35b8334610784576020366003190112610784576004356001600160a01b0381169081900361062e5761354c615846565b61014780546001600160a01b031916909117905580f35b50503461062e578160031936011261062e576102295490516001600160a01b039091168152602090f35b50503461062e57602036600319011261062e576004356001600160a01b038116908190036108d25782829160209452610144845220549051908152f35b50503461062e578160031936011261062e5760209060ff61014b5460081c1690519015158152f35b50503461062e5760a036600319011261062e5761360d6151e1565b5061014f546001600160a01b03929083163303611196579061369e91613634366004615208565b9161363d6151e1565b506136466150c6565b61364e6158d4565b670de0b6b3a7640000613671610f5c61366861158d6148b6565b87519291614ccc565b04948184019080825116916136936080870193898486511661013c54926152a8565b96918a9991996144a6565b9660208101998a51808a116137c7575088156137b6578160209186606061372196955193015116906101346136d48482546144a6565b90556136e46101319182546144a6565b90556101335489516340c10f1960e01b81526001600160a01b03909216600483015260248201929092529384918716908290859082906044820190565b03925af180156137aa57613754575b505096611030928261137e888895610cd29a9b9c865161137361014e9182546143cb565b6020823d82116137a2575b8161376c60209383613d53565b810103126107845750928261137e888895610cd29a9b9c95613790611030996142cc565b50959c9b509550985050819450613730565b3d915061375f565b508551903d90823e3d90fd5b865163f3e39b5d60e01b8152600490fd5b6044908a895191630b63f1a760e01b835260048301526024820152fd5b8334610784576020366003190112610784576137fe615846565b6004356101425580f35b83346107845760203660031901126107845760043580151580910361062e5761382f615846565b61014b9060ff8019835416911617905580f35b50503461062e578160031936011261062e5760209061077d613865610b006148b6565b90614ccc565b50503461062e578160031936011261062e5760209061014d549051908152f35b838360e461392161389d366004613c44565b946138ad9a94969297919a6150c6565b6138b56158d4565b6138bf8b33614b16565b6138cb89519586613d53565b60018060a01b0380809216968787528160209d8e978b898b01528d8a01528b60608a01523360808a01521660a08801521660c086015261014f541693885194859384926263744760e11b84526004840190615191565b34905af195861561311f5780966133405750506106dc92916121cb9130903390615082565b50503461062e578160031936011261062e5761014f5490516001600160a01b039091168152602090f35b8334610784576020366003190112610784576004356001600160a01b0381169081900361062e5761399f615846565b61013080546001600160a01b031916909117905580f35b8334610784576020366003190112610784576139d0615846565b60043561013f5580f35b50503461062e578160031936011261062e57602090610159549051908152f35b8334610784576020366003190112610784576004356001600160a01b0381169081900361062e57613a29615846565b61014680546001600160a01b031916909117905580f35b50503461062e578160031936011261062e5760209061018f549051908152f35b50503461062e578160031936011261062e5760975490516001600160a01b039091168152602090f35b83346107845760203660031901126107845760043580151580910361062e57613ab0615846565b61014b9062ff000082549160101b169062ff0000191617905580f35b833461078457602036600319011261078457613ae6615846565b60043561015a5580f35b50503461062e578160031936011261062e57613b0a6158d4565b61015b80544310613b8657610ab09160209161015a5443019055613b726101319182547f0e37fda283839477a1b77e29acf8336c0e13a5daa967913df0fe5ad258c0822f670de0b6b3a7640000613b6461015954846145d8565b0495869351848152a16143cb565b9055610158546001600160a01b0316614275565b815163acce20e560e01b8152600490fd5b50503461062e57602036600319011261062e57600435916101359081548410156107845750602092613bc891613c02565b905491519160018060a01b039160031b1c168152f35b833461078457602036600319011261078457613bf8615846565b60043561013a5580f35b8054821015613c1a5760005260206000200190600090565b634e487b7160e01b600052603260045260246000fd5b35906001600160a01b038216820361070c57565b91908260c091031261070c57613c5982613c30565b91602081013591604082013591606081013591613c8460a0613c7d60808501613c30565b9301613c30565b90565b604090613cc3939594929560c0820196825260208201520190606080918051845260208101516020850152604081015160408501520151910152565b565b908160a091031261070c57613cd981613c30565b91602082013591604081013591613c846080613c7d60608501613c30565b613cc39360609296959360e08301978352602083015260408201520190606080918051845260208101516020850152604081015160408501520151910152565b8054821015613c1a5760005260206000209060011b0190600090565b90601f8019910116810190811067ffffffffffffffff821117613d7557604052565b634e487b7160e01b600052604160045260246000fd5b67ffffffffffffffff8111613d7557601f01601f191660200190565b919082608091031261070c57813591602081013591613c846060613c7d60408501613c30565b15613dd457565b60405162461bcd60e51b815260206004820152602c60248201527f46756e6374696f6e206d7573742062652063616c6c6564207468726f7567682060448201526b19195b1959d85d1958d85b1b60a21b6064820152608490fd5b15613e3557565b60405162461bcd60e51b815260206004820152602c60248201527f46756e6374696f6e206d7573742062652063616c6c6564207468726f7567682060448201526b6163746976652070726f787960a01b6064820152608490fd5b9060ff7f4910fdfa16fed3260ed0e7147f7cc6da11a60208b5b9406d12a635614ffd91435416600014613ec75750613cc3915061407b565b6040516352d1902d60e01b8152602093919291906001600160a01b038316908581600481855afa6000918161404c575b50613f585760405162461bcd60e51b815260048101879052602e60248201527f45524331393637557067726164653a206e657720696d706c656d656e7461746960448201526d6f6e206973206e6f74205555505360901b6064820152608490fd5b9394937fc9f76b5ec45e5cdef99837d7b6d2467235c1df8933c8ca56df5c35afa2c7d44401613ff557613f8a8361407b565b7fbc7cd75a20ee27fd9adebab32041f755214dbc6bffa90cc0225b39da2e5c2d3b600080a283511590811591613fed575b50613fc557505050565b600080613fea94613fd461411d565b9481519101845af4613fe4614171565b916141a1565b50565b905038613fbb565b60405162461bcd60e51b815260048101859052602960248201527f45524331393637557067726164653a20756e737570706f727465642070726f786044820152681a58589b195555525160ba1b6064820152608490fd5b90918782813d8311614074575b6140638183613d53565b810103126107845750519038613ef7565b503d614059565b803b156140c2577f360894a13ba1a3210667c828492db98dca3e2076cc3735a920a3ca505d382bbc80546001600160a01b0319166001600160a01b03909216919091179055565b60405162461bcd60e51b815260206004820152602d60248201527f455243313936373a206e657720696d706c656d656e746174696f6e206973206e60448201526c1bdd08184818dbdb9d1c9858dd609a1b6064820152608490fd5b6141276027613d8b565b906141356040519283613d53565b60278252660819985a5b195960ca1b6040837f416464726573733a206c6f772d6c6576656c2064656c65676174652063616c6c60208201520152565b3d1561419c573d9061418282613d8b565b916141906040519384613d53565b82523d6000602084013e565b606090565b9192901561420357508151156141b5575090565b3b156141be5790565b60405162461bcd60e51b815260206004820152601d60248201527f416464726573733a2063616c6c20746f206e6f6e2d636f6e74726163740000006044820152606490fd5b8251909150156142165750805190602001fd5b6040519062461bcd60e51b82528160208060048301528251908160248401526000935b82851061425c575050604492506000838284010152601f80199101168101030190fd5b8481018201518686016044015293810193859350614239565b908061427f575050565b6102295460405163a9059cbb60e01b60208201526001600160a01b0393841660248201526044810192909252613cc392166142c782606481015b03601f198101845283613d53565b6142d9565b5190811515820361070c57565b60209161433c916001600160a01b03166000806142f586613d8b565b936143036040519586613d53565b8685527f5361666545524332303a206c6f772d6c6576656c2063616c6c206661696c656487860152868151910182855af1613fe4614171565b80518281159182156143ac575b50509050156143555750565b6084906040519062461bcd60e51b82526004820152602a60248201527f5361666545524332303a204552433230206f7065726174696f6e20646964206e6044820152691bdd081cdd58d8d9595960b21b6064820152fd5b838092935001031261070c57816143c391016142cc565b808238614349565b919082039182116143d857565b634e487b7160e01b600052601160045260246000fd5b6143f73061442b565b6101319061441461440a835480936143cb565b61014e54906143cb565b8061441e57505050565b614427916144a6565b9055565b610229546040516370a0823160e01b81526001600160a01b0392831660048201529160209183916024918391165afa90811561449a5760009161446c575090565b906020823d8211614492575b8161448560209383613d53565b8101031261078457505190565b3d9150614478565b6040513d6000823e3d90fd5b919082018092116143d857565b8051821015613c1a5760209160051b010190565b906000916000906101378054906000925b8284106144fe57505050506144fa670de0b6b3a76400009161013954906145d8565b0490565b909192939561454b61453a61454560019361453f61451c8a886144b3565b51614527818c614571565b95906145338d8c613d37565b50546144a6565b6158f5565b906144a6565b986144a6565b94019291906144d8565b919091600083820193841291129080158216911516176143d857565b919060009061459f8160009561459561458c82610150613c02565b93905492614624565b9160031b1c614555565b600081136145ae575b50509190565b6145d091945061273592508094670de0b6b3a764000093849161013a546145d8565b0438806145a8565b818102929181159184041417156143d857565b81156145f5570490565b634e487b7160e01b600052601260045260246000fd5b818103929160001380158285131691841216176143d857565b61463081610137613d37565b505490670de0b6b3a7640000918281029281840414901517156143d857613c849261467061466361467693610151613c02565b90549060031b1c846145eb565b926145eb565b9061460b565b80156146925761453a613c8492610131546143cb565b505060001990565b67ffffffffffffffff8111613d755760051b60200190565b906146bc8261469a565b6146c96040519182613d53565b82815280926146da601f199161469a565b0190602036910137565b610131548015613fea5761013790815491600090614701846146b2565b9082905b85821061477057505060005b84811061471f575050505050565b61473c846147378561473185876144b3565b516145d8565b6145eb565b9061013891825468010000000000000000811015613d755761274e816001958661476894018155613c02565b905501614711565b90926147ac600191614781866147ef565b61478b87876144b3565b5261453f6147998786613d37565b50546147a588886144b3565b51906158f5565b930190614705565b6001600160a01b0316600090815261013660205260409020600181015460ff16156147dd575490565b60405163e6c4247b60e01b8152600490fd5b6147fb90610137613d37565b50600101546001600160a01b031661481281614850565b9190911561481e575090565b60249060405190637f6e4db960e01b82526004820152fd5b919082604091031261070c57613c846020835193016142cc565b604080516359e02dd760e01b81529291839060049082906001600160a01b03165afa91821561449a57600090819361488757509190565b90506148ab91925060403d81116148af575b6148a38183613d53565b810190614836565b9091565b503d614899565b61013754906148c4826146b2565b9160005b8181106148d3575050565b806148df6001926147ef565b6148e982876144b3565b52016148c8565b90614911670de0b6b3a76400009283610157546101545492430103026145eb565b8281101561492e5782039180836101555402049261015654020590565b50600091508190565b9091614941614999565b92908082101561498f578391614956916143cb565b93111561498a57818110156149825761496e916143cb565b60011c8082101561497d575090565b905090565b505050600090565b505090565b5050505050600090565b61015254604080516359e02dd760e01b80825293929091906001600160a01b039081168284600481845afa8015614a89576000948591614a66575b5015614a4f575061015354169080519485528085600481855afa8015614a44576000958691614a21575b5015614a0a5750509190565b6024925051906305e8989360e11b82526004820152fd5b905081614a3b9296503d87116148af576148a38183613d53565b949094386149fe565b50513d6000823e3d90fd5b6024908351906305e8989360e11b82526004820152fd5b9050614a80919450833d85116148af576148a38183613d53565b939093386149d4565b83513d6000823e3d90fd5b15614a9b57565b60405162461bcd60e51b815260206004820152602b60248201527f496e697469616c697a61626c653a20636f6e7472616374206973206e6f74206960448201526a6e697469616c697a696e6760a81b6064820152608490fd5b90613c8491600080614b0461411d565b93602081519101845af4613fe4614171565b60ff61014b5460101c16159182614b42575b5050614b3057565b604051636f97b88360e01b8152600490fd5b6001600160a01b039182169116141590503880614b28565b614bc893614b8f600092602095614b7382610137613d37565b50614b7f8782546144a6565b90556116346101319182546144a6565b90546040516340c10f1960e01b81526001600160a01b039093166004840152602483019490945290948593928492909183906044820190565b039360039190911b1c6001600160a01b03165af1801561449a57614be95750565b6020813d8211614c12575b81614c0160209383613d53565b8101031261070c57613fea906142cc565b3d9150614bf4565b61274e61442791614c2b8482614624565b614c61614c3a83610150613c02565b614c4d8294925492838360031b1c614555565b919060031b91821b91600019901b19161790565b9055610151613c02565b60e08101929160c09081906001600160a01b0380614c8883613c30565b168552614c9760208301613c30565b16602085015260408101356040850152606081013560608501526080810135608085015260a081013560a08501520135910152565b9061013454908115614cf157613c8492614cec61453a92610131546143cb565b6143cb565b505050670de0b6b3a764000090565b8282614d0b92614d28565b90600082131561498257613c8492614d2291614ccc565b906145eb565b9091614d3790610131546143cb565b90670de0b6b3a7640000918281029281840414901517156143d857613c8492614676916145d8565b92614d6d9293949194614d28565b81810291600091600160ff1b9183821283821416614e11578185051490151715614dfd57670de0b6b3a763ffff198401938411614dfd57670de0b6b3a764000093848102948186041490151715614dfd578315614de9578214600019841416614dd557500590565b634e487b7160e01b81526011600452602490fd5b634e487b7160e01b82526012600452602482fd5b634e487b7160e01b82526011600452602482fd5b634e487b7160e01b84526011600452602484fd5b61014d5480431015614e3c57613c849043906143cb565b50600090565b90604051614e51604082613d53565b602060018294805484520154910152565b614e6e81610148613c02565b90549060031b1c9161018e91614e848184613d37565b50549261018f54431015614eaa575b50508082101561498a5761473790613c84936145d8565b829350614ebe614ec99392614ec492613d37565b50614e42565b614ed1565b903880614e93565b602081519101805192670de0b6b3a7640000938403908482116143d857614efe61453f926144fa956145d8565b92516145d8565b60008061013791825492614f18846146b2565b9382915b818310614f45575050508115614f395790614f36916145eb565b91565b50506101495460011b91565b90919392614f52856147ef565b9081614f5e87896144b3565b52614f77614f6c8388614571565b506145338886613d37565b670de0b6b3a7640000908181029181830414901517156143d857614fb9614fbf9261453f85614fab600197614fb4966158f5565b9485918c614e62565b6145d8565b956144a6565b94019190614f1c565b61018f8054431015614fd75750565b6101375460005b818110614ff15750506101905443019055565b80807f19156e9379c7bbbce8f646ce5ee30ba860b8f954717405f3d5859a6c1a21ae6060019361018e615027614ebe8383613d37565b9061504561503d615037856147ef565b84614ed1565b938492613d37565b50555160409182519182526020820152a201614fde565b613cc39061014e61506e8282546144a6565b905561022954309033906001600160a01b03165b6040516323b872dd60e01b60208201526001600160a01b039283166024820152929091166044830152606480830193909352918152613cc3916142c7608483613d53565b60ff61014b5460081c166150d657565b604051631ca61d7760e01b8152600490fd5b60a09081600180821b03918281511685526020810151602086015260408101516040860152826060820151166060860152826080820151166080860152015116910152565b91909160e06101008201938160018060a01b03918281511685528260208201511660208601526040810151604086015260608101516060860152608081015160808601528260a08201511660a08601528260c08201511660c0860152015116910152565b60c0908160018060a01b03918281511685526020810151602086015260408101516040860152606081015160608601528260808201511660808601528260a08201511660a0860152015116910152565b604051906151f0608083613d53565b60006060838281528260208201528260408201520152565b91908260a091031261070c5760405161522260a082613d53565b6080615260818395803585526020810135602086015261524460408201613c30565b604086015261525560608201613c30565b606086015201613c30565b910152565b9190615270906144c7565b91909261527d838561467c565b908082111561528a575050565b6044925060405191637912120160e01b835260048301526024820152fd5b9290939160009160009182966152bc6151e1565b966001600160a01b039185908316806154c8575b508261012f54168360405193636eb1769f60e11b8552168060048501523060248501526020948585604481865afa9485156154bd57849561548e575b508461536d575b505050505086015115615329575b505050929190565b90919250615341670de0b6b3a76400009283926145d8565b048085529082156153655761535d9204908160408601526144a6565b388080615321565b50905061535d565b61537b906101305416614850565b9290921561531357909192939b50848b6153b585670de0b6b3a76400006153af6153a58d8d6145d8565b61014354906145d8565b046145eb565b81830181815295908b1561548457506153e0916153d46060928d6145eb565b918291015285516144a6565b809d5b1092831561540f575b5050506153fc575b808080615313565b81929950528060608801529638806153f4565b909192506024604051809481936370a0823160e01b835260048301525afa90811561547957908b918491615448575b50103884816153ec565b809250858092503d8311615472575b6154618183613d53565b810103126108d2578a90513861543e565b503d615457565b6040513d85823e3d90fd5b915050809d6153e3565b9094508581813d83116154b6575b6154a68183613d53565b810103126109d45751933861530c565b503d61549c565b6040513d86823e3d90fd5b9095506020836101c35416916024604051809481936364a731e960e01b835260048301525afa801561554057869061550d575b6155069150846145d8565b94386152d0565b506020813d8211615538575b8161552660209383613d53565b81010312612a8c5761550690516154fb565b3d9150615519565b6040513d88823e3d90fd5b92613cc394919293825115156000146155bb575060406155b6926155ae670de0b6b3a764000061558061013b548451906145d8565b0461013161558f8282546144a6565b90556155a860018060a01b0361014654169184516143cb565b90614275565b015190614275565b614275565b9060606155b6936155dd60018060a01b036101465416602083015190866155e1565b0151915b9190816155ed57505050565b61012f54613cc393906001600160a01b0316615082565b91908260c091031261070c5760405161561e60c082613d53565b60a061526081839561562f81613c30565b8552602081013560208601526040810135604086015261565160608201613c30565b606086015261566260808201613c30565b608086015201613c30565b9061567a94939291614d5f565b60008112614e3c5790565b8061568e614999565b91909361569b60006148f0565b9401938291615733575b019384600080821261572d57505b8403918185116156f55750508181116156d757505061015555610156554361015755565b60449250604051916306da41e560e11b835260048301526024820152fd5b908085921161571b57604491604051916306da41e560e11b835260048301526024820152fd5b604051630fb4fd3560e11b8152600490fd5b036156b3565b905081600003906156a5565b80910360e0811261070c578151926020830151926080604082015193605f19011261070c5760c060405191615775608084613d53565b606081015183526080810151602084015260a081015160408401520151606082015290565b91908260e091031261070c576040516157b460e082613d53565b60c06152608183956157c581613c30565b85526020810135602086015260408101356040860152606081013560608601526157f160808201613c30565b608086015261580260a08201613c30565b60a086015201613c30565b60405163a9059cbb60e01b60208201526001600160a01b0390921660248301526044820192909252613cc3916142c782606481016142b9565b60975460405163d994d6d560e01b815233600482015290602090829060249082906001600160a01b03165afa90811561449a5760009161589b575b501561588957565b604051631dd1b1b560e21b8152600490fd5b906020823d82116158cc575b816158b460209383613d53565b8101031261078457506158c6906142cc565b38615881565b3d91506158a7565b60ff60ca5460081c166158e357565b60405163783bb6c960e11b8152600490fd5b90670de0b6b3a7640000918281029281840414901517156143d857613c84916145eb565b670de0b6b3a7640000111561592a57565b604051632a9ffab760e21b8152600490fdfea2646970667358221220febdf9a409d7cf49d3eb011a57618fc1b1a7979a6d1371668c6e191019f7cd9064736f6c63430008140033",
  "linkReferences": {},
  "deployedLinkReferences": {}
}