{
  "_format": "hh-sol-artifact-1",
  "contractName": "MocRif",
  "sourceName": "contracts/MocRif.sol",
  "abi": [
    {
      "inputs": [
        {
          "internalType": "uint256",
          "name": "qACsent_",
          "type": "uint256"
        },
        {
          "internalType": "uint256",
          "name": "qACNeeded_",
          "type": "uint256"
        }
      ],
      "name": "InsufficientQacSent",
      "type": "error"
    },
    {
      "inputs": [
        {
          "internalType": "uint256",
          "name": "qTPsent_",
          "type": "uint256"
        },
        {
          "internalType": "uint256",
          "name": "qTPNeeded_",
          "type": "uint256"
        }
      ],
      "name": "InsufficientQtpSent",
      "type": "error"
    },
    {
      "inputs": [
        {
          "internalType": "uint256",
          "name": "qTC_",
          "type": "uint256"
        },
        {
          "internalType": "uint256",
          "name": "tcAvailableToRedeem_",
          "type": "uint256"
        }
      ],
      "name": "InsufficientTCtoRedeem",
      "type": "error"
    },
    {
      "inputs": [
        {
          "internalType": "uint256",
          "name": "qTP_",
          "type": "uint256"
        },
        {
          "internalType": "uint256",
          "name": "tpAvailableToMint_",
          "type": "uint256"
        }
      ],
      "name": "InsufficientTPtoMint",
      "type": "error"
    },
    {
      "inputs": [
        {
          "internalType": "uint256",
          "name": "qTP_",
          "type": "uint256"
        },
        {
          "internalType": "uint256",
          "name": "tpAvailableToRedeem_",
          "type": "uint256"
        }
      ],
      "name": "InsufficientTPtoRedeem",
      "type": "error"
    },
    {
      "inputs": [],
      "name": "InvalidAddress",
      "type": "error"
    },
    {
      "inputs": [],
      "name": "InvalidValue",
      "type": "error"
    },
    {
      "inputs": [],
      "name": "Liquidated",
      "type": "error"
    },
    {
      "inputs": [
        {
          "internalType": "uint256",
          "name": "cglb_",
          "type": "uint256"
        },
        {
          "internalType": "uint256",
          "name": "covThrld_",
          "type": "uint256"
        }
      ],
      "name": "LowCoverage",
      "type": "error"
    },
    {
      "inputs": [],
      "name": "MissingBlocksToSettlement",
      "type": "error"
    },
    {
      "inputs": [],
      "name": "MissingBlocksToTCInterestPayment",
      "type": "error"
    },
    {
      "inputs": [
        {
          "internalType": "address",
          "name": "priceProviderAddress_",
          "type": "address"
        }
      ],
      "name": "MissingProviderPrice",
      "type": "error"
    },
    {
      "inputs": [],
      "name": "NotAuthorizedChanger",
      "type": "error"
    },
    {
      "inputs": [],
      "name": "NotWhenPaused",
      "type": "error"
    },
    {
      "inputs": [],
      "name": "OnlyPauser",
      "type": "error"
    },
    {
      "inputs": [],
      "name": "OnlyWhenLiquidated",
      "type": "error"
    },
    {
      "inputs": [],
      "name": "OnlyWhilePaused",
      "type": "error"
    },
    {
      "inputs": [],
      "name": "PeggedTokenAlreadyAdded",
      "type": "error"
    },
    {
      "inputs": [
        {
          "internalType": "uint256",
          "name": "qACmin_",
          "type": "uint256"
        },
        {
          "internalType": "uint256",
          "name": "qACtoRedeem_",
          "type": "uint256"
        }
      ],
      "name": "QacBelowMinimumRequired",
      "type": "error"
    },
    {
      "inputs": [],
      "name": "QacNeededMustBeGreaterThanZero",
      "type": "error"
    },
    {
      "inputs": [
        {
          "internalType": "uint256",
          "name": "qTCmin_",
          "type": "uint256"
        },
        {
          "internalType": "uint256",
          "name": "qTC_",
          "type": "uint256"
        }
      ],
      "name": "QtcBelowMinimumRequired",
      "type": "error"
    },
    {
      "inputs": [
        {
          "internalType": "uint256",
          "name": "qTPmin_",
          "type": "uint256"
        },
        {
          "internalType": "uint256",
          "name": "qTP_",
          "type": "uint256"
        }
      ],
      "name": "QtpBelowMinimumRequired",
      "type": "error"
    },
    {
      "inputs": [],
      "name": "TransferFailed",
      "type": "error"
    },
    {
      "inputs": [],
      "name": "Unstoppable",
      "type": "error"
    },
    {
      "inputs": [],
      "name": "protocolAlreadyMigrated",
      "type": "error"
    },
    {
      "anonymous": false,
      "inputs": [
        {
          "indexed": false,
          "internalType": "address",
          "name": "previousAdmin",
          "type": "address"
        },
        {
          "indexed": false,
          "internalType": "address",
          "name": "newAdmin",
          "type": "address"
        }
      ],
      "name": "AdminChanged",
      "type": "event"
    },
    {
      "anonymous": false,
      "inputs": [
        {
          "indexed": true,
          "internalType": "address",
          "name": "beacon",
          "type": "address"
        }
      ],
      "name": "BeaconUpgraded",
      "type": "event"
    },
    {
      "anonymous": false,
      "inputs": [],
      "name": "ContractLiquidated",
      "type": "event"
    },
    {
      "anonymous": false,
      "inputs": [
        {
          "indexed": false,
          "internalType": "uint8",
          "name": "version",
          "type": "uint8"
        }
      ],
      "name": "Initialized",
      "type": "event"
    },
    {
      "anonymous": false,
      "inputs": [
        {
          "indexed": true,
          "internalType": "address",
          "name": "tp_",
          "type": "address"
        },
        {
          "indexed": true,
          "internalType": "address",
          "name": "sender_",
          "type": "address"
        },
        {
          "indexed": true,
          "internalType": "address",
          "name": "recipient_",
          "type": "address"
        },
        {
          "indexed": false,
          "internalType": "uint256",
          "name": "qTP_",
          "type": "uint256"
        },
        {
          "indexed": false,
          "internalType": "uint256",
          "name": "qAC_",
          "type": "uint256"
        }
      ],
      "name": "LiqTPRedeemed",
      "type": "event"
    },
    {
      "anonymous": false,
      "inputs": [
        {
          "indexed": false,
          "internalType": "address",
          "name": "account",
          "type": "address"
        }
      ],
      "name": "Paused",
      "type": "event"
    },
    {
      "anonymous": false,
      "inputs": [
        {
          "indexed": false,
          "internalType": "uint256",
          "name": "i_",
          "type": "uint256"
        },
        {
          "components": [
            {
              "internalType": "address",
              "name": "tpTokenAddress",
              "type": "address"
            },
            {
              "internalType": "address",
              "name": "priceProviderAddress",
              "type": "address"
            },
            {
              "internalType": "uint256",
              "name": "tpCtarg",
              "type": "uint256"
            },
            {
              "internalType": "uint256",
              "name": "tpMintFee",
              "type": "uint256"
            },
            {
              "internalType": "uint256",
              "name": "tpRedeemFee",
              "type": "uint256"
            },
            {
              "internalType": "uint256",
              "name": "tpEma",
              "type": "uint256"
            },
            {
              "internalType": "uint256",
              "name": "tpEmaSf",
              "type": "uint256"
            }
          ],
          "indexed": false,
          "internalType": "struct PeggedTokenParams",
          "name": "peggedTokenParams_",
          "type": "tuple"
        }
      ],
      "name": "PeggedTokenChange",
      "type": "event"
    },
    {
      "anonymous": false,
      "inputs": [],
      "name": "SettlementExecuted",
      "type": "event"
    },
    {
      "anonymous": false,
      "inputs": [
        {
          "indexed": false,
          "internalType": "uint256",
          "name": "mocGain_",
          "type": "uint256"
        },
        {
          "indexed": false,
          "internalType": "uint256[]",
          "name": "tpGain_",
          "type": "uint256[]"
        }
      ],
      "name": "SuccessFeeDistributed",
      "type": "event"
    },
    {
      "anonymous": false,
      "inputs": [
        {
          "indexed": false,
          "internalType": "uint256",
          "name": "interestAmount_",
          "type": "uint256"
        }
      ],
      "name": "TCInterestPayment",
      "type": "event"
    },
    {
      "anonymous": false,
      "inputs": [
        {
          "indexed": true,
          "internalType": "uint256",
          "name": "i_",
          "type": "uint256"
        },
        {
          "indexed": false,
          "internalType": "uint256",
          "name": "oldTPema_",
          "type": "uint256"
        },
        {
          "indexed": false,
          "internalType": "uint256",
          "name": "newTPema_",
          "type": "uint256"
        }
      ],
      "name": "TPemaUpdated",
      "type": "event"
    },
    {
      "anonymous": false,
      "inputs": [
        {
          "indexed": false,
          "internalType": "address",
          "name": "account",
          "type": "address"
        }
      ],
      "name": "Unpaused",
      "type": "event"
    },
    {
      "anonymous": false,
      "inputs": [
        {
          "indexed": true,
          "internalType": "address",
          "name": "implementation",
          "type": "address"
        }
      ],
      "name": "Upgraded",
      "type": "event"
    },
    {
      "inputs": [],
      "name": "acToken",
      "outputs": [
        {
          "internalType": "contract IERC20",
          "name": "",
          "type": "address"
        }
      ],
      "stateMutability": "view",
      "type": "function"
    },
    {
      "inputs": [
        {
          "components": [
            {
              "internalType": "address",
              "name": "tpTokenAddress",
              "type": "address"
            },
            {
              "internalType": "address",
              "name": "priceProviderAddress",
              "type": "address"
            },
            {
              "internalType": "uint256",
              "name": "tpCtarg",
              "type": "uint256"
            },
            {
              "internalType": "uint256",
              "name": "tpMintFee",
              "type": "uint256"
            },
            {
              "internalType": "uint256",
              "name": "tpRedeemFee",
              "type": "uint256"
            },
            {
              "internalType": "uint256",
              "name": "tpEma",
              "type": "uint256"
            },
            {
              "internalType": "uint256",
              "name": "tpEmaSf",
              "type": "uint256"
            }
          ],
          "internalType": "struct PeggedTokenParams",
          "name": "peggedTokenParams_",
          "type": "tuple"
        }
      ],
      "name": "addPeggedToken",
      "outputs": [],
      "stateMutability": "nonpayable",
      "type": "function"
    },
    {
      "inputs": [],
      "name": "appreciationFactor",
      "outputs": [
        {
          "internalType": "uint256",
          "name": "",
          "type": "uint256"
        }
      ],
      "stateMutability": "view",
      "type": "function"
    },
    {
      "inputs": [],
      "name": "bes",
      "outputs": [
        {
          "internalType": "uint256",
          "name": "",
          "type": "uint256"
        }
      ],
      "stateMutability": "view",
      "type": "function"
    },
    {
      "inputs": [],
      "name": "bns",
      "outputs": [
        {
          "internalType": "uint256",
          "name": "",
          "type": "uint256"
        }
      ],
      "stateMutability": "view",
      "type": "function"
    },
    {
      "inputs": [],
      "name": "calcCtargemaCA",
      "outputs": [
        {
          "internalType": "uint256",
          "name": "ctargemaCA",
          "type": "uint256"
        }
      ],
      "stateMutability": "view",
      "type": "function"
    },
    {
      "inputs": [
        {
          "internalType": "contract IGovernor",
          "name": "newGovernor_",
          "type": "address"
        }
      ],
      "name": "changeGovernor",
      "outputs": [],
      "stateMutability": "nonpayable",
      "type": "function"
    },
    {
      "inputs": [
        {
          "components": [
            {
              "internalType": "address",
              "name": "tpTokenAddress",
              "type": "address"
            },
            {
              "internalType": "address",
              "name": "priceProviderAddress",
              "type": "address"
            },
            {
              "internalType": "uint256",
              "name": "tpCtarg",
              "type": "uint256"
            },
            {
              "internalType": "uint256",
              "name": "tpMintFee",
              "type": "uint256"
            },
            {
              "internalType": "uint256",
              "name": "tpRedeemFee",
              "type": "uint256"
            },
            {
              "internalType": "uint256",
              "name": "tpEma",
              "type": "uint256"
            },
            {
              "internalType": "uint256",
              "name": "tpEmaSf",
              "type": "uint256"
            }
          ],
          "internalType": "struct PeggedTokenParams",
          "name": "peggedTokenParams_",
          "type": "tuple"
        }
      ],
      "name": "editPeggedToken",
      "outputs": [],
      "stateMutability": "nonpayable",
      "type": "function"
    },
    {
      "inputs": [],
      "name": "emaCalculationBlockSpan",
      "outputs": [
        {
          "internalType": "uint256",
          "name": "",
          "type": "uint256"
        }
      ],
      "stateMutability": "view",
      "type": "function"
    },
    {
      "inputs": [],
      "name": "evalLiquidation",
      "outputs": [],
      "stateMutability": "nonpayable",
      "type": "function"
    },
    {
      "inputs": [
        {
          "components": [
            {
              "internalType": "uint256",
              "name": "qTC",
              "type": "uint256"
            },
            {
              "internalType": "uint256",
              "name": "qACmax",
              "type": "uint256"
            },
            {
              "internalType": "address",
              "name": "sender",
              "type": "address"
            },
            {
              "internalType": "address",
              "name": "recipient",
              "type": "address"
            },
            {
              "internalType": "address",
              "name": "vendor",
              "type": "address"
            }
          ],
          "internalType": "struct MocCore.MintTCParams",
          "name": "params_",
          "type": "tuple"
        }
      ],
      "name": "execMintTC",
      "outputs": [
        {
          "internalType": "uint256",
          "name": "qACtotalNeeded",
          "type": "uint256"
        },
        {
          "internalType": "uint256",
          "name": "qFeeTokenTotalNeeded",
          "type": "uint256"
        },
        {
          "components": [
            {
              "internalType": "uint256",
              "name": "qACFee",
              "type": "uint256"
            },
            {
              "internalType": "uint256",
              "name": "qFeeToken",
              "type": "uint256"
            },
            {
              "internalType": "uint256",
              "name": "qACVendorMarkup",
              "type": "uint256"
            },
            {
              "internalType": "uint256",
              "name": "qFeeTokenVendorMarkup",
              "type": "uint256"
            }
          ],
          "internalType": "struct MocCommons.FeeCalcs",
          "name": "feeCalcs",
          "type": "tuple"
        }
      ],
      "stateMutability": "nonpayable",
      "type": "function"
    },
    {
      "inputs": [
        {
          "components": [
            {
              "internalType": "address",
              "name": "tp",
              "type": "address"
            },
            {
              "internalType": "uint256",
              "name": "qTP",
              "type": "uint256"
            },
            {
              "internalType": "uint256",
              "name": "qACmax",
              "type": "uint256"
            },
            {
              "internalType": "address",
              "name": "sender",
              "type": "address"
            },
            {
              "internalType": "address",
              "name": "recipient",
              "type": "address"
            },
            {
              "internalType": "address",
              "name": "vendor",
              "type": "address"
            }
          ],
          "internalType": "struct MocCore.MintTCandTPParams",
          "name": "params_",
          "type": "tuple"
        }
      ],
      "name": "execMintTCandTP",
      "outputs": [
        {
          "internalType": "uint256",
          "name": "qACtotalNeeded",
          "type": "uint256"
        },
        {
          "internalType": "uint256",
          "name": "qTCMinted",
          "type": "uint256"
        },
        {
          "internalType": "uint256",
          "name": "qFeeTokenTotalNeeded",
          "type": "uint256"
        },
        {
          "components": [
            {
              "internalType": "uint256",
              "name": "qACFee",
              "type": "uint256"
            },
            {
              "internalType": "uint256",
              "name": "qFeeToken",
              "type": "uint256"
            },
            {
              "internalType": "uint256",
              "name": "qACVendorMarkup",
              "type": "uint256"
            },
            {
              "internalType": "uint256",
              "name": "qFeeTokenVendorMarkup",
              "type": "uint256"
            }
          ],
          "internalType": "struct MocCommons.FeeCalcs",
          "name": "feeCalcs",
          "type": "tuple"
        }
      ],
      "stateMutability": "nonpayable",
      "type": "function"
    },
    {
      "inputs": [
        {
          "components": [
            {
              "internalType": "address",
              "name": "tp",
              "type": "address"
            },
            {
              "internalType": "uint256",
              "name": "qTP",
              "type": "uint256"
            },
            {
              "internalType": "uint256",
              "name": "qACmax",
              "type": "uint256"
            },
            {
              "internalType": "address",
              "name": "sender",
              "type": "address"
            },
            {
              "internalType": "address",
              "name": "recipient",
              "type": "address"
            },
            {
              "internalType": "address",
              "name": "vendor",
              "type": "address"
            }
          ],
          "internalType": "struct MocCore.MintTPParams",
          "name": "params_",
          "type": "tuple"
        }
      ],
      "name": "execMintTP",
      "outputs": [
        {
          "internalType": "uint256",
          "name": "qACtotalNeeded",
          "type": "uint256"
        },
        {
          "internalType": "uint256",
          "name": "qFeeTokenTotalNeeded",
          "type": "uint256"
        },
        {
          "components": [
            {
              "internalType": "uint256",
              "name": "qACFee",
              "type": "uint256"
            },
            {
              "internalType": "uint256",
              "name": "qFeeToken",
              "type": "uint256"
            },
            {
              "internalType": "uint256",
              "name": "qACVendorMarkup",
              "type": "uint256"
            },
            {
              "internalType": "uint256",
              "name": "qFeeTokenVendorMarkup",
              "type": "uint256"
            }
          ],
          "internalType": "struct MocCommons.FeeCalcs",
          "name": "feeCalcs",
          "type": "tuple"
        }
      ],
      "stateMutability": "nonpayable",
      "type": "function"
    },
    {
      "inputs": [
        {
          "components": [
            {
              "internalType": "uint256",
              "name": "qTC",
              "type": "uint256"
            },
            {
              "internalType": "uint256",
              "name": "qACmin",
              "type": "uint256"
            },
            {
              "internalType": "address",
              "name": "sender",
              "type": "address"
            },
            {
              "internalType": "address",
              "name": "recipient",
              "type": "address"
            },
            {
              "internalType": "address",
              "name": "vendor",
              "type": "address"
            }
          ],
          "internalType": "struct MocCore.RedeemTCParams",
          "name": "params_",
          "type": "tuple"
        }
      ],
      "name": "execRedeemTC",
      "outputs": [
        {
          "internalType": "uint256",
          "name": "qACtoRedeem",
          "type": "uint256"
        },
        {
          "internalType": "uint256",
          "name": "qFeeTokenTotalNeeded",
          "type": "uint256"
        },
        {
          "components": [
            {
              "internalType": "uint256",
              "name": "qACFee",
              "type": "uint256"
            },
            {
              "internalType": "uint256",
              "name": "qFeeToken",
              "type": "uint256"
            },
            {
              "internalType": "uint256",
              "name": "qACVendorMarkup",
              "type": "uint256"
            },
            {
              "internalType": "uint256",
              "name": "qFeeTokenVendorMarkup",
              "type": "uint256"
            }
          ],
          "internalType": "struct MocCommons.FeeCalcs",
          "name": "feeCalcs",
          "type": "tuple"
        }
      ],
      "stateMutability": "nonpayable",
      "type": "function"
    },
    {
      "inputs": [
        {
          "components": [
            {
              "internalType": "address",
              "name": "tp",
              "type": "address"
            },
            {
              "internalType": "uint256",
              "name": "qTC",
              "type": "uint256"
            },
            {
              "internalType": "uint256",
              "name": "qTP",
              "type": "uint256"
            },
            {
              "internalType": "uint256",
              "name": "qACmin",
              "type": "uint256"
            },
            {
              "internalType": "address",
              "name": "sender",
              "type": "address"
            },
            {
              "internalType": "address",
              "name": "recipient",
              "type": "address"
            },
            {
              "internalType": "address",
              "name": "vendor",
              "type": "address"
            }
          ],
          "internalType": "struct MocCore.RedeemTCandTPParams",
          "name": "params_",
          "type": "tuple"
        }
      ],
      "name": "execRedeemTCandTP",
      "outputs": [
        {
          "internalType": "uint256",
          "name": "qACtoRedeem",
          "type": "uint256"
        },
        {
          "internalType": "uint256",
          "name": "qTPRedeemed",
          "type": "uint256"
        },
        {
          "internalType": "uint256",
          "name": "qFeeTokenTotalNeeded",
          "type": "uint256"
        },
        {
          "components": [
            {
              "internalType": "uint256",
              "name": "qACFee",
              "type": "uint256"
            },
            {
              "internalType": "uint256",
              "name": "qFeeToken",
              "type": "uint256"
            },
            {
              "internalType": "uint256",
              "name": "qACVendorMarkup",
              "type": "uint256"
            },
            {
              "internalType": "uint256",
              "name": "qFeeTokenVendorMarkup",
              "type": "uint256"
            }
          ],
          "internalType": "struct MocCommons.FeeCalcs",
          "name": "feeCalcs",
          "type": "tuple"
        }
      ],
      "stateMutability": "nonpayable",
      "type": "function"
    },
    {
      "inputs": [
        {
          "components": [
            {
              "internalType": "address",
              "name": "tp",
              "type": "address"
            },
            {
              "internalType": "uint256",
              "name": "qTP",
              "type": "uint256"
            },
            {
              "internalType": "uint256",
              "name": "qACmin",
              "type": "uint256"
            },
            {
              "internalType": "address",
              "name": "sender",
              "type": "address"
            },
            {
              "internalType": "address",
              "name": "recipient",
              "type": "address"
            },
            {
              "internalType": "address",
              "name": "vendor",
              "type": "address"
            }
          ],
          "internalType": "struct MocCommons.RedeemTPParams",
          "name": "params_",
          "type": "tuple"
        }
      ],
      "name": "execRedeemTP",
      "outputs": [
        {
          "internalType": "uint256",
          "name": "qACtoRedeem",
          "type": "uint256"
        },
        {
          "internalType": "uint256",
          "name": "qFeeTokenTotalNeeded",
          "type": "uint256"
        },
        {
          "components": [
            {
              "internalType": "uint256",
              "name": "qACFee",
              "type": "uint256"
            },
            {
              "internalType": "uint256",
              "name": "qFeeToken",
              "type": "uint256"
            },
            {
              "internalType": "uint256",
              "name": "qACVendorMarkup",
              "type": "uint256"
            },
            {
              "internalType": "uint256",
              "name": "qFeeTokenVendorMarkup",
              "type": "uint256"
            }
          ],
          "internalType": "struct MocCommons.FeeCalcs",
          "name": "feeCalcs",
          "type": "tuple"
        }
      ],
      "stateMutability": "nonpayable",
      "type": "function"
    },
    {
      "inputs": [],
      "name": "execSettlement",
      "outputs": [],
      "stateMutability": "nonpayable",
      "type": "function"
    },
    {
      "inputs": [
        {
          "components": [
            {
              "internalType": "address",
              "name": "tp",
              "type": "address"
            },
            {
              "internalType": "uint256",
              "name": "qTC",
              "type": "uint256"
            },
            {
              "internalType": "uint256",
              "name": "qTPmin",
              "type": "uint256"
            },
            {
              "internalType": "uint256",
              "name": "qACmax",
              "type": "uint256"
            },
            {
              "internalType": "address",
              "name": "sender",
              "type": "address"
            },
            {
              "internalType": "address",
              "name": "recipient",
              "type": "address"
            },
            {
              "internalType": "address",
              "name": "vendor",
              "type": "address"
            }
          ],
          "internalType": "struct MocCommons.SwapTCforTPParams",
          "name": "params_",
          "type": "tuple"
        }
      ],
      "name": "execSwapTCforTP",
      "outputs": [
        {
          "internalType": "uint256",
          "name": "qACSurcharges",
          "type": "uint256"
        },
        {
          "internalType": "uint256",
          "name": "qTPMinted",
          "type": "uint256"
        },
        {
          "internalType": "uint256",
          "name": "qFeeTokenTotalNeeded",
          "type": "uint256"
        },
        {
          "components": [
            {
              "internalType": "uint256",
              "name": "qACFee",
              "type": "uint256"
            },
            {
              "internalType": "uint256",
              "name": "qFeeToken",
              "type": "uint256"
            },
            {
              "internalType": "uint256",
              "name": "qACVendorMarkup",
              "type": "uint256"
            },
            {
              "internalType": "uint256",
              "name": "qFeeTokenVendorMarkup",
              "type": "uint256"
            }
          ],
          "internalType": "struct MocCommons.FeeCalcs",
          "name": "feeCalcs",
          "type": "tuple"
        }
      ],
      "stateMutability": "nonpayable",
      "type": "function"
    },
    {
      "inputs": [
        {
          "components": [
            {
              "internalType": "address",
              "name": "tp",
              "type": "address"
            },
            {
              "internalType": "uint256",
              "name": "qTP",
              "type": "uint256"
            },
            {
              "internalType": "uint256",
              "name": "qTCmin",
              "type": "uint256"
            },
            {
              "internalType": "uint256",
              "name": "qACmax",
              "type": "uint256"
            },
            {
              "internalType": "address",
              "name": "sender",
              "type": "address"
            },
            {
              "internalType": "address",
              "name": "recipient",
              "type": "address"
            },
            {
              "internalType": "address",
              "name": "vendor",
              "type": "address"
            }
          ],
          "internalType": "struct MocCommons.SwapTPforTCParams",
          "name": "params_",
          "type": "tuple"
        }
      ],
      "name": "execSwapTPforTC",
      "outputs": [
        {
          "internalType": "uint256",
          "name": "qACSurcharges",
          "type": "uint256"
        },
        {
          "internalType": "uint256",
          "name": "qTCMinted",
          "type": "uint256"
        },
        {
          "internalType": "uint256",
          "name": "qFeeTokenTotalNeeded",
          "type": "uint256"
        },
        {
          "components": [
            {
              "internalType": "uint256",
              "name": "qACFee",
              "type": "uint256"
            },
            {
              "internalType": "uint256",
              "name": "qFeeToken",
              "type": "uint256"
            },
            {
              "internalType": "uint256",
              "name": "qACVendorMarkup",
              "type": "uint256"
            },
            {
              "internalType": "uint256",
              "name": "qFeeTokenVendorMarkup",
              "type": "uint256"
            }
          ],
          "internalType": "struct MocCommons.FeeCalcs",
          "name": "feeCalcs",
          "type": "tuple"
        }
      ],
      "stateMutability": "nonpayable",
      "type": "function"
    },
    {
      "inputs": [
        {
          "components": [
            {
              "internalType": "address",
              "name": "tpFrom",
              "type": "address"
            },
            {
              "internalType": "address",
              "name": "tpTo",
              "type": "address"
            },
            {
              "internalType": "uint256",
              "name": "qTP",
              "type": "uint256"
            },
            {
              "internalType": "uint256",
              "name": "qTPmin",
              "type": "uint256"
            },
            {
              "internalType": "uint256",
              "name": "qACmax",
              "type": "uint256"
            },
            {
              "internalType": "address",
              "name": "sender",
              "type": "address"
            },
            {
              "internalType": "address",
              "name": "recipient",
              "type": "address"
            },
            {
              "internalType": "address",
              "name": "vendor",
              "type": "address"
            }
          ],
          "internalType": "struct MocCommons.SwapTPforTPParams",
          "name": "params_",
          "type": "tuple"
        }
      ],
      "name": "execSwapTPforTP",
      "outputs": [
        {
          "internalType": "uint256",
          "name": "qACSurcharges",
          "type": "uint256"
        },
        {
          "internalType": "uint256",
          "name": "qTPMinted",
          "type": "uint256"
        },
        {
          "internalType": "uint256",
          "name": "qFeeTokenTotalNeeded",
          "type": "uint256"
        },
        {
          "components": [
            {
              "internalType": "uint256",
              "name": "qACFee",
              "type": "uint256"
            },
            {
              "internalType": "uint256",
              "name": "qFeeToken",
              "type": "uint256"
            },
            {
              "internalType": "uint256",
              "name": "qACVendorMarkup",
              "type": "uint256"
            },
            {
              "internalType": "uint256",
              "name": "qFeeTokenVendorMarkup",
              "type": "uint256"
            }
          ],
          "internalType": "struct MocCommons.FeeCalcs",
          "name": "feeCalcs",
          "type": "tuple"
        }
      ],
      "stateMutability": "nonpayable",
      "type": "function"
    },
    {
      "inputs": [],
      "name": "feeRetainer",
      "outputs": [
        {
          "internalType": "uint256",
          "name": "",
          "type": "uint256"
        }
      ],
      "stateMutability": "view",
      "type": "function"
    },
    {
      "inputs": [],
      "name": "feeToken",
      "outputs": [
        {
          "internalType": "contract IERC20",
          "name": "",
          "type": "address"
        }
      ],
      "stateMutability": "view",
      "type": "function"
    },
    {
      "inputs": [],
      "name": "feeTokenPct",
      "outputs": [
        {
          "internalType": "uint256",
          "name": "",
          "type": "uint256"
        }
      ],
      "stateMutability": "view",
      "type": "function"
    },
    {
      "inputs": [],
      "name": "feeTokenPriceProvider",
      "outputs": [
        {
          "internalType": "contract IPriceProvider",
          "name": "",
          "type": "address"
        }
      ],
      "stateMutability": "view",
      "type": "function"
    },
    {
      "inputs": [],
      "name": "getBts",
      "outputs": [
        {
          "internalType": "uint256",
          "name": "",
          "type": "uint256"
        }
      ],
      "stateMutability": "view",
      "type": "function"
    },
    {
      "inputs": [],
      "name": "getCglb",
      "outputs": [
        {
          "internalType": "uint256",
          "name": "cglob",
          "type": "uint256"
        }
      ],
      "stateMutability": "view",
      "type": "function"
    },
    {
      "inputs": [],
      "name": "getLckAC",
      "outputs": [
        {
          "internalType": "uint256",
          "name": "lckAC",
          "type": "uint256"
        }
      ],
      "stateMutability": "view",
      "type": "function"
    },
    {
      "inputs": [],
      "name": "getLckACemaAdjusted",
      "outputs": [
        {
          "internalType": "int256",
          "name": "lckACemaAdjusted",
          "type": "int256"
        }
      ],
      "stateMutability": "view",
      "type": "function"
    },
    {
      "inputs": [],
      "name": "getLeverageTC",
      "outputs": [
        {
          "internalType": "uint256",
          "name": "leverageTC",
          "type": "uint256"
        }
      ],
      "stateMutability": "view",
      "type": "function"
    },
    {
      "inputs": [],
      "name": "getLocalCglbAndLckAC",
      "outputs": [
        {
          "internalType": "uint256",
          "name": "localCglob",
          "type": "uint256"
        },
        {
          "internalType": "uint256",
          "name": "",
          "type": "uint256"
        }
      ],
      "stateMutability": "view",
      "type": "function"
    },
    {
      "inputs": [
        {
          "internalType": "address",
          "name": "tp_",
          "type": "address"
        }
      ],
      "name": "getPACtp",
      "outputs": [
        {
          "internalType": "uint256",
          "name": "",
          "type": "uint256"
        }
      ],
      "stateMutability": "view",
      "type": "function"
    },
    {
      "inputs": [],
      "name": "getPACtps",
      "outputs": [
        {
          "internalType": "uint256[]",
          "name": "pACtps",
          "type": "uint256[]"
        }
      ],
      "stateMutability": "view",
      "type": "function"
    },
    {
      "inputs": [],
      "name": "getPTCac",
      "outputs": [
        {
          "internalType": "uint256",
          "name": "pTCac",
          "type": "uint256"
        }
      ],
      "stateMutability": "view",
      "type": "function"
    },
    {
      "inputs": [],
      "name": "getRealTCAvailableToRedeem",
      "outputs": [
        {
          "internalType": "uint256",
          "name": "realTCAvailableToRedeem",
          "type": "uint256"
        }
      ],
      "stateMutability": "view",
      "type": "function"
    },
    {
      "inputs": [
        {
          "internalType": "address",
          "name": "tp_",
          "type": "address"
        }
      ],
      "name": "getRealTPAvailableToMint",
      "outputs": [
        {
          "internalType": "uint256",
          "name": "realTPAvailableToMint",
          "type": "uint256"
        }
      ],
      "stateMutability": "view",
      "type": "function"
    },
    {
      "inputs": [],
      "name": "getTCAvailableToRedeem",
      "outputs": [
        {
          "internalType": "int256",
          "name": "tcAvailableToRedeem",
          "type": "int256"
        }
      ],
      "stateMutability": "view",
      "type": "function"
    },
    {
      "inputs": [
        {
          "internalType": "address",
          "name": "tp_",
          "type": "address"
        }
      ],
      "name": "getTPAvailableToMint",
      "outputs": [
        {
          "internalType": "int256",
          "name": "tpAvailableToMint",
          "type": "int256"
        }
      ],
      "stateMutability": "view",
      "type": "function"
    },
    {
      "inputs": [],
      "name": "getTotalACavailable",
      "outputs": [
        {
          "internalType": "uint256",
          "name": "totalACavailable",
          "type": "uint256"
        }
      ],
      "stateMutability": "view",
      "type": "function"
    },
    {
      "inputs": [],
      "name": "governor",
      "outputs": [
        {
          "internalType": "contract IGovernor",
          "name": "",
          "type": "address"
        }
      ],
      "stateMutability": "view",
      "type": "function"
    },
    {
      "inputs": [
        {
          "components": [
            {
              "components": [
                {
                  "components": [
                    {
                      "internalType": "address",
                      "name": "feeTokenAddress",
                      "type": "address"
                    },
                    {
                      "internalType": "address",
                      "name": "feeTokenPriceProviderAddress",
                      "type": "address"
                    },
                    {
                      "internalType": "address",
                      "name": "tcTokenAddress",
                      "type": "address"
                    },
                    {
                      "internalType": "address",
                      "name": "mocFeeFlowAddress",
                      "type": "address"
                    },
                    {
                      "internalType": "address",
                      "name": "mocAppreciationBeneficiaryAddress",
                      "type": "address"
                    },
                    {
                      "internalType": "uint256",
                      "name": "protThrld",
                      "type": "uint256"
                    },
                    {
                      "internalType": "uint256",
                      "name": "liqThrld",
                      "type": "uint256"
                    },
                    {
                      "internalType": "uint256",
                      "name": "feeRetainer",
                      "type": "uint256"
                    },
                    {
                      "internalType": "uint256",
                      "name": "tcMintFee",
                      "type": "uint256"
                    },
                    {
                      "internalType": "uint256",
                      "name": "tcRedeemFee",
                      "type": "uint256"
                    },
                    {
                      "internalType": "uint256",
                      "name": "swapTPforTPFee",
                      "type": "uint256"
                    },
                    {
                      "internalType": "uint256",
                      "name": "swapTPforTCFee",
                      "type": "uint256"
                    },
                    {
                      "internalType": "uint256",
                      "name": "swapTCforTPFee",
                      "type": "uint256"
                    },
                    {
                      "internalType": "uint256",
                      "name": "redeemTCandTPFee",
                      "type": "uint256"
                    },
                    {
                      "internalType": "uint256",
                      "name": "mintTCandTPFee",
                      "type": "uint256"
                    },
                    {
                      "internalType": "uint256",
                      "name": "feeTokenPct",
                      "type": "uint256"
                    },
                    {
                      "internalType": "uint256",
                      "name": "successFee",
                      "type": "uint256"
                    },
                    {
                      "internalType": "uint256",
                      "name": "appreciationFactor",
                      "type": "uint256"
                    },
                    {
                      "internalType": "uint256",
                      "name": "bes",
                      "type": "uint256"
                    },
                    {
                      "internalType": "address",
                      "name": "tcInterestCollectorAddress",
                      "type": "address"
                    },
                    {
                      "internalType": "uint256",
                      "name": "tcInterestRate",
                      "type": "uint256"
                    },
                    {
                      "internalType": "uint256",
                      "name": "tcInterestPaymentBlockSpan",
                      "type": "uint256"
                    }
                  ],
                  "internalType": "struct MocBaseBucket.InitializeBaseBucketParams",
                  "name": "initializeBaseBucketParams",
                  "type": "tuple"
                },
                {
                  "internalType": "address",
                  "name": "governorAddress",
                  "type": "address"
                },
                {
                  "internalType": "address",
                  "name": "pauserAddress",
                  "type": "address"
                },
                {
                  "internalType": "address",
                  "name": "mocCoreExpansion",
                  "type": "address"
                },
                {
                  "internalType": "uint256",
                  "name": "emaCalculationBlockSpan",
                  "type": "uint256"
                },
                {
                  "internalType": "address",
                  "name": "mocVendors",
                  "type": "address"
                }
              ],
              "internalType": "struct MocCore.InitializeCoreParams",
              "name": "initializeCoreParams",
              "type": "tuple"
            },
            {
              "internalType": "address",
              "name": "acTokenAddress",
              "type": "address"
            },
            {
              "internalType": "address",
              "name": "mocQueue",
              "type": "address"
            }
          ],
          "internalType": "struct MocCARC20Deferred.InitializeParams",
          "name": "initializeParams_",
          "type": "tuple"
        }
      ],
      "name": "initialize",
      "outputs": [],
      "stateMutability": "nonpayable",
      "type": "function"
    },
    {
      "inputs": [],
      "name": "isLiquidationReached",
      "outputs": [
        {
          "internalType": "bool",
          "name": "",
          "type": "bool"
        }
      ],
      "stateMutability": "view",
      "type": "function"
    },
    {
      "inputs": [],
      "name": "liqEnabled",
      "outputs": [
        {
          "internalType": "bool",
          "name": "",
          "type": "bool"
        }
      ],
      "stateMutability": "view",
      "type": "function"
    },
    {
      "inputs": [
        {
          "internalType": "address",
          "name": "tp_",
          "type": "address"
        }
      ],
      "name": "liqRedeemTP",
      "outputs": [
        {
          "internalType": "uint256",
          "name": "qACRedeemed",
          "type": "uint256"
        }
      ],
      "stateMutability": "nonpayable",
      "type": "function"
    },
    {
      "inputs": [
        {
          "internalType": "address",
          "name": "tp_",
          "type": "address"
        },
        {
          "internalType": "address",
          "name": "recipient_",
          "type": "address"
        }
      ],
      "name": "liqRedeemTPto",
      "outputs": [
        {
          "internalType": "uint256",
          "name": "qACRedeemed",
          "type": "uint256"
        }
      ],
      "stateMutability": "nonpayable",
      "type": "function"
    },
    {
      "inputs": [],
      "name": "liqThrld",
      "outputs": [
        {
          "internalType": "uint256",
          "name": "",
          "type": "uint256"
        }
      ],
      "stateMutability": "view",
      "type": "function"
    },
    {
      "inputs": [],
      "name": "liquidated",
      "outputs": [
        {
          "internalType": "bool",
          "name": "",
          "type": "bool"
        }
      ],
      "stateMutability": "view",
      "type": "function"
    },
    {
      "inputs": [],
      "name": "makeStoppable",
      "outputs": [],
      "stateMutability": "nonpayable",
      "type": "function"
    },
    {
      "inputs": [],
      "name": "makeUnstoppable",
      "outputs": [],
      "stateMutability": "nonpayable",
      "type": "function"
    },
    {
      "inputs": [
        {
          "internalType": "uint256",
          "name": "qAC_",
          "type": "uint256"
        },
        {
          "internalType": "uint256",
          "name": "qTC_",
          "type": "uint256"
        },
        {
          "internalType": "uint256",
          "name": "qTP_",
          "type": "uint256"
        },
        {
          "internalType": "uint256",
          "name": "tpEma_",
          "type": "uint256"
        },
        {
          "internalType": "uint256",
          "name": "nextEmaCalculation_",
          "type": "uint256"
        },
        {
          "internalType": "uint256",
          "name": "nextTCInterestPayment_",
          "type": "uint256"
        }
      ],
      "name": "migrateFromV1",
      "outputs": [],
      "stateMutability": "nonpayable",
      "type": "function"
    },
    {
      "inputs": [
        {
          "internalType": "uint256",
          "name": "qTC_",
          "type": "uint256"
        },
        {
          "internalType": "uint256",
          "name": "qACmax_",
          "type": "uint256"
        }
      ],
      "name": "mintTC",
      "outputs": [
        {
          "internalType": "uint256",
          "name": "operId",
          "type": "uint256"
        }
      ],
      "stateMutability": "payable",
      "type": "function"
    },
    {
      "inputs": [
        {
          "internalType": "uint256",
          "name": "qTC_",
          "type": "uint256"
        },
        {
          "internalType": "uint256",
          "name": "qACmax_",
          "type": "uint256"
        },
        {
          "internalType": "address",
          "name": "vendor_",
          "type": "address"
        }
      ],
      "name": "mintTCViaVendor",
      "outputs": [
        {
          "internalType": "uint256",
          "name": "operId",
          "type": "uint256"
        }
      ],
      "stateMutability": "payable",
      "type": "function"
    },
    {
      "inputs": [
        {
          "internalType": "address",
          "name": "tp_",
          "type": "address"
        },
        {
          "internalType": "uint256",
          "name": "qTP_",
          "type": "uint256"
        },
        {
          "internalType": "uint256",
          "name": "qACmax_",
          "type": "uint256"
        }
      ],
      "name": "mintTCandTP",
      "outputs": [
        {
          "internalType": "uint256",
          "name": "operId",
          "type": "uint256"
        }
      ],
      "stateMutability": "payable",
      "type": "function"
    },
    {
      "inputs": [],
      "name": "mintTCandTPFee",
      "outputs": [
        {
          "internalType": "uint256",
          "name": "",
          "type": "uint256"
        }
      ],
      "stateMutability": "view",
      "type": "function"
    },
    {
      "inputs": [
        {
          "internalType": "address",
          "name": "tp_",
          "type": "address"
        },
        {
          "internalType": "uint256",
          "name": "qTP_",
          "type": "uint256"
        },
        {
          "internalType": "uint256",
          "name": "qACmax_",
          "type": "uint256"
        },
        {
          "internalType": "address",
          "name": "vendor_",
          "type": "address"
        }
      ],
      "name": "mintTCandTPViaVendor",
      "outputs": [
        {
          "internalType": "uint256",
          "name": "operId",
          "type": "uint256"
        }
      ],
      "stateMutability": "payable",
      "type": "function"
    },
    {
      "inputs": [
        {
          "internalType": "address",
          "name": "tp_",
          "type": "address"
        },
        {
          "internalType": "uint256",
          "name": "qTP_",
          "type": "uint256"
        },
        {
          "internalType": "uint256",
          "name": "qACmax_",
          "type": "uint256"
        },
        {
          "internalType": "address",
          "name": "recipient_",
          "type": "address"
        }
      ],
      "name": "mintTCandTPto",
      "outputs": [
        {
          "internalType": "uint256",
          "name": "operId",
          "type": "uint256"
        }
      ],
      "stateMutability": "payable",
      "type": "function"
    },
    {
      "inputs": [
        {
          "internalType": "address",
          "name": "tp_",
          "type": "address"
        },
        {
          "internalType": "uint256",
          "name": "qTP_",
          "type": "uint256"
        },
        {
          "internalType": "uint256",
          "name": "qACmax_",
          "type": "uint256"
        },
        {
          "internalType": "address",
          "name": "recipient_",
          "type": "address"
        },
        {
          "internalType": "address",
          "name": "vendor_",
          "type": "address"
        }
      ],
      "name": "mintTCandTPtoViaVendor",
      "outputs": [
        {
          "internalType": "uint256",
          "name": "operId",
          "type": "uint256"
        }
      ],
      "stateMutability": "payable",
      "type": "function"
    },
    {
      "inputs": [
        {
          "internalType": "uint256",
          "name": "qTC_",
          "type": "uint256"
        },
        {
          "internalType": "uint256",
          "name": "qACmax_",
          "type": "uint256"
        },
        {
          "internalType": "address",
          "name": "recipient_",
          "type": "address"
        }
      ],
      "name": "mintTCto",
      "outputs": [
        {
          "internalType": "uint256",
          "name": "operId",
          "type": "uint256"
        }
      ],
      "stateMutability": "payable",
      "type": "function"
    },
    {
      "inputs": [
        {
          "internalType": "uint256",
          "name": "qTC_",
          "type": "uint256"
        },
        {
          "internalType": "uint256",
          "name": "qACmax_",
          "type": "uint256"
        },
        {
          "internalType": "address",
          "name": "recipient_",
          "type": "address"
        },
        {
          "internalType": "address",
          "name": "vendor_",
          "type": "address"
        }
      ],
      "name": "mintTCtoViaVendor",
      "outputs": [
        {
          "internalType": "uint256",
          "name": "operId",
          "type": "uint256"
        }
      ],
      "stateMutability": "payable",
      "type": "function"
    },
    {
      "inputs": [
        {
          "internalType": "address",
          "name": "tp_",
          "type": "address"
        },
        {
          "internalType": "uint256",
          "name": "qTP_",
          "type": "uint256"
        },
        {
          "internalType": "uint256",
          "name": "qACmax_",
          "type": "uint256"
        }
      ],
      "name": "mintTP",
      "outputs": [
        {
          "internalType": "uint256",
          "name": "operId",
          "type": "uint256"
        }
      ],
      "stateMutability": "payable",
      "type": "function"
    },
    {
      "inputs": [
        {
          "internalType": "address",
          "name": "tp_",
          "type": "address"
        },
        {
          "internalType": "uint256",
          "name": "qTP_",
          "type": "uint256"
        },
        {
          "internalType": "uint256",
          "name": "qACmax_",
          "type": "uint256"
        },
        {
          "internalType": "address",
          "name": "vendor_",
          "type": "address"
        }
      ],
      "name": "mintTPViaVendor",
      "outputs": [
        {
          "internalType": "uint256",
          "name": "operId",
          "type": "uint256"
        }
      ],
      "stateMutability": "payable",
      "type": "function"
    },
    {
      "inputs": [
        {
          "internalType": "address",
          "name": "tp_",
          "type": "address"
        },
        {
          "internalType": "uint256",
          "name": "qTP_",
          "type": "uint256"
        },
        {
          "internalType": "uint256",
          "name": "qACmax_",
          "type": "uint256"
        },
        {
          "internalType": "address",
          "name": "recipient_",
          "type": "address"
        }
      ],
      "name": "mintTPto",
      "outputs": [
        {
          "internalType": "uint256",
          "name": "operId",
          "type": "uint256"
        }
      ],
      "stateMutability": "payable",
      "type": "function"
    },
    {
      "inputs": [
        {
          "internalType": "address",
          "name": "tp_",
          "type": "address"
        },
        {
          "internalType": "uint256",
          "name": "qTP_",
          "type": "uint256"
        },
        {
          "internalType": "uint256",
          "name": "qACmax_",
          "type": "uint256"
        },
        {
          "internalType": "address",
          "name": "recipient_",
          "type": "address"
        },
        {
          "internalType": "address",
          "name": "vendor_",
          "type": "address"
        }
      ],
      "name": "mintTPtoViaVendor",
      "outputs": [
        {
          "internalType": "uint256",
          "name": "operId",
          "type": "uint256"
        }
      ],
      "stateMutability": "payable",
      "type": "function"
    },
    {
      "inputs": [],
      "name": "mocAppreciationBeneficiaryAddress",
      "outputs": [
        {
          "internalType": "address",
          "name": "",
          "type": "address"
        }
      ],
      "stateMutability": "view",
      "type": "function"
    },
    {
      "inputs": [],
      "name": "mocFeeFlowAddress",
      "outputs": [
        {
          "internalType": "address",
          "name": "",
          "type": "address"
        }
      ],
      "stateMutability": "view",
      "type": "function"
    },
    {
      "inputs": [],
      "name": "mocMultiCollateralGuard",
      "outputs": [
        {
          "internalType": "contract MocMultiCollateralGuard",
          "name": "",
          "type": "address"
        }
      ],
      "stateMutability": "view",
      "type": "function"
    },
    {
      "inputs": [],
      "name": "mocQueue",
      "outputs": [
        {
          "internalType": "contract MocQueue",
          "name": "",
          "type": "address"
        }
      ],
      "stateMutability": "view",
      "type": "function"
    },
    {
      "inputs": [],
      "name": "mocVendors",
      "outputs": [
        {
          "internalType": "contract MocVendors",
          "name": "",
          "type": "address"
        }
      ],
      "stateMutability": "view",
      "type": "function"
    },
    {
      "inputs": [],
      "name": "nACcb",
      "outputs": [
        {
          "internalType": "uint256",
          "name": "",
          "type": "uint256"
        }
      ],
      "stateMutability": "view",
      "type": "function"
    },
    {
      "inputs": [],
      "name": "nTCcb",
      "outputs": [
        {
          "internalType": "uint256",
          "name": "",
          "type": "uint256"
        }
      ],
      "stateMutability": "view",
      "type": "function"
    },
    {
      "inputs": [],
      "name": "nextEmaCalculation",
      "outputs": [
        {
          "internalType": "uint256",
          "name": "",
          "type": "uint256"
        }
      ],
      "stateMutability": "view",
      "type": "function"
    },
    {
      "inputs": [],
      "name": "nextTCInterestPayment",
      "outputs": [
        {
          "internalType": "uint256",
          "name": "",
          "type": "uint256"
        }
      ],
      "stateMutability": "view",
      "type": "function"
    },
    {
      "inputs": [],
      "name": "pause",
      "outputs": [],
      "stateMutability": "nonpayable",
      "type": "function"
    },
    {
      "inputs": [],
      "name": "paused",
      "outputs": [
        {
          "internalType": "bool",
          "name": "",
          "type": "bool"
        }
      ],
      "stateMutability": "view",
      "type": "function"
    },
    {
      "inputs": [],
      "name": "pauser",
      "outputs": [
        {
          "internalType": "address",
          "name": "",
          "type": "address"
        }
      ],
      "stateMutability": "view",
      "type": "function"
    },
    {
      "inputs": [
        {
          "internalType": "uint256",
          "name": "",
          "type": "uint256"
        }
      ],
      "name": "pegContainer",
      "outputs": [
        {
          "internalType": "uint256",
          "name": "nTP",
          "type": "uint256"
        },
        {
          "internalType": "contract IPriceProvider",
          "name": "priceProvider",
          "type": "address"
        }
      ],
      "stateMutability": "view",
      "type": "function"
    },
    {
      "inputs": [
        {
          "internalType": "address",
          "name": "",
          "type": "address"
        }
      ],
      "name": "peggedTokenIndex",
      "outputs": [
        {
          "internalType": "uint256",
          "name": "index",
          "type": "uint256"
        },
        {
          "internalType": "bool",
          "name": "exists",
          "type": "bool"
        }
      ],
      "stateMutability": "view",
      "type": "function"
    },
    {
      "inputs": [],
      "name": "protThrld",
      "outputs": [
        {
          "internalType": "uint256",
          "name": "",
          "type": "uint256"
        }
      ],
      "stateMutability": "view",
      "type": "function"
    },
    {
      "inputs": [],
      "name": "proxiableUUID",
      "outputs": [
        {
          "internalType": "bytes32",
          "name": "",
          "type": "bytes32"
        }
      ],
      "stateMutability": "view",
      "type": "function"
    },
    {
      "inputs": [],
      "name": "qACLockedInPending",
      "outputs": [
        {
          "internalType": "uint256",
          "name": "",
          "type": "uint256"
        }
      ],
      "stateMutability": "view",
      "type": "function"
    },
    {
      "inputs": [
        {
          "internalType": "uint256",
          "name": "qTC_",
          "type": "uint256"
        },
        {
          "internalType": "uint256",
          "name": "qACmin_",
          "type": "uint256"
        }
      ],
      "name": "redeemTC",
      "outputs": [
        {
          "internalType": "uint256",
          "name": "operId",
          "type": "uint256"
        }
      ],
      "stateMutability": "payable",
      "type": "function"
    },
    {
      "inputs": [
        {
          "internalType": "uint256",
          "name": "qTC_",
          "type": "uint256"
        },
        {
          "internalType": "uint256",
          "name": "qACmin_",
          "type": "uint256"
        },
        {
          "internalType": "address",
          "name": "vendor_",
          "type": "address"
        }
      ],
      "name": "redeemTCViaVendor",
      "outputs": [
        {
          "internalType": "uint256",
          "name": "operId",
          "type": "uint256"
        }
      ],
      "stateMutability": "payable",
      "type": "function"
    },
    {
      "inputs": [
        {
          "internalType": "address",
          "name": "tp_",
          "type": "address"
        },
        {
          "internalType": "uint256",
          "name": "qTC_",
          "type": "uint256"
        },
        {
          "internalType": "uint256",
          "name": "qTP_",
          "type": "uint256"
        },
        {
          "internalType": "uint256",
          "name": "qACmin_",
          "type": "uint256"
        }
      ],
      "name": "redeemTCandTP",
      "outputs": [
        {
          "internalType": "uint256",
          "name": "operId",
          "type": "uint256"
        }
      ],
      "stateMutability": "payable",
      "type": "function"
    },
    {
      "inputs": [],
      "name": "redeemTCandTPFee",
      "outputs": [
        {
          "internalType": "uint256",
          "name": "",
          "type": "uint256"
        }
      ],
      "stateMutability": "view",
      "type": "function"
    },
    {
      "inputs": [
        {
          "internalType": "address",
          "name": "tp_",
          "type": "address"
        },
        {
          "internalType": "uint256",
          "name": "qTC_",
          "type": "uint256"
        },
        {
          "internalType": "uint256",
          "name": "qTP_",
          "type": "uint256"
        },
        {
          "internalType": "uint256",
          "name": "qACmin_",
          "type": "uint256"
        },
        {
          "internalType": "address",
          "name": "vendor_",
          "type": "address"
        }
      ],
      "name": "redeemTCandTPViaVendor",
      "outputs": [
        {
          "internalType": "uint256",
          "name": "operId",
          "type": "uint256"
        }
      ],
      "stateMutability": "payable",
      "type": "function"
    },
    {
      "inputs": [
        {
          "internalType": "address",
          "name": "tp_",
          "type": "address"
        },
        {
          "internalType": "uint256",
          "name": "qTC_",
          "type": "uint256"
        },
        {
          "internalType": "uint256",
          "name": "qTP_",
          "type": "uint256"
        },
        {
          "internalType": "uint256",
          "name": "qACmin_",
          "type": "uint256"
        },
        {
          "internalType": "address",
          "name": "recipient_",
          "type": "address"
        }
      ],
      "name": "redeemTCandTPto",
      "outputs": [
        {
          "internalType": "uint256",
          "name": "operId",
          "type": "uint256"
        }
      ],
      "stateMutability": "payable",
      "type": "function"
    },
    {
      "inputs": [
        {
          "internalType": "address",
          "name": "tp_",
          "type": "address"
        },
        {
          "internalType": "uint256",
          "name": "qTC_",
          "type": "uint256"
        },
        {
          "internalType": "uint256",
          "name": "qTP_",
          "type": "uint256"
        },
        {
          "internalType": "uint256",
          "name": "qACmin_",
          "type": "uint256"
        },
        {
          "internalType": "address",
          "name": "recipient_",
          "type": "address"
        },
        {
          "internalType": "address",
          "name": "vendor_",
          "type": "address"
        }
      ],
      "name": "redeemTCandTPtoViaVendor",
      "outputs": [
        {
          "internalType": "uint256",
          "name": "operId",
          "type": "uint256"
        }
      ],
      "stateMutability": "payable",
      "type": "function"
    },
    {
      "inputs": [
        {
          "internalType": "uint256",
          "name": "qTC_",
          "type": "uint256"
        },
        {
          "internalType": "uint256",
          "name": "qACmin_",
          "type": "uint256"
        },
        {
          "internalType": "address",
          "name": "recipient_",
          "type": "address"
        }
      ],
      "name": "redeemTCto",
      "outputs": [
        {
          "internalType": "uint256",
          "name": "operId",
          "type": "uint256"
        }
      ],
      "stateMutability": "payable",
      "type": "function"
    },
    {
      "inputs": [
        {
          "internalType": "uint256",
          "name": "qTC_",
          "type": "uint256"
        },
        {
          "internalType": "uint256",
          "name": "qACmin_",
          "type": "uint256"
        },
        {
          "internalType": "address",
          "name": "recipient_",
          "type": "address"
        },
        {
          "internalType": "address",
          "name": "vendor_",
          "type": "address"
        }
      ],
      "name": "redeemTCtoViaVendor",
      "outputs": [
        {
          "internalType": "uint256",
          "name": "operId",
          "type": "uint256"
        }
      ],
      "stateMutability": "payable",
      "type": "function"
    },
    {
      "inputs": [
        {
          "internalType": "address",
          "name": "tp_",
          "type": "address"
        },
        {
          "internalType": "uint256",
          "name": "qTP_",
          "type": "uint256"
        },
        {
          "internalType": "uint256",
          "name": "qACmin_",
          "type": "uint256"
        }
      ],
      "name": "redeemTP",
      "outputs": [
        {
          "internalType": "uint256",
          "name": "operId",
          "type": "uint256"
        }
      ],
      "stateMutability": "payable",
      "type": "function"
    },
    {
      "inputs": [
        {
          "internalType": "address",
          "name": "tp_",
          "type": "address"
        },
        {
          "internalType": "uint256",
          "name": "qTP_",
          "type": "uint256"
        },
        {
          "internalType": "uint256",
          "name": "qACmin_",
          "type": "uint256"
        },
        {
          "internalType": "address",
          "name": "vendor_",
          "type": "address"
        }
      ],
      "name": "redeemTPViaVendor",
      "outputs": [
        {
          "internalType": "uint256",
          "name": "operId",
          "type": "uint256"
        }
      ],
      "stateMutability": "payable",
      "type": "function"
    },
    {
      "inputs": [
        {
          "internalType": "address",
          "name": "tp_",
          "type": "address"
        },
        {
          "internalType": "uint256",
          "name": "qTP_",
          "type": "uint256"
        },
        {
          "internalType": "uint256",
          "name": "qACmin_",
          "type": "uint256"
        },
        {
          "internalType": "address",
          "name": "recipient_",
          "type": "address"
        }
      ],
      "name": "redeemTPto",
      "outputs": [
        {
          "internalType": "uint256",
          "name": "operId",
          "type": "uint256"
        }
      ],
      "stateMutability": "payable",
      "type": "function"
    },
    {
      "inputs": [
        {
          "internalType": "address",
          "name": "tp_",
          "type": "address"
        },
        {
          "internalType": "uint256",
          "name": "qTP_",
          "type": "uint256"
        },
        {
          "internalType": "uint256",
          "name": "qACmin_",
          "type": "uint256"
        },
        {
          "internalType": "address",
          "name": "recipient_",
          "type": "address"
        },
        {
          "internalType": "address",
          "name": "vendor_",
          "type": "address"
        }
      ],
      "name": "redeemTPtoViaVendor",
      "outputs": [
        {
          "internalType": "uint256",
          "name": "operId",
          "type": "uint256"
        }
      ],
      "stateMutability": "payable",
      "type": "function"
    },
    {
      "inputs": [],
      "name": "refreshACBalance",
      "outputs": [],
      "stateMutability": "nonpayable",
      "type": "function"
    },
    {
      "inputs": [
        {
          "internalType": "uint256",
          "name": "appreciationFactor_",
          "type": "uint256"
        }
      ],
      "name": "setAppreciationFactor",
      "outputs": [],
      "stateMutability": "nonpayable",
      "type": "function"
    },
    {
      "inputs": [
        {
          "internalType": "uint256",
          "name": "bes_",
          "type": "uint256"
        }
      ],
      "name": "setBes",
      "outputs": [],
      "stateMutability": "nonpayable",
      "type": "function"
    },
    {
      "inputs": [
        {
          "internalType": "uint256",
          "name": "blockSpan_",
          "type": "uint256"
        }
      ],
      "name": "setEmaCalculationBlockSpan",
      "outputs": [],
      "stateMutability": "nonpayable",
      "type": "function"
    },
    {
      "inputs": [
        {
          "internalType": "uint256",
          "name": "feeRetainer_",
          "type": "uint256"
        }
      ],
      "name": "setFeeRetainer",
      "outputs": [],
      "stateMutability": "nonpayable",
      "type": "function"
    },
    {
      "inputs": [
        {
          "internalType": "address",
          "name": "mocFeeTokenAddress_",
          "type": "address"
        }
      ],
      "name": "setFeeTokenAddress",
      "outputs": [],
      "stateMutability": "nonpayable",
      "type": "function"
    },
    {
      "inputs": [
        {
          "internalType": "uint256",
          "name": "feeTokenPct_",
          "type": "uint256"
        }
      ],
      "name": "setFeeTokenPct",
      "outputs": [],
      "stateMutability": "nonpayable",
      "type": "function"
    },
    {
      "inputs": [
        {
          "internalType": "address",
          "name": "mocFeeTokenPriceProviderAddress_",
          "type": "address"
        }
      ],
      "name": "setFeeTokenPriceProviderAddress",
      "outputs": [],
      "stateMutability": "nonpayable",
      "type": "function"
    },
    {
      "inputs": [
        {
          "internalType": "bool",
          "name": "liqEnabled_",
          "type": "bool"
        }
      ],
      "name": "setLiqEnabled",
      "outputs": [],
      "stateMutability": "nonpayable",
      "type": "function"
    },
    {
      "inputs": [
        {
          "internalType": "uint256",
          "name": "liqThrld_",
          "type": "uint256"
        }
      ],
      "name": "setLiqThrld",
      "outputs": [],
      "stateMutability": "nonpayable",
      "type": "function"
    },
    {
      "inputs": [
        {
          "internalType": "uint256",
          "name": "mintTCandTPFee_",
          "type": "uint256"
        }
      ],
      "name": "setMintTCandTPFee",
      "outputs": [],
      "stateMutability": "nonpayable",
      "type": "function"
    },
    {
      "inputs": [
        {
          "internalType": "address",
          "name": "mocAppreciationBeneficiaryAddress_",
          "type": "address"
        }
      ],
      "name": "setMocAppreciationBeneficiaryAddress",
      "outputs": [],
      "stateMutability": "nonpayable",
      "type": "function"
    },
    {
      "inputs": [
        {
          "internalType": "address",
          "name": "mocCoreExpansion_",
          "type": "address"
        }
      ],
      "name": "setMocCoreExpansion",
      "outputs": [],
      "stateMutability": "nonpayable",
      "type": "function"
    },
    {
      "inputs": [
        {
          "internalType": "address",
          "name": "mocFeeFlowAddress_",
          "type": "address"
        }
      ],
      "name": "setMocFeeFlowAddress",
      "outputs": [],
      "stateMutability": "nonpayable",
      "type": "function"
    },
    {
      "inputs": [
        {
          "internalType": "address",
          "name": "mocMultiCollateralGuardAddress_",
          "type": "address"
        }
      ],
      "name": "setMocMultiCollateralGuard",
      "outputs": [],
      "stateMutability": "nonpayable",
      "type": "function"
    },
    {
      "inputs": [
        {
          "internalType": "address",
          "name": "mocQueue_",
          "type": "address"
        }
      ],
      "name": "setMocQueue",
      "outputs": [],
      "stateMutability": "nonpayable",
      "type": "function"
    },
    {
      "inputs": [
        {
          "internalType": "address",
          "name": "mocVendors_",
          "type": "address"
        }
      ],
      "name": "setMocVendors",
      "outputs": [],
      "stateMutability": "nonpayable",
      "type": "function"
    },
    {
      "inputs": [
        {
          "internalType": "address",
          "name": "newPauser_",
          "type": "address"
        }
      ],
      "name": "setPauser",
      "outputs": [],
      "stateMutability": "nonpayable",
      "type": "function"
    },
    {
      "inputs": [
        {
          "internalType": "uint256",
          "name": "protThrld_",
          "type": "uint256"
        }
      ],
      "name": "setProtThrld",
      "outputs": [],
      "stateMutability": "nonpayable",
      "type": "function"
    },
    {
      "inputs": [
        {
          "internalType": "uint256",
          "name": "redeemTCandTPFee_",
          "type": "uint256"
        }
      ],
      "name": "setRedeemTCandTPFee",
      "outputs": [],
      "stateMutability": "nonpayable",
      "type": "function"
    },
    {
      "inputs": [
        {
          "internalType": "uint256",
          "name": "successFee_",
          "type": "uint256"
        }
      ],
      "name": "setSuccessFee",
      "outputs": [],
      "stateMutability": "nonpayable",
      "type": "function"
    },
    {
      "inputs": [
        {
          "internalType": "uint256",
          "name": "swapTCforTPFee_",
          "type": "uint256"
        }
      ],
      "name": "setSwapTCforTPFee",
      "outputs": [],
      "stateMutability": "nonpayable",
      "type": "function"
    },
    {
      "inputs": [
        {
          "internalType": "uint256",
          "name": "swapTPforTCFee_",
          "type": "uint256"
        }
      ],
      "name": "setSwapTPforTCFee",
      "outputs": [],
      "stateMutability": "nonpayable",
      "type": "function"
    },
    {
      "inputs": [
        {
          "internalType": "uint256",
          "name": "swapTPforTPFee_",
          "type": "uint256"
        }
      ],
      "name": "setSwapTPforTPFee",
      "outputs": [],
      "stateMutability": "nonpayable",
      "type": "function"
    },
    {
      "inputs": [
        {
          "internalType": "address",
          "name": "tcInterestCollectorAddress_",
          "type": "address"
        }
      ],
      "name": "setTCInterestCollectorAddress",
      "outputs": [],
      "stateMutability": "nonpayable",
      "type": "function"
    },
    {
      "inputs": [
        {
          "internalType": "uint256",
          "name": "tcInterestPaymentBlockSpan_",
          "type": "uint256"
        }
      ],
      "name": "setTCInterestPaymentBlockSpan",
      "outputs": [],
      "stateMutability": "nonpayable",
      "type": "function"
    },
    {
      "inputs": [
        {
          "internalType": "uint256",
          "name": "tcInterestRate_",
          "type": "uint256"
        }
      ],
      "name": "setTCInterestRate",
      "outputs": [],
      "stateMutability": "nonpayable",
      "type": "function"
    },
    {
      "inputs": [
        {
          "internalType": "uint256",
          "name": "tcMintFee_",
          "type": "uint256"
        }
      ],
      "name": "setTcMintFee",
      "outputs": [],
      "stateMutability": "nonpayable",
      "type": "function"
    },
    {
      "inputs": [
        {
          "internalType": "uint256",
          "name": "tcRedeemFee_",
          "type": "uint256"
        }
      ],
      "name": "setTcRedeemFee",
      "outputs": [],
      "stateMutability": "nonpayable",
      "type": "function"
    },
    {
      "inputs": [],
      "name": "shouldCalculateEma",
      "outputs": [
        {
          "internalType": "bool",
          "name": "",
          "type": "bool"
        }
      ],
      "stateMutability": "view",
      "type": "function"
    },
    {
      "inputs": [],
      "name": "stoppable",
      "outputs": [
        {
          "internalType": "bool",
          "name": "",
          "type": "bool"
        }
      ],
      "stateMutability": "view",
      "type": "function"
    },
    {
      "inputs": [],
      "name": "successFee",
      "outputs": [
        {
          "internalType": "uint256",
          "name": "",
          "type": "uint256"
        }
      ],
      "stateMutability": "view",
      "type": "function"
    },
    {
      "inputs": [
        {
          "internalType": "address",
          "name": "tp_",
          "type": "address"
        },
        {
          "internalType": "uint256",
          "name": "qTC_",
          "type": "uint256"
        },
        {
          "internalType": "uint256",
          "name": "qTPmin_",
          "type": "uint256"
        },
        {
          "internalType": "uint256",
          "name": "qACmax_",
          "type": "uint256"
        }
      ],
      "name": "swapTCforTP",
      "outputs": [
        {
          "internalType": "uint256",
          "name": "operId",
          "type": "uint256"
        }
      ],
      "stateMutability": "payable",
      "type": "function"
    },
    {
      "inputs": [],
      "name": "swapTCforTPFee",
      "outputs": [
        {
          "internalType": "uint256",
          "name": "",
          "type": "uint256"
        }
      ],
      "stateMutability": "view",
      "type": "function"
    },
    {
      "inputs": [
        {
          "internalType": "address",
          "name": "tp_",
          "type": "address"
        },
        {
          "internalType": "uint256",
          "name": "qTC_",
          "type": "uint256"
        },
        {
          "internalType": "uint256",
          "name": "qTPmin_",
          "type": "uint256"
        },
        {
          "internalType": "uint256",
          "name": "qACmax_",
          "type": "uint256"
        },
        {
          "internalType": "address",
          "name": "vendor_",
          "type": "address"
        }
      ],
      "name": "swapTCforTPViaVendor",
      "outputs": [
        {
          "internalType": "uint256",
          "name": "operId",
          "type": "uint256"
        }
      ],
      "stateMutability": "payable",
      "type": "function"
    },
    {
      "inputs": [
        {
          "internalType": "address",
          "name": "tp_",
          "type": "address"
        },
        {
          "internalType": "uint256",
          "name": "qTC_",
          "type": "uint256"
        },
        {
          "internalType": "uint256",
          "name": "qTPmin_",
          "type": "uint256"
        },
        {
          "internalType": "uint256",
          "name": "qACmax_",
          "type": "uint256"
        },
        {
          "internalType": "address",
          "name": "recipient_",
          "type": "address"
        }
      ],
      "name": "swapTCforTPto",
      "outputs": [
        {
          "internalType": "uint256",
          "name": "operId",
          "type": "uint256"
        }
      ],
      "stateMutability": "payable",
      "type": "function"
    },
    {
      "inputs": [
        {
          "internalType": "address",
          "name": "tp_",
          "type": "address"
        },
        {
          "internalType": "uint256",
          "name": "qTC_",
          "type": "uint256"
        },
        {
          "internalType": "uint256",
          "name": "qTPmin_",
          "type": "uint256"
        },
        {
          "internalType": "uint256",
          "name": "qACmax_",
          "type": "uint256"
        },
        {
          "internalType": "address",
          "name": "recipient_",
          "type": "address"
        },
        {
          "internalType": "address",
          "name": "vendor_",
          "type": "address"
        }
      ],
      "name": "swapTCforTPtoViaVendor",
      "outputs": [
        {
          "internalType": "uint256",
          "name": "operId",
          "type": "uint256"
        }
      ],
      "stateMutability": "payable",
      "type": "function"
    },
    {
      "inputs": [
        {
          "internalType": "address",
          "name": "tp_",
          "type": "address"
        },
        {
          "internalType": "uint256",
          "name": "qTP_",
          "type": "uint256"
        },
        {
          "internalType": "uint256",
          "name": "qTCmin_",
          "type": "uint256"
        },
        {
          "internalType": "uint256",
          "name": "qACmax_",
          "type": "uint256"
        }
      ],
      "name": "swapTPforTC",
      "outputs": [
        {
          "internalType": "uint256",
          "name": "operId",
          "type": "uint256"
        }
      ],
      "stateMutability": "payable",
      "type": "function"
    },
    {
      "inputs": [],
      "name": "swapTPforTCFee",
      "outputs": [
        {
          "internalType": "uint256",
          "name": "",
          "type": "uint256"
        }
      ],
      "stateMutability": "view",
      "type": "function"
    },
    {
      "inputs": [
        {
          "internalType": "address",
          "name": "tp_",
          "type": "address"
        },
        {
          "internalType": "uint256",
          "name": "qTP_",
          "type": "uint256"
        },
        {
          "internalType": "uint256",
          "name": "qTCmin_",
          "type": "uint256"
        },
        {
          "internalType": "uint256",
          "name": "qACmax_",
          "type": "uint256"
        },
        {
          "internalType": "address",
          "name": "vendor_",
          "type": "address"
        }
      ],
      "name": "swapTPforTCViaVendor",
      "outputs": [
        {
          "internalType": "uint256",
          "name": "operId",
          "type": "uint256"
        }
      ],
      "stateMutability": "payable",
      "type": "function"
    },
    {
      "inputs": [
        {
          "internalType": "address",
          "name": "tp_",
          "type": "address"
        },
        {
          "internalType": "uint256",
          "name": "qTP_",
          "type": "uint256"
        },
        {
          "internalType": "uint256",
          "name": "qTCmin_",
          "type": "uint256"
        },
        {
          "internalType": "uint256",
          "name": "qACmax_",
          "type": "uint256"
        },
        {
          "internalType": "address",
          "name": "recipient_",
          "type": "address"
        }
      ],
      "name": "swapTPforTCto",
      "outputs": [
        {
          "internalType": "uint256",
          "name": "operId",
          "type": "uint256"
        }
      ],
      "stateMutability": "payable",
      "type": "function"
    },
    {
      "inputs": [
        {
          "internalType": "address",
          "name": "tp_",
          "type": "address"
        },
        {
          "internalType": "uint256",
          "name": "qTP_",
          "type": "uint256"
        },
        {
          "internalType": "uint256",
          "name": "qTCmin_",
          "type": "uint256"
        },
        {
          "internalType": "uint256",
          "name": "qACmax_",
          "type": "uint256"
        },
        {
          "internalType": "address",
          "name": "recipient_",
          "type": "address"
        },
        {
          "internalType": "address",
          "name": "vendor_",
          "type": "address"
        }
      ],
      "name": "swapTPforTCtoViaVendor",
      "outputs": [
        {
          "internalType": "uint256",
          "name": "operId",
          "type": "uint256"
        }
      ],
      "stateMutability": "payable",
      "type": "function"
    },
    {
      "inputs": [
        {
          "internalType": "address",
          "name": "tpFrom_",
          "type": "address"
        },
        {
          "internalType": "address",
          "name": "tpTo_",
          "type": "address"
        },
        {
          "internalType": "uint256",
          "name": "qTP_",
          "type": "uint256"
        },
        {
          "internalType": "uint256",
          "name": "qTPmin_",
          "type": "uint256"
        },
        {
          "internalType": "uint256",
          "name": "qACmax_",
          "type": "uint256"
        }
      ],
      "name": "swapTPforTP",
      "outputs": [
        {
          "internalType": "uint256",
          "name": "operId",
          "type": "uint256"
        }
      ],
      "stateMutability": "payable",
      "type": "function"
    },
    {
      "inputs": [],
      "name": "swapTPforTPFee",
      "outputs": [
        {
          "internalType": "uint256",
          "name": "",
          "type": "uint256"
        }
      ],
      "stateMutability": "view",
      "type": "function"
    },
    {
      "inputs": [
        {
          "internalType": "address",
          "name": "tpFrom_",
          "type": "address"
        },
        {
          "internalType": "address",
          "name": "tpTo_",
          "type": "address"
        },
        {
          "internalType": "uint256",
          "name": "qTP_",
          "type": "uint256"
        },
        {
          "internalType": "uint256",
          "name": "qTPmin_",
          "type": "uint256"
        },
        {
          "internalType": "uint256",
          "name": "qACmax_",
          "type": "uint256"
        },
        {
          "internalType": "address",
          "name": "vendor_",
          "type": "address"
        }
      ],
      "name": "swapTPforTPViaVendor",
      "outputs": [
        {
          "internalType": "uint256",
          "name": "operId",
          "type": "uint256"
        }
      ],
      "stateMutability": "payable",
      "type": "function"
    },
    {
      "inputs": [
        {
          "internalType": "address",
          "name": "tpFrom_",
          "type": "address"
        },
        {
          "internalType": "address",
          "name": "tpTo_",
          "type": "address"
        },
        {
          "internalType": "uint256",
          "name": "qTP_",
          "type": "uint256"
        },
        {
          "internalType": "uint256",
          "name": "qTPmin_",
          "type": "uint256"
        },
        {
          "internalType": "uint256",
          "name": "qACmax_",
          "type": "uint256"
        },
        {
          "internalType": "address",
          "name": "recipient_",
          "type": "address"
        }
      ],
      "name": "swapTPforTPto",
      "outputs": [
        {
          "internalType": "uint256",
          "name": "operId",
          "type": "uint256"
        }
      ],
      "stateMutability": "payable",
      "type": "function"
    },
    {
      "inputs": [
        {
          "internalType": "address",
          "name": "tpFrom_",
          "type": "address"
        },
        {
          "internalType": "address",
          "name": "tpTo_",
          "type": "address"
        },
        {
          "internalType": "uint256",
          "name": "qTP_",
          "type": "uint256"
        },
        {
          "internalType": "uint256",
          "name": "qTPmin_",
          "type": "uint256"
        },
        {
          "internalType": "uint256",
          "name": "qACmax_",
          "type": "uint256"
        },
        {
          "internalType": "address",
          "name": "recipient_",
          "type": "address"
        },
        {
          "internalType": "address",
          "name": "vendor_",
          "type": "address"
        }
      ],
      "name": "swapTPforTPtoViaVendor",
      "outputs": [
        {
          "internalType": "uint256",
          "name": "operId",
          "type": "uint256"
        }
      ],
      "stateMutability": "payable",
      "type": "function"
    },
    {
      "inputs": [],
      "name": "tcHoldersInterestPayment",
      "outputs": [],
      "stateMutability": "nonpayable",
      "type": "function"
    },
    {
      "inputs": [],
      "name": "tcInterestCollectorAddress",
      "outputs": [
        {
          "internalType": "address",
          "name": "",
          "type": "address"
        }
      ],
      "stateMutability": "view",
      "type": "function"
    },
    {
      "inputs": [],
      "name": "tcInterestPaymentBlockSpan",
      "outputs": [
        {
          "internalType": "uint256",
          "name": "",
          "type": "uint256"
        }
      ],
      "stateMutability": "view",
      "type": "function"
    },
    {
      "inputs": [],
      "name": "tcInterestRate",
      "outputs": [
        {
          "internalType": "uint256",
          "name": "",
          "type": "uint256"
        }
      ],
      "stateMutability": "view",
      "type": "function"
    },
    {
      "inputs": [],
      "name": "tcMintFee",
      "outputs": [
        {
          "internalType": "uint256",
          "name": "",
          "type": "uint256"
        }
      ],
      "stateMutability": "view",
      "type": "function"
    },
    {
      "inputs": [],
      "name": "tcRedeemFee",
      "outputs": [
        {
          "internalType": "uint256",
          "name": "",
          "type": "uint256"
        }
      ],
      "stateMutability": "view",
      "type": "function"
    },
    {
      "inputs": [],
      "name": "tcToken",
      "outputs": [
        {
          "internalType": "contract MocTC",
          "name": "",
          "type": "address"
        }
      ],
      "stateMutability": "view",
      "type": "function"
    },
    {
      "inputs": [
        {
          "internalType": "uint256",
          "name": "",
          "type": "uint256"
        }
      ],
      "name": "tpCtarg",
      "outputs": [
        {
          "internalType": "uint256",
          "name": "",
          "type": "uint256"
        }
      ],
      "stateMutability": "view",
      "type": "function"
    },
    {
      "inputs": [
        {
          "internalType": "uint256",
          "name": "",
          "type": "uint256"
        }
      ],
      "name": "tpEma",
      "outputs": [
        {
          "internalType": "uint256",
          "name": "ema",
          "type": "uint256"
        },
        {
          "internalType": "uint256",
          "name": "sf",
          "type": "uint256"
        }
      ],
      "stateMutability": "view",
      "type": "function"
    },
    {
      "inputs": [
        {
          "internalType": "uint256",
          "name": "",
          "type": "uint256"
        }
      ],
      "name": "tpLiqPrices",
      "outputs": [
        {
          "internalType": "uint256",
          "name": "",
          "type": "uint256"
        }
      ],
      "stateMutability": "view",
      "type": "function"
    },
    {
      "inputs": [
        {
          "internalType": "address",
          "name": "",
          "type": "address"
        }
      ],
      "name": "tpMintFees",
      "outputs": [
        {
          "internalType": "uint256",
          "name": "",
          "type": "uint256"
        }
      ],
      "stateMutability": "view",
      "type": "function"
    },
    {
      "inputs": [
        {
          "internalType": "address",
          "name": "",
          "type": "address"
        }
      ],
      "name": "tpRedeemFees",
      "outputs": [
        {
          "internalType": "uint256",
          "name": "",
          "type": "uint256"
        }
      ],
      "stateMutability": "view",
      "type": "function"
    },
    {
      "inputs": [
        {
          "internalType": "uint256",
          "name": "",
          "type": "uint256"
        }
      ],
      "name": "tpTokens",
      "outputs": [
        {
          "internalType": "contract IMocRC20",
          "name": "",
          "type": "address"
        }
      ],
      "stateMutability": "view",
      "type": "function"
    },
    {
      "inputs": [
        {
          "internalType": "address",
          "name": "owner_",
          "type": "address"
        },
        {
          "internalType": "uint256",
          "name": "qACToUnlock_",
          "type": "uint256"
        }
      ],
      "name": "unlockACInPending",
      "outputs": [],
      "stateMutability": "nonpayable",
      "type": "function"
    },
    {
      "inputs": [
        {
          "internalType": "address",
          "name": "owner_",
          "type": "address"
        },
        {
          "internalType": "uint256",
          "name": "qTCToUnlock_",
          "type": "uint256"
        }
      ],
      "name": "unlockTCInPending",
      "outputs": [],
      "stateMutability": "nonpayable",
      "type": "function"
    },
    {
      "inputs": [
        {
          "internalType": "address",
          "name": "owner_",
          "type": "address"
        },
        {
          "internalType": "contract IERC20Upgradeable",
          "name": "tpToken_",
          "type": "address"
        },
        {
          "internalType": "uint256",
          "name": "qTPToUnlock_",
          "type": "uint256"
        }
      ],
      "name": "unlockTPInPending",
      "outputs": [],
      "stateMutability": "nonpayable",
      "type": "function"
    },
    {
      "inputs": [],
      "name": "unpause",
      "outputs": [],
      "stateMutability": "nonpayable",
      "type": "function"
    },
    {
      "inputs": [],
      "name": "updateEmas",
      "outputs": [],
      "stateMutability": "nonpayable",
      "type": "function"
    },
    {
      "inputs": [
        {
          "internalType": "address",
          "name": "newImplementation",
          "type": "address"
        }
      ],
      "name": "upgradeTo",
      "outputs": [],
      "stateMutability": "nonpayable",
      "type": "function"
    },
    {
      "inputs": [
        {
          "internalType": "address",
          "name": "newImplementation",
          "type": "address"
        },
        {
          "internalType": "bytes",
          "name": "data",
          "type": "bytes"
        }
      ],
      "name": "upgradeToAndCall",
      "outputs": [],
      "stateMutability": "payable",
      "type": "function"
    }
  ],
  "bytecode": "0x60a08060405234620000e157306080526000549060ff8260081c166200008f575060ff8082160362000053575b60405161610d9081620000e7823960805181818161271701528181612882015261326e0152f35b60ff90811916176000557f7f26b83ff96e1f2b6a682f133852f6798a09c465da95921460cefb3847402498602060405160ff8152a1386200002c565b62461bcd60e51b815260206004820152602760248201527f496e697469616c697a61626c653a20636f6e747261637420697320696e697469604482015266616c697a696e6760c81b6064820152608490fd5b600080fdfe6040608081526004908136101561001557600080fd5b600060e0908035821c918262abc30a14613ab357826301dde6ef14613a9057826301f1b68414613a4a5782630579188f146139a0578263073763b91461397d5782630bb7f6081461395c5782630c340a24146139335782630c36d897146139135782630d6ac463146138ce5782630db49656146138ae5782630e0a8fd21461388b5782630f1e5e2b1461384657826313ed7ba51461381c57826315266e361461380057826317937f9b146137ca5782631867e2f5146137aa5782631fb0dda0146137815782631fe6a7ad146137485782632069f75314613725578263235e81cf146135a857826323b98cde1461358057826324ffaba31461354457826325bc6c411461351a57826327eab2a1146134d55782632a20d57d146134b55782632b764fad146134995782632c43bd3b146134765782632d88af4a146134205782632ded50f014613400578263333431fd146133e057826333421c38146132ec57826334246862146132d35782633659cfe61461323a5782633915edcb1461320a578263391bf6cf146130bc5782633bc4ac0a146130995782633cfb09ef146130545782633dbc50a91461303b5782633f4ba83a14612fc05782634017936a14612f79578263407f0e3414612f595782634310adc614612f2557826343a0e39e14612efc57826344719ee914612ec6578263466b893414612e90578263471a80e314612e5a578263484ad7cd14612e245782634af3a6fc14612da35782634b74600114612d5a5782634bc87043146129535782634d977e78146129335782634e1f907a146129095782634f0f27ee146128e95782634f1ef286146127fc5782635210570c146127d657826352d1902d1461270157826352e18f8f146126e7578263533a4bea1461269557826353b16d171461264f578263543aeb481461262c57826358f32de9146125dd5782635c616a73146123ef5782635c975abb146123c85782635cfbe578146123a85782635ece17ef1461238c57826360009e0b1461236257826361d87b40146123385782636352865c14612307578263647846a5146122dd57826364ec230a146122ba578263662013f41461229d578263682743571461227457826368f015df146122165782636955cca4146121e55782636b5488df146121c557826370713468146121a2578263735d39601461215d57826374873ad3146121415782637554fffd14612121578263759a2a38146120eb578263772ebe8f146120965782637750ba0c1461207357826379f9a91c146120535782637a193c31146120335782637a4ff1d9146120105782637a727fe814611ff05782637af5758c14611fcd5782637b21b27414611fb15782637cba238314611f8e5782637d8e031414611f505782637f01c71514611f265782637f4a4fe014611f06578263826fcd5814611ee3578263842d574814611ec95782638456cb5914611e37578263883d21cb14611bd057826389fd503e14611bb75782638acc201114611b9e5782638cfa424114611b7e5782638e2bdb8614611b545782638f1a383a14611b2c5782639853c35a14611b0257826398b2086f14611ae95782639abb14c914611ac85782639ad6659d14611a925782639bea71a414611a505782639cabfc0014611a055782639fd0506d146119d85782639fd8ed0e146119bf578263a8e9ac301461199c578263aaf91eff14611980578263aaf925f614611966578263ac0c88ab1461194d578263ad4e666d146117b8578263aea038dc14611798578263aeb41e691461177c578263b4434c3214611585578263b85edd651461156c578263b9fa64131461154c578263bb2080eb14611507578263bb4872de146114e3578263bc4e55b21461137d578263becaca6b1461135a578263bfe4262114611169578263c00f538d14611146578263c039cc6914611104578263c09c30bd146110ba578263c239fca4146110a0578263c84353c91461107d578263cf351c1d14611038578263d1a0faa01461101f578263d76dc7fd14611006578263d8c69aec14610cfc578263db79607214610c29578263ddb6d19014610bed578263de8d520a14610bba578263e23c135c14610b68578263e2c5e99014610b16578263e3867eeb14610af9578263e401294514610ac5578263e4c0aaf414610a7c578263e6a683e014610a37578263e6b1627c146109f8578263e7c25978146109d3578263e8859a15146109b6578263ea302a971461099c578263f13f405414610972578263f26114aa1461090757508163f2808778146108e5578163f2f9f456146108cc578163f30b5614146108ad578163f375cfba1461088e578163f88b143414610826578163fa6e83bd14610807578163fadda42414610790578163fd80fa7714610775578163fda70f8b1461075257508063fed0ade4146107385763ffe31539146106f957600080fd5b606036600319011261073357604435916001600160a01b03831683036107335760209261072c9133906024359035614486565b9051908152f35b600080fd5b5061072c6107496020933690613ca6565b92919091614486565b823461077157816003193601126107715760209061016e549051908152f35b5080fd5b61072c91506107876020943690613d9d565b939290926149f3565b8391503461080457602036600319011261080457506001600160a01b0381358181168103610733576107ce6107c6600192615347565b610169613ccc565b50015416906107dc826154de565b929092156107ee576020838551908152f35b8351637f6e4db960e01b81529182015260249150fd5b80fd5b823461077157816003193601126107715760209061016c549051908152f35b83915034610804576020366003190112610804575035906001600160a01b03821682036107335761072c610880602093610869610861615e90565b919092615347565b9161088861087784846143e9565b5194859361518e565b959094615de8565b906150fd565b8234610771578160031936011261077157602090610173549051908152f35b8234610771578160031936011261077157602090610163549051908152f35b60208361072c6108dc3688613d3c565b929133926147e3565b8334610771576020366003190112610771576108ff615fe2565b3561016e5580f35b8484913461096e5736600319011261096a57610954610946916109669361092c615fe2565b516379308a5560e11b602082015292839160248301615d50565b03601f198101835282613ce8565b610220546001600160a01b0316615be7565b5080f35b8280fd5b8380fd5b5082346107715781600319360112610771576101625490516001600160a01b039091168152602090f35b60208461072c846109ad368a613d9d565b93929092614c76565b50823461077157816003193601126107715760209061072c615db1565b50823461077157816003193601126107715760209060ff61017d541690519015158152f35b5082843461096a57602036600319011261096a57356101b8805482101561096e5790610a2391613ccc565b506001815491015482519182526020820152f35b50833461077157602036600319011261077157356001600160a01b0381169081900361073357610a65615fe2565b61022080546001600160a01b031916909117905580f35b50833461077157602036600319011261077157356001600160a01b0381169081900361077157610aaa615fe2565b6bffffffffffffffffffffffff60a01b609754161760975580f35b508284606036600319011261073357604435926001600160a01b03841684036107335760209361072c9260243590356146ef565b60208461072c84610b0a368a613dcf565b94939093929192614b2e565b508334610771576060366003190112610771576001600160a01b03903581811681036107335760243590828216820361096e57610b5c610b659361025554163314614e02565b60443591614f73565b80f35b5034610804578060031936011261080457610b823061430c565b61016390610b9f610b95835480936142e9565b61025454906142e9565b80610ba8578380f35b610bb191614574565b90558180808380f35b50823461077157816003193601126107715760209061072c610be2610bdd615560565b61518e565b9050610163546142e9565b5082843461096a57602036600319011261096a57356001600160a01b038116908190036107335782829160209452610177845220549051908152f35b8484913461096e5736600319011261096a57610256546001600160a01b039290831680610c98575b5091610c8e610c809261096694610c66615fe2565b51636dbcb03960e11b602082015293849160248301615d50565b03601f198101845283613ce8565b6102205416615be7565b823590848216809203610733578591813b1561096a5782906024855180948193633496ca3360e11b8352898301525afa8015610cf257610cd9575b50610c51565b81610ce691959395613ce8565b61096e57918385610cd3565b83513d84823e3d90fd5b849250346107715736600319011261080457610d16614ddb565b50610255546001600160a01b039190610d329083163314614e02565b610d3c3684614f00565b93610d45614ddb565b50610d4e614fac565b610d56616070565b610d5e615f4e565b610d66615e90565b949095610d7585825116615347565b95610d98610d8388836143e9565b5191610d8f838a615abb565b61017c546156b9565b98670de0b6b3a763ffff1990818101908111610ff357610db89084614fce565b610dc2848b615de8565b918201918211610ff357610e0b94939291610ddc91615299565b91610df56020850193610df0848651614fce565b614fce565b670de0b6b3a76400009586916101665490615299565b049a87850151808d11610fd75750610e25908451936152f5565b90858c028c810487148d151715610fc25790610e4091615299565b918215610fb25789949286610e60610e929b9a99989694610e6794614fce565b0490614574565b998a976080840192610e89878551168b60c08801998a511661017354926156fc565b9c91909b6142e9565b9c8d6060870151809110610f9657508c8f958f9896610f319a98968396610eca92610ec3869860a09830915161599f565b3092615b10565b51169301511693511690610edc615c2c565b895115610f705750610f22610f2c92610efa61016d548c5190614fce565b04610163610f09828254614574565b9055610f1c8c6101785416918c516142e9565b90615c83565b8689015190615c83565b615c83565b600161012f55359380851680950361073357608435908116810361073357610f6c94610f6291886044350391614f73565b5194859485613c66565b0390f35b90610f2c9250610f8b8b610178541660208c01519084615ca4565b60608a015191615ca4565b898f6044928d51926354cde31360e01b84528301526024820152fd5b875163f3e39b5d60e01b81528790fd5b601188634e487b7160e01b6000525260246000fd5b878d6044928b5192637a031da360e11b84528301526024820152fd5b634e487b7160e01b885260118652602488fd5b60208461072c6110163689613e0f565b93929092614973565b5034610804578060031936011261080457610b65615f4e565b50833461077157602036600319011261077157356001600160a01b0381169081900361073357611066615fe2565b61016180546001600160a01b031916909117905580f35b50833461077157602036600319011261077157611098615fe2565b3561017e5580f35b60208461072c846110b1368a613d3c565b92919091614973565b50828460a036600319011261096a576001600160a01b039290359083821682036107335760243593841684036107335760209361072c923391608435916064359160443591614b2e565b50823461077157816003193601126107715760209061072c61113961114061112d610bdd615560565b610163939193546142e9565b91826142e9565b90616091565b50833461077157602036600319011261077157611161615fe2565b3561016f5580f35b838583346108045760a036600319011261080457506111e19061118a614ddb565b50610255546001600160a01b03906111a59082163314614e02565b6111af3683614e3a565b936111b8614ddb565b506111c1614fac565b6111c9616070565b6111d1615f4e565b6111d9615e90565b8195916156b9565b946111ef8683895193614387565b9080821061133e5750506112188651611212670de0b6b3a76400009788946152f5565b90614fce565b0491821561132e578582611250969701968288511697611245608084019987868c511661016f54926156fc565b9791829a919a6142e9565b976020850151808a10611312575050928798999285806060816112dc999661127f610f6c9e9a3090895161599f565b51169401511694511691611291615c2c565b8851156112ec5750610f2c92610f1c6112d2926112b361016d548c5190614fce565b04916101636112c3848254614574565b90556101785416918a516142e9565b8587015190615c83565b600161012f555193849384613bff565b919050611307610f2c93610178541660208a01519084615ca4565b606088015191615ca4565b87516354cde31360e01b81529182015260248101899052604490fd5b815163f3e39b5d60e01b81528490fd5b859250604493519263a5db715d60e01b84528301526024820152fd5b50833461077157602036600319011261077157611375615fe2565b3561016b5580f35b90915034610771573660031901126108045750610f6c6114af9161139f614ddb565b50610255546001600160a01b03946113c5916113be9087163314614e02565b3690614f00565b6113cd614ddb565b506113d6614fac565b6113de616070565b61141f611410835163ab6dd71d60e01b602082015261140581610946308760248401615c09565b876102205416615be7565b60208082518301019101615b8c565b9492969197909360608101519161143689846142e9565b926114456102549182546142e9565b90558060c0816080850151169301511661145d615c2c565b8751156114bf576114a5610f2c92610f1c670de0b6b3a764000061148661016d548d5190614fce565b0491610163611496848254614574565b90556101785416918b516142e9565b8588015190615c83565b600161012f555194859485613c66565b6114d7610f2c92610178541660208a01519085615ca4565b60608801519083615ca4565b50823461077157816003193601126107715760209060ff60ca541690519015158152f35b50833461077157602036600319011261077157356001600160a01b0381169081900361073357611535615fe2565b61025680546001600160a01b031916909117905580f35b508234610771578160031936011261077157602090610185549051908152f35b60208461072c8461157d368a613c3d565b913393614cf9565b848285346107715760c03660031901126107715790611637916115a6614ddb565b50610255546001600160a01b0394906115c29086163314614e02565b6115cc3682614e97565b926115d5614ddb565b506115de614fac565b6115e6616070565b6115ee615f4e565b6115f6615e90565b96909261160582875116615347565b93611625611613868b6143e9565b519961161f8b88615abb565b826156b9565b6020899a929a01998b8b5194896143fd565b9080821061176157505061164f611687988851616091565b93606087019461167c84875116828a8a60a082019989808c511693511681526101766020522054926156fc565b9991839c919c614574565b99888201948551808d1161174557508b156117375750936116c0869485948594610f6c9d9c9b9960806112dc9c9a519201511692615a22565b51946116cc8b876142e9565b956116db6102549182546142e9565b905551169251166116ea615c2c565b865115611713576112d2610f2c92610f1c670de0b6b3a76400006112b361016d548c5190614fce565b61172b610f2c92610178541660208901519085615ca4565b60608701519083615ca4565b895163f3e39b5d60e01b8152fd5b8a51630b63f1a760e01b815291820152602481018c9052604490fd5b865163c39b739f60e01b815292830152602482015260449150fd5b60208461072c61178c3689613d9d565b939291909133936149f3565b50823461077157816003193601126107715760209061016f549051908152f35b5082843461096a5760c036600319011261096a5761189991926117d9614ddb565b50610255546001600160a01b0394906117f59086163314614e02565b846118003685614e97565b611808614ddb565b50611811614fac565b611819616070565b611821615560565b9361182e83835116615347565b9461185161183c87836143e9565b51916118488389615abb565b61017b546156b9565b505061186260208401918251616091565b61188e60608501938287865116918960a089019e8f5116918a8a511681526101776020522054926156fc565b9891839b919b6142e9565b98821561193f5787860151808b1061192357505094806080818b9c9d966118ce8297610f6c9e9a976112dc9c30925190615b10565b511693015116935116906118e0615c2c565b87511561190a57506112d2610f2c92610f1c670de0b6b3a76400006112b361016d548c5190614fce565b90611307610f2c93610178541660208a01519084615ca4565b88516354cde31360e01b815291820152602481018a9052604490fd5b875163f3e39b5d60e01b8152fd5b60208461072c8461195e368a613c3d565b913393614c76565b60208461072c84611977368a613d3c565b929190916147e3565b60208461072c6119903689613d9d565b93929190913393614cf9565b5082346107715781600319360112610771576020906101b9544310159051908152f35b60208461072c6119cf3689613e0f565b939290926147e3565b50823461077157816003193601126107715760ca54905160109190911c6001600160a01b03168152602090f35b8382863461077157602036600319011261077157356001600160a01b038116919082900361073357829181526101686020522060ff6001825492015416825191825215156020820152f35b83858334610804578260031936011261080457506001600160a01b0391903582811681036107335760243592831683036107335760209261072c913390615cc7565b508234610771578160031936011261077157602090611abb611ab5610bdd615560565b906150b2565b61017c5410159051908152f35b508284816003193601126107335760209261072c91339060243590356146ef565b60208461072c611af93689613d3c565b92913392614973565b5082346107715781600319360112610771576101785490516001600160a01b039091168152602090f35b508234610771578160031936011261077157602090611b4c610bdd615560565b509051908152f35b5082346107715781600319360112610771576101825490516001600160a01b039091168152602090f35b50823461077157816003193601126107715760209061017c549051908152f35b60208461072c611bae3689613d3c565b929133926148a4565b60208461072c611bc73689613e0f565b939290926148a4565b848285346107715760c036600319011261077157611bec614ddb565b50610255546001600160a01b039190611c089083163314614e02565b611c123685614e97565b90611c1b614ddb565b50611c24614fac565b611c2c616070565b611c34615560565b90611c4184845116615347565b611c5a611c4e82856143e9565b5193610d8f8584615abb565b95906020860194611c77865198611c718387615de8565b936152f5565b91670de0b6b3a763ffff198101908111611e245781611c99611c9e928b614fce565b615299565b90670de0b6b3a764000092838302838104851484151715611e0f5790611cc391615299565b9883810290808204851490151715611dfa5791611ceb611cf192611d1e999a9b9c9d94615299565b90614574565b93606089019a848c511695611d1360a08c019782888a511661017454926156fc565b9b91839b919b614574565b9b898101958d8751809111611dde57508d15611dd057506114af9896948e9f98969294610f6c9e9f94888097611d6182986080611d6b9801948486511691615611565b5191511692615a22565b5195611d778d886142e9565b96611d866102549182546142e9565b9055511693511690611d96615c2c565b885115611db757610f2c92610f1c6114a59261148661016d548d5190614fce565b506114d7610f2c92610178541660208a01519085615ca4565b8a5163f3e39b5d60e01b8152fd5b8b51630b63f1a760e01b815291820152602481018e9052604490fd5b60118c634e487b7160e01b6000525260246000fd5b60118d634e487b7160e01b6000525260246000fd5b634e487b7160e01b8a5260118b5260248afd5b5082843461096a578260031936011261096a57611e52616070565b60ca5490601082901c6001600160a01b03163303611ebb5760ff821615611ead575061ff0019166101001760ca55513381527f62e78cea01bee320cd4e420270b5ea74000d11b0c9f74754ebdbfc544b05a25890602090a180f35b825163866099c360e01b8152fd5b8251631d77d47760e21b8152fd5b60208461072c84611eda368a613d9d565b93929092614cf9565b50823461077157816003193601126107715760209061072c611ab5610bdd615560565b508234610771578160031936011261077157602090610184549051908152f35b5082346107715781600319360112610771576101ed5490516001600160a01b039091168152602090f35b5082843461096a57602036600319011261096a57359161017a9081548410156108045750602092611f8091613b7a565b91905490519160031b1c8152f35b50833461077157602036600319011261077157611fa9615fe2565b3561017b5580f35b60208461072c611fc13689613dcf565b94939290923394614b2e565b50833461077157602036600319011261077157611fe8615fe2565b356101725580f35b5082346107715781600319360112610771576020906101ba549051908152f35b5083346107715760203660031901126107715761202b615fe2565b356101735580f35b508234610771578160031936011261077157602090610166549051908152f35b508234610771578160031936011261077157602090610174549051908152f35b5083346107715760203660031901126107715761208e615fe2565b3561016d5580f35b83858334610804576020366003190112610804575035906001600160a01b03821682036107335761072c6020926120ce610861615e90565b906120e36120dc83836143e9565b519161518e565b9390926143fd565b8382346108045780600319360112610804575061211461210c610bdd615560565b819291615329565b9082519182526020820152f35b50823461077157816003193601126107715760209061016b549051908152f35b60208461072c6121513689613d9d565b93929190913393614c76565b50833461077157602036600319011261077157356001600160a01b038116908190036107335761218b615fe2565b61018280546001600160a01b031916909117905580f35b508334610771576020366003190112610771576121bd615fe2565b356101705580f35b50823461077157816003193601126107715760209061017b549051908152f35b508234610771578160031936011261077157610f6c90612203615560565b9051918291602083526020830190613d69565b849250366003190112610804575035906001600160a01b038083168303610733576024359080821682036107335760a43581811681036107335760c43591821682036107335760209461072c93608435916064359160443591614b2e565b503461080457806003193601126108045761228d615fe2565b600160ff1960ca54161760ca5580f35b508234610771578160031936011261077157602090611b4c615e90565b508334610771576020366003190112610771576122d5615fe2565b356101835580f35b5082346107715781600319360112610771576101615490516001600160a01b039091168152602090f35b50823461077157816003193601126107715760209061072c61233261232a615e90565b91909161518e565b91614387565b5082346107715781600319360112610771576102565490516001600160a01b039091168152602090f35b5082346107715781600319360112610771576101655490516001600160a01b039091168152602090f35b60208461072c61239c3689613bbc565b949390939291926149f3565b508234610771578160031936011261077157602090610254549051908152f35b50823461077157816003193601126107715760209060ff60ca5460081c1690519015158152f35b8382863461077157816003193601126107715761240a616070565b61017f90815443106125cf575061017e54430190557fd3c59bda47e141a8ec5a33d241b7f71b86e30d359f83a9227d912858b60404fc8180a161244b615c2c565b61016954918161245a8461539a565b93835b8181106125005750507fae5116a8119d08673a0f1dfa7546b95da4bd54bb17feda7c61130ac7859152f69293816124b4575b6124a89083519384938452806020850152830190613d69565b0390a1600161012f5580f35b90670de0b6b3a76400006124cf6124a89261016b5490614fce565b04916101636124df8482546142e9565b9055610178546124f99084906001600160a01b0316615c83565b905061248f565b61250981615497565b6125138183615abb565b8561018091886125238585613b7a565b90549060031b1c91838313612540575b505050505060010161245d565b946125858382969961258b9461257f856125726125786125a29a60019e670de0b6b3a764000093849161016c54614fce565b04614fce565b04926143e9565b52614574565b97613b7a565b819391549060031b91821b91600019901b19161790565b90556125c56125b182896143e9565b5187848060a01b0361017954169184615a22565b9085888881612533565b835163101b685960e01b8152fd5b5083833461096a5736600319011261077157356001600160a01b03808216820361073357610b6591602435916126198161025554163314614e02565b6102548381540390556102535416614f73565b50833461077157602036600319011261077157612647615fe2565b356101755580f35b5083833461096a5736600319011261077157356001600160a01b03808216820361073357610b65916126878261025554163314614e02565b602435916101655416614f73565b50833461077157602036600319011261077157356001600160a01b038116810361073357610b65906126c5615fe2565b6101ed80546001600160a01b0319166001600160a01b03909216919091179055565b60208461072c846126f8368a613d3c565b929190916148a4565b83858334610804578060031936011261080457507f00000000000000000000000000000000000000000000000000000000000000006001600160a01b0316300361276e57602082517f360894a13ba1a3210667c828492db98dca3e2076cc3735a920a3ca505d382bbc8152f35b6020608492519162461bcd60e51b8352820152603860248201527f555550535570677261646561626c653a206d757374206e6f742062652063616c60448201527f6c6564207468726f7567682064656c656761746563616c6c00000000000000006064820152fd5b50346108045780600319360112610804576127ef615fe2565b60ff1960ca541660ca5580f35b5082848160031936011261096a576001600160a01b0391813583811681036107335784936024359367ffffffffffffffff85116128e557366023860112156128e5578401359061285761284e83613d20565b94519485613ce8565b81845236602483870101116128e557610b65956020836128d8946024600199018389013786010152807f000000000000000000000000000000000000000000000000000000000000000016906128af82301415613e41565b7f360894a13ba1a3210667c828492db98dca3e2076cc3735a920a3ca505d382bbc541614613ea2565b6128e0615fe2565b613f03565b8580fd5b50823461077157816003193601126107715760209061016d549051908152f35b5082346107715781600319360112610771576101795490516001600160a01b039091168152602090f35b50823461077157816003193601126107715760209061017e549051908152f35b5082843461096a576103a036600319011261096a5782549060ff8260081c161591828093612d4d575b8015612d36575b15612cdc5760ff198116600117855582612ccb575b506001600160a01b036103643581811692908390036107335761025380546001600160a01b03199081169094179055610256805484169055855460081c60ff16906129e2826155b1565b610304358381168091036107335761022090858254161790556102c435838116809103610733576102e435848116810361073357600191612a22856155b1565b612a2b856155b1565b612a34856155b1565b612a3d856155b1565b866097541617609755612a4f846155b1565b60ca5490620100008360b01b039060101b169061ff018360b01b031916171760ca55612a7a826155b1565b60a435670de0b6b3a76400008110612cbc5783828660e43593612a9c856160b5565b6101043594612aaa866160b5565b6101243595612ab8876160b5565b61014435612ac5816160b5565b6101643590612ad3826160b5565b61018498893593612ae3856160b5565b6101a43595612af1876160b5565b6101c43597612aff896160b5565b6101e43599612b0d8b6160b5565b610224359c610204359c612b218f8f614574565b612b2a906160b5565b35818116809103610733576101619083825416179055602435818116809103610733576101629083825416179055604435818116809103610733576101659083825416179055606435818116809103610733576101789083825416179055608435908116809103610733576101799182541617905561017b5560c43561017c5561016d5561016e5561016f5561017055610171556101725561017355610174556101755561016b5561016c55610244358061017e556102643585811680910361073357610182908782541617905561028435610183556102a435809255430161017f5543016101855561017d61ffff1981541690556103243590612c2d836155b1565b8115612cae5750806101ba5543016101b955610344358281168103610733576126c5612c58926155b1565b610384359081168091036107335761025591825416179055612c78575080f35b60207f7f26b83ff96e1f2b6a682f133852f6798a09c465da95921460cefb38474024989161ff001984541684555160018152a180f35b8651632a9ffab760e21b8152fd5b508551632a9ffab760e21b8152fd5b61ffff191661010117845584612998565b835162461bcd60e51b8152602081840152602e60248201527f496e697469616c697a61626c653a20636f6e747261637420697320616c72656160448201526d191e481a5b9a5d1a585b1a5e995960921b6064820152608490fd5b50303b1580156129835750600160ff821614612983565b50600160ff82161061297c565b5082843461096a57602036600319011261096a5735610169805482101561096e5790612d8591613ccc565b50805460019091015482519182526001600160a01b03166020820152f35b90915034610771573660031901126108045750610f6c6114af91612dc5614ddb565b50610255546001600160a01b0394612de4916113be9087163314614e02565b612dec614ddb565b50612df5614fac565b612dfd616070565b61141f611410835163474c3add60e11b602082015261140581610946308760248401615c09565b508284606036600319011261073357356001600160a01b03811681036107335760209261072c91339060443590602435906147e3565b505050606060031936011261073357604435916001600160a01b03831683036107335760209261072c91339060243590356146ef565b508284606036600319011261073357356001600160a01b03811681036107335760209261072c91339060443590602435906148a4565b508284606036600319011261073357356001600160a01b03811681036107335760209261072c9133906044359060243590614973565b50823461077157816003193601126107715760209061072c612f1f61232a615e90565b91614ffa565b508284606036600319011261073357604435926001600160a01b03841684036107335760209361072c926024359035614486565b508234610771578160031936011261077157602090610170549051908152f35b50823461077157816003193601126107715760209061072c612faa612fba612fb4612fa2615e90565b93909361518e565b8181939295614ffa565b926152f5565b90615037565b5082843461096a578260031936011261096a5760ca549060ff8260081c161561302d57601082901c6001600160a01b03163303611ebb575061ff00191660ca55513381527f5db9ee0a495bf2e6ff9c91a7834c1ba4fdd244a5e8aa4e537bd38aeae4b073aa90602090a180f35b8251637c7fd07960e01b8152fd5b60208461072c61304b3689613ca6565b929190916146ef565b50833461077157602036600319011261077157356001600160a01b0381169081900361073357613082615fe2565b61025580546001600160a01b031916909117905580f35b508334610771576020366003190112610771576130b4615fe2565b356101ba5580f35b91503461080457610100908160031936011261080457506130db614ddb565b50610255546001600160a01b0394906130f79086163314614e02565b61310384519283613ce8565b358481168103610733578152602435848116810361073357602082015260443583820152606435606082015260808101608435815260a4359385851685036107335760a0830194855260c43586811681036107335760c084015260e435938685168503610733578695610f6c956131d9611410876114af958b9901938452613189614ddb565b50613192614fac565b61319a616070565b8651631740b6e360e11b6020820152906131b8906024830190614c1a565b610124308183015281526131ce61014482613ce8565b886102205416615be7565b98929a919b909751946131ec8c876142e9565b956131fb6102549182546142e9565b9055511692511661145d615c2c565b5082843461096a57602036600319011261096a57359161016a9081548410156108045750602092611f8091613b7a565b5082843461096a57602036600319011261096a5735906001600160a01b0390818316830361073357610b659261329b8386947f000000000000000000000000000000000000000000000000000000000000000016906128af82301415613e41565b6132a3615fe2565b6132b86132af84613d20565b92519283613ce8565b828252601f196132c784613d20565b01366020840137613f03565b60208461072c846132e4368a613c3d565b9133936149f3565b5083818434610771578160031936011261077157613308616070565b61017d805460ff8116806133d2575b806133b8575b613325578380f35b61ff0019166101001790558051927f8b77276c97a5709f0d6db52329848a254eb760ce8be80d281799f633bdb69e838380a1610165546001600160a01b0316803b1561096e57839185838193638456cb5960e01b83525af19081156133ad575061339d575b50506133946153cc565b81818180808380f35b6133a691613ce8565b818161338a565b51913d9150823e3d90fd5b506133c7611ab5610bdd615560565b61017c54101561331d565b5060ff8160081c1615613317565b508234610771578160031936011261077157602090610171549051908152f35b508234610771578160031936011261077157602090610175549051908152f35b50833461077157602036600319011261077157356001600160a01b03811681036107715761344c615fe2565b60ca805462010000600160b01b03191660109290921b62010000600160b01b031691909117905580f35b50833461077157602036600319011261077157613491615fe2565b3561017c5580f35b60208461072c6134a93689613bbc565b94939093929192614cf9565b508234610771578160031936011261077157602090610172549051908152f35b50833461077157602036600319011261077157356001600160a01b0381169081900361077157613503615fe2565b61017980546001600160a01b031916909117905580f35b5082346107715781600319360112610771576102535490516001600160a01b039091168152602090f35b5082843461096a57602036600319011261096a57356001600160a01b0381169081900361096a5782829160209452610176845220549051908152f35b50823461077157816003193601126107715760209060ff61017d5460081c1690519015158152f35b5082843461096a5760a036600319011261096a5761365c92506135c9614ddb565b50610255546001600160a01b0392906135e59084163314614e02565b6135ef3683614e3a565b916135f8614ddb565b50613601614fac565b613609616070565b613614611848615560565b919061362f8551611212670de0b6b3a76400009586946152f5565b04948385019281845116926136516080880194898587511661016e54926156fc565b98918a9b919b614574565b9860208201928351808c1161370957508a156136fb57509380809361369684610f6c9c9b9a988460606112dc9c9a98519301511691615611565b51956136a28c886142e9565b966136b16102549182546142e9565b90555116935116906136c1615c2c565b8751156136e257610f2c92610f1c6112d2926112b361016d548c5190614fce565b5061172b610f2c92610178541660208901519085615ca4565b885163f3e39b5d60e01b8152fd5b8951630b63f1a760e01b815291820152602481018b9052604490fd5b50833461077157602036600319011261077157613740615fe2565b356101745580f35b50833461077157602036600319011261077157358015158091036107715761376e615fe2565b61017d9060ff8019835416911617905580f35b50823461077157816003193601126107715760209061072c6137a4610bdd615560565b906152f5565b50823461077157816003193601126107715760209061017f549051908152f35b5082843461096a57602036600319011261096a5735916001600160a01b0383168303610804575061072c60209233903390615cc7565b60208461072c6138103689613bbc565b94939093929192614c76565b5082346107715781600319360112610771576102555490516001600160a01b039091168152602090f35b50833461077157602036600319011261077157356001600160a01b0381169081900361077157613874615fe2565b61016280546001600160a01b031916909117905580f35b508334610771576020366003190112610771576138a6615fe2565b356101715580f35b508234610771578160031936011261077157602090610183549051908152f35b50833461077157602036600319011261077157356001600160a01b03811690819003610771576138fc615fe2565b61017880546001600160a01b031916909117905580f35b5082346107715781600319360112610771576020906101b9549051908152f35b50823461077157816003193601126107715760975490516001600160a01b039091168152602090f35b5082848160031936011261096a5760209261072c9133906024359035614486565b50833461077157602036600319011261077157613998615fe2565b356101845580f35b5082843461096a578260031936011261096a576139bb616070565b6139c3615c2c565b6101859081544310613a3c575090613a339161018454430190557f0e37fda283839477a1b77e29acf8336c0e13a5daa967913df0fe5ad258c0822f6020670de0b6b3a7640000613a1a610163546101835490614fce565b049251838152a1610182546001600160a01b0316615c83565b600161012f5580f35b825163acce20e560e01b8152fd5b5082843461096a57602036600319011261096a5735916101679081548410156108045750602092613a7a91613b7a565b905491519160018060a01b039160031b1c168152f35b50833461077157602036600319011261077157613aab615fe2565b3561016c5580f35b5083833461096a5760c036600319011261096a57613acf615fe2565b610163918254918215801590613b6e575b8015613b58575b613b4b575090613af8913590614574565b90610166613b096024358254614574565b905555613b1881610169613ccc565b50613b266044358254614574565b9055613b34816101b8613ccc565b5060643590556084356101b95560a4356101855580f35b51636ed93c2760e01b8152fd5b50613b6585610169613ccc565b50541515613ae7565b50610166541515613ae0565b8054821015613b925760005260206000200190600090565b634e487b7160e01b600052603260045260246000fd5b35906001600160a01b038216820361073357565b91908260c091031261073357613bd182613ba8565b91602081013591604082013591606081013591613bfc60a0613bf560808501613ba8565b9301613ba8565b90565b604090613c3b939594929560c0820196825260208201520190606080918051845260208101516020850152604081015160408501520151910152565b565b919082608091031261073357613c5282613ba8565b916020810135916060604083013592013590565b613c3b9360609296959360e08301978352602083015260408201520190606080918051845260208101516020850152604081015160408501520151910152565b919082608091031261073357813591602081013591613bfc6060613bf560408501613ba8565b8054821015613b925760005260206000209060011b0190600090565b90601f8019910116810190811067ffffffffffffffff821117613d0a57604052565b634e487b7160e01b600052604160045260246000fd5b67ffffffffffffffff8111613d0a57601f01601f191660200190565b919082608091031261073357613d5182613ba8565b91602081013591613bfc606060408401359301613ba8565b90815180825260208080930193019160005b828110613d89575050505090565b835185529381019392810192600101613d7b565b908160a091031261073357613db181613ba8565b91602082013591604081013591613bfc608060608401359301613ba8565b91908260c091031261073357613de482613ba8565b91613df160208201613ba8565b91604082013591606081013591613bfc60a060808401359301613ba8565b908160a091031261073357613e2381613ba8565b91602082013591604081013591613bfc6080613bf560608501613ba8565b15613e4857565b60405162461bcd60e51b815260206004820152602c60248201527f46756e6374696f6e206d7573742062652063616c6c6564207468726f7567682060448201526b19195b1959d85d1958d85b1b60a21b6064820152608490fd5b15613ea957565b60405162461bcd60e51b815260206004820152602c60248201527f46756e6374696f6e206d7573742062652063616c6c6564207468726f7567682060448201526b6163746976652070726f787960a01b6064820152608490fd5b9060ff7f4910fdfa16fed3260ed0e7147f7cc6da11a60208b5b9406d12a635614ffd91435416600014613f3b5750613c3b91506140ef565b6040516352d1902d60e01b8152602093919291906001600160a01b038316908581600481855afa600091816140c0575b50613fcc5760405162461bcd60e51b815260048101879052602e60248201527f45524331393637557067726164653a206e657720696d706c656d656e7461746960448201526d6f6e206973206e6f74205555505360901b6064820152608490fd5b9394937fc9f76b5ec45e5cdef99837d7b6d2467235c1df8933c8ca56df5c35afa2c7d4440161406957613ffe836140ef565b7fbc7cd75a20ee27fd9adebab32041f755214dbc6bffa90cc0225b39da2e5c2d3b600080a283511590811591614061575b5061403957505050565b60008061405e94614048614191565b9481519101845af46140586141e5565b91614215565b50565b90503861402f565b60405162461bcd60e51b815260048101859052602960248201527f45524331393637557067726164653a20756e737570706f727465642070726f786044820152681a58589b195555525160ba1b6064820152608490fd5b90918782813d83116140e8575b6140d78183613ce8565b810103126108045750519038613f6b565b503d6140cd565b803b15614136577f360894a13ba1a3210667c828492db98dca3e2076cc3735a920a3ca505d382bbc80546001600160a01b0319166001600160a01b03909216919091179055565b60405162461bcd60e51b815260206004820152602d60248201527f455243313936373a206e657720696d706c656d656e746174696f6e206973206e60448201526c1bdd08184818dbdb9d1c9858dd609a1b6064820152608490fd5b61419b6027613d20565b906141a96040519283613ce8565b60278252660819985a5b195960ca1b6040837f416464726573733a206c6f772d6c6576656c2064656c65676174652063616c6c60208201520152565b3d15614210573d906141f682613d20565b916142046040519384613ce8565b82523d6000602084013e565b606090565b919290156142775750815115614229575090565b3b156142325790565b60405162461bcd60e51b815260206004820152601d60248201527f416464726573733a2063616c6c20746f206e6f6e2d636f6e74726163740000006044820152606490fd5b82519091501561428a5750805190602001fd5b6040519062461bcd60e51b82528160208060048301528251908160248401526000935b8285106142d0575050604492506000838284010152601f80199101168101030190fd5b84810182015186860160440152938101938593506142ad565b919082039182116142f657565b634e487b7160e01b600052601160045260246000fd5b610253546040516370a0823160e01b81526001600160a01b0392831660048201529160209183916024918391165afa90811561437b5760009161434d575090565b906020823d8211614373575b8161436660209383613ce8565b8101031261080457505190565b3d9150614359565b6040513d6000823e3d90fd5b610256546001600160a01b0316919082156143de5790612fba84612fb460209596846143b296614ffa565b602460405180948193632e4bd6d560e21b835260048301525afa90811561437b5760009161434d575090565b613bfc939250615068565b8051821015613b925760209160051b010190565b610256546001600160a01b03959194908616939192909190841561447757604493869593836144359361088861443e9660209b615de8565b93610167613b7a565b91905493604051968795869463a1844ff560e01b865260031b1c16600484015260248301525afa90811561437b5760009161434d575090565b9193509193613bfc955061559a565b9260a46145249160209394614499614fac565b6144a1616070565b604051966144b060a089613ce8565b87528487018690523360408089019182526001600160a01b0392831660608a0190815293831660808a0190815261025554915163e97a4d6360e01b81528a5160048201526020909a015160248b01529151831660448a01529251821660648901525181166084880152869384926000921690565b5af191821561437b5760009261453f575b50613bfc90614581565b90916020823d821161456c575b8161455960209383613ce8565b8101031261080457505190613bfc614535565b3d915061454c565b919082018092116142f657565b613c3b90610254614593828254614574565b905561025354309033906001600160a01b03165b6040516323b872dd60e01b60208201526001600160a01b039283166024820152929091166044830152606480830193909352918152613c3b916145eb608483613ce8565b6145fd565b5190811515820361073357565b602091614660916001600160a01b031660008061461986613d20565b936146276040519586613ce8565b8685527f5361666545524332303a206c6f772d6c6576656c2063616c6c206661696c656487860152868151910182855af16140586141e5565b80518281159182156146d0575b50509050156146795750565b6084906040519062461bcd60e51b82526004820152602a60248201527f5361666545524332303a204552433230206f7065726174696f6e20646964206e6044820152691bdd081cdd58d8d9595960b21b6064820152fd5b838092935001031261073357816146e791016145f0565b80823861466d565b919290926146fb614fac565b614703616070565b6040519361471260a086613ce8565b83855260208086019182523360408088019182526001600160a01b03948516606089019081529585166080890190815261025554915163fa91a9a560e01b8152985160048a0152935160248901529051841660448801529351831660648701529051821660848601529091849060a490829060009086165af192831561437b576000936147ae575b5090613bfc916101655416309033906145a7565b90926020823d82116147db575b816147c860209383613ce8565b8101031261080457505191613bfc61479a565b3d91506147bb565b93602092936145249260c4926147f7614fac565b6147ff616070565b6040519761480e60c08a613ce8565b6001600160a01b0390811689528689019290925260408089018890523360608a01529282166080890152811660a0880152610255549151637e81a82160e01b81529687948593600093169160048501905b60a09081600180821b03918281511685526020810151602086015260408101516040860152826060820151166060860152826080820151166080860152015116910152565b60c46020929461491e926148b6614fac565b6148be616070565b604051976148cd60c08a613ce8565b60018060a01b0380938180941698898c528a898d015260408c01523360608c01521660808a01521660a088015261025554169560006040519788948593636426c5db60e11b8552600485019061485f565b5af192831561437b5760009361493e575b5090613bfc91309033906145a7565b90926020823d821161496b575b8161495860209383613ce8565b8101031261080457505191613bfc61492f565b3d915061494b565b93602092936145249260c492614987614fac565b61498f616070565b6040519761499e60c08a613ce8565b6001600160a01b0390811689528689019290925260408089018890523360608a01529282166080890152811660a08801526102555491516323ec24b560e11b815296879485936000931691600485019061485f565b939091936149ff614fac565b614a07616070565b60405195614a1660e088613ce8565b60018060a01b0380938180941696878a528660208b01528860408b015260608a01523360808a01521660a08801521660c08601526020614a7660e4836102555416976000604051998a94859363e4e1b72960e01b85526004850190614ade565b5af194851561437b57600095614aa9575b50613bfc939291614aa0916101655416309033906145a7565b309033906145a7565b90946020823d8211614ad6575b81614ac360209383613ce8565b8101031261080457505193613bfc614a87565b3d9150614ab6565b60c0908160018060a01b03918281511685526020810151602086015260408101516040860152606081015160608601528260808201511660808601528260a08201511660a0860152015116910152565b6040614bbc929460209496979861010493614b47614fac565b614b4f616070565b83519a8b93614b6061010086613ce8565b8a60018060a01b0396879687808097169d8e8352168c820152015260608d01528a60808d01523360a08d01521660c08b01521660e0890152610255541696600060405198899485936334975a4160e01b85526004850190614c1a565b5af193841561437b57600094614be5575b50613bfc9291614be091309033906145a7565b614581565b90936020823d8211614c12575b81614bff60209383613ce8565b8101031261080457505192613bfc614bcd565b3d9150614bf2565b60e0908160018060a01b03918281511685528260208201511660208601526040810151604086015260608101516060860152608081015160808601528260a08201511660a08601528260c08201511660c0860152015116910152565b60e48260208094969798614bbc94614c8c614fac565b614c94616070565b6040519a8b98614ca560e08b613ce8565b60018060a01b03958695868095169b8c8152015260408d01528a60608d01523360808d01521660a08b01521660c0890152610255541696600060405198899485936263744760e11b85526004850190614ade565b949391909293614d07614fac565b614d0f616070565b60405195614d1e60e088613ce8565b60018060a01b039384938480931689528660208a015260408901528660608901523360808901521660a08701521660c08501526020614d7d60e48361025554169660006040519889948593636b59c22f60e01b85526004850190614ade565b5af193841561437b57600094614da6575b50613bfc9291614be0916101655416309033906145a7565b90936020823d8211614dd3575b81614dc060209383613ce8565b8101031261080457505192613bfc614d8e565b3d9150614db3565b60405190614dea608083613ce8565b60006060838281528260208201528260408201520152565b15614e0957565b60405162461bcd60e51b81526020600482015260096024820152684e4f5420717565756560b81b6044820152606490fd5b91908260a091031261073357604051614e5460a082613ce8565b6080614e928183958035855260208101356020860152614e7660408201613ba8565b6040860152614e8760608201613ba8565b606086015201613ba8565b910152565b91908260c091031261073357604051614eb160c082613ce8565b60a0614e92818395614ec281613ba8565b85526020810135602086015260408101356040860152614ee460608201613ba8565b6060860152614ef560808201613ba8565b608086015201613ba8565b91908260e091031261073357604051614f1a60e082613ce8565b60c0614e92818395614f2b81613ba8565b8552602081013560208601526040810135604086015260608101356060860152614f5760808201613ba8565b6080860152614f6860a08201613ba8565b60a086015201613ba8565b60405163a9059cbb60e01b60208201526001600160a01b0390921660248301526044820192909252613c3b916145eb8260648101610c80565b60ff61017d5460081c16614fbc57565b604051631ca61d7760e01b8152600490fd5b818102929181159184041417156142f657565b818103929160001380158285131691841216176142f657565b909161500990610163546142e9565b90670de0b6b3a7640000918281029281840414901517156142f657613bfc9261503191614fce565b90614fe1565b811561505257600160ff1b81146000198314166142f6570590565b634e487b7160e01b600052601260045260246000fd5b615080615076848484614ffa565b612fba85856152f5565b926000841292831561509d575b5050506150975790565b50600090565b6150a89293506150b2565b111538808061508d565b610256546001600160a01b0316919082156150f3575050602060049160405192838092631b6bce5560e21b82525afa90811561437b5760009161434d575090565b613bfc9250615329565b9261510b9295949193614ffa565b6000938181029190858212600160ff1b82141661517a57818305149015171561516657670de0b6b3a763ffff19820191821161516657670de0b6b3a76400009182810292818404149015171561516657613bfc929350615037565b634e487b7160e01b84526011600452602484fd5b634e487b7160e01b86526011600452602486fd5b906000916000906101698054906000925b8284106151c557505050506151c1670de0b6b3a76400009161016b5490614fce565b0490565b909192939561520c615201615206600193611ceb6151e38a886143e9565b516151ee818c615232565b95906151fa8d8c613ccc565b5054614574565b616091565b98614574565b940192919061519f565b919091600083820193841291129080158216911516176142f657565b91906000906152608160009561525661524d82610180613b7a565b939054926152a3565b9160031b1c615216565b6000811361526f575b50509190565b61529191945061257292508094670de0b6b3a764000093849161016c54614fce565b043880615269565b8115615052570490565b6152af81610169613ccc565b505490670de0b6b3a7640000918281029281840414901517156142f657613bfc926152ef6152e261503193610181613b7a565b90549060031b1c84615299565b92615299565b906101665490811561531a57613bfc9261531561520192610163546142e9565b6142e9565b505050670de0b6b3a764000090565b801561533f57615201613bfc92610163546142e9565b505060001990565b6001600160a01b0316600090815261016860205260409020600181015460ff1615615370575490565b60405163e6c4247b60e01b8152600490fd5b67ffffffffffffffff8111613d0a5760051b60200190565b906153a482615382565b6153b16040519182613ce8565b82815280926153c2601f1991615382565b0190602036910137565b61016354801561405e57610169908154916000906153e98461539a565b9082905b85821061545357505060005b848110615407575050505050565b61541f84611c998561541985876143e9565b51614fce565b9061016a91825468010000000000000000811015613d0a5761258b816001958661544b94018155613b7a565b9055016153f9565b909261548f60019161546486615497565b61546e87876143e9565b52611ceb61547c8786613ccc565b505461548888886143e9565b5190616091565b9301906153ed565b6154a390610169613ccc565b50600101546001600160a01b03166154ba816154de565b919091156154c6575090565b60249060405190637f6e4db960e01b82526004820152fd5b604080516359e02dd760e01b815292918190849060049082906001600160a01b03165afa9283156155555760009182946155185750509190565b90809450813d831161554e575b61552f8183613ce8565b8101031261080457506155466020835193016145f0565b913880615269565b503d615525565b50513d6000823e3d90fd5b610169549061556e8261539a565b9160005b81811061557d575050565b80615589600192615497565b61559382876143e9565b5201615572565b83836155ab61508094958894615de8565b856150fd565b156155b857565b60405162461bcd60e51b815260206004820152602b60248201527f496e697469616c697a61626c653a20636f6e7472616374206973206e6f74206960448201526a6e697469616c697a696e6760a81b6064820152608490fd5b61567792602092610166615626848254614574565b9055615636610163918254614574565b9055610165546040516340c10f1960e01b81526001600160a01b03928316600482015260248101939093529193849290911690829060009082906044820190565b03925af1801561437b576156885750565b6020813d82116156b1575b816156a060209383613ce8565b810103126107335761405e906145f0565b3d9150615693565b91906156c49061518e565b9190926156d183856150b2565b90808211156156de575050565b6044925060405191637912120160e01b835260048301526024820152fd5b929093916000916000918296615710614ddb565b966001600160a01b0391859083168061591c575b508261016154168360405193636eb1769f60e11b8552168060048501523060248501526020948585604481865afa9485156159115784956158e2575b50846157c1575b50505050508601511561577d575b505050929190565b90919250615795670de0b6b3a7640000928392614fce565b048085529082156157b9576157b1920490816040860152614574565b388080615775565b5090506157b1565b6157cf9061016254166154de565b9290921561576757909192939b50848b61580985670de0b6b3a76400006158036157f98d8d614fce565b6101755490614fce565b04615299565b81830181815295908b156158d85750615834916158286060928d615299565b91829101528551614574565b809d5b10928315615863575b505050615850575b808080615767565b8192995052806060880152963880615848565b909192506024604051809481936370a0823160e01b835260048301525afa9081156158cd57908b91849161589c575b5010388481615840565b809250858092503d83116158c6575b6158b58183613ce8565b8101031261096a578a905138615892565b503d6158ab565b6040513d85823e3d90fd5b915050809d615837565b9094508581813d831161590a575b6158fa8183613ce8565b8101031261096e57519338615760565b503d6158f0565b6040513d86823e3d90fd5b9095506020836101ed5416916024604051809481936364a731e960e01b835260048301525afa8015615994578690615961575b61595a915084614fce565b9438615724565b506020813d821161598c575b8161597a60209383613ce8565b810103126128e55761595a905161594f565b3d915061596d565b6040513d88823e3d90fd5b91906101666159af8482546142e9565b90556159bf6101639182546142e9565b9055610165546001600160a01b031691823b1561073357604051632770a7eb60e21b81526001600160a01b0390921660048301526024820152906000908290818381604481015b03925af1801561437b57615a175750565b6000613c3b91613ce8565b615a9a93615a61600092602095615a3b82610169613ccc565b50615a47878254614574565b9055615a57610163918254614574565b9055610167613b7a565b90546040516340c10f1960e01b81526001600160a01b039093166004840152602483019490945290948593928492909183906044820190565b039360039190911b1c6001600160a01b03165af1801561437b576156885750565b61258b615b0c91615acc84826152a3565b615b02615adb83610180613b7a565b615aee8294925492838360031b1c615216565b919060031b91821b91600019901b19161790565b9055610181613b7a565b9055565b615b3e919392615b2282610169613ccc565b50615b2e8682546142e9565b9055615a576101639182546142e9565b905460039190911b1c6001600160a01b031691823b1561073357604051632770a7eb60e21b81526001600160a01b039092166004830152602482015290600090829081838160448101615a06565b80910360e08112610733578151926020830151926080604082015193605f1901126107335760c060405191615bc2608084613ce8565b606081015183526080810151602084015260a081015160408401520151606082015290565b90613bfc91600080615bf7614191565b93602081519101845af46140586141e5565b90929160e090615c1e83610100810196614ade565b6001600160a01b0316910152565b61012f6002815414615c3e5760029055565b60405162461bcd60e51b815260206004820152601f60248201527f5265656e7472616e637947756172643a207265656e7472616e742063616c6c006044820152606490fd5b9080615c8d575050565b61025354613c3b92906001600160a01b0316614f73565b919081615cb057505050565b61016154613c3b93906001600160a01b03166145a7565b615d2b91615cd3616070565b615cdb615c2c565b615ce43061430c565b604051636845c44560e01b60208201526001600160a01b03938416602482015291831660448301528483166064830152608480830191909152815290610c8e60a483613ce8565b602081805181010312610733576020615d479101518092615c83565b600161012f5590565b60e08101929160c09081906001600160a01b0380615d6d83613ba8565b168552615d7c60208301613ba8565b16602085015260408101356040850152606081013560608501526080810135608085015260a081013560a08501520135910152565b61017f548043101561509757613bfc9043906142e9565b90604051615dd7604082613ce8565b602060018294805484520154910152565b615df48161017a613b7a565b90549060031b1c916101b891615e0a8184613ccc565b5054926101b954431015615e35575b505080821015615e3057611c9990613bfc93614fce565b505090565b829350615e49615e549392615e4f92613ccc565b50615dc8565b615e5c565b903880615e19565b602081519101805192670de0b6b3a7640000938403908482116142f657615e89611ceb926151c195614fce565b9251614fce565b60008061016991825492615ea38461539a565b9382915b818310615ed0575050508115615ec45790615ec191615299565b91565b505061017b5460011b91565b90919392615edd85615497565b9081615ee987896143e9565b52615f02615ef78388615232565b506151fa8886613ccc565b670de0b6b3a7640000908181029181830414901517156142f657615f3f615f4592611ceb85615f36600197610df096616091565b9485918c615de8565b95614574565b94019190615ea7565b6101b98054431015615f5d5750565b6101695460005b818110615f775750506101ba5443019055565b80807f19156e9379c7bbbce8f646ce5ee30ba860b8f954717405f3d5859a6c1a21ae606001936101b8615fad615e498383613ccc565b90615fcb615fc3615fbd85615497565b84615e5c565b938492613ccc565b50555160409182519182526020820152a201615f64565b60975460405163d994d6d560e01b815233600482015290602090829060249082906001600160a01b03165afa90811561437b57600091616037575b501561602557565b604051631dd1b1b560e21b8152600490fd5b906020823d8211616068575b8161605060209383613ce8565b810103126108045750616062906145f0565b3861601d565b3d9150616043565b60ff60ca5460081c1661607f57565b60405163783bb6c960e11b8152600490fd5b90670de0b6b3a7640000918281029281840414901517156142f657613bfc91615299565b670de0b6b3a7640000106160c557565b604051632a9ffab760e21b8152600490fdfea26469706673582212201ff992ead21fe97a37c08c9909d3200436e3b9f3fda11455977a507074caabf164736f6c63430008120033",
  "linkReferences": {},
  "deployedLinkReferences": {}
}