{
  "_format": "hh-sol-artifact-1",
  "contractName": "MocRif",
  "sourceName": "contracts/MocRif.sol",
  "abi": [
    {
      "inputs": [
        {
          "internalType": "uint256",
          "name": "qACsent_",
          "type": "uint256"
        },
        {
          "internalType": "uint256",
          "name": "qACNeeded_",
          "type": "uint256"
        }
      ],
      "name": "InsufficientQacSent",
      "type": "error"
    },
    {
      "inputs": [
        {
          "internalType": "uint256",
          "name": "qTPsent_",
          "type": "uint256"
        },
        {
          "internalType": "uint256",
          "name": "qTPNeeded_",
          "type": "uint256"
        }
      ],
      "name": "InsufficientQtpSent",
      "type": "error"
    },
    {
      "inputs": [
        {
          "internalType": "uint256",
          "name": "qTC_",
          "type": "uint256"
        },
        {
          "internalType": "uint256",
          "name": "tcAvailableToRedeem_",
          "type": "uint256"
        }
      ],
      "name": "InsufficientTCtoRedeem",
      "type": "error"
    },
    {
      "inputs": [
        {
          "internalType": "uint256",
          "name": "qTP_",
          "type": "uint256"
        },
        {
          "internalType": "uint256",
          "name": "tpAvailableToMint_",
          "type": "uint256"
        }
      ],
      "name": "InsufficientTPtoMint",
      "type": "error"
    },
    {
      "inputs": [
        {
          "internalType": "uint256",
          "name": "qTP_",
          "type": "uint256"
        },
        {
          "internalType": "uint256",
          "name": "tpAvailableToRedeem_",
          "type": "uint256"
        }
      ],
      "name": "InsufficientTPtoRedeem",
      "type": "error"
    },
    {
      "inputs": [],
      "name": "InvalidAddress",
      "type": "error"
    },
    {
      "inputs": [],
      "name": "InvalidFluxCapacitorOperation",
      "type": "error"
    },
    {
      "inputs": [],
      "name": "InvalidValue",
      "type": "error"
    },
    {
      "inputs": [],
      "name": "Liquidated",
      "type": "error"
    },
    {
      "inputs": [
        {
          "internalType": "uint256",
          "name": "cglb_",
          "type": "uint256"
        },
        {
          "internalType": "uint256",
          "name": "covThrld_",
          "type": "uint256"
        }
      ],
      "name": "LowCoverage",
      "type": "error"
    },
    {
      "inputs": [
        {
          "internalType": "uint256",
          "name": "max_",
          "type": "uint256"
        },
        {
          "internalType": "uint256",
          "name": "new_",
          "type": "uint256"
        }
      ],
      "name": "MaxFluxCapacitorOperationReached",
      "type": "error"
    },
    {
      "inputs": [],
      "name": "MissingBlocksToSettlement",
      "type": "error"
    },
    {
      "inputs": [],
      "name": "MissingBlocksToTCInterestPayment",
      "type": "error"
    },
    {
      "inputs": [
        {
          "internalType": "address",
          "name": "dataProviderAddress_",
          "type": "address"
        }
      ],
      "name": "MissingProviderData",
      "type": "error"
    },
    {
      "inputs": [
        {
          "internalType": "address",
          "name": "priceProviderAddress_",
          "type": "address"
        }
      ],
      "name": "MissingProviderPrice",
      "type": "error"
    },
    {
      "inputs": [],
      "name": "NotAuthorizedChanger",
      "type": "error"
    },
    {
      "inputs": [],
      "name": "NotWhenPaused",
      "type": "error"
    },
    {
      "inputs": [],
      "name": "OnlyPauser",
      "type": "error"
    },
    {
      "inputs": [],
      "name": "OnlyWhenLiquidated",
      "type": "error"
    },
    {
      "inputs": [],
      "name": "OnlyWhilePaused",
      "type": "error"
    },
    {
      "inputs": [],
      "name": "PeggedTokenAlreadyAdded",
      "type": "error"
    },
    {
      "inputs": [
        {
          "internalType": "uint256",
          "name": "qACmin_",
          "type": "uint256"
        },
        {
          "internalType": "uint256",
          "name": "qACtoRedeem_",
          "type": "uint256"
        }
      ],
      "name": "QacBelowMinimumRequired",
      "type": "error"
    },
    {
      "inputs": [],
      "name": "QacNeededMustBeGreaterThanZero",
      "type": "error"
    },
    {
      "inputs": [
        {
          "internalType": "uint256",
          "name": "qTCmin_",
          "type": "uint256"
        },
        {
          "internalType": "uint256",
          "name": "qTC_",
          "type": "uint256"
        }
      ],
      "name": "QtcBelowMinimumRequired",
      "type": "error"
    },
    {
      "inputs": [
        {
          "internalType": "uint256",
          "name": "qTPmin_",
          "type": "uint256"
        },
        {
          "internalType": "uint256",
          "name": "qTP_",
          "type": "uint256"
        }
      ],
      "name": "QtpBelowMinimumRequired",
      "type": "error"
    },
    {
      "inputs": [],
      "name": "TransferFailed",
      "type": "error"
    },
    {
      "inputs": [],
      "name": "Unstoppable",
      "type": "error"
    },
    {
      "inputs": [],
      "name": "protocolAlreadyMigrated",
      "type": "error"
    },
    {
      "anonymous": false,
      "inputs": [
        {
          "indexed": false,
          "internalType": "address",
          "name": "previousAdmin",
          "type": "address"
        },
        {
          "indexed": false,
          "internalType": "address",
          "name": "newAdmin",
          "type": "address"
        }
      ],
      "name": "AdminChanged",
      "type": "event"
    },
    {
      "anonymous": false,
      "inputs": [
        {
          "indexed": true,
          "internalType": "address",
          "name": "beacon",
          "type": "address"
        }
      ],
      "name": "BeaconUpgraded",
      "type": "event"
    },
    {
      "anonymous": false,
      "inputs": [],
      "name": "ContractLiquidated",
      "type": "event"
    },
    {
      "anonymous": false,
      "inputs": [
        {
          "indexed": false,
          "internalType": "uint8",
          "name": "version",
          "type": "uint8"
        }
      ],
      "name": "Initialized",
      "type": "event"
    },
    {
      "anonymous": false,
      "inputs": [
        {
          "indexed": true,
          "internalType": "address",
          "name": "tp_",
          "type": "address"
        },
        {
          "indexed": true,
          "internalType": "address",
          "name": "sender_",
          "type": "address"
        },
        {
          "indexed": true,
          "internalType": "address",
          "name": "recipient_",
          "type": "address"
        },
        {
          "indexed": false,
          "internalType": "uint256",
          "name": "qTP_",
          "type": "uint256"
        },
        {
          "indexed": false,
          "internalType": "uint256",
          "name": "qAC_",
          "type": "uint256"
        }
      ],
      "name": "LiqTPRedeemed",
      "type": "event"
    },
    {
      "anonymous": false,
      "inputs": [
        {
          "indexed": false,
          "internalType": "address",
          "name": "account",
          "type": "address"
        }
      ],
      "name": "Paused",
      "type": "event"
    },
    {
      "anonymous": false,
      "inputs": [
        {
          "indexed": false,
          "internalType": "uint256",
          "name": "i_",
          "type": "uint256"
        },
        {
          "components": [
            {
              "internalType": "address",
              "name": "tpTokenAddress",
              "type": "address"
            },
            {
              "internalType": "address",
              "name": "priceProviderAddress",
              "type": "address"
            },
            {
              "internalType": "uint256",
              "name": "tpCtarg",
              "type": "uint256"
            },
            {
              "internalType": "uint256",
              "name": "tpMintFee",
              "type": "uint256"
            },
            {
              "internalType": "uint256",
              "name": "tpRedeemFee",
              "type": "uint256"
            },
            {
              "internalType": "uint256",
              "name": "tpEma",
              "type": "uint256"
            },
            {
              "internalType": "uint256",
              "name": "tpEmaSf",
              "type": "uint256"
            }
          ],
          "indexed": false,
          "internalType": "struct PeggedTokenParams",
          "name": "peggedTokenParams_",
          "type": "tuple"
        }
      ],
      "name": "PeggedTokenChange",
      "type": "event"
    },
    {
      "anonymous": false,
      "inputs": [],
      "name": "SettlementExecuted",
      "type": "event"
    },
    {
      "anonymous": false,
      "inputs": [
        {
          "indexed": false,
          "internalType": "uint256",
          "name": "mocGain_",
          "type": "uint256"
        },
        {
          "indexed": false,
          "internalType": "uint256[]",
          "name": "tpGain_",
          "type": "uint256[]"
        }
      ],
      "name": "SuccessFeeDistributed",
      "type": "event"
    },
    {
      "anonymous": false,
      "inputs": [
        {
          "indexed": false,
          "internalType": "uint256",
          "name": "interestAmount_",
          "type": "uint256"
        }
      ],
      "name": "TCInterestPayment",
      "type": "event"
    },
    {
      "anonymous": false,
      "inputs": [
        {
          "indexed": true,
          "internalType": "uint256",
          "name": "i_",
          "type": "uint256"
        },
        {
          "indexed": false,
          "internalType": "uint256",
          "name": "oldTPema_",
          "type": "uint256"
        },
        {
          "indexed": false,
          "internalType": "uint256",
          "name": "newTPema_",
          "type": "uint256"
        }
      ],
      "name": "TPemaUpdated",
      "type": "event"
    },
    {
      "anonymous": false,
      "inputs": [
        {
          "indexed": false,
          "internalType": "address",
          "name": "account",
          "type": "address"
        }
      ],
      "name": "Unpaused",
      "type": "event"
    },
    {
      "anonymous": false,
      "inputs": [
        {
          "indexed": true,
          "internalType": "address",
          "name": "implementation",
          "type": "address"
        }
      ],
      "name": "Upgraded",
      "type": "event"
    },
    {
      "inputs": [],
      "name": "absoluteAccumulator",
      "outputs": [
        {
          "internalType": "uint256",
          "name": "",
          "type": "uint256"
        }
      ],
      "stateMutability": "view",
      "type": "function"
    },
    {
      "inputs": [],
      "name": "acToken",
      "outputs": [
        {
          "internalType": "contract IERC20",
          "name": "",
          "type": "address"
        }
      ],
      "stateMutability": "view",
      "type": "function"
    },
    {
      "inputs": [
        {
          "components": [
            {
              "internalType": "address",
              "name": "tpTokenAddress",
              "type": "address"
            },
            {
              "internalType": "address",
              "name": "priceProviderAddress",
              "type": "address"
            },
            {
              "internalType": "uint256",
              "name": "tpCtarg",
              "type": "uint256"
            },
            {
              "internalType": "uint256",
              "name": "tpMintFee",
              "type": "uint256"
            },
            {
              "internalType": "uint256",
              "name": "tpRedeemFee",
              "type": "uint256"
            },
            {
              "internalType": "uint256",
              "name": "tpEma",
              "type": "uint256"
            },
            {
              "internalType": "uint256",
              "name": "tpEmaSf",
              "type": "uint256"
            }
          ],
          "internalType": "struct PeggedTokenParams",
          "name": "peggedTokenParams_",
          "type": "tuple"
        }
      ],
      "name": "addPeggedToken",
      "outputs": [],
      "stateMutability": "nonpayable",
      "type": "function"
    },
    {
      "inputs": [],
      "name": "appreciationFactor",
      "outputs": [
        {
          "internalType": "uint256",
          "name": "",
          "type": "uint256"
        }
      ],
      "stateMutability": "view",
      "type": "function"
    },
    {
      "inputs": [],
      "name": "bes",
      "outputs": [
        {
          "internalType": "uint256",
          "name": "",
          "type": "uint256"
        }
      ],
      "stateMutability": "view",
      "type": "function"
    },
    {
      "inputs": [],
      "name": "bns",
      "outputs": [
        {
          "internalType": "uint256",
          "name": "",
          "type": "uint256"
        }
      ],
      "stateMutability": "view",
      "type": "function"
    },
    {
      "inputs": [],
      "name": "calcCtargemaCA",
      "outputs": [
        {
          "internalType": "uint256",
          "name": "ctargemaCA",
          "type": "uint256"
        }
      ],
      "stateMutability": "view",
      "type": "function"
    },
    {
      "inputs": [
        {
          "internalType": "contract IGovernor",
          "name": "newGovernor_",
          "type": "address"
        }
      ],
      "name": "changeGovernor",
      "outputs": [],
      "stateMutability": "nonpayable",
      "type": "function"
    },
    {
      "inputs": [],
      "name": "decayBlockSpan",
      "outputs": [
        {
          "internalType": "uint256",
          "name": "",
          "type": "uint256"
        }
      ],
      "stateMutability": "view",
      "type": "function"
    },
    {
      "inputs": [],
      "name": "differentialAccumulator",
      "outputs": [
        {
          "internalType": "int256",
          "name": "",
          "type": "int256"
        }
      ],
      "stateMutability": "view",
      "type": "function"
    },
    {
      "inputs": [
        {
          "components": [
            {
              "internalType": "address",
              "name": "tpTokenAddress",
              "type": "address"
            },
            {
              "internalType": "address",
              "name": "priceProviderAddress",
              "type": "address"
            },
            {
              "internalType": "uint256",
              "name": "tpCtarg",
              "type": "uint256"
            },
            {
              "internalType": "uint256",
              "name": "tpMintFee",
              "type": "uint256"
            },
            {
              "internalType": "uint256",
              "name": "tpRedeemFee",
              "type": "uint256"
            },
            {
              "internalType": "uint256",
              "name": "tpEma",
              "type": "uint256"
            },
            {
              "internalType": "uint256",
              "name": "tpEmaSf",
              "type": "uint256"
            }
          ],
          "internalType": "struct PeggedTokenParams",
          "name": "peggedTokenParams_",
          "type": "tuple"
        }
      ],
      "name": "editPeggedToken",
      "outputs": [],
      "stateMutability": "nonpayable",
      "type": "function"
    },
    {
      "inputs": [],
      "name": "emaCalculationBlockSpan",
      "outputs": [
        {
          "internalType": "uint256",
          "name": "",
          "type": "uint256"
        }
      ],
      "stateMutability": "view",
      "type": "function"
    },
    {
      "inputs": [],
      "name": "evalLiquidation",
      "outputs": [],
      "stateMutability": "nonpayable",
      "type": "function"
    },
    {
      "inputs": [
        {
          "components": [
            {
              "internalType": "uint256",
              "name": "qTC",
              "type": "uint256"
            },
            {
              "internalType": "uint256",
              "name": "qACmax",
              "type": "uint256"
            },
            {
              "internalType": "address",
              "name": "sender",
              "type": "address"
            },
            {
              "internalType": "address",
              "name": "recipient",
              "type": "address"
            },
            {
              "internalType": "address",
              "name": "vendor",
              "type": "address"
            }
          ],
          "internalType": "struct MocCore.MintTCParams",
          "name": "params_",
          "type": "tuple"
        }
      ],
      "name": "execMintTC",
      "outputs": [
        {
          "internalType": "uint256",
          "name": "qACtotalNeeded",
          "type": "uint256"
        },
        {
          "internalType": "uint256",
          "name": "qFeeTokenTotalNeeded",
          "type": "uint256"
        },
        {
          "components": [
            {
              "internalType": "uint256",
              "name": "qACFee",
              "type": "uint256"
            },
            {
              "internalType": "uint256",
              "name": "qFeeToken",
              "type": "uint256"
            },
            {
              "internalType": "uint256",
              "name": "qACVendorMarkup",
              "type": "uint256"
            },
            {
              "internalType": "uint256",
              "name": "qFeeTokenVendorMarkup",
              "type": "uint256"
            }
          ],
          "internalType": "struct MocCommons.FeeCalcs",
          "name": "feeCalcs",
          "type": "tuple"
        }
      ],
      "stateMutability": "nonpayable",
      "type": "function"
    },
    {
      "inputs": [
        {
          "components": [
            {
              "internalType": "address",
              "name": "tp",
              "type": "address"
            },
            {
              "internalType": "uint256",
              "name": "qTP",
              "type": "uint256"
            },
            {
              "internalType": "uint256",
              "name": "qACmax",
              "type": "uint256"
            },
            {
              "internalType": "address",
              "name": "sender",
              "type": "address"
            },
            {
              "internalType": "address",
              "name": "recipient",
              "type": "address"
            },
            {
              "internalType": "address",
              "name": "vendor",
              "type": "address"
            }
          ],
          "internalType": "struct MocCommons.MintTCandTPParams",
          "name": "params_",
          "type": "tuple"
        }
      ],
      "name": "execMintTCandTP",
      "outputs": [
        {
          "internalType": "uint256",
          "name": "qACtotalNeeded",
          "type": "uint256"
        },
        {
          "internalType": "uint256",
          "name": "qTCMinted",
          "type": "uint256"
        },
        {
          "internalType": "uint256",
          "name": "qFeeTokenTotalNeeded",
          "type": "uint256"
        },
        {
          "components": [
            {
              "internalType": "uint256",
              "name": "qACFee",
              "type": "uint256"
            },
            {
              "internalType": "uint256",
              "name": "qFeeToken",
              "type": "uint256"
            },
            {
              "internalType": "uint256",
              "name": "qACVendorMarkup",
              "type": "uint256"
            },
            {
              "internalType": "uint256",
              "name": "qFeeTokenVendorMarkup",
              "type": "uint256"
            }
          ],
          "internalType": "struct MocCommons.FeeCalcs",
          "name": "feeCalcs",
          "type": "tuple"
        }
      ],
      "stateMutability": "nonpayable",
      "type": "function"
    },
    {
      "inputs": [
        {
          "components": [
            {
              "internalType": "address",
              "name": "tp",
              "type": "address"
            },
            {
              "internalType": "uint256",
              "name": "qTP",
              "type": "uint256"
            },
            {
              "internalType": "uint256",
              "name": "qACmax",
              "type": "uint256"
            },
            {
              "internalType": "address",
              "name": "sender",
              "type": "address"
            },
            {
              "internalType": "address",
              "name": "recipient",
              "type": "address"
            },
            {
              "internalType": "address",
              "name": "vendor",
              "type": "address"
            }
          ],
          "internalType": "struct MocCore.MintTPParams",
          "name": "params_",
          "type": "tuple"
        }
      ],
      "name": "execMintTP",
      "outputs": [
        {
          "internalType": "uint256",
          "name": "qACtotalNeeded",
          "type": "uint256"
        },
        {
          "internalType": "uint256",
          "name": "qFeeTokenTotalNeeded",
          "type": "uint256"
        },
        {
          "components": [
            {
              "internalType": "uint256",
              "name": "qACFee",
              "type": "uint256"
            },
            {
              "internalType": "uint256",
              "name": "qFeeToken",
              "type": "uint256"
            },
            {
              "internalType": "uint256",
              "name": "qACVendorMarkup",
              "type": "uint256"
            },
            {
              "internalType": "uint256",
              "name": "qFeeTokenVendorMarkup",
              "type": "uint256"
            }
          ],
          "internalType": "struct MocCommons.FeeCalcs",
          "name": "feeCalcs",
          "type": "tuple"
        }
      ],
      "stateMutability": "nonpayable",
      "type": "function"
    },
    {
      "inputs": [
        {
          "components": [
            {
              "internalType": "uint256",
              "name": "qTC",
              "type": "uint256"
            },
            {
              "internalType": "uint256",
              "name": "qACmin",
              "type": "uint256"
            },
            {
              "internalType": "address",
              "name": "sender",
              "type": "address"
            },
            {
              "internalType": "address",
              "name": "recipient",
              "type": "address"
            },
            {
              "internalType": "address",
              "name": "vendor",
              "type": "address"
            }
          ],
          "internalType": "struct MocCore.RedeemTCParams",
          "name": "params_",
          "type": "tuple"
        }
      ],
      "name": "execRedeemTC",
      "outputs": [
        {
          "internalType": "uint256",
          "name": "qACtoRedeem",
          "type": "uint256"
        },
        {
          "internalType": "uint256",
          "name": "qFeeTokenTotalNeeded",
          "type": "uint256"
        },
        {
          "components": [
            {
              "internalType": "uint256",
              "name": "qACFee",
              "type": "uint256"
            },
            {
              "internalType": "uint256",
              "name": "qFeeToken",
              "type": "uint256"
            },
            {
              "internalType": "uint256",
              "name": "qACVendorMarkup",
              "type": "uint256"
            },
            {
              "internalType": "uint256",
              "name": "qFeeTokenVendorMarkup",
              "type": "uint256"
            }
          ],
          "internalType": "struct MocCommons.FeeCalcs",
          "name": "feeCalcs",
          "type": "tuple"
        }
      ],
      "stateMutability": "nonpayable",
      "type": "function"
    },
    {
      "inputs": [
        {
          "components": [
            {
              "internalType": "address",
              "name": "tp",
              "type": "address"
            },
            {
              "internalType": "uint256",
              "name": "qTC",
              "type": "uint256"
            },
            {
              "internalType": "uint256",
              "name": "qTP",
              "type": "uint256"
            },
            {
              "internalType": "uint256",
              "name": "qACmin",
              "type": "uint256"
            },
            {
              "internalType": "address",
              "name": "sender",
              "type": "address"
            },
            {
              "internalType": "address",
              "name": "recipient",
              "type": "address"
            },
            {
              "internalType": "address",
              "name": "vendor",
              "type": "address"
            }
          ],
          "internalType": "struct MocCommons.RedeemTCandTPParams",
          "name": "params_",
          "type": "tuple"
        }
      ],
      "name": "execRedeemTCandTP",
      "outputs": [
        {
          "internalType": "uint256",
          "name": "qACtoRedeem",
          "type": "uint256"
        },
        {
          "internalType": "uint256",
          "name": "qTPRedeemed",
          "type": "uint256"
        },
        {
          "internalType": "uint256",
          "name": "qFeeTokenTotalNeeded",
          "type": "uint256"
        },
        {
          "components": [
            {
              "internalType": "uint256",
              "name": "qACFee",
              "type": "uint256"
            },
            {
              "internalType": "uint256",
              "name": "qFeeToken",
              "type": "uint256"
            },
            {
              "internalType": "uint256",
              "name": "qACVendorMarkup",
              "type": "uint256"
            },
            {
              "internalType": "uint256",
              "name": "qFeeTokenVendorMarkup",
              "type": "uint256"
            }
          ],
          "internalType": "struct MocCommons.FeeCalcs",
          "name": "feeCalcs",
          "type": "tuple"
        }
      ],
      "stateMutability": "nonpayable",
      "type": "function"
    },
    {
      "inputs": [
        {
          "components": [
            {
              "internalType": "address",
              "name": "tp",
              "type": "address"
            },
            {
              "internalType": "uint256",
              "name": "qTP",
              "type": "uint256"
            },
            {
              "internalType": "uint256",
              "name": "qACmin",
              "type": "uint256"
            },
            {
              "internalType": "address",
              "name": "sender",
              "type": "address"
            },
            {
              "internalType": "address",
              "name": "recipient",
              "type": "address"
            },
            {
              "internalType": "address",
              "name": "vendor",
              "type": "address"
            }
          ],
          "internalType": "struct MocCommons.RedeemTPParams",
          "name": "params_",
          "type": "tuple"
        }
      ],
      "name": "execRedeemTP",
      "outputs": [
        {
          "internalType": "uint256",
          "name": "qACtoRedeem",
          "type": "uint256"
        },
        {
          "internalType": "uint256",
          "name": "qFeeTokenTotalNeeded",
          "type": "uint256"
        },
        {
          "components": [
            {
              "internalType": "uint256",
              "name": "qACFee",
              "type": "uint256"
            },
            {
              "internalType": "uint256",
              "name": "qFeeToken",
              "type": "uint256"
            },
            {
              "internalType": "uint256",
              "name": "qACVendorMarkup",
              "type": "uint256"
            },
            {
              "internalType": "uint256",
              "name": "qFeeTokenVendorMarkup",
              "type": "uint256"
            }
          ],
          "internalType": "struct MocCommons.FeeCalcs",
          "name": "feeCalcs",
          "type": "tuple"
        }
      ],
      "stateMutability": "nonpayable",
      "type": "function"
    },
    {
      "inputs": [],
      "name": "execSettlement",
      "outputs": [],
      "stateMutability": "nonpayable",
      "type": "function"
    },
    {
      "inputs": [
        {
          "components": [
            {
              "internalType": "address",
              "name": "tp",
              "type": "address"
            },
            {
              "internalType": "uint256",
              "name": "qTC",
              "type": "uint256"
            },
            {
              "internalType": "uint256",
              "name": "qTPmin",
              "type": "uint256"
            },
            {
              "internalType": "uint256",
              "name": "qACmax",
              "type": "uint256"
            },
            {
              "internalType": "address",
              "name": "sender",
              "type": "address"
            },
            {
              "internalType": "address",
              "name": "recipient",
              "type": "address"
            },
            {
              "internalType": "address",
              "name": "vendor",
              "type": "address"
            }
          ],
          "internalType": "struct MocCommons.SwapTCforTPParams",
          "name": "params_",
          "type": "tuple"
        }
      ],
      "name": "execSwapTCforTP",
      "outputs": [
        {
          "internalType": "uint256",
          "name": "qACSurcharges",
          "type": "uint256"
        },
        {
          "internalType": "uint256",
          "name": "qTPMinted",
          "type": "uint256"
        },
        {
          "internalType": "uint256",
          "name": "qFeeTokenTotalNeeded",
          "type": "uint256"
        },
        {
          "components": [
            {
              "internalType": "uint256",
              "name": "qACFee",
              "type": "uint256"
            },
            {
              "internalType": "uint256",
              "name": "qFeeToken",
              "type": "uint256"
            },
            {
              "internalType": "uint256",
              "name": "qACVendorMarkup",
              "type": "uint256"
            },
            {
              "internalType": "uint256",
              "name": "qFeeTokenVendorMarkup",
              "type": "uint256"
            }
          ],
          "internalType": "struct MocCommons.FeeCalcs",
          "name": "feeCalcs",
          "type": "tuple"
        }
      ],
      "stateMutability": "nonpayable",
      "type": "function"
    },
    {
      "inputs": [
        {
          "components": [
            {
              "internalType": "address",
              "name": "tp",
              "type": "address"
            },
            {
              "internalType": "uint256",
              "name": "qTP",
              "type": "uint256"
            },
            {
              "internalType": "uint256",
              "name": "qTCmin",
              "type": "uint256"
            },
            {
              "internalType": "uint256",
              "name": "qACmax",
              "type": "uint256"
            },
            {
              "internalType": "address",
              "name": "sender",
              "type": "address"
            },
            {
              "internalType": "address",
              "name": "recipient",
              "type": "address"
            },
            {
              "internalType": "address",
              "name": "vendor",
              "type": "address"
            }
          ],
          "internalType": "struct MocCommons.SwapTPforTCParams",
          "name": "params_",
          "type": "tuple"
        }
      ],
      "name": "execSwapTPforTC",
      "outputs": [
        {
          "internalType": "uint256",
          "name": "qACSurcharges",
          "type": "uint256"
        },
        {
          "internalType": "uint256",
          "name": "qTCMinted",
          "type": "uint256"
        },
        {
          "internalType": "uint256",
          "name": "qFeeTokenTotalNeeded",
          "type": "uint256"
        },
        {
          "components": [
            {
              "internalType": "uint256",
              "name": "qACFee",
              "type": "uint256"
            },
            {
              "internalType": "uint256",
              "name": "qFeeToken",
              "type": "uint256"
            },
            {
              "internalType": "uint256",
              "name": "qACVendorMarkup",
              "type": "uint256"
            },
            {
              "internalType": "uint256",
              "name": "qFeeTokenVendorMarkup",
              "type": "uint256"
            }
          ],
          "internalType": "struct MocCommons.FeeCalcs",
          "name": "feeCalcs",
          "type": "tuple"
        }
      ],
      "stateMutability": "nonpayable",
      "type": "function"
    },
    {
      "inputs": [
        {
          "components": [
            {
              "internalType": "address",
              "name": "tpFrom",
              "type": "address"
            },
            {
              "internalType": "address",
              "name": "tpTo",
              "type": "address"
            },
            {
              "internalType": "uint256",
              "name": "qTP",
              "type": "uint256"
            },
            {
              "internalType": "uint256",
              "name": "qTPmin",
              "type": "uint256"
            },
            {
              "internalType": "uint256",
              "name": "qACmax",
              "type": "uint256"
            },
            {
              "internalType": "address",
              "name": "sender",
              "type": "address"
            },
            {
              "internalType": "address",
              "name": "recipient",
              "type": "address"
            },
            {
              "internalType": "address",
              "name": "vendor",
              "type": "address"
            }
          ],
          "internalType": "struct MocCommons.SwapTPforTPParams",
          "name": "params_",
          "type": "tuple"
        }
      ],
      "name": "execSwapTPforTP",
      "outputs": [
        {
          "internalType": "uint256",
          "name": "qACSurcharges",
          "type": "uint256"
        },
        {
          "internalType": "uint256",
          "name": "qTPMinted",
          "type": "uint256"
        },
        {
          "internalType": "uint256",
          "name": "qFeeTokenTotalNeeded",
          "type": "uint256"
        },
        {
          "components": [
            {
              "internalType": "uint256",
              "name": "qACFee",
              "type": "uint256"
            },
            {
              "internalType": "uint256",
              "name": "qFeeToken",
              "type": "uint256"
            },
            {
              "internalType": "uint256",
              "name": "qACVendorMarkup",
              "type": "uint256"
            },
            {
              "internalType": "uint256",
              "name": "qFeeTokenVendorMarkup",
              "type": "uint256"
            }
          ],
          "internalType": "struct MocCommons.FeeCalcs",
          "name": "feeCalcs",
          "type": "tuple"
        }
      ],
      "stateMutability": "nonpayable",
      "type": "function"
    },
    {
      "inputs": [],
      "name": "feeRetainer",
      "outputs": [
        {
          "internalType": "uint256",
          "name": "",
          "type": "uint256"
        }
      ],
      "stateMutability": "view",
      "type": "function"
    },
    {
      "inputs": [],
      "name": "feeToken",
      "outputs": [
        {
          "internalType": "contract IERC20",
          "name": "",
          "type": "address"
        }
      ],
      "stateMutability": "view",
      "type": "function"
    },
    {
      "inputs": [],
      "name": "feeTokenPct",
      "outputs": [
        {
          "internalType": "uint256",
          "name": "",
          "type": "uint256"
        }
      ],
      "stateMutability": "view",
      "type": "function"
    },
    {
      "inputs": [],
      "name": "feeTokenPriceProvider",
      "outputs": [
        {
          "internalType": "contract IPriceProvider",
          "name": "",
          "type": "address"
        }
      ],
      "stateMutability": "view",
      "type": "function"
    },
    {
      "inputs": [],
      "name": "getBts",
      "outputs": [
        {
          "internalType": "uint256",
          "name": "",
          "type": "uint256"
        }
      ],
      "stateMutability": "view",
      "type": "function"
    },
    {
      "inputs": [],
      "name": "getCglb",
      "outputs": [
        {
          "internalType": "uint256",
          "name": "cglob",
          "type": "uint256"
        }
      ],
      "stateMutability": "view",
      "type": "function"
    },
    {
      "inputs": [],
      "name": "getLckAC",
      "outputs": [
        {
          "internalType": "uint256",
          "name": "lckAC",
          "type": "uint256"
        }
      ],
      "stateMutability": "view",
      "type": "function"
    },
    {
      "inputs": [],
      "name": "getLeverageTC",
      "outputs": [
        {
          "internalType": "uint256",
          "name": "leverageTC",
          "type": "uint256"
        }
      ],
      "stateMutability": "view",
      "type": "function"
    },
    {
      "inputs": [
        {
          "internalType": "address",
          "name": "tp_",
          "type": "address"
        }
      ],
      "name": "getPACtp",
      "outputs": [
        {
          "internalType": "uint256",
          "name": "",
          "type": "uint256"
        }
      ],
      "stateMutability": "view",
      "type": "function"
    },
    {
      "inputs": [],
      "name": "getPTCac",
      "outputs": [
        {
          "internalType": "uint256",
          "name": "pTCac",
          "type": "uint256"
        }
      ],
      "stateMutability": "view",
      "type": "function"
    },
    {
      "inputs": [],
      "name": "getTCAvailableToRedeem",
      "outputs": [
        {
          "internalType": "int256",
          "name": "tcAvailableToRedeem",
          "type": "int256"
        }
      ],
      "stateMutability": "view",
      "type": "function"
    },
    {
      "inputs": [
        {
          "internalType": "address",
          "name": "tp_",
          "type": "address"
        }
      ],
      "name": "getTPAvailableToMint",
      "outputs": [
        {
          "internalType": "int256",
          "name": "tpAvailableToMint",
          "type": "int256"
        }
      ],
      "stateMutability": "view",
      "type": "function"
    },
    {
      "inputs": [],
      "name": "getTotalACavailable",
      "outputs": [
        {
          "internalType": "uint256",
          "name": "totalACavailable",
          "type": "uint256"
        }
      ],
      "stateMutability": "view",
      "type": "function"
    },
    {
      "inputs": [],
      "name": "governor",
      "outputs": [
        {
          "internalType": "contract IGovernor",
          "name": "",
          "type": "address"
        }
      ],
      "stateMutability": "view",
      "type": "function"
    },
    {
      "inputs": [
        {
          "components": [
            {
              "components": [
                {
                  "components": [
                    {
                      "internalType": "address",
                      "name": "feeTokenAddress",
                      "type": "address"
                    },
                    {
                      "internalType": "address",
                      "name": "feeTokenPriceProviderAddress",
                      "type": "address"
                    },
                    {
                      "internalType": "address",
                      "name": "tcTokenAddress",
                      "type": "address"
                    },
                    {
                      "internalType": "address",
                      "name": "mocFeeFlowAddress",
                      "type": "address"
                    },
                    {
                      "internalType": "address",
                      "name": "mocAppreciationBeneficiaryAddress",
                      "type": "address"
                    },
                    {
                      "internalType": "uint256",
                      "name": "protThrld",
                      "type": "uint256"
                    },
                    {
                      "internalType": "uint256",
                      "name": "liqThrld",
                      "type": "uint256"
                    },
                    {
                      "internalType": "uint256",
                      "name": "feeRetainer",
                      "type": "uint256"
                    },
                    {
                      "internalType": "uint256",
                      "name": "tcMintFee",
                      "type": "uint256"
                    },
                    {
                      "internalType": "uint256",
                      "name": "tcRedeemFee",
                      "type": "uint256"
                    },
                    {
                      "internalType": "uint256",
                      "name": "swapTPforTPFee",
                      "type": "uint256"
                    },
                    {
                      "internalType": "uint256",
                      "name": "swapTPforTCFee",
                      "type": "uint256"
                    },
                    {
                      "internalType": "uint256",
                      "name": "swapTCforTPFee",
                      "type": "uint256"
                    },
                    {
                      "internalType": "uint256",
                      "name": "redeemTCandTPFee",
                      "type": "uint256"
                    },
                    {
                      "internalType": "uint256",
                      "name": "mintTCandTPFee",
                      "type": "uint256"
                    },
                    {
                      "internalType": "uint256",
                      "name": "feeTokenPct",
                      "type": "uint256"
                    },
                    {
                      "internalType": "uint256",
                      "name": "successFee",
                      "type": "uint256"
                    },
                    {
                      "internalType": "uint256",
                      "name": "appreciationFactor",
                      "type": "uint256"
                    },
                    {
                      "internalType": "uint256",
                      "name": "bes",
                      "type": "uint256"
                    },
                    {
                      "internalType": "address",
                      "name": "tcInterestCollectorAddress",
                      "type": "address"
                    },
                    {
                      "internalType": "uint256",
                      "name": "tcInterestRate",
                      "type": "uint256"
                    },
                    {
                      "internalType": "uint256",
                      "name": "tcInterestPaymentBlockSpan",
                      "type": "uint256"
                    },
                    {
                      "internalType": "address",
                      "name": "maxAbsoluteOpProviderAddress",
                      "type": "address"
                    },
                    {
                      "internalType": "address",
                      "name": "maxOpDiffProviderAddress",
                      "type": "address"
                    },
                    {
                      "internalType": "uint256",
                      "name": "decayBlockSpan",
                      "type": "uint256"
                    }
                  ],
                  "internalType": "struct MocBaseBucket.InitializeBaseBucketParams",
                  "name": "initializeBaseBucketParams",
                  "type": "tuple"
                },
                {
                  "internalType": "address",
                  "name": "governorAddress",
                  "type": "address"
                },
                {
                  "internalType": "address",
                  "name": "pauserAddress",
                  "type": "address"
                },
                {
                  "internalType": "address",
                  "name": "mocCoreExpansion",
                  "type": "address"
                },
                {
                  "internalType": "uint256",
                  "name": "emaCalculationBlockSpan",
                  "type": "uint256"
                },
                {
                  "internalType": "address",
                  "name": "mocVendors",
                  "type": "address"
                }
              ],
              "internalType": "struct MocCore.InitializeCoreParams",
              "name": "initializeCoreParams",
              "type": "tuple"
            },
            {
              "internalType": "address",
              "name": "acTokenAddress",
              "type": "address"
            },
            {
              "internalType": "address",
              "name": "mocQueue",
              "type": "address"
            }
          ],
          "internalType": "struct MocCARC20Deferred.InitializeParams",
          "name": "initializeParams_",
          "type": "tuple"
        }
      ],
      "name": "initialize",
      "outputs": [],
      "stateMutability": "nonpayable",
      "type": "function"
    },
    {
      "inputs": [],
      "name": "isLiquidationReached",
      "outputs": [
        {
          "internalType": "bool",
          "name": "",
          "type": "bool"
        }
      ],
      "stateMutability": "view",
      "type": "function"
    },
    {
      "inputs": [],
      "name": "lastOperationBlockNumber",
      "outputs": [
        {
          "internalType": "uint256",
          "name": "",
          "type": "uint256"
        }
      ],
      "stateMutability": "view",
      "type": "function"
    },
    {
      "inputs": [],
      "name": "liqEnabled",
      "outputs": [
        {
          "internalType": "bool",
          "name": "",
          "type": "bool"
        }
      ],
      "stateMutability": "view",
      "type": "function"
    },
    {
      "inputs": [
        {
          "internalType": "address",
          "name": "tp_",
          "type": "address"
        }
      ],
      "name": "liqRedeemTP",
      "outputs": [
        {
          "internalType": "uint256",
          "name": "qACRedeemed",
          "type": "uint256"
        }
      ],
      "stateMutability": "nonpayable",
      "type": "function"
    },
    {
      "inputs": [
        {
          "internalType": "address",
          "name": "tp_",
          "type": "address"
        },
        {
          "internalType": "address",
          "name": "recipient_",
          "type": "address"
        }
      ],
      "name": "liqRedeemTPto",
      "outputs": [
        {
          "internalType": "uint256",
          "name": "qACRedeemed",
          "type": "uint256"
        }
      ],
      "stateMutability": "nonpayable",
      "type": "function"
    },
    {
      "inputs": [],
      "name": "liqThrld",
      "outputs": [
        {
          "internalType": "uint256",
          "name": "",
          "type": "uint256"
        }
      ],
      "stateMutability": "view",
      "type": "function"
    },
    {
      "inputs": [],
      "name": "liquidated",
      "outputs": [
        {
          "internalType": "bool",
          "name": "",
          "type": "bool"
        }
      ],
      "stateMutability": "view",
      "type": "function"
    },
    {
      "inputs": [],
      "name": "makeStoppable",
      "outputs": [],
      "stateMutability": "nonpayable",
      "type": "function"
    },
    {
      "inputs": [],
      "name": "makeUnstoppable",
      "outputs": [],
      "stateMutability": "nonpayable",
      "type": "function"
    },
    {
      "inputs": [],
      "name": "maxAbsoluteOpProvider",
      "outputs": [
        {
          "internalType": "contract IDataProvider",
          "name": "",
          "type": "address"
        }
      ],
      "stateMutability": "view",
      "type": "function"
    },
    {
      "inputs": [],
      "name": "maxOpDiffProvider",
      "outputs": [
        {
          "internalType": "contract IDataProvider",
          "name": "",
          "type": "address"
        }
      ],
      "stateMutability": "view",
      "type": "function"
    },
    {
      "inputs": [],
      "name": "maxQACToMintTP",
      "outputs": [
        {
          "internalType": "uint256",
          "name": "maxQAC",
          "type": "uint256"
        }
      ],
      "stateMutability": "view",
      "type": "function"
    },
    {
      "inputs": [],
      "name": "maxQACToRedeemTP",
      "outputs": [
        {
          "internalType": "uint256",
          "name": "maxQAC",
          "type": "uint256"
        }
      ],
      "stateMutability": "view",
      "type": "function"
    },
    {
      "inputs": [
        {
          "internalType": "uint256",
          "name": "qAC_",
          "type": "uint256"
        },
        {
          "internalType": "uint256",
          "name": "qTC_",
          "type": "uint256"
        },
        {
          "internalType": "uint256",
          "name": "qTP_",
          "type": "uint256"
        },
        {
          "internalType": "uint256",
          "name": "tpEma_",
          "type": "uint256"
        },
        {
          "internalType": "uint256",
          "name": "nextEmaCalculation_",
          "type": "uint256"
        },
        {
          "internalType": "uint256",
          "name": "nextTCInterestPayment_",
          "type": "uint256"
        }
      ],
      "name": "migrateFromV1",
      "outputs": [],
      "stateMutability": "nonpayable",
      "type": "function"
    },
    {
      "inputs": [
        {
          "internalType": "uint256",
          "name": "qTC_",
          "type": "uint256"
        },
        {
          "internalType": "uint256",
          "name": "qACmax_",
          "type": "uint256"
        }
      ],
      "name": "mintTC",
      "outputs": [
        {
          "internalType": "uint256",
          "name": "operId",
          "type": "uint256"
        }
      ],
      "stateMutability": "payable",
      "type": "function"
    },
    {
      "inputs": [
        {
          "internalType": "uint256",
          "name": "qTC_",
          "type": "uint256"
        },
        {
          "internalType": "uint256",
          "name": "qACmax_",
          "type": "uint256"
        },
        {
          "internalType": "address",
          "name": "vendor_",
          "type": "address"
        }
      ],
      "name": "mintTCViaVendor",
      "outputs": [
        {
          "internalType": "uint256",
          "name": "operId",
          "type": "uint256"
        }
      ],
      "stateMutability": "payable",
      "type": "function"
    },
    {
      "inputs": [
        {
          "internalType": "address",
          "name": "tp_",
          "type": "address"
        },
        {
          "internalType": "uint256",
          "name": "qTP_",
          "type": "uint256"
        },
        {
          "internalType": "uint256",
          "name": "qACmax_",
          "type": "uint256"
        }
      ],
      "name": "mintTCandTP",
      "outputs": [
        {
          "internalType": "uint256",
          "name": "operId",
          "type": "uint256"
        }
      ],
      "stateMutability": "payable",
      "type": "function"
    },
    {
      "inputs": [],
      "name": "mintTCandTPFee",
      "outputs": [
        {
          "internalType": "uint256",
          "name": "",
          "type": "uint256"
        }
      ],
      "stateMutability": "view",
      "type": "function"
    },
    {
      "inputs": [
        {
          "internalType": "address",
          "name": "tp_",
          "type": "address"
        },
        {
          "internalType": "uint256",
          "name": "qTP_",
          "type": "uint256"
        },
        {
          "internalType": "uint256",
          "name": "qACmax_",
          "type": "uint256"
        },
        {
          "internalType": "address",
          "name": "vendor_",
          "type": "address"
        }
      ],
      "name": "mintTCandTPViaVendor",
      "outputs": [
        {
          "internalType": "uint256",
          "name": "operId",
          "type": "uint256"
        }
      ],
      "stateMutability": "payable",
      "type": "function"
    },
    {
      "inputs": [
        {
          "internalType": "address",
          "name": "tp_",
          "type": "address"
        },
        {
          "internalType": "uint256",
          "name": "qTP_",
          "type": "uint256"
        },
        {
          "internalType": "uint256",
          "name": "qACmax_",
          "type": "uint256"
        },
        {
          "internalType": "address",
          "name": "recipient_",
          "type": "address"
        }
      ],
      "name": "mintTCandTPto",
      "outputs": [
        {
          "internalType": "uint256",
          "name": "operId",
          "type": "uint256"
        }
      ],
      "stateMutability": "payable",
      "type": "function"
    },
    {
      "inputs": [
        {
          "internalType": "address",
          "name": "tp_",
          "type": "address"
        },
        {
          "internalType": "uint256",
          "name": "qTP_",
          "type": "uint256"
        },
        {
          "internalType": "uint256",
          "name": "qACmax_",
          "type": "uint256"
        },
        {
          "internalType": "address",
          "name": "recipient_",
          "type": "address"
        },
        {
          "internalType": "address",
          "name": "vendor_",
          "type": "address"
        }
      ],
      "name": "mintTCandTPtoViaVendor",
      "outputs": [
        {
          "internalType": "uint256",
          "name": "operId",
          "type": "uint256"
        }
      ],
      "stateMutability": "payable",
      "type": "function"
    },
    {
      "inputs": [
        {
          "internalType": "uint256",
          "name": "qTC_",
          "type": "uint256"
        },
        {
          "internalType": "uint256",
          "name": "qACmax_",
          "type": "uint256"
        },
        {
          "internalType": "address",
          "name": "recipient_",
          "type": "address"
        }
      ],
      "name": "mintTCto",
      "outputs": [
        {
          "internalType": "uint256",
          "name": "operId",
          "type": "uint256"
        }
      ],
      "stateMutability": "payable",
      "type": "function"
    },
    {
      "inputs": [
        {
          "internalType": "uint256",
          "name": "qTC_",
          "type": "uint256"
        },
        {
          "internalType": "uint256",
          "name": "qACmax_",
          "type": "uint256"
        },
        {
          "internalType": "address",
          "name": "recipient_",
          "type": "address"
        },
        {
          "internalType": "address",
          "name": "vendor_",
          "type": "address"
        }
      ],
      "name": "mintTCtoViaVendor",
      "outputs": [
        {
          "internalType": "uint256",
          "name": "operId",
          "type": "uint256"
        }
      ],
      "stateMutability": "payable",
      "type": "function"
    },
    {
      "inputs": [
        {
          "internalType": "address",
          "name": "tp_",
          "type": "address"
        },
        {
          "internalType": "uint256",
          "name": "qTP_",
          "type": "uint256"
        },
        {
          "internalType": "uint256",
          "name": "qACmax_",
          "type": "uint256"
        }
      ],
      "name": "mintTP",
      "outputs": [
        {
          "internalType": "uint256",
          "name": "operId",
          "type": "uint256"
        }
      ],
      "stateMutability": "payable",
      "type": "function"
    },
    {
      "inputs": [
        {
          "internalType": "address",
          "name": "tp_",
          "type": "address"
        },
        {
          "internalType": "uint256",
          "name": "qTP_",
          "type": "uint256"
        },
        {
          "internalType": "uint256",
          "name": "qACmax_",
          "type": "uint256"
        },
        {
          "internalType": "address",
          "name": "vendor_",
          "type": "address"
        }
      ],
      "name": "mintTPViaVendor",
      "outputs": [
        {
          "internalType": "uint256",
          "name": "operId",
          "type": "uint256"
        }
      ],
      "stateMutability": "payable",
      "type": "function"
    },
    {
      "inputs": [
        {
          "internalType": "address",
          "name": "tp_",
          "type": "address"
        },
        {
          "internalType": "uint256",
          "name": "qTP_",
          "type": "uint256"
        },
        {
          "internalType": "uint256",
          "name": "qACmax_",
          "type": "uint256"
        },
        {
          "internalType": "address",
          "name": "recipient_",
          "type": "address"
        }
      ],
      "name": "mintTPto",
      "outputs": [
        {
          "internalType": "uint256",
          "name": "operId",
          "type": "uint256"
        }
      ],
      "stateMutability": "payable",
      "type": "function"
    },
    {
      "inputs": [
        {
          "internalType": "address",
          "name": "tp_",
          "type": "address"
        },
        {
          "internalType": "uint256",
          "name": "qTP_",
          "type": "uint256"
        },
        {
          "internalType": "uint256",
          "name": "qACmax_",
          "type": "uint256"
        },
        {
          "internalType": "address",
          "name": "recipient_",
          "type": "address"
        },
        {
          "internalType": "address",
          "name": "vendor_",
          "type": "address"
        }
      ],
      "name": "mintTPtoViaVendor",
      "outputs": [
        {
          "internalType": "uint256",
          "name": "operId",
          "type": "uint256"
        }
      ],
      "stateMutability": "payable",
      "type": "function"
    },
    {
      "inputs": [],
      "name": "mocAppreciationBeneficiaryAddress",
      "outputs": [
        {
          "internalType": "address",
          "name": "",
          "type": "address"
        }
      ],
      "stateMutability": "view",
      "type": "function"
    },
    {
      "inputs": [],
      "name": "mocFeeFlowAddress",
      "outputs": [
        {
          "internalType": "address",
          "name": "",
          "type": "address"
        }
      ],
      "stateMutability": "view",
      "type": "function"
    },
    {
      "inputs": [],
      "name": "mocQueue",
      "outputs": [
        {
          "internalType": "contract MocQueue",
          "name": "",
          "type": "address"
        }
      ],
      "stateMutability": "view",
      "type": "function"
    },
    {
      "inputs": [],
      "name": "mocVendors",
      "outputs": [
        {
          "internalType": "contract MocVendors",
          "name": "",
          "type": "address"
        }
      ],
      "stateMutability": "view",
      "type": "function"
    },
    {
      "inputs": [],
      "name": "nACcb",
      "outputs": [
        {
          "internalType": "uint256",
          "name": "",
          "type": "uint256"
        }
      ],
      "stateMutability": "view",
      "type": "function"
    },
    {
      "inputs": [],
      "name": "nTCcb",
      "outputs": [
        {
          "internalType": "uint256",
          "name": "",
          "type": "uint256"
        }
      ],
      "stateMutability": "view",
      "type": "function"
    },
    {
      "inputs": [],
      "name": "nextEmaCalculation",
      "outputs": [
        {
          "internalType": "uint256",
          "name": "",
          "type": "uint256"
        }
      ],
      "stateMutability": "view",
      "type": "function"
    },
    {
      "inputs": [],
      "name": "nextTCInterestPayment",
      "outputs": [
        {
          "internalType": "uint256",
          "name": "",
          "type": "uint256"
        }
      ],
      "stateMutability": "view",
      "type": "function"
    },
    {
      "inputs": [],
      "name": "pause",
      "outputs": [],
      "stateMutability": "nonpayable",
      "type": "function"
    },
    {
      "inputs": [],
      "name": "paused",
      "outputs": [
        {
          "internalType": "bool",
          "name": "",
          "type": "bool"
        }
      ],
      "stateMutability": "view",
      "type": "function"
    },
    {
      "inputs": [],
      "name": "pauser",
      "outputs": [
        {
          "internalType": "address",
          "name": "",
          "type": "address"
        }
      ],
      "stateMutability": "view",
      "type": "function"
    },
    {
      "inputs": [
        {
          "internalType": "uint256",
          "name": "",
          "type": "uint256"
        }
      ],
      "name": "pegContainer",
      "outputs": [
        {
          "internalType": "uint256",
          "name": "nTP",
          "type": "uint256"
        },
        {
          "internalType": "contract IPriceProvider",
          "name": "priceProvider",
          "type": "address"
        }
      ],
      "stateMutability": "view",
      "type": "function"
    },
    {
      "inputs": [
        {
          "internalType": "address",
          "name": "",
          "type": "address"
        }
      ],
      "name": "peggedTokenIndex",
      "outputs": [
        {
          "internalType": "uint256",
          "name": "index",
          "type": "uint256"
        },
        {
          "internalType": "bool",
          "name": "exists",
          "type": "bool"
        }
      ],
      "stateMutability": "view",
      "type": "function"
    },
    {
      "inputs": [],
      "name": "protThrld",
      "outputs": [
        {
          "internalType": "uint256",
          "name": "",
          "type": "uint256"
        }
      ],
      "stateMutability": "view",
      "type": "function"
    },
    {
      "inputs": [],
      "name": "proxiableUUID",
      "outputs": [
        {
          "internalType": "bytes32",
          "name": "",
          "type": "bytes32"
        }
      ],
      "stateMutability": "view",
      "type": "function"
    },
    {
      "inputs": [],
      "name": "qACLockedInPending",
      "outputs": [
        {
          "internalType": "uint256",
          "name": "",
          "type": "uint256"
        }
      ],
      "stateMutability": "view",
      "type": "function"
    },
    {
      "inputs": [
        {
          "internalType": "uint256",
          "name": "qTC_",
          "type": "uint256"
        },
        {
          "internalType": "uint256",
          "name": "qACmin_",
          "type": "uint256"
        }
      ],
      "name": "redeemTC",
      "outputs": [
        {
          "internalType": "uint256",
          "name": "operId",
          "type": "uint256"
        }
      ],
      "stateMutability": "payable",
      "type": "function"
    },
    {
      "inputs": [
        {
          "internalType": "uint256",
          "name": "qTC_",
          "type": "uint256"
        },
        {
          "internalType": "uint256",
          "name": "qACmin_",
          "type": "uint256"
        },
        {
          "internalType": "address",
          "name": "vendor_",
          "type": "address"
        }
      ],
      "name": "redeemTCViaVendor",
      "outputs": [
        {
          "internalType": "uint256",
          "name": "operId",
          "type": "uint256"
        }
      ],
      "stateMutability": "payable",
      "type": "function"
    },
    {
      "inputs": [
        {
          "internalType": "address",
          "name": "tp_",
          "type": "address"
        },
        {
          "internalType": "uint256",
          "name": "qTC_",
          "type": "uint256"
        },
        {
          "internalType": "uint256",
          "name": "qTP_",
          "type": "uint256"
        },
        {
          "internalType": "uint256",
          "name": "qACmin_",
          "type": "uint256"
        }
      ],
      "name": "redeemTCandTP",
      "outputs": [
        {
          "internalType": "uint256",
          "name": "operId",
          "type": "uint256"
        }
      ],
      "stateMutability": "payable",
      "type": "function"
    },
    {
      "inputs": [],
      "name": "redeemTCandTPFee",
      "outputs": [
        {
          "internalType": "uint256",
          "name": "",
          "type": "uint256"
        }
      ],
      "stateMutability": "view",
      "type": "function"
    },
    {
      "inputs": [
        {
          "internalType": "address",
          "name": "tp_",
          "type": "address"
        },
        {
          "internalType": "uint256",
          "name": "qTC_",
          "type": "uint256"
        },
        {
          "internalType": "uint256",
          "name": "qTP_",
          "type": "uint256"
        },
        {
          "internalType": "uint256",
          "name": "qACmin_",
          "type": "uint256"
        },
        {
          "internalType": "address",
          "name": "vendor_",
          "type": "address"
        }
      ],
      "name": "redeemTCandTPViaVendor",
      "outputs": [
        {
          "internalType": "uint256",
          "name": "operId",
          "type": "uint256"
        }
      ],
      "stateMutability": "payable",
      "type": "function"
    },
    {
      "inputs": [
        {
          "internalType": "address",
          "name": "tp_",
          "type": "address"
        },
        {
          "internalType": "uint256",
          "name": "qTC_",
          "type": "uint256"
        },
        {
          "internalType": "uint256",
          "name": "qTP_",
          "type": "uint256"
        },
        {
          "internalType": "uint256",
          "name": "qACmin_",
          "type": "uint256"
        },
        {
          "internalType": "address",
          "name": "recipient_",
          "type": "address"
        }
      ],
      "name": "redeemTCandTPto",
      "outputs": [
        {
          "internalType": "uint256",
          "name": "operId",
          "type": "uint256"
        }
      ],
      "stateMutability": "payable",
      "type": "function"
    },
    {
      "inputs": [
        {
          "internalType": "address",
          "name": "tp_",
          "type": "address"
        },
        {
          "internalType": "uint256",
          "name": "qTC_",
          "type": "uint256"
        },
        {
          "internalType": "uint256",
          "name": "qTP_",
          "type": "uint256"
        },
        {
          "internalType": "uint256",
          "name": "qACmin_",
          "type": "uint256"
        },
        {
          "internalType": "address",
          "name": "recipient_",
          "type": "address"
        },
        {
          "internalType": "address",
          "name": "vendor_",
          "type": "address"
        }
      ],
      "name": "redeemTCandTPtoViaVendor",
      "outputs": [
        {
          "internalType": "uint256",
          "name": "operId",
          "type": "uint256"
        }
      ],
      "stateMutability": "payable",
      "type": "function"
    },
    {
      "inputs": [
        {
          "internalType": "uint256",
          "name": "qTC_",
          "type": "uint256"
        },
        {
          "internalType": "uint256",
          "name": "qACmin_",
          "type": "uint256"
        },
        {
          "internalType": "address",
          "name": "recipient_",
          "type": "address"
        }
      ],
      "name": "redeemTCto",
      "outputs": [
        {
          "internalType": "uint256",
          "name": "operId",
          "type": "uint256"
        }
      ],
      "stateMutability": "payable",
      "type": "function"
    },
    {
      "inputs": [
        {
          "internalType": "uint256",
          "name": "qTC_",
          "type": "uint256"
        },
        {
          "internalType": "uint256",
          "name": "qACmin_",
          "type": "uint256"
        },
        {
          "internalType": "address",
          "name": "recipient_",
          "type": "address"
        },
        {
          "internalType": "address",
          "name": "vendor_",
          "type": "address"
        }
      ],
      "name": "redeemTCtoViaVendor",
      "outputs": [
        {
          "internalType": "uint256",
          "name": "operId",
          "type": "uint256"
        }
      ],
      "stateMutability": "payable",
      "type": "function"
    },
    {
      "inputs": [
        {
          "internalType": "address",
          "name": "tp_",
          "type": "address"
        },
        {
          "internalType": "uint256",
          "name": "qTP_",
          "type": "uint256"
        },
        {
          "internalType": "uint256",
          "name": "qACmin_",
          "type": "uint256"
        }
      ],
      "name": "redeemTP",
      "outputs": [
        {
          "internalType": "uint256",
          "name": "operId",
          "type": "uint256"
        }
      ],
      "stateMutability": "payable",
      "type": "function"
    },
    {
      "inputs": [
        {
          "internalType": "address",
          "name": "tp_",
          "type": "address"
        },
        {
          "internalType": "uint256",
          "name": "qTP_",
          "type": "uint256"
        },
        {
          "internalType": "uint256",
          "name": "qACmin_",
          "type": "uint256"
        },
        {
          "internalType": "address",
          "name": "vendor_",
          "type": "address"
        }
      ],
      "name": "redeemTPViaVendor",
      "outputs": [
        {
          "internalType": "uint256",
          "name": "operId",
          "type": "uint256"
        }
      ],
      "stateMutability": "payable",
      "type": "function"
    },
    {
      "inputs": [
        {
          "internalType": "address",
          "name": "tp_",
          "type": "address"
        },
        {
          "internalType": "uint256",
          "name": "qTP_",
          "type": "uint256"
        },
        {
          "internalType": "uint256",
          "name": "qACmin_",
          "type": "uint256"
        },
        {
          "internalType": "address",
          "name": "recipient_",
          "type": "address"
        }
      ],
      "name": "redeemTPto",
      "outputs": [
        {
          "internalType": "uint256",
          "name": "operId",
          "type": "uint256"
        }
      ],
      "stateMutability": "payable",
      "type": "function"
    },
    {
      "inputs": [
        {
          "internalType": "address",
          "name": "tp_",
          "type": "address"
        },
        {
          "internalType": "uint256",
          "name": "qTP_",
          "type": "uint256"
        },
        {
          "internalType": "uint256",
          "name": "qACmin_",
          "type": "uint256"
        },
        {
          "internalType": "address",
          "name": "recipient_",
          "type": "address"
        },
        {
          "internalType": "address",
          "name": "vendor_",
          "type": "address"
        }
      ],
      "name": "redeemTPtoViaVendor",
      "outputs": [
        {
          "internalType": "uint256",
          "name": "operId",
          "type": "uint256"
        }
      ],
      "stateMutability": "payable",
      "type": "function"
    },
    {
      "inputs": [],
      "name": "refreshACBalance",
      "outputs": [],
      "stateMutability": "nonpayable",
      "type": "function"
    },
    {
      "inputs": [
        {
          "internalType": "uint256",
          "name": "appreciationFactor_",
          "type": "uint256"
        }
      ],
      "name": "setAppreciationFactor",
      "outputs": [],
      "stateMutability": "nonpayable",
      "type": "function"
    },
    {
      "inputs": [
        {
          "internalType": "uint256",
          "name": "bes_",
          "type": "uint256"
        }
      ],
      "name": "setBes",
      "outputs": [],
      "stateMutability": "nonpayable",
      "type": "function"
    },
    {
      "inputs": [
        {
          "internalType": "uint256",
          "name": "decayBlockSpan_",
          "type": "uint256"
        }
      ],
      "name": "setDecayBlockSpan",
      "outputs": [],
      "stateMutability": "nonpayable",
      "type": "function"
    },
    {
      "inputs": [
        {
          "internalType": "uint256",
          "name": "blockSpan_",
          "type": "uint256"
        }
      ],
      "name": "setEmaCalculationBlockSpan",
      "outputs": [],
      "stateMutability": "nonpayable",
      "type": "function"
    },
    {
      "inputs": [
        {
          "internalType": "uint256",
          "name": "feeRetainer_",
          "type": "uint256"
        }
      ],
      "name": "setFeeRetainer",
      "outputs": [],
      "stateMutability": "nonpayable",
      "type": "function"
    },
    {
      "inputs": [
        {
          "internalType": "address",
          "name": "mocFeeTokenAddress_",
          "type": "address"
        }
      ],
      "name": "setFeeTokenAddress",
      "outputs": [],
      "stateMutability": "nonpayable",
      "type": "function"
    },
    {
      "inputs": [
        {
          "internalType": "uint256",
          "name": "feeTokenPct_",
          "type": "uint256"
        }
      ],
      "name": "setFeeTokenPct",
      "outputs": [],
      "stateMutability": "nonpayable",
      "type": "function"
    },
    {
      "inputs": [
        {
          "internalType": "address",
          "name": "mocFeeTokenPriceProviderAddress_",
          "type": "address"
        }
      ],
      "name": "setFeeTokenPriceProviderAddress",
      "outputs": [],
      "stateMutability": "nonpayable",
      "type": "function"
    },
    {
      "inputs": [
        {
          "internalType": "bool",
          "name": "liqEnabled_",
          "type": "bool"
        }
      ],
      "name": "setLiqEnabled",
      "outputs": [],
      "stateMutability": "nonpayable",
      "type": "function"
    },
    {
      "inputs": [
        {
          "internalType": "uint256",
          "name": "liqThrld_",
          "type": "uint256"
        }
      ],
      "name": "setLiqThrld",
      "outputs": [],
      "stateMutability": "nonpayable",
      "type": "function"
    },
    {
      "inputs": [
        {
          "internalType": "address",
          "name": "maxAbsoluteOpProviderAddress_",
          "type": "address"
        }
      ],
      "name": "setMaxAbsoluteOpProviderAddress",
      "outputs": [],
      "stateMutability": "nonpayable",
      "type": "function"
    },
    {
      "inputs": [
        {
          "internalType": "address",
          "name": "maxOpDiffProviderAddress_",
          "type": "address"
        }
      ],
      "name": "setMaxOpDiffProviderAddress",
      "outputs": [],
      "stateMutability": "nonpayable",
      "type": "function"
    },
    {
      "inputs": [
        {
          "internalType": "uint256",
          "name": "mintTCandTPFee_",
          "type": "uint256"
        }
      ],
      "name": "setMintTCandTPFee",
      "outputs": [],
      "stateMutability": "nonpayable",
      "type": "function"
    },
    {
      "inputs": [
        {
          "internalType": "address",
          "name": "mocAppreciationBeneficiaryAddress_",
          "type": "address"
        }
      ],
      "name": "setMocAppreciationBeneficiaryAddress",
      "outputs": [],
      "stateMutability": "nonpayable",
      "type": "function"
    },
    {
      "inputs": [
        {
          "internalType": "address",
          "name": "mocCoreExpansion_",
          "type": "address"
        }
      ],
      "name": "setMocCoreExpansion",
      "outputs": [],
      "stateMutability": "nonpayable",
      "type": "function"
    },
    {
      "inputs": [
        {
          "internalType": "address",
          "name": "mocFeeFlowAddress_",
          "type": "address"
        }
      ],
      "name": "setMocFeeFlowAddress",
      "outputs": [],
      "stateMutability": "nonpayable",
      "type": "function"
    },
    {
      "inputs": [
        {
          "internalType": "address",
          "name": "mocQueue_",
          "type": "address"
        }
      ],
      "name": "setMocQueue",
      "outputs": [],
      "stateMutability": "nonpayable",
      "type": "function"
    },
    {
      "inputs": [
        {
          "internalType": "address",
          "name": "mocVendors_",
          "type": "address"
        }
      ],
      "name": "setMocVendors",
      "outputs": [],
      "stateMutability": "nonpayable",
      "type": "function"
    },
    {
      "inputs": [
        {
          "internalType": "address",
          "name": "newPauser_",
          "type": "address"
        }
      ],
      "name": "setPauser",
      "outputs": [],
      "stateMutability": "nonpayable",
      "type": "function"
    },
    {
      "inputs": [
        {
          "internalType": "uint256",
          "name": "protThrld_",
          "type": "uint256"
        }
      ],
      "name": "setProtThrld",
      "outputs": [],
      "stateMutability": "nonpayable",
      "type": "function"
    },
    {
      "inputs": [
        {
          "internalType": "uint256",
          "name": "redeemTCandTPFee_",
          "type": "uint256"
        }
      ],
      "name": "setRedeemTCandTPFee",
      "outputs": [],
      "stateMutability": "nonpayable",
      "type": "function"
    },
    {
      "inputs": [
        {
          "internalType": "uint256",
          "name": "successFee_",
          "type": "uint256"
        }
      ],
      "name": "setSuccessFee",
      "outputs": [],
      "stateMutability": "nonpayable",
      "type": "function"
    },
    {
      "inputs": [
        {
          "internalType": "uint256",
          "name": "swapTCforTPFee_",
          "type": "uint256"
        }
      ],
      "name": "setSwapTCforTPFee",
      "outputs": [],
      "stateMutability": "nonpayable",
      "type": "function"
    },
    {
      "inputs": [
        {
          "internalType": "uint256",
          "name": "swapTPforTCFee_",
          "type": "uint256"
        }
      ],
      "name": "setSwapTPforTCFee",
      "outputs": [],
      "stateMutability": "nonpayable",
      "type": "function"
    },
    {
      "inputs": [
        {
          "internalType": "uint256",
          "name": "swapTPforTPFee_",
          "type": "uint256"
        }
      ],
      "name": "setSwapTPforTPFee",
      "outputs": [],
      "stateMutability": "nonpayable",
      "type": "function"
    },
    {
      "inputs": [
        {
          "internalType": "address",
          "name": "tcInterestCollectorAddress_",
          "type": "address"
        }
      ],
      "name": "setTCInterestCollectorAddress",
      "outputs": [],
      "stateMutability": "nonpayable",
      "type": "function"
    },
    {
      "inputs": [
        {
          "internalType": "uint256",
          "name": "tcInterestPaymentBlockSpan_",
          "type": "uint256"
        }
      ],
      "name": "setTCInterestPaymentBlockSpan",
      "outputs": [],
      "stateMutability": "nonpayable",
      "type": "function"
    },
    {
      "inputs": [
        {
          "internalType": "uint256",
          "name": "tcInterestRate_",
          "type": "uint256"
        }
      ],
      "name": "setTCInterestRate",
      "outputs": [],
      "stateMutability": "nonpayable",
      "type": "function"
    },
    {
      "inputs": [
        {
          "internalType": "uint256",
          "name": "tcMintFee_",
          "type": "uint256"
        }
      ],
      "name": "setTcMintFee",
      "outputs": [],
      "stateMutability": "nonpayable",
      "type": "function"
    },
    {
      "inputs": [
        {
          "internalType": "uint256",
          "name": "tcRedeemFee_",
          "type": "uint256"
        }
      ],
      "name": "setTcRedeemFee",
      "outputs": [],
      "stateMutability": "nonpayable",
      "type": "function"
    },
    {
      "inputs": [],
      "name": "shouldCalculateEma",
      "outputs": [
        {
          "internalType": "bool",
          "name": "",
          "type": "bool"
        }
      ],
      "stateMutability": "view",
      "type": "function"
    },
    {
      "inputs": [],
      "name": "stoppable",
      "outputs": [
        {
          "internalType": "bool",
          "name": "",
          "type": "bool"
        }
      ],
      "stateMutability": "view",
      "type": "function"
    },
    {
      "inputs": [],
      "name": "successFee",
      "outputs": [
        {
          "internalType": "uint256",
          "name": "",
          "type": "uint256"
        }
      ],
      "stateMutability": "view",
      "type": "function"
    },
    {
      "inputs": [
        {
          "internalType": "address",
          "name": "tp_",
          "type": "address"
        },
        {
          "internalType": "uint256",
          "name": "qTC_",
          "type": "uint256"
        },
        {
          "internalType": "uint256",
          "name": "qTPmin_",
          "type": "uint256"
        },
        {
          "internalType": "uint256",
          "name": "qACmax_",
          "type": "uint256"
        }
      ],
      "name": "swapTCforTP",
      "outputs": [
        {
          "internalType": "uint256",
          "name": "operId",
          "type": "uint256"
        }
      ],
      "stateMutability": "payable",
      "type": "function"
    },
    {
      "inputs": [],
      "name": "swapTCforTPFee",
      "outputs": [
        {
          "internalType": "uint256",
          "name": "",
          "type": "uint256"
        }
      ],
      "stateMutability": "view",
      "type": "function"
    },
    {
      "inputs": [
        {
          "internalType": "address",
          "name": "tp_",
          "type": "address"
        },
        {
          "internalType": "uint256",
          "name": "qTC_",
          "type": "uint256"
        },
        {
          "internalType": "uint256",
          "name": "qTPmin_",
          "type": "uint256"
        },
        {
          "internalType": "uint256",
          "name": "qACmax_",
          "type": "uint256"
        },
        {
          "internalType": "address",
          "name": "vendor_",
          "type": "address"
        }
      ],
      "name": "swapTCforTPViaVendor",
      "outputs": [
        {
          "internalType": "uint256",
          "name": "operId",
          "type": "uint256"
        }
      ],
      "stateMutability": "payable",
      "type": "function"
    },
    {
      "inputs": [
        {
          "internalType": "address",
          "name": "tp_",
          "type": "address"
        },
        {
          "internalType": "uint256",
          "name": "qTC_",
          "type": "uint256"
        },
        {
          "internalType": "uint256",
          "name": "qTPmin_",
          "type": "uint256"
        },
        {
          "internalType": "uint256",
          "name": "qACmax_",
          "type": "uint256"
        },
        {
          "internalType": "address",
          "name": "recipient_",
          "type": "address"
        }
      ],
      "name": "swapTCforTPto",
      "outputs": [
        {
          "internalType": "uint256",
          "name": "operId",
          "type": "uint256"
        }
      ],
      "stateMutability": "payable",
      "type": "function"
    },
    {
      "inputs": [
        {
          "internalType": "address",
          "name": "tp_",
          "type": "address"
        },
        {
          "internalType": "uint256",
          "name": "qTC_",
          "type": "uint256"
        },
        {
          "internalType": "uint256",
          "name": "qTPmin_",
          "type": "uint256"
        },
        {
          "internalType": "uint256",
          "name": "qACmax_",
          "type": "uint256"
        },
        {
          "internalType": "address",
          "name": "recipient_",
          "type": "address"
        },
        {
          "internalType": "address",
          "name": "vendor_",
          "type": "address"
        }
      ],
      "name": "swapTCforTPtoViaVendor",
      "outputs": [
        {
          "internalType": "uint256",
          "name": "operId",
          "type": "uint256"
        }
      ],
      "stateMutability": "payable",
      "type": "function"
    },
    {
      "inputs": [
        {
          "internalType": "address",
          "name": "tp_",
          "type": "address"
        },
        {
          "internalType": "uint256",
          "name": "qTP_",
          "type": "uint256"
        },
        {
          "internalType": "uint256",
          "name": "qTCmin_",
          "type": "uint256"
        },
        {
          "internalType": "uint256",
          "name": "qACmax_",
          "type": "uint256"
        }
      ],
      "name": "swapTPforTC",
      "outputs": [
        {
          "internalType": "uint256",
          "name": "operId",
          "type": "uint256"
        }
      ],
      "stateMutability": "payable",
      "type": "function"
    },
    {
      "inputs": [],
      "name": "swapTPforTCFee",
      "outputs": [
        {
          "internalType": "uint256",
          "name": "",
          "type": "uint256"
        }
      ],
      "stateMutability": "view",
      "type": "function"
    },
    {
      "inputs": [
        {
          "internalType": "address",
          "name": "tp_",
          "type": "address"
        },
        {
          "internalType": "uint256",
          "name": "qTP_",
          "type": "uint256"
        },
        {
          "internalType": "uint256",
          "name": "qTCmin_",
          "type": "uint256"
        },
        {
          "internalType": "uint256",
          "name": "qACmax_",
          "type": "uint256"
        },
        {
          "internalType": "address",
          "name": "vendor_",
          "type": "address"
        }
      ],
      "name": "swapTPforTCViaVendor",
      "outputs": [
        {
          "internalType": "uint256",
          "name": "operId",
          "type": "uint256"
        }
      ],
      "stateMutability": "payable",
      "type": "function"
    },
    {
      "inputs": [
        {
          "internalType": "address",
          "name": "tp_",
          "type": "address"
        },
        {
          "internalType": "uint256",
          "name": "qTP_",
          "type": "uint256"
        },
        {
          "internalType": "uint256",
          "name": "qTCmin_",
          "type": "uint256"
        },
        {
          "internalType": "uint256",
          "name": "qACmax_",
          "type": "uint256"
        },
        {
          "internalType": "address",
          "name": "recipient_",
          "type": "address"
        }
      ],
      "name": "swapTPforTCto",
      "outputs": [
        {
          "internalType": "uint256",
          "name": "operId",
          "type": "uint256"
        }
      ],
      "stateMutability": "payable",
      "type": "function"
    },
    {
      "inputs": [
        {
          "internalType": "address",
          "name": "tp_",
          "type": "address"
        },
        {
          "internalType": "uint256",
          "name": "qTP_",
          "type": "uint256"
        },
        {
          "internalType": "uint256",
          "name": "qTCmin_",
          "type": "uint256"
        },
        {
          "internalType": "uint256",
          "name": "qACmax_",
          "type": "uint256"
        },
        {
          "internalType": "address",
          "name": "recipient_",
          "type": "address"
        },
        {
          "internalType": "address",
          "name": "vendor_",
          "type": "address"
        }
      ],
      "name": "swapTPforTCtoViaVendor",
      "outputs": [
        {
          "internalType": "uint256",
          "name": "operId",
          "type": "uint256"
        }
      ],
      "stateMutability": "payable",
      "type": "function"
    },
    {
      "inputs": [
        {
          "internalType": "address",
          "name": "tpFrom_",
          "type": "address"
        },
        {
          "internalType": "address",
          "name": "tpTo_",
          "type": "address"
        },
        {
          "internalType": "uint256",
          "name": "qTP_",
          "type": "uint256"
        },
        {
          "internalType": "uint256",
          "name": "qTPmin_",
          "type": "uint256"
        },
        {
          "internalType": "uint256",
          "name": "qACmax_",
          "type": "uint256"
        }
      ],
      "name": "swapTPforTP",
      "outputs": [
        {
          "internalType": "uint256",
          "name": "operId",
          "type": "uint256"
        }
      ],
      "stateMutability": "payable",
      "type": "function"
    },
    {
      "inputs": [],
      "name": "swapTPforTPFee",
      "outputs": [
        {
          "internalType": "uint256",
          "name": "",
          "type": "uint256"
        }
      ],
      "stateMutability": "view",
      "type": "function"
    },
    {
      "inputs": [
        {
          "internalType": "address",
          "name": "tpFrom_",
          "type": "address"
        },
        {
          "internalType": "address",
          "name": "tpTo_",
          "type": "address"
        },
        {
          "internalType": "uint256",
          "name": "qTP_",
          "type": "uint256"
        },
        {
          "internalType": "uint256",
          "name": "qTPmin_",
          "type": "uint256"
        },
        {
          "internalType": "uint256",
          "name": "qACmax_",
          "type": "uint256"
        },
        {
          "internalType": "address",
          "name": "vendor_",
          "type": "address"
        }
      ],
      "name": "swapTPforTPViaVendor",
      "outputs": [
        {
          "internalType": "uint256",
          "name": "operId",
          "type": "uint256"
        }
      ],
      "stateMutability": "payable",
      "type": "function"
    },
    {
      "inputs": [
        {
          "internalType": "address",
          "name": "tpFrom_",
          "type": "address"
        },
        {
          "internalType": "address",
          "name": "tpTo_",
          "type": "address"
        },
        {
          "internalType": "uint256",
          "name": "qTP_",
          "type": "uint256"
        },
        {
          "internalType": "uint256",
          "name": "qTPmin_",
          "type": "uint256"
        },
        {
          "internalType": "uint256",
          "name": "qACmax_",
          "type": "uint256"
        },
        {
          "internalType": "address",
          "name": "recipient_",
          "type": "address"
        }
      ],
      "name": "swapTPforTPto",
      "outputs": [
        {
          "internalType": "uint256",
          "name": "operId",
          "type": "uint256"
        }
      ],
      "stateMutability": "payable",
      "type": "function"
    },
    {
      "inputs": [
        {
          "internalType": "address",
          "name": "tpFrom_",
          "type": "address"
        },
        {
          "internalType": "address",
          "name": "tpTo_",
          "type": "address"
        },
        {
          "internalType": "uint256",
          "name": "qTP_",
          "type": "uint256"
        },
        {
          "internalType": "uint256",
          "name": "qTPmin_",
          "type": "uint256"
        },
        {
          "internalType": "uint256",
          "name": "qACmax_",
          "type": "uint256"
        },
        {
          "internalType": "address",
          "name": "recipient_",
          "type": "address"
        },
        {
          "internalType": "address",
          "name": "vendor_",
          "type": "address"
        }
      ],
      "name": "swapTPforTPtoViaVendor",
      "outputs": [
        {
          "internalType": "uint256",
          "name": "operId",
          "type": "uint256"
        }
      ],
      "stateMutability": "payable",
      "type": "function"
    },
    {
      "inputs": [],
      "name": "tcHoldersInterestPayment",
      "outputs": [],
      "stateMutability": "nonpayable",
      "type": "function"
    },
    {
      "inputs": [],
      "name": "tcInterestCollectorAddress",
      "outputs": [
        {
          "internalType": "address",
          "name": "",
          "type": "address"
        }
      ],
      "stateMutability": "view",
      "type": "function"
    },
    {
      "inputs": [],
      "name": "tcInterestPaymentBlockSpan",
      "outputs": [
        {
          "internalType": "uint256",
          "name": "",
          "type": "uint256"
        }
      ],
      "stateMutability": "view",
      "type": "function"
    },
    {
      "inputs": [],
      "name": "tcInterestRate",
      "outputs": [
        {
          "internalType": "uint256",
          "name": "",
          "type": "uint256"
        }
      ],
      "stateMutability": "view",
      "type": "function"
    },
    {
      "inputs": [],
      "name": "tcMintFee",
      "outputs": [
        {
          "internalType": "uint256",
          "name": "",
          "type": "uint256"
        }
      ],
      "stateMutability": "view",
      "type": "function"
    },
    {
      "inputs": [],
      "name": "tcRedeemFee",
      "outputs": [
        {
          "internalType": "uint256",
          "name": "",
          "type": "uint256"
        }
      ],
      "stateMutability": "view",
      "type": "function"
    },
    {
      "inputs": [],
      "name": "tcToken",
      "outputs": [
        {
          "internalType": "contract MocTC",
          "name": "",
          "type": "address"
        }
      ],
      "stateMutability": "view",
      "type": "function"
    },
    {
      "inputs": [
        {
          "internalType": "uint256",
          "name": "",
          "type": "uint256"
        }
      ],
      "name": "tpCtarg",
      "outputs": [
        {
          "internalType": "uint256",
          "name": "",
          "type": "uint256"
        }
      ],
      "stateMutability": "view",
      "type": "function"
    },
    {
      "inputs": [
        {
          "internalType": "uint256",
          "name": "",
          "type": "uint256"
        }
      ],
      "name": "tpEma",
      "outputs": [
        {
          "internalType": "uint256",
          "name": "ema",
          "type": "uint256"
        },
        {
          "internalType": "uint256",
          "name": "sf",
          "type": "uint256"
        }
      ],
      "stateMutability": "view",
      "type": "function"
    },
    {
      "inputs": [
        {
          "internalType": "uint256",
          "name": "",
          "type": "uint256"
        }
      ],
      "name": "tpLiqPrices",
      "outputs": [
        {
          "internalType": "uint256",
          "name": "",
          "type": "uint256"
        }
      ],
      "stateMutability": "view",
      "type": "function"
    },
    {
      "inputs": [
        {
          "internalType": "address",
          "name": "",
          "type": "address"
        }
      ],
      "name": "tpMintFees",
      "outputs": [
        {
          "internalType": "uint256",
          "name": "",
          "type": "uint256"
        }
      ],
      "stateMutability": "view",
      "type": "function"
    },
    {
      "inputs": [
        {
          "internalType": "address",
          "name": "",
          "type": "address"
        }
      ],
      "name": "tpRedeemFees",
      "outputs": [
        {
          "internalType": "uint256",
          "name": "",
          "type": "uint256"
        }
      ],
      "stateMutability": "view",
      "type": "function"
    },
    {
      "inputs": [
        {
          "internalType": "uint256",
          "name": "",
          "type": "uint256"
        }
      ],
      "name": "tpTokens",
      "outputs": [
        {
          "internalType": "contract IMocRC20",
          "name": "",
          "type": "address"
        }
      ],
      "stateMutability": "view",
      "type": "function"
    },
    {
      "inputs": [
        {
          "internalType": "address",
          "name": "owner_",
          "type": "address"
        },
        {
          "internalType": "uint256",
          "name": "qACToUnlock_",
          "type": "uint256"
        }
      ],
      "name": "unlockACInPending",
      "outputs": [],
      "stateMutability": "nonpayable",
      "type": "function"
    },
    {
      "inputs": [
        {
          "internalType": "address",
          "name": "owner_",
          "type": "address"
        },
        {
          "internalType": "uint256",
          "name": "qTCToUnlock_",
          "type": "uint256"
        }
      ],
      "name": "unlockTCInPending",
      "outputs": [],
      "stateMutability": "nonpayable",
      "type": "function"
    },
    {
      "inputs": [
        {
          "internalType": "address",
          "name": "owner_",
          "type": "address"
        },
        {
          "internalType": "contract IERC20Upgradeable",
          "name": "tpToken_",
          "type": "address"
        },
        {
          "internalType": "uint256",
          "name": "qTPToUnlock_",
          "type": "uint256"
        }
      ],
      "name": "unlockTPInPending",
      "outputs": [],
      "stateMutability": "nonpayable",
      "type": "function"
    },
    {
      "inputs": [],
      "name": "unpause",
      "outputs": [],
      "stateMutability": "nonpayable",
      "type": "function"
    },
    {
      "inputs": [],
      "name": "updateEmas",
      "outputs": [],
      "stateMutability": "nonpayable",
      "type": "function"
    },
    {
      "inputs": [
        {
          "internalType": "address",
          "name": "newImplementation",
          "type": "address"
        }
      ],
      "name": "upgradeTo",
      "outputs": [],
      "stateMutability": "nonpayable",
      "type": "function"
    },
    {
      "inputs": [
        {
          "internalType": "address",
          "name": "newImplementation",
          "type": "address"
        },
        {
          "internalType": "bytes",
          "name": "data",
          "type": "bytes"
        }
      ],
      "name": "upgradeToAndCall",
      "outputs": [],
      "stateMutability": "payable",
      "type": "function"
    }
  ],
  "bytecode": "0x60a08060405234620000e157306080526000549060ff8260081c166200008f575060ff8082160362000053575b604051615f909081620000e782396080518181816125900152818161270101526131230152f35b60ff90811916176000557f7f26b83ff96e1f2b6a682f133852f6798a09c465da95921460cefb3847402498602060405160ff8152a1386200002c565b62461bcd60e51b815260206004820152602760248201527f496e697469616c697a61626c653a20636f6e747261637420697320696e697469604482015266616c697a696e6760c81b6064820152608490fd5b600080fdfe60c0604052600436101561001257600080fd5b600060e0908035821c918262abc30a146139e857826301dde6ef146139c457826301f1b6841461397c5782630579188f146138d3578263073763b9146138af5782630bb7f608146138905782630c340a24146138675782630c36d897146138485782630d6ac463146138025782630db49656146137e35782630e0a8fd2146137bf5782630f1e5e2b1461377957826313ed7ba51461374f57826315266e361461373357826317937f9b146137005782631867e2f5146136e15782631fb0dda0146136ba5782631fe6a7ad146136805782632069f7531461365c578263235e81cf1461345057826323b98cde1461342957826324ffaba3146133eb57826325bc6c41146133c157826327eab2a11461337b5782632a20d57d1461335c5782632b764fad146133405782632c43bd3b1461331c5782632d88af4a146132c55782632ded50f0146132a6578263333431fd1461328757826333421c38146131a3578263342468621461318a5782633659cfe6146130f15782633915edcb146130c2578263391bf6cf14612f6f5782633bc4ac0a14612f4b5782633cfb09ef14612f055782633dbc50a914612eec5782633f4ba83a14612e715782634017936a14612e2c578263407f0e3414612e0d5782634310adc614612ddb57826344719ee914612da5578263466b893414612d6f57826346e8fcbb1461290d578263471a80e3146128dc578263484ad7cd146128a65782634af3a6fc146128225782634b746001146127d55782634d977e78146127b65782634e1f907a1461278c5782634f0f27ee1461276d5782634f1ef286146126795782635210570c1461265357826352d1902d1461257d57826352e18f8f14612563578263533a4bea1461251057826353b16d17146124c8578263543aeb48146124a45782635860ee631461248557826358f32de9146124345782635c616a731461222a5782635c975abb146122045782635cfbe578146121e55782635ece17ef146121c957826360009e0b1461219f578263647846a51461217557826364ec230a14612151578263662013f414612136578263682743571461210d57826368f015df146120b25782636b5488df146120935782636f30471f146120745782637071346814612050578263735d39601461200a57826373e28af914611fe657826374873ad314611fca5782637554fffd14611fab5782637622805514611f8c5782637750ba0c14611f6857826379f9a91c14611f495782637a193c3114611f2a5782637a4ff1d914611f065782637a727fe814611ee75782637af5758c14611ec35782637b21b27414611ea75782637cba238314611e835782637d8e031414611e465782637f01c71514611e1c5782637f13b99814611de85782637f4a4fe014611dc9578263826fcd5814611da8578263842d574814611d8e5782638456cb5914611cf757826385bf959314611cb1578263883d21cb14611be357826389fd503e14611bca5782638acc201114611bb15782638cfa424114611b925782638e2bdb8614611b685782638f1a383a14611b415782639853c35a14611b1757826398b2086f14611afe5782639abb14c914611adf5782639ad6659d14611aaa5782639bea71a414611a6a5782639cabfc0014611a1d5782639fd0506d146119f05782639fd8ed0e146119d7578263a8e9ac30146119b5578263aaf91eff14611999578263aaf925f61461197f578263ac0c88ab14611966578263ad4e666d1461172b578263aea038dc1461170c578263aeb41e69146116f0578263b4434c32146114d7578263b5e9ea8c146114ad578263b85edd6514611494578263b9fa641314611475578263bb4872de14611452578263bc4e55b214611308578263becaca6b146112e4578263bfe4262114611032578263c00f538d1461100e578263c039cc6914610fce578263c09c30bd14610f85578263c239fca414610f6b578263c84353c914610f47578263cf351c1d14610f01578263d1a0faa014610ee8578263d6af11da14610eae578263d76dc7fd14610e95578263d87aab6f14610e76578263d8c69aec14610cf0578263d8db6f5a14610caa578263db79607214610c6d578263ddb6d19014610c2f578263de8d520a14610bfe578263e23c135c14610bac578263e2c5e99014610b56578263e3867eeb14610b39578263e401294514610b07578263e4c0aaf414610abd578263e6a683e014610a77578263e6b1627c14610a34578263e7c2597814610a10578263e8859a15146109f5578263ea302a97146109db578263ee1f438f146109b1578263f13f405414610987578263f26114aa1461092257508163f2808778146108ff578163f2f9f456146108e6578163f30b5614146108c8578163f375cfba146108aa578163f88b143414610845578163fa6e83bd14610827578163fadda424146107b4578163fd80fa771461079a578163fda70f8b1461077957508063fed0ade4146107605763ffe315391461072257600080fd5b606036600319011261075b576044356001600160a01b038116810361075b5761075360209133602435600435614289565b604051908152f35b600080fd5b6020610753610770366004613bdc565b92919091614289565b34610797578060031936011261079757602061016e54604051908152f35b80fd5b6107536020916107ab366004613c9f565b939290926147e8565b34610797576020366003190112610797576001600160a01b03600435818116810361075b576107ef6107e76001926150c5565b610169613c02565b500154166107fc81615149565b9190911561080f57602082604051908152f35b60249060405190637f6e4db960e01b82526004820152fd5b34610797578060031936011261079757602061016c54604051908152f35b34610797576020366003190112610797576004356001600160a01b038116810361075b5761075361089c60209261088561087d615d20565b9190926150c5565b916108a46108938484614dc4565b51948593614dd8565b959094615c7d565b906158cc565b34610797578060031936011261079757602061017354604051908152f35b34610797578060031936011261079757602061016354604051908152f35b60206107536108f6366004613c72565b929133926145e6565b3461079757602036600319011261079757610918615e77565b60043561016e5580f35b346109835736600319011261079757610939615e77565b6040516379308a5560e11b602082015261097f9061096d8161095f600460248301615be5565b03601f198101835282613c1e565b610226546001600160a01b0316615a72565b5080f35b5080fd5b5034610797578060031936011261079757610162546040516001600160a01b039091168152602090f35b5034610797578060031936011261079757610182546040516001600160a01b039091168152602090f35b6020610753836109ec366004613c9f565b93929092614a6b565b50346107975780600319360112610797576020610753615c46565b5034610797578060031936011261079757602060ff61017d54166040519015158152f35b503461079757602036600319011261079757600435906101be908154831015610797576040610a638484613c02565b506001815491015482519182526020820152f35b5034610797576020366003190112610797576004356001600160a01b0381169081900361075b57610aa6615e77565b61022680546001600160a01b031916909117905580f35b5034610797576020366003190112610797576004356001600160a01b0381169081900361098357610aec615e77565b6bffffffffffffffffffffffff60a01b609754161760975580f35b50606036600319011261075b576044356001600160a01b038116810361075b57602091610753916024356004356144f3565b602061075383610b4a366004613cd1565b94939093929192614923565b5034610797576060366003190112610797576001600160a01b03600435818116810361075b57602435908282168203610ba857610b9c610ba59361025b54163314614bf5565b60443591614d66565b80f35b8380fd5b5034610797578060031936011261079757610bc63061420e565b61016390610be3610bd9835480936141eb565b61025a54906141eb565b80610bec578380f35b610bf591614378565b90558180808380f35b50346107975780600319360112610797576020610753610c24610c1f6151af565b614dd8565b9050610163546141eb565b5034610797576020366003190112610797576004356001600160a01b0381169081900361075b57816040916020935261017783522054604051908152f35b346109835736600319011261079757610c84615e77565b604051636dbcb03960e11b602082015261097f9061096d8161095f600460248301615be5565b5034610797576020366003190112610797576004356001600160a01b0381169081900361075b57610cd9615e77565b61018280546001600160a01b031916909117905580f35b346109835736600319011261079757610d07614bce565b5061025b546001600160a01b0390610d229082163314614bf5565b610e0f610d30366004614cf3565b91610d39614bce565b50610d42614da2565b610d4a615f05565b610d8c610d7d60405163178aad2b60e11b6020820152610d728161095f308960248401615a94565b836102265416615a72565b60208082518301019101615a17565b928685608083989495990151168660c08160a0850151169301511690610db0615ab7565b865115610e525750610e0a90610dff670de0b6b3a7640000610dd761016d548a5190614ee9565b04610163610de6828254614378565b9055610df98a6101785416918a516141eb565b90615b0e565b604087015190615b0e565b615b0e565b600161012f556004359280841680940361075b57608435908116810361075b57610e4e93610e4291876044350391614d66565b60405194859485613b9c565b0390f35b610e0a91610e6b89610178541660208a01519084615b2f565b606088015191615b2f565b5034610797578060031936011261079757602061018554604051908152f35b6020610753610ea5366004613d11565b9392909261476f565b50346107975780600319360112610797576020610753610ece60016151e9565b610ee2610edb8284614f1c565b9183614e66565b91615230565b5034610797578060031936011261079757610ba5615de3565b5034610797576020366003190112610797576004356001600160a01b0381169081900361075b57610f30615e77565b61016180546001600160a01b031916909117905580f35b503461079757602036600319011261079757610f61615e77565b60043561017e5580f35b602061075383610f7c366004613c72565b9291909161476f565b5060a0366003190112610797576001600160a01b039060043590828216820361075b57602435928316830361075b57602092610753923391608435916064359160443591614923565b50346107975780600319360112610797576020610753611001611008610ff5610c1f6151af565b610163939193546141eb565b91826141eb565b90615f26565b503461079757602036600319011261079757611028615e77565b60043561016f5580f35b50346107975760a03660031901126107975761104c614bce565b5061106360018060a01b0361025b54163314614bf5565b61106e366004614c2d565b611076614bce565b5061107f614da2565b611087615f05565b61108f615de3565b6110a261109a615d20565b8192916153ed565b90916110b18284865193615707565b8181106112c6575050670de0b6b3a7640000916110d36110d992855192615430565b90614ee9565b049081156112b457604081018051608083015161016f5461111a9593949261110f9285916001600160a01b039182169116615464565b9391829691966141eb565b93602083015180861061129657508683516101666111398282546141eb565b90556111496101639485546141eb565b8455610165546001600160a01b031690813b1561129257604051632770a7eb60e21b815230600482015260248101919091529882918a916044918391905af197881561128557869798969596611266575b5050516060830151608090930151610e4e95946112259490936001600160a01b03918216939092821691166111cd615ab7565b865115611237575061121a610e0a92670de0b6b3a76400006111f461016d548a5190614ee9565b0490611201828254614378565b9055610df960018060a01b0361017854169189516141eb565b604086015190615b0e565b600161012f5560405193849384613b35565b610178546020880151610e0a945091929161125b916001600160a01b031684615b2f565b606087015191615b2f565b8180939495965061127691613c1e565b6107975790818694939261119a565b50604051903d90823e3d90fd5b8280fd5b60449086604051916354cde31360e01b835260048301526024820152fd5b60405163f3e39b5d60e01b8152600490fd5b604492506040519163a5db715d60e01b835260048301526024820152fd5b5034610797576020366003190112610797576112fe615e77565b60043561016b5580f35b34610983573660031901126107975761131f614bce565b5061025b546001600160a01b039061133a9082163314614bf5565b611345366004614cf3565b61134d614bce565b50611356614da2565b61135e615f05565b610e4e61141c611397610d7d60405163ab6dd71d60e01b602082015261138c8161095f308960248401615a94565b866102265416615a72565b9391969092956060810151916113ad88846141eb565b926113bc61025a9182546141eb565b90558060c081608085015116930151166113d4615ab7565b86511561142e57610dff610e0a92610df9670de0b6b3a76400006113fd61016d548c5190614ee9565b049161016361140d848254614378565b90556101785416918a516141eb565b600161012f5560405194859485613b9c565b611446610e0a92610178541660208901519085615b2f565b60608701519083615b2f565b5034610797578060031936011261079757602060ff60ca54166040519015158152f35b5034610797578060031936011261079757602061018b54604051908152f35b6020610753836114a5366004613b73565b913393614aec565b5034610797578060031936011261079757610183546040516001600160a01b039091168152602090f35b50346107975760c0366003190112610797576114f1614bce565b5061025b546001600160a01b03919061150d9083163314614bf5565b611518366004614c8a565b91611521614bce565b5061152a614da2565b611532615f05565b61153a615de3565b611590611545615d20565b949092611554818351166150c5565b936115746115628689614dc4565b519761156e898861586d565b826153ed565b60208596929601958987519461158a828b615c7d565b906158c2565b8181106116d25750506115a76115e1968451615f26565b91606081019180835116916115d660a08201938684865116858551168c5261017660205260408c205492615464565b9791879b919b614378565b9860408301908151808c116116b457508a156112b457610e4e99888695866080819761161361161e976112259f61595d565b5192015116926157a3565b519461162a8a876141eb565b9561163961025a9182546141eb565b90555116925116611648615ab7565b8551156116905761121a610e0a92610df9670de0b6b3a764000061167161016d548b5190614ee9565b0491610163611681848254614378565b905561017854169189516141eb565b6116a8610e0a92610178541660208801519085615b2f565b60608601519083615b2f565b6044908c60405191630b63f1a760e01b835260048301526024820152fd5b604492506040519163c39b739f60e01b835260048301526024820152fd5b6020610753611700366004613c9f565b939291909133936147e8565b5034610797578060031936011261079757602061016f54604051908152f35b50346107975760c036600319011261079757611745614bce565b5061180860018060a01b036117608161025b54163314614bf5565b61176b366004614c8a565b90611774614bce565b5061177d614da2565b611785615f05565b61178d6151af565b9161179a828251166150c5565b916117bd6117a88486614dc4565b51946117b4868661586d565b61017b546153ed565b50506117ce60208301948551615f26565b91606081019282845116936117fd60a08401958386885116878751168d5261017760205260408d205492615464565b9791849a919a6141eb565b9783156112b4576040850151808a10611948575090856118628c9361182e60018d61595d565b519261183c81610169613c02565b506118488582546141eb565b90556118586101639788546141eb565b8755610167613ab0565b90549060031b1c1690813b1561129257604051632770a7eb60e21b815230600482015260248101919091529a82918c916044918391905af1998a156112855788999a989798611925575b505091839182806080610e4e9a99976112259997511694015116945116916118d2615ab7565b87511561190a575061121a90610df9610e0a94670de0b6b3a76400006118fd61016d548c5190614ee9565b0492611681848254614378565b91905061125b610e0a93610178541660208901519084615b2f565b81809394959697985061193791613c1e565b6107975790818896959493926118ac565b6044908a604051916354cde31360e01b835260048301526024820152fd5b602061075383611977366004613b73565b913393614a6b565b602061075383611990366004613c72565b929190916145e6565b60206107536119a9366004613c9f565b93929190913393614aec565b503461079757806003193601126107975760206101bf54431015604051908152f35b60206107536119e7366004613d11565b939290926145e6565b503461079757806003193601126107975760ca5460405160109190911c6001600160a01b03168152602090f35b5034610797576020366003190112610797576004356001600160a01b0381169081900361075b57604082819281526101686020522060ff6001825492015416825191825215156020820152f35b5034610797576040366003190112610797576001600160a01b03600435818116810361075b57602435918216820361075b57602091610753913390615b52565b50346107975780600319360112610797576020611ad1611acb610c1f6151af565b90614f8d565b61017c541015604051908152f35b50604036600319011261075b57610753602091336024356004356144f3565b6020610753611b0e366004613c72565b9291339261476f565b5034610797578060031936011261079757610178546040516001600160a01b039091168152602090f35b50346107975780600319360112610797576020611b5f610c1f6151af565b50604051908152f35b5034610797578060031936011261079757610188546040516001600160a01b039091168152602090f35b5034610797578060031936011261079757602061017c54604051908152f35b6020610753611bc1366004613c72565b929133926146a0565b6020610753611bda366004613d11565b939290926146a0565b50346107975760c036600319011261079757611bfd614bce565b5061025b546001600160a01b0390611c189082163314614bf5565b611c23366004614c8a565b611c2b614bce565b50611c34614da2565b611c3c615f05565b610e4e61141c611c74610d7d604051637225da8960e11b6020820152611c65602482018761465b565b60c4815261138c60e482613c1e565b939196909295604081015191611c8a88846141eb565b92611c9961025a9182546141eb565b90558060a081606085015116930151166113d4615ab7565b5034610797576020366003190112610797576004356001600160a01b0381169081900361075b57611ce0615e77565b61018380546001600160a01b031916909117905580f35b5034610797578060031936011261079757611d10615f05565b60ca54601081901c6001600160a01b03163303611d7c5760ff811615611d6a576101009061ff0019161760ca557f62e78cea01bee320cd4e420270b5ea74000d11b0c9f74754ebdbfc544b05a2586020604051338152a180f35b60405163866099c360e01b8152600490fd5b604051631d77d47760e21b8152600490fd5b602061075383611d9f366004613c9f565b93929092614aec565b50346107975780600319360112610797576020610753611acb610c1f6151af565b5034610797578060031936011261079757602061018a54604051908152f35b50346107975780600319360112610797576020610753611e0860016151e9565b610ee2611e158284614e66565b9183614f1c565b50346107975780600319360112610797576101f3546040516001600160a01b039091168152602090f35b5034610797576020366003190112610797576004359061017a908154831015610797576020611e758484613ab0565b90546040519160031b1c8152f35b503461079757602036600319011261079757611e9d615e77565b60043561017b5580f35b6020610753611eb7366004613cd1565b94939290923394614923565b503461079757602036600319011261079757611edd615e77565b6004356101725580f35b503461079757806003193601126107975760206101c054604051908152f35b503461079757602036600319011261079757611f20615e77565b6004356101735580f35b5034610797578060031936011261079757602061016654604051908152f35b5034610797578060031936011261079757602061017454604051908152f35b503461079757602036600319011261079757611f82615e77565b60043561016d5580f35b5034610797578060031936011261079757602061018654604051908152f35b5034610797578060031936011261079757602061016b54604051908152f35b6020610753611fda366004613c9f565b93929190913393614a6b565b503461079757602036600319011261079757612000615e77565b6004356101845580f35b5034610797576020366003190112610797576004356001600160a01b0381169081900361075b57612039615e77565b61018880546001600160a01b031916909117905580f35b50346107975760203660031901126107975761206a615e77565b6004356101705580f35b5034610797578060031936011261079757602061018454604051908152f35b5034610797578060031936011261079757602061017b54604051908152f35b366003190112610797576004356001600160a01b03808216820361075b5760243590808216820361075b5760a435818116810361075b5760c435918216820361075b5760209361075393608435916064359160443591614923565b5034610797578060031936011261079757612126615e77565b600160ff1960ca54161760ca5580f35b50346107975780600319360112610797576020611b5f615d20565b50346107975760203660031901126107975761216b615e77565b6004356101895580f35b5034610797578060031936011261079757610161546040516001600160a01b039091168152602090f35b5034610797578060031936011261079757610165546040516001600160a01b039091168152602090f35b60206107536121d9366004613af2565b949390939291926147e8565b5034610797578060031936011261079757602061025a54604051908152f35b5034610797578060031936011261079757602060ff60ca5460081c166040519015158152f35b5034610797578060031936011261079757612243615f05565b61017f805443106124225761017e54430190557fd3c59bda47e141a8ec5a33d241b7f71b86e30d359f83a9227d912858b60404fc8180a1612282615ab7565b806101695461229081614fc3565b90835b81811061235757505081612310575b604051916040830190835260209060408285015282518091528160608501930191855b8281106122fc57867fae5116a8119d08673a0f1dfa7546b95da4bd54bb17feda7c61130ac7859152f687870388a1600161012f5580f35b8351855293810193928101926001016122c5565b90612328670de0b6b3a76400009161016b5490614ee9565b04906101636123388382546141eb565b9055610178546123529083906001600160a01b0316615b0e565b6122a2565b61236081615100565b61236a818361586d565b85610180916123798484613ab0565b90549060031b1c90828213612395575b50505050600101612293565b846123d983600197969a6123c26123c86123f6976123df97670de0b6b3a764000093849161016c54614ee9565b04614ee9565b046123d3858d614dc4565b52614378565b98613ab0565b819391549060031b91821b91600019901b19161790565b90556124196124058286614dc4565b5187848060a01b03610179541691846157a3565b90858780612389565b60405163101b685960e01b8152600490fd5b5034610797576040366003190112610797576004356001600160a01b03808216820361075b57610ba591602435916124728161025b54163314614bf5565b61025a8381540390556102595416614d66565b5034610797578060031936011261079757602061018754604051908152f35b5034610797576020366003190112610797576124be615e77565b6004356101755580f35b5034610797576040366003190112610797576004356001600160a01b03808216820361075b57610ba5916125028261025b54163314614bf5565b602435916101655416614d66565b5034610797576020366003190112610797576004356001600160a01b038116810361075b57610ba590612541615e77565b6101f380546001600160a01b0319166001600160a01b03909216919091179055565b602061075383612574366004613c72565b929190916146a0565b50346107975780600319360112610797577f00000000000000000000000000000000000000000000000000000000000000006001600160a01b031630036125e85760206040517f360894a13ba1a3210667c828492db98dca3e2076cc3735a920a3ca505d382bbc8152f35b60405162461bcd60e51b815260206004820152603860248201527f555550535570677261646561626c653a206d757374206e6f742062652063616c60448201527f6c6564207468726f7567682064656c656761746563616c6c00000000000000006064820152608490fd5b503461079757806003193601126107975761266c615e77565b60ff1960ca541660ca5580f35b506040366003190112610797576001600160a01b03600435818116810361075b5782916024359167ffffffffffffffff831161276857366023840112156127685782600401356126c881613c56565b926126d66040519485613c1e565b818452366024838701011161276457610ba595602083612757946024600199018389013786010152807f0000000000000000000000000000000000000000000000000000000000000000169061272e82301415613d43565b7f360894a13ba1a3210667c828492db98dca3e2076cc3735a920a3ca505d382bbc541614613da4565b61275f615e77565b613e05565b8580fd5b505050fd5b5034610797578060031936011261079757602061016d54604051908152f35b5034610797578060031936011261079757610179546040516001600160a01b039091168152602090f35b5034610797578060031936011261079757602061017e54604051908152f35b503461079757602036600319011261079757600435906101699081548310156107975760406128048484613c02565b50805460019091015482519182526001600160a01b03166020820152f35b346109835736600319011261079757612839614bce565b5061025b546001600160a01b03906128549082163314614bf5565b61285f366004614cf3565b612867614bce565b50612870614da2565b612878615f05565b610e4e61141c611397610d7d60405163474c3add60e11b602082015261138c8161095f308960248401615a94565b50606036600319011261075b576004356001600160a01b038116810361075b5760209161075391339060443590602435906145e6565b606036600319011261075b576044356001600160a01b038116810361075b57610753602091336024356004356144f3565b50346107975761040036600319011261079757805460ff8160081c161590818092612d62575b8015612d4b575b15612cef5760ff198116600117835581612cde575b506001600160a01b0360808190526103c4359081169081900361075b576bffffffffffffffffffffffff60a01b908160a0526102599182541617905560ff825460081c1661299c8161538d565b610364356080519081811680910361075b5760a0519061022691825416179055610324359080821680920361075b5761034435908116810361075b576001916129e48461538d565b6129ed8461538d565b6129f68461538d565b6129ff8461538d565b60a0516097541617609755612a138361538d565b60ca5490620100008360b01b039060101b169061ff018360b01b031916171760ca55612a3e8161538d565b60a435670de0b6b3a76400008110612ccc5760e43590612a5d82615f4a565b61010435612a6a81615f4a565b6101243590612a7882615f4a565b6101443591612a8683615f4a565b6101643592612a9484615f4a565b610184938435612aa381615f4a565b6101a43590612ab182615f4a565b6101c43592612abf84615f4a565b6101e43594612acd86615f4a565b61020435966102243598612ae9612ae48b8b614378565b615f4a565b6004359c8d9c6080519e8f16809e0361075b578e60a0519e8f906101619182541617905560243590811680910361075b578f908f906101629182541617905560443590811680910361075b578f908f906101659182541617905560643590811680910361075b578f908f906101789182541617905560843590811680910361075b578e906101799182541617905561017b5560c43561017c5561016d5561016e5561016f5561017055610171556101725561017355610174556101755561016b5561016c5561024435918261017e556102643584811680910361075b57610188908282541617905561028435610189556102a435938461018a556102c43581811680910361075b5761018290838254161790556102e43590811680910361075b57610183918254161790556103043590554361018755430161017f55430161018b5561017d61ffff19815416905561038435612c448261538d565b8015612ccc57806101c05543016101bf556103a4356080518116810361075b57612541612c709261538d565b6103e435608051811680910361075b5760a0519061025b91825416179055612c955780f35b61ff001981541681557f7f26b83ff96e1f2b6a682f133852f6798a09c465da95921460cefb3847402498602060405160018152a180f35b604051632a9ffab760e21b8152600490fd5b61ffff19166101011782558261294f565b60405162461bcd60e51b815260206004820152602e60248201527f496e697469616c697a61626c653a20636f6e747261637420697320616c72656160448201526d191e481a5b9a5d1a585b1a5e995960921b6064820152608490fd5b50303b15801561293a5750600160ff82161461293a565b50600160ff821610612933565b50606036600319011261075b576004356001600160a01b038116810361075b5760209161075391339060443590602435906146a0565b50606036600319011261075b576004356001600160a01b038116810361075b57602091610753913390604435906024359061476f565b50606036600319011261075b576044356001600160a01b038116810361075b5760209161075391602435600435614289565b5034610797578060031936011261079757602061017054604051908152f35b50346107975780600319360112610797576020610753612e5b612e6b612e65612e53615d20565b939093614dd8565b818193929561576c565b92615430565b90615751565b503461079757806003193601126107975760ca5460ff8160081c1615612eda57601081901c6001600160a01b03163303611d7c5761ff00191660ca557f5db9ee0a495bf2e6ff9c91a7834c1ba4fdd244a5e8aa4e537bd38aeae4b073aa6020604051338152a180f35b604051637c7fd07960e01b8152600490fd5b6020610753612efc366004613bdc565b929190916144f3565b5034610797576020366003190112610797576004356001600160a01b0381169081900361075b57612f34615e77565b61025b80546001600160a01b031916909117905580f35b503461079757602036600319011261079757612f65615e77565b6004356101c05580f35b90346107975761010090816003193601126107975750612f8d614bce565b5061025b546001600160a01b039290612fa99084163314614bf5565b612fb66040519283613c1e565b600435838116810361075b578252602435838116810361075b576020830152604435604083015260643560608301526080820191608435835260a43592848416840361075b5760a0820193845260c435858116810361075b5760c083015260e43592858416840361075b578594610e4e94613091610d7d8661141c958a9801938452613040614bce565b50613049614da2565b613051615f05565b604051631740b6e360e11b602082015290613070906024830190614a0f565b6101243081830152815261308661014482613c1e565b876102265416615a72565b979299919a909651946130a48b876141eb565b956130b361025a9182546141eb565b905551169251166113d4615ab7565b5034610797576020366003190112610797576004359061016a908154831015610797576020611e758484613ab0565b5034610797576020366003190112610797576004356001600160a01b03808216820361075b57610ba5916131508285937f0000000000000000000000000000000000000000000000000000000000000000169061272e82301415613d43565b613158615e77565b61316182613c56565b9061316f6040519283613c1e565b828252601f1961317e84613c56565b01366020840137613e05565b60206107538361319b366004613b73565b9133936147e8565b50346107975780600319360112610797576131bc615f05565b61017d805460ff811680613279575b8061325f575b6131d9578280f35b61ff0019166101001790556040517f8b77276c97a5709f0d6db52329848a254eb760ce8be80d281799f633bdb69e838280a16101655482906001600160a01b0316803b156109835782600481848094638456cb5960e01b83525af180156112855761324f575b5050613249614ff5565b81808280f35b61325891613c1e565b818161323f565b5061326e611acb610c1f6151af565b61017c5410156131d1565b5060ff8160081c16156131cb565b5034610797578060031936011261079757602061017154604051908152f35b5034610797578060031936011261079757602061017554604051908152f35b5034610797576020366003190112610797576004356001600160a01b0381168103610983576132f2615e77565b60ca805462010000600160b01b03191660109290921b62010000600160b01b031691909117905580f35b503461079757602036600319011261079757613336615e77565b60043561017c5580f35b6020610753613350366004613af2565b94939093929192614aec565b5034610797578060031936011261079757602061017254604051908152f35b5034610797576020366003190112610797576004356001600160a01b03811690819003610983576133aa615e77565b61017980546001600160a01b031916909117905580f35b5034610797578060031936011261079757610259546040516001600160a01b039091168152602090f35b5034610797576020366003190112610797576004356001600160a01b0381169081900361098357816040916020935261017683522054604051908152f35b5034610797578060031936011261079757602060ff61017d5460081c166040519015158152f35b50346107975760a0366003190112610797576135009061346e614bce565b5061025b546001600160a01b03906134899082163314614bf5565b613494366004614c2d565b61349c614bce565b506134a5614da2565b6134ad615f05565b6134b86117b46151af565b92906134d383516110d3670de0b6b3a7640000968794615430565b04604083019282845116926134f56080830194848387511661016e5492615464565b9791859a919a614378565b97602093848101918251808c116116b457508a156112b4578582866060613582955192015116610166613534838254614378565b90556135446101639a8b54614378565b8a55610165546040516340c10f1960e01b81526001600160a01b03909216600483015260248201929092529384918816908290859082906044820190565b03925af180156112855761360c575b5050916112259593918180610e4e9a99979551976135af8d8a6141eb565b986135be61025a9182546141eb565b90555116955116926135ce615ab7565b8851156135f1575092610df961121a92610e0a956118fd61016d548c5190614ee9565b9050610e0a93506116a8916101785416908801519085615b2f565b8582813d8311613655575b6136218183613c1e565b810103126107975750918380610e4e9a999795936136436112259a98966143f4565b50935094969899508193959750613591565b503d613617565b503461079757602036600319011261079757613676615e77565b6004356101745580f35b503461079757602036600319011261079757600435801515809103610983576136a7615e77565b61017d9060ff8019835416911617905580f35b503461079757806003193601126107975760206107536136db610c1f6151af565b90615430565b5034610797578060031936011261079757602061017f54604051908152f35b503461079757602036600319011261079757600435906001600160a01b0382168203610797576020610753338085615b52565b6020610753613743366004613af2565b94939093929192614a6b565b503461079757806003193601126107975761025b546040516001600160a01b039091168152602090f35b5034610797576020366003190112610797576004356001600160a01b03811690819003610983576137a8615e77565b61016280546001600160a01b031916909117905580f35b5034610797576020366003190112610797576137d9615e77565b6004356101715580f35b5034610797578060031936011261079757602061018954604051908152f35b5034610797576020366003190112610797576004356001600160a01b0381169081900361098357613831615e77565b61017880546001600160a01b031916909117905580f35b503461079757806003193601126107975760206101bf54604051908152f35b50346107975780600319360112610797576097546040516001600160a01b039091168152602090f35b5060403660031901126107975761075360209133602435600435614289565b5034610797576020366003190112610797576138c9615e77565b60043561018a5580f35b50346107975780600319360112610797576138ec615f05565b6138f4615ab7565b61018b8054431061396a5761018a5443019055613961670de0b6b3a7640000613924610163546101895490614ee9565b047f0e37fda283839477a1b77e29acf8336c0e13a5daa967913df0fe5ad258c0822f6020604051838152a1610188546001600160a01b0316615b0e565b600161012f5580f35b60405163acce20e560e01b8152600490fd5b503461079757602036600319011261079757600435906101679081548310156107975760206139ab8484613ab0565b905460405160039290921b1c6001600160a01b03168152f35b5034610797576020366003190112610797576139de615e77565b60043561016c5580f35b50346107975760c036600319011261079757613a02615e77565b61016380548015801590613aa4575b8015613a8e575b613a7c57613a299060043590614378565b90610166613a3a6024358254614378565b905555613a4981610169613c02565b50613a576044358254614378565b9055613a65816101be613c02565b5060643590556084356101bf5560a43561018b5580f35b604051636ed93c2760e01b8152600490fd5b50613a9b83610169613c02565b50541515613a18565b50610166541515613a11565b8054821015613ac85760005260206000200190600090565b634e487b7160e01b600052603260045260246000fd5b35906001600160a01b038216820361075b57565b91908260c091031261075b57613b0782613ade565b91602081013591604082013591606081013591613b3260a0613b2b60808501613ade565b9301613ade565b90565b604090613b71939594929560c0820196825260208201520190606080918051845260208101516020850152604081015160408501520151910152565b565b919082608091031261075b57613b8882613ade565b916020810135916060604083013592013590565b613b719360609296959360e08301978352602083015260408201520190606080918051845260208101516020850152604081015160408501520151910152565b919082608091031261075b57813591602081013591613b326060613b2b60408501613ade565b8054821015613ac85760005260206000209060011b0190600090565b90601f8019910116810190811067ffffffffffffffff821117613c4057604052565b634e487b7160e01b600052604160045260246000fd5b67ffffffffffffffff8111613c4057601f01601f191660200190565b919082608091031261075b57613c8782613ade565b91602081013591613b32606060408401359301613ade565b908160a091031261075b57613cb381613ade565b91602082013591604081013591613b32608060608401359301613ade565b91908260c091031261075b57613ce682613ade565b91613cf360208201613ade565b91604082013591606081013591613b3260a060808401359301613ade565b908160a091031261075b57613d2581613ade565b91602082013591604081013591613b326080613b2b60608501613ade565b15613d4a57565b60405162461bcd60e51b815260206004820152602c60248201527f46756e6374696f6e206d7573742062652063616c6c6564207468726f7567682060448201526b19195b1959d85d1958d85b1b60a21b6064820152608490fd5b15613dab57565b60405162461bcd60e51b815260206004820152602c60248201527f46756e6374696f6e206d7573742062652063616c6c6564207468726f7567682060448201526b6163746976652070726f787960a01b6064820152608490fd5b9060ff7f4910fdfa16fed3260ed0e7147f7cc6da11a60208b5b9406d12a635614ffd91435416600014613e3d5750613b719150613ff1565b6040516352d1902d60e01b8152602093919291906001600160a01b038316908581600481855afa60009181613fc2575b50613ece5760405162461bcd60e51b815260048101879052602e60248201527f45524331393637557067726164653a206e657720696d706c656d656e7461746960448201526d6f6e206973206e6f74205555505360901b6064820152608490fd5b9394937fc9f76b5ec45e5cdef99837d7b6d2467235c1df8933c8ca56df5c35afa2c7d44401613f6b57613f0083613ff1565b7fbc7cd75a20ee27fd9adebab32041f755214dbc6bffa90cc0225b39da2e5c2d3b600080a283511590811591613f63575b50613f3b57505050565b600080613f6094613f4a614093565b9481519101845af4613f5a6140e7565b91614117565b50565b905038613f31565b60405162461bcd60e51b815260048101859052602960248201527f45524331393637557067726164653a20756e737570706f727465642070726f786044820152681a58589b195555525160ba1b6064820152608490fd5b90918782813d8311613fea575b613fd98183613c1e565b810103126107975750519038613e6d565b503d613fcf565b803b15614038577f360894a13ba1a3210667c828492db98dca3e2076cc3735a920a3ca505d382bbc80546001600160a01b0319166001600160a01b03909216919091179055565b60405162461bcd60e51b815260206004820152602d60248201527f455243313936373a206e657720696d706c656d656e746174696f6e206973206e60448201526c1bdd08184818dbdb9d1c9858dd609a1b6064820152608490fd5b61409d6027613c56565b906140ab6040519283613c1e565b60278252660819985a5b195960ca1b6040837f416464726573733a206c6f772d6c6576656c2064656c65676174652063616c6c60208201520152565b3d15614112573d906140f882613c56565b916141066040519384613c1e565b82523d6000602084013e565b606090565b91929015614179575081511561412b575090565b3b156141345790565b60405162461bcd60e51b815260206004820152601d60248201527f416464726573733a2063616c6c20746f206e6f6e2d636f6e74726163740000006044820152606490fd5b82519091501561418c5750805190602001fd5b6040519062461bcd60e51b82528160208060048301528251908160248401526000935b8285106141d2575050604492506000838284010152601f80199101168101030190fd5b84810182015186860160440152938101938593506141af565b919082039182116141f857565b634e487b7160e01b600052601160045260246000fd5b610259546040516370a0823160e01b81526001600160a01b0392831660048201529160209183916024918391165afa90811561427d5760009161424f575090565b906020823d8211614275575b8161426860209383613c1e565b8101031261079757505190565b3d915061425b565b6040513d6000823e3d90fd5b9260a4614326916020939461429c614da2565b6142a4615f05565b604051966142b360a089613c1e565b87528487018690523360408089019182526001600160a01b0392831660608a0190815293831660808a0190815261025b54915163e97a4d6360e01b81528a5160048201526020909a015160248b01529151831660448a015292518216606489015251811660848801528693849290911690565b34905af191821561427d57600092614343575b50613b3290614385565b90916020823d8211614370575b8161435d60209383613c1e565b8101031261079757505190613b32614339565b3d9150614350565b919082018092116141f857565b613b719061025a614397828254614378565b905561025954309033906001600160a01b03165b6040516323b872dd60e01b60208201526001600160a01b039283166024820152929091166044830152606480830193909352918152613b71916143ef608483613c1e565b614401565b5190811515820361075b57565b602091614464916001600160a01b031660008061441d86613c56565b9361442b6040519586613c1e565b8685527f5361666545524332303a206c6f772d6c6576656c2063616c6c206661696c656487860152868151910182855af1613f5a6140e7565b80518281159182156144d4575b505090501561447d5750565b6084906040519062461bcd60e51b82526004820152602a60248201527f5361666545524332303a204552433230206f7065726174696f6e20646964206e6044820152691bdd081cdd58d8d9595960b21b6064820152fd5b838092935001031261075b57816144eb91016143f4565b808238614471565b919290926144ff614da2565b614507615f05565b6040519361451660a086613c1e565b83855260208086019182523360408088019182526001600160a01b03948516606089019081529585166080890190815261025b54915163fa91a9a560e01b8152985160048a0152935160248901529051841660448801529351831660648701529051821660848601529091849060a4908290851634905af192831561427d576000936145b1575b5090613b32916101655416309033906143ab565b90926020823d82116145de575b816145cb60209383613c1e565b8101031261079757505191613b3261459d565b3d91506145be565b93602092936143269260c4926145fa614da2565b614602615f05565b6040519761461160c08a613c1e565b60018060a01b03938493848093168b52888b01528860408b01523360608b01521660808901521660a087015261025b5416946040519586938492637e81a82160e01b845260048401905b60a09081600180821b03918281511685526020810151602086015260408101516040860152826060820151166060860152826080820151166080860152015116910152565b60c460209294614718926146b2614da2565b6146ba615f05565b604051976146c960c08a613c1e565b60018060a01b0380938180941698898c528a898d015260408c01523360608c01521660808a01521660a088015261025b5416956040519687938492636426c5db60e11b8452600484019061465b565b34905af192831561427d5760009361473a575b5090613b3291309033906143ab565b90926020823d8211614767575b8161475460209383613c1e565b8101031261079757505191613b3261472b565b3d9150614747565b93602092936143269260c492614783614da2565b61478b615f05565b6040519761479a60c08a613c1e565b60018060a01b03938493848093168b52888b01528860408b01523360608b01521660808901521660a087015261025b54169460405195869384926323ec24b560e11b8452600484019061465b565b939091936147f4614da2565b6147fc615f05565b6040519561480b60e088613c1e565b60018060a01b0380938180941696878a528660208b01528860408b015260608a01523360808a01521660a08801521660c0860152602061486960e48361025b541697604051988993849263e4e1b72960e01b845260048401906148d3565b34905af194851561427d5760009561489e575b50613b32939291614895916101655416309033906143ab565b309033906143ab565b90946020823d82116148cb575b816148b860209383613c1e565b8101031261079757505193613b3261487c565b3d91506148ab565b60c0908160018060a01b03918281511685526020810151602086015260408101516040860152606081015160608601528260808201511660808601528260a08201511660a0860152015116910152565b60406149af92946020949697986101049361493c614da2565b614944615f05565b83519a8b9361495561010086613c1e565b8a60018060a01b0396879687808097169d8e8352168c820152015260608d01528a60808d01523360a08d01521660c08b01521660e089015261025b54169660405197889384926334975a4160e01b84526004840190614a0f565b34905af193841561427d576000946149da575b50613b3292916149d591309033906143ab565b614385565b90936020823d8211614a07575b816149f460209383613c1e565b8101031261079757505192613b326149c2565b3d91506149e7565b60e0908160018060a01b03918281511685528260208201511660208601526040810151604086015260608101516060860152608081015160808601528260a08201511660a08601528260c08201511660c0860152015116910152565b60e482602080949697986149af94614a81614da2565b614a89615f05565b6040519a8b98614a9a60e08b613c1e565b60018060a01b03958695868095169b8c8152015260408d01528a60608d01523360808d01521660a08b01521660c089015261025b54169660405197889384926263744760e11b845260048401906148d3565b949391909293614afa614da2565b614b02615f05565b60405195614b1160e088613c1e565b60018060a01b039384938480931689528660208a015260408901528660608901523360808901521660a08701521660c08501526020614b6e60e48361025b5416966040519788938492636b59c22f60e01b845260048401906148d3565b34905af193841561427d57600094614b99575b50613b3292916149d5916101655416309033906143ab565b90936020823d8211614bc6575b81614bb360209383613c1e565b8101031261079757505192613b32614b81565b3d9150614ba6565b60405190614bdd608083613c1e565b60006060838281528260208201528260408201520152565b15614bfc57565b60405162461bcd60e51b81526020600482015260096024820152684e4f5420717565756560b81b6044820152606490fd5b91908260a091031261075b57604051614c4760a082613c1e565b6080614c858183958035855260208101356020860152614c6960408201613ade565b6040860152614c7a60608201613ade565b606086015201613ade565b910152565b91908260c091031261075b57604051614ca460c082613c1e565b60a0614c85818395614cb581613ade565b85526020810135602086015260408101356040860152614cd760608201613ade565b6060860152614ce860808201613ade565b608086015201613ade565b91908260e091031261075b57604051614d0d60e082613c1e565b60c0614c85818395614d1e81613ade565b8552602081013560208601526040810135604086015260608101356060860152614d4a60808201613ade565b6080860152614d5b60a08201613ade565b60a086015201613ade565b60405163a9059cbb60e01b60208201526001600160a01b03929092166024830152604480830193909352918152613b71916143ef606483613c1e565b60ff61017d5460081c16614db257565b604051631ca61d7760e01b8152600490fd5b8051821015613ac85760209160051b010190565b906000916000906101698054906000925b828410614e0f5750505050614e0b670de0b6b3a76400009161016b5490614ee9565b0490565b9091929395614e5c614e4b614e56600193614e50614e2d8a88614dc4565b51614e38818c614e82565b9590614e448d8c613c02565b5054614378565b615f26565b90614378565b98614378565b9401929190614de9565b919091600083820193841291129080158216911516176141f857565b9190600090614eb081600095614ea6614e9d82610180613ab0565b93905492614f35565b9160031b1c614e66565b60008113614ebf575b50509190565b614ee19194506123c292508094670de0b6b3a764000093849161016c54614ee9565b043880614eb9565b818102929181159184041417156141f857565b8115614f06570490565b634e487b7160e01b600052601260045260246000fd5b818103929160001380158285131691841216176141f857565b614f4181610169613c02565b505490670de0b6b3a7640000918281029281840414901517156141f857613b3292614f81614f74614f8793610181613ab0565b90549060031b1c84614efc565b92614efc565b90614f1c565b8015614fa357614e4b613b3292610163546141eb565b505060001990565b67ffffffffffffffff8111613c405760051b60200190565b90614fcd82614fab565b614fda6040519182613c1e565b8281528092614feb601f1991614fab565b0190602036910137565b610163548015613f60576101699081549160009061501284614fc3565b9082905b85821061508157505060005b848110615030575050505050565b61504d84615048856150428587614dc4565b51614ee9565b614efc565b9061016a91825468010000000000000000811015613c40576123df816001958661507994018155613ab0565b905501615022565b90926150bd60019161509286615100565b61509c8787614dc4565b52614e506150aa8786613c02565b50546150b68888614dc4565b5190615f26565b930190615016565b6001600160a01b0316600090815261016860205260409020600181015460ff16156150ee575490565b60405163e6c4247b60e01b8152600490fd5b61510c90610169613c02565b50600101546001600160a01b031661512381615149565b9190911561080f575090565b919082604091031261075b57613b326020835193016143f4565b604080516359e02dd760e01b81529291839060049082906001600160a01b03165afa91821561427d57600090819361518057509190565b90506151a491925060403d81116151a8575b61519c8183613c1e565b81019061512f565b9091565b503d615192565b61016954906151bd82614fc3565b9160005b8181106151cc575050565b806151d8600192615100565b6151e28287614dc4565b52016151c1565b9061520a670de0b6b3a7640000928361018754610184549243010302614efc565b828110156152275782039180836101855402049261018654020590565b50600091508190565b909161523a615292565b92908082101561528857839161524f916141eb565b931115615283578181101561527b57615267916141eb565b60011c80821015615276575090565b905090565b505050600090565b505090565b5050505050600090565b61018254604080516359e02dd760e01b80825293929091906001600160a01b039081168284600481845afa801561538257600094859161535f575b5015615348575061018354169080519485528085600481855afa801561533d57600095869161531a575b50156153035750509190565b6024925051906305e8989360e11b82526004820152fd5b9050816153349296503d87116151a85761519c8183613c1e565b949094386152f7565b50513d6000823e3d90fd5b6024908351906305e8989360e11b82526004820152fd5b9050615379919450833d85116151a85761519c8183613c1e565b939093386152cd565b83513d6000823e3d90fd5b1561539457565b60405162461bcd60e51b815260206004820152602b60248201527f496e697469616c697a61626c653a20636f6e7472616374206973206e6f74206960448201526a6e697469616c697a696e6760a81b6064820152608490fd5b91906153f890614dd8565b9190926154058385614f8d565b9080821115615412575050565b6044925060405191637912120160e01b835260048301526024820152fd5b906101665490811561545557613b3292615450614e4b92610163546141eb565b6141eb565b505050670de0b6b3a764000090565b929093916000916000918296615478614bce565b966001600160a01b03918590831680615684575b508261016154168360405193636eb1769f60e11b8552168060048501523060248501526020948585604481865afa94851561567957849561564a575b5084615529575b5050505050860151156154e5575b505050929190565b909192506154fd670de0b6b3a7640000928392614ee9565b0480855290821561552157615519920490816040860152614378565b3880806154dd565b509050615519565b615537906101625416615149565b929092156154cf57909192939b50848b61557185670de0b6b3a764000061556b6155618d8d614ee9565b6101755490614ee9565b04614efc565b81830181815295908b15615640575061559c916155906060928d614efc565b91829101528551614378565b809d5b109283156155cb575b5050506155b8575b8080806154cf565b81929950528060608801529638806155b0565b909192506024604051809481936370a0823160e01b835260048301525afa90811561563557908b918491615604575b50103884816155a8565b809250858092503d831161562e575b61561d8183613c1e565b81010312611292578a9051386155fa565b503d615613565b6040513d85823e3d90fd5b915050809d61559f565b9094508581813d8311615672575b6156628183613c1e565b81010312610ba8575193386154c8565b503d615658565b6040513d86823e3d90fd5b9095506020836101f35416916024604051809481936364a731e960e01b835260048301525afa80156156fc5786906156c9575b6156c2915084614ee9565b943861548c565b506020813d82116156f4575b816156e260209383613c1e565b81010312612764576156c290516156b7565b3d91506156d5565b6040513d88823e3d90fd5b61571f61571584848461576c565b612e6b8585615430565b926000841292831561573c575b5050506157365790565b50600090565b615747929350614f8d565b111538808061572c565b8115614f0657600160ff1b81146000198314166141f8570590565b909161577b90610163546141eb565b90670de0b6b3a7640000918281029281840414901517156141f857613b3292614f8791614ee9565b61581b936157e26000926020956157bc82610169613c02565b506157c8878254614378565b90556157d8610163918254614378565b9055610167613ab0565b90546040516340c10f1960e01b81526001600160a01b039093166004840152602483019490945290948593928492909183906044820190565b039360039190911b1c6001600160a01b03165af1801561427d5761583c5750565b6020813d8211615865575b8161585460209383613c1e565b8101031261075b57613f60906143f4565b3d9150615847565b6123df6158be9161587e8482614f35565b6158b461588d83610180613ab0565b6158a08294925492838360031b1c614e66565b919060031b91821b91600019901b19161790565b9055610181613ab0565b9055565b9183859161571f93855b926158da929594919361576c565b6000938181029190858212600160ff1b82141661594957818305149015171561593557670de0b6b3a763ffff19820191821161593557670de0b6b3a76400009182810292818404149015171561593557613b32929350615751565b634e487b7160e01b84526011600452602484fd5b634e487b7160e01b86526011600452602486fd5b80615966615292565b91909361597360006151e9565b9401938291615a0b575b0193846000808212615a0557505b8403918185116159cd5750508181116159af57505061018555610186554361018755565b60449250604051916306da41e560e11b835260048301526024820152fd5b90808592116159f357604491604051916306da41e560e11b835260048301526024820152fd5b604051630fb4fd3560e11b8152600490fd5b0361598b565b9050816000039061597d565b80910360e0811261075b578151926020830151926080604082015193605f19011261075b5760c060405191615a4d608084613c1e565b606081015183526080810151602084015260a081015160408401520151606082015290565b90613b3291600080615a82614093565b93602081519101845af4613f5a6140e7565b90929160e090615aa9836101008101966148d3565b6001600160a01b0316910152565b61012f6002815414615ac95760029055565b60405162461bcd60e51b815260206004820152601f60248201527f5265656e7472616e637947756172643a207265656e7472616e742063616c6c006044820152606490fd5b9080615b18575050565b61025954613b7192906001600160a01b0316614d66565b919081615b3b57505050565b61016154613b7193906001600160a01b03166143ab565b615bc091615b5e615f05565b615b66615ab7565b615b6f3061420e565b604051636845c44560e01b60208201526001600160a01b03938416602482015291831660448301528483166064830152608480830191909152815290615bb660a483613c1e565b6102265416615a72565b60208180518101031261075b576020615bdc9101518092615b0e565b600161012f5590565b60e08101929160c09081906001600160a01b0380615c0283613ade565b168552615c1160208301613ade565b16602085015260408101356040850152606081013560608501526080810135608085015260a081013560a08501520135910152565b61017f548043101561573657613b329043906141eb565b90604051615c6c604082613c1e565b602060018294805484520154910152565b615c898161017a613ab0565b90549060031b1c916101be91615c9f8184613c02565b5054926101bf54431015615cc5575b5050808210156152835761504890613b3293614ee9565b829350615cd9615ce49392615cdf92613c02565b50615c5d565b615cec565b903880615cae565b602081519101805192670de0b6b3a7640000938403908482116141f857615d19614e5092614e0b95614ee9565b9251614ee9565b60008061016991825492615d3384614fc3565b9382915b818310615d60575050508115615d545790615d5191614efc565b91565b505061017b5460011b91565b90919392615d6d85615100565b9081615d798789614dc4565b52615d92615d878388614e82565b50614e448886613c02565b670de0b6b3a7640000908181029181830414901517156141f857615dd4615dda92614e5085615dc6600197615dcf96615f26565b9485918c615c7d565b614ee9565b95614378565b94019190615d37565b6101bf8054431015615df25750565b6101695460005b818110615e0c5750506101c05443019055565b80807f19156e9379c7bbbce8f646ce5ee30ba860b8f954717405f3d5859a6c1a21ae606001936101be615e42615cd98383613c02565b90615e60615e58615e5285615100565b84615cec565b938492613c02565b50555160409182519182526020820152a201615df9565b60975460405163d994d6d560e01b815233600482015290602090829060249082906001600160a01b03165afa90811561427d57600091615ecc575b5015615eba57565b604051631dd1b1b560e21b8152600490fd5b906020823d8211615efd575b81615ee560209383613c1e565b810103126107975750615ef7906143f4565b38615eb2565b3d9150615ed8565b60ff60ca5460081c16615f1457565b60405163783bb6c960e11b8152600490fd5b90670de0b6b3a7640000918281029281840414901517156141f857613b3291614efc565b670de0b6b3a764000010612ccc5756fea26469706673582212202005d5129661c204e00f9e518380d943df7339e61a4c34cf6f4869e3b7d3e2d564736f6c63430008140033",
  "linkReferences": {},
  "deployedLinkReferences": {}
}