{
  "_format": "hh-sol-artifact-1",
  "contractName": "MocRif",
  "sourceName": "contracts/MocRif.sol",
  "abi": [
    {
      "inputs": [
        {
          "internalType": "uint256",
          "name": "qACsent_",
          "type": "uint256"
        },
        {
          "internalType": "uint256",
          "name": "qACNeeded_",
          "type": "uint256"
        }
      ],
      "name": "InsufficientQacSent",
      "type": "error"
    },
    {
      "inputs": [
        {
          "internalType": "uint256",
          "name": "qTPsent_",
          "type": "uint256"
        },
        {
          "internalType": "uint256",
          "name": "qTPNeeded_",
          "type": "uint256"
        }
      ],
      "name": "InsufficientQtpSent",
      "type": "error"
    },
    {
      "inputs": [
        {
          "internalType": "uint256",
          "name": "qTC_",
          "type": "uint256"
        },
        {
          "internalType": "uint256",
          "name": "tcAvailableToRedeem_",
          "type": "uint256"
        }
      ],
      "name": "InsufficientTCtoRedeem",
      "type": "error"
    },
    {
      "inputs": [
        {
          "internalType": "uint256",
          "name": "qTP_",
          "type": "uint256"
        },
        {
          "internalType": "uint256",
          "name": "tpAvailableToMint_",
          "type": "uint256"
        }
      ],
      "name": "InsufficientTPtoMint",
      "type": "error"
    },
    {
      "inputs": [
        {
          "internalType": "uint256",
          "name": "qTP_",
          "type": "uint256"
        },
        {
          "internalType": "uint256",
          "name": "tpAvailableToRedeem_",
          "type": "uint256"
        }
      ],
      "name": "InsufficientTPtoRedeem",
      "type": "error"
    },
    {
      "inputs": [],
      "name": "InvalidAddress",
      "type": "error"
    },
    {
      "inputs": [],
      "name": "InvalidFluxCapacitorOperation",
      "type": "error"
    },
    {
      "inputs": [],
      "name": "InvalidValue",
      "type": "error"
    },
    {
      "inputs": [],
      "name": "Liquidated",
      "type": "error"
    },
    {
      "inputs": [
        {
          "internalType": "uint256",
          "name": "cglb_",
          "type": "uint256"
        },
        {
          "internalType": "uint256",
          "name": "covThrld_",
          "type": "uint256"
        }
      ],
      "name": "LowCoverage",
      "type": "error"
    },
    {
      "inputs": [
        {
          "internalType": "uint256",
          "name": "max_",
          "type": "uint256"
        },
        {
          "internalType": "uint256",
          "name": "new_",
          "type": "uint256"
        }
      ],
      "name": "MaxFluxCapacitorOperationReached",
      "type": "error"
    },
    {
      "inputs": [],
      "name": "MissingBlocksToSettlement",
      "type": "error"
    },
    {
      "inputs": [],
      "name": "MissingBlocksToTCInterestPayment",
      "type": "error"
    },
    {
      "inputs": [
        {
          "internalType": "address",
          "name": "dataProviderAddress_",
          "type": "address"
        }
      ],
      "name": "MissingProviderData",
      "type": "error"
    },
    {
      "inputs": [
        {
          "internalType": "address",
          "name": "priceProviderAddress_",
          "type": "address"
        }
      ],
      "name": "MissingProviderPrice",
      "type": "error"
    },
    {
      "inputs": [],
      "name": "NotAuthorizedChanger",
      "type": "error"
    },
    {
      "inputs": [],
      "name": "NotWhenPaused",
      "type": "error"
    },
    {
      "inputs": [],
      "name": "OnlyPauser",
      "type": "error"
    },
    {
      "inputs": [],
      "name": "OnlyWhenLiquidated",
      "type": "error"
    },
    {
      "inputs": [],
      "name": "OnlyWhilePaused",
      "type": "error"
    },
    {
      "inputs": [],
      "name": "PeggedTokenAlreadyAdded",
      "type": "error"
    },
    {
      "inputs": [
        {
          "internalType": "uint256",
          "name": "qACmin_",
          "type": "uint256"
        },
        {
          "internalType": "uint256",
          "name": "qACtoRedeem_",
          "type": "uint256"
        }
      ],
      "name": "QacBelowMinimumRequired",
      "type": "error"
    },
    {
      "inputs": [],
      "name": "QacNeededMustBeGreaterThanZero",
      "type": "error"
    },
    {
      "inputs": [
        {
          "internalType": "uint256",
          "name": "qTCmin_",
          "type": "uint256"
        },
        {
          "internalType": "uint256",
          "name": "qTC_",
          "type": "uint256"
        }
      ],
      "name": "QtcBelowMinimumRequired",
      "type": "error"
    },
    {
      "inputs": [
        {
          "internalType": "uint256",
          "name": "qTPmin_",
          "type": "uint256"
        },
        {
          "internalType": "uint256",
          "name": "qTP_",
          "type": "uint256"
        }
      ],
      "name": "QtpBelowMinimumRequired",
      "type": "error"
    },
    {
      "inputs": [],
      "name": "TransferFailed",
      "type": "error"
    },
    {
      "inputs": [],
      "name": "Unstoppable",
      "type": "error"
    },
    {
      "inputs": [],
      "name": "protocolAlreadyMigrated",
      "type": "error"
    },
    {
      "anonymous": false,
      "inputs": [
        {
          "indexed": false,
          "internalType": "address",
          "name": "previousAdmin",
          "type": "address"
        },
        {
          "indexed": false,
          "internalType": "address",
          "name": "newAdmin",
          "type": "address"
        }
      ],
      "name": "AdminChanged",
      "type": "event"
    },
    {
      "anonymous": false,
      "inputs": [
        {
          "indexed": true,
          "internalType": "address",
          "name": "beacon",
          "type": "address"
        }
      ],
      "name": "BeaconUpgraded",
      "type": "event"
    },
    {
      "anonymous": false,
      "inputs": [],
      "name": "ContractLiquidated",
      "type": "event"
    },
    {
      "anonymous": false,
      "inputs": [
        {
          "indexed": false,
          "internalType": "uint8",
          "name": "version",
          "type": "uint8"
        }
      ],
      "name": "Initialized",
      "type": "event"
    },
    {
      "anonymous": false,
      "inputs": [
        {
          "indexed": true,
          "internalType": "address",
          "name": "tp_",
          "type": "address"
        },
        {
          "indexed": true,
          "internalType": "address",
          "name": "sender_",
          "type": "address"
        },
        {
          "indexed": true,
          "internalType": "address",
          "name": "recipient_",
          "type": "address"
        },
        {
          "indexed": false,
          "internalType": "uint256",
          "name": "qTP_",
          "type": "uint256"
        },
        {
          "indexed": false,
          "internalType": "uint256",
          "name": "qAC_",
          "type": "uint256"
        }
      ],
      "name": "LiqTPRedeemed",
      "type": "event"
    },
    {
      "anonymous": false,
      "inputs": [
        {
          "indexed": false,
          "internalType": "address",
          "name": "account",
          "type": "address"
        }
      ],
      "name": "Paused",
      "type": "event"
    },
    {
      "anonymous": false,
      "inputs": [
        {
          "indexed": false,
          "internalType": "uint256",
          "name": "i_",
          "type": "uint256"
        },
        {
          "components": [
            {
              "internalType": "address",
              "name": "tpTokenAddress",
              "type": "address"
            },
            {
              "internalType": "address",
              "name": "priceProviderAddress",
              "type": "address"
            },
            {
              "internalType": "uint256",
              "name": "tpCtarg",
              "type": "uint256"
            },
            {
              "internalType": "uint256",
              "name": "tpMintFee",
              "type": "uint256"
            },
            {
              "internalType": "uint256",
              "name": "tpRedeemFee",
              "type": "uint256"
            },
            {
              "internalType": "uint256",
              "name": "tpEma",
              "type": "uint256"
            },
            {
              "internalType": "uint256",
              "name": "tpEmaSf",
              "type": "uint256"
            }
          ],
          "indexed": false,
          "internalType": "struct PeggedTokenParams",
          "name": "peggedTokenParams_",
          "type": "tuple"
        }
      ],
      "name": "PeggedTokenChange",
      "type": "event"
    },
    {
      "anonymous": false,
      "inputs": [],
      "name": "SettlementExecuted",
      "type": "event"
    },
    {
      "anonymous": false,
      "inputs": [
        {
          "indexed": false,
          "internalType": "uint256",
          "name": "mocGain_",
          "type": "uint256"
        },
        {
          "indexed": false,
          "internalType": "uint256[]",
          "name": "tpGain_",
          "type": "uint256[]"
        }
      ],
      "name": "SuccessFeeDistributed",
      "type": "event"
    },
    {
      "anonymous": false,
      "inputs": [
        {
          "indexed": false,
          "internalType": "uint256",
          "name": "interestAmount_",
          "type": "uint256"
        }
      ],
      "name": "TCInterestPayment",
      "type": "event"
    },
    {
      "anonymous": false,
      "inputs": [
        {
          "indexed": true,
          "internalType": "uint256",
          "name": "i_",
          "type": "uint256"
        },
        {
          "indexed": false,
          "internalType": "uint256",
          "name": "oldTPema_",
          "type": "uint256"
        },
        {
          "indexed": false,
          "internalType": "uint256",
          "name": "newTPema_",
          "type": "uint256"
        }
      ],
      "name": "TPemaUpdated",
      "type": "event"
    },
    {
      "anonymous": false,
      "inputs": [
        {
          "indexed": false,
          "internalType": "address",
          "name": "account",
          "type": "address"
        }
      ],
      "name": "Unpaused",
      "type": "event"
    },
    {
      "anonymous": false,
      "inputs": [
        {
          "indexed": true,
          "internalType": "address",
          "name": "implementation",
          "type": "address"
        }
      ],
      "name": "Upgraded",
      "type": "event"
    },
    {
      "inputs": [],
      "name": "absoluteAccumulator",
      "outputs": [
        {
          "internalType": "uint256",
          "name": "",
          "type": "uint256"
        }
      ],
      "stateMutability": "view",
      "type": "function"
    },
    {
      "inputs": [],
      "name": "acToken",
      "outputs": [
        {
          "internalType": "contract IERC20",
          "name": "",
          "type": "address"
        }
      ],
      "stateMutability": "view",
      "type": "function"
    },
    {
      "inputs": [
        {
          "components": [
            {
              "internalType": "address",
              "name": "tpTokenAddress",
              "type": "address"
            },
            {
              "internalType": "address",
              "name": "priceProviderAddress",
              "type": "address"
            },
            {
              "internalType": "uint256",
              "name": "tpCtarg",
              "type": "uint256"
            },
            {
              "internalType": "uint256",
              "name": "tpMintFee",
              "type": "uint256"
            },
            {
              "internalType": "uint256",
              "name": "tpRedeemFee",
              "type": "uint256"
            },
            {
              "internalType": "uint256",
              "name": "tpEma",
              "type": "uint256"
            },
            {
              "internalType": "uint256",
              "name": "tpEmaSf",
              "type": "uint256"
            }
          ],
          "internalType": "struct PeggedTokenParams",
          "name": "peggedTokenParams_",
          "type": "tuple"
        }
      ],
      "name": "addPeggedToken",
      "outputs": [],
      "stateMutability": "nonpayable",
      "type": "function"
    },
    {
      "inputs": [],
      "name": "appreciationFactor",
      "outputs": [
        {
          "internalType": "uint256",
          "name": "",
          "type": "uint256"
        }
      ],
      "stateMutability": "view",
      "type": "function"
    },
    {
      "inputs": [],
      "name": "bes",
      "outputs": [
        {
          "internalType": "uint256",
          "name": "",
          "type": "uint256"
        }
      ],
      "stateMutability": "view",
      "type": "function"
    },
    {
      "inputs": [],
      "name": "bns",
      "outputs": [
        {
          "internalType": "uint256",
          "name": "",
          "type": "uint256"
        }
      ],
      "stateMutability": "view",
      "type": "function"
    },
    {
      "inputs": [],
      "name": "calcCtargemaCA",
      "outputs": [
        {
          "internalType": "uint256",
          "name": "ctargemaCA",
          "type": "uint256"
        }
      ],
      "stateMutability": "view",
      "type": "function"
    },
    {
      "inputs": [
        {
          "internalType": "contract IGovernor",
          "name": "newGovernor_",
          "type": "address"
        }
      ],
      "name": "changeGovernor",
      "outputs": [],
      "stateMutability": "nonpayable",
      "type": "function"
    },
    {
      "inputs": [],
      "name": "decayBlockSpan",
      "outputs": [
        {
          "internalType": "uint256",
          "name": "",
          "type": "uint256"
        }
      ],
      "stateMutability": "view",
      "type": "function"
    },
    {
      "inputs": [],
      "name": "differentialAccumulator",
      "outputs": [
        {
          "internalType": "int256",
          "name": "",
          "type": "int256"
        }
      ],
      "stateMutability": "view",
      "type": "function"
    },
    {
      "inputs": [],
      "name": "dispatcher",
      "outputs": [
        {
          "internalType": "contract IDispatcher",
          "name": "",
          "type": "address"
        }
      ],
      "stateMutability": "view",
      "type": "function"
    },
    {
      "inputs": [
        {
          "components": [
            {
              "internalType": "address",
              "name": "tpTokenAddress",
              "type": "address"
            },
            {
              "internalType": "address",
              "name": "priceProviderAddress",
              "type": "address"
            },
            {
              "internalType": "uint256",
              "name": "tpCtarg",
              "type": "uint256"
            },
            {
              "internalType": "uint256",
              "name": "tpMintFee",
              "type": "uint256"
            },
            {
              "internalType": "uint256",
              "name": "tpRedeemFee",
              "type": "uint256"
            },
            {
              "internalType": "uint256",
              "name": "tpEma",
              "type": "uint256"
            },
            {
              "internalType": "uint256",
              "name": "tpEmaSf",
              "type": "uint256"
            }
          ],
          "internalType": "struct PeggedTokenParams",
          "name": "peggedTokenParams_",
          "type": "tuple"
        }
      ],
      "name": "editPeggedToken",
      "outputs": [],
      "stateMutability": "nonpayable",
      "type": "function"
    },
    {
      "inputs": [],
      "name": "emaCalculationBlockSpan",
      "outputs": [
        {
          "internalType": "uint256",
          "name": "",
          "type": "uint256"
        }
      ],
      "stateMutability": "view",
      "type": "function"
    },
    {
      "inputs": [],
      "name": "evalLiquidation",
      "outputs": [],
      "stateMutability": "nonpayable",
      "type": "function"
    },
    {
      "inputs": [
        {
          "components": [
            {
              "internalType": "uint256",
              "name": "qTC",
              "type": "uint256"
            },
            {
              "internalType": "uint256",
              "name": "qACmax",
              "type": "uint256"
            },
            {
              "internalType": "address",
              "name": "sender",
              "type": "address"
            },
            {
              "internalType": "address",
              "name": "recipient",
              "type": "address"
            },
            {
              "internalType": "address",
              "name": "vendor",
              "type": "address"
            }
          ],
          "internalType": "struct MocCore.MintTCParams",
          "name": "params_",
          "type": "tuple"
        }
      ],
      "name": "execMintTC",
      "outputs": [
        {
          "internalType": "uint256",
          "name": "qACtotalNeeded",
          "type": "uint256"
        },
        {
          "internalType": "uint256",
          "name": "qFeeTokenTotalNeeded",
          "type": "uint256"
        },
        {
          "components": [
            {
              "internalType": "uint256",
              "name": "qACFee",
              "type": "uint256"
            },
            {
              "internalType": "uint256",
              "name": "qFeeToken",
              "type": "uint256"
            },
            {
              "internalType": "uint256",
              "name": "qACVendorMarkup",
              "type": "uint256"
            },
            {
              "internalType": "uint256",
              "name": "qFeeTokenVendorMarkup",
              "type": "uint256"
            }
          ],
          "internalType": "struct MocCommons.FeeCalcs",
          "name": "feeCalcs",
          "type": "tuple"
        }
      ],
      "stateMutability": "nonpayable",
      "type": "function"
    },
    {
      "inputs": [
        {
          "components": [
            {
              "internalType": "address",
              "name": "tp",
              "type": "address"
            },
            {
              "internalType": "uint256",
              "name": "qTP",
              "type": "uint256"
            },
            {
              "internalType": "uint256",
              "name": "qACmax",
              "type": "uint256"
            },
            {
              "internalType": "address",
              "name": "sender",
              "type": "address"
            },
            {
              "internalType": "address",
              "name": "recipient",
              "type": "address"
            },
            {
              "internalType": "address",
              "name": "vendor",
              "type": "address"
            }
          ],
          "internalType": "struct MocCore.MintTCandTPParams",
          "name": "params_",
          "type": "tuple"
        }
      ],
      "name": "execMintTCandTP",
      "outputs": [
        {
          "internalType": "uint256",
          "name": "qACtotalNeeded",
          "type": "uint256"
        },
        {
          "internalType": "uint256",
          "name": "qTCMinted",
          "type": "uint256"
        },
        {
          "internalType": "uint256",
          "name": "qFeeTokenTotalNeeded",
          "type": "uint256"
        },
        {
          "components": [
            {
              "internalType": "uint256",
              "name": "qACFee",
              "type": "uint256"
            },
            {
              "internalType": "uint256",
              "name": "qFeeToken",
              "type": "uint256"
            },
            {
              "internalType": "uint256",
              "name": "qACVendorMarkup",
              "type": "uint256"
            },
            {
              "internalType": "uint256",
              "name": "qFeeTokenVendorMarkup",
              "type": "uint256"
            }
          ],
          "internalType": "struct MocCommons.FeeCalcs",
          "name": "feeCalcs",
          "type": "tuple"
        }
      ],
      "stateMutability": "nonpayable",
      "type": "function"
    },
    {
      "inputs": [
        {
          "components": [
            {
              "internalType": "address",
              "name": "tp",
              "type": "address"
            },
            {
              "internalType": "uint256",
              "name": "qTP",
              "type": "uint256"
            },
            {
              "internalType": "uint256",
              "name": "qACmax",
              "type": "uint256"
            },
            {
              "internalType": "address",
              "name": "sender",
              "type": "address"
            },
            {
              "internalType": "address",
              "name": "recipient",
              "type": "address"
            },
            {
              "internalType": "address",
              "name": "vendor",
              "type": "address"
            }
          ],
          "internalType": "struct MocCore.MintTPParams",
          "name": "params_",
          "type": "tuple"
        }
      ],
      "name": "execMintTP",
      "outputs": [
        {
          "internalType": "uint256",
          "name": "qACtotalNeeded",
          "type": "uint256"
        },
        {
          "internalType": "uint256",
          "name": "qFeeTokenTotalNeeded",
          "type": "uint256"
        },
        {
          "components": [
            {
              "internalType": "uint256",
              "name": "qACFee",
              "type": "uint256"
            },
            {
              "internalType": "uint256",
              "name": "qFeeToken",
              "type": "uint256"
            },
            {
              "internalType": "uint256",
              "name": "qACVendorMarkup",
              "type": "uint256"
            },
            {
              "internalType": "uint256",
              "name": "qFeeTokenVendorMarkup",
              "type": "uint256"
            }
          ],
          "internalType": "struct MocCommons.FeeCalcs",
          "name": "feeCalcs",
          "type": "tuple"
        }
      ],
      "stateMutability": "nonpayable",
      "type": "function"
    },
    {
      "inputs": [
        {
          "components": [
            {
              "internalType": "uint256",
              "name": "qTC",
              "type": "uint256"
            },
            {
              "internalType": "uint256",
              "name": "qACmin",
              "type": "uint256"
            },
            {
              "internalType": "address",
              "name": "sender",
              "type": "address"
            },
            {
              "internalType": "address",
              "name": "recipient",
              "type": "address"
            },
            {
              "internalType": "address",
              "name": "vendor",
              "type": "address"
            }
          ],
          "internalType": "struct MocCore.RedeemTCParams",
          "name": "params_",
          "type": "tuple"
        }
      ],
      "name": "execRedeemTC",
      "outputs": [
        {
          "internalType": "uint256",
          "name": "qACtoRedeem",
          "type": "uint256"
        },
        {
          "internalType": "uint256",
          "name": "qFeeTokenTotalNeeded",
          "type": "uint256"
        },
        {
          "components": [
            {
              "internalType": "uint256",
              "name": "qACFee",
              "type": "uint256"
            },
            {
              "internalType": "uint256",
              "name": "qFeeToken",
              "type": "uint256"
            },
            {
              "internalType": "uint256",
              "name": "qACVendorMarkup",
              "type": "uint256"
            },
            {
              "internalType": "uint256",
              "name": "qFeeTokenVendorMarkup",
              "type": "uint256"
            }
          ],
          "internalType": "struct MocCommons.FeeCalcs",
          "name": "feeCalcs",
          "type": "tuple"
        }
      ],
      "stateMutability": "nonpayable",
      "type": "function"
    },
    {
      "inputs": [
        {
          "components": [
            {
              "internalType": "address",
              "name": "tp",
              "type": "address"
            },
            {
              "internalType": "uint256",
              "name": "qTC",
              "type": "uint256"
            },
            {
              "internalType": "uint256",
              "name": "qTP",
              "type": "uint256"
            },
            {
              "internalType": "uint256",
              "name": "qACmin",
              "type": "uint256"
            },
            {
              "internalType": "address",
              "name": "sender",
              "type": "address"
            },
            {
              "internalType": "address",
              "name": "recipient",
              "type": "address"
            },
            {
              "internalType": "address",
              "name": "vendor",
              "type": "address"
            }
          ],
          "internalType": "struct MocCore.RedeemTCandTPParams",
          "name": "params_",
          "type": "tuple"
        }
      ],
      "name": "execRedeemTCandTP",
      "outputs": [
        {
          "internalType": "uint256",
          "name": "qACtoRedeem",
          "type": "uint256"
        },
        {
          "internalType": "uint256",
          "name": "qTPRedeemed",
          "type": "uint256"
        },
        {
          "internalType": "uint256",
          "name": "qFeeTokenTotalNeeded",
          "type": "uint256"
        },
        {
          "components": [
            {
              "internalType": "uint256",
              "name": "qACFee",
              "type": "uint256"
            },
            {
              "internalType": "uint256",
              "name": "qFeeToken",
              "type": "uint256"
            },
            {
              "internalType": "uint256",
              "name": "qACVendorMarkup",
              "type": "uint256"
            },
            {
              "internalType": "uint256",
              "name": "qFeeTokenVendorMarkup",
              "type": "uint256"
            }
          ],
          "internalType": "struct MocCommons.FeeCalcs",
          "name": "feeCalcs",
          "type": "tuple"
        }
      ],
      "stateMutability": "nonpayable",
      "type": "function"
    },
    {
      "inputs": [
        {
          "components": [
            {
              "internalType": "address",
              "name": "tp",
              "type": "address"
            },
            {
              "internalType": "uint256",
              "name": "qTP",
              "type": "uint256"
            },
            {
              "internalType": "uint256",
              "name": "qACmin",
              "type": "uint256"
            },
            {
              "internalType": "address",
              "name": "sender",
              "type": "address"
            },
            {
              "internalType": "address",
              "name": "recipient",
              "type": "address"
            },
            {
              "internalType": "address",
              "name": "vendor",
              "type": "address"
            }
          ],
          "internalType": "struct MocCommons.RedeemTPParams",
          "name": "params_",
          "type": "tuple"
        }
      ],
      "name": "execRedeemTP",
      "outputs": [
        {
          "internalType": "uint256",
          "name": "qACtoRedeem",
          "type": "uint256"
        },
        {
          "internalType": "uint256",
          "name": "qFeeTokenTotalNeeded",
          "type": "uint256"
        },
        {
          "components": [
            {
              "internalType": "uint256",
              "name": "qACFee",
              "type": "uint256"
            },
            {
              "internalType": "uint256",
              "name": "qFeeToken",
              "type": "uint256"
            },
            {
              "internalType": "uint256",
              "name": "qACVendorMarkup",
              "type": "uint256"
            },
            {
              "internalType": "uint256",
              "name": "qFeeTokenVendorMarkup",
              "type": "uint256"
            }
          ],
          "internalType": "struct MocCommons.FeeCalcs",
          "name": "feeCalcs",
          "type": "tuple"
        }
      ],
      "stateMutability": "nonpayable",
      "type": "function"
    },
    {
      "inputs": [],
      "name": "execSettlement",
      "outputs": [],
      "stateMutability": "nonpayable",
      "type": "function"
    },
    {
      "inputs": [
        {
          "components": [
            {
              "internalType": "address",
              "name": "tp",
              "type": "address"
            },
            {
              "internalType": "uint256",
              "name": "qTC",
              "type": "uint256"
            },
            {
              "internalType": "uint256",
              "name": "qTPmin",
              "type": "uint256"
            },
            {
              "internalType": "uint256",
              "name": "qACmax",
              "type": "uint256"
            },
            {
              "internalType": "address",
              "name": "sender",
              "type": "address"
            },
            {
              "internalType": "address",
              "name": "recipient",
              "type": "address"
            },
            {
              "internalType": "address",
              "name": "vendor",
              "type": "address"
            }
          ],
          "internalType": "struct MocCommons.SwapTCforTPParams",
          "name": "params_",
          "type": "tuple"
        }
      ],
      "name": "execSwapTCforTP",
      "outputs": [
        {
          "internalType": "uint256",
          "name": "qACSurcharges",
          "type": "uint256"
        },
        {
          "internalType": "uint256",
          "name": "qTPMinted",
          "type": "uint256"
        },
        {
          "internalType": "uint256",
          "name": "qFeeTokenTotalNeeded",
          "type": "uint256"
        },
        {
          "components": [
            {
              "internalType": "uint256",
              "name": "qACFee",
              "type": "uint256"
            },
            {
              "internalType": "uint256",
              "name": "qFeeToken",
              "type": "uint256"
            },
            {
              "internalType": "uint256",
              "name": "qACVendorMarkup",
              "type": "uint256"
            },
            {
              "internalType": "uint256",
              "name": "qFeeTokenVendorMarkup",
              "type": "uint256"
            }
          ],
          "internalType": "struct MocCommons.FeeCalcs",
          "name": "feeCalcs",
          "type": "tuple"
        }
      ],
      "stateMutability": "nonpayable",
      "type": "function"
    },
    {
      "inputs": [
        {
          "components": [
            {
              "internalType": "address",
              "name": "tp",
              "type": "address"
            },
            {
              "internalType": "uint256",
              "name": "qTP",
              "type": "uint256"
            },
            {
              "internalType": "uint256",
              "name": "qTCmin",
              "type": "uint256"
            },
            {
              "internalType": "uint256",
              "name": "qACmax",
              "type": "uint256"
            },
            {
              "internalType": "address",
              "name": "sender",
              "type": "address"
            },
            {
              "internalType": "address",
              "name": "recipient",
              "type": "address"
            },
            {
              "internalType": "address",
              "name": "vendor",
              "type": "address"
            }
          ],
          "internalType": "struct MocCommons.SwapTPforTCParams",
          "name": "params_",
          "type": "tuple"
        }
      ],
      "name": "execSwapTPforTC",
      "outputs": [
        {
          "internalType": "uint256",
          "name": "qACSurcharges",
          "type": "uint256"
        },
        {
          "internalType": "uint256",
          "name": "qTCMinted",
          "type": "uint256"
        },
        {
          "internalType": "uint256",
          "name": "qFeeTokenTotalNeeded",
          "type": "uint256"
        },
        {
          "components": [
            {
              "internalType": "uint256",
              "name": "qACFee",
              "type": "uint256"
            },
            {
              "internalType": "uint256",
              "name": "qFeeToken",
              "type": "uint256"
            },
            {
              "internalType": "uint256",
              "name": "qACVendorMarkup",
              "type": "uint256"
            },
            {
              "internalType": "uint256",
              "name": "qFeeTokenVendorMarkup",
              "type": "uint256"
            }
          ],
          "internalType": "struct MocCommons.FeeCalcs",
          "name": "feeCalcs",
          "type": "tuple"
        }
      ],
      "stateMutability": "nonpayable",
      "type": "function"
    },
    {
      "inputs": [
        {
          "components": [
            {
              "internalType": "address",
              "name": "tpFrom",
              "type": "address"
            },
            {
              "internalType": "address",
              "name": "tpTo",
              "type": "address"
            },
            {
              "internalType": "uint256",
              "name": "qTP",
              "type": "uint256"
            },
            {
              "internalType": "uint256",
              "name": "qTPmin",
              "type": "uint256"
            },
            {
              "internalType": "uint256",
              "name": "qACmax",
              "type": "uint256"
            },
            {
              "internalType": "address",
              "name": "sender",
              "type": "address"
            },
            {
              "internalType": "address",
              "name": "recipient",
              "type": "address"
            },
            {
              "internalType": "address",
              "name": "vendor",
              "type": "address"
            }
          ],
          "internalType": "struct MocCommons.SwapTPforTPParams",
          "name": "params_",
          "type": "tuple"
        }
      ],
      "name": "execSwapTPforTP",
      "outputs": [
        {
          "internalType": "uint256",
          "name": "qACSurcharges",
          "type": "uint256"
        },
        {
          "internalType": "uint256",
          "name": "qTPMinted",
          "type": "uint256"
        },
        {
          "internalType": "uint256",
          "name": "qFeeTokenTotalNeeded",
          "type": "uint256"
        },
        {
          "components": [
            {
              "internalType": "uint256",
              "name": "qACFee",
              "type": "uint256"
            },
            {
              "internalType": "uint256",
              "name": "qFeeToken",
              "type": "uint256"
            },
            {
              "internalType": "uint256",
              "name": "qACVendorMarkup",
              "type": "uint256"
            },
            {
              "internalType": "uint256",
              "name": "qFeeTokenVendorMarkup",
              "type": "uint256"
            }
          ],
          "internalType": "struct MocCommons.FeeCalcs",
          "name": "feeCalcs",
          "type": "tuple"
        }
      ],
      "stateMutability": "nonpayable",
      "type": "function"
    },
    {
      "inputs": [],
      "name": "feeRetainer",
      "outputs": [
        {
          "internalType": "uint256",
          "name": "",
          "type": "uint256"
        }
      ],
      "stateMutability": "view",
      "type": "function"
    },
    {
      "inputs": [],
      "name": "feeToken",
      "outputs": [
        {
          "internalType": "contract IERC20",
          "name": "",
          "type": "address"
        }
      ],
      "stateMutability": "view",
      "type": "function"
    },
    {
      "inputs": [],
      "name": "feeTokenPct",
      "outputs": [
        {
          "internalType": "uint256",
          "name": "",
          "type": "uint256"
        }
      ],
      "stateMutability": "view",
      "type": "function"
    },
    {
      "inputs": [],
      "name": "feeTokenPriceProvider",
      "outputs": [
        {
          "internalType": "contract IPriceProvider",
          "name": "",
          "type": "address"
        }
      ],
      "stateMutability": "view",
      "type": "function"
    },
    {
      "inputs": [],
      "name": "getBts",
      "outputs": [
        {
          "internalType": "uint256",
          "name": "",
          "type": "uint256"
        }
      ],
      "stateMutability": "view",
      "type": "function"
    },
    {
      "inputs": [],
      "name": "getCglb",
      "outputs": [
        {
          "internalType": "uint256",
          "name": "cglob",
          "type": "uint256"
        }
      ],
      "stateMutability": "view",
      "type": "function"
    },
    {
      "inputs": [],
      "name": "getLckAC",
      "outputs": [
        {
          "internalType": "uint256",
          "name": "lckAC",
          "type": "uint256"
        }
      ],
      "stateMutability": "view",
      "type": "function"
    },
    {
      "inputs": [],
      "name": "getLeverageTC",
      "outputs": [
        {
          "internalType": "uint256",
          "name": "leverageTC",
          "type": "uint256"
        }
      ],
      "stateMutability": "view",
      "type": "function"
    },
    {
      "inputs": [
        {
          "internalType": "address",
          "name": "tp_",
          "type": "address"
        }
      ],
      "name": "getPACtp",
      "outputs": [
        {
          "internalType": "uint256",
          "name": "",
          "type": "uint256"
        }
      ],
      "stateMutability": "view",
      "type": "function"
    },
    {
      "inputs": [],
      "name": "getPTCac",
      "outputs": [
        {
          "internalType": "uint256",
          "name": "pTCac",
          "type": "uint256"
        }
      ],
      "stateMutability": "view",
      "type": "function"
    },
    {
      "inputs": [],
      "name": "getTCAvailableToRedeem",
      "outputs": [
        {
          "internalType": "int256",
          "name": "tcAvailableToRedeem",
          "type": "int256"
        }
      ],
      "stateMutability": "view",
      "type": "function"
    },
    {
      "inputs": [
        {
          "internalType": "address",
          "name": "tp_",
          "type": "address"
        }
      ],
      "name": "getTPAvailableToMint",
      "outputs": [
        {
          "internalType": "int256",
          "name": "tpAvailableToMint",
          "type": "int256"
        }
      ],
      "stateMutability": "view",
      "type": "function"
    },
    {
      "inputs": [],
      "name": "getTotalACavailable",
      "outputs": [
        {
          "internalType": "uint256",
          "name": "totalACavailable",
          "type": "uint256"
        }
      ],
      "stateMutability": "view",
      "type": "function"
    },
    {
      "inputs": [],
      "name": "governor",
      "outputs": [
        {
          "internalType": "contract IGovernor",
          "name": "",
          "type": "address"
        }
      ],
      "stateMutability": "view",
      "type": "function"
    },
    {
      "inputs": [
        {
          "components": [
            {
              "components": [
                {
                  "components": [
                    {
                      "internalType": "address",
                      "name": "feeTokenAddress",
                      "type": "address"
                    },
                    {
                      "internalType": "address",
                      "name": "feeTokenPriceProviderAddress",
                      "type": "address"
                    },
                    {
                      "internalType": "address",
                      "name": "tcTokenAddress",
                      "type": "address"
                    },
                    {
                      "internalType": "address",
                      "name": "mocFeeFlowAddress",
                      "type": "address"
                    },
                    {
                      "internalType": "address",
                      "name": "mocAppreciationBeneficiaryAddress",
                      "type": "address"
                    },
                    {
                      "internalType": "uint256",
                      "name": "protThrld",
                      "type": "uint256"
                    },
                    {
                      "internalType": "uint256",
                      "name": "liqThrld",
                      "type": "uint256"
                    },
                    {
                      "internalType": "uint256",
                      "name": "feeRetainer",
                      "type": "uint256"
                    },
                    {
                      "internalType": "uint256",
                      "name": "tcMintFee",
                      "type": "uint256"
                    },
                    {
                      "internalType": "uint256",
                      "name": "tcRedeemFee",
                      "type": "uint256"
                    },
                    {
                      "internalType": "uint256",
                      "name": "swapTPforTPFee",
                      "type": "uint256"
                    },
                    {
                      "internalType": "uint256",
                      "name": "swapTPforTCFee",
                      "type": "uint256"
                    },
                    {
                      "internalType": "uint256",
                      "name": "swapTCforTPFee",
                      "type": "uint256"
                    },
                    {
                      "internalType": "uint256",
                      "name": "redeemTCandTPFee",
                      "type": "uint256"
                    },
                    {
                      "internalType": "uint256",
                      "name": "mintTCandTPFee",
                      "type": "uint256"
                    },
                    {
                      "internalType": "uint256",
                      "name": "feeTokenPct",
                      "type": "uint256"
                    },
                    {
                      "internalType": "uint256",
                      "name": "successFee",
                      "type": "uint256"
                    },
                    {
                      "internalType": "uint256",
                      "name": "appreciationFactor",
                      "type": "uint256"
                    },
                    {
                      "internalType": "uint256",
                      "name": "bes",
                      "type": "uint256"
                    },
                    {
                      "internalType": "address",
                      "name": "tcInterestCollectorAddress",
                      "type": "address"
                    },
                    {
                      "internalType": "uint256",
                      "name": "tcInterestRate",
                      "type": "uint256"
                    },
                    {
                      "internalType": "uint256",
                      "name": "tcInterestPaymentBlockSpan",
                      "type": "uint256"
                    },
                    {
                      "internalType": "address",
                      "name": "maxAbsoluteOpProviderAddress",
                      "type": "address"
                    },
                    {
                      "internalType": "address",
                      "name": "maxOpDiffProviderAddress",
                      "type": "address"
                    },
                    {
                      "internalType": "uint256",
                      "name": "decayBlockSpan",
                      "type": "uint256"
                    }
                  ],
                  "internalType": "struct MocBaseBucket.InitializeBaseBucketParams",
                  "name": "initializeBaseBucketParams",
                  "type": "tuple"
                },
                {
                  "internalType": "address",
                  "name": "governorAddress",
                  "type": "address"
                },
                {
                  "internalType": "address",
                  "name": "pauserAddress",
                  "type": "address"
                },
                {
                  "internalType": "address",
                  "name": "mocCoreExpansion",
                  "type": "address"
                },
                {
                  "internalType": "uint256",
                  "name": "emaCalculationBlockSpan",
                  "type": "uint256"
                },
                {
                  "internalType": "address",
                  "name": "mocVendors",
                  "type": "address"
                }
              ],
              "internalType": "struct MocCore.InitializeCoreParams",
              "name": "initializeCoreParams",
              "type": "tuple"
            },
            {
              "internalType": "address",
              "name": "acTokenAddress",
              "type": "address"
            },
            {
              "internalType": "address",
              "name": "mocQueue",
              "type": "address"
            }
          ],
          "internalType": "struct MocCARC20Deferred.InitializeParams",
          "name": "initializeParams_",
          "type": "tuple"
        }
      ],
      "name": "initialize",
      "outputs": [],
      "stateMutability": "nonpayable",
      "type": "function"
    },
    {
      "inputs": [],
      "name": "isLiquidationReached",
      "outputs": [
        {
          "internalType": "bool",
          "name": "",
          "type": "bool"
        }
      ],
      "stateMutability": "view",
      "type": "function"
    },
    {
      "inputs": [],
      "name": "lastOperationBlockNumber",
      "outputs": [
        {
          "internalType": "uint256",
          "name": "",
          "type": "uint256"
        }
      ],
      "stateMutability": "view",
      "type": "function"
    },
    {
      "inputs": [],
      "name": "liqEnabled",
      "outputs": [
        {
          "internalType": "bool",
          "name": "",
          "type": "bool"
        }
      ],
      "stateMutability": "view",
      "type": "function"
    },
    {
      "inputs": [
        {
          "internalType": "address",
          "name": "tp_",
          "type": "address"
        }
      ],
      "name": "liqRedeemTP",
      "outputs": [
        {
          "internalType": "uint256",
          "name": "qACRedeemed",
          "type": "uint256"
        }
      ],
      "stateMutability": "nonpayable",
      "type": "function"
    },
    {
      "inputs": [
        {
          "internalType": "address",
          "name": "tp_",
          "type": "address"
        },
        {
          "internalType": "address",
          "name": "recipient_",
          "type": "address"
        }
      ],
      "name": "liqRedeemTPto",
      "outputs": [
        {
          "internalType": "uint256",
          "name": "qACRedeemed",
          "type": "uint256"
        }
      ],
      "stateMutability": "nonpayable",
      "type": "function"
    },
    {
      "inputs": [],
      "name": "liqThrld",
      "outputs": [
        {
          "internalType": "uint256",
          "name": "",
          "type": "uint256"
        }
      ],
      "stateMutability": "view",
      "type": "function"
    },
    {
      "inputs": [],
      "name": "liquidated",
      "outputs": [
        {
          "internalType": "bool",
          "name": "",
          "type": "bool"
        }
      ],
      "stateMutability": "view",
      "type": "function"
    },
    {
      "inputs": [],
      "name": "makeStoppable",
      "outputs": [],
      "stateMutability": "nonpayable",
      "type": "function"
    },
    {
      "inputs": [],
      "name": "makeUnstoppable",
      "outputs": [],
      "stateMutability": "nonpayable",
      "type": "function"
    },
    {
      "inputs": [],
      "name": "maxAbsoluteOpProvider",
      "outputs": [
        {
          "internalType": "contract IDataProvider",
          "name": "",
          "type": "address"
        }
      ],
      "stateMutability": "view",
      "type": "function"
    },
    {
      "inputs": [],
      "name": "maxOpDiffProvider",
      "outputs": [
        {
          "internalType": "contract IDataProvider",
          "name": "",
          "type": "address"
        }
      ],
      "stateMutability": "view",
      "type": "function"
    },
    {
      "inputs": [],
      "name": "maxQACToMintTP",
      "outputs": [
        {
          "internalType": "uint256",
          "name": "maxQAC",
          "type": "uint256"
        }
      ],
      "stateMutability": "view",
      "type": "function"
    },
    {
      "inputs": [],
      "name": "maxQACToRedeemTP",
      "outputs": [
        {
          "internalType": "uint256",
          "name": "maxQAC",
          "type": "uint256"
        }
      ],
      "stateMutability": "view",
      "type": "function"
    },
    {
      "inputs": [
        {
          "internalType": "uint256",
          "name": "qAC_",
          "type": "uint256"
        },
        {
          "internalType": "uint256",
          "name": "qTC_",
          "type": "uint256"
        },
        {
          "internalType": "uint256",
          "name": "qTP_",
          "type": "uint256"
        },
        {
          "internalType": "uint256",
          "name": "tpEma_",
          "type": "uint256"
        },
        {
          "internalType": "uint256",
          "name": "nextEmaCalculation_",
          "type": "uint256"
        },
        {
          "internalType": "uint256",
          "name": "nextTCInterestPayment_",
          "type": "uint256"
        }
      ],
      "name": "migrateFromV1",
      "outputs": [],
      "stateMutability": "nonpayable",
      "type": "function"
    },
    {
      "inputs": [
        {
          "internalType": "uint256",
          "name": "qTC_",
          "type": "uint256"
        },
        {
          "internalType": "uint256",
          "name": "qACmax_",
          "type": "uint256"
        }
      ],
      "name": "mintTC",
      "outputs": [
        {
          "internalType": "uint256",
          "name": "operId",
          "type": "uint256"
        }
      ],
      "stateMutability": "payable",
      "type": "function"
    },
    {
      "inputs": [
        {
          "internalType": "uint256",
          "name": "qTC_",
          "type": "uint256"
        },
        {
          "internalType": "uint256",
          "name": "qACmax_",
          "type": "uint256"
        },
        {
          "internalType": "address",
          "name": "vendor_",
          "type": "address"
        }
      ],
      "name": "mintTCViaVendor",
      "outputs": [
        {
          "internalType": "uint256",
          "name": "operId",
          "type": "uint256"
        }
      ],
      "stateMutability": "payable",
      "type": "function"
    },
    {
      "inputs": [
        {
          "internalType": "address",
          "name": "tp_",
          "type": "address"
        },
        {
          "internalType": "uint256",
          "name": "qTP_",
          "type": "uint256"
        },
        {
          "internalType": "uint256",
          "name": "qACmax_",
          "type": "uint256"
        }
      ],
      "name": "mintTCandTP",
      "outputs": [
        {
          "internalType": "uint256",
          "name": "operId",
          "type": "uint256"
        }
      ],
      "stateMutability": "payable",
      "type": "function"
    },
    {
      "inputs": [],
      "name": "mintTCandTPFee",
      "outputs": [
        {
          "internalType": "uint256",
          "name": "",
          "type": "uint256"
        }
      ],
      "stateMutability": "view",
      "type": "function"
    },
    {
      "inputs": [
        {
          "internalType": "address",
          "name": "tp_",
          "type": "address"
        },
        {
          "internalType": "uint256",
          "name": "qTP_",
          "type": "uint256"
        },
        {
          "internalType": "uint256",
          "name": "qACmax_",
          "type": "uint256"
        },
        {
          "internalType": "address",
          "name": "vendor_",
          "type": "address"
        }
      ],
      "name": "mintTCandTPViaVendor",
      "outputs": [
        {
          "internalType": "uint256",
          "name": "operId",
          "type": "uint256"
        }
      ],
      "stateMutability": "payable",
      "type": "function"
    },
    {
      "inputs": [
        {
          "internalType": "address",
          "name": "tp_",
          "type": "address"
        },
        {
          "internalType": "uint256",
          "name": "qTP_",
          "type": "uint256"
        },
        {
          "internalType": "uint256",
          "name": "qACmax_",
          "type": "uint256"
        },
        {
          "internalType": "address",
          "name": "recipient_",
          "type": "address"
        }
      ],
      "name": "mintTCandTPto",
      "outputs": [
        {
          "internalType": "uint256",
          "name": "operId",
          "type": "uint256"
        }
      ],
      "stateMutability": "payable",
      "type": "function"
    },
    {
      "inputs": [
        {
          "internalType": "address",
          "name": "tp_",
          "type": "address"
        },
        {
          "internalType": "uint256",
          "name": "qTP_",
          "type": "uint256"
        },
        {
          "internalType": "uint256",
          "name": "qACmax_",
          "type": "uint256"
        },
        {
          "internalType": "address",
          "name": "recipient_",
          "type": "address"
        },
        {
          "internalType": "address",
          "name": "vendor_",
          "type": "address"
        }
      ],
      "name": "mintTCandTPtoViaVendor",
      "outputs": [
        {
          "internalType": "uint256",
          "name": "operId",
          "type": "uint256"
        }
      ],
      "stateMutability": "payable",
      "type": "function"
    },
    {
      "inputs": [
        {
          "internalType": "uint256",
          "name": "qTC_",
          "type": "uint256"
        },
        {
          "internalType": "uint256",
          "name": "qACmax_",
          "type": "uint256"
        },
        {
          "internalType": "address",
          "name": "recipient_",
          "type": "address"
        }
      ],
      "name": "mintTCto",
      "outputs": [
        {
          "internalType": "uint256",
          "name": "operId",
          "type": "uint256"
        }
      ],
      "stateMutability": "payable",
      "type": "function"
    },
    {
      "inputs": [
        {
          "internalType": "uint256",
          "name": "qTC_",
          "type": "uint256"
        },
        {
          "internalType": "uint256",
          "name": "qACmax_",
          "type": "uint256"
        },
        {
          "internalType": "address",
          "name": "recipient_",
          "type": "address"
        },
        {
          "internalType": "address",
          "name": "vendor_",
          "type": "address"
        }
      ],
      "name": "mintTCtoViaVendor",
      "outputs": [
        {
          "internalType": "uint256",
          "name": "operId",
          "type": "uint256"
        }
      ],
      "stateMutability": "payable",
      "type": "function"
    },
    {
      "inputs": [
        {
          "internalType": "address",
          "name": "tp_",
          "type": "address"
        },
        {
          "internalType": "uint256",
          "name": "qTP_",
          "type": "uint256"
        },
        {
          "internalType": "uint256",
          "name": "qACmax_",
          "type": "uint256"
        }
      ],
      "name": "mintTP",
      "outputs": [
        {
          "internalType": "uint256",
          "name": "operId",
          "type": "uint256"
        }
      ],
      "stateMutability": "payable",
      "type": "function"
    },
    {
      "inputs": [
        {
          "internalType": "address",
          "name": "tp_",
          "type": "address"
        },
        {
          "internalType": "uint256",
          "name": "qTP_",
          "type": "uint256"
        },
        {
          "internalType": "uint256",
          "name": "qACmax_",
          "type": "uint256"
        },
        {
          "internalType": "address",
          "name": "vendor_",
          "type": "address"
        }
      ],
      "name": "mintTPViaVendor",
      "outputs": [
        {
          "internalType": "uint256",
          "name": "operId",
          "type": "uint256"
        }
      ],
      "stateMutability": "payable",
      "type": "function"
    },
    {
      "inputs": [
        {
          "internalType": "address",
          "name": "tp_",
          "type": "address"
        },
        {
          "internalType": "uint256",
          "name": "qTP_",
          "type": "uint256"
        },
        {
          "internalType": "uint256",
          "name": "qACmax_",
          "type": "uint256"
        },
        {
          "internalType": "address",
          "name": "recipient_",
          "type": "address"
        }
      ],
      "name": "mintTPto",
      "outputs": [
        {
          "internalType": "uint256",
          "name": "operId",
          "type": "uint256"
        }
      ],
      "stateMutability": "payable",
      "type": "function"
    },
    {
      "inputs": [
        {
          "internalType": "address",
          "name": "tp_",
          "type": "address"
        },
        {
          "internalType": "uint256",
          "name": "qTP_",
          "type": "uint256"
        },
        {
          "internalType": "uint256",
          "name": "qACmax_",
          "type": "uint256"
        },
        {
          "internalType": "address",
          "name": "recipient_",
          "type": "address"
        },
        {
          "internalType": "address",
          "name": "vendor_",
          "type": "address"
        }
      ],
      "name": "mintTPtoViaVendor",
      "outputs": [
        {
          "internalType": "uint256",
          "name": "operId",
          "type": "uint256"
        }
      ],
      "stateMutability": "payable",
      "type": "function"
    },
    {
      "inputs": [],
      "name": "mocAppreciationBeneficiaryAddress",
      "outputs": [
        {
          "internalType": "address",
          "name": "",
          "type": "address"
        }
      ],
      "stateMutability": "view",
      "type": "function"
    },
    {
      "inputs": [],
      "name": "mocFeeFlowAddress",
      "outputs": [
        {
          "internalType": "address",
          "name": "",
          "type": "address"
        }
      ],
      "stateMutability": "view",
      "type": "function"
    },
    {
      "inputs": [],
      "name": "mocQueue",
      "outputs": [
        {
          "internalType": "contract MocQueue",
          "name": "",
          "type": "address"
        }
      ],
      "stateMutability": "view",
      "type": "function"
    },
    {
      "inputs": [],
      "name": "mocVendors",
      "outputs": [
        {
          "internalType": "contract MocVendors",
          "name": "",
          "type": "address"
        }
      ],
      "stateMutability": "view",
      "type": "function"
    },
    {
      "inputs": [],
      "name": "nACcb",
      "outputs": [
        {
          "internalType": "uint256",
          "name": "",
          "type": "uint256"
        }
      ],
      "stateMutability": "view",
      "type": "function"
    },
    {
      "inputs": [],
      "name": "nTCcb",
      "outputs": [
        {
          "internalType": "uint256",
          "name": "",
          "type": "uint256"
        }
      ],
      "stateMutability": "view",
      "type": "function"
    },
    {
      "inputs": [],
      "name": "nextEmaCalculation",
      "outputs": [
        {
          "internalType": "uint256",
          "name": "",
          "type": "uint256"
        }
      ],
      "stateMutability": "view",
      "type": "function"
    },
    {
      "inputs": [],
      "name": "nextTCInterestPayment",
      "outputs": [
        {
          "internalType": "uint256",
          "name": "",
          "type": "uint256"
        }
      ],
      "stateMutability": "view",
      "type": "function"
    },
    {
      "inputs": [],
      "name": "pause",
      "outputs": [],
      "stateMutability": "nonpayable",
      "type": "function"
    },
    {
      "inputs": [],
      "name": "paused",
      "outputs": [
        {
          "internalType": "bool",
          "name": "",
          "type": "bool"
        }
      ],
      "stateMutability": "view",
      "type": "function"
    },
    {
      "inputs": [],
      "name": "pauser",
      "outputs": [
        {
          "internalType": "address",
          "name": "",
          "type": "address"
        }
      ],
      "stateMutability": "view",
      "type": "function"
    },
    {
      "inputs": [
        {
          "internalType": "uint256",
          "name": "",
          "type": "uint256"
        }
      ],
      "name": "pegContainer",
      "outputs": [
        {
          "internalType": "uint256",
          "name": "nTP",
          "type": "uint256"
        },
        {
          "internalType": "contract IPriceProvider",
          "name": "priceProvider",
          "type": "address"
        }
      ],
      "stateMutability": "view",
      "type": "function"
    },
    {
      "inputs": [
        {
          "internalType": "address",
          "name": "",
          "type": "address"
        }
      ],
      "name": "peggedTokenIndex",
      "outputs": [
        {
          "internalType": "uint256",
          "name": "index",
          "type": "uint256"
        },
        {
          "internalType": "bool",
          "name": "exists",
          "type": "bool"
        }
      ],
      "stateMutability": "view",
      "type": "function"
    },
    {
      "inputs": [],
      "name": "protThrld",
      "outputs": [
        {
          "internalType": "uint256",
          "name": "",
          "type": "uint256"
        }
      ],
      "stateMutability": "view",
      "type": "function"
    },
    {
      "inputs": [],
      "name": "proxiableUUID",
      "outputs": [
        {
          "internalType": "bytes32",
          "name": "",
          "type": "bytes32"
        }
      ],
      "stateMutability": "view",
      "type": "function"
    },
    {
      "inputs": [],
      "name": "qACLockedInPending",
      "outputs": [
        {
          "internalType": "uint256",
          "name": "",
          "type": "uint256"
        }
      ],
      "stateMutability": "view",
      "type": "function"
    },
    {
      "inputs": [
        {
          "internalType": "uint256",
          "name": "qTC_",
          "type": "uint256"
        },
        {
          "internalType": "uint256",
          "name": "qACmin_",
          "type": "uint256"
        }
      ],
      "name": "redeemTC",
      "outputs": [
        {
          "internalType": "uint256",
          "name": "operId",
          "type": "uint256"
        }
      ],
      "stateMutability": "payable",
      "type": "function"
    },
    {
      "inputs": [
        {
          "internalType": "uint256",
          "name": "qTC_",
          "type": "uint256"
        },
        {
          "internalType": "uint256",
          "name": "qACmin_",
          "type": "uint256"
        },
        {
          "internalType": "address",
          "name": "vendor_",
          "type": "address"
        }
      ],
      "name": "redeemTCViaVendor",
      "outputs": [
        {
          "internalType": "uint256",
          "name": "operId",
          "type": "uint256"
        }
      ],
      "stateMutability": "payable",
      "type": "function"
    },
    {
      "inputs": [
        {
          "internalType": "address",
          "name": "tp_",
          "type": "address"
        },
        {
          "internalType": "uint256",
          "name": "qTC_",
          "type": "uint256"
        },
        {
          "internalType": "uint256",
          "name": "qTP_",
          "type": "uint256"
        },
        {
          "internalType": "uint256",
          "name": "qACmin_",
          "type": "uint256"
        }
      ],
      "name": "redeemTCandTP",
      "outputs": [
        {
          "internalType": "uint256",
          "name": "operId",
          "type": "uint256"
        }
      ],
      "stateMutability": "payable",
      "type": "function"
    },
    {
      "inputs": [],
      "name": "redeemTCandTPFee",
      "outputs": [
        {
          "internalType": "uint256",
          "name": "",
          "type": "uint256"
        }
      ],
      "stateMutability": "view",
      "type": "function"
    },
    {
      "inputs": [
        {
          "internalType": "address",
          "name": "tp_",
          "type": "address"
        },
        {
          "internalType": "uint256",
          "name": "qTC_",
          "type": "uint256"
        },
        {
          "internalType": "uint256",
          "name": "qTP_",
          "type": "uint256"
        },
        {
          "internalType": "uint256",
          "name": "qACmin_",
          "type": "uint256"
        },
        {
          "internalType": "address",
          "name": "vendor_",
          "type": "address"
        }
      ],
      "name": "redeemTCandTPViaVendor",
      "outputs": [
        {
          "internalType": "uint256",
          "name": "operId",
          "type": "uint256"
        }
      ],
      "stateMutability": "payable",
      "type": "function"
    },
    {
      "inputs": [
        {
          "internalType": "address",
          "name": "tp_",
          "type": "address"
        },
        {
          "internalType": "uint256",
          "name": "qTC_",
          "type": "uint256"
        },
        {
          "internalType": "uint256",
          "name": "qTP_",
          "type": "uint256"
        },
        {
          "internalType": "uint256",
          "name": "qACmin_",
          "type": "uint256"
        },
        {
          "internalType": "address",
          "name": "recipient_",
          "type": "address"
        }
      ],
      "name": "redeemTCandTPto",
      "outputs": [
        {
          "internalType": "uint256",
          "name": "operId",
          "type": "uint256"
        }
      ],
      "stateMutability": "payable",
      "type": "function"
    },
    {
      "inputs": [
        {
          "internalType": "address",
          "name": "tp_",
          "type": "address"
        },
        {
          "internalType": "uint256",
          "name": "qTC_",
          "type": "uint256"
        },
        {
          "internalType": "uint256",
          "name": "qTP_",
          "type": "uint256"
        },
        {
          "internalType": "uint256",
          "name": "qACmin_",
          "type": "uint256"
        },
        {
          "internalType": "address",
          "name": "recipient_",
          "type": "address"
        },
        {
          "internalType": "address",
          "name": "vendor_",
          "type": "address"
        }
      ],
      "name": "redeemTCandTPtoViaVendor",
      "outputs": [
        {
          "internalType": "uint256",
          "name": "operId",
          "type": "uint256"
        }
      ],
      "stateMutability": "payable",
      "type": "function"
    },
    {
      "inputs": [
        {
          "internalType": "uint256",
          "name": "qTC_",
          "type": "uint256"
        },
        {
          "internalType": "uint256",
          "name": "qACmin_",
          "type": "uint256"
        },
        {
          "internalType": "address",
          "name": "recipient_",
          "type": "address"
        }
      ],
      "name": "redeemTCto",
      "outputs": [
        {
          "internalType": "uint256",
          "name": "operId",
          "type": "uint256"
        }
      ],
      "stateMutability": "payable",
      "type": "function"
    },
    {
      "inputs": [
        {
          "internalType": "uint256",
          "name": "qTC_",
          "type": "uint256"
        },
        {
          "internalType": "uint256",
          "name": "qACmin_",
          "type": "uint256"
        },
        {
          "internalType": "address",
          "name": "recipient_",
          "type": "address"
        },
        {
          "internalType": "address",
          "name": "vendor_",
          "type": "address"
        }
      ],
      "name": "redeemTCtoViaVendor",
      "outputs": [
        {
          "internalType": "uint256",
          "name": "operId",
          "type": "uint256"
        }
      ],
      "stateMutability": "payable",
      "type": "function"
    },
    {
      "inputs": [
        {
          "internalType": "address",
          "name": "tp_",
          "type": "address"
        },
        {
          "internalType": "uint256",
          "name": "qTP_",
          "type": "uint256"
        },
        {
          "internalType": "uint256",
          "name": "qACmin_",
          "type": "uint256"
        }
      ],
      "name": "redeemTP",
      "outputs": [
        {
          "internalType": "uint256",
          "name": "operId",
          "type": "uint256"
        }
      ],
      "stateMutability": "payable",
      "type": "function"
    },
    {
      "inputs": [
        {
          "internalType": "address",
          "name": "tp_",
          "type": "address"
        },
        {
          "internalType": "uint256",
          "name": "qTP_",
          "type": "uint256"
        },
        {
          "internalType": "uint256",
          "name": "qACmin_",
          "type": "uint256"
        },
        {
          "internalType": "address",
          "name": "vendor_",
          "type": "address"
        }
      ],
      "name": "redeemTPViaVendor",
      "outputs": [
        {
          "internalType": "uint256",
          "name": "operId",
          "type": "uint256"
        }
      ],
      "stateMutability": "payable",
      "type": "function"
    },
    {
      "inputs": [
        {
          "internalType": "address",
          "name": "tp_",
          "type": "address"
        },
        {
          "internalType": "uint256",
          "name": "qTP_",
          "type": "uint256"
        },
        {
          "internalType": "uint256",
          "name": "qACmin_",
          "type": "uint256"
        },
        {
          "internalType": "address",
          "name": "recipient_",
          "type": "address"
        }
      ],
      "name": "redeemTPto",
      "outputs": [
        {
          "internalType": "uint256",
          "name": "operId",
          "type": "uint256"
        }
      ],
      "stateMutability": "payable",
      "type": "function"
    },
    {
      "inputs": [
        {
          "internalType": "address",
          "name": "tp_",
          "type": "address"
        },
        {
          "internalType": "uint256",
          "name": "qTP_",
          "type": "uint256"
        },
        {
          "internalType": "uint256",
          "name": "qACmin_",
          "type": "uint256"
        },
        {
          "internalType": "address",
          "name": "recipient_",
          "type": "address"
        },
        {
          "internalType": "address",
          "name": "vendor_",
          "type": "address"
        }
      ],
      "name": "redeemTPtoViaVendor",
      "outputs": [
        {
          "internalType": "uint256",
          "name": "operId",
          "type": "uint256"
        }
      ],
      "stateMutability": "payable",
      "type": "function"
    },
    {
      "inputs": [],
      "name": "refreshACBalance",
      "outputs": [],
      "stateMutability": "nonpayable",
      "type": "function"
    },
    {
      "inputs": [
        {
          "internalType": "uint256",
          "name": "appreciationFactor_",
          "type": "uint256"
        }
      ],
      "name": "setAppreciationFactor",
      "outputs": [],
      "stateMutability": "nonpayable",
      "type": "function"
    },
    {
      "inputs": [
        {
          "internalType": "uint256",
          "name": "bes_",
          "type": "uint256"
        }
      ],
      "name": "setBes",
      "outputs": [],
      "stateMutability": "nonpayable",
      "type": "function"
    },
    {
      "inputs": [
        {
          "internalType": "uint256",
          "name": "decayBlockSpan_",
          "type": "uint256"
        }
      ],
      "name": "setDecayBlockSpan",
      "outputs": [],
      "stateMutability": "nonpayable",
      "type": "function"
    },
    {
      "inputs": [
        {
          "internalType": "uint256",
          "name": "blockSpan_",
          "type": "uint256"
        }
      ],
      "name": "setEmaCalculationBlockSpan",
      "outputs": [],
      "stateMutability": "nonpayable",
      "type": "function"
    },
    {
      "inputs": [
        {
          "internalType": "uint256",
          "name": "feeRetainer_",
          "type": "uint256"
        }
      ],
      "name": "setFeeRetainer",
      "outputs": [],
      "stateMutability": "nonpayable",
      "type": "function"
    },
    {
      "inputs": [
        {
          "internalType": "address",
          "name": "mocFeeTokenAddress_",
          "type": "address"
        }
      ],
      "name": "setFeeTokenAddress",
      "outputs": [],
      "stateMutability": "nonpayable",
      "type": "function"
    },
    {
      "inputs": [
        {
          "internalType": "uint256",
          "name": "feeTokenPct_",
          "type": "uint256"
        }
      ],
      "name": "setFeeTokenPct",
      "outputs": [],
      "stateMutability": "nonpayable",
      "type": "function"
    },
    {
      "inputs": [
        {
          "internalType": "address",
          "name": "mocFeeTokenPriceProviderAddress_",
          "type": "address"
        }
      ],
      "name": "setFeeTokenPriceProviderAddress",
      "outputs": [],
      "stateMutability": "nonpayable",
      "type": "function"
    },
    {
      "inputs": [
        {
          "internalType": "bool",
          "name": "liqEnabled_",
          "type": "bool"
        }
      ],
      "name": "setLiqEnabled",
      "outputs": [],
      "stateMutability": "nonpayable",
      "type": "function"
    },
    {
      "inputs": [
        {
          "internalType": "uint256",
          "name": "liqThrld_",
          "type": "uint256"
        }
      ],
      "name": "setLiqThrld",
      "outputs": [],
      "stateMutability": "nonpayable",
      "type": "function"
    },
    {
      "inputs": [
        {
          "internalType": "address",
          "name": "maxAbsoluteOpProviderAddress_",
          "type": "address"
        }
      ],
      "name": "setMaxAbsoluteOpProviderAddress",
      "outputs": [],
      "stateMutability": "nonpayable",
      "type": "function"
    },
    {
      "inputs": [
        {
          "internalType": "address",
          "name": "maxOpDiffProviderAddress_",
          "type": "address"
        }
      ],
      "name": "setMaxOpDiffProviderAddress",
      "outputs": [],
      "stateMutability": "nonpayable",
      "type": "function"
    },
    {
      "inputs": [
        {
          "internalType": "uint256",
          "name": "mintTCandTPFee_",
          "type": "uint256"
        }
      ],
      "name": "setMintTCandTPFee",
      "outputs": [],
      "stateMutability": "nonpayable",
      "type": "function"
    },
    {
      "inputs": [
        {
          "internalType": "address",
          "name": "mocAppreciationBeneficiaryAddress_",
          "type": "address"
        }
      ],
      "name": "setMocAppreciationBeneficiaryAddress",
      "outputs": [],
      "stateMutability": "nonpayable",
      "type": "function"
    },
    {
      "inputs": [
        {
          "internalType": "address",
          "name": "mocCoreExpansion_",
          "type": "address"
        }
      ],
      "name": "setMocCoreExpansion",
      "outputs": [],
      "stateMutability": "nonpayable",
      "type": "function"
    },
    {
      "inputs": [
        {
          "internalType": "address",
          "name": "mocFeeFlowAddress_",
          "type": "address"
        }
      ],
      "name": "setMocFeeFlowAddress",
      "outputs": [],
      "stateMutability": "nonpayable",
      "type": "function"
    },
    {
      "inputs": [
        {
          "internalType": "address",
          "name": "mocQueue_",
          "type": "address"
        }
      ],
      "name": "setMocQueue",
      "outputs": [],
      "stateMutability": "nonpayable",
      "type": "function"
    },
    {
      "inputs": [
        {
          "internalType": "address",
          "name": "mocVendors_",
          "type": "address"
        }
      ],
      "name": "setMocVendors",
      "outputs": [],
      "stateMutability": "nonpayable",
      "type": "function"
    },
    {
      "inputs": [
        {
          "internalType": "address",
          "name": "newPauser_",
          "type": "address"
        }
      ],
      "name": "setPauser",
      "outputs": [],
      "stateMutability": "nonpayable",
      "type": "function"
    },
    {
      "inputs": [
        {
          "internalType": "uint256",
          "name": "protThrld_",
          "type": "uint256"
        }
      ],
      "name": "setProtThrld",
      "outputs": [],
      "stateMutability": "nonpayable",
      "type": "function"
    },
    {
      "inputs": [
        {
          "internalType": "uint256",
          "name": "redeemTCandTPFee_",
          "type": "uint256"
        }
      ],
      "name": "setRedeemTCandTPFee",
      "outputs": [],
      "stateMutability": "nonpayable",
      "type": "function"
    },
    {
      "inputs": [
        {
          "internalType": "uint256",
          "name": "successFee_",
          "type": "uint256"
        }
      ],
      "name": "setSuccessFee",
      "outputs": [],
      "stateMutability": "nonpayable",
      "type": "function"
    },
    {
      "inputs": [
        {
          "internalType": "uint256",
          "name": "swapTCforTPFee_",
          "type": "uint256"
        }
      ],
      "name": "setSwapTCforTPFee",
      "outputs": [],
      "stateMutability": "nonpayable",
      "type": "function"
    },
    {
      "inputs": [
        {
          "internalType": "uint256",
          "name": "swapTPforTCFee_",
          "type": "uint256"
        }
      ],
      "name": "setSwapTPforTCFee",
      "outputs": [],
      "stateMutability": "nonpayable",
      "type": "function"
    },
    {
      "inputs": [
        {
          "internalType": "uint256",
          "name": "swapTPforTPFee_",
          "type": "uint256"
        }
      ],
      "name": "setSwapTPforTPFee",
      "outputs": [],
      "stateMutability": "nonpayable",
      "type": "function"
    },
    {
      "inputs": [
        {
          "internalType": "address",
          "name": "tcInterestCollectorAddress_",
          "type": "address"
        }
      ],
      "name": "setTCInterestCollectorAddress",
      "outputs": [],
      "stateMutability": "nonpayable",
      "type": "function"
    },
    {
      "inputs": [
        {
          "internalType": "uint256",
          "name": "tcInterestPaymentBlockSpan_",
          "type": "uint256"
        }
      ],
      "name": "setTCInterestPaymentBlockSpan",
      "outputs": [],
      "stateMutability": "nonpayable",
      "type": "function"
    },
    {
      "inputs": [
        {
          "internalType": "uint256",
          "name": "tcInterestRate_",
          "type": "uint256"
        }
      ],
      "name": "setTCInterestRate",
      "outputs": [],
      "stateMutability": "nonpayable",
      "type": "function"
    },
    {
      "inputs": [
        {
          "internalType": "uint256",
          "name": "tcMintFee_",
          "type": "uint256"
        }
      ],
      "name": "setTcMintFee",
      "outputs": [],
      "stateMutability": "nonpayable",
      "type": "function"
    },
    {
      "inputs": [
        {
          "internalType": "uint256",
          "name": "tcRedeemFee_",
          "type": "uint256"
        }
      ],
      "name": "setTcRedeemFee",
      "outputs": [],
      "stateMutability": "nonpayable",
      "type": "function"
    },
    {
      "inputs": [],
      "name": "shouldCalculateEma",
      "outputs": [
        {
          "internalType": "bool",
          "name": "",
          "type": "bool"
        }
      ],
      "stateMutability": "view",
      "type": "function"
    },
    {
      "inputs": [],
      "name": "stoppable",
      "outputs": [
        {
          "internalType": "bool",
          "name": "",
          "type": "bool"
        }
      ],
      "stateMutability": "view",
      "type": "function"
    },
    {
      "inputs": [],
      "name": "successFee",
      "outputs": [
        {
          "internalType": "uint256",
          "name": "",
          "type": "uint256"
        }
      ],
      "stateMutability": "view",
      "type": "function"
    },
    {
      "inputs": [
        {
          "internalType": "address",
          "name": "tp_",
          "type": "address"
        },
        {
          "internalType": "uint256",
          "name": "qTC_",
          "type": "uint256"
        },
        {
          "internalType": "uint256",
          "name": "qTPmin_",
          "type": "uint256"
        },
        {
          "internalType": "uint256",
          "name": "qACmax_",
          "type": "uint256"
        }
      ],
      "name": "swapTCforTP",
      "outputs": [
        {
          "internalType": "uint256",
          "name": "operId",
          "type": "uint256"
        }
      ],
      "stateMutability": "payable",
      "type": "function"
    },
    {
      "inputs": [],
      "name": "swapTCforTPFee",
      "outputs": [
        {
          "internalType": "uint256",
          "name": "",
          "type": "uint256"
        }
      ],
      "stateMutability": "view",
      "type": "function"
    },
    {
      "inputs": [
        {
          "internalType": "address",
          "name": "tp_",
          "type": "address"
        },
        {
          "internalType": "uint256",
          "name": "qTC_",
          "type": "uint256"
        },
        {
          "internalType": "uint256",
          "name": "qTPmin_",
          "type": "uint256"
        },
        {
          "internalType": "uint256",
          "name": "qACmax_",
          "type": "uint256"
        },
        {
          "internalType": "address",
          "name": "vendor_",
          "type": "address"
        }
      ],
      "name": "swapTCforTPViaVendor",
      "outputs": [
        {
          "internalType": "uint256",
          "name": "operId",
          "type": "uint256"
        }
      ],
      "stateMutability": "payable",
      "type": "function"
    },
    {
      "inputs": [
        {
          "internalType": "address",
          "name": "tp_",
          "type": "address"
        },
        {
          "internalType": "uint256",
          "name": "qTC_",
          "type": "uint256"
        },
        {
          "internalType": "uint256",
          "name": "qTPmin_",
          "type": "uint256"
        },
        {
          "internalType": "uint256",
          "name": "qACmax_",
          "type": "uint256"
        },
        {
          "internalType": "address",
          "name": "recipient_",
          "type": "address"
        }
      ],
      "name": "swapTCforTPto",
      "outputs": [
        {
          "internalType": "uint256",
          "name": "operId",
          "type": "uint256"
        }
      ],
      "stateMutability": "payable",
      "type": "function"
    },
    {
      "inputs": [
        {
          "internalType": "address",
          "name": "tp_",
          "type": "address"
        },
        {
          "internalType": "uint256",
          "name": "qTC_",
          "type": "uint256"
        },
        {
          "internalType": "uint256",
          "name": "qTPmin_",
          "type": "uint256"
        },
        {
          "internalType": "uint256",
          "name": "qACmax_",
          "type": "uint256"
        },
        {
          "internalType": "address",
          "name": "recipient_",
          "type": "address"
        },
        {
          "internalType": "address",
          "name": "vendor_",
          "type": "address"
        }
      ],
      "name": "swapTCforTPtoViaVendor",
      "outputs": [
        {
          "internalType": "uint256",
          "name": "operId",
          "type": "uint256"
        }
      ],
      "stateMutability": "payable",
      "type": "function"
    },
    {
      "inputs": [
        {
          "internalType": "address",
          "name": "tp_",
          "type": "address"
        },
        {
          "internalType": "uint256",
          "name": "qTP_",
          "type": "uint256"
        },
        {
          "internalType": "uint256",
          "name": "qTCmin_",
          "type": "uint256"
        },
        {
          "internalType": "uint256",
          "name": "qACmax_",
          "type": "uint256"
        }
      ],
      "name": "swapTPforTC",
      "outputs": [
        {
          "internalType": "uint256",
          "name": "operId",
          "type": "uint256"
        }
      ],
      "stateMutability": "payable",
      "type": "function"
    },
    {
      "inputs": [],
      "name": "swapTPforTCFee",
      "outputs": [
        {
          "internalType": "uint256",
          "name": "",
          "type": "uint256"
        }
      ],
      "stateMutability": "view",
      "type": "function"
    },
    {
      "inputs": [
        {
          "internalType": "address",
          "name": "tp_",
          "type": "address"
        },
        {
          "internalType": "uint256",
          "name": "qTP_",
          "type": "uint256"
        },
        {
          "internalType": "uint256",
          "name": "qTCmin_",
          "type": "uint256"
        },
        {
          "internalType": "uint256",
          "name": "qACmax_",
          "type": "uint256"
        },
        {
          "internalType": "address",
          "name": "vendor_",
          "type": "address"
        }
      ],
      "name": "swapTPforTCViaVendor",
      "outputs": [
        {
          "internalType": "uint256",
          "name": "operId",
          "type": "uint256"
        }
      ],
      "stateMutability": "payable",
      "type": "function"
    },
    {
      "inputs": [
        {
          "internalType": "address",
          "name": "tp_",
          "type": "address"
        },
        {
          "internalType": "uint256",
          "name": "qTP_",
          "type": "uint256"
        },
        {
          "internalType": "uint256",
          "name": "qTCmin_",
          "type": "uint256"
        },
        {
          "internalType": "uint256",
          "name": "qACmax_",
          "type": "uint256"
        },
        {
          "internalType": "address",
          "name": "recipient_",
          "type": "address"
        }
      ],
      "name": "swapTPforTCto",
      "outputs": [
        {
          "internalType": "uint256",
          "name": "operId",
          "type": "uint256"
        }
      ],
      "stateMutability": "payable",
      "type": "function"
    },
    {
      "inputs": [
        {
          "internalType": "address",
          "name": "tp_",
          "type": "address"
        },
        {
          "internalType": "uint256",
          "name": "qTP_",
          "type": "uint256"
        },
        {
          "internalType": "uint256",
          "name": "qTCmin_",
          "type": "uint256"
        },
        {
          "internalType": "uint256",
          "name": "qACmax_",
          "type": "uint256"
        },
        {
          "internalType": "address",
          "name": "recipient_",
          "type": "address"
        },
        {
          "internalType": "address",
          "name": "vendor_",
          "type": "address"
        }
      ],
      "name": "swapTPforTCtoViaVendor",
      "outputs": [
        {
          "internalType": "uint256",
          "name": "operId",
          "type": "uint256"
        }
      ],
      "stateMutability": "payable",
      "type": "function"
    },
    {
      "inputs": [
        {
          "internalType": "address",
          "name": "tpFrom_",
          "type": "address"
        },
        {
          "internalType": "address",
          "name": "tpTo_",
          "type": "address"
        },
        {
          "internalType": "uint256",
          "name": "qTP_",
          "type": "uint256"
        },
        {
          "internalType": "uint256",
          "name": "qTPmin_",
          "type": "uint256"
        },
        {
          "internalType": "uint256",
          "name": "qACmax_",
          "type": "uint256"
        }
      ],
      "name": "swapTPforTP",
      "outputs": [
        {
          "internalType": "uint256",
          "name": "operId",
          "type": "uint256"
        }
      ],
      "stateMutability": "payable",
      "type": "function"
    },
    {
      "inputs": [],
      "name": "swapTPforTPFee",
      "outputs": [
        {
          "internalType": "uint256",
          "name": "",
          "type": "uint256"
        }
      ],
      "stateMutability": "view",
      "type": "function"
    },
    {
      "inputs": [
        {
          "internalType": "address",
          "name": "tpFrom_",
          "type": "address"
        },
        {
          "internalType": "address",
          "name": "tpTo_",
          "type": "address"
        },
        {
          "internalType": "uint256",
          "name": "qTP_",
          "type": "uint256"
        },
        {
          "internalType": "uint256",
          "name": "qTPmin_",
          "type": "uint256"
        },
        {
          "internalType": "uint256",
          "name": "qACmax_",
          "type": "uint256"
        },
        {
          "internalType": "address",
          "name": "vendor_",
          "type": "address"
        }
      ],
      "name": "swapTPforTPViaVendor",
      "outputs": [
        {
          "internalType": "uint256",
          "name": "operId",
          "type": "uint256"
        }
      ],
      "stateMutability": "payable",
      "type": "function"
    },
    {
      "inputs": [
        {
          "internalType": "address",
          "name": "tpFrom_",
          "type": "address"
        },
        {
          "internalType": "address",
          "name": "tpTo_",
          "type": "address"
        },
        {
          "internalType": "uint256",
          "name": "qTP_",
          "type": "uint256"
        },
        {
          "internalType": "uint256",
          "name": "qTPmin_",
          "type": "uint256"
        },
        {
          "internalType": "uint256",
          "name": "qACmax_",
          "type": "uint256"
        },
        {
          "internalType": "address",
          "name": "recipient_",
          "type": "address"
        }
      ],
      "name": "swapTPforTPto",
      "outputs": [
        {
          "internalType": "uint256",
          "name": "operId",
          "type": "uint256"
        }
      ],
      "stateMutability": "payable",
      "type": "function"
    },
    {
      "inputs": [
        {
          "internalType": "address",
          "name": "tpFrom_",
          "type": "address"
        },
        {
          "internalType": "address",
          "name": "tpTo_",
          "type": "address"
        },
        {
          "internalType": "uint256",
          "name": "qTP_",
          "type": "uint256"
        },
        {
          "internalType": "uint256",
          "name": "qTPmin_",
          "type": "uint256"
        },
        {
          "internalType": "uint256",
          "name": "qACmax_",
          "type": "uint256"
        },
        {
          "internalType": "address",
          "name": "recipient_",
          "type": "address"
        },
        {
          "internalType": "address",
          "name": "vendor_",
          "type": "address"
        }
      ],
      "name": "swapTPforTPtoViaVendor",
      "outputs": [
        {
          "internalType": "uint256",
          "name": "operId",
          "type": "uint256"
        }
      ],
      "stateMutability": "payable",
      "type": "function"
    },
    {
      "inputs": [],
      "name": "tcHoldersInterestPayment",
      "outputs": [],
      "stateMutability": "nonpayable",
      "type": "function"
    },
    {
      "inputs": [],
      "name": "tcInterestCollectorAddress",
      "outputs": [
        {
          "internalType": "address",
          "name": "",
          "type": "address"
        }
      ],
      "stateMutability": "view",
      "type": "function"
    },
    {
      "inputs": [],
      "name": "tcInterestPaymentBlockSpan",
      "outputs": [
        {
          "internalType": "uint256",
          "name": "",
          "type": "uint256"
        }
      ],
      "stateMutability": "view",
      "type": "function"
    },
    {
      "inputs": [],
      "name": "tcInterestRate",
      "outputs": [
        {
          "internalType": "uint256",
          "name": "",
          "type": "uint256"
        }
      ],
      "stateMutability": "view",
      "type": "function"
    },
    {
      "inputs": [],
      "name": "tcMintFee",
      "outputs": [
        {
          "internalType": "uint256",
          "name": "",
          "type": "uint256"
        }
      ],
      "stateMutability": "view",
      "type": "function"
    },
    {
      "inputs": [],
      "name": "tcRedeemFee",
      "outputs": [
        {
          "internalType": "uint256",
          "name": "",
          "type": "uint256"
        }
      ],
      "stateMutability": "view",
      "type": "function"
    },
    {
      "inputs": [],
      "name": "tcToken",
      "outputs": [
        {
          "internalType": "contract MocTC",
          "name": "",
          "type": "address"
        }
      ],
      "stateMutability": "view",
      "type": "function"
    },
    {
      "inputs": [
        {
          "internalType": "uint256",
          "name": "",
          "type": "uint256"
        }
      ],
      "name": "tpCtarg",
      "outputs": [
        {
          "internalType": "uint256",
          "name": "",
          "type": "uint256"
        }
      ],
      "stateMutability": "view",
      "type": "function"
    },
    {
      "inputs": [
        {
          "internalType": "uint256",
          "name": "",
          "type": "uint256"
        }
      ],
      "name": "tpEma",
      "outputs": [
        {
          "internalType": "uint256",
          "name": "ema",
          "type": "uint256"
        },
        {
          "internalType": "uint256",
          "name": "sf",
          "type": "uint256"
        }
      ],
      "stateMutability": "view",
      "type": "function"
    },
    {
      "inputs": [
        {
          "internalType": "uint256",
          "name": "",
          "type": "uint256"
        }
      ],
      "name": "tpLiqPrices",
      "outputs": [
        {
          "internalType": "uint256",
          "name": "",
          "type": "uint256"
        }
      ],
      "stateMutability": "view",
      "type": "function"
    },
    {
      "inputs": [
        {
          "internalType": "address",
          "name": "",
          "type": "address"
        }
      ],
      "name": "tpMintFees",
      "outputs": [
        {
          "internalType": "uint256",
          "name": "",
          "type": "uint256"
        }
      ],
      "stateMutability": "view",
      "type": "function"
    },
    {
      "inputs": [
        {
          "internalType": "address",
          "name": "",
          "type": "address"
        }
      ],
      "name": "tpRedeemFees",
      "outputs": [
        {
          "internalType": "uint256",
          "name": "",
          "type": "uint256"
        }
      ],
      "stateMutability": "view",
      "type": "function"
    },
    {
      "inputs": [
        {
          "internalType": "uint256",
          "name": "",
          "type": "uint256"
        }
      ],
      "name": "tpTokens",
      "outputs": [
        {
          "internalType": "contract IMocRC20",
          "name": "",
          "type": "address"
        }
      ],
      "stateMutability": "view",
      "type": "function"
    },
    {
      "inputs": [
        {
          "internalType": "address",
          "name": "owner_",
          "type": "address"
        },
        {
          "internalType": "uint256",
          "name": "qACToUnlock_",
          "type": "uint256"
        }
      ],
      "name": "unlockACInPending",
      "outputs": [],
      "stateMutability": "nonpayable",
      "type": "function"
    },
    {
      "inputs": [
        {
          "internalType": "address",
          "name": "owner_",
          "type": "address"
        },
        {
          "internalType": "uint256",
          "name": "qTCToUnlock_",
          "type": "uint256"
        }
      ],
      "name": "unlockTCInPending",
      "outputs": [],
      "stateMutability": "nonpayable",
      "type": "function"
    },
    {
      "inputs": [
        {
          "internalType": "address",
          "name": "owner_",
          "type": "address"
        },
        {
          "internalType": "contract IERC20Upgradeable",
          "name": "tpToken_",
          "type": "address"
        },
        {
          "internalType": "uint256",
          "name": "qTPToUnlock_",
          "type": "uint256"
        }
      ],
      "name": "unlockTPInPending",
      "outputs": [],
      "stateMutability": "nonpayable",
      "type": "function"
    },
    {
      "inputs": [],
      "name": "unpause",
      "outputs": [],
      "stateMutability": "nonpayable",
      "type": "function"
    },
    {
      "inputs": [],
      "name": "updateEmas",
      "outputs": [],
      "stateMutability": "nonpayable",
      "type": "function"
    },
    {
      "inputs": [
        {
          "internalType": "address",
          "name": "newImplementation",
          "type": "address"
        }
      ],
      "name": "upgradeTo",
      "outputs": [],
      "stateMutability": "nonpayable",
      "type": "function"
    },
    {
      "inputs": [
        {
          "internalType": "address",
          "name": "newImplementation",
          "type": "address"
        },
        {
          "internalType": "bytes",
          "name": "data",
          "type": "bytes"
        }
      ],
      "name": "upgradeToAndCall",
      "outputs": [],
      "stateMutability": "payable",
      "type": "function"
    }
  ],
  "bytecode": "0x60a08060405234620000e157306080526000549060ff8260081c166200008f575060ff8082160362000053575b6040516164109081620000e782396080518181816128d001528181612a3b015261343e0152f35b60ff90811916176000557f7f26b83ff96e1f2b6a682f133852f6798a09c465da95921460cefb3847402498602060405160ff8152a1386200002c565b62461bcd60e51b815260206004820152602760248201527f496e697469616c697a61626c653a20636f6e747261637420697320696e697469604482015266616c697a696e6760c81b6064820152608490fd5b600080fdfe6040608081526004908136101561001557600080fd5b600060e0908035821c918262abc30a14613c8357826301dde6ef14613c6057826301f1b68414613c1a5782630579188f14613b70578263073763b914613b4d5782630bb7f60814613b2c5782630c340a2414613b035782630c36d89714613ae35782630d6ac46314613a9e5782630db4965614613a7e5782630e0a8fd214613a5b5782630f1e5e2b14613a1657826313ed7ba5146139ec57826315266e36146139d057826317937f9b1461399a5782631867e2f51461397a5782631fb0dda0146139515782631fe6a7ad146139185782632069f753146138f5578263235e81cf1461377857826323b98cde1461375057826324ffaba31461371457826325bc6c41146136ea57826327eab2a1146136a55782632a20d57d146136855782632b764fad146136695782632c43bd3b146136465782632d88af4a146135f05782632ded50f0146135d0578263333431fd146135b057826333421c38146134bc57826334246862146134a35782633659cfe61461340a5782633915edcb146133da578263391bf6cf1461328c5782633bc4ac0a146132695782633cfb09ef146132245782633dbc50a91461320b5782633f4ba83a146131905782634017936a14613149578263407f0e34146131295782634310adc6146130f557826344719ee9146130bf578263466b89341461308957826346e8fcbb14612c42578263471a80e314612c0c578263484ad7cd14612bd65782634af3a6fc14612b555782634b74600114612b0c5782634d977e7814612aec5782634e1f907a14612ac25782634f0f27ee14612aa25782634f1ef286146129b55782635210570c1461298f57826352d1902d146128ba57826352e18f8f146128a0578263533a4bea1461284e57826353b16d1714612808578263543aeb48146127e55782635860ee63146127c557826358f32de9146127765782635c616a731461256d5782635c975abb146125465782635cfbe578146125265782635ece17ef1461250a57826360009e0b146124e0578263647846a5146124b657826364ec230a14612493578263662013f414612476578263682743571461244d57826368f015df146123ef5782636b5488df146123cf5782636f30471f146123af578263707134681461238c578263735d39601461234757826373e28af91461232457826374873ad3146123085782637554fffd146122e857826376228055146122c85782637750ba0c146122a557826379f9a91c146122855782637a193c31146122655782637a4ff1d9146122425782637a727fe8146122225782637af5758c146121ff5782637b21b274146121e35782637cba2383146121c05782637d8e0314146121825782637f01c715146121585782637f13b998146121225782637f4a4fe014612102578263826fcd58146120df578263842d5748146120c55782638456cb591461203357826385bf959314611fee578263883d21cb14611d7c57826389fd503e14611d635782638acc201114611d4a5782638cfa424114611d2a5782638e2bdb8614611d005782638f1a383a14611cd85782639853c35a14611cae57826398b2086f14611c955782639abb14c914611c745782639ad6659d14611c3e5782639bea71a414611bfc5782639cabfc0014611bb15782639fd0506d14611b845782639fd8ed0e14611b6b578263a8e9ac3014611b48578263aaf91eff14611b2c578263aaf925f614611b12578263ac0c88ab14611af9578263ad4e666d14611958578263aea038dc14611938578263aeb41e691461191c578263b4434c321461168e578263b5e9ea8c14611664578263b85edd651461164b578263b9fa64131461162b578263bb4872de14611607578263bc4e55b2146114a1578263becaca6b1461147e578263bfe426211461120f578263c00f538d146111ec578263c039cc69146111aa578263c09c30bd14611160578263c239fca414611146578263c84353c914611123578263cb7e9057146110f9578263cf351c1d146110b4578263d1a0faa01461109b578263d6af11da1461105f578263d76dc7fd14611046578263d87aab6f14611026578263d8c69aec14610d0e578263d8db6f5a14610cc9578263db79607214610c8a578263ddb6d19014610c4e578263de8d520a14610c1b578263e23c135c14610bc9578263e2c5e99014610b77578263e3867eeb14610b5a578263e401294514610b26578263e4c0aaf414610add578263e6a683e014610a98578263e6b1627c14610a59578263e7c2597814610a34578263e8859a1514610a17578263ea302a97146109fd578263ee1f438f146109d3578263f13f4054146109a9578263f26114aa1461093e57508163f28087781461091c578163f2f9f45614610903578163f30b5614146108e4578163f375cfba146108c5578163f88b14341461085d578163fa6e83bd1461083e578163fadda424146107c7578163fd80fa77146107ac578163fda70f8b1461078957508063fed0ade41461076f5763ffe315391461073057600080fd5b606036600319011261076a57604435916001600160a01b038316830361076a576020926107639133906024359035614523565b9051908152f35b600080fd5b506107636107806020933690613e76565b92919091614523565b82346107a857816003193601126107a85760209061016e549051908152f35b5080fd5b61076391506107be6020943690613f39565b93929092614a82565b8391503461083b57602036600319011261083b57506001600160a01b038135818116810361076a576108056107fd6001926153aa565b610169613e9c565b500154169061081382615446565b92909215610825576020838551908152f35b8351637f6e4db960e01b81529182015260249150fd5b80fd5b82346107a857816003193601126107a85760209061016c549051908152f35b8391503461083b57602036600319011261083b575035906001600160a01b038216820361076a576107636108b76020936108a0610898616193565b9190926153aa565b916108bf6108ae84846150ae565b519485936150c2565b9590946160f0565b90615cc3565b82346107a857816003193601126107a857602090610173549051908152f35b82346107a857816003193601126107a857602090610163549051908152f35b6020836107636109133688613f0c565b92913392614880565b83346107a85760203660031901126107a8576109366162e5565b3561016e5580f35b848491346109a5573660031901126109a15761098b61097d9161099d936109636162e5565b516379308a5560e11b602082015292839160248301616058565b03601f198101835282613eb8565b610226546001600160a01b0316615ee5565b5080f35b8280fd5b8380fd5b5082346107a857816003193601126107a8576101625490516001600160a01b039091168152602090f35b5082346107a857816003193601126107a8576101825490516001600160a01b039091168152602090f35b60208461076384610a0e368a613f39565b93929092614d05565b5082346107a857816003193601126107a8576020906107636160b9565b5082346107a857816003193601126107a85760209060ff61017d541690519015158152f35b508284346109a15760203660031901126109a157356101be80548210156109a55790610a8491613e9c565b506001815491015482519182526020820152f35b5083346107a85760203660031901126107a857356001600160a01b0381169081900361076a57610ac66162e5565b61022680546001600160a01b031916909117905580f35b5083346107a85760203660031901126107a857356001600160a01b038116908190036107a857610b0b6162e5565b6bffffffffffffffffffffffff60a01b609754161760975580f35b508284606036600319011261076a57604435926001600160a01b038416840361076a5760209361076392602435903561478d565b60208461076384610b6b368a613f6b565b94939093929192614bbd565b5083346107a85760603660031901126107a8576001600160a01b039035818116810361076a576024359082821682036109a557610bbd610bc69361025c54163314614e8f565b60443591615000565b80f35b503461083b578060031936011261083b57610be3306144a8565b61016390610c00610bf683548093614485565b61025a5490614485565b80610c09578380f35b610c1291614612565b90558180808380f35b5082346107a857816003193601126107a857602090610763610c43610c3e6154ac565b6150c2565b905061016354614485565b508284346109a15760203660031901126109a157356001600160a01b0381169081900361076a5782829160209452610177845220549051908152f35b848491346109a5573660031901126109a15761098b61097d9161099d93610caf6162e5565b51636dbcb03960e11b602082015292839160248301616058565b5083346107a85760203660031901126107a857356001600160a01b0381169081900361076a57610cf76162e5565b61018280546001600160a01b031916909117905580f35b909150346107a85736600319011261083b57610d28614e68565b5061025c546001600160a01b039190610d449083163314614e8f565b610d4e3685614f8d565b92610d57614e68565b50610d6061503c565b610d68616373565b610d70616251565b610d78616193565b959094610d87858251166153aa565b96610daa610d9589836150ae565b5191610da1838b615c64565b61017c54615792565b989097670de0b6b3a763ffff199081810190811161101357610dcc90846151d3565b610dd684846160f0565b91820191821161101357610e1f94939291610df0916151e6565b91610e096020850193610e048c86516151d3565b6151d3565b670de0b6b3a764000095869161016654906151e6565b049a87850151808d11610ff75750610e399084519b6157d5565b90858c028c810487148d151715610fe25790610e54916151e6565b998a15610fd25791610e7a86610e73610ea59a999896948d98966151d3565b048c614612565b986080840192610e9a878551168c60c08801998a51166101735492615809565b9c91829c919c614485565b9d8e6060880151809110610fb557508f958f98968f9596610f509b9997610ee992610ee2899860a098610eda60018c9a615d54565b309151615aac565b3092615e0e565b51169301511693511690610efb615f2a565b895115610f8f5750610f41610f4b92610f1961016d548c51906151d3565b04610163610f28828254614612565b9055610f3b8c6101785416918c51614485565b90615f81565b8689015190615f81565b615f81565b600161012f55359380851680950361076a57608435908116810361076a57610f8b94610f8191886044350391615000565b5194859485613e36565b0390f35b90610f4b9250610faa8b610178541660208c01519084615fa2565b60608a015191615fa2565b8f8b906044928e51926354cde31360e01b84528301526024820152fd5b875163f3e39b5d60e01b81528790fd5b601188634e487b7160e01b6000525260246000fd5b878d6044928b5192637a031da360e11b84528301526024820152fd5b634e487b7160e01b885260118652602488fd5b5082346107a857816003193601126107a857602090610185549051908152f35b6020846107636110563689613fab565b93929092614a09565b5082346107a857816003193601126107a85760209061076361108160016154e6565b61109561108e8284615206565b9183615150565b9161552d565b503461083b578060031936011261083b57610bc6616251565b5083346107a85760203660031901126107a857356001600160a01b0381169081900361076a576110e26162e5565b61016180546001600160a01b031916909117905580f35b5082346107a857816003193601126107a85761025b5490516001600160a01b039091168152602090f35b5083346107a85760203660031901126107a85761113e6162e5565b3561017e5580f35b60208461076384611157368a613f0c565b92919091614a09565b50828460a03660031901126109a1576001600160a01b0392903590838216820361076a57602435938416840361076a57602093610763923391608435916064359160443591614bbd565b5082346107a857816003193601126107a8576020906107636111df6111e66111d3610c3e6154ac565b61016393919354614485565b9182614485565b90616394565b5083346107a85760203660031901126107a8576112076162e5565b3561016f5580f35b838286346107a85760a03660031901126107a85761122b614e68565b5061025c546001600160a01b03906112469082163314614e8f565b6112503683614ec7565b93611259614e68565b5061126261503c565b61126a616373565b611272616251565b61128561127d616193565b819291615792565b95909161129587848a5193615b2f565b918561025b54168061140e575b50508082106113f25750506112cc86516112c6670de0b6b3a76400009788946157d5565b906151d3565b049182156113e25785826113049697019682885116976112f9608084019987868c511661016f5492615809565b9791829a919a614485565b976020850151808a106113c6575050928798999285806060816113909996611333610f8b9e9a30908951615aac565b51169401511694511691611345615f2a565b8851156113a05750610f4b92610f3b6113869261136761016d548c51906151d3565b0491610163611377848254614612565b90556101785416918a51614485565b8587015190615f81565b600161012f555193849384613dcf565b9190506113bb610f4b93610178541660208a01519084615fa2565b606088015191615fa2565b87516354cde31360e01b81529182015260248101899052604490fd5b815163f3e39b5d60e01b81528490fd5b859250604493519263a5db715d60e01b84528301526024820152fd5b909192602090602487518094819363ea2b5f5d60e01b83528c8301525afa9182156114735791611442575b509088806112a2565b90506020813d821161146b575b8161145c60209383613eb8565b8101031261076a575188611439565b3d915061144f565b8551903d90823e3d90fd5b5083346107a85760203660031901126107a8576114996162e5565b3561016b5580f35b909150346107a85736600319011261083b5750610f8b6115d3916114c3614e68565b5061025c546001600160a01b03946114e9916114e29087163314614e8f565b3690614f8d565b6114f1614e68565b506114fa61503c565b611502616373565b611543611534835163ab6dd71d60e01b60208201526115298161097d308760248401615f07565b876102265416615ee5565b60208082518301019101615e8a565b9492969197909360608101519161155a8984614485565b9261156961025a918254614485565b90558060c08160808501511693015116611581615f2a565b8751156115e3576115c9610f4b92610f3b670de0b6b3a76400006115aa61016d548d51906151d3565b04916101636115ba848254614612565b90556101785416918b51614485565b8588015190615f81565b600161012f555194859485613e36565b6115fb610f4b92610178541660208a01519085615fa2565b60608801519083615fa2565b5082346107a857816003193601126107a85760209060ff60ca541690519015158152f35b5082346107a857816003193601126107a85760209061018b549051908152f35b6020846107638461165c368a613e0d565b913393614d86565b5082346107a857816003193601126107a8576101835490516001600160a01b039091168152602090f35b838286346107a85760c03660031901126107a8576116aa614e68565b5061025c546001600160a01b0393906116c69085163314614e8f565b6116d03683614f24565b906116d9614e68565b506116e261503c565b6116ea616373565b6116f2616251565b6116fa616193565b6117088785939551166153aa565b61172761171582846150ae565b51926117218484615c64565b86615792565b92909561174a60209485870198848c8b5195611743838a6160f0565b9150615cb9565b908a61025b541685816118b2575b5050808210611896575050918798916117766117ac99948851616394565b60608601956117a1858851168360a08401988b898b5116918a87511681526101768a52205492615809565b9a91849d919d614612565b9c8d9b8a84019e8f5180911161187a57508c1561186c57506117f487958f9295879586610f8b9f9e9d9b966080906117e96113909f9d9b86615d54565b519201511692615bcb565b51956118008c88614485565b9661180f61025a918254614485565b905551169351169061181f615f2a565b8751156118495750611386610f4b92610f3b670de0b6b3a764000061136761016d548c51906151d3565b6101785490880151610f4b93611860921685615fa2565b60608701519083615fa2565b8a5163f3e39b5d60e01b8152fd5b8b51630b63f1a760e01b815291820152602481018d9052604490fd5b604491899188519263c39b739f60e01b84528301526024820152fd5b90919260248b8a51948593849263225a6b5560e21b84528301525afa908115611912578a916118e5575b50908b85611758565b90508481813d831161190b575b6118fc8183613eb8565b8101031261076a57518b6118dc565b503d6118f2565b87513d8c823e3d90fd5b60208461076361192c3689613f39565b93929190913393614a82565b5082346107a857816003193601126107a85760209061016f549051908152f35b508284346109a15760c03660031901126109a157611a3a9192611979614e68565b5061025c546001600160a01b0394906119959086163314614e8f565b61199f3684614f24565b916119a8614e68565b506119b161503c565b6119b9616373565b6119c16154ac565b956119ce818551166153aa565b936119f16119dc868a6150ae565b51986119e88a88615c64565b61017b54615792565b5050611a0260208201988951616394565b976060820198611a2f848b51168260a086019789888a511691898951168152610177602052205492615809565b9891839b919b614485565b988215611aeb5787850151808b10611acf57505093806080818b9c9d611a7a82976113909b9997610f8b9f9b611a7160018e615d54565b30925190615e0e565b51169301511693511690611a8c615f2a565b875115611ab65750611386610f4b92610f3b670de0b6b3a764000061136761016d548c51906151d3565b906113bb610f4b93610178541660208a01519084615fa2565b88516354cde31360e01b815291820152602481018a9052604490fd5b875163f3e39b5d60e01b8152fd5b60208461076384611b0a368a613e0d565b913393614d05565b60208461076384611b23368a613f0c565b92919091614880565b602084610763611b3c3689613f39565b93929190913393614d86565b5082346107a857816003193601126107a8576020906101bf544310159051908152f35b602084610763611b7b3689613fab565b93929092614880565b5082346107a857816003193601126107a85760ca54905160109190911c6001600160a01b03168152602090f35b838286346107a85760203660031901126107a857356001600160a01b038116919082900361076a57829181526101686020522060ff6001825492015416825191825215156020820152f35b8385833461083b578260031936011261083b57506001600160a01b03919035828116810361076a57602435928316830361076a57602092610763913390615fc5565b5082346107a857816003193601126107a857602090611c67611c61610c3e6154ac565b9061505e565b61017c5410159051908152f35b5082848160031936011261076a57602092610763913390602435903561478d565b602084610763611ca53689613f0c565b92913392614a09565b5082346107a857816003193601126107a8576101785490516001600160a01b039091168152602090f35b5082346107a857816003193601126107a857602090611cf8610c3e6154ac565b509051908152f35b5082346107a857816003193601126107a8576101885490516001600160a01b039091168152602090f35b5082346107a857816003193601126107a85760209061017c549051908152f35b602084610763611d5a3689613f0c565b9291339261493a565b602084610763611d733689613fab565b9392909261493a565b838286346107a85760c03660031901126107a857611d98614e68565b5061025c546001600160a01b039190611db49083163314614e8f565b611dbe3682614f24565b611dc6614e68565b50611dcf61503c565b611dd7616373565b611ddf6154ac565b94611dec848351166153aa565b92611e06611dfa85896150ae565b5197610da18987615c64565b95906020850192611e23845198611e1d8c8a6160f0565b936157d5565b91670de0b6b3a763ffff198101908111611fdb578a611e45611e4a928b6151d3565b6151e6565b96670de0b6b3a76400009283890289810485148a151715611fc65790611e6f916151e6565b9883810290808204851490151715611fb157611e95611ec998999a9b9c611e9c926151e6565b809a614612565b9a606089019b858d511696611ebe60a08c019883898b51166101745492615809565b9c91849c919c614612565b9c8d968b8301978851809111611f9557508e15611f875750948e9f98969294610f8b9e9f94888097611f1882986115d39f9d9b611f2298611f0c88608093615d54565b019484865116916156ea565b5191511692615bcb565b5195611f2e8d88614485565b96611f3d61025a918254614485565b9055511693511690611f4d615f2a565b885115611f6e57610f4b92610f3b6115c9926115aa61016d548d51906151d3565b506115fb610f4b92610178541660208a01519085615fa2565b8b5163f3e39b5d60e01b8152fd5b8c51630b63f1a760e01b815291820152602481018f9052604490fd5b601183634e487b7160e01b6000525260246000fd5b601184634e487b7160e01b6000525260246000fd5b634e487b7160e01b8a526011825260248afd5b5083346107a85760203660031901126107a857356001600160a01b0381169081900361076a5761201c6162e5565b61018380546001600160a01b031916909117905580f35b508284346109a157826003193601126109a15761204e616373565b60ca5490601082901c6001600160a01b031633036120b75760ff8216156120a9575061ff0019166101001760ca55513381527f62e78cea01bee320cd4e420270b5ea74000d11b0c9f74754ebdbfc544b05a25890602090a180f35b825163866099c360e01b8152fd5b8251631d77d47760e21b8152fd5b602084610763846120d6368a613f39565b93929092614d86565b5082346107a857816003193601126107a857602090610763611c61610c3e6154ac565b5082346107a857816003193601126107a85760209061018a549051908152f35b5082346107a857816003193601126107a85760209061076361214460016154e6565b6110956121518284615150565b9183615206565b5082346107a857816003193601126107a8576101f35490516001600160a01b039091168152602090f35b508284346109a15760203660031901126109a157359161017a90815484101561083b57506020926121b291613d4a565b91905490519160031b1c8152f35b5083346107a85760203660031901126107a8576121db6162e5565b3561017b5580f35b6020846107636121f33689613f6b565b94939290923394614bbd565b5083346107a85760203660031901126107a85761221a6162e5565b356101725580f35b5082346107a857816003193601126107a8576020906101c0549051908152f35b5083346107a85760203660031901126107a85761225d6162e5565b356101735580f35b5082346107a857816003193601126107a857602090610166549051908152f35b5082346107a857816003193601126107a857602090610174549051908152f35b5083346107a85760203660031901126107a8576122c06162e5565b3561016d5580f35b5082346107a857816003193601126107a857602090610186549051908152f35b5082346107a857816003193601126107a85760209061016b549051908152f35b6020846107636123183689613f39565b93929190913393614d05565b5083346107a85760203660031901126107a85761233f6162e5565b356101845580f35b5083346107a85760203660031901126107a857356001600160a01b0381169081900361076a576123756162e5565b61018880546001600160a01b031916909117905580f35b5083346107a85760203660031901126107a8576123a76162e5565b356101705580f35b5082346107a857816003193601126107a857602090610184549051908152f35b5082346107a857816003193601126107a85760209061017b549051908152f35b84925036600319011261083b575035906001600160a01b03808316830361076a5760243590808216820361076a5760a435818116810361076a5760c435918216820361076a5760209461076393608435916064359160443591614bbd565b503461083b578060031936011261083b576124666162e5565b600160ff1960ca54161760ca5580f35b5082346107a857816003193601126107a857602090611cf8616193565b5083346107a85760203660031901126107a8576124ae6162e5565b356101895580f35b5082346107a857816003193601126107a8576101615490516001600160a01b039091168152602090f35b5082346107a857816003193601126107a8576101655490516001600160a01b039091168152602090f35b60208461076361251a3689613d8c565b94939093929192614a82565b5082346107a857816003193601126107a85760209061025a549051908152f35b5082346107a857816003193601126107a85760209060ff60ca5460081c1690519015158152f35b508284346109a157826003193601126109a157612588616373565b61017f9081544310612768575061017e54430190557fd3c59bda47e141a8ec5a33d241b7f71b86e30d359f83a9227d912858b60404fc8280a16125c9615f2a565b61016954826125d7826152ad565b91845b81811061269957505080612654575b918051928184019084526020918285015282518091528160608501930191855b82811061264057867fae5116a8119d08673a0f1dfa7546b95da4bd54bb17feda7c61130ac7859152f687870388a1600161012f5580f35b835185529381019392810192600101612609565b61266b670de0b6b3a76400009161016b54906151d3565b0461016361267a828254614485565b9055610178546126949082906001600160a01b0316615f81565b6125e9565b6126a2816153e5565b6126ac8183615c64565b8661018091866126bc8585613d4a565b90549060031b1c918383136126d9575b50505050506001016125da565b9461271e83829699612724946127188561270b61271161273b9a60019e670de0b6b3a764000093849161016c546151d3565b046151d3565b04926150ae565b52614612565b97613d4a565b819391549060031b91821b91600019901b19161790565b905561275e61274a82876150ae565b5188848060a01b0361017954169184615bcb565b90868886816126cc565b825163101b685960e01b8152fd5b508383346109a1573660031901126107a857356001600160a01b03808216820361076a57610bc691602435916127b28161025c54163314614e8f565b61025a8381540390556102595416615000565b5082346107a857816003193601126107a857602090610187549051908152f35b5083346107a85760203660031901126107a8576128006162e5565b356101755580f35b508383346109a1573660031901126107a857356001600160a01b03808216820361076a57610bc6916128408261025c54163314614e8f565b602435916101655416615000565b5083346107a85760203660031901126107a857356001600160a01b038116810361076a57610bc69061287e6162e5565b6101f380546001600160a01b0319166001600160a01b03909216919091179055565b602084610763846128b1368a613f0c565b9291909161493a565b8385833461083b578060031936011261083b57507f00000000000000000000000000000000000000000000000000000000000000006001600160a01b0316300361292757602082517f360894a13ba1a3210667c828492db98dca3e2076cc3735a920a3ca505d382bbc8152f35b6020608492519162461bcd60e51b8352820152603860248201527f555550535570677261646561626c653a206d757374206e6f742062652063616c60448201527f6c6564207468726f7567682064656c656761746563616c6c00000000000000006064820152fd5b503461083b578060031936011261083b576129a86162e5565b60ff1960ca541660ca5580f35b508284816003193601126109a1576001600160a01b03918135838116810361076a5784936024359367ffffffffffffffff8511612a9e5736602386011215612a9e5784013590612a10612a0783613ef0565b94519485613eb8565b8184523660248387010111612a9e57610bc695602083612a91946024600199018389013786010152807f00000000000000000000000000000000000000000000000000000000000000001690612a6882301415613fdd565b7f360894a13ba1a3210667c828492db98dca3e2076cc3735a920a3ca505d382bbc54161461403e565b612a996162e5565b61409f565b8580fd5b5082346107a857816003193601126107a85760209061016d549051908152f35b5082346107a857816003193601126107a8576101795490516001600160a01b039091168152602090f35b5082346107a857816003193601126107a85760209061017e549051908152f35b508284346109a15760203660031901126109a1573561016980548210156109a55790612b3791613e9c565b50805460019091015482519182526001600160a01b03166020820152f35b909150346107a85736600319011261083b5750610f8b6115d391612b77614e68565b5061025c546001600160a01b0394612b96916114e29087163314614e8f565b612b9e614e68565b50612ba761503c565b612baf616373565b611543611534835163474c3add60e11b60208201526115298161097d308760248401615f07565b508284606036600319011261076a57356001600160a01b038116810361076a576020926107639133906044359060243590614880565b505050606060031936011261076a57604435916001600160a01b038316830361076a57602092610763913390602435903561478d565b508284346109a1576104003660031901126109a15782549060ff8260081c16159182809361307c575b8015613065575b1561300b5760ff198116600117855582612ffa575b506001600160a01b036103c435818116929083900361076a5761025980546001600160a01b0319908116909417905561025b805484169055855460081c60ff1690612cd18261568a565b6103643583811680910361076a5761022690858254161790556103243583811680910361076a5761034435848116810361076a57600191612d118561568a565b612d1a8561568a565b612d238561568a565b612d2c8561568a565b866097541617609755612d3e8461568a565b60ca5490620100008360b01b039060101b169061ff018360b01b031916171760ca55612d698261568a565b60a435670de0b6b3a76400008110612feb5783828660e43593612d8b856163b8565b6101043594612d99866163b8565b6101243595612da7876163b8565b61014435612db4816163b8565b6101643590612dc2826163b8565b61018498893593612dd2856163b8565b6101a43595612de0876163b8565b6101c43597612dee896163b8565b6101e43599612dfc8b6163b8565b610224359c610204359c612e108f8f614612565b612e19906163b8565b3581811680910361076a57610161908382541617905560243581811680910361076a57610162908382541617905560443581811680910361076a57610165908382541617905560643581811680910361076a57610178908382541617905560843590811680910361076a576101799182541617905561017b5560c43561017c5561016d5561016e5561016f5561017055610171556101725561017355610174556101755561016b5561016c55610244358061017e556102643585811680910361076a57610188908782541617905561028435610189556102a435918261018a556102c43586811680910361076a5761018290888254161790556102e43586811680910361076a5761018390888254161790556103043590554361018755430161017f55430161018b5561017d61ffff1981541690556103843590612f5c8361568a565b8115612fdd5750806101c05543016101bf556103a435828116810361076a5761287e612f879261568a565b6103e43590811680910361076a5761025c91825416179055612fa7575080f35b60207f7f26b83ff96e1f2b6a682f133852f6798a09c465da95921460cefb38474024989161ff001984541684555160018152a180f35b8651632a9ffab760e21b8152fd5b508551632a9ffab760e21b8152fd5b61ffff191661010117845584612c87565b835162461bcd60e51b8152602081840152602e60248201527f496e697469616c697a61626c653a20636f6e747261637420697320616c72656160448201526d191e481a5b9a5d1a585b1a5e995960921b6064820152608490fd5b50303b158015612c725750600160ff821614612c72565b50600160ff821610612c6b565b508284606036600319011261076a57356001600160a01b038116810361076a57602092610763913390604435906024359061493a565b508284606036600319011261076a57356001600160a01b038116810361076a576020926107639133906044359060243590614a09565b508284606036600319011261076a57604435926001600160a01b038416840361076a57602093610763926024359035614523565b5082346107a857816003193601126107a857602090610170549051908152f35b5082346107a857816003193601126107a85760209061076361317a61318a613184613172616193565b9390936150c2565b8181939295615b94565b926157d5565b90615b79565b508284346109a157826003193601126109a15760ca549060ff8260081c16156131fd57601082901c6001600160a01b031633036120b7575061ff00191660ca55513381527f5db9ee0a495bf2e6ff9c91a7834c1ba4fdd244a5e8aa4e537bd38aeae4b073aa90602090a180f35b8251637c7fd07960e01b8152fd5b60208461076361321b3689613e76565b9291909161478d565b5083346107a85760203660031901126107a857356001600160a01b0381169081900361076a576132526162e5565b61025c80546001600160a01b031916909117905580f35b5083346107a85760203660031901126107a8576132846162e5565b356101c05580f35b91503461083b57610100908160031936011261083b57506132ab614e68565b5061025c546001600160a01b0394906132c79086163314614e8f565b6132d384519283613eb8565b35848116810361076a578152602435848116810361076a57602082015260443583820152606435606082015260808101608435815260a43593858516850361076a5760a0830194855260c435868116810361076a5760c084015260e43593868516850361076a578695610f8b956133a9611534876115d3958b9901938452613359614e68565b5061336261503c565b61336a616373565b8651631740b6e360e11b602082015290613388906024830190614ca9565b6101243081830152815261339e61014482613eb8565b886102265416615ee5565b98929a919b909751946133bc8c87614485565b956133cb61025a918254614485565b90555116925116611581615f2a565b508284346109a15760203660031901126109a157359161016a90815484101561083b57506020926121b291613d4a565b508284346109a15760203660031901126109a15735906001600160a01b0390818316830361076a57610bc69261346b8386947f00000000000000000000000000000000000000000000000000000000000000001690612a6882301415613fdd565b6134736162e5565b61348861347f84613ef0565b92519283613eb8565b828252601f1961349784613ef0565b0136602084013761409f565b602084610763846134b4368a613e0d565b913393614a82565b50838184346107a857816003193601126107a8576134d8616373565b61017d805460ff8116806135a2575b80613588575b6134f5578380f35b61ff0019166101001790558051927f8b77276c97a5709f0d6db52329848a254eb760ce8be80d281799f633bdb69e838380a1610165546001600160a01b0316803b156109a557839185838193638456cb5960e01b83525af190811561357d575061356d575b50506135646152df565b81818180808380f35b61357691613eb8565b818161355a565b51913d9150823e3d90fd5b50613597611c61610c3e6154ac565b61017c5410156134ed565b5060ff8160081c16156134e7565b5082346107a857816003193601126107a857602090610171549051908152f35b5082346107a857816003193601126107a857602090610175549051908152f35b5083346107a85760203660031901126107a857356001600160a01b03811681036107a85761361c6162e5565b60ca805462010000600160b01b03191660109290921b62010000600160b01b031691909117905580f35b5083346107a85760203660031901126107a8576136616162e5565b3561017c5580f35b6020846107636136793689613d8c565b94939093929192614d86565b5082346107a857816003193601126107a857602090610172549051908152f35b5083346107a85760203660031901126107a857356001600160a01b038116908190036107a8576136d36162e5565b61017980546001600160a01b031916909117905580f35b5082346107a857816003193601126107a8576102595490516001600160a01b039091168152602090f35b508284346109a15760203660031901126109a157356001600160a01b038116908190036109a15782829160209452610176845220549051908152f35b5082346107a857816003193601126107a85760209060ff61017d5460081c1690519015158152f35b508284346109a15760a03660031901126109a15761382c9250613799614e68565b5061025c546001600160a01b0392906137b59084163314614e8f565b6137bf3683614ec7565b916137c8614e68565b506137d161503c565b6137d9616373565b6137e46119e86154ac565b91906137ff85516112c6670de0b6b3a76400009586946157d5565b04948385019281845116926138216080880194898587511661016e5492615809565b98918a9b919b614612565b9860208201928351808c116138d957508a156138cb57509380809361386684610f8b9c9b9a988460606113909c9a985193015116916156ea565b51956138728c88614485565b9661388161025a918254614485565b9055511693511690613891615f2a565b8751156138b257610f4b92610f3b6113869261136761016d548c51906151d3565b50611860610f4b92610178541660208901519085615fa2565b885163f3e39b5d60e01b8152fd5b8951630b63f1a760e01b815291820152602481018b9052604490fd5b5083346107a85760203660031901126107a8576139106162e5565b356101745580f35b5083346107a85760203660031901126107a857358015158091036107a85761393e6162e5565b61017d9060ff8019835416911617905580f35b5082346107a857816003193601126107a857602090610763613974610c3e6154ac565b906157d5565b5082346107a857816003193601126107a85760209061017f549051908152f35b508284346109a15760203660031901126109a15735916001600160a01b038316830361083b575061076360209233903390615fc5565b6020846107636139e03689613d8c565b94939093929192614d05565b5082346107a857816003193601126107a85761025c5490516001600160a01b039091168152602090f35b5083346107a85760203660031901126107a857356001600160a01b038116908190036107a857613a446162e5565b61016280546001600160a01b031916909117905580f35b5083346107a85760203660031901126107a857613a766162e5565b356101715580f35b5082346107a857816003193601126107a857602090610189549051908152f35b5083346107a85760203660031901126107a857356001600160a01b038116908190036107a857613acc6162e5565b61017880546001600160a01b031916909117905580f35b5082346107a857816003193601126107a8576020906101bf549051908152f35b5082346107a857816003193601126107a85760975490516001600160a01b039091168152602090f35b508284816003193601126109a1576020926107639133906024359035614523565b5083346107a85760203660031901126107a857613b686162e5565b3561018a5580f35b508284346109a157826003193601126109a157613b8b616373565b613b93615f2a565b61018b9081544310613c0c575090613c039161018a54430190557f0e37fda283839477a1b77e29acf8336c0e13a5daa967913df0fe5ad258c0822f6020670de0b6b3a7640000613bea6101635461018954906151d3565b049251838152a1610188546001600160a01b0316615f81565b600161012f5580f35b825163acce20e560e01b8152fd5b508284346109a15760203660031901126109a157359161016790815484101561083b5750602092613c4a91613d4a565b905491519160018060a01b039160031b1c168152f35b5083346107a85760203660031901126107a857613c7b6162e5565b3561016c5580f35b508383346109a15760c03660031901126109a157613c9f6162e5565b610163918254918215801590613d3e575b8015613d28575b613d1b575090613cc8913590614612565b90610166613cd96024358254614612565b905555613ce881610169613e9c565b50613cf66044358254614612565b9055613d04816101be613e9c565b5060643590556084356101bf5560a43561018b5580f35b51636ed93c2760e01b8152fd5b50613d3585610169613e9c565b50541515613cb7565b50610166541515613cb0565b8054821015613d625760005260206000200190600090565b634e487b7160e01b600052603260045260246000fd5b35906001600160a01b038216820361076a57565b91908260c091031261076a57613da182613d78565b91602081013591604082013591606081013591613dcc60a0613dc560808501613d78565b9301613d78565b90565b604090613e0b939594929560c0820196825260208201520190606080918051845260208101516020850152604081015160408501520151910152565b565b919082608091031261076a57613e2282613d78565b916020810135916060604083013592013590565b613e0b9360609296959360e08301978352602083015260408201520190606080918051845260208101516020850152604081015160408501520151910152565b919082608091031261076a57813591602081013591613dcc6060613dc560408501613d78565b8054821015613d625760005260206000209060011b0190600090565b90601f8019910116810190811067ffffffffffffffff821117613eda57604052565b634e487b7160e01b600052604160045260246000fd5b67ffffffffffffffff8111613eda57601f01601f191660200190565b919082608091031261076a57613f2182613d78565b91602081013591613dcc606060408401359301613d78565b908160a091031261076a57613f4d81613d78565b91602082013591604081013591613dcc608060608401359301613d78565b91908260c091031261076a57613f8082613d78565b91613f8d60208201613d78565b91604082013591606081013591613dcc60a060808401359301613d78565b908160a091031261076a57613fbf81613d78565b91602082013591604081013591613dcc6080613dc560608501613d78565b15613fe457565b60405162461bcd60e51b815260206004820152602c60248201527f46756e6374696f6e206d7573742062652063616c6c6564207468726f7567682060448201526b19195b1959d85d1958d85b1b60a21b6064820152608490fd5b1561404557565b60405162461bcd60e51b815260206004820152602c60248201527f46756e6374696f6e206d7573742062652063616c6c6564207468726f7567682060448201526b6163746976652070726f787960a01b6064820152608490fd5b9060ff7f4910fdfa16fed3260ed0e7147f7cc6da11a60208b5b9406d12a635614ffd914354166000146140d75750613e0b915061428b565b6040516352d1902d60e01b8152602093919291906001600160a01b038316908581600481855afa6000918161425c575b506141685760405162461bcd60e51b815260048101879052602e60248201527f45524331393637557067726164653a206e657720696d706c656d656e7461746960448201526d6f6e206973206e6f74205555505360901b6064820152608490fd5b9394937fc9f76b5ec45e5cdef99837d7b6d2467235c1df8933c8ca56df5c35afa2c7d444016142055761419a8361428b565b7fbc7cd75a20ee27fd9adebab32041f755214dbc6bffa90cc0225b39da2e5c2d3b600080a2835115908115916141fd575b506141d557505050565b6000806141fa946141e461432d565b9481519101845af46141f4614381565b916143b1565b50565b9050386141cb565b60405162461bcd60e51b815260048101859052602960248201527f45524331393637557067726164653a20756e737570706f727465642070726f786044820152681a58589b195555525160ba1b6064820152608490fd5b90918782813d8311614284575b6142738183613eb8565b8101031261083b5750519038614107565b503d614269565b803b156142d2577f360894a13ba1a3210667c828492db98dca3e2076cc3735a920a3ca505d382bbc80546001600160a01b0319166001600160a01b03909216919091179055565b60405162461bcd60e51b815260206004820152602d60248201527f455243313936373a206e657720696d706c656d656e746174696f6e206973206e60448201526c1bdd08184818dbdb9d1c9858dd609a1b6064820152608490fd5b6143376027613ef0565b906143456040519283613eb8565b60278252660819985a5b195960ca1b6040837f416464726573733a206c6f772d6c6576656c2064656c65676174652063616c6c60208201520152565b3d156143ac573d9061439282613ef0565b916143a06040519384613eb8565b82523d6000602084013e565b606090565b9192901561441357508151156143c5575090565b3b156143ce5790565b60405162461bcd60e51b815260206004820152601d60248201527f416464726573733a2063616c6c20746f206e6f6e2d636f6e74726163740000006044820152606490fd5b8251909150156144265750805190602001fd5b6040519062461bcd60e51b82528160208060048301528251908160248401526000935b82851061446c575050604492506000838284010152601f80199101168101030190fd5b8481018201518686016044015293810193859350614449565b9190820391821161449257565b634e487b7160e01b600052601160045260246000fd5b610259546040516370a0823160e01b81526001600160a01b0392831660048201529160209183916024918391165afa908115614517576000916144e9575090565b906020823d821161450f575b8161450260209383613eb8565b8101031261083b57505190565b3d91506144f5565b6040513d6000823e3d90fd5b9260a46145c0916020939461453661503c565b61453e616373565b6040519661454d60a089613eb8565b87528487018690523360408089019182526001600160a01b0392831660608a0190815293831660808a0190815261025c54915163e97a4d6360e01b81528a5160048201526020909a015160248b01529151831660448a015292518216606489015251811660848801528693849290911690565b34905af1918215614517576000926145dd575b50613dcc9061461f565b90916020823d821161460a575b816145f760209383613eb8565b8101031261083b57505190613dcc6145d3565b3d91506145ea565b9190820180921161449257565b613e0b9061025a614631828254614612565b905561025954309033906001600160a01b03165b6040516323b872dd60e01b60208201526001600160a01b039283166024820152929091166044830152606480830193909352918152613e0b91614689608483613eb8565b61469b565b5190811515820361076a57565b6020916146fe916001600160a01b03166000806146b786613ef0565b936146c56040519586613eb8565b8685527f5361666545524332303a206c6f772d6c6576656c2063616c6c206661696c656487860152868151910182855af16141f4614381565b805182811591821561476e575b50509050156147175750565b6084906040519062461bcd60e51b82526004820152602a60248201527f5361666545524332303a204552433230206f7065726174696f6e20646964206e6044820152691bdd081cdd58d8d9595960b21b6064820152fd5b838092935001031261076a5781614785910161468e565b80823861470b565b9192909261479961503c565b6147a1616373565b604051936147b060a086613eb8565b83855260208086019182523360408088019182526001600160a01b03948516606089019081529585166080890190815261025c54915163fa91a9a560e01b8152985160048a0152935160248901529051841660448801529351831660648701529051821660848601529091849060a4908290851634905af19283156145175760009361484b575b5090613dcc91610165541630903390614645565b90926020823d8211614878575b8161486560209383613eb8565b8101031261083b57505191613dcc614837565b3d9150614858565b93602092936145c09260c49261489461503c565b61489c616373565b604051976148ab60c08a613eb8565b60018060a01b03938493848093168b52888b01528860408b01523360608b01521660808901521660a087015261025c5416946040519586938492637e81a82160e01b845260048401905b60a09081600180821b03918281511685526020810151602086015260408101516040860152826060820151166060860152826080820151166080860152015116910152565b60c4602092946149b29261494c61503c565b614954616373565b6040519761496360c08a613eb8565b60018060a01b0380938180941698898c528a898d015260408c01523360608c01521660808a01521660a088015261025c5416956040519687938492636426c5db60e11b845260048401906148f5565b34905af1928315614517576000936149d4575b5090613dcc9130903390614645565b90926020823d8211614a01575b816149ee60209383613eb8565b8101031261083b57505191613dcc6149c5565b3d91506149e1565b93602092936145c09260c492614a1d61503c565b614a25616373565b60405197614a3460c08a613eb8565b60018060a01b03938493848093168b52888b01528860408b01523360608b01521660808901521660a087015261025c54169460405195869384926323ec24b560e11b845260048401906148f5565b93909193614a8e61503c565b614a96616373565b60405195614aa560e088613eb8565b60018060a01b0380938180941696878a528660208b01528860408b015260608a01523360808a01521660a08801521660c08601526020614b0360e48361025c541697604051988993849263e4e1b72960e01b84526004840190614b6d565b34905af194851561451757600095614b38575b50613dcc939291614b2f91610165541630903390614645565b30903390614645565b90946020823d8211614b65575b81614b5260209383613eb8565b8101031261083b57505193613dcc614b16565b3d9150614b45565b60c0908160018060a01b03918281511685526020810151602086015260408101516040860152606081015160608601528260808201511660808601528260a08201511660a0860152015116910152565b6040614c49929460209496979861010493614bd661503c565b614bde616373565b83519a8b93614bef61010086613eb8565b8a60018060a01b0396879687808097169d8e8352168c820152015260608d01528a60808d01523360a08d01521660c08b01521660e089015261025c54169660405197889384926334975a4160e01b84526004840190614ca9565b34905af193841561451757600094614c74575b50613dcc9291614c6f9130903390614645565b61461f565b90936020823d8211614ca1575b81614c8e60209383613eb8565b8101031261083b57505192613dcc614c5c565b3d9150614c81565b60e0908160018060a01b03918281511685528260208201511660208601526040810151604086015260608101516060860152608081015160808601528260a08201511660a08601528260c08201511660c0860152015116910152565b60e48260208094969798614c4994614d1b61503c565b614d23616373565b6040519a8b98614d3460e08b613eb8565b60018060a01b03958695868095169b8c8152015260408d01528a60608d01523360808d01521660a08b01521660c089015261025c54169660405197889384926263744760e11b84526004840190614b6d565b949391909293614d9461503c565b614d9c616373565b60405195614dab60e088613eb8565b60018060a01b039384938480931689528660208a015260408901528660608901523360808901521660a08701521660c08501526020614e0860e48361025c5416966040519788938492636b59c22f60e01b84526004840190614b6d565b34905af193841561451757600094614e33575b50613dcc9291614c6f91610165541630903390614645565b90936020823d8211614e60575b81614e4d60209383613eb8565b8101031261083b57505192613dcc614e1b565b3d9150614e40565b60405190614e77608083613eb8565b60006060838281528260208201528260408201520152565b15614e9657565b60405162461bcd60e51b81526020600482015260096024820152684e4f5420717565756560b81b6044820152606490fd5b91908260a091031261076a57604051614ee160a082613eb8565b6080614f1f8183958035855260208101356020860152614f0360408201613d78565b6040860152614f1460608201613d78565b606086015201613d78565b910152565b91908260c091031261076a57604051614f3e60c082613eb8565b60a0614f1f818395614f4f81613d78565b85526020810135602086015260408101356040860152614f7160608201613d78565b6060860152614f8260808201613d78565b608086015201613d78565b91908260e091031261076a57604051614fa760e082613eb8565b60c0614f1f818395614fb881613d78565b8552602081013560208601526040810135604086015260608101356060860152614fe460808201613d78565b6080860152614ff560a08201613d78565b60a086015201613d78565b60405163a9059cbb60e01b60208201526001600160a01b03929092166024830152604480830193909352918152613e0b91614689606483613eb8565b60ff61017d5460081c1661504c57565b604051631ca61d7760e01b8152600490fd5b9061506891615277565b61025b546001600160a01b03168061507e575090565b9060209060246040518094819363373ef08960e11b835260048301525afa908115614517576000916144e9575090565b8051821015613d625760209160051b010190565b906000916000906101698054906000925b8284106150f957505050506150f5670de0b6b3a76400009161016b54906151d3565b0490565b909192939561514661513561514060019361513a6151178a886150ae565b51615122818c61516c565b959061512e8d8c613e9c565b5054614612565b616394565b90614612565b98614612565b94019291906150d3565b9190916000838201938412911290801582169115161761449257565b919060009061519a8160009561519061518782610180613d4a565b9390549261521f565b9160031b1c615150565b600081136151a9575b50509190565b6151cb91945061270b92508094670de0b6b3a764000093849161016c546151d3565b0438806151a3565b8181029291811591840414171561449257565b81156151f0570490565b634e487b7160e01b600052601260045260246000fd5b8181039291600013801582851316918412161761449257565b61522b81610169613e9c565b505490670de0b6b3a76400009182810292818404149015171561449257613dcc9261526b61525e61527193610181613d4a565b90549060031b1c846151e6565b926151e6565b90615206565b801561528d57615135613dcc9261016354614485565b505060001990565b67ffffffffffffffff8111613eda5760051b60200190565b906152b782615295565b6152c46040519182613eb8565b82815280926152d5601f1991615295565b0190602036910137565b6101635480156141fa57610169908154916000906152fc846152ad565b9082905b85821061536657505060005b84811061531a575050505050565b61533284611e458561532c85876150ae565b516151d3565b9061016a91825468010000000000000000811015613eda57612724816001958661535e94018155613d4a565b90550161530c565b90926153a2600191615377866153e5565b61538187876150ae565b5261513a61538f8786613e9c565b505461539b88886150ae565b5190616394565b930190615300565b6001600160a01b0316600090815261016860205260409020600181015460ff16156153d3575490565b60405163e6c4247b60e01b8152600490fd5b6153f190610169613e9c565b50600101546001600160a01b031661540881615446565b91909115615414575090565b60249060405190637f6e4db960e01b82526004820152fd5b919082604091031261076a57613dcc60208351930161468e565b604080516359e02dd760e01b81529291839060049082906001600160a01b03165afa91821561451757600090819361547d57509190565b90506154a191925060403d81116154a5575b6154998183613eb8565b81019061542c565b9091565b503d61548f565b61016954906154ba826152ad565b9160005b8181106154c9575050565b806154d56001926153e5565b6154df82876150ae565b52016154be565b90615507670de0b6b3a76400009283610187546101845492430103026151e6565b828110156155245782039180836101855402049261018654020590565b50600091508190565b909161553761558f565b92908082101561558557839161554c91614485565b93111561558057818110156155785761556491614485565b60011c80821015615573575090565b905090565b505050600090565b505090565b5050505050600090565b61018254604080516359e02dd760e01b80825293929091906001600160a01b039081168284600481845afa801561567f57600094859161565c575b5015615645575061018354169080519485528085600481855afa801561563a576000958691615617575b50156156005750509190565b6024925051906305e8989360e11b82526004820152fd5b9050816156319296503d87116154a5576154998183613eb8565b949094386155f4565b50513d6000823e3d90fd5b6024908351906305e8989360e11b82526004820152fd5b9050615676919450833d85116154a5576154998183613eb8565b939093386155ca565b83513d6000823e3d90fd5b1561569157565b60405162461bcd60e51b815260206004820152602b60248201527f496e697469616c697a61626c653a20636f6e7472616374206973206e6f74206960448201526a6e697469616c697a696e6760a81b6064820152608490fd5b615750926020926101666156ff848254614612565b905561570f610163918254614612565b9055610165546040516340c10f1960e01b81526001600160a01b03928316600482015260248101939093529193849290911690829060009082906044820190565b03925af18015614517576157615750565b6020813d821161578a575b8161577960209383613eb8565b8101031261076a576141fa9061468e565b3d915061576c565b919061579d906150c2565b9190926157aa838561505e565b90808211156157b7575050565b6044925060405191637912120160e01b835260048301526024820152fd5b90610166549081156157fa57613dcc926157f56151359261016354614485565b614485565b505050670de0b6b3a764000090565b92909391600091600091829661581d614e68565b966001600160a01b03918590831680615a29575b508261016154168360405193636eb1769f60e11b8552168060048501523060248501526020948585604481865afa948515615a1e5784956159ef575b50846158ce575b50505050508601511561588a575b505050929190565b909192506158a2670de0b6b3a76400009283926151d3565b048085529082156158c6576158be920490816040860152614612565b388080615882565b5090506158be565b6158dc906101625416615446565b9290921561587457909192939b50848b61591685670de0b6b3a76400006159106159068d8d6151d3565b61017554906151d3565b046151e6565b81830181815295908b156159e55750615941916159356060928d6151e6565b91829101528551614612565b809d5b10928315615970575b50505061595d575b808080615874565b8192995052806060880152963880615955565b909192506024604051809481936370a0823160e01b835260048301525afa9081156159da57908b9184916159a9575b501038848161594d565b809250858092503d83116159d3575b6159c28183613eb8565b810103126109a1578a90513861599f565b503d6159b8565b6040513d85823e3d90fd5b915050809d615944565b9094508581813d8311615a17575b615a078183613eb8565b810103126109a55751933861586d565b503d6159fd565b6040513d86823e3d90fd5b9095506020836101f35416916024604051809481936364a731e960e01b835260048301525afa8015615aa1578690615a6e575b615a679150846151d3565b9438615831565b506020813d8211615a99575b81615a8760209383613eb8565b81010312612a9e57615a679051615a5c565b3d9150615a7a565b6040513d88823e3d90fd5b9190610166615abc848254614485565b9055615acc610163918254614485565b9055610165546001600160a01b031691823b1561076a57604051632770a7eb60e21b81526001600160a01b0390921660048301526024820152906000908290818381604481015b03925af1801561451757615b245750565b6000613e0b91613eb8565b615b47615b3d848484615b94565b61318a85856157d5565b9260008412928315615b64575b505050615b5e5790565b50600090565b615b6f92935061505e565b1115388080615b54565b81156151f057600160ff1b8114600019831416614492570590565b9091615ba39061016354614485565b90670de0b6b3a76400009182810292818404149015171561449257613dcc92615271916151d3565b615c4393615c0a600092602095615be482610169613e9c565b50615bf0878254614612565b9055615c00610163918254614612565b9055610167613d4a565b90546040516340c10f1960e01b81526001600160a01b039093166004840152602483019490945290948593928492909183906044820190565b039360039190911b1c6001600160a01b03165af18015614517576157615750565b612724615cb591615c75848261521f565b615cab615c8483610180613d4a565b615c978294925492838360031b1c615150565b919060031b91821b91600019901b19161790565b9055610181613d4a565b9055565b91838591615b4793855b92615cd19295949193615b94565b6000938181029190858212600160ff1b821416615d40578183051490151715615d2c57670de0b6b3a763ffff198201918211615d2c57670de0b6b3a764000091828102928184041490151715615d2c57613dcc929350615b79565b634e487b7160e01b84526011600452602484fd5b634e487b7160e01b86526011600452602486fd5b80615d5d61558f565b919093615d6a60006154e6565b9401938291615e02575b0193846000808212615dfc57505b840391818511615dc4575050818111615da657505061018555610186554361018755565b60449250604051916306da41e560e11b835260048301526024820152fd5b9080859211615dea57604491604051916306da41e560e11b835260048301526024820152fd5b604051630fb4fd3560e11b8152600490fd5b03615d82565b90508160000390615d74565b615e3c919392615e2082610169613e9c565b50615e2c868254614485565b9055615c00610163918254614485565b905460039190911b1c6001600160a01b031691823b1561076a57604051632770a7eb60e21b81526001600160a01b039092166004830152602482015290600090829081838160448101615b13565b80910360e0811261076a578151926020830151926080604082015193605f19011261076a5760c060405191615ec0608084613eb8565b606081015183526080810151602084015260a081015160408401520151606082015290565b90613dcc91600080615ef561432d565b93602081519101845af46141f4614381565b90929160e090615f1c83610100810196614b6d565b6001600160a01b0316910152565b61012f6002815414615f3c5760029055565b60405162461bcd60e51b815260206004820152601f60248201527f5265656e7472616e637947756172643a207265656e7472616e742063616c6c006044820152606490fd5b9080615f8b575050565b61025954613e0b92906001600160a01b0316615000565b919081615fae57505050565b61016154613e0b93906001600160a01b0316614645565b61603391615fd1616373565b615fd9615f2a565b615fe2306144a8565b604051636845c44560e01b60208201526001600160a01b0393841660248201529183166044830152848316606483015260848083019190915281529061602960a483613eb8565b6102265416615ee5565b60208180518101031261076a57602061604f9101518092615f81565b600161012f5590565b60e08101929160c09081906001600160a01b038061607583613d78565b16855261608460208301613d78565b16602085015260408101356040850152606081013560608501526080810135608085015260a081013560a08501520135910152565b61017f5480431015615b5e57613dcc904390614485565b906040516160df604082613eb8565b602060018294805484520154910152565b6160fc8161017a613d4a565b90549060031b1c916101be916161128184613e9c565b5054926101bf54431015616138575b50508082101561558057611e4590613dcc936151d3565b82935061614c616157939261615292613e9c565b506160d0565b61615f565b903880616121565b602081519101805192670de0b6b3a7640000938403908482116144925761618c61513a926150f5956151d3565b92516151d3565b600080610169918254926161a6846152ad565b9382915b8183106161d35750505081156161c757906161c4916151e6565b91565b505061017b5460011b91565b909193926161e0856153e5565b90816161ec87896150ae565b526162056161fa838861516c565b5061512e8886613e9c565b670de0b6b3a764000090818102918183041490151715614492576162426162489261513a85616239600197610e0496616394565b9485918c6160f0565b95614612565b940191906161aa565b6101bf80544310156162605750565b6101695460005b81811061627a5750506101c05443019055565b80807f19156e9379c7bbbce8f646ce5ee30ba860b8f954717405f3d5859a6c1a21ae606001936101be6162b061614c8383613e9c565b906162ce6162c66162c0856153e5565b8461615f565b938492613e9c565b50555160409182519182526020820152a201616267565b60975460405163d994d6d560e01b815233600482015290602090829060249082906001600160a01b03165afa9081156145175760009161633a575b501561632857565b604051631dd1b1b560e21b8152600490fd5b906020823d821161636b575b8161635360209383613eb8565b8101031261083b57506163659061468e565b38616320565b3d9150616346565b60ff60ca5460081c1661638257565b60405163783bb6c960e11b8152600490fd5b90670de0b6b3a76400009182810292818404149015171561449257613dcc916151e6565b670de0b6b3a7640000106163c857565b604051632a9ffab760e21b8152600490fdfea2646970667358221220fa4ec522eddd3f735739d0c9f1fd6c37aba1ecd1c33f8ef4fc3596a2cafbb6d864736f6c63430008120033",
  "linkReferences": {},
  "deployedLinkReferences": {}
}