{
  "_format": "hh-sol-artifact-1",
  "contractName": "MocVendors",
  "sourceName": "moc-main/contracts/vendors/MocVendors.sol",
  "abi": [
    {
      "inputs": [],
      "stateMutability": "nonpayable",
      "type": "constructor"
    },
    {
      "inputs": [],
      "name": "InvalidAddress",
      "type": "error"
    },
    {
      "inputs": [],
      "name": "InvalidValue",
      "type": "error"
    },
    {
      "inputs": [],
      "name": "NotAuthorizedChanger",
      "type": "error"
    },
    {
      "inputs": [
        {
          "internalType": "address",
          "name": "sender_",
          "type": "address"
        }
      ],
      "name": "NotVendorsGuardian",
      "type": "error"
    },
    {
      "inputs": [],
      "name": "NotWhenPaused",
      "type": "error"
    },
    {
      "inputs": [],
      "name": "OnlyPauser",
      "type": "error"
    },
    {
      "inputs": [],
      "name": "OnlyWhilePaused",
      "type": "error"
    },
    {
      "inputs": [],
      "name": "Unstoppable",
      "type": "error"
    },
    {
      "anonymous": false,
      "inputs": [
        {
          "indexed": false,
          "internalType": "address",
          "name": "previousAdmin",
          "type": "address"
        },
        {
          "indexed": false,
          "internalType": "address",
          "name": "newAdmin",
          "type": "address"
        }
      ],
      "name": "AdminChanged",
      "type": "event"
    },
    {
      "anonymous": false,
      "inputs": [
        {
          "indexed": true,
          "internalType": "address",
          "name": "beacon",
          "type": "address"
        }
      ],
      "name": "BeaconUpgraded",
      "type": "event"
    },
    {
      "anonymous": false,
      "inputs": [
        {
          "indexed": false,
          "internalType": "uint8",
          "name": "version",
          "type": "uint8"
        }
      ],
      "name": "Initialized",
      "type": "event"
    },
    {
      "anonymous": false,
      "inputs": [
        {
          "indexed": false,
          "internalType": "address",
          "name": "account",
          "type": "address"
        }
      ],
      "name": "Paused",
      "type": "event"
    },
    {
      "anonymous": false,
      "inputs": [
        {
          "indexed": false,
          "internalType": "address",
          "name": "account",
          "type": "address"
        }
      ],
      "name": "Unpaused",
      "type": "event"
    },
    {
      "anonymous": false,
      "inputs": [
        {
          "indexed": true,
          "internalType": "address",
          "name": "implementation",
          "type": "address"
        }
      ],
      "name": "Upgraded",
      "type": "event"
    },
    {
      "anonymous": false,
      "inputs": [
        {
          "indexed": true,
          "internalType": "address",
          "name": "vendorAddress_",
          "type": "address"
        },
        {
          "indexed": false,
          "internalType": "uint256",
          "name": "newMarkup_",
          "type": "uint256"
        }
      ],
      "name": "VendorMarkupChanged",
      "type": "event"
    },
    {
      "inputs": [
        {
          "internalType": "contract IGovernor",
          "name": "newGovernor_",
          "type": "address"
        }
      ],
      "name": "changeGovernor",
      "outputs": [],
      "stateMutability": "nonpayable",
      "type": "function"
    },
    {
      "inputs": [],
      "name": "governor",
      "outputs": [
        {
          "internalType": "contract IGovernor",
          "name": "",
          "type": "address"
        }
      ],
      "stateMutability": "view",
      "type": "function"
    },
    {
      "inputs": [
        {
          "internalType": "address",
          "name": "vendorsGuardianAddress_",
          "type": "address"
        },
        {
          "internalType": "address",
          "name": "governorAddress_",
          "type": "address"
        },
        {
          "internalType": "address",
          "name": "pauserAddress_",
          "type": "address"
        }
      ],
      "name": "initialize",
      "outputs": [],
      "stateMutability": "nonpayable",
      "type": "function"
    },
    {
      "inputs": [],
      "name": "makeStoppable",
      "outputs": [],
      "stateMutability": "nonpayable",
      "type": "function"
    },
    {
      "inputs": [],
      "name": "makeUnstoppable",
      "outputs": [],
      "stateMutability": "nonpayable",
      "type": "function"
    },
    {
      "inputs": [],
      "name": "pause",
      "outputs": [],
      "stateMutability": "nonpayable",
      "type": "function"
    },
    {
      "inputs": [],
      "name": "paused",
      "outputs": [
        {
          "internalType": "bool",
          "name": "",
          "type": "bool"
        }
      ],
      "stateMutability": "view",
      "type": "function"
    },
    {
      "inputs": [],
      "name": "pauser",
      "outputs": [
        {
          "internalType": "address",
          "name": "",
          "type": "address"
        }
      ],
      "stateMutability": "view",
      "type": "function"
    },
    {
      "inputs": [],
      "name": "proxiableUUID",
      "outputs": [
        {
          "internalType": "bytes32",
          "name": "",
          "type": "bytes32"
        }
      ],
      "stateMutability": "view",
      "type": "function"
    },
    {
      "inputs": [
        {
          "internalType": "uint256",
          "name": "newMarkup_",
          "type": "uint256"
        }
      ],
      "name": "setMarkup",
      "outputs": [],
      "stateMutability": "nonpayable",
      "type": "function"
    },
    {
      "inputs": [
        {
          "internalType": "address",
          "name": "newPauser_",
          "type": "address"
        }
      ],
      "name": "setPauser",
      "outputs": [],
      "stateMutability": "nonpayable",
      "type": "function"
    },
    {
      "inputs": [
        {
          "internalType": "address",
          "name": "vendorAddress_",
          "type": "address"
        },
        {
          "internalType": "uint256",
          "name": "newMarkup_",
          "type": "uint256"
        }
      ],
      "name": "setVendorMarkup",
      "outputs": [],
      "stateMutability": "nonpayable",
      "type": "function"
    },
    {
      "inputs": [
        {
          "internalType": "address",
          "name": "vendorsGuardianAddress_",
          "type": "address"
        }
      ],
      "name": "setVendorsGuardianAddress",
      "outputs": [],
      "stateMutability": "nonpayable",
      "type": "function"
    },
    {
      "inputs": [],
      "name": "stoppable",
      "outputs": [
        {
          "internalType": "bool",
          "name": "",
          "type": "bool"
        }
      ],
      "stateMutability": "view",
      "type": "function"
    },
    {
      "inputs": [],
      "name": "unpause",
      "outputs": [],
      "stateMutability": "nonpayable",
      "type": "function"
    },
    {
      "inputs": [
        {
          "internalType": "address",
          "name": "newImplementation",
          "type": "address"
        }
      ],
      "name": "upgradeTo",
      "outputs": [],
      "stateMutability": "nonpayable",
      "type": "function"
    },
    {
      "inputs": [
        {
          "internalType": "address",
          "name": "newImplementation",
          "type": "address"
        },
        {
          "internalType": "bytes",
          "name": "data",
          "type": "bytes"
        }
      ],
      "name": "upgradeToAndCall",
      "outputs": [],
      "stateMutability": "payable",
      "type": "function"
    },
    {
      "inputs": [
        {
          "internalType": "address",
          "name": "",
          "type": "address"
        }
      ],
      "name": "vendorMarkup",
      "outputs": [
        {
          "internalType": "uint256",
          "name": "",
          "type": "uint256"
        }
      ],
      "stateMutability": "view",
      "type": "function"
    },
    {
      "inputs": [],
      "name": "vendorsGuardianAddress",
      "outputs": [
        {
          "internalType": "address",
          "name": "",
          "type": "address"
        }
      ],
      "stateMutability": "view",
      "type": "function"
    }
  ],
  "bytecode": "0x60a080604052346100dc57306080526000549060ff8260081c1661008a575060ff8082161061004f575b60405161115690816100e28239608051818181610536015281816106850152610a020152f35b60ff90811916176000557f7f26b83ff96e1f2b6a682f133852f6798a09c465da95921460cefb3847402498602060405160ff8152a138610029565b62461bcd60e51b815260206004820152602760248201527f496e697469616c697a61626c653a20636f6e747261637420697320696e697469604482015266616c697a696e6760c81b6064820152608490fd5b600080fdfe6040608081526004908136101561001557600080fd5b600091823560e01c806305216f7214610d215780630c340a2414610cf85780632d88af4a14610cab5780633659cfe6146109db5780633f4ba83a146109635780634f1ef2861461060d5780635210570c146105e657806352d1902d146105215780635c975abb146104fa57806364a731e9146104c157806368274357146104975780638456cb59146103f65780638b9789c9146103d95780639fd0506d146103ac578063bb4872de14610388578063c0c53b8b146101c2578063d6c9858b14610194578063e4c0aaf41461014c5763e6fd7096146100f257600080fd5b3461014857816003193601126101485761010a610d67565b61012f549091906001600160a01b03163303610131575061012e90602435906110ba565b51f35b6024908351906302976a2f60e01b82523390820152fd5b8280fd5b503461014857602036600319011261014857356001600160a01b0381169081900361014857610179610fbf565b6bffffffffffffffffffffffff60a01b609754161760975551f35b5050346101be57816003193601126101be5761012f5490516001600160a01b039091168152602090f35b5080fd5b5034610148576060366003190112610148576101dc610d67565b6024356001600160a01b038181169392918490036103845760443591818316830361038057865460ff8160081c161594858096610373575b801561035c575b156103025750916102939160019493868660ff198316178b556102f1575b506bffffffffffffffffffffffff60a01b9161012f91168282541617905587549560ff8760081c169161026b8361105a565b6102748361105a565b61027d8361105a565b6102868361105a565b609754161760975561105a565b60ca5490620100008360b01b039060101b169061ff018360b01b031916171760ca556102bd575051f35b61ff00191682557f7f26b83ff96e1f2b6a682f133852f6798a09c465da95921460cefb38474024986020825160018152a151f35b61ffff191661010117895538610239565b608490602089519162461bcd60e51b8352820152602e60248201527f496e697469616c697a61626c653a20636f6e747261637420697320616c72656160448201526d191e481a5b9a5d1a585b1a5e995960921b6064820152fd5b50303b15801561021b5750600160ff83161461021b565b50600160ff831610610214565b8680fd5b8580fd5b5050346101be57816003193601126101be5760209060ff60ca541690519015158152f35b5050346101be57816003193601126101be5760ca54905160109190911c6001600160a01b03168152602090f35b50346101485760203660031901126101485761012e9035336110ba565b503461014857826003193601126101485760ca549060ff8260081c1661048957601082901c6001600160a01b0316330361047b5760ff82161561046d57506101009061ff0019161760ca557f62e78cea01bee320cd4e420270b5ea74000d11b0c9f74754ebdbfc544b05a25860208251338152a151f35b825163866099c360e01b8152fd5b8251631d77d47760e21b8152fd5b825163783bb6c960e11b8152fd5b5050346101be57816003193601126101be576104b1610fbf565b600160ff1960ca54161760ca5551f35b5050346101be5760203660031901126101be5760209181906001600160a01b036104e9610d67565b168152610130845220549051908152f35b5050346101be57816003193601126101be5760209060ff60ca5460081c1690519015158152f35b5082346105e357806003193601126105e357507f00000000000000000000000000000000000000000000000000000000000000006001600160a01b0316300361057b57602082516000805160206111018339815191528152f35b6020608492519162461bcd60e51b8352820152603860248201527f555550535570677261646561626c653a206d757374206e6f742062652063616c60448201527f6c6564207468726f7567682064656c656761746563616c6c00000000000000006064820152fd5b80fd5b5050346101be57816003193601126101be57610600610fbf565b60ff1960ca541660ca5551f35b508160031936011261014857610621610d67565b90602490813567ffffffffffffffff81116103845736602382011215610384578082013561064e81610dd6565b61065a87519182610db4565b8181528760209384830193368882840101116101485780888793018637830101526001600160a01b037f00000000000000000000000000000000000000000000000000000000000000008116906106b330831415610df2565b6106d0600080516020611101833981519152928284541614610e53565b6106d8610fbf565b7f4910fdfa16fed3260ed0e7147f7cc6da11a60208b5b9406d12a635614ffd91435460ff1615610712575050505050505061012e90610eb4565b8794979995989699169086516352d1902d60e01b815288818b81865afa879181610930575b5061079557875162461bcd60e51b8152808b018a9052602e818d01527f45524331393637557067726164653a206e657720696d706c656d656e7461746960448201526d6f6e206973206e6f74205555505360901b6064820152608490fd5b999294969891939599036108de576107ac86610eb4565b8751927fbc7cd75a20ee27fd9adebab32041f755214dbc6bffa90cc0225b39da2e5c2d3b8a85a28351158015906108d6575b6107ed575b5050505050505051f35b853b156108885750505061087393928692839251915af43d15610880573d9061081582610dd6565b9161082286519384610db4565b82523d868484013e5b7f416464726573733a206c6f772d6c6576656c2064656c65676174652063616c6c85519361085885610d82565b60278552840152660819985a5b195960ca1b85840152610f44565b50388080808080806107e3565b60609061082b565b62461bcd60e51b835282018690526026908201527f416464726573733a2064656c65676174652063616c6c20746f206e6f6e2d636f6044820152651b9d1c9858dd60d21b6064820152608490fd5b5060016107de565b6029608492888a519362461bcd60e51b85528401528201527f45524331393637557067726164653a20756e737570706f727465642070726f786044820152681a58589b195555525160ba1b6064820152fd5b9091508981813d831161095c575b6109488183610db4565b8101031261095857519038610737565b8780fd5b503d61093e565b503461014857826003193601126101485760ca549060ff8260081c16156109cd57601082901c6001600160a01b0316330361047b575061ff00191660ca557f5db9ee0a495bf2e6ff9c91a7834c1ba4fdd244a5e8aa4e537bd38aeae4b073aa60208251338152a151f35b8251637c7fd07960e01b8152fd5b50903461014857602080600319360112610ca7576109f7610d67565b906001600160a01b037f00000000000000000000000000000000000000000000000000000000000000008116610a2f30821415610df2565b610a4c600080516020611101833981519152918383541614610e53565b610a54610fbf565b8451908382019282841067ffffffffffffffff851117610c94578387528883527f4910fdfa16fed3260ed0e7147f7cc6da11a60208b5b9406d12a635614ffd91435460ff1615610aae57505050505061012e919250610eb4565b85949695169085516352d1902d60e01b815287818a81865afa8a9181610c61575b50610b2e57865162461bcd60e51b8152808a01899052602e60248201527f45524331393637557067726164653a206e657720696d706c656d656e7461746960448201526d6f6e206973206e6f74205555505360901b6064820152608490fd5b9791929394959703610c0c57610b4385610eb4565b8651917fbc7cd75a20ee27fd9adebab32041f755214dbc6bffa90cc0225b39da2e5c2d3b8984a2825115801590610c05575b610b83575b50505050505051f35b843b15610bb6575050610baa93928692839251915af43d15610880573d9061081582610dd6565b50388080808080610b7a565b62461bcd60e51b82528101859052602660248201527f416464726573733a2064656c65676174652063616c6c20746f206e6f6e2d636f6044820152651b9d1c9858dd60d21b6064820152608490fd5b5087610b75565b865162461bcd60e51b8152908101869052602960248201527f45524331393637557067726164653a20756e737570706f727465642070726f786044820152681a58589b195555525160ba1b6064820152608490fd5b9091508881813d8311610c8d575b610c798183610db4565b81010312610c8957519038610acf565b8a80fd5b503d610c6f565b634e487b7160e01b895260418852602489fd5b8380fd5b5050346101be5760203660031901126101be57610cc6610d67565b610cce610fbf565b60ca805462010000600160b01b03191660109290921b62010000600160b01b031691909117905551f35b5050346101be57816003193601126101be5760975490516001600160a01b039091168152602090f35b5050346101be5760203660031901126101be57610d3c610d67565b610d44610fbf565b61012f80546001600160a01b0319166001600160a01b0390921691909117905551f35b600435906001600160a01b0382168203610d7d57565b600080fd5b6060810190811067ffffffffffffffff821117610d9e57604052565b634e487b7160e01b600052604160045260246000fd5b90601f8019910116810190811067ffffffffffffffff821117610d9e57604052565b67ffffffffffffffff8111610d9e57601f01601f191660200190565b15610df957565b60405162461bcd60e51b815260206004820152602c60248201527f46756e6374696f6e206d7573742062652063616c6c6564207468726f7567682060448201526b19195b1959d85d1958d85b1b60a21b6064820152608490fd5b15610e5a57565b60405162461bcd60e51b815260206004820152602c60248201527f46756e6374696f6e206d7573742062652063616c6c6564207468726f7567682060448201526b6163746976652070726f787960a01b6064820152608490fd5b803b15610ee95760008051602061110183398151915280546001600160a01b0319166001600160a01b03909216919091179055565b60405162461bcd60e51b815260206004820152602d60248201527f455243313936373a206e657720696d706c656d656e746174696f6e206973206e60448201526c1bdd08184818dbdb9d1c9858dd609a1b6064820152608490fd5b90919015610f50575090565b815115610f605750805190602001fd5b6040519062461bcd60e51b82528160208060048301528251908160248401526000935b828510610fa6575050604492506000838284010152601f80199101168101030190fd5b8481018201518686016044015293810193859350610f83565b60975460405163d994d6d560e01b815233600482015290602090829060249082906001600160a01b03165afa90811561104e57600091611014575b501561100257565b604051631dd1b1b560e21b8152600490fd5b6020813d8211611046575b8161102c60209383610db4565b810103126101be57519081151582036105e3575038610ffa565b3d915061101f565b6040513d6000823e3d90fd5b1561106157565b60405162461bcd60e51b815260206004820152602b60248201527f496e697469616c697a61626c653a20636f6e7472616374206973206e6f74206960448201526a6e697469616c697a696e6760a81b6064820152608490fd5b60207f0edb810b4a4ba5ab81b2765b443d63011146e0d69f7604ea7205676bae0995b39160018060a01b03169283600052610130825280604060002055604051908152a256fe360894a13ba1a3210667c828492db98dca3e2076cc3735a920a3ca505d382bbca2646970667358221220e8db9adae2be13ddab459a2f488ca52683d6719e7196b4796ff1e5cb290bc9ac64736f6c63430008100033",
  "linkReferences": {},
  "deployedLinkReferences": {}
}