{
  "_format": "hh-sol-artifact-1",
  "contractName": "MocVendors",
  "sourceName": "moc-main/contracts/vendors/MocVendors.sol",
  "abi": [
    {
      "inputs": [],
      "stateMutability": "nonpayable",
      "type": "constructor"
    },
    {
      "inputs": [],
      "name": "InvalidAddress",
      "type": "error"
    },
    {
      "inputs": [],
      "name": "InvalidValue",
      "type": "error"
    },
    {
      "inputs": [],
      "name": "NotAuthorizedChanger",
      "type": "error"
    },
    {
      "inputs": [
        {
          "internalType": "address",
          "name": "sender_",
          "type": "address"
        }
      ],
      "name": "NotVendorsGuardian",
      "type": "error"
    },
    {
      "inputs": [],
      "name": "NotWhenPaused",
      "type": "error"
    },
    {
      "inputs": [],
      "name": "OnlyPauser",
      "type": "error"
    },
    {
      "inputs": [],
      "name": "OnlyWhilePaused",
      "type": "error"
    },
    {
      "inputs": [],
      "name": "Unstoppable",
      "type": "error"
    },
    {
      "anonymous": false,
      "inputs": [
        {
          "indexed": false,
          "internalType": "address",
          "name": "previousAdmin",
          "type": "address"
        },
        {
          "indexed": false,
          "internalType": "address",
          "name": "newAdmin",
          "type": "address"
        }
      ],
      "name": "AdminChanged",
      "type": "event"
    },
    {
      "anonymous": false,
      "inputs": [
        {
          "indexed": true,
          "internalType": "address",
          "name": "beacon",
          "type": "address"
        }
      ],
      "name": "BeaconUpgraded",
      "type": "event"
    },
    {
      "anonymous": false,
      "inputs": [
        {
          "indexed": false,
          "internalType": "uint8",
          "name": "version",
          "type": "uint8"
        }
      ],
      "name": "Initialized",
      "type": "event"
    },
    {
      "anonymous": false,
      "inputs": [
        {
          "indexed": false,
          "internalType": "address",
          "name": "account",
          "type": "address"
        }
      ],
      "name": "Paused",
      "type": "event"
    },
    {
      "anonymous": false,
      "inputs": [
        {
          "indexed": false,
          "internalType": "address",
          "name": "account",
          "type": "address"
        }
      ],
      "name": "Unpaused",
      "type": "event"
    },
    {
      "anonymous": false,
      "inputs": [
        {
          "indexed": true,
          "internalType": "address",
          "name": "implementation",
          "type": "address"
        }
      ],
      "name": "Upgraded",
      "type": "event"
    },
    {
      "anonymous": false,
      "inputs": [
        {
          "indexed": true,
          "internalType": "address",
          "name": "vendorAddress_",
          "type": "address"
        },
        {
          "indexed": false,
          "internalType": "uint256",
          "name": "newMarkup_",
          "type": "uint256"
        }
      ],
      "name": "VendorMarkupChanged",
      "type": "event"
    },
    {
      "inputs": [
        {
          "internalType": "contract IGovernor",
          "name": "newGovernor_",
          "type": "address"
        }
      ],
      "name": "changeGovernor",
      "outputs": [],
      "stateMutability": "nonpayable",
      "type": "function"
    },
    {
      "inputs": [],
      "name": "governor",
      "outputs": [
        {
          "internalType": "contract IGovernor",
          "name": "",
          "type": "address"
        }
      ],
      "stateMutability": "view",
      "type": "function"
    },
    {
      "inputs": [
        {
          "internalType": "address",
          "name": "vendorsGuardianAddress_",
          "type": "address"
        },
        {
          "internalType": "address",
          "name": "governorAddress_",
          "type": "address"
        },
        {
          "internalType": "address",
          "name": "pauserAddress_",
          "type": "address"
        }
      ],
      "name": "initialize",
      "outputs": [],
      "stateMutability": "nonpayable",
      "type": "function"
    },
    {
      "inputs": [],
      "name": "makeStoppable",
      "outputs": [],
      "stateMutability": "nonpayable",
      "type": "function"
    },
    {
      "inputs": [],
      "name": "makeUnstoppable",
      "outputs": [],
      "stateMutability": "nonpayable",
      "type": "function"
    },
    {
      "inputs": [],
      "name": "pause",
      "outputs": [],
      "stateMutability": "nonpayable",
      "type": "function"
    },
    {
      "inputs": [],
      "name": "paused",
      "outputs": [
        {
          "internalType": "bool",
          "name": "",
          "type": "bool"
        }
      ],
      "stateMutability": "view",
      "type": "function"
    },
    {
      "inputs": [],
      "name": "pauser",
      "outputs": [
        {
          "internalType": "address",
          "name": "",
          "type": "address"
        }
      ],
      "stateMutability": "view",
      "type": "function"
    },
    {
      "inputs": [],
      "name": "proxiableUUID",
      "outputs": [
        {
          "internalType": "bytes32",
          "name": "",
          "type": "bytes32"
        }
      ],
      "stateMutability": "view",
      "type": "function"
    },
    {
      "inputs": [
        {
          "internalType": "uint256",
          "name": "newMarkup_",
          "type": "uint256"
        }
      ],
      "name": "setMarkup",
      "outputs": [],
      "stateMutability": "nonpayable",
      "type": "function"
    },
    {
      "inputs": [
        {
          "internalType": "address",
          "name": "newPauser_",
          "type": "address"
        }
      ],
      "name": "setPauser",
      "outputs": [],
      "stateMutability": "nonpayable",
      "type": "function"
    },
    {
      "inputs": [
        {
          "internalType": "address",
          "name": "vendorAddress_",
          "type": "address"
        },
        {
          "internalType": "uint256",
          "name": "newMarkup_",
          "type": "uint256"
        }
      ],
      "name": "setVendorMarkup",
      "outputs": [],
      "stateMutability": "nonpayable",
      "type": "function"
    },
    {
      "inputs": [
        {
          "internalType": "address",
          "name": "vendorsGuardianAddress_",
          "type": "address"
        }
      ],
      "name": "setVendorsGuardianAddress",
      "outputs": [],
      "stateMutability": "nonpayable",
      "type": "function"
    },
    {
      "inputs": [],
      "name": "stoppable",
      "outputs": [
        {
          "internalType": "bool",
          "name": "",
          "type": "bool"
        }
      ],
      "stateMutability": "view",
      "type": "function"
    },
    {
      "inputs": [],
      "name": "unpause",
      "outputs": [],
      "stateMutability": "nonpayable",
      "type": "function"
    },
    {
      "inputs": [
        {
          "internalType": "address",
          "name": "newImplementation",
          "type": "address"
        }
      ],
      "name": "upgradeTo",
      "outputs": [],
      "stateMutability": "nonpayable",
      "type": "function"
    },
    {
      "inputs": [
        {
          "internalType": "address",
          "name": "newImplementation",
          "type": "address"
        },
        {
          "internalType": "bytes",
          "name": "data",
          "type": "bytes"
        }
      ],
      "name": "upgradeToAndCall",
      "outputs": [],
      "stateMutability": "payable",
      "type": "function"
    },
    {
      "inputs": [
        {
          "internalType": "address",
          "name": "",
          "type": "address"
        }
      ],
      "name": "vendorMarkup",
      "outputs": [
        {
          "internalType": "uint256",
          "name": "",
          "type": "uint256"
        }
      ],
      "stateMutability": "view",
      "type": "function"
    },
    {
      "inputs": [],
      "name": "vendorsGuardianAddress",
      "outputs": [
        {
          "internalType": "address",
          "name": "",
          "type": "address"
        }
      ],
      "stateMutability": "view",
      "type": "function"
    }
  ],
  "bytecode": "0x60a080604052346100dc57306080526000549060ff8260081c1661008a575060ff8082160361004f575b604051610fcd90816100e28239608051818181610544015281816106ac01526108400152f35b60ff90811916176000557f7f26b83ff96e1f2b6a682f133852f6798a09c465da95921460cefb3847402498602060405160ff8152a138610029565b62461bcd60e51b815260206004820152602760248201527f496e697469616c697a61626c653a20636f6e747261637420697320696e697469604482015266616c697a696e6760c81b6064820152608490fd5b600080fdfe6040608081526004908136101561001557600080fd5b600091823560e01c806305216f72146109245780630c340a24146108fb5780632d88af4a146108a5578381633659cfe61461080e575080633f4ba83a14610713578381634f1ef28614610629575080635210570c1461060357806352d1902d1461052f5780635c975abb1461050857806364a731e9146104ce57806368274357146104a25780638456cb59146104015780638b9789c9146103e35780639fd0506d146103b6578063bb4872de14610392578063c0c53b8b146101cb578063d6c9858b146101a1578063e4c0aaf4146101545763e6fd7096146100f657600080fd5b346101505781600319360112610150578035916001600160a01b03808416840361014c5761012f54163303610135578361013260243585610f51565b80f35b6024925051906302976a2f60e01b82523390820152fd5b8480fd5b8280fd5b83823461019d57602036600319011261019d57356001600160a01b0381169081900361019d57610182610e72565b6bffffffffffffffffffffffff60a01b609754161760975580f35b5080fd5b50503461019d578160031936011261019d5761012f5490516001600160a01b039091168152602090f35b50346101505760603660031901126101505780356001600160a01b03818116929183900361014c576024359281841680940361038e57604435918216820361038e57855460ff8160081c161593848095610381575b801561036a575b1561031057506001929161029d91858560ff198316178a556102ff575b506bffffffffffffffffffffffff60a01b9061012f908282541617905587549560ff8760081c169161027583610ef1565b61027e83610ef1565b61028783610ef1565b61029083610ef1565b6097541617609755610ef1565b60ca5490620100008360b01b039060101b169061ff018360b01b031916171760ca556102c7578280f35b61ff001916825551600181527f7f26b83ff96e1f2b6a682f133852f6798a09c465da95921460cefb384740249890602090a138808280f35b61ffff191661010117885538610244565b608490602088519162461bcd60e51b8352820152602e60248201527f496e697469616c697a61626c653a20636f6e747261637420697320616c72656160448201526d191e481a5b9a5d1a585b1a5e995960921b6064820152fd5b50303b1580156102275750600160ff831614610227565b50600160ff831610610220565b8580fd5b50503461019d578160031936011261019d5760209060ff60ca541690519015158152f35b50503461019d578160031936011261019d5760ca54905160109190911c6001600160a01b03168152602090f35b83823461019d57602036600319011261019d57610132903533610f51565b503461015057826003193601126101505760ca549060ff8260081c1661049457601082901c6001600160a01b031633036104865760ff821615610478575061ff0019166101001760ca55513381527f62e78cea01bee320cd4e420270b5ea74000d11b0c9f74754ebdbfc544b05a25890602090a180f35b825163866099c360e01b8152fd5b8251631d77d47760e21b8152fd5b825163783bb6c960e11b8152fd5b83346104cb57806003193601126104cb576104bb610e72565b600160ff1960ca54161760ca5580f35b80fd5b503461015057602036600319011261015057356001600160a01b038116908190036101505782829160209452610130845220549051908152f35b50503461019d578160031936011261019d5760209060ff60ca5460081c1690519015158152f35b5082346104cb57806003193601126104cb57507f00000000000000000000000000000000000000000000000000000000000000006001600160a01b0316300361059b57602082517f360894a13ba1a3210667c828492db98dca3e2076cc3735a920a3ca505d382bbc8152f35b6020608492519162461bcd60e51b8352820152603860248201527f555550535570677261646561626c653a206d757374206e6f742062652063616c60448201527f6c6564207468726f7567682064656c656761746563616c6c00000000000000006064820152fd5b83346104cb57806003193601126104cb5761061c610e72565b60ff1960ca541660ca5580f35b9280915060031936011261070f5781356001600160a01b03808216820361014c576024359367ffffffffffffffff851161038e573660238601121561038e5784013590610681610678836109a1565b94519485610969565b818452366024838701011161038e5761013295602083610702946024600199018389013786010152807f000000000000000000000000000000000000000000000000000000000000000016906106d9823014156109bd565b7f360894a13ba1a3210667c828492db98dca3e2076cc3735a920a3ca505d382bbc541614610a1e565b61070a610e72565b610a7f565b5050fd5b503461015057826003193601126101505760ca549060ff8260081c16156108005760018060a01b03808360101c16331415908161078f575b506104865760ff821615610478575061ff00191660ca55513381527f5db9ee0a495bf2e6ff9c91a7834c1ba4fdd244a5e8aa4e537bd38aeae4b073aa90602090a180f35b609754855163d994d6d560e01b81523385820152925060209183916024918391165afa9081156107f65785916107c8575b50153861074b565b6107e9915060203d81116107ef575b6107e18183610969565b810190610e55565b386107c0565b503d6107d7565b84513d87823e3d90fd5b8251637c7fd07960e01b8152fd5b9190503461019d57602036600319011261019d576001600160a01b0392903583811681036101505761086d84610132957f000000000000000000000000000000000000000000000000000000000000000016906106d9823014156109bd565b610875610e72565b61088a610881846109a1565b92519283610969565b828252601f19610899846109a1565b01366020840137610a7f565b83823461019d57602036600319011261019d57356001600160a01b038116810361019d576108d1610e72565b60ca805462010000600160b01b03191660109290921b62010000600160b01b031691909117905580f35b50503461019d578160031936011261019d5760975490516001600160a01b039091168152602090f35b83823461019d57602036600319011261019d57356001600160a01b0381169081900361019d57610952610e72565b61012f80546001600160a01b031916909117905580f35b90601f8019910116810190811067ffffffffffffffff82111761098b57604052565b634e487b7160e01b600052604160045260246000fd5b67ffffffffffffffff811161098b57601f01601f191660200190565b156109c457565b60405162461bcd60e51b815260206004820152602c60248201527f46756e6374696f6e206d7573742062652063616c6c6564207468726f7567682060448201526b19195b1959d85d1958d85b1b60a21b6064820152608490fd5b15610a2557565b60405162461bcd60e51b815260206004820152602c60248201527f46756e6374696f6e206d7573742062652063616c6c6564207468726f7567682060448201526b6163746976652070726f787960a01b6064820152608490fd5b909160ff7f4910fdfa16fed3260ed0e7147f7cc6da11a60208b5b9406d12a635614ffd91435416600014610aba5750610ab89150610cdf565b565b604080516352d1902d60e01b8152602094919392906001600160a01b038416908681600481855afa60009181610cb0575b50610b4b57855162461bcd60e51b815260048101889052602e60248201527f45524331393637557067726164653a206e657720696d706c656d656e7461746960448201526d6f6e206973206e6f74205555505360901b6064820152608490fd5b9395929492937fc9f76b5ec45e5cdef99837d7b6d2467235c1df8933c8ca56df5c35afa2c7d44401610c5a57610b8086610cdf565b7fbc7cd75a20ee27fd9adebab32041f755214dbc6bffa90cc0225b39da2e5c2d3b600080a283511590811591610c52575b50610bbd575b50505050565b610c3e93600080610bce60276109a1565b95610bdb85519788610969565b602787527f416464726573733a206c6f772d6c6576656c2064656c65676174652063616c6c86880152660819985a5b195960ca1b858801528581519101845af4913d15610c48573d610c2f610881826109a1565b8152600081943d92013e610d81565b5038808080610bb7565b5060609250610d81565b905038610bb1565b825162461bcd60e51b815260048101859052602960248201527f45524331393637557067726164653a20756e737570706f727465642070726f786044820152681a58589b195555525160ba1b6064820152608490fd5b90918882813d8311610cd8575b610cc78183610969565b810103126104cb5750519038610aeb565b503d610cbd565b803b15610d26577f360894a13ba1a3210667c828492db98dca3e2076cc3735a920a3ca505d382bbc80546001600160a01b0319166001600160a01b03909216919091179055565b60405162461bcd60e51b815260206004820152602d60248201527f455243313936373a206e657720696d706c656d656e746174696f6e206973206e60448201526c1bdd08184818dbdb9d1c9858dd609a1b6064820152608490fd5b91929015610de35750815115610d95575090565b3b15610d9e5790565b60405162461bcd60e51b815260206004820152601d60248201527f416464726573733a2063616c6c20746f206e6f6e2d636f6e74726163740000006044820152606490fd5b825190915015610df65750805190602001fd5b6040519062461bcd60e51b82528160208060048301528251908160248401526000935b828510610e3c575050604492506000838284010152601f80199101168101030190fd5b8481018201518686016044015293810193859350610e19565b90816020910312610e6d57518015158103610e6d5790565b600080fd5b60975460405163d994d6d560e01b815233600482015290602090829060249082906001600160a01b03165afa908115610ee557600091610ec7575b5015610eb557565b604051631dd1b1b560e21b8152600490fd5b610edf915060203d81116107ef576107e18183610969565b38610ead565b6040513d6000823e3d90fd5b15610ef857565b60405162461bcd60e51b815260206004820152602b60248201527f496e697469616c697a61626c653a20636f6e7472616374206973206e6f74206960448201526a6e697469616c697a696e6760a81b6064820152608490fd5b60207f0edb810b4a4ba5ab81b2765b443d63011146e0d69f7604ea7205676bae0995b39160018060a01b03169283600052610130825280604060002055604051908152a256fea264697066735822122065c802f361b1cffb9ce00c145c5f9949f509882142113693e4cc80e53ef818d764736f6c63430008140033",
  "linkReferences": {},
  "deployedLinkReferences": {}
}